{
  "address": "0xCa64c9cB95a9282C29D32A7211d56762ae663d96",
  "abi": [
    {
      "inputs": [
        {
          "internalType": "address",
          "name": "axlGateway",
          "type": "address"
        },
        {
          "internalType": "address",
          "name": "axlGasReceiver",
          "type": "address"
        },
        {
          "internalType": "address",
          "name": "lzEndpoint",
          "type": "address"
        },
        {
          "internalType": "bool",
          "name": "isTestnet",
          "type": "bool"
        }
      ],
      "stateMutability": "nonpayable",
      "type": "constructor"
    },
    {
      "inputs": [
        {
          "internalType": "uint256",
          "name": "requestId",
          "type": "uint256"
        }
      ],
      "name": "ALREADY_EXECUTED",
      "type": "error"
    },
    {
      "inputs": [],
      "name": "AlreadyInitialized",
      "type": "error"
    },
    {
      "inputs": [
        {
          "internalType": "string",
          "name": "",
          "type": "string"
        }
      ],
      "name": "BRIDGE_LIMITS",
      "type": "error"
    },
    {
      "inputs": [
        {
          "internalType": "address",
          "name": "lzEndpoint",
          "type": "address"
        }
      ],
      "name": "INVALID_ENDPOINT",
      "type": "error"
    },
    {
      "inputs": [
        {
          "internalType": "bytes",
          "name": "_srcAddress",
          "type": "bytes"
        }
      ],
      "name": "INVALID_SENDER",
      "type": "error"
    },
    {
      "inputs": [
        {
          "internalType": "address",
          "name": "target",
          "type": "address"
        },
        {
          "internalType": "uint256",
          "name": "chainId",
          "type": "uint256"
        }
      ],
      "name": "INVALID_TARGET_OR_CHAINID",
      "type": "error"
    },
    {
      "inputs": [],
      "name": "InvalidAddress",
      "type": "error"
    },
    {
      "inputs": [],
      "name": "InvalidAddressString",
      "type": "error"
    },
    {
      "inputs": [],
      "name": "MISSING_FEE",
      "type": "error"
    },
    {
      "inputs": [
        {
          "internalType": "address",
          "name": "sender",
          "type": "address"
        }
      ],
      "name": "NOT_GUARDIAN",
      "type": "error"
    },
    {
      "inputs": [],
      "name": "NotApprovedByGateway",
      "type": "error"
    },
    {
      "inputs": [],
      "name": "TRANSFER",
      "type": "error"
    },
    {
      "inputs": [],
      "name": "TRANSFER_FROM",
      "type": "error"
    },
    {
      "inputs": [
        {
          "internalType": "uint256",
          "name": "chainId",
          "type": "uint256"
        }
      ],
      "name": "UNSUPPORTED_CHAIN",
      "type": "error"
    },
    {
      "inputs": [
        {
          "internalType": "address",
          "name": "token",
          "type": "address"
        }
      ],
      "name": "WRONG_TOKEN",
      "type": "error"
    },
    {
      "anonymous": false,
      "inputs": [
        {
          "indexed": false,
          "internalType": "address",
          "name": "previousAdmin",
          "type": "address"
        },
        {
          "indexed": false,
          "internalType": "address",
          "name": "newAdmin",
          "type": "address"
        }
      ],
      "name": "AdminChanged",
      "type": "event"
    },
    {
      "anonymous": false,
      "inputs": [
        {
          "indexed": true,
          "internalType": "address",
          "name": "beacon",
          "type": "address"
        }
      ],
      "name": "BeaconUpgraded",
      "type": "event"
    },
    {
      "anonymous": false,
      "inputs": [
        {
          "indexed": true,
          "internalType": "address",
          "name": "from",
          "type": "address"
        },
        {
          "indexed": true,
          "internalType": "address",
          "name": "to",
          "type": "address"
        },
        {
          "indexed": false,
          "internalType": "uint256",
          "name": "targetChainId",
          "type": "uint256"
        },
        {
          "indexed": false,
          "internalType": "uint256",
          "name": "normalizedAmount",
          "type": "uint256"
        },
        {
          "indexed": false,
          "internalType": "uint256",
          "name": "timestamp",
          "type": "uint256"
        },
        {
          "indexed": false,
          "internalType": "enum MessagePassingBridge.BridgeService",
          "name": "bridge",
          "type": "uint8"
        },
        {
          "indexed": true,
          "internalType": "uint256",
          "name": "id",
          "type": "uint256"
        }
      ],
      "name": "BridgeRequest",
      "type": "event"
    },
    {
      "anonymous": false,
      "inputs": [
        {
          "indexed": true,
          "internalType": "address",
          "name": "from",
          "type": "address"
        },
        {
          "indexed": true,
          "internalType": "address",
          "name": "to",
          "type": "address"
        },
        {
          "indexed": false,
          "internalType": "uint256",
          "name": "normalizedAmount",
          "type": "uint256"
        },
        {
          "indexed": false,
          "internalType": "uint256",
          "name": "fee",
          "type": "uint256"
        },
        {
          "indexed": false,
          "internalType": "uint256",
          "name": "sourceChainId",
          "type": "uint256"
        },
        {
          "indexed": false,
          "internalType": "enum MessagePassingBridge.BridgeService",
          "name": "bridge",
          "type": "uint8"
        },
        {
          "indexed": true,
          "internalType": "uint256",
          "name": "id",
          "type": "uint256"
        }
      ],
      "name": "ExecutedTransfer",
      "type": "event"
    },
    {
      "anonymous": false,
      "inputs": [
        {
          "indexed": false,
          "internalType": "uint256",
          "name": "sourceChainId",
          "type": "uint256"
        },
        {
          "indexed": false,
          "internalType": "address",
          "name": "sourceAddress",
          "type": "address"
        }
      ],
      "name": "FalseSender",
      "type": "event"
    },
    {
      "anonymous": false,
      "inputs": [
        {
          "indexed": false,
          "internalType": "uint8",
          "name": "version",
          "type": "uint8"
        }
      ],
      "name": "Initialized",
      "type": "event"
    },
    {
      "anonymous": false,
      "inputs": [
        {
          "indexed": false,
          "internalType": "uint16",
          "name": "_srcChainId",
          "type": "uint16"
        },
        {
          "indexed": false,
          "internalType": "bytes",
          "name": "_srcAddress",
          "type": "bytes"
        },
        {
          "indexed": false,
          "internalType": "uint64",
          "name": "_nonce",
          "type": "uint64"
        },
        {
          "indexed": false,
          "internalType": "bytes",
          "name": "_payload",
          "type": "bytes"
        },
        {
          "indexed": false,
          "internalType": "bytes",
          "name": "_reason",
          "type": "bytes"
        }
      ],
      "name": "MessageFailed",
      "type": "event"
    },
    {
      "anonymous": false,
      "inputs": [
        {
          "indexed": true,
          "internalType": "address",
          "name": "previousOwner",
          "type": "address"
        },
        {
          "indexed": true,
          "internalType": "address",
          "name": "newOwner",
          "type": "address"
        }
      ],
      "name": "OwnershipTransferred",
      "type": "event"
    },
    {
      "anonymous": false,
      "inputs": [
        {
          "indexed": false,
          "internalType": "uint16",
          "name": "_srcChainId",
          "type": "uint16"
        },
        {
          "indexed": false,
          "internalType": "bytes",
          "name": "_srcAddress",
          "type": "bytes"
        },
        {
          "indexed": false,
          "internalType": "uint64",
          "name": "_nonce",
          "type": "uint64"
        },
        {
          "indexed": false,
          "internalType": "bytes32",
          "name": "_payloadHash",
          "type": "bytes32"
        }
      ],
      "name": "RetryMessageSuccess",
      "type": "event"
    },
    {
      "anonymous": false,
      "inputs": [
        {
          "indexed": false,
          "internalType": "uint16",
          "name": "_dstChainId",
          "type": "uint16"
        },
        {
          "indexed": false,
          "internalType": "uint16",
          "name": "_type",
          "type": "uint16"
        },
        {
          "indexed": false,
          "internalType": "uint256",
          "name": "_minDstGas",
          "type": "uint256"
        }
      ],
      "name": "SetMinDstGas",
      "type": "event"
    },
    {
      "anonymous": false,
      "inputs": [
        {
          "indexed": false,
          "internalType": "address",
          "name": "precrime",
          "type": "address"
        }
      ],
      "name": "SetPrecrime",
      "type": "event"
    },
    {
      "anonymous": false,
      "inputs": [
        {
          "indexed": false,
          "internalType": "uint16",
          "name": "_remoteChainId",
          "type": "uint16"
        },
        {
          "indexed": false,
          "internalType": "bytes",
          "name": "_path",
          "type": "bytes"
        }
      ],
      "name": "SetTrustedRemote",
      "type": "event"
    },
    {
      "anonymous": false,
      "inputs": [
        {
          "indexed": false,
          "internalType": "uint16",
          "name": "_remoteChainId",
          "type": "uint16"
        },
        {
          "indexed": false,
          "internalType": "bytes",
          "name": "_remoteAddress",
          "type": "bytes"
        }
      ],
      "name": "SetTrustedRemoteAddress",
      "type": "event"
    },
    {
      "anonymous": false,
      "inputs": [
        {
          "indexed": true,
          "internalType": "address",
          "name": "implementation",
          "type": "address"
        }
      ],
      "name": "Upgraded",
      "type": "event"
    },
    {
      "inputs": [],
      "name": "DEFAULT_PAYLOAD_SIZE_LIMIT",
      "outputs": [
        {
          "internalType": "uint256",
          "name": "",
          "type": "uint256"
        }
      ],
      "stateMutability": "view",
      "type": "function"
    },
    {
      "inputs": [],
      "name": "TESTNET",
      "outputs": [
        {
          "internalType": "bool",
          "name": "",
          "type": "bool"
        }
      ],
      "stateMutability": "view",
      "type": "function"
    },
    {
      "inputs": [
        {
          "internalType": "address",
          "name": "",
          "type": "address"
        }
      ],
      "name": "accountsDailyLimit",
      "outputs": [
        {
          "internalType": "uint256",
          "name": "lastTransferReset",
          "type": "uint256"
        },
        {
          "internalType": "uint256",
          "name": "bridged24Hours",
          "type": "uint256"
        }
      ],
      "stateMutability": "view",
      "type": "function"
    },
    {
      "inputs": [],
      "name": "avatar",
      "outputs": [
        {
          "internalType": "address",
          "name": "",
          "type": "address"
        }
      ],
      "stateMutability": "view",
      "type": "function"
    },
    {
      "inputs": [],
      "name": "bridgeDailyLimit",
      "outputs": [
        {
          "internalType": "uint256",
          "name": "lastTransferReset",
          "type": "uint256"
        },
        {
          "internalType": "uint256",
          "name": "bridged24Hours",
          "type": "uint256"
        }
      ],
      "stateMutability": "view",
      "type": "function"
    },
    {
      "inputs": [],
      "name": "bridgeFees",
      "outputs": [
        {
          "internalType": "uint256",
          "name": "minFee",
          "type": "uint256"
        },
        {
          "internalType": "uint256",
          "name": "maxFee",
          "type": "uint256"
        },
        {
          "internalType": "uint256",
          "name": "fee",
          "type": "uint256"
        }
      ],
      "stateMutability": "view",
      "type": "function"
    },
    {
      "inputs": [],
      "name": "bridgeLimits",
      "outputs": [
        {
          "internalType": "uint256",
          "name": "dailyLimit",
          "type": "uint256"
        },
        {
          "internalType": "uint256",
          "name": "txLimit",
          "type": "uint256"
        },
        {
          "internalType": "uint256",
          "name": "accountDailyLimit",
          "type": "uint256"
        },
        {
          "internalType": "uint256",
          "name": "minAmount",
          "type": "uint256"
        },
        {
          "internalType": "bool",
          "name": "onlyWhitelisted",
          "type": "bool"
        }
      ],
      "stateMutability": "view",
      "type": "function"
    },
    {
      "inputs": [
        {
          "internalType": "address",
          "name": "target",
          "type": "address"
        },
        {
          "internalType": "uint256",
          "name": "targetChainId",
          "type": "uint256"
        },
        {
          "internalType": "uint256",
          "name": "amount",
          "type": "uint256"
        },
        {
          "internalType": "enum MessagePassingBridge.BridgeService",
          "name": "bridge",
          "type": "uint8"
        }
      ],
      "name": "bridgeTo",
      "outputs": [],
      "stateMutability": "payable",
      "type": "function"
    },
    {
      "inputs": [
        {
          "internalType": "address",
          "name": "target",
          "type": "address"
        },
        {
          "internalType": "uint256",
          "name": "targetChainId",
          "type": "uint256"
        },
        {
          "internalType": "uint256",
          "name": "amount",
          "type": "uint256"
        }
      ],
      "name": "bridgeToWithAxelar",
      "outputs": [],
      "stateMutability": "payable",
      "type": "function"
    },
    {
      "inputs": [
        {
          "internalType": "address",
          "name": "target",
          "type": "address"
        },
        {
          "internalType": "uint256",
          "name": "targetChainId",
          "type": "uint256"
        },
        {
          "internalType": "uint256",
          "name": "amount",
          "type": "uint256"
        }
      ],
      "name": "bridgeToWithLz",
      "outputs": [],
      "stateMutability": "payable",
      "type": "function"
    },
    {
      "inputs": [
        {
          "internalType": "address",
          "name": "target",
          "type": "address"
        },
        {
          "internalType": "uint256",
          "name": "targetChainId",
          "type": "uint256"
        },
        {
          "internalType": "uint256",
          "name": "amount",
          "type": "uint256"
        },
        {
          "internalType": "bytes",
          "name": "adapterParams",
          "type": "bytes"
        }
      ],
      "name": "bridgeToWithLzAdapterParams",
      "outputs": [],
      "stateMutability": "payable",
      "type": "function"
    },
    {
      "inputs": [
        {
          "internalType": "address",
          "name": "from",
          "type": "address"
        },
        {
          "internalType": "uint256",
          "name": "amount",
          "type": "uint256"
        }
      ],
      "name": "canBridge",
      "outputs": [
        {
          "internalType": "bool",
          "name": "isWithinLimit",
          "type": "bool"
        },
        {
          "internalType": "string",
          "name": "error",
          "type": "string"
        }
      ],
      "stateMutability": "view",
      "type": "function"
    },
    {
      "inputs": [],
      "name": "currentId",
      "outputs": [
        {
          "internalType": "uint256",
          "name": "",
          "type": "uint256"
        }
      ],
      "stateMutability": "view",
      "type": "function"
    },
    {
      "inputs": [],
      "name": "dao",
      "outputs": [
        {
          "internalType": "contract Controller",
          "name": "",
          "type": "address"
        }
      ],
      "stateMutability": "view",
      "type": "function"
    },
    {
      "inputs": [
        {
          "internalType": "bytes32",
          "name": "",
          "type": "bytes32"
        }
      ],
      "name": "disabledSourceBridges",
      "outputs": [
        {
          "internalType": "bool",
          "name": "",
          "type": "bool"
        }
      ],
      "stateMutability": "view",
      "type": "function"
    },
    {
      "inputs": [
        {
          "internalType": "uint16",
          "name": "_dstChainId",
          "type": "uint16"
        },
        {
          "internalType": "address",
          "name": "_fromAddress",
          "type": "address"
        },
        {
          "internalType": "address",
          "name": "_toAddress",
          "type": "address"
        },
        {
          "internalType": "uint256",
          "name": "_normalizedAmount",
          "type": "uint256"
        },
        {
          "internalType": "bool",
          "name": "_useZro",
          "type": "bool"
        },
        {
          "internalType": "bytes",
          "name": "_adapterParams",
          "type": "bytes"
        }
      ],
      "name": "estimateSendFee",
      "outputs": [
        {
          "internalType": "uint256",
          "name": "nativeFee",
          "type": "uint256"
        },
        {
          "internalType": "uint256",
          "name": "zroFee",
          "type": "uint256"
        }
      ],
      "stateMutability": "view",
      "type": "function"
    },
    {
      "inputs": [
        {
          "internalType": "bytes32",
          "name": "commandId",
          "type": "bytes32"
        },
        {
          "internalType": "string",
          "name": "sourceChain",
          "type": "string"
        },
        {
          "internalType": "string",
          "name": "sourceAddress",
          "type": "string"
        },
        {
          "internalType": "bytes",
          "name": "payload",
          "type": "bytes"
        }
      ],
      "name": "execute",
      "outputs": [],
      "stateMutability": "nonpayable",
      "type": "function"
    },
    {
      "inputs": [
        {
          "internalType": "bytes32",
          "name": "commandId",
          "type": "bytes32"
        },
        {
          "internalType": "string",
          "name": "sourceChain",
          "type": "string"
        },
        {
          "internalType": "string",
          "name": "sourceAddress",
          "type": "string"
        },
        {
          "internalType": "bytes",
          "name": "payload",
          "type": "bytes"
        },
        {
          "internalType": "string",
          "name": "tokenSymbol",
          "type": "string"
        },
        {
          "internalType": "uint256",
          "name": "amount",
          "type": "uint256"
        }
      ],
      "name": "executeWithToken",
      "outputs": [],
      "stateMutability": "nonpayable",
      "type": "function"
    },
    {
      "inputs": [
        {
          "internalType": "uint256",
          "name": "",
          "type": "uint256"
        }
      ],
      "name": "executedRequests",
      "outputs": [
        {
          "internalType": "bool",
          "name": "",
          "type": "bool"
        }
      ],
      "stateMutability": "view",
      "type": "function"
    },
    {
      "inputs": [
        {
          "internalType": "uint16",
          "name": "",
          "type": "uint16"
        },
        {
          "internalType": "bytes",
          "name": "",
          "type": "bytes"
        },
        {
          "internalType": "uint64",
          "name": "",
          "type": "uint64"
        }
      ],
      "name": "failedMessages",
      "outputs": [
        {
          "internalType": "bytes32",
          "name": "",
          "type": "bytes32"
        }
      ],
      "stateMutability": "view",
      "type": "function"
    },
    {
      "inputs": [],
      "name": "faucet",
      "outputs": [
        {
          "internalType": "contract IFaucet",
          "name": "",
          "type": "address"
        }
      ],
      "stateMutability": "view",
      "type": "function"
    },
    {
      "inputs": [
        {
          "internalType": "uint16",
          "name": "_srcChainId",
          "type": "uint16"
        },
        {
          "internalType": "bytes",
          "name": "_srcAddress",
          "type": "bytes"
        }
      ],
      "name": "forceResumeReceive",
      "outputs": [],
      "stateMutability": "nonpayable",
      "type": "function"
    },
    {
      "inputs": [],
      "name": "gasService",
      "outputs": [
        {
          "internalType": "contract IAxelarGasService",
          "name": "",
          "type": "address"
        }
      ],
      "stateMutability": "view",
      "type": "function"
    },
    {
      "inputs": [],
      "name": "gateway",
      "outputs": [
        {
          "internalType": "contract IAxelarGateway",
          "name": "",
          "type": "address"
        }
      ],
      "stateMutability": "view",
      "type": "function"
    },
    {
      "inputs": [
        {
          "internalType": "uint16",
          "name": "_version",
          "type": "uint16"
        },
        {
          "internalType": "uint16",
          "name": "_chainId",
          "type": "uint16"
        },
        {
          "internalType": "address",
          "name": "",
          "type": "address"
        },
        {
          "internalType": "uint256",
          "name": "_configType",
          "type": "uint256"
        }
      ],
      "name": "getConfig",
      "outputs": [
        {
          "internalType": "bytes",
          "name": "",
          "type": "bytes"
        }
      ],
      "stateMutability": "view",
      "type": "function"
    },
    {
      "inputs": [
        {
          "internalType": "uint16",
          "name": "_remoteChainId",
          "type": "uint16"
        }
      ],
      "name": "getTrustedRemoteAddress",
      "outputs": [
        {
          "internalType": "bytes",
          "name": "",
          "type": "bytes"
        }
      ],
      "stateMutability": "view",
      "type": "function"
    },
    {
      "inputs": [],
      "name": "guardian",
      "outputs": [
        {
          "internalType": "address",
          "name": "",
          "type": "address"
        }
      ],
      "stateMutability": "view",
      "type": "function"
    },
    {
      "inputs": [
        {
          "internalType": "contract INameService",
          "name": "nameService",
          "type": "address"
        }
      ],
      "name": "initialize",
      "outputs": [],
      "stateMutability": "nonpayable",
      "type": "function"
    },
    {
      "inputs": [],
      "name": "isClosed",
      "outputs": [
        {
          "internalType": "bool",
          "name": "",
          "type": "bool"
        }
      ],
      "stateMutability": "view",
      "type": "function"
    },
    {
      "inputs": [
        {
          "internalType": "uint16",
          "name": "_srcChainId",
          "type": "uint16"
        },
        {
          "internalType": "bytes",
          "name": "_srcAddress",
          "type": "bytes"
        }
      ],
      "name": "isTrustedRemote",
      "outputs": [
        {
          "internalType": "bool",
          "name": "",
          "type": "bool"
        }
      ],
      "stateMutability": "view",
      "type": "function"
    },
    {
      "inputs": [
        {
          "internalType": "uint256",
          "name": "",
          "type": "uint256"
        }
      ],
      "name": "lzChainIdsMapping",
      "outputs": [
        {
          "internalType": "uint16",
          "name": "",
          "type": "uint16"
        }
      ],
      "stateMutability": "view",
      "type": "function"
    },
    {
      "inputs": [],
      "name": "lzEndpoint",
      "outputs": [
        {
          "internalType": "contract ILayerZeroEndpointUpgradeable",
          "name": "",
          "type": "address"
        }
      ],
      "stateMutability": "view",
      "type": "function"
    },
    {
      "inputs": [],
      "name": "lzEndpoint_",
      "outputs": [
        {
          "internalType": "address",
          "name": "",
          "type": "address"
        }
      ],
      "stateMutability": "view",
      "type": "function"
    },
    {
      "inputs": [
        {
          "internalType": "uint16",
          "name": "_srcChainId",
          "type": "uint16"
        },
        {
          "internalType": "bytes",
          "name": "_srcAddress",
          "type": "bytes"
        },
        {
          "internalType": "uint64",
          "name": "_nonce",
          "type": "uint64"
        },
        {
          "internalType": "bytes",
          "name": "_payload",
          "type": "bytes"
        }
      ],
      "name": "lzReceive",
      "outputs": [],
      "stateMutability": "nonpayable",
      "type": "function"
    },
    {
      "inputs": [
        {
          "internalType": "uint16",
          "name": "",
          "type": "uint16"
        },
        {
          "internalType": "uint16",
          "name": "",
          "type": "uint16"
        }
      ],
      "name": "minDstGasLookup",
      "outputs": [
        {
          "internalType": "uint256",
          "name": "",
          "type": "uint256"
        }
      ],
      "stateMutability": "view",
      "type": "function"
    },
    {
      "inputs": [],
      "name": "nameService",
      "outputs": [
        {
          "internalType": "contract INameService",
          "name": "",
          "type": "address"
        }
      ],
      "stateMutability": "view",
      "type": "function"
    },
    {
      "inputs": [],
      "name": "nativeToken",
      "outputs": [
        {
          "internalType": "contract IGoodDollar",
          "name": "",
          "type": "address"
        }
      ],
      "stateMutability": "view",
      "type": "function"
    },
    {
      "inputs": [
        {
          "internalType": "uint16",
          "name": "_srcChainId",
          "type": "uint16"
        },
        {
          "internalType": "bytes",
          "name": "_srcAddress",
          "type": "bytes"
        },
        {
          "internalType": "uint64",
          "name": "_nonce",
          "type": "uint64"
        },
        {
          "internalType": "bytes",
          "name": "_payload",
          "type": "bytes"
        }
      ],
      "name": "nonblockingLzReceive",
      "outputs": [],
      "stateMutability": "nonpayable",
      "type": "function"
    },
    {
      "inputs": [
        {
          "internalType": "address",
          "name": "from",
          "type": "address"
        },
        {
          "internalType": "uint256",
          "name": "amount",
          "type": "uint256"
        },
        {
          "internalType": "bytes",
          "name": "data",
          "type": "bytes"
        }
      ],
      "name": "onTokenTransfer",
      "outputs": [
        {
          "internalType": "bool",
          "name": "",
          "type": "bool"
        }
      ],
      "stateMutability": "payable",
      "type": "function"
    },
    {
      "inputs": [],
      "name": "owner",
      "outputs": [
        {
          "internalType": "address",
          "name": "",
          "type": "address"
        }
      ],
      "stateMutability": "view",
      "type": "function"
    },
    {
      "inputs": [
        {
          "internalType": "bool",
          "name": "isPaused",
          "type": "bool"
        }
      ],
      "name": "pauseBridge",
      "outputs": [],
      "stateMutability": "nonpayable",
      "type": "function"
    },
    {
      "inputs": [
        {
          "internalType": "uint16",
          "name": "",
          "type": "uint16"
        }
      ],
      "name": "payloadSizeLimitLookup",
      "outputs": [
        {
          "internalType": "uint256",
          "name": "",
          "type": "uint256"
        }
      ],
      "stateMutability": "view",
      "type": "function"
    },
    {
      "inputs": [],
      "name": "precrime",
      "outputs": [
        {
          "internalType": "address",
          "name": "",
          "type": "address"
        }
      ],
      "stateMutability": "view",
      "type": "function"
    },
    {
      "inputs": [],
      "name": "proxiableUUID",
      "outputs": [
        {
          "internalType": "bytes32",
          "name": "",
          "type": "bytes32"
        }
      ],
      "stateMutability": "view",
      "type": "function"
    },
    {
      "inputs": [],
      "name": "renounceOwnership",
      "outputs": [],
      "stateMutability": "nonpayable",
      "type": "function"
    },
    {
      "inputs": [
        {
          "internalType": "uint16",
          "name": "_srcChainId",
          "type": "uint16"
        },
        {
          "internalType": "bytes",
          "name": "_srcAddress",
          "type": "bytes"
        },
        {
          "internalType": "uint64",
          "name": "_nonce",
          "type": "uint64"
        },
        {
          "internalType": "bytes",
          "name": "_payload",
          "type": "bytes"
        }
      ],
      "name": "retryMessage",
      "outputs": [],
      "stateMutability": "payable",
      "type": "function"
    },
    {
      "inputs": [
        {
          "components": [
            {
              "internalType": "uint256",
              "name": "minFee",
              "type": "uint256"
            },
            {
              "internalType": "uint256",
              "name": "maxFee",
              "type": "uint256"
            },
            {
              "internalType": "uint256",
              "name": "fee",
              "type": "uint256"
            }
          ],
          "internalType": "struct MessagePassingBridge.BridgeFees",
          "name": "fees",
          "type": "tuple"
        }
      ],
      "name": "setBridgeFees",
      "outputs": [],
      "stateMutability": "nonpayable",
      "type": "function"
    },
    {
      "inputs": [
        {
          "components": [
            {
              "internalType": "uint256",
              "name": "dailyLimit",
              "type": "uint256"
            },
            {
              "internalType": "uint256",
              "name": "txLimit",
              "type": "uint256"
            },
            {
              "internalType": "uint256",
              "name": "accountDailyLimit",
              "type": "uint256"
            },
            {
              "internalType": "uint256",
              "name": "minAmount",
              "type": "uint256"
            },
            {
              "internalType": "bool",
              "name": "onlyWhitelisted",
              "type": "bool"
            }
          ],
          "internalType": "struct MessagePassingBridge.BridgeLimits",
          "name": "limits",
          "type": "tuple"
        }
      ],
      "name": "setBridgeLimits",
      "outputs": [],
      "stateMutability": "nonpayable",
      "type": "function"
    },
    {
      "inputs": [
        {
          "internalType": "uint16",
          "name": "_version",
          "type": "uint16"
        },
        {
          "internalType": "uint16",
          "name": "_chainId",
          "type": "uint16"
        },
        {
          "internalType": "uint256",
          "name": "_configType",
          "type": "uint256"
        },
        {
          "internalType": "bytes",
          "name": "_config",
          "type": "bytes"
        }
      ],
      "name": "setConfig",
      "outputs": [],
      "stateMutability": "nonpayable",
      "type": "function"
    },
    {
      "inputs": [
        {
          "internalType": "bytes32[]",
          "name": "bridgeKeys",
          "type": "bytes32[]"
        },
        {
          "internalType": "bool[]",
          "name": "disabled",
          "type": "bool[]"
        }
      ],
      "name": "setDisabledBridges",
      "outputs": [],
      "stateMutability": "nonpayable",
      "type": "function"
    },
    {
      "inputs": [
        {
          "internalType": "contract IFaucet",
          "name": "_faucet",
          "type": "address"
        }
      ],
      "name": "setFaucet",
      "outputs": [],
      "stateMutability": "nonpayable",
      "type": "function"
    },
    {
      "inputs": [
        {
          "internalType": "address",
          "name": "_guardian",
          "type": "address"
        }
      ],
      "name": "setGuardian",
      "outputs": [],
      "stateMutability": "nonpayable",
      "type": "function"
    },
    {
      "inputs": [
        {
          "internalType": "uint16",
          "name": "_dstChainId",
          "type": "uint16"
        },
        {
          "internalType": "uint16",
          "name": "_packetType",
          "type": "uint16"
        },
        {
          "internalType": "uint256",
          "name": "_minGas",
          "type": "uint256"
        }
      ],
      "name": "setMinDstGas",
      "outputs": [],
      "stateMutability": "nonpayable",
      "type": "function"
    },
    {
      "inputs": [
        {
          "internalType": "uint16",
          "name": "_dstChainId",
          "type": "uint16"
        },
        {
          "internalType": "uint256",
          "name": "_size",
          "type": "uint256"
        }
      ],
      "name": "setPayloadSizeLimit",
      "outputs": [],
      "stateMutability": "nonpayable",
      "type": "function"
    },
    {
      "inputs": [
        {
          "internalType": "address",
          "name": "_precrime",
          "type": "address"
        }
      ],
      "name": "setPrecrime",
      "outputs": [],
      "stateMutability": "nonpayable",
      "type": "function"
    },
    {
      "inputs": [
        {
          "internalType": "uint16",
          "name": "_version",
          "type": "uint16"
        }
      ],
      "name": "setReceiveVersion",
      "outputs": [],
      "stateMutability": "nonpayable",
      "type": "function"
    },
    {
      "inputs": [
        {
          "internalType": "uint16",
          "name": "_version",
          "type": "uint16"
        }
      ],
      "name": "setSendVersion",
      "outputs": [],
      "stateMutability": "nonpayable",
      "type": "function"
    },
    {
      "inputs": [
        {
          "internalType": "uint16",
          "name": "_srcChainId",
          "type": "uint16"
        },
        {
          "internalType": "bytes",
          "name": "_path",
          "type": "bytes"
        }
      ],
      "name": "setTrustedRemote",
      "outputs": [],
      "stateMutability": "nonpayable",
      "type": "function"
    },
    {
      "inputs": [
        {
          "internalType": "uint16",
          "name": "_remoteChainId",
          "type": "uint16"
        },
        {
          "internalType": "bytes",
          "name": "_remoteAddress",
          "type": "bytes"
        }
      ],
      "name": "setTrustedRemoteAddress",
      "outputs": [],
      "stateMutability": "nonpayable",
      "type": "function"
    },
    {
      "inputs": [
        {
          "internalType": "address",
          "name": "newOwner",
          "type": "address"
        }
      ],
      "name": "transferOwnership",
      "outputs": [],
      "stateMutability": "nonpayable",
      "type": "function"
    },
    {
      "inputs": [
        {
          "internalType": "uint16",
          "name": "",
          "type": "uint16"
        }
      ],
      "name": "trustedRemoteLookup",
      "outputs": [
        {
          "internalType": "bytes",
          "name": "",
          "type": "bytes"
        }
      ],
      "stateMutability": "view",
      "type": "function"
    },
    {
      "inputs": [],
      "name": "updateAvatar",
      "outputs": [],
      "stateMutability": "nonpayable",
      "type": "function"
    },
    {
      "inputs": [
        {
          "internalType": "address",
          "name": "newImplementation",
          "type": "address"
        }
      ],
      "name": "upgradeTo",
      "outputs": [],
      "stateMutability": "nonpayable",
      "type": "function"
    },
    {
      "inputs": [
        {
          "internalType": "address",
          "name": "newImplementation",
          "type": "address"
        },
        {
          "internalType": "bytes",
          "name": "data",
          "type": "bytes"
        }
      ],
      "name": "upgradeToAndCall",
      "outputs": [],
      "stateMutability": "payable",
      "type": "function"
    },
    {
      "inputs": [
        {
          "internalType": "address",
          "name": "token",
          "type": "address"
        },
        {
          "internalType": "uint256",
          "name": "amount",
          "type": "uint256"
        }
      ],
      "name": "withdraw",
      "outputs": [],
      "stateMutability": "nonpayable",
      "type": "function"
    }
  ],
  "transactionHash": "0x9df0989a2487044e80d56266e4f7a16e003510027657aa2f9f302045e41b9f23",
  "args": [
    "0xe432150cce91c13a887f7D836923d5597adD8E31",
    "0xbE406F0189A0B4cf3A05C286473D23791Dd44Cc6",
    "0xae92d5aD7583AD66E49A0c67BAd18F6ba52dDDc1",
    true
  ],
  "numDeployments": 3,
  "solcInputHash": "955a7b5ecbe8c7a64064d53c6c6b51b1",
  "bytecode": "0x610120604052306080523480156200001657600080fd5b5060405162005cd938038062005cd98339810160408190526200003991620000ac565b8383816001600160a01b038116620000645760405163e6c4247b60e01b815260040160405180910390fd5b6001600160a01b0390811660a05290811660c0529290921660e052151561010052506200010f915050565b80516001600160a01b0381168114620000a757600080fd5b919050565b60008060008060808587031215620000c357600080fd5b620000ce856200008f565b9350620000de602086016200008f565b9250620000ee604086016200008f565b9150606085015180151581146200010457600080fd5b939692955090935050565b60805160a05160c05160e05161010051615b3f6200019a600039600081816107a80152613e030152600081816103160152611fe101526000818161075f015261338401526000818161040801528181610fc1015281816117c7015261341d01526000818161157d015281816115bd01528181611889015281816118c901526119450152615b3f6000f3fe6080604052600436106102dd5760003560e01c80621d3567146102e2578063020051cf1461030457806305fead151461034e57806307e0db17146103835780630d187dd4146103a35780630df37483146103b657806310ddb137146103d6578063116191b6146103f65780631a3947951461042a5780631a98b2e01461044a5780631b3c90a81461046a5780631fec5c5c1461047f57806329b70872146104925780633095634a146104b25780633659cfe6146104e05780633d8b38f6146105005780633e6326fc146105305780633f1f4fa4146105505780633fa4d7db1461058c5780634162169f1461059f578063425cfb53146105bf57806342d65a8d146105f0578063452a93201461061057806349160658146106315780634f1ef2861461065157806352d1902d146106645780635551b979146106795780635aef7de61461068c5780635b8c41e6146106ac57806366ad5c8a146106fc57806369c20d361461071c5780636a22d8cc1461074d578063715018a61461078157806372891b2d146107965780637533d788146107ca5780637b0240c0146107f757806382dc737d146108345780638a0dac4a146108545780638cfd8f5c146108745780638da5cb5b146108ad578063950c8a74146108c25780639f38369a146108e3578063a4c0ed3614610903578063a6c3d16514610916578063b2f7667f14610936578063b353aaa714610953578063b5569f1814610973578063baf3292d146109b2578063c2b6b58c146109d2578063c4461834146109ed578063c4d66de814610a03578063c6dd812f14610a23578063c78ab88214610a7c578063cbed8b9c14610a9c578063d1deba1f14610abc578063d422794714610acf578063d8b31c7714610b04578063de5f72fd14610b24578063df2a5b3b14610b45578063e00dd16114610b65578063e1758bd814610b7c578063eb8d72b714610b91578063f2fde38b14610bb1578063f3fef3a314610bd1578063f5ecbdbc14610bf1575b600080fd5b3480156102ee57600080fd5b506103026102fd366004614714565b610c11565b005b34801561031057600080fd5b506103387f000000000000000000000000000000000000000000000000000000000000000081565b60405161034591906147a7565b60405180910390f35b34801561035a57600080fd5b5061036e6103693660046147de565b610d50565b60408051928352602083019190915201610345565b34801561038f57600080fd5b5061030261039e366004614873565b610e13565b6103026103b136600461488e565b610e80565b3480156103c257600080fd5b506103026103d13660046148f7565b610ec7565b3480156103e257600080fd5b506103026103f1366004614873565b610ee7565b34801561040257600080fd5b506103387f000000000000000000000000000000000000000000000000000000000000000081565b34801561043657600080fd5b50610302610445366004614921565b610f1f565b34801561045657600080fd5b5061030261046536600461493e565b610f90565b34801561047657600080fd5b50610302611073565b61030261048d366004614a26565b61119a565b34801561049e57600080fd5b506103026104ad366004614ab4565b6111bf565b3480156104be57600080fd5b506104d26104cd366004614b29565b611255565b604051610345929190614b9f565b3480156104ec57600080fd5b506103026104fb366004614bc2565b611572565b34801561050c57600080fd5b5061052061051b366004614bdf565b61163b565b6040519015158152602001610345565b34801561053c57600080fd5b50606754610338906001600160a01b031681565b34801561055c57600080fd5b5061057e61056b366004614873565b6101016020526000908152604090205481565b604051908152602001610345565b61030261059a366004614c31565b611708565b3480156105ab57600080fd5b50606554610338906001600160a01b031681565b3480156105cb57600080fd5b506105206105da366004614c66565b6101946020526000908152604090205460ff1681565b3480156105fc57600080fd5b5061030261060b366004614bdf565b61172c565b34801561061c57600080fd5b5061019354610338906001600160a01b031681565b34801561063d57600080fd5b5061030261064c366004614c7f565b611796565b61030261065f366004614d8c565b61187e565b34801561067057600080fd5b5061057e611938565b610302610687366004614c31565b6119e6565b34801561069857600080fd5b50606654610338906001600160a01b031681565b3480156106b857600080fd5b5061057e6106c7366004614ddb565b610130602090815260009384526040808520845180860184018051928152908401958401959095209452929052825290205481565b34801561070857600080fd5b50610302610717366004614714565b611a06565b34801561072857600080fd5b50610520610737366004614c66565b6101956020526000908152604090205460ff1681565b34801561075957600080fd5b506103387f000000000000000000000000000000000000000000000000000000000000000081565b34801561078d57600080fd5b50610302611ae2565b3480156107a257600080fd5b506105207f000000000000000000000000000000000000000000000000000000000000000081565b3480156107d657600080fd5b506107ea6107e5366004614873565b611af6565b6040516103459190614e38565b34801561080357600080fd5b5061019754610198546101995461081992919083565b60408051938452602084019290925290820152606001610345565b34801561084057600080fd5b5061030261084f366004614e4b565b611b90565b34801561086057600080fd5b5061030261086f366004614bc2565b611c06565b34801561088057600080fd5b5061057e61088f366004614ea6565b61010060209081526000928352604080842090915290825290205481565b3480156108b957600080fd5b50610338611c86565b3480156108ce57600080fd5b5061010254610338906001600160a01b031681565b3480156108ef57600080fd5b506107ea6108fe366004614873565b611c95565b610520610911366004614ed9565b611da5565b34801561092257600080fd5b50610302610931366004614bdf565b611e1a565b34801561094257600080fd5b5061019f546101a05461036e919082565b34801561095f57600080fd5b5060fe54610338906001600160a01b031681565b34801561097f57600080fd5b506109a561098e366004614c66565b6101a46020526000908152604090205461ffff1681565b6040516103459190614f34565b3480156109be57600080fd5b506103026109cd366004614bc2565b611ead565b3480156109de57600080fd5b50610196546105209060ff1681565b3480156109f957600080fd5b5061057e61271081565b348015610a0f57600080fd5b50610302610a1e366004614bc2565b611f0c565b348015610a2f57600080fd5b5061019a5461019b5461019c5461019d5461019e54610a52949392919060ff1685565b6040805195865260208601949094529284019190915260608301521515608082015260a001610345565b348015610a8857600080fd5b50610302610a97366004614fd5565b612076565b348015610aa857600080fd5b50610302610ab7366004615083565b612150565b610302610aca366004614714565b6121c9565b348015610adb57600080fd5b5061036e610aea366004614bc2565b6101a1602052600090815260409020805460019091015482565b348015610b1057600080fd5b50610302610b1f366004614bc2565b6123e1565b348015610b3057600080fd5b506101a254610338906001600160a01b031681565b348015610b5157600080fd5b50610302610b603660046150d4565b612461565b348015610b7157600080fd5b5061057e6101a35481565b348015610b8857600080fd5b50610338612514565b348015610b9d57600080fd5b50610302610bac366004614bdf565b6125a1565b348015610bbd57600080fd5b50610302610bcc366004614bc2565b6125fb565b348015610bdd57600080fd5b50610302610bec366004614b29565b612671565b348015610bfd57600080fd5b506107ea610c0c366004615110565b61275f565b60fe546001600160a01b0316336001600160a01b031614610c505733604051634a43969960e11b8152600401610c4791906147a7565b60405180910390fd5b60003030604051602001610c6592919061515d565b60408051601f19818403018152919052805190915085141580610c8757508051155b80610caf575080516020820120604051610ca4908890889061517f565b604051809103902014155b15610cd15785856040516306543c8960e31b8152600401610c479291906151b8565b610d478787878080601f01602080910402602001604051908101604052809392919081815260200183838082843760009201919091525050604080516020601f8a018190048102820181019092528881528a9350915088908890819084018382808284376000920191909152506127f292505050565b50505050505050565b604080516001600160a01b0388811660208301528781168284015260608201879052600060808084018290528451808503909101815260a084019485905260fe5463040a7bb160e41b90955290938493919216906340a7bb1090610dc2908d90309086908c908c908c9060a4016151cc565b6040805180830381865afa158015610dde573d6000803e3d6000fd5b505050506040513d601f19601f82011682018060405250810190610e029190615222565b925092505097509795505050505050565b610e1b61286b565b60fe546040516307e0db1760e01b81526001600160a01b03909116906307e0db1790610e4b908490600401614f34565b600060405180830381600087803b158015610e6557600080fd5b505af1158015610e79573d6000803e3d6000fd5b5050505050565b610e79338686866000600188888080601f0160208091040260200160405190810160405280939291908181526020018383808284376000920191909152506128ca92505050565b610ecf61286b565b61ffff90911660009081526101016020526040902055565b610eef61286b565b60fe546040516310ddb13760e01b81526001600160a01b03909116906310ddb13790610e4b908490600401614f34565b610193546001600160a01b0316331480610f4357506066546001600160a01b031633145b80610f5d575033610f52611c86565b6001600160a01b0316145b610f7c573360405163b63b5ad960e01b8152600401610c4791906147a7565b610196805460ff1916911515919091179055565b60008585604051610fa292919061517f565b604051908190038120631876eed960e01b825291506001600160a01b037f00000000000000000000000000000000000000000000000000000000000000001690631876eed990611006908e908e908e908e908e9089908d908d908d90600401615246565b6020604051808303816000875af1158015611025573d6000803e3d6000fd5b505050506040513d601f19601f8201168201806040525081019061104991906152a5565b61106657604051631403112d60e21b815260040160405180910390fd5b5050505050505050505050565b60675460405163bf40fac160e01b815260206004820152600a60248201526921a7a72a2927a62622a960b11b60448201526001600160a01b039091169063bf40fac190606401602060405180830381865afa1580156110d6573d6000803e3d6000fd5b505050506040513d601f19601f820116820180604052508101906110fa91906152c2565b606580546001600160a01b0319166001600160a01b0392909216918217905560408051632d77bef360e11b81529051635aef7de6916004808201926020929091908290030181865afa158015611154573d6000803e3d6000fd5b505050506040513d601f19601f8201168201806040525081019061117891906152c2565b606680546001600160a01b0319166001600160a01b0392909216919091179055565b6111b933858585600086604051806020016040528060008152506128ca565b50505050565b610193546001600160a01b03163314806111e357506066546001600160a01b031633145b806111fd5750336111f2611c86565b6001600160a01b0316145b61121c573360405163b63b5ad960e01b8152600401610c4791906147a7565b805161019a55602081015161019b55604081015161019c55606081015161019d556080015161019e805460ff1916911515919091179055565b6101965460009060609060ff161561128e57505060408051808201909152600681526518db1bdcd95960d21b602082015260009061156b565b61019d548310156112c35750506040805180820190915260098152681b5a5b905b5bdd5b9d60ba1b602082015260009061156b565b6001600160a01b03841660009081526101a160205260409020600101546112ed62015180426152f5565b6001600160a01b03861660009081526101a160205260409020541015611314575082611321565b61131e848261530c565b90505b61019e5460ff16801561133e57506067546001600160a01b031615155b156114825760675460405163bf40fac160e01b81526020600482015260086024820152674944454e5449545960c01b60448201526000916001600160a01b03169063bf40fac190606401602060405180830381865afa1580156113a5573d6000803e3d6000fd5b505050506040513d601f19601f820116820180604052508101906113c991906152c2565b90506001600160a01b0381161561148057604051633af32abf60e01b81526001600160a01b03821690633af32abf906114069089906004016147a7565b602060405180830381865afa158015611423573d6000803e3d6000fd5b505050506040513d601f19601f8201168201806040525081019061144791906152a5565b6114805760006040518060400160405280600f81526020016e1b9bdd081dda1a5d195b1a5cdd1959608a1b81525093509350505061156b565b505b61019c548111156114c05750506040805180820190915260118152701858d8dbdd5b9d11185a5b1e531a5b5a5d607a1b60208201526000915061156b565b61019b548411156114f45750506040805180820190915260078152661d1e131a5b5a5d60ca1b60208201526000915061156b565b61150162015180426152f5565b61019f54101561151057611555565b61019a546101a05461152390869061530c565b111561155557505060408051808201909152600a81526919185a5b1e531a5b5a5d60b21b60208201526000915061156b565b5050604080516020810190915260008152600191505b9250929050565b306001600160a01b037f00000000000000000000000000000000000000000000000000000000000000001614156115bb5760405162461bcd60e51b8152600401610c4790615324565b7f00000000000000000000000000000000000000000000000000000000000000006001600160a01b03166115ed612cef565b6001600160a01b0316146116135760405162461bcd60e51b8152600401610c479061535e565b61161c81612d0b565b6040805160008082526020820190925261163891839190612d13565b50565b61ffff8316600090815260ff60205260408120805482919061165c90615398565b80601f016020809104026020016040519081016040528092919081815260200182805461168890615398565b80156116d55780601f106116aa576101008083540402835291602001916116d5565b820191906000526020600020905b8154815290600101906020018083116116b857829003601f168201915b5050505050905083836040516116ec92919061517f565b60405180910390208180519060200120149150505b9392505050565b61172733848484600080604051806020016040528060008152506128ca565b505050565b61173461286b565b60fe546040516342d65a8d60e01b81526001600160a01b03909116906342d65a8d90611768908690869086906004016153cd565b600060405180830381600087803b15801561178257600080fd5b505af1158015610d47573d6000803e3d6000fd5b600082826040516117a892919061517f565b604051908190038120635f6970c360e01b825291506001600160a01b037f00000000000000000000000000000000000000000000000000000000000000001690635f6970c390611806908b908b908b908b908b9089906004016153eb565b6020604051808303816000875af1158015611825573d6000803e3d6000fd5b505050506040513d601f19601f8201168201806040525081019061184991906152a5565b61186657604051631403112d60e21b815260040160405180910390fd5b611874878787878787612e7e565b5050505050505050565b306001600160a01b037f00000000000000000000000000000000000000000000000000000000000000001614156118c75760405162461bcd60e51b8152600401610c4790615324565b7f00000000000000000000000000000000000000000000000000000000000000006001600160a01b03166118f9612cef565b6001600160a01b03161461191f5760405162461bcd60e51b8152600401610c479061535e565b61192882612d0b565b61193482826001612d13565b5050565b6000306001600160a01b037f000000000000000000000000000000000000000000000000000000000000000016146119d35760405162461bcd60e51b815260206004820152603860248201527f555550535570677261646561626c653a206d757374206e6f742062652063616c6044820152771b1959081d1a1c9bdd59da0819195b1959d85d1958d85b1b60421b6064820152608401610c47565b50600080516020615aa383398151915290565b6117273384848460006001604051806020016040528060008152506128ca565b333014611a645760405162461bcd60e51b815260206004820152602660248201527f4e6f6e626c6f636b696e674c7a4170703a2063616c6c6572206d7573742062656044820152650204c7a4170760d41b6064820152608401610c47565b611ada8686868080601f01602080910402602001604051908101604052809392919081815260200183838082843760009201919091525050604080516020601f890181900481028201810190925287815289935091508790879081908401838280828437600092019190915250612f2092505050565b505050505050565b611aea61286b565b611af46000612f54565b565b60ff6020526000908152604090208054611b0f90615398565b80601f0160208091040260200160405190810160405280929190818152602001828054611b3b90615398565b8015611b885780601f10611b5d57610100808354040283529160200191611b88565b820191906000526020600020905b815481529060010190602001808311611b6b57829003601f168201915b505050505081565b610193546001600160a01b0316331480611bb457506066546001600160a01b031633145b80611bce575033611bc3611c86565b6001600160a01b0316145b611bed573360405163b63b5ad960e01b8152600401610c4791906147a7565b8051610197556020810151610198556040015161019955565b610193546001600160a01b0316331480611c2a57506066546001600160a01b031633145b80611c44575033611c39611c86565b6001600160a01b0316145b611c63573360405163b63b5ad960e01b8152600401610c4791906147a7565b61019380546001600160a01b0319166001600160a01b0392909216919091179055565b60cc546001600160a01b031690565b61ffff8116600090815260ff6020526040812080546060929190611cb890615398565b80601f0160208091040260200160405190810160405280929190818152602001828054611ce490615398565b8015611d315780601f10611d0657610100808354040283529160200191611d31565b820191906000526020600020905b815481529060010190602001808311611d1457829003601f168201915b50505050509050805160001415611d8a5760405162461bcd60e51b815260206004820152601d60248201527f4c7a4170703a206e6f20747275737465642070617468207265636f72640000006044820152606401610c47565b611701600060148351611d9d91906152f5565b839190612fa6565b6000611daf612514565b6001600160a01b0316336001600160a01b031614611de2573360405163077e7d6560e01b8152600401610c4791906147a7565b6000808080611df38688018861542c565b9350935093509350611e0b8984868b600187876128ca565b50600198975050505050505050565b611e2261286b565b818130604051602001611e3793929190615495565b60408051601f1981840301815291815261ffff8516600090815260ff60209081529190208251611e6c9391929091019061459d565b507f8c0400cfe2d1199b1a725c78960bcc2a344d869b80590d0f2bd005db15a572ce838383604051611ea0939291906153cd565b60405180910390a1505050565b611eb561286b565b61010280546001600160a01b0319166001600160a01b0383161790556040517f5db758e995a17ec1ad84bdef7e8c3293a0bd6179bcce400dff5d4c3d87db726b90611f019083906147a7565b60405180910390a150565b600054610100900460ff1615808015611f2c5750600054600160ff909116105b80611f4d5750611f3b306130b3565b158015611f4d575060005460ff166001145b611fb05760405162461bcd60e51b815260206004820152602e60248201527f496e697469616c697a61626c653a20636f6e747261637420697320616c72656160448201526d191e481a5b9a5d1a585b1a5e995960921b6064820152608401610c47565b6000805460ff191660011790558015611fd3576000805461ff0019166101001790555b611fdc826130c2565b6120057f00000000000000000000000000000000000000000000000000000000000000006130e5565b61019380546001600160a01b0319163317905560665461202d906001600160a01b03166125fb565b8015611934576000805461ff0019169055604051600181527f7f26b83ff96e1f2b6a682f133852f6798a09c465da95921460cefb38474024989060200160405180910390a15050565b610193546001600160a01b031633148061209a57506066546001600160a01b031633145b806120b45750336120a9611c86565b6001600160a01b0316145b6120d3573360405163b63b5ad960e01b8152600401610c4791906147a7565b60005b8251811015611727578181815181106120f1576120f16154b6565b60200260200101516101956000858481518110612110576121106154b6565b6020026020010151815260200190815260200160002060006101000a81548160ff0219169083151502179055508080612148906154cc565b9150506120d6565b61215861286b565b60fe546040516332fb62e760e21b81526001600160a01b039091169063cbed8b9c9061219090889088908890889088906004016154e7565b600060405180830381600087803b1580156121aa57600080fd5b505af11580156121be573d6000803e3d6000fd5b505050505050505050565b61ffff86166000908152610130602052604080822090516121ed908890889061517f565b90815260408051602092819003830190206001600160401b0387166000908152925290205490508061226d5760405162461bcd60e51b815260206004820152602360248201527f4e6f6e626c6f636b696e674c7a4170703a206e6f2073746f726564206d65737360448201526261676560e81b6064820152608401610c47565b80838360405161227e92919061517f565b6040518091039020146122dd5760405162461bcd60e51b815260206004820152602160248201527f4e6f6e626c6f636b696e674c7a4170703a20696e76616c6964207061796c6f616044820152601960fa1b6064820152608401610c47565b61ffff8716600090815261013060205260408082209051612301908990899061517f565b90815260408051602092819003830181206001600160401b038916600090815290845282902093909355601f88018290048202830182019052868252612399918991899089908190840183828082843760009201919091525050604080516020601f8a018190048102820181019092528881528a935091508890889081908401838280828437600092019190915250612f2092505050565b7fc264d91f3adc5588250e1551f547752ca0cfa8f6b530d243b9f9f4cab10ea8e587878787856040516123d0959493929190615520565b60405180910390a150505050505050565b610193546001600160a01b031633148061240557506066546001600160a01b031633145b8061241f575033612414611c86565b6001600160a01b0316145b61243e573360405163b63b5ad960e01b8152600401610c4791906147a7565b6101a280546001600160a01b0319166001600160a01b0392909216919091179055565b61246961286b565b600081116124b15760405162461bcd60e51b81526020600482015260156024820152744c7a4170703a20696e76616c6964206d696e47617360581b6044820152606401610c47565b61ffff8381166000818152610100602090815260408083209487168084529482529182902085905581519283528201929092529081018290527f9d5c7c0b934da8fefa9c7760c98383778a12dfbfc0c3b3106518f43fb9508ac090606001611ea0565b60675460405163bf40fac160e01b815260206004820152600a60248201526923a7a7a22227a62620a960b11b60448201526000916001600160a01b03169063bf40fac190606401602060405180830381865afa158015612578573d6000803e3d6000fd5b505050506040513d601f19601f8201168201806040525081019061259c91906152c2565b905090565b6125a961286b565b61ffff8316600090815260ff602052604090206125c7908383614621565b507ffa41487ad5d6728f0b19276fa1eddc16558578f5109fc39d2dc33c3230470dab838383604051611ea0939291906153cd565b61260361286b565b6001600160a01b0381166126685760405162461bcd60e51b815260206004820152602660248201527f4f776e61626c653a206e6577206f776e657220697320746865207a65726f206160448201526564647265737360d01b6064820152608401610c47565b61163881612f54565b61267961286b565b806126ee576040516370a0823160e01b81526001600160a01b038316906370a08231906126aa9030906004016147a7565b602060405180830381865afa1580156126c7573d6000803e3d6000fd5b505050506040513d601f19601f820116820180604052508101906126eb919061555b565b90505b60405163a9059cbb60e01b81526001600160a01b0383169063a9059cbb9061271c9033908590600401615574565b6020604051808303816000875af115801561273b573d6000803e3d6000fd5b505050506040513d601f19601f8201168201806040525081019061172791906152a5565b60fe54604051633d7b2f6f60e21b815261ffff808716600483015285166024820152306044820152606481018390526060916001600160a01b03169063f5ecbdbc90608401600060405180830381865afa1580156127c1573d6000803e3d6000fd5b505050506040513d6000823e601f3d908101601f191682016040526127e9919081019061558d565b95945050505050565b6000806128555a60966366ad5c8a60e01b8989898960405160240161281a94939291906155fa565b60408051601f198184030181529190526020810180516001600160e01b03166001600160e01b0319909316929092179091523092919061311d565b9150915081611ada57611ada86868686856131a7565b33612874611c86565b6001600160a01b031614611af45760405162461bcd60e51b815260206004820181905260248201527f4f776e61626c653a2063616c6c6572206973206e6f7420746865206f776e65726044820152606401610c47565b6101965460ff16156129085760405163c5426f8d60e01b815260206004820152600660248201526518db1bdcd95960d21b6044820152606401610c47565b82612a2e57466001148061291c5750466005145b15612a2957612929612514565b6040516323b872dd60e01b81526001600160a01b0389811660048301523060248301526044820187905291909116906323b872dd906064016020604051808303816000875af1158015612980573d6000803e3d6000fd5b505050506040513d601f19601f820116820180604052508101906129a491906152a5565b6129c1576040516316431e9360e11b815260040160405180910390fd5b6129c9612514565b6001600160a01b03166379cc679088866040518363ffffffff1660e01b81526004016129f6929190615574565b600060405180830381600087803b158015612a1057600080fd5b505af1158015612a24573d6000803e3d6000fd5b505050505b612aad565b46600114158015612a40575046600514155b15612aad57612a4d612514565b6001600160a01b03166342966c68856040518263ffffffff1660e01b8152600401612a7a91815260200190565b600060405180830381600087803b158015612a9457600080fd5b505af1158015612aa8573d6000803e3d6000fd5b505050505b6000612b2185612abb612514565b6001600160a01b031663313ce5676040518163ffffffff1660e01b8152600401602060405180830381865afa158015612af8573d6000803e3d6000fd5b505050506040513d601f19601f82011682018060405250810190612b1c9190615638565b613245565b905034612b4157604051630ba4e53360e21b815260040160405180910390fd5b600030466101a38054906000612b56836154cc565b90915550604080516001600160a01b039094166020850152830191909152606082015260800160408051808303601f1901815282825280516020918201206001600160a01b03808e1692850192909252908b16918301919091526060820184905260808201819052915060009060a00160408051601f1981840301815291905290506000856001811115612bec57612bec61565b565b1415612c35576000612bfd896132be565b9050805160001415612c255760405163068a505360e01b8152600481018a9052602401610c47565b612c2f8282613375565b50612c91565b6001856001811115612c4957612c4961565b565b1415612c91576000612c5a89613459565b905061ffff8116612c815760405163068a505360e01b8152600481018a9052602401610c47565b612c8f82828d6000896134b5565b505b81896001600160a01b03168b6001600160a01b03167fabeeb7182c7294cd8efcd40e9ff952c1b759c2165b3634aac589429de5d55ad08b87428b604051612cdb9493929190615693565b60405180910390a450505050505050505050565b600080516020615aa3833981519152546001600160a01b031690565b61163861286b565b7f4910fdfa16fed3260ed0e7147f7cc6da11a60208b5b9406d12a635614ffd91435460ff1615612d46576117278361350c565b826001600160a01b03166352d1902d6040518163ffffffff1660e01b8152600401602060405180830381865afa925050508015612da0575060408051601f3d908101601f19168201909252612d9d9181019061555b565b60015b612e035760405162461bcd60e51b815260206004820152602e60248201527f45524331393637557067726164653a206e657720696d706c656d656e7461746960448201526d6f6e206973206e6f74205555505360901b6064820152608401610c47565b600080516020615aa38339815191528114612e725760405162461bcd60e51b815260206004820152602960248201527f45524331393637557067726164653a20756e737570706f727465642070726f786044820152681a58589b195555525160ba1b6064820152608401610c47565b506117278383836135a6565b6000612ebf85858080601f0160208091040260200160405190810160405280939291908181526020018383808284376000920191909152506135cb92505050565b90506000808080612ed2868801886156b5565b93509350935093506110668b8b8080601f016020809104026020016040519081016040528093929190818152602001838380828437600092019190915250899250889150879050868661374a565b60008060008084806020019051810190612f3a91906156fb565b92965090945092509050306121be898289888888886137a3565b60cc80546001600160a01b038381166001600160a01b0319831681179093556040519116919082907f8be0079c531659141344cd1fd0a4f28419497f9722a3daafe3b4186f6b6457e090600090a35050565b606081612fb481601f61530c565b1015612ff35760405162461bcd60e51b815260206004820152600e60248201526d736c6963655f6f766572666c6f7760901b6044820152606401610c47565b612ffd828461530c565b845110156130415760405162461bcd60e51b8152602060048201526011602482015270736c6963655f6f75744f66426f756e647360781b6044820152606401610c47565b60608215801561306057604051915060008252602082016040526130aa565b6040519150601f8416801560200281840101858101878315602002848b0101015b81831015613099578051835260209283019201613081565b5050858452601f01601f1916604052505b50949350505050565b6001600160a01b03163b151590565b606780546001600160a01b0319166001600160a01b038316179055611638611073565b600054610100900460ff1661310c5760405162461bcd60e51b8152600401610c4790615743565b6131146137fc565b6116388161382c565b6000606060008060008661ffff166001600160401b0381111561314257613142614a6e565b6040519080825280601f01601f19166020018201604052801561316c576020820181803683370190505b50905060008087516020890160008d8df191503d92508683111561318e578692505b828152826000602083013e909890975095505050505050565b818051906020012061013060008761ffff1661ffff168152602001908152602001600020856040516131d9919061578e565b9081526040805191829003602090810183206001600160401b0388166000908152915220919091557fe183f33de2837795525b4792ca4cd60535bd77c53b7e7030060bfcf5734d6b0c9061323690879087908790879087906157aa565b60405180910390a15050505050565b81601260ff8316101561328157600061325f836012615808565b60ff16905061326f81600a61590f565b613279908561591b565b9150506132b8565b60128260ff1611156132b857600061329a601284615808565b60ff1690506132aa81600a61590f565b6132b4908561593a565b9150505b92915050565b606081600114156132ed575050604080518082019091526008815267457468657265756d60c01b602082015290565b816005141561331c57505060408051808201909152600a81526932ba3432b932bab6969960b11b602082015290565b8161a4ec141561334657505060408051808201909152600481526363656c6f60e01b602082015290565b8161aef3141561337057505060408051808201909152600481526363656c6f60e01b602082015290565b919050565b600061338030613875565b90507f00000000000000000000000000000000000000000000000000000000000000006001600160a01b0316630c93e3bb3430858588336040518763ffffffff1660e01b81526004016133d795949392919061595c565b6000604051808303818588803b1580156133f057600080fd5b505af1158015613404573d6000803e3d6000fd5b5050604051631c92115f60e01b81526001600160a01b037f0000000000000000000000000000000000000000000000000000000000000000169350631c92115f925061176891508590859088906004016159ba565b6000816001141561346d5750612711919050565b816005141561347f5750612789919050565b8161a4ec14156134915750607d919050565b8161aef314156134a4575061278d919050565b81607a14156133705750608a919050565b30306040516020016134c892919061515d565b60408051601f1981840301815291815261ffff8616600090815260ff602090815291902082516134fd9391929091019061459d565b50610e79848685858534613aba565b613515816130b3565b6135775760405162461bcd60e51b815260206004820152602d60248201527f455243313936373a206e657720696d706c656d656e746174696f6e206973206e60448201526c1bdd08184818dbdb9d1c9858dd609a1b6064820152608401610c47565b600080516020615aa383398151915280546001600160a01b0319166001600160a01b0392909216919091179055565b6135af83613c44565b6000825111806135bc5750805b15611727576111b98383613c84565b6000808290506000808251602a14158061360b5750826000815181106135f3576135f36154b6565b6020910101516001600160f81b031916600360fc1b14155b8061363c575082600181518110613624576136246154b6565b6020910101516001600160f81b031916600f60fb1b14155b1561365a57604051636fa478cf60e11b815260040160405180910390fd5b60025b602a81101561374057838181518110613678576136786154b6565b016020015160f81c915060618210801590613697575060668260ff1611155b156136ae576136a7605783615808565b9150613717565b60418260ff16101580156136c6575060468260ff1611155b156136d6576136a7603783615808565b60308260ff16101580156136ee575060398260ff1611155b156136fe576136a7603083615808565b604051636fa478cf60e11b815260040160405180910390fd5b60026137248260296152f5565b60ff8416911b1b9290921791613739816154cc565b905061365d565b5090949350505050565b600061375587613d6d565b90506001600160a01b038616301461379457600080516020615ac383398151915281876040516137869291906159fd565b60405180910390a150611ada565b610d4785858584866000613e41565b60006137ae886141eb565b90506001600160a01b03871630146137ed57600080516020615ac383398151915281886040516137df9291906159fd565b60405180910390a150610d47565b61187485858584866001613e41565b600054610100900460ff166138235760405162461bcd60e51b8152600401610c4790615743565b611af433612f54565b600054610100900460ff166138535760405162461bcd60e51b8152600401610c4790615743565b60fe80546001600160a01b0319166001600160a01b0392909216919091179055565b604051606082811b6001600160601b03191660208301529060009060340160408051601f198184030181528282528051838301909252601083526f181899199a1a9b1b9c1cb0b131b232b360811b602084015280519093509091906000906138de90600261591b565b6138e990600261530c565b6001600160401b0381111561390057613900614a6e565b6040519080825280601f01601f19166020018201604052801561392a576020820181803683370190505b509050600360fc1b81600081518110613945576139456154b6565b60200101906001600160f81b031916908160001a905350600f60fb1b81600181518110613974576139746154b6565b60200101906001600160f81b031916908160001a90535060005b83811015613ab0578260048683815181106139ab576139ab6154b6565b016020015182516001600160f81b031990911690911c60f81c9081106139d3576139d36154b6565b01602001516001600160f81b031916826139ee83600261591b565b6139f990600261530c565b81518110613a0957613a096154b6565b60200101906001600160f81b031916908160001a90535082858281518110613a3357613a336154b6565b602091010151815160f89190911c600f16908110613a5357613a536154b6565b01602001516001600160f81b03191682613a6e83600261591b565b613a7990600361530c565b81518110613a8957613a896154b6565b60200101906001600160f81b031916908160001a905350613aa9816154cc565b905061398e565b5095945050505050565b61ffff8616600090815260ff602052604081208054613ad890615398565b80601f0160208091040260200160405190810160405280929190818152602001828054613b0490615398565b8015613b515780601f10613b2657610100808354040283529160200191613b51565b820191906000526020600020905b815481529060010190602001808311613b3457829003601f168201915b50505050509050805160001415613bc35760405162461bcd60e51b815260206004820152603060248201527f4c7a4170703a2064657374696e6174696f6e20636861696e206973206e6f742060448201526f61207472757374656420736f7572636560801b6064820152608401610c47565b613bce87875161425b565b60fe5460405162c5803160e81b81526001600160a01b039091169063c5803100908490613c09908b9086908c908c908c908c90600401615a14565b6000604051808303818588803b158015613c2257600080fd5b505af1158015613c36573d6000803e3d6000fd5b505050505050505050505050565b613c4d8161350c565b6040516001600160a01b038216907fbc7cd75a20ee27fd9adebab32041f755214dbc6bffa90cc0225b39da2e5c2d3b90600090a250565b6060613c8f836130b3565b613cea5760405162461bcd60e51b815260206004820152602660248201527f416464726573733a2064656c65676174652063616c6c20746f206e6f6e2d636f6044820152651b9d1c9858dd60d21b6064820152608401610c47565b600080846001600160a01b031684604051613d05919061578e565b600060405180830381855af49150503d8060008114613d40576040519150601f19603f3d011682016040523d82523d6000602084013e613d45565b606091505b50915091506127e98282604051806060016040528060278152602001615ae3602791396142ca565b805160208201206000907f564ccaf7594d66b1eaaea24fe01f0585bf52ee70852af4eac0cc4b04711cd0e2811415613da85750600192915050565b7f43ab905ae53adfdd46d0850022d385a6c09c15bfde5206c98fa0fc8dc340c3f8811415613dd95750600592915050565b7f2ab2bf4c5cabc3000e2502e33470a863db2755809d7561237424a0eb373154c2811415613e3b577f000000000000000000000000000000000000000000000000000000000000000015613e31575061aef392915050565b5061a4ec92915050565b50919050565b613e4a83613459565b61ffff16613e6e5760405163068a505360e01b815260048101849052602401610c47565b61019560008483604051602001613e86929190615a6e565b60408051601f198184030181529181528151602092830120835290820192909252016000205460ff1615613eef5760405163c5426f8d60e01b815260206004820152600f60248201526e1cdbdd5c98d948191a5cd8589b1959608a1b6044820152606401610c47565b6000828152610194602052604090205460ff1615613f2357604051636e91c2f160e11b815260048101839052602401610c47565b613f2f868686466142e3565b6000613fa385613f3d612514565b6001600160a01b031663313ce5676040518163ffffffff1660e01b8152600401602060405180830381865afa158015613f7a573d6000803e3d6000fd5b505050506040513d601f19601f82011682018060405250810190613f9e9190615638565b614410565b90506000613fb082614464565b600085815261019460205260409020805460ff191660011790559050613fd587614483565b4660011480613fe45750466005145b1561418f57613ff1612514565b6001600160a01b031663a9059cbb8861400a84866152f5565b6040518363ffffffff1660e01b8152600401614027929190615574565b6020604051808303816000875af1158015614046573d6000803e3d6000fd5b505050506040513d601f19601f8201168201806040525081019061406a91906152a5565b614087576040516376420e1d60e01b815260040160405180910390fd5b60675460405163bf40fac160e01b815260206004820152601960248201527823b7b7b22237b63630b926b4b73a213ab9372bb930b83832b960391b60448201526001600160a01b039091169063bf40fac190606401602060405180830381865afa1580156140f9573d6000803e3d6000fd5b505050506040513d601f19601f8201168201806040525081019061411d91906152c2565b6001600160a01b03166340c10f1988846040518363ffffffff1660e01b815260040161414a929190615574565b6020604051808303816000875af1158015614169573d6000803e3d6000fd5b505050506040513d601f19601f8201168201806040525081019061418d91906152a5565b505b83876001600160a01b0316896001600160a01b03167f6cf712ce908185c8c38a073b7315f79687e7440fb057d9d1ca76a2509a1282ee89858a896040516141d99493929190615693565b60405180910390a45050505050505050565b60008161ffff16612711141561420357506001919050565b8161ffff16612789141561421957506005919050565b8161ffff16607d141561422f575061a4ec919050565b8161ffff1661278d1415614246575061aef3919050565b8161ffff16608a14156133705750607a919050565b61ffff8216600090815261010160205260409020548061427a57506127105b808211156117275760405162461bcd60e51b815260206004820181905260248201527f4c7a4170703a207061796c6f61642073697a6520697320746f6f206c617267656044820152606401610c47565b606083156142d9575081611701565b6117018383614573565b6001600160a01b03831615806142f7575080155b156143195782816040516314b2a5c360e31b8152600401610c47929190615574565b61432662015180426152f5565b61019f54101561433c574261019f5560006101a0555b61434962015180426152f5565b6001600160a01b03851660009081526101a16020526040902054101561438a576001600160a01b03841660009081526101a160205260408120428155600101555b6000806143978685611255565b9092509050816143bc578060405163c5426f8d60e01b8152600401610c479190614e38565b8361019f60010160008282546143d2919061530c565b90915550506001600160a01b03861660009081526101a160205260408120600101805486929061440390849061530c565b9091555050505050505050565b81601260ff8316101561444457600061442a836012615808565b60ff16905061443a81600a61590f565b613279908561593a565b60128260ff16111561445d57600061325f601284615808565b5090919050565b6101995460009061271090614479908461591b565b6132b8919061593a565b6101a2546001600160a01b03161580159061450b57506101a2546040516374bf77e960e11b81526001600160a01b039091169063e97eefd2906144ca9084906004016147a7565b602060405180830381865afa1580156144e7573d6000803e3d6000fd5b505050506040513d601f19601f8201168201806040525081019061450b91906152a5565b15611638576101a2546040516306ee3b9f60e31b81526001600160a01b0390911690633771dcf8906145419084906004016147a7565b600060405180830381600087803b15801561455b57600080fd5b505af192505050801561456c575060015b6116385750565b8151156145835781518083602001fd5b8060405162461bcd60e51b8152600401610c479190614e38565b8280546145a990615398565b90600052602060002090601f0160209004810192826145cb5760008555614611565b82601f106145e457805160ff1916838001178555614611565b82800160010185558215614611579182015b828111156146115782518255916020019190600101906145f6565b5061461d929150614695565b5090565b82805461462d90615398565b90600052602060002090601f01602090048101928261464f5760008555614611565b82601f106146685782800160ff19823516178555614611565b82800160010185558215614611579182015b8281111561461157823582559160200191906001019061467a565b5b8082111561461d5760008155600101614696565b803561ffff8116811461337057600080fd5b60008083601f8401126146ce57600080fd5b5081356001600160401b038111156146e557600080fd5b60208301915083602082850101111561156b57600080fd5b80356001600160401b038116811461337057600080fd5b6000806000806000806080878903121561472d57600080fd5b614736876146aa565b955060208701356001600160401b038082111561475257600080fd5b61475e8a838b016146bc565b909750955085915061477260408a016146fd565b9450606089013591508082111561478857600080fd5b5061479589828a016146bc565b979a9699509497509295939492505050565b6001600160a01b0391909116815260200190565b6001600160a01b038116811461163857600080fd5b801515811461163857600080fd5b600080600080600080600060c0888a0312156147f957600080fd5b614802886146aa565b96506020880135614812816147bb565b95506040880135614822816147bb565b9450606088013593506080880135614839816147d0565b925060a08801356001600160401b0381111561485457600080fd5b6148608a828b016146bc565b989b979a50959850939692959293505050565b60006020828403121561488557600080fd5b611701826146aa565b6000806000806000608086880312156148a657600080fd5b85356148b1816147bb565b9450602086013593506040860135925060608601356001600160401b038111156148da57600080fd5b6148e6888289016146bc565b969995985093965092949392505050565b6000806040838503121561490a57600080fd5b614913836146aa565b946020939093013593505050565b60006020828403121561493357600080fd5b8135611701816147d0565b60008060008060008060008060008060c08b8d03121561495d57600080fd5b8a35995060208b01356001600160401b038082111561497b57600080fd5b6149878e838f016146bc565b909b50995060408d01359150808211156149a057600080fd5b6149ac8e838f016146bc565b909950975060608d01359150808211156149c557600080fd5b6149d18e838f016146bc565b909750955060808d01359150808211156149ea57600080fd5b506149f78d828e016146bc565b9150809450508092505060a08b013590509295989b9194979a5092959850565b80356002811061337057600080fd5b60008060008060808587031215614a3c57600080fd5b8435614a47816147bb565b93506020850135925060408501359150614a6360608601614a17565b905092959194509250565b634e487b7160e01b600052604160045260246000fd5b604051601f8201601f191681016001600160401b0381118282101715614aac57614aac614a6e565b604052919050565b600060a08284031215614ac657600080fd5b60405160a081016001600160401b0381118282101715614ae857614ae8614a6e565b8060405250823581526020830135602082015260408301356040820152606083013560608201526080830135614b1d816147d0565b60808201529392505050565b60008060408385031215614b3c57600080fd5b8235614913816147bb565b60005b83811015614b62578181015183820152602001614b4a565b838111156111b95750506000910152565b60008151808452614b8b816020860160208601614b47565b601f01601f19169290920160200192915050565b8215158152604060208201526000614bba6040830184614b73565b949350505050565b600060208284031215614bd457600080fd5b8135611701816147bb565b600080600060408486031215614bf457600080fd5b614bfd846146aa565b925060208401356001600160401b03811115614c1857600080fd5b614c24868287016146bc565b9497909650939450505050565b600080600060608486031215614c4657600080fd5b8335614c51816147bb565b95602085013595506040909401359392505050565b600060208284031215614c7857600080fd5b5035919050565b60008060008060008060006080888a031215614c9a57600080fd5b8735965060208801356001600160401b0380821115614cb857600080fd5b614cc48b838c016146bc565b909850965060408a0135915080821115614cdd57600080fd5b614ce98b838c016146bc565b909650945060608a0135915080821115614d0257600080fd5b506148608a828b016146bc565b60006001600160401b03821115614d2857614d28614a6e565b50601f01601f191660200190565b600082601f830112614d4757600080fd5b8135614d5a614d5582614d0f565b614a84565b818152846020838601011115614d6f57600080fd5b816020850160208301376000918101602001919091529392505050565b60008060408385031215614d9f57600080fd5b8235614daa816147bb565b915060208301356001600160401b03811115614dc557600080fd5b614dd185828601614d36565b9150509250929050565b600080600060608486031215614df057600080fd5b614df9846146aa565b925060208401356001600160401b03811115614e1457600080fd5b614e2086828701614d36565b925050614e2f604085016146fd565b90509250925092565b6020815260006117016020830184614b73565b600060608284031215614e5d57600080fd5b604051606081016001600160401b0381118282101715614e7f57614e7f614a6e565b80604052508235815260208301356020820152604083013560408201528091505092915050565b60008060408385031215614eb957600080fd5b614ec2836146aa565b9150614ed0602084016146aa565b90509250929050565b60008060008060608587031215614eef57600080fd5b8435614efa816147bb565b93506020850135925060408501356001600160401b03811115614f1c57600080fd5b614f28878288016146bc565b95989497509550505050565b61ffff91909116815260200190565b60006001600160401b03821115614f5c57614f5c614a6e565b5060051b60200190565b600082601f830112614f7757600080fd5b81356020614f87614d5583614f43565b82815260059290921b84018101918181019086841115614fa657600080fd5b8286015b84811015614fca578035614fbd816147d0565b8352918301918301614faa565b509695505050505050565b60008060408385031215614fe857600080fd5b82356001600160401b0380821115614fff57600080fd5b818501915085601f83011261501357600080fd5b81356020615023614d5583614f43565b82815260059290921b8401810191818101908984111561504257600080fd5b948201945b8386101561506057853582529482019490820190615047565b9650508601359250508082111561507657600080fd5b50614dd185828601614f66565b60008060008060006080868803121561509b57600080fd5b6150a4866146aa565b94506150b2602087016146aa565b93506040860135925060608601356001600160401b038111156148da57600080fd5b6000806000606084860312156150e957600080fd5b6150f2846146aa565b9250615100602085016146aa565b9150604084013590509250925092565b6000806000806080858703121561512657600080fd5b61512f856146aa565b935061513d602086016146aa565b9250604085013561514d816147bb565b9396929550929360600135925050565b6001600160601b0319606093841b811682529190921b16601482015260280190565b8183823760009101908152919050565b81835281816020850137506000828201602090810191909152601f909101601f19169091010190565b602081526000614bba60208301848661518f565b61ffff871681526001600160a01b038616602082015260a0604082018190526000906151fa90830187614b73565b8515156060840152828103608084015261521581858761518f565b9998505050505050505050565b6000806040838503121561523557600080fd5b505080516020909101519092909150565b89815260c06020820152600061526060c083018a8c61518f565b828103604084015261527381898b61518f565b9050866060840152828103608084015261528e81868861518f565b9150508260a08301529a9950505050505050505050565b6000602082840312156152b757600080fd5b8151611701816147d0565b6000602082840312156152d457600080fd5b8151611701816147bb565b634e487b7160e01b600052601160045260246000fd5b600082821015615307576153076152df565b500390565b6000821982111561531f5761531f6152df565b500190565b6020808252602c90820152600080516020615a8383398151915260408201526b19195b1959d85d1958d85b1b60a21b606082015260800190565b6020808252602c90820152600080516020615a8383398151915260408201526b6163746976652070726f787960a01b606082015260800190565b600181811c908216806153ac57607f821691505b60208210811415613e3b57634e487b7160e01b600052602260045260246000fd5b61ffff841681526040602082015260006127e960408301848661518f565b86815260806020820152600061540560808301878961518f565b828103604084015261541881868861518f565b915050826060830152979650505050505050565b6000806000806080858703121561544257600080fd5b843593506020850135615454816147bb565b925061546260408601614a17565b915060608501356001600160401b0381111561547d57600080fd5b61548987828801614d36565b91505092959194509250565b8284823760609190911b6001600160601b0319169101908152601401919050565b634e487b7160e01b600052603260045260246000fd5b60006000198214156154e0576154e06152df565b5060010190565b600061ffff80881683528087166020840152508460408301526080606083015261551560808301848661518f565b979650505050505050565b61ffff8616815260806020820152600061553e60808301868861518f565b6001600160401b0394909416604083015250606001529392505050565b60006020828403121561556d57600080fd5b5051919050565b6001600160a01b03929092168252602082015260400190565b60006020828403121561559f57600080fd5b81516001600160401b038111156155b557600080fd5b8201601f810184136155c657600080fd5b80516155d4614d5582614d0f565b8181528560208385010111156155e957600080fd5b6127e9826020830160208601614b47565b61ffff851681526080602082015260006156176080830186614b73565b6001600160401b038516604084015282810360608401526155158185614b73565b60006020828403121561564a57600080fd5b815160ff8116811461170157600080fd5b634e487b7160e01b600052602160045260246000fd5b6002811061568f57634e487b7160e01b600052602160045260246000fd5b9052565b8481526020810184905260408101839052608081016127e96060830184615671565b600080600080608085870312156156cb57600080fd5b84356156d6816147bb565b935060208501356156e6816147bb565b93969395505050506040820135916060013590565b6000806000806080858703121561571157600080fd5b845161571c816147bb565b602086015190945061572d816147bb565b6040860151606090960151949790965092505050565b6020808252602b908201527f496e697469616c697a61626c653a20636f6e7472616374206973206e6f74206960408201526a6e697469616c697a696e6760a81b606082015260800190565b600082516157a0818460208701614b47565b9190910192915050565b61ffff8616815260a0602082015260006157c760a0830187614b73565b6001600160401b038616604084015282810360608401526157e88186614b73565b905082810360808401526157fc8185614b73565b98975050505050505050565b600060ff821660ff841680821015615822576158226152df565b90039392505050565b600181815b8085111561586657816000190482111561584c5761584c6152df565b8085161561585957918102915b93841c9390800290615830565b509250929050565b60008261587d575060016132b8565b8161588a575060006132b8565b81600181146158a057600281146158aa576158c6565b60019150506132b8565b60ff8411156158bb576158bb6152df565b50506001821b6132b8565b5060208310610133831016604e8410600b84101617156158e9575081810a6132b8565b6158f3838361582b565b8060001904821115615907576159076152df565b029392505050565b6000611701838361586e565b6000816000190483118215151615615935576159356152df565b500290565b60008261595757634e487b7160e01b600052601260045260246000fd5b500490565b600060018060a01b03808816835260a0602084015261597e60a0840188614b73565b83810360408501526159908188614b73565b905083810360608501526159a48187614b73565b9250508084166080840152509695505050505050565b6060815260006159cd6060830186614b73565b82810360208401526159df8186614b73565b905082810360408401526159f38185614b73565b9695505050505050565b9182526001600160a01b0316602082015260400190565b61ffff8716815260c060208201526000615a3160c0830188614b73565b8281036040840152615a438188614b73565b6001600160a01b0387811660608601528616608085015283810360a085015290506152158185614b73565b82815260408101611701602083018461567156fe46756e6374696f6e206d7573742062652063616c6c6564207468726f75676820360894a13ba1a3210667c828492db98dca3e2076cc3735a920a3ca505d382bbc1eafb58197ea0dc76b9278ccad47f61a239f00b017d89a19081a89321cce213d416464726573733a206c6f772d6c6576656c2064656c65676174652063616c6c206661696c6564a2646970667358221220d5ff4897aa117595206a00874cf1c4635dad07fed040b0182f1cb2cc852cdbd164736f6c634300080a0033",
  "devdoc": {
    "details": "A contract for bridging assets between chains",
    "kind": "dev",
    "methods": {
      "canBridge(address,uint256)": {
        "details": "Function for checking if a bridge is possible",
        "params": {
          "amount": "The amount to bridge",
          "from": "The address of the sender"
        },
        "returns": {
          "error": "The error message, if any",
          "isWithinLimit": "Whether the bridge is within the limit"
        }
      },
      "constructor": {
        "details": "Constructor function for the AxelarBridge contract",
        "params": {
          "axlGasReceiver": "The address of the gas receiver contract",
          "axlGateway": "The address of the gateway contract"
        }
      },
      "initialize(address)": {
        "details": "Function for initializing the contract",
        "params": {
          "nameService": "The address of the name service contract"
        }
      },
      "onTokenTransfer(address,uint256,bytes)": {
        "details": "Function for handling token transfers",
        "params": {
          "amount": "The amount to transfer",
          "data": "The data to decode of format (uint256 targetChainId, address target, BridgeService bridge, bytes memory lzAdapterParams)",
          "from": "The address of the sender"
        },
        "returns": {
          "_0": "Whether the transfer was successful or not"
        }
      },
      "owner()": {
        "details": "Returns the address of the current owner."
      },
      "pauseBridge(bool)": {
        "details": "Function for pausing the bridge",
        "params": {
          "isPaused": "Whether to pause the bridge or not"
        }
      },
      "proxiableUUID()": {
        "details": "Implementation of the ERC1822 {proxiableUUID} function. This returns the storage slot used by the implementation. It is used to validate the implementation's compatibility when performing an upgrade. IMPORTANT: A proxy pointing at a proxiable contract should not be considered proxiable itself, because this risks bricking a proxy that upgrades to it, by delegating to itself until out of gas. Thus it is critical that this function revert if invoked through a proxy. This is guaranteed by the `notDelegated` modifier."
      },
      "renounceOwnership()": {
        "details": "Leaves the contract without owner. It will not be possible to call `onlyOwner` functions anymore. Can only be called by the current owner. NOTE: Renouncing ownership will leave the contract without an owner, thereby removing any functionality that is only available to the owner."
      },
      "setBridgeFees((uint256,uint256,uint256))": {
        "details": "Function for setting the bridge fees",
        "params": {
          "fees": "The bridge fees to set"
        }
      },
      "setBridgeLimits((uint256,uint256,uint256,uint256,bool))": {
        "details": "Function for setting the bridge limits",
        "params": {
          "limits": "The bridge limits to set"
        }
      },
      "setFaucet(address)": {
        "details": "Function for setting the faucet contract",
        "params": {
          "_faucet": "The faucet contract to set"
        }
      },
      "setGuardian(address)": {
        "details": "Function for setting the guardian contract",
        "params": {
          "_guardian": "The guardian to set"
        }
      },
      "transferOwnership(address)": {
        "details": "Transfers ownership of the contract to a new account (`newOwner`). Can only be called by the current owner."
      },
      "upgradeTo(address)": {
        "details": "Upgrade the implementation of the proxy to `newImplementation`. Calls {_authorizeUpgrade}. Emits an {Upgraded} event."
      },
      "upgradeToAndCall(address,bytes)": {
        "details": "Upgrade the implementation of the proxy to `newImplementation`, and subsequently execute the function call encoded in `data`. Calls {_authorizeUpgrade}. Emits an {Upgraded} event."
      },
      "withdraw(address,uint256)": {
        "details": "Function for withdrawing tokens",
        "params": {
          "amount": "The amount to withdraw",
          "token": "The address of the token to withdraw"
        }
      }
    },
    "title": "MessagePassingBridge",
    "version": 1
  },
  "userdoc": {
    "kind": "user",
    "methods": {},
    "version": 1
  },
  "storageLayout": {
    "storage": [
      {
        "astId": 5302,
        "contract": "contracts/messagePassingBridge/MessagePassingBridge.sol:MessagePassingBridge",
        "label": "_initialized",
        "offset": 0,
        "slot": "0",
        "type": "t_uint8"
      },
      {
        "astId": 5305,
        "contract": "contracts/messagePassingBridge/MessagePassingBridge.sol:MessagePassingBridge",
        "label": "_initializing",
        "offset": 1,
        "slot": "0",
        "type": "t_bool"
      },
      {
        "astId": 5284,
        "contract": "contracts/messagePassingBridge/MessagePassingBridge.sol:MessagePassingBridge",
        "label": "__gap",
        "offset": 0,
        "slot": "1",
        "type": "t_array(t_uint256)50_storage"
      },
      {
        "astId": 5599,
        "contract": "contracts/messagePassingBridge/MessagePassingBridge.sol:MessagePassingBridge",
        "label": "__gap",
        "offset": 0,
        "slot": "51",
        "type": "t_array(t_uint256)50_storage"
      },
      {
        "astId": 2441,
        "contract": "contracts/messagePassingBridge/MessagePassingBridge.sol:MessagePassingBridge",
        "label": "dao",
        "offset": 0,
        "slot": "101",
        "type": "t_contract(Controller)1248"
      },
      {
        "astId": 2443,
        "contract": "contracts/messagePassingBridge/MessagePassingBridge.sol:MessagePassingBridge",
        "label": "avatar",
        "offset": 0,
        "slot": "102",
        "type": "t_address"
      },
      {
        "astId": 2446,
        "contract": "contracts/messagePassingBridge/MessagePassingBridge.sol:MessagePassingBridge",
        "label": "nameService",
        "offset": 0,
        "slot": "103",
        "type": "t_contract(INameService)2296"
      },
      {
        "astId": 2514,
        "contract": "contracts/messagePassingBridge/MessagePassingBridge.sol:MessagePassingBridge",
        "label": "gap",
        "offset": 0,
        "slot": "104",
        "type": "t_array(t_uint256)50_storage"
      },
      {
        "astId": 5925,
        "contract": "contracts/messagePassingBridge/MessagePassingBridge.sol:MessagePassingBridge",
        "label": "__gap",
        "offset": 0,
        "slot": "154",
        "type": "t_array(t_uint256)50_storage"
      },
      {
        "astId": 4785,
        "contract": "contracts/messagePassingBridge/MessagePassingBridge.sol:MessagePassingBridge",
        "label": "_owner",
        "offset": 0,
        "slot": "204",
        "type": "t_address"
      },
      {
        "astId": 4905,
        "contract": "contracts/messagePassingBridge/MessagePassingBridge.sol:MessagePassingBridge",
        "label": "__gap",
        "offset": 0,
        "slot": "205",
        "type": "t_array(t_uint256)49_storage"
      },
      {
        "astId": 3124,
        "contract": "contracts/messagePassingBridge/MessagePassingBridge.sol:MessagePassingBridge",
        "label": "lzEndpoint",
        "offset": 0,
        "slot": "254",
        "type": "t_contract(ILayerZeroEndpointUpgradeable)3055"
      },
      {
        "astId": 3128,
        "contract": "contracts/messagePassingBridge/MessagePassingBridge.sol:MessagePassingBridge",
        "label": "trustedRemoteLookup",
        "offset": 0,
        "slot": "255",
        "type": "t_mapping(t_uint16,t_bytes_storage)"
      },
      {
        "astId": 3134,
        "contract": "contracts/messagePassingBridge/MessagePassingBridge.sol:MessagePassingBridge",
        "label": "minDstGasLookup",
        "offset": 0,
        "slot": "256",
        "type": "t_mapping(t_uint16,t_mapping(t_uint16,t_uint256))"
      },
      {
        "astId": 3138,
        "contract": "contracts/messagePassingBridge/MessagePassingBridge.sol:MessagePassingBridge",
        "label": "payloadSizeLimitLookup",
        "offset": 0,
        "slot": "257",
        "type": "t_mapping(t_uint16,t_uint256)"
      },
      {
        "astId": 3140,
        "contract": "contracts/messagePassingBridge/MessagePassingBridge.sol:MessagePassingBridge",
        "label": "precrime",
        "offset": 0,
        "slot": "258",
        "type": "t_address"
      },
      {
        "astId": 3672,
        "contract": "contracts/messagePassingBridge/MessagePassingBridge.sol:MessagePassingBridge",
        "label": "__gap",
        "offset": 0,
        "slot": "259",
        "type": "t_array(t_uint256)45_storage"
      },
      {
        "astId": 3715,
        "contract": "contracts/messagePassingBridge/MessagePassingBridge.sol:MessagePassingBridge",
        "label": "failedMessages",
        "offset": 0,
        "slot": "304",
        "type": "t_mapping(t_uint16,t_mapping(t_bytes_memory_ptr,t_mapping(t_uint64,t_bytes32)))"
      },
      {
        "astId": 3934,
        "contract": "contracts/messagePassingBridge/MessagePassingBridge.sol:MessagePassingBridge",
        "label": "__gap",
        "offset": 0,
        "slot": "305",
        "type": "t_array(t_uint256)49_storage"
      },
      {
        "astId": 9891,
        "contract": "contracts/messagePassingBridge/MessagePassingBridge.sol:MessagePassingBridge",
        "label": "__gap",
        "offset": 0,
        "slot": "354",
        "type": "t_array(t_uint256)49_storage"
      },
      {
        "astId": 10069,
        "contract": "contracts/messagePassingBridge/MessagePassingBridge.sol:MessagePassingBridge",
        "label": "guardian",
        "offset": 0,
        "slot": "403",
        "type": "t_address"
      },
      {
        "astId": 10073,
        "contract": "contracts/messagePassingBridge/MessagePassingBridge.sol:MessagePassingBridge",
        "label": "executedRequests",
        "offset": 0,
        "slot": "404",
        "type": "t_mapping(t_uint256,t_bool)"
      },
      {
        "astId": 10077,
        "contract": "contracts/messagePassingBridge/MessagePassingBridge.sol:MessagePassingBridge",
        "label": "disabledSourceBridges",
        "offset": 0,
        "slot": "405",
        "type": "t_mapping(t_bytes32,t_bool)"
      },
      {
        "astId": 10079,
        "contract": "contracts/messagePassingBridge/MessagePassingBridge.sol:MessagePassingBridge",
        "label": "isClosed",
        "offset": 0,
        "slot": "406",
        "type": "t_bool"
      },
      {
        "astId": 10082,
        "contract": "contracts/messagePassingBridge/MessagePassingBridge.sol:MessagePassingBridge",
        "label": "bridgeFees",
        "offset": 0,
        "slot": "407",
        "type": "t_struct(BridgeFees)10046_storage"
      },
      {
        "astId": 10085,
        "contract": "contracts/messagePassingBridge/MessagePassingBridge.sol:MessagePassingBridge",
        "label": "bridgeLimits",
        "offset": 0,
        "slot": "410",
        "type": "t_struct(BridgeLimits)10057_storage"
      },
      {
        "astId": 10088,
        "contract": "contracts/messagePassingBridge/MessagePassingBridge.sol:MessagePassingBridge",
        "label": "bridgeDailyLimit",
        "offset": 0,
        "slot": "415",
        "type": "t_struct(BridgeDailyLimit)10067_storage"
      },
      {
        "astId": 10093,
        "contract": "contracts/messagePassingBridge/MessagePassingBridge.sol:MessagePassingBridge",
        "label": "accountsDailyLimit",
        "offset": 0,
        "slot": "417",
        "type": "t_mapping(t_address,t_struct(AccountLimit)10062_storage)"
      },
      {
        "astId": 10096,
        "contract": "contracts/messagePassingBridge/MessagePassingBridge.sol:MessagePassingBridge",
        "label": "faucet",
        "offset": 0,
        "slot": "418",
        "type": "t_contract(IFaucet)9927"
      },
      {
        "astId": 10098,
        "contract": "contracts/messagePassingBridge/MessagePassingBridge.sol:MessagePassingBridge",
        "label": "currentId",
        "offset": 0,
        "slot": "419",
        "type": "t_uint256"
      },
      {
        "astId": 10102,
        "contract": "contracts/messagePassingBridge/MessagePassingBridge.sol:MessagePassingBridge",
        "label": "lzChainIdsMapping",
        "offset": 0,
        "slot": "420",
        "type": "t_mapping(t_uint256,t_uint16)"
      }
    ],
    "types": {
      "t_address": {
        "encoding": "inplace",
        "label": "address",
        "numberOfBytes": "20"
      },
      "t_array(t_uint256)45_storage": {
        "base": "t_uint256",
        "encoding": "inplace",
        "label": "uint256[45]",
        "numberOfBytes": "1440"
      },
      "t_array(t_uint256)49_storage": {
        "base": "t_uint256",
        "encoding": "inplace",
        "label": "uint256[49]",
        "numberOfBytes": "1568"
      },
      "t_array(t_uint256)50_storage": {
        "base": "t_uint256",
        "encoding": "inplace",
        "label": "uint256[50]",
        "numberOfBytes": "1600"
      },
      "t_bool": {
        "encoding": "inplace",
        "label": "bool",
        "numberOfBytes": "1"
      },
      "t_bytes32": {
        "encoding": "inplace",
        "label": "bytes32",
        "numberOfBytes": "32"
      },
      "t_bytes_memory_ptr": {
        "encoding": "bytes",
        "label": "bytes",
        "numberOfBytes": "32"
      },
      "t_bytes_storage": {
        "encoding": "bytes",
        "label": "bytes",
        "numberOfBytes": "32"
      },
      "t_contract(Controller)1248": {
        "encoding": "inplace",
        "label": "contract Controller",
        "numberOfBytes": "20"
      },
      "t_contract(IFaucet)9927": {
        "encoding": "inplace",
        "label": "contract IFaucet",
        "numberOfBytes": "20"
      },
      "t_contract(ILayerZeroEndpointUpgradeable)3055": {
        "encoding": "inplace",
        "label": "contract ILayerZeroEndpointUpgradeable",
        "numberOfBytes": "20"
      },
      "t_contract(INameService)2296": {
        "encoding": "inplace",
        "label": "contract INameService",
        "numberOfBytes": "20"
      },
      "t_mapping(t_address,t_struct(AccountLimit)10062_storage)": {
        "encoding": "mapping",
        "key": "t_address",
        "label": "mapping(address => struct MessagePassingBridge.AccountLimit)",
        "numberOfBytes": "32",
        "value": "t_struct(AccountLimit)10062_storage"
      },
      "t_mapping(t_bytes32,t_bool)": {
        "encoding": "mapping",
        "key": "t_bytes32",
        "label": "mapping(bytes32 => bool)",
        "numberOfBytes": "32",
        "value": "t_bool"
      },
      "t_mapping(t_bytes_memory_ptr,t_mapping(t_uint64,t_bytes32))": {
        "encoding": "mapping",
        "key": "t_bytes_memory_ptr",
        "label": "mapping(bytes => mapping(uint64 => bytes32))",
        "numberOfBytes": "32",
        "value": "t_mapping(t_uint64,t_bytes32)"
      },
      "t_mapping(t_uint16,t_bytes_storage)": {
        "encoding": "mapping",
        "key": "t_uint16",
        "label": "mapping(uint16 => bytes)",
        "numberOfBytes": "32",
        "value": "t_bytes_storage"
      },
      "t_mapping(t_uint16,t_mapping(t_bytes_memory_ptr,t_mapping(t_uint64,t_bytes32)))": {
        "encoding": "mapping",
        "key": "t_uint16",
        "label": "mapping(uint16 => mapping(bytes => mapping(uint64 => bytes32)))",
        "numberOfBytes": "32",
        "value": "t_mapping(t_bytes_memory_ptr,t_mapping(t_uint64,t_bytes32))"
      },
      "t_mapping(t_uint16,t_mapping(t_uint16,t_uint256))": {
        "encoding": "mapping",
        "key": "t_uint16",
        "label": "mapping(uint16 => mapping(uint16 => uint256))",
        "numberOfBytes": "32",
        "value": "t_mapping(t_uint16,t_uint256)"
      },
      "t_mapping(t_uint16,t_uint256)": {
        "encoding": "mapping",
        "key": "t_uint16",
        "label": "mapping(uint16 => uint256)",
        "numberOfBytes": "32",
        "value": "t_uint256"
      },
      "t_mapping(t_uint256,t_bool)": {
        "encoding": "mapping",
        "key": "t_uint256",
        "label": "mapping(uint256 => bool)",
        "numberOfBytes": "32",
        "value": "t_bool"
      },
      "t_mapping(t_uint256,t_uint16)": {
        "encoding": "mapping",
        "key": "t_uint256",
        "label": "mapping(uint256 => uint16)",
        "numberOfBytes": "32",
        "value": "t_uint16"
      },
      "t_mapping(t_uint64,t_bytes32)": {
        "encoding": "mapping",
        "key": "t_uint64",
        "label": "mapping(uint64 => bytes32)",
        "numberOfBytes": "32",
        "value": "t_bytes32"
      },
      "t_struct(AccountLimit)10062_storage": {
        "encoding": "inplace",
        "label": "struct MessagePassingBridge.AccountLimit",
        "members": [
          {
            "astId": 10059,
            "contract": "contracts/messagePassingBridge/MessagePassingBridge.sol:MessagePassingBridge",
            "label": "lastTransferReset",
            "offset": 0,
            "slot": "0",
            "type": "t_uint256"
          },
          {
            "astId": 10061,
            "contract": "contracts/messagePassingBridge/MessagePassingBridge.sol:MessagePassingBridge",
            "label": "bridged24Hours",
            "offset": 0,
            "slot": "1",
            "type": "t_uint256"
          }
        ],
        "numberOfBytes": "64"
      },
      "t_struct(BridgeDailyLimit)10067_storage": {
        "encoding": "inplace",
        "label": "struct MessagePassingBridge.BridgeDailyLimit",
        "members": [
          {
            "astId": 10064,
            "contract": "contracts/messagePassingBridge/MessagePassingBridge.sol:MessagePassingBridge",
            "label": "lastTransferReset",
            "offset": 0,
            "slot": "0",
            "type": "t_uint256"
          },
          {
            "astId": 10066,
            "contract": "contracts/messagePassingBridge/MessagePassingBridge.sol:MessagePassingBridge",
            "label": "bridged24Hours",
            "offset": 0,
            "slot": "1",
            "type": "t_uint256"
          }
        ],
        "numberOfBytes": "64"
      },
      "t_struct(BridgeFees)10046_storage": {
        "encoding": "inplace",
        "label": "struct MessagePassingBridge.BridgeFees",
        "members": [
          {
            "astId": 10041,
            "contract": "contracts/messagePassingBridge/MessagePassingBridge.sol:MessagePassingBridge",
            "label": "minFee",
            "offset": 0,
            "slot": "0",
            "type": "t_uint256"
          },
          {
            "astId": 10043,
            "contract": "contracts/messagePassingBridge/MessagePassingBridge.sol:MessagePassingBridge",
            "label": "maxFee",
            "offset": 0,
            "slot": "1",
            "type": "t_uint256"
          },
          {
            "astId": 10045,
            "contract": "contracts/messagePassingBridge/MessagePassingBridge.sol:MessagePassingBridge",
            "label": "fee",
            "offset": 0,
            "slot": "2",
            "type": "t_uint256"
          }
        ],
        "numberOfBytes": "96"
      },
      "t_struct(BridgeLimits)10057_storage": {
        "encoding": "inplace",
        "label": "struct MessagePassingBridge.BridgeLimits",
        "members": [
          {
            "astId": 10048,
            "contract": "contracts/messagePassingBridge/MessagePassingBridge.sol:MessagePassingBridge",
            "label": "dailyLimit",
            "offset": 0,
            "slot": "0",
            "type": "t_uint256"
          },
          {
            "astId": 10050,
            "contract": "contracts/messagePassingBridge/MessagePassingBridge.sol:MessagePassingBridge",
            "label": "txLimit",
            "offset": 0,
            "slot": "1",
            "type": "t_uint256"
          },
          {
            "astId": 10052,
            "contract": "contracts/messagePassingBridge/MessagePassingBridge.sol:MessagePassingBridge",
            "label": "accountDailyLimit",
            "offset": 0,
            "slot": "2",
            "type": "t_uint256"
          },
          {
            "astId": 10054,
            "contract": "contracts/messagePassingBridge/MessagePassingBridge.sol:MessagePassingBridge",
            "label": "minAmount",
            "offset": 0,
            "slot": "3",
            "type": "t_uint256"
          },
          {
            "astId": 10056,
            "contract": "contracts/messagePassingBridge/MessagePassingBridge.sol:MessagePassingBridge",
            "label": "onlyWhitelisted",
            "offset": 0,
            "slot": "4",
            "type": "t_bool"
          }
        ],
        "numberOfBytes": "160"
      },
      "t_uint16": {
        "encoding": "inplace",
        "label": "uint16",
        "numberOfBytes": "2"
      },
      "t_uint256": {
        "encoding": "inplace",
        "label": "uint256",
        "numberOfBytes": "32"
      },
      "t_uint64": {
        "encoding": "inplace",
        "label": "uint64",
        "numberOfBytes": "8"
      },
      "t_uint8": {
        "encoding": "inplace",
        "label": "uint8",
        "numberOfBytes": "1"
      }
    }
  }
}