{
  "address": "0xf738870a8063a060f59E3754C89039663bA1b027",
  "abi": [
    {
      "inputs": [
        {
          "internalType": "address",
          "name": "axlGateway",
          "type": "address"
        },
        {
          "internalType": "address",
          "name": "axlGasReceiver",
          "type": "address"
        },
        {
          "internalType": "address",
          "name": "lzEndpoint",
          "type": "address"
        },
        {
          "internalType": "bool",
          "name": "isTestnet",
          "type": "bool"
        }
      ],
      "stateMutability": "nonpayable",
      "type": "constructor"
    },
    {
      "inputs": [
        {
          "internalType": "uint256",
          "name": "requestId",
          "type": "uint256"
        }
      ],
      "name": "ALREADY_EXECUTED",
      "type": "error"
    },
    {
      "inputs": [],
      "name": "AlreadyInitialized",
      "type": "error"
    },
    {
      "inputs": [
        {
          "internalType": "string",
          "name": "",
          "type": "string"
        }
      ],
      "name": "BRIDGE_LIMITS",
      "type": "error"
    },
    {
      "inputs": [
        {
          "internalType": "address",
          "name": "lzEndpoint",
          "type": "address"
        }
      ],
      "name": "INVALID_ENDPOINT",
      "type": "error"
    },
    {
      "inputs": [
        {
          "internalType": "bytes",
          "name": "_srcAddress",
          "type": "bytes"
        }
      ],
      "name": "INVALID_SENDER",
      "type": "error"
    },
    {
      "inputs": [
        {
          "internalType": "address",
          "name": "target",
          "type": "address"
        },
        {
          "internalType": "uint256",
          "name": "chainId",
          "type": "uint256"
        }
      ],
      "name": "INVALID_TARGET_OR_CHAINID",
      "type": "error"
    },
    {
      "inputs": [],
      "name": "InvalidAddress",
      "type": "error"
    },
    {
      "inputs": [],
      "name": "InvalidAddressString",
      "type": "error"
    },
    {
      "inputs": [
        {
          "internalType": "uint256",
          "name": "required",
          "type": "uint256"
        },
        {
          "internalType": "uint256",
          "name": "sent",
          "type": "uint256"
        }
      ],
      "name": "LZ_FEE",
      "type": "error"
    },
    {
      "inputs": [],
      "name": "MISSING_FEE",
      "type": "error"
    },
    {
      "inputs": [
        {
          "internalType": "address",
          "name": "sender",
          "type": "address"
        }
      ],
      "name": "NOT_GUARDIAN",
      "type": "error"
    },
    {
      "inputs": [],
      "name": "NotApprovedByGateway",
      "type": "error"
    },
    {
      "inputs": [],
      "name": "TRANSFER",
      "type": "error"
    },
    {
      "inputs": [],
      "name": "TRANSFER_FROM",
      "type": "error"
    },
    {
      "inputs": [
        {
          "internalType": "uint256",
          "name": "chainId",
          "type": "uint256"
        }
      ],
      "name": "UNSUPPORTED_CHAIN",
      "type": "error"
    },
    {
      "inputs": [
        {
          "internalType": "address",
          "name": "token",
          "type": "address"
        }
      ],
      "name": "WRONG_TOKEN",
      "type": "error"
    },
    {
      "anonymous": false,
      "inputs": [
        {
          "indexed": false,
          "internalType": "address",
          "name": "previousAdmin",
          "type": "address"
        },
        {
          "indexed": false,
          "internalType": "address",
          "name": "newAdmin",
          "type": "address"
        }
      ],
      "name": "AdminChanged",
      "type": "event"
    },
    {
      "anonymous": false,
      "inputs": [
        {
          "indexed": true,
          "internalType": "address",
          "name": "beacon",
          "type": "address"
        }
      ],
      "name": "BeaconUpgraded",
      "type": "event"
    },
    {
      "anonymous": false,
      "inputs": [
        {
          "indexed": true,
          "internalType": "address",
          "name": "from",
          "type": "address"
        },
        {
          "indexed": true,
          "internalType": "address",
          "name": "to",
          "type": "address"
        },
        {
          "indexed": false,
          "internalType": "uint256",
          "name": "targetChainId",
          "type": "uint256"
        },
        {
          "indexed": false,
          "internalType": "uint256",
          "name": "normalizedAmount",
          "type": "uint256"
        },
        {
          "indexed": false,
          "internalType": "uint256",
          "name": "timestamp",
          "type": "uint256"
        },
        {
          "indexed": false,
          "internalType": "enum MessagePassingBridge.BridgeService",
          "name": "bridge",
          "type": "uint8"
        },
        {
          "indexed": true,
          "internalType": "uint256",
          "name": "id",
          "type": "uint256"
        }
      ],
      "name": "BridgeRequest",
      "type": "event"
    },
    {
      "anonymous": false,
      "inputs": [
        {
          "indexed": true,
          "internalType": "address",
          "name": "from",
          "type": "address"
        },
        {
          "indexed": true,
          "internalType": "address",
          "name": "to",
          "type": "address"
        },
        {
          "indexed": false,
          "internalType": "uint256",
          "name": "normalizedAmount",
          "type": "uint256"
        },
        {
          "indexed": false,
          "internalType": "uint256",
          "name": "fee",
          "type": "uint256"
        },
        {
          "indexed": false,
          "internalType": "uint256",
          "name": "sourceChainId",
          "type": "uint256"
        },
        {
          "indexed": false,
          "internalType": "enum MessagePassingBridge.BridgeService",
          "name": "bridge",
          "type": "uint8"
        },
        {
          "indexed": true,
          "internalType": "uint256",
          "name": "id",
          "type": "uint256"
        }
      ],
      "name": "ExecutedTransfer",
      "type": "event"
    },
    {
      "anonymous": false,
      "inputs": [
        {
          "indexed": false,
          "internalType": "uint256",
          "name": "sourceChainId",
          "type": "uint256"
        },
        {
          "indexed": false,
          "internalType": "address",
          "name": "sourceAddress",
          "type": "address"
        }
      ],
      "name": "FalseSender",
      "type": "event"
    },
    {
      "anonymous": false,
      "inputs": [
        {
          "indexed": false,
          "internalType": "uint8",
          "name": "version",
          "type": "uint8"
        }
      ],
      "name": "Initialized",
      "type": "event"
    },
    {
      "anonymous": false,
      "inputs": [
        {
          "indexed": false,
          "internalType": "uint16",
          "name": "_srcChainId",
          "type": "uint16"
        },
        {
          "indexed": false,
          "internalType": "bytes",
          "name": "_srcAddress",
          "type": "bytes"
        },
        {
          "indexed": false,
          "internalType": "uint64",
          "name": "_nonce",
          "type": "uint64"
        },
        {
          "indexed": false,
          "internalType": "bytes",
          "name": "_payload",
          "type": "bytes"
        },
        {
          "indexed": false,
          "internalType": "bytes",
          "name": "_reason",
          "type": "bytes"
        }
      ],
      "name": "MessageFailed",
      "type": "event"
    },
    {
      "anonymous": false,
      "inputs": [
        {
          "indexed": true,
          "internalType": "address",
          "name": "previousOwner",
          "type": "address"
        },
        {
          "indexed": true,
          "internalType": "address",
          "name": "newOwner",
          "type": "address"
        }
      ],
      "name": "OwnershipTransferred",
      "type": "event"
    },
    {
      "anonymous": false,
      "inputs": [
        {
          "indexed": false,
          "internalType": "uint16",
          "name": "_srcChainId",
          "type": "uint16"
        },
        {
          "indexed": false,
          "internalType": "bytes",
          "name": "_srcAddress",
          "type": "bytes"
        },
        {
          "indexed": false,
          "internalType": "uint64",
          "name": "_nonce",
          "type": "uint64"
        },
        {
          "indexed": false,
          "internalType": "bytes32",
          "name": "_payloadHash",
          "type": "bytes32"
        }
      ],
      "name": "RetryMessageSuccess",
      "type": "event"
    },
    {
      "anonymous": false,
      "inputs": [
        {
          "indexed": false,
          "internalType": "uint16",
          "name": "_dstChainId",
          "type": "uint16"
        },
        {
          "indexed": false,
          "internalType": "uint16",
          "name": "_type",
          "type": "uint16"
        },
        {
          "indexed": false,
          "internalType": "uint256",
          "name": "_minDstGas",
          "type": "uint256"
        }
      ],
      "name": "SetMinDstGas",
      "type": "event"
    },
    {
      "anonymous": false,
      "inputs": [
        {
          "indexed": false,
          "internalType": "address",
          "name": "precrime",
          "type": "address"
        }
      ],
      "name": "SetPrecrime",
      "type": "event"
    },
    {
      "anonymous": false,
      "inputs": [
        {
          "indexed": false,
          "internalType": "uint16",
          "name": "_remoteChainId",
          "type": "uint16"
        },
        {
          "indexed": false,
          "internalType": "bytes",
          "name": "_path",
          "type": "bytes"
        }
      ],
      "name": "SetTrustedRemote",
      "type": "event"
    },
    {
      "anonymous": false,
      "inputs": [
        {
          "indexed": false,
          "internalType": "uint16",
          "name": "_remoteChainId",
          "type": "uint16"
        },
        {
          "indexed": false,
          "internalType": "bytes",
          "name": "_remoteAddress",
          "type": "bytes"
        }
      ],
      "name": "SetTrustedRemoteAddress",
      "type": "event"
    },
    {
      "anonymous": false,
      "inputs": [
        {
          "indexed": true,
          "internalType": "address",
          "name": "implementation",
          "type": "address"
        }
      ],
      "name": "Upgraded",
      "type": "event"
    },
    {
      "inputs": [],
      "name": "DEFAULT_PAYLOAD_SIZE_LIMIT",
      "outputs": [
        {
          "internalType": "uint256",
          "name": "",
          "type": "uint256"
        }
      ],
      "stateMutability": "view",
      "type": "function"
    },
    {
      "inputs": [],
      "name": "TESTNET",
      "outputs": [
        {
          "internalType": "bool",
          "name": "",
          "type": "bool"
        }
      ],
      "stateMutability": "view",
      "type": "function"
    },
    {
      "inputs": [
        {
          "internalType": "address",
          "name": "",
          "type": "address"
        }
      ],
      "name": "accountsDailyLimit",
      "outputs": [
        {
          "internalType": "uint256",
          "name": "lastTransferReset",
          "type": "uint256"
        },
        {
          "internalType": "uint256",
          "name": "bridged24Hours",
          "type": "uint256"
        }
      ],
      "stateMutability": "view",
      "type": "function"
    },
    {
      "inputs": [],
      "name": "avatar",
      "outputs": [
        {
          "internalType": "address",
          "name": "",
          "type": "address"
        }
      ],
      "stateMutability": "view",
      "type": "function"
    },
    {
      "inputs": [],
      "name": "bridgeDailyLimit",
      "outputs": [
        {
          "internalType": "uint256",
          "name": "lastTransferReset",
          "type": "uint256"
        },
        {
          "internalType": "uint256",
          "name": "bridged24Hours",
          "type": "uint256"
        }
      ],
      "stateMutability": "view",
      "type": "function"
    },
    {
      "inputs": [],
      "name": "bridgeFees",
      "outputs": [
        {
          "internalType": "uint256",
          "name": "minFee",
          "type": "uint256"
        },
        {
          "internalType": "uint256",
          "name": "maxFee",
          "type": "uint256"
        },
        {
          "internalType": "uint256",
          "name": "fee",
          "type": "uint256"
        }
      ],
      "stateMutability": "view",
      "type": "function"
    },
    {
      "inputs": [],
      "name": "bridgeLimits",
      "outputs": [
        {
          "internalType": "uint256",
          "name": "dailyLimit",
          "type": "uint256"
        },
        {
          "internalType": "uint256",
          "name": "txLimit",
          "type": "uint256"
        },
        {
          "internalType": "uint256",
          "name": "accountDailyLimit",
          "type": "uint256"
        },
        {
          "internalType": "uint256",
          "name": "minAmount",
          "type": "uint256"
        },
        {
          "internalType": "bool",
          "name": "onlyWhitelisted",
          "type": "bool"
        }
      ],
      "stateMutability": "view",
      "type": "function"
    },
    {
      "inputs": [
        {
          "internalType": "address",
          "name": "target",
          "type": "address"
        },
        {
          "internalType": "uint256",
          "name": "targetChainId",
          "type": "uint256"
        },
        {
          "internalType": "uint256",
          "name": "amount",
          "type": "uint256"
        },
        {
          "internalType": "enum MessagePassingBridge.BridgeService",
          "name": "bridge",
          "type": "uint8"
        }
      ],
      "name": "bridgeTo",
      "outputs": [],
      "stateMutability": "payable",
      "type": "function"
    },
    {
      "inputs": [
        {
          "internalType": "address",
          "name": "target",
          "type": "address"
        },
        {
          "internalType": "uint256",
          "name": "targetChainId",
          "type": "uint256"
        },
        {
          "internalType": "uint256",
          "name": "amount",
          "type": "uint256"
        }
      ],
      "name": "bridgeToWithAxelar",
      "outputs": [],
      "stateMutability": "payable",
      "type": "function"
    },
    {
      "inputs": [
        {
          "internalType": "address",
          "name": "target",
          "type": "address"
        },
        {
          "internalType": "uint256",
          "name": "targetChainId",
          "type": "uint256"
        },
        {
          "internalType": "uint256",
          "name": "amount",
          "type": "uint256"
        }
      ],
      "name": "bridgeToWithLz",
      "outputs": [],
      "stateMutability": "payable",
      "type": "function"
    },
    {
      "inputs": [
        {
          "internalType": "address",
          "name": "target",
          "type": "address"
        },
        {
          "internalType": "uint256",
          "name": "targetChainId",
          "type": "uint256"
        },
        {
          "internalType": "uint256",
          "name": "amount",
          "type": "uint256"
        },
        {
          "internalType": "bytes",
          "name": "adapterParams",
          "type": "bytes"
        }
      ],
      "name": "bridgeToWithLzAdapterParams",
      "outputs": [],
      "stateMutability": "payable",
      "type": "function"
    },
    {
      "inputs": [
        {
          "internalType": "address",
          "name": "from",
          "type": "address"
        },
        {
          "internalType": "uint256",
          "name": "amount",
          "type": "uint256"
        }
      ],
      "name": "canBridge",
      "outputs": [
        {
          "internalType": "bool",
          "name": "isWithinLimit",
          "type": "bool"
        },
        {
          "internalType": "string",
          "name": "error",
          "type": "string"
        }
      ],
      "stateMutability": "view",
      "type": "function"
    },
    {
      "inputs": [],
      "name": "currentId",
      "outputs": [
        {
          "internalType": "uint256",
          "name": "",
          "type": "uint256"
        }
      ],
      "stateMutability": "view",
      "type": "function"
    },
    {
      "inputs": [],
      "name": "dao",
      "outputs": [
        {
          "internalType": "contract Controller",
          "name": "",
          "type": "address"
        }
      ],
      "stateMutability": "view",
      "type": "function"
    },
    {
      "inputs": [
        {
          "internalType": "bytes32",
          "name": "",
          "type": "bytes32"
        }
      ],
      "name": "disabledSourceBridges",
      "outputs": [
        {
          "internalType": "bool",
          "name": "",
          "type": "bool"
        }
      ],
      "stateMutability": "view",
      "type": "function"
    },
    {
      "inputs": [
        {
          "internalType": "uint16",
          "name": "_dstChainId",
          "type": "uint16"
        },
        {
          "internalType": "address",
          "name": "_fromAddress",
          "type": "address"
        },
        {
          "internalType": "address",
          "name": "_toAddress",
          "type": "address"
        },
        {
          "internalType": "uint256",
          "name": "_normalizedAmount",
          "type": "uint256"
        },
        {
          "internalType": "bool",
          "name": "_useZro",
          "type": "bool"
        },
        {
          "internalType": "bytes",
          "name": "_adapterParams",
          "type": "bytes"
        }
      ],
      "name": "estimateSendFee",
      "outputs": [
        {
          "internalType": "uint256",
          "name": "nativeFee",
          "type": "uint256"
        },
        {
          "internalType": "uint256",
          "name": "zroFee",
          "type": "uint256"
        }
      ],
      "stateMutability": "view",
      "type": "function"
    },
    {
      "inputs": [
        {
          "internalType": "bytes32",
          "name": "commandId",
          "type": "bytes32"
        },
        {
          "internalType": "string",
          "name": "sourceChain",
          "type": "string"
        },
        {
          "internalType": "string",
          "name": "sourceAddress",
          "type": "string"
        },
        {
          "internalType": "bytes",
          "name": "payload",
          "type": "bytes"
        }
      ],
      "name": "execute",
      "outputs": [],
      "stateMutability": "nonpayable",
      "type": "function"
    },
    {
      "inputs": [
        {
          "internalType": "bytes32",
          "name": "commandId",
          "type": "bytes32"
        },
        {
          "internalType": "string",
          "name": "sourceChain",
          "type": "string"
        },
        {
          "internalType": "string",
          "name": "sourceAddress",
          "type": "string"
        },
        {
          "internalType": "bytes",
          "name": "payload",
          "type": "bytes"
        },
        {
          "internalType": "string",
          "name": "tokenSymbol",
          "type": "string"
        },
        {
          "internalType": "uint256",
          "name": "amount",
          "type": "uint256"
        }
      ],
      "name": "executeWithToken",
      "outputs": [],
      "stateMutability": "nonpayable",
      "type": "function"
    },
    {
      "inputs": [
        {
          "internalType": "uint256",
          "name": "",
          "type": "uint256"
        }
      ],
      "name": "executedRequests",
      "outputs": [
        {
          "internalType": "bool",
          "name": "",
          "type": "bool"
        }
      ],
      "stateMutability": "view",
      "type": "function"
    },
    {
      "inputs": [
        {
          "internalType": "uint16",
          "name": "",
          "type": "uint16"
        },
        {
          "internalType": "bytes",
          "name": "",
          "type": "bytes"
        },
        {
          "internalType": "uint64",
          "name": "",
          "type": "uint64"
        }
      ],
      "name": "failedMessages",
      "outputs": [
        {
          "internalType": "bytes32",
          "name": "",
          "type": "bytes32"
        }
      ],
      "stateMutability": "view",
      "type": "function"
    },
    {
      "inputs": [],
      "name": "faucet",
      "outputs": [
        {
          "internalType": "contract IFaucet",
          "name": "",
          "type": "address"
        }
      ],
      "stateMutability": "view",
      "type": "function"
    },
    {
      "inputs": [
        {
          "internalType": "uint16",
          "name": "_srcChainId",
          "type": "uint16"
        },
        {
          "internalType": "bytes",
          "name": "_srcAddress",
          "type": "bytes"
        }
      ],
      "name": "forceResumeReceive",
      "outputs": [],
      "stateMutability": "nonpayable",
      "type": "function"
    },
    {
      "inputs": [],
      "name": "gasService",
      "outputs": [
        {
          "internalType": "contract IAxelarGasService",
          "name": "",
          "type": "address"
        }
      ],
      "stateMutability": "view",
      "type": "function"
    },
    {
      "inputs": [],
      "name": "gateway",
      "outputs": [
        {
          "internalType": "contract IAxelarGateway",
          "name": "",
          "type": "address"
        }
      ],
      "stateMutability": "view",
      "type": "function"
    },
    {
      "inputs": [
        {
          "internalType": "uint16",
          "name": "_version",
          "type": "uint16"
        },
        {
          "internalType": "uint16",
          "name": "_chainId",
          "type": "uint16"
        },
        {
          "internalType": "address",
          "name": "",
          "type": "address"
        },
        {
          "internalType": "uint256",
          "name": "_configType",
          "type": "uint256"
        }
      ],
      "name": "getConfig",
      "outputs": [
        {
          "internalType": "bytes",
          "name": "",
          "type": "bytes"
        }
      ],
      "stateMutability": "view",
      "type": "function"
    },
    {
      "inputs": [
        {
          "internalType": "uint16",
          "name": "_remoteChainId",
          "type": "uint16"
        }
      ],
      "name": "getTrustedRemoteAddress",
      "outputs": [
        {
          "internalType": "bytes",
          "name": "",
          "type": "bytes"
        }
      ],
      "stateMutability": "view",
      "type": "function"
    },
    {
      "inputs": [],
      "name": "guardian",
      "outputs": [
        {
          "internalType": "address",
          "name": "",
          "type": "address"
        }
      ],
      "stateMutability": "view",
      "type": "function"
    },
    {
      "inputs": [
        {
          "internalType": "contract INameService",
          "name": "nameService",
          "type": "address"
        },
        {
          "components": [
            {
              "internalType": "uint256",
              "name": "dailyLimit",
              "type": "uint256"
            },
            {
              "internalType": "uint256",
              "name": "txLimit",
              "type": "uint256"
            },
            {
              "internalType": "uint256",
              "name": "accountDailyLimit",
              "type": "uint256"
            },
            {
              "internalType": "uint256",
              "name": "minAmount",
              "type": "uint256"
            },
            {
              "internalType": "bool",
              "name": "onlyWhitelisted",
              "type": "bool"
            }
          ],
          "internalType": "struct MessagePassingBridge.BridgeLimits",
          "name": "limits",
          "type": "tuple"
        },
        {
          "components": [
            {
              "internalType": "uint256",
              "name": "minFee",
              "type": "uint256"
            },
            {
              "internalType": "uint256",
              "name": "maxFee",
              "type": "uint256"
            },
            {
              "internalType": "uint256",
              "name": "fee",
              "type": "uint256"
            }
          ],
          "internalType": "struct MessagePassingBridge.BridgeFees",
          "name": "fees",
          "type": "tuple"
        }
      ],
      "name": "initialize",
      "outputs": [],
      "stateMutability": "nonpayable",
      "type": "function"
    },
    {
      "inputs": [],
      "name": "isClosed",
      "outputs": [
        {
          "internalType": "bool",
          "name": "",
          "type": "bool"
        }
      ],
      "stateMutability": "view",
      "type": "function"
    },
    {
      "inputs": [
        {
          "internalType": "uint16",
          "name": "_srcChainId",
          "type": "uint16"
        },
        {
          "internalType": "bytes",
          "name": "_srcAddress",
          "type": "bytes"
        }
      ],
      "name": "isTrustedRemote",
      "outputs": [
        {
          "internalType": "bool",
          "name": "",
          "type": "bool"
        }
      ],
      "stateMutability": "view",
      "type": "function"
    },
    {
      "inputs": [
        {
          "internalType": "uint256",
          "name": "",
          "type": "uint256"
        }
      ],
      "name": "lzChainIdsMapping",
      "outputs": [
        {
          "internalType": "uint16",
          "name": "",
          "type": "uint16"
        }
      ],
      "stateMutability": "view",
      "type": "function"
    },
    {
      "inputs": [],
      "name": "lzEndpoint",
      "outputs": [
        {
          "internalType": "contract ILayerZeroEndpointUpgradeable",
          "name": "",
          "type": "address"
        }
      ],
      "stateMutability": "view",
      "type": "function"
    },
    {
      "inputs": [],
      "name": "lzEndpoint_",
      "outputs": [
        {
          "internalType": "address",
          "name": "",
          "type": "address"
        }
      ],
      "stateMutability": "view",
      "type": "function"
    },
    {
      "inputs": [
        {
          "internalType": "uint16",
          "name": "_srcChainId",
          "type": "uint16"
        },
        {
          "internalType": "bytes",
          "name": "_srcAddress",
          "type": "bytes"
        },
        {
          "internalType": "uint64",
          "name": "_nonce",
          "type": "uint64"
        },
        {
          "internalType": "bytes",
          "name": "_payload",
          "type": "bytes"
        }
      ],
      "name": "lzReceive",
      "outputs": [],
      "stateMutability": "nonpayable",
      "type": "function"
    },
    {
      "inputs": [
        {
          "internalType": "uint16",
          "name": "",
          "type": "uint16"
        },
        {
          "internalType": "uint16",
          "name": "",
          "type": "uint16"
        }
      ],
      "name": "minDstGasLookup",
      "outputs": [
        {
          "internalType": "uint256",
          "name": "",
          "type": "uint256"
        }
      ],
      "stateMutability": "view",
      "type": "function"
    },
    {
      "inputs": [],
      "name": "nameService",
      "outputs": [
        {
          "internalType": "contract INameService",
          "name": "",
          "type": "address"
        }
      ],
      "stateMutability": "view",
      "type": "function"
    },
    {
      "inputs": [],
      "name": "nativeToken",
      "outputs": [
        {
          "internalType": "contract IGoodDollar",
          "name": "",
          "type": "address"
        }
      ],
      "stateMutability": "view",
      "type": "function"
    },
    {
      "inputs": [
        {
          "internalType": "uint16",
          "name": "_srcChainId",
          "type": "uint16"
        },
        {
          "internalType": "bytes",
          "name": "_srcAddress",
          "type": "bytes"
        },
        {
          "internalType": "uint64",
          "name": "_nonce",
          "type": "uint64"
        },
        {
          "internalType": "bytes",
          "name": "_payload",
          "type": "bytes"
        }
      ],
      "name": "nonblockingLzReceive",
      "outputs": [],
      "stateMutability": "nonpayable",
      "type": "function"
    },
    {
      "inputs": [
        {
          "internalType": "address",
          "name": "from",
          "type": "address"
        },
        {
          "internalType": "uint256",
          "name": "amount",
          "type": "uint256"
        },
        {
          "internalType": "bytes",
          "name": "data",
          "type": "bytes"
        }
      ],
      "name": "onTokenTransfer",
      "outputs": [
        {
          "internalType": "bool",
          "name": "",
          "type": "bool"
        }
      ],
      "stateMutability": "payable",
      "type": "function"
    },
    {
      "inputs": [],
      "name": "owner",
      "outputs": [
        {
          "internalType": "address",
          "name": "",
          "type": "address"
        }
      ],
      "stateMutability": "view",
      "type": "function"
    },
    {
      "inputs": [
        {
          "internalType": "bool",
          "name": "isPaused",
          "type": "bool"
        }
      ],
      "name": "pauseBridge",
      "outputs": [],
      "stateMutability": "nonpayable",
      "type": "function"
    },
    {
      "inputs": [
        {
          "internalType": "uint16",
          "name": "",
          "type": "uint16"
        }
      ],
      "name": "payloadSizeLimitLookup",
      "outputs": [
        {
          "internalType": "uint256",
          "name": "",
          "type": "uint256"
        }
      ],
      "stateMutability": "view",
      "type": "function"
    },
    {
      "inputs": [],
      "name": "precrime",
      "outputs": [
        {
          "internalType": "address",
          "name": "",
          "type": "address"
        }
      ],
      "stateMutability": "view",
      "type": "function"
    },
    {
      "inputs": [],
      "name": "proxiableUUID",
      "outputs": [
        {
          "internalType": "bytes32",
          "name": "",
          "type": "bytes32"
        }
      ],
      "stateMutability": "view",
      "type": "function"
    },
    {
      "inputs": [],
      "name": "renounceOwnership",
      "outputs": [],
      "stateMutability": "nonpayable",
      "type": "function"
    },
    {
      "inputs": [
        {
          "internalType": "uint16",
          "name": "_srcChainId",
          "type": "uint16"
        },
        {
          "internalType": "bytes",
          "name": "_srcAddress",
          "type": "bytes"
        },
        {
          "internalType": "uint64",
          "name": "_nonce",
          "type": "uint64"
        },
        {
          "internalType": "bytes",
          "name": "_payload",
          "type": "bytes"
        }
      ],
      "name": "retryMessage",
      "outputs": [],
      "stateMutability": "payable",
      "type": "function"
    },
    {
      "inputs": [
        {
          "components": [
            {
              "internalType": "uint256",
              "name": "minFee",
              "type": "uint256"
            },
            {
              "internalType": "uint256",
              "name": "maxFee",
              "type": "uint256"
            },
            {
              "internalType": "uint256",
              "name": "fee",
              "type": "uint256"
            }
          ],
          "internalType": "struct MessagePassingBridge.BridgeFees",
          "name": "fees",
          "type": "tuple"
        }
      ],
      "name": "setBridgeFees",
      "outputs": [],
      "stateMutability": "nonpayable",
      "type": "function"
    },
    {
      "inputs": [
        {
          "components": [
            {
              "internalType": "uint256",
              "name": "dailyLimit",
              "type": "uint256"
            },
            {
              "internalType": "uint256",
              "name": "txLimit",
              "type": "uint256"
            },
            {
              "internalType": "uint256",
              "name": "accountDailyLimit",
              "type": "uint256"
            },
            {
              "internalType": "uint256",
              "name": "minAmount",
              "type": "uint256"
            },
            {
              "internalType": "bool",
              "name": "onlyWhitelisted",
              "type": "bool"
            }
          ],
          "internalType": "struct MessagePassingBridge.BridgeLimits",
          "name": "limits",
          "type": "tuple"
        }
      ],
      "name": "setBridgeLimits",
      "outputs": [],
      "stateMutability": "nonpayable",
      "type": "function"
    },
    {
      "inputs": [
        {
          "internalType": "uint16",
          "name": "_version",
          "type": "uint16"
        },
        {
          "internalType": "uint16",
          "name": "_chainId",
          "type": "uint16"
        },
        {
          "internalType": "uint256",
          "name": "_configType",
          "type": "uint256"
        },
        {
          "internalType": "bytes",
          "name": "_config",
          "type": "bytes"
        }
      ],
      "name": "setConfig",
      "outputs": [],
      "stateMutability": "nonpayable",
      "type": "function"
    },
    {
      "inputs": [
        {
          "internalType": "bytes32[]",
          "name": "bridgeKeys",
          "type": "bytes32[]"
        },
        {
          "internalType": "bool[]",
          "name": "disabled",
          "type": "bool[]"
        }
      ],
      "name": "setDisabledBridges",
      "outputs": [],
      "stateMutability": "nonpayable",
      "type": "function"
    },
    {
      "inputs": [
        {
          "internalType": "contract IFaucet",
          "name": "_faucet",
          "type": "address"
        }
      ],
      "name": "setFaucet",
      "outputs": [],
      "stateMutability": "nonpayable",
      "type": "function"
    },
    {
      "inputs": [
        {
          "internalType": "address",
          "name": "_guardian",
          "type": "address"
        }
      ],
      "name": "setGuardian",
      "outputs": [],
      "stateMutability": "nonpayable",
      "type": "function"
    },
    {
      "inputs": [
        {
          "internalType": "uint16",
          "name": "_dstChainId",
          "type": "uint16"
        },
        {
          "internalType": "uint16",
          "name": "_packetType",
          "type": "uint16"
        },
        {
          "internalType": "uint256",
          "name": "_minGas",
          "type": "uint256"
        }
      ],
      "name": "setMinDstGas",
      "outputs": [],
      "stateMutability": "nonpayable",
      "type": "function"
    },
    {
      "inputs": [
        {
          "internalType": "uint16",
          "name": "_dstChainId",
          "type": "uint16"
        },
        {
          "internalType": "uint256",
          "name": "_size",
          "type": "uint256"
        }
      ],
      "name": "setPayloadSizeLimit",
      "outputs": [],
      "stateMutability": "nonpayable",
      "type": "function"
    },
    {
      "inputs": [
        {
          "internalType": "address",
          "name": "_precrime",
          "type": "address"
        }
      ],
      "name": "setPrecrime",
      "outputs": [],
      "stateMutability": "nonpayable",
      "type": "function"
    },
    {
      "inputs": [
        {
          "internalType": "uint16",
          "name": "_version",
          "type": "uint16"
        }
      ],
      "name": "setReceiveVersion",
      "outputs": [],
      "stateMutability": "nonpayable",
      "type": "function"
    },
    {
      "inputs": [
        {
          "internalType": "uint16",
          "name": "_version",
          "type": "uint16"
        }
      ],
      "name": "setSendVersion",
      "outputs": [],
      "stateMutability": "nonpayable",
      "type": "function"
    },
    {
      "inputs": [
        {
          "internalType": "uint16",
          "name": "_srcChainId",
          "type": "uint16"
        },
        {
          "internalType": "bytes",
          "name": "_path",
          "type": "bytes"
        }
      ],
      "name": "setTrustedRemote",
      "outputs": [],
      "stateMutability": "nonpayable",
      "type": "function"
    },
    {
      "inputs": [
        {
          "internalType": "uint16",
          "name": "_remoteChainId",
          "type": "uint16"
        },
        {
          "internalType": "bytes",
          "name": "_remoteAddress",
          "type": "bytes"
        }
      ],
      "name": "setTrustedRemoteAddress",
      "outputs": [],
      "stateMutability": "nonpayable",
      "type": "function"
    },
    {
      "inputs": [
        {
          "internalType": "address",
          "name": "newOwner",
          "type": "address"
        }
      ],
      "name": "transferOwnership",
      "outputs": [],
      "stateMutability": "nonpayable",
      "type": "function"
    },
    {
      "inputs": [
        {
          "internalType": "uint16",
          "name": "",
          "type": "uint16"
        }
      ],
      "name": "trustedRemoteLookup",
      "outputs": [
        {
          "internalType": "bytes",
          "name": "",
          "type": "bytes"
        }
      ],
      "stateMutability": "view",
      "type": "function"
    },
    {
      "inputs": [],
      "name": "updateAvatar",
      "outputs": [],
      "stateMutability": "nonpayable",
      "type": "function"
    },
    {
      "inputs": [
        {
          "internalType": "address",
          "name": "newImplementation",
          "type": "address"
        }
      ],
      "name": "upgradeTo",
      "outputs": [],
      "stateMutability": "nonpayable",
      "type": "function"
    },
    {
      "inputs": [
        {
          "internalType": "address",
          "name": "newImplementation",
          "type": "address"
        },
        {
          "internalType": "bytes",
          "name": "data",
          "type": "bytes"
        }
      ],
      "name": "upgradeToAndCall",
      "outputs": [],
      "stateMutability": "payable",
      "type": "function"
    },
    {
      "inputs": [
        {
          "internalType": "address",
          "name": "token",
          "type": "address"
        },
        {
          "internalType": "uint256",
          "name": "amount",
          "type": "uint256"
        }
      ],
      "name": "withdraw",
      "outputs": [],
      "stateMutability": "nonpayable",
      "type": "function"
    }
  ],
  "transactionHash": "0x615c48af00190ba4c06872a3d3853f9fbacd32c11531e551c248cb6d39ff3459",
  "args": [
    "0xe432150cce91c13a887f7D836923d5597adD8E31",
    "0xbE406F0189A0B4cf3A05C286473D23791Dd44Cc6",
    "0xbfD2135BFfbb0B5378b56643c2Df8a87552Bfa23",
    true
  ],
  "numDeployments": 7,
  "solcInputHash": "4bcc3c4681296379b4f09f3c06afb13f",
  "bytecode": "0x610120604052306080523480156200001657600080fd5b5060405162005deb38038062005deb8339810160408190526200003991620000ac565b8383816001600160a01b038116620000645760405163e6c4247b60e01b815260040160405180910390fd5b6001600160a01b0390811660a05290811660c0529290921660e052151561010052506200010f915050565b80516001600160a01b0381168114620000a757600080fd5b919050565b60008060008060808587031215620000c357600080fd5b620000ce856200008f565b9350620000de602086016200008f565b9250620000ee604086016200008f565b9150606085015180151581146200010457600080fd5b939692955090935050565b60805160a05160c05160e05161010051615c516200019a600039600081816107a80152613e94015260008181610316015261275a01526000818161075f015261341501526000818161040801528181610fbe015281816117c401526134ae01526000818161157a015281816115ba01528181611886015281816118c601526119420152615c516000f3fe6080604052600436106102dd5760003560e01c80621d3567146102e2578063020051cf1461030457806305fead151461034e57806307e0db17146103835780630d187dd4146103a35780630df37483146103b657806310ddb137146103d6578063116191b6146103f65780631a3947951461042a5780631a98b2e01461044a5780631b3c90a81461046a5780631fec5c5c1461047f57806329b70872146104925780633095634a146104b25780633659cfe6146104e05780633d8b38f6146105005780633e6326fc146105305780633f1f4fa4146105505780633fa4d7db1461058c5780634162169f1461059f578063425cfb53146105bf57806342d65a8d146105f0578063452a93201461061057806349160658146106315780634f1ef2861461065157806352d1902d146106645780635551b979146106795780635aef7de61461068c5780635b8c41e6146106ac57806366ad5c8a146106fc57806369c20d361461071c5780636a22d8cc1461074d578063715018a61461078157806372891b2d146107965780637533d788146107ca5780637b0240c0146107f757806382dc737d146108345780638a0dac4a146108545780638cfd8f5c146108745780638da5cb5b146108ad578063950c8a74146108c25780639f38369a146108e3578063a4c0ed3614610903578063a6c3d16514610916578063b2f7667f14610936578063b353aaa714610953578063b5569f1814610973578063baf3292d146109b2578063c2b6b58c146109d2578063c4461834146109ed578063c6dd812f14610a03578063c78ab88214610a5c578063cbed8b9c14610a7c578063d1deba1f14610a9c578063d422794714610aaf578063d8b31c7714610ae4578063de5f72fd14610b04578063df2a5b3b14610b25578063e00dd16114610b45578063e1758bd814610b5c578063eb8d72b714610b71578063f2fde38b14610b91578063f3fef3a314610bb1578063f5ecbdbc14610bd1578063fad16abe14610bf1575b600080fd5b3480156102ee57600080fd5b506103026102fd3660046147a1565b610c11565b005b34801561031057600080fd5b506103387f000000000000000000000000000000000000000000000000000000000000000081565b6040516103459190614834565b60405180910390f35b34801561035a57600080fd5b5061036e61036936600461492e565b610d50565b60408051928352602083019190915201610345565b34801561038f57600080fd5b5061030261039e3660046149bb565b610e10565b6103026103b13660046149d6565b610e7d565b3480156103c257600080fd5b506103026103d1366004614a3f565b610ec4565b3480156103e257600080fd5b506103026103f13660046149bb565b610ee4565b34801561040257600080fd5b506103387f000000000000000000000000000000000000000000000000000000000000000081565b34801561043657600080fd5b50610302610445366004614a69565b610f1c565b34801561045657600080fd5b50610302610465366004614a86565b610f8d565b34801561047657600080fd5b50610302611070565b61030261048d366004614b6e565b611197565b34801561049e57600080fd5b506103026104ad366004614c2f565b6111bc565b3480156104be57600080fd5b506104d26104cd366004614c4b565b611252565b604051610345929190614cc1565b3480156104ec57600080fd5b506103026104fb366004614ce4565b61156f565b34801561050c57600080fd5b5061052061051b366004614d01565b611638565b6040519015158152602001610345565b34801561053c57600080fd5b50606754610338906001600160a01b031681565b34801561055c57600080fd5b5061057e61056b3660046149bb565b6101016020526000908152604090205481565b604051908152602001610345565b61030261059a366004614d53565b611705565b3480156105ab57600080fd5b50606554610338906001600160a01b031681565b3480156105cb57600080fd5b506105206105da366004614d88565b6101946020526000908152604090205460ff1681565b3480156105fc57600080fd5b5061030261060b366004614d01565b611729565b34801561061c57600080fd5b5061019354610338906001600160a01b031681565b34801561063d57600080fd5b5061030261064c366004614da1565b611793565b61030261065f366004614e44565b61187b565b34801561067057600080fd5b5061057e611935565b610302610687366004614d53565b6119e3565b34801561069857600080fd5b50606654610338906001600160a01b031681565b3480156106b857600080fd5b5061057e6106c7366004614e93565b610130602090815260009384526040808520845180860184018051928152908401958401959095209452929052825290205481565b34801561070857600080fd5b506103026107173660046147a1565b611a03565b34801561072857600080fd5b50610520610737366004614d88565b6101956020526000908152604090205460ff1681565b34801561075957600080fd5b506103387f000000000000000000000000000000000000000000000000000000000000000081565b34801561078d57600080fd5b50610302611adf565b3480156107a257600080fd5b506105207f000000000000000000000000000000000000000000000000000000000000000081565b3480156107d657600080fd5b506107ea6107e53660046149bb565b611af3565b6040516103459190614ef0565b34801561080357600080fd5b5061019754610198546101995461081992919083565b60408051938452602084019290925290820152606001610345565b34801561084057600080fd5b5061030261084f366004614f5e565b611b8d565b34801561086057600080fd5b5061030261086f366004614ce4565b611c03565b34801561088057600080fd5b5061057e61088f366004614f7a565b61010060209081526000928352604080842090915290825290205481565b3480156108b957600080fd5b50610338611c83565b3480156108ce57600080fd5b5061010254610338906001600160a01b031681565b3480156108ef57600080fd5b506107ea6108fe3660046149bb565b611c92565b610520610911366004614fad565b611da2565b34801561092257600080fd5b50610302610931366004614d01565b611e17565b34801561094257600080fd5b5061019f546101a05461036e919082565b34801561095f57600080fd5b5060fe54610338906001600160a01b031681565b34801561097f57600080fd5b506109a561098e366004614d88565b6101a46020526000908152604090205461ffff1681565b6040516103459190615008565b3480156109be57600080fd5b506103026109cd366004614ce4565b611eaa565b3480156109de57600080fd5b50610196546105209060ff1681565b3480156109f957600080fd5b5061057e61271081565b348015610a0f57600080fd5b5061019a5461019b5461019c5461019d5461019e54610a32949392919060ff1685565b6040805195865260208601949094529284019190915260608301521515608082015260a001610345565b348015610a6857600080fd5b50610302610a773660046150a9565b611f09565b348015610a8857600080fd5b50610302610a97366004615157565b611fe3565b610302610aaa3660046147a1565b61205c565b348015610abb57600080fd5b5061036e610aca366004614ce4565b6101a1602052600090815260409020805460019091015482565b348015610af057600080fd5b50610302610aff366004614ce4565b612274565b348015610b1057600080fd5b506101a254610338906001600160a01b031681565b348015610b3157600080fd5b50610302610b403660046151a8565b6122f4565b348015610b5157600080fd5b5061057e6101a35481565b348015610b6857600080fd5b506103386123a7565b348015610b7d57600080fd5b50610302610b8c366004614d01565b612434565b348015610b9d57600080fd5b50610302610bac366004614ce4565b61248e565b348015610bbd57600080fd5b50610302610bcc366004614c4b565b612504565b348015610bdd57600080fd5b506107ea610bec3660046151e4565b6125f2565b348015610bfd57600080fd5b50610302610c0c366004615231565b612685565b60fe546001600160a01b0316336001600160a01b031614610c505733604051634a43969960e11b8152600401610c479190614834565b60405180910390fd5b60003030604051602001610c65929190615270565b60408051601f19818403018152919052805190915085141580610c8757508051155b80610caf575080516020820120604051610ca49088908890615292565b604051809103902014155b15610cd15785856040516306543c8960e31b8152600401610c479291906152cb565b610d478787878080601f01602080910402602001604051908101604052809392919081815260200183838082843760009201919091525050604080516020601f8a018190048102820181019092528881528a93509150889088908190840183828082843760009201919091525061284092505050565b50505050505050565b604080516001600160a01b0387811660208301528681168284015260608201869052600060808084018290528451808503909101815260a084019485905260fe5463040a7bb160e41b90955290938493919216906340a7bb1090610dc0908c90309086908b908b9060a4016152df565b6040805180830381865afa158015610ddc573d6000803e3d6000fd5b505050506040513d601f19601f82011682018060405250810190610e009190615333565b9250925050965096945050505050565b610e186128b9565b60fe546040516307e0db1760e01b81526001600160a01b03909116906307e0db1790610e48908490600401615008565b600060405180830381600087803b158015610e6257600080fd5b505af1158015610e76573d6000803e3d6000fd5b5050505050565b610e76338686866000600188888080601f01602080910402602001604051908101604052809392919081815260200183838082843760009201919091525061291892505050565b610ecc6128b9565b61ffff90911660009081526101016020526040902055565b610eec6128b9565b60fe546040516310ddb13760e01b81526001600160a01b03909116906310ddb13790610e48908490600401615008565b610193546001600160a01b0316331480610f4057506066546001600160a01b031633145b80610f5a575033610f4f611c83565b6001600160a01b0316145b610f79573360405163b63b5ad960e01b8152600401610c479190614834565b610196805460ff1916911515919091179055565b60008585604051610f9f929190615292565b604051908190038120631876eed960e01b825291506001600160a01b037f00000000000000000000000000000000000000000000000000000000000000001690631876eed990611003908e908e908e908e908e9089908d908d908d90600401615357565b6020604051808303816000875af1158015611022573d6000803e3d6000fd5b505050506040513d601f19601f8201168201806040525081019061104691906153b6565b61106357604051631403112d60e21b815260040160405180910390fd5b5050505050505050505050565b60675460405163bf40fac160e01b815260206004820152600a60248201526921a7a72a2927a62622a960b11b60448201526001600160a01b039091169063bf40fac190606401602060405180830381865afa1580156110d3573d6000803e3d6000fd5b505050506040513d601f19601f820116820180604052508101906110f791906153d3565b606580546001600160a01b0319166001600160a01b0392909216918217905560408051632d77bef360e11b81529051635aef7de6916004808201926020929091908290030181865afa158015611151573d6000803e3d6000fd5b505050506040513d601f19601f8201168201806040525081019061117591906153d3565b606680546001600160a01b0319166001600160a01b0392909216919091179055565b6111b63385858560008660405180602001604052806000815250612918565b50505050565b610193546001600160a01b03163314806111e057506066546001600160a01b031633145b806111fa5750336111ef611c83565b6001600160a01b0316145b611219573360405163b63b5ad960e01b8152600401610c479190614834565b805161019a55602081015161019b55604081015161019c55606081015161019d556080015161019e805460ff1916911515919091179055565b6101965460009060609060ff161561128b57505060408051808201909152600681526518db1bdcd95960d21b6020820152600090611568565b61019d548310156112c05750506040805180820190915260098152681b5a5b905b5bdd5b9d60ba1b6020820152600090611568565b6001600160a01b03841660009081526101a160205260409020600101546112ea6201518042615406565b6001600160a01b03861660009081526101a16020526040902054101561131157508261131e565b61131b848261541d565b90505b61019e5460ff16801561133b57506067546001600160a01b031615155b1561147f5760675460405163bf40fac160e01b81526020600482015260086024820152674944454e5449545960c01b60448201526000916001600160a01b03169063bf40fac190606401602060405180830381865afa1580156113a2573d6000803e3d6000fd5b505050506040513d601f19601f820116820180604052508101906113c691906153d3565b90506001600160a01b0381161561147d57604051633af32abf60e01b81526001600160a01b03821690633af32abf90611403908990600401614834565b602060405180830381865afa158015611420573d6000803e3d6000fd5b505050506040513d601f19601f8201168201806040525081019061144491906153b6565b61147d5760006040518060400160405280600f81526020016e1b9bdd081dda1a5d195b1a5cdd1959608a1b815250935093505050611568565b505b61019c548111156114bd5750506040805180820190915260118152701858d8dbdd5b9d11185a5b1e531a5b5a5d607a1b602082015260009150611568565b61019b548411156114f15750506040805180820190915260078152661d1e131a5b5a5d60ca1b602082015260009150611568565b6114fe6201518042615406565b61019f54101561150d57611552565b61019a546101a05461152090869061541d565b111561155257505060408051808201909152600a81526919185a5b1e531a5b5a5d60b21b602082015260009150611568565b5050604080516020810190915260008152600191505b9250929050565b306001600160a01b037f00000000000000000000000000000000000000000000000000000000000000001614156115b85760405162461bcd60e51b8152600401610c4790615435565b7f00000000000000000000000000000000000000000000000000000000000000006001600160a01b03166115ea612d80565b6001600160a01b0316146116105760405162461bcd60e51b8152600401610c479061546f565b61161981612d9c565b6040805160008082526020820190925261163591839190612da4565b50565b61ffff8316600090815260ff602052604081208054829190611659906154a9565b80601f0160208091040260200160405190810160405280929190818152602001828054611685906154a9565b80156116d25780601f106116a7576101008083540402835291602001916116d2565b820191906000526020600020905b8154815290600101906020018083116116b557829003601f168201915b5050505050905083836040516116e9929190615292565b60405180910390208180519060200120149150505b9392505050565b6117243384848460008060405180602001604052806000815250612918565b505050565b6117316128b9565b60fe546040516342d65a8d60e01b81526001600160a01b03909116906342d65a8d90611765908690869086906004016154de565b600060405180830381600087803b15801561177f57600080fd5b505af1158015610d47573d6000803e3d6000fd5b600082826040516117a5929190615292565b604051908190038120635f6970c360e01b825291506001600160a01b037f00000000000000000000000000000000000000000000000000000000000000001690635f6970c390611803908b908b908b908b908b9089906004016154fc565b6020604051808303816000875af1158015611822573d6000803e3d6000fd5b505050506040513d601f19601f8201168201806040525081019061184691906153b6565b61186357604051631403112d60e21b815260040160405180910390fd5b611871878787878787612f0f565b5050505050505050565b306001600160a01b037f00000000000000000000000000000000000000000000000000000000000000001614156118c45760405162461bcd60e51b8152600401610c4790615435565b7f00000000000000000000000000000000000000000000000000000000000000006001600160a01b03166118f6612d80565b6001600160a01b03161461191c5760405162461bcd60e51b8152600401610c479061546f565b61192582612d9c565b61193182826001612da4565b5050565b6000306001600160a01b037f000000000000000000000000000000000000000000000000000000000000000016146119d05760405162461bcd60e51b815260206004820152603860248201527f555550535570677261646561626c653a206d757374206e6f742062652063616c6044820152771b1959081d1a1c9bdd59da0819195b1959d85d1958d85b1b60421b6064820152608401610c47565b50600080516020615bb583398151915290565b611724338484846000600160405180602001604052806000815250612918565b333014611a615760405162461bcd60e51b815260206004820152602660248201527f4e6f6e626c6f636b696e674c7a4170703a2063616c6c6572206d7573742062656044820152650204c7a4170760d41b6064820152608401610c47565b611ad78686868080601f01602080910402602001604051908101604052809392919081815260200183838082843760009201919091525050604080516020601f890181900481028201810190925287815289935091508790879081908401838280828437600092019190915250612fb192505050565b505050505050565b611ae76128b9565b611af16000612fe5565b565b60ff6020526000908152604090208054611b0c906154a9565b80601f0160208091040260200160405190810160405280929190818152602001828054611b38906154a9565b8015611b855780601f10611b5a57610100808354040283529160200191611b85565b820191906000526020600020905b815481529060010190602001808311611b6857829003601f168201915b505050505081565b610193546001600160a01b0316331480611bb157506066546001600160a01b031633145b80611bcb575033611bc0611c83565b6001600160a01b0316145b611bea573360405163b63b5ad960e01b8152600401610c479190614834565b8051610197556020810151610198556040015161019955565b610193546001600160a01b0316331480611c2757506066546001600160a01b031633145b80611c41575033611c36611c83565b6001600160a01b0316145b611c60573360405163b63b5ad960e01b8152600401610c479190614834565b61019380546001600160a01b0319166001600160a01b0392909216919091179055565b60cc546001600160a01b031690565b61ffff8116600090815260ff6020526040812080546060929190611cb5906154a9565b80601f0160208091040260200160405190810160405280929190818152602001828054611ce1906154a9565b8015611d2e5780601f10611d0357610100808354040283529160200191611d2e565b820191906000526020600020905b815481529060010190602001808311611d1157829003601f168201915b50505050509050805160001415611d875760405162461bcd60e51b815260206004820152601d60248201527f4c7a4170703a206e6f20747275737465642070617468207265636f72640000006044820152606401610c47565b6116fe600060148351611d9a9190615406565b839190613037565b6000611dac6123a7565b6001600160a01b0316336001600160a01b031614611ddf573360405163077e7d6560e01b8152600401610c479190614834565b6000808080611df08688018861553d565b9350935093509350611e088984868b60018787612918565b50600198975050505050505050565b611e1f6128b9565b818130604051602001611e34939291906155a6565b60408051601f1981840301815291815261ffff8516600090815260ff60209081529190208251611e699391929091019061462a565b507f8c0400cfe2d1199b1a725c78960bcc2a344d869b80590d0f2bd005db15a572ce838383604051611e9d939291906154de565b60405180910390a1505050565b611eb26128b9565b61010280546001600160a01b0319166001600160a01b0383161790556040517f5db758e995a17ec1ad84bdef7e8c3293a0bd6179bcce400dff5d4c3d87db726b90611efe908390614834565b60405180910390a150565b610193546001600160a01b0316331480611f2d57506066546001600160a01b031633145b80611f47575033611f3c611c83565b6001600160a01b0316145b611f66573360405163b63b5ad960e01b8152600401610c479190614834565b60005b825181101561172457818181518110611f8457611f846155c7565b60200260200101516101956000858481518110611fa357611fa36155c7565b6020026020010151815260200190815260200160002060006101000a81548160ff0219169083151502179055508080611fdb906155dd565b915050611f69565b611feb6128b9565b60fe546040516332fb62e760e21b81526001600160a01b039091169063cbed8b9c9061202390889088908890889088906004016155f8565b600060405180830381600087803b15801561203d57600080fd5b505af1158015612051573d6000803e3d6000fd5b505050505050505050565b61ffff86166000908152610130602052604080822090516120809088908890615292565b90815260408051602092819003830190206001600160401b038716600090815292529020549050806121005760405162461bcd60e51b815260206004820152602360248201527f4e6f6e626c6f636b696e674c7a4170703a206e6f2073746f726564206d65737360448201526261676560e81b6064820152608401610c47565b808383604051612111929190615292565b6040518091039020146121705760405162461bcd60e51b815260206004820152602160248201527f4e6f6e626c6f636b696e674c7a4170703a20696e76616c6964207061796c6f616044820152601960fa1b6064820152608401610c47565b61ffff87166000908152610130602052604080822090516121949089908990615292565b90815260408051602092819003830181206001600160401b038916600090815290845282902093909355601f8801829004820283018201905286825261222c918991899089908190840183828082843760009201919091525050604080516020601f8a018190048102820181019092528881528a935091508890889081908401838280828437600092019190915250612fb192505050565b7fc264d91f3adc5588250e1551f547752ca0cfa8f6b530d243b9f9f4cab10ea8e58787878785604051612263959493929190615631565b60405180910390a150505050505050565b610193546001600160a01b031633148061229857506066546001600160a01b031633145b806122b25750336122a7611c83565b6001600160a01b0316145b6122d1573360405163b63b5ad960e01b8152600401610c479190614834565b6101a280546001600160a01b0319166001600160a01b0392909216919091179055565b6122fc6128b9565b600081116123445760405162461bcd60e51b81526020600482015260156024820152744c7a4170703a20696e76616c6964206d696e47617360581b6044820152606401610c47565b61ffff8381166000818152610100602090815260408083209487168084529482529182902085905581519283528201929092529081018290527f9d5c7c0b934da8fefa9c7760c98383778a12dfbfc0c3b3106518f43fb9508ac090606001611e9d565b60675460405163bf40fac160e01b815260206004820152600a60248201526923a7a7a22227a62620a960b11b60448201526000916001600160a01b03169063bf40fac190606401602060405180830381865afa15801561240b573d6000803e3d6000fd5b505050506040513d601f19601f8201168201806040525081019061242f91906153d3565b905090565b61243c6128b9565b61ffff8316600090815260ff6020526040902061245a9083836146ae565b507ffa41487ad5d6728f0b19276fa1eddc16558578f5109fc39d2dc33c3230470dab838383604051611e9d939291906154de565b6124966128b9565b6001600160a01b0381166124fb5760405162461bcd60e51b815260206004820152602660248201527f4f776e61626c653a206e6577206f776e657220697320746865207a65726f206160448201526564647265737360d01b6064820152608401610c47565b61163581612fe5565b61250c6128b9565b80612581576040516370a0823160e01b81526001600160a01b038316906370a082319061253d903090600401614834565b602060405180830381865afa15801561255a573d6000803e3d6000fd5b505050506040513d601f19601f8201168201806040525081019061257e919061566c565b90505b60405163a9059cbb60e01b81526001600160a01b0383169063a9059cbb906125af9033908590600401615685565b6020604051808303816000875af11580156125ce573d6000803e3d6000fd5b505050506040513d601f19601f8201168201806040525081019061172491906153b6565b60fe54604051633d7b2f6f60e21b815261ffff808716600483015285166024820152306044820152606481018390526060916001600160a01b03169063f5ecbdbc90608401600060405180830381865afa158015612654573d6000803e3d6000fd5b505050506040513d6000823e601f3d908101601f1916820160405261267c919081019061569e565b95945050505050565b600054610100900460ff16158080156126a55750600054600160ff909116105b806126c657506126b430613144565b1580156126c6575060005460ff166001145b6127295760405162461bcd60e51b815260206004820152602e60248201527f496e697469616c697a61626c653a20636f6e747261637420697320616c72656160448201526d191e481a5b9a5d1a585b1a5e995960921b6064820152608401610c47565b6000805460ff19166001179055801561274c576000805461ff0019166101001790555b61275584613153565b61277e7f0000000000000000000000000000000000000000000000000000000000000000613176565b61019380546001600160a01b031916331790556066546127a6906001600160a01b031661248e565b825161019a5560208084015161019b5560408085015161019c55606085015161019d55608085015161019e805460ff191691151591909117905583516101975590830151610198558201516101995580156111b6576000805461ff0019169055604051600181527f7f26b83ff96e1f2b6a682f133852f6798a09c465da95921460cefb38474024989060200160405180910390a150505050565b6000806128a35a60966366ad5c8a60e01b89898989604051602401612868949392919061570b565b60408051601f198184030181529190526020810180516001600160e01b03166001600160e01b031990931692909217909152309291906131ae565b9150915081611ad757611ad78686868685613238565b336128c2611c83565b6001600160a01b031614611af15760405162461bcd60e51b815260206004820181905260248201527f4f776e61626c653a2063616c6c6572206973206e6f7420746865206f776e65726044820152606401610c47565b6101965460ff16156129565760405163c5426f8d60e01b815260206004820152600660248201526518db1bdcd95960d21b6044820152606401610c47565b82612a8057466001148061296a5750466005145b15612a14576129776123a7565b6040516323b872dd60e01b81526001600160a01b0389811660048301523060248301526044820187905291909116906323b872dd906064016020604051808303816000875af11580156129ce573d6000803e3d6000fd5b505050506040513d601f19601f820116820180604052508101906129f291906153b6565b612a0f576040516316431e9360e11b815260040160405180910390fd5b612aff565b612a1c6123a7565b6001600160a01b03166379cc679088866040518363ffffffff1660e01b8152600401612a49929190615685565b600060405180830381600087803b158015612a6357600080fd5b505af1158015612a77573d6000803e3d6000fd5b50505050612aff565b46600114158015612a92575046600514155b15612aff57612a9f6123a7565b6001600160a01b03166342966c68856040518263ffffffff1660e01b8152600401612acc91815260200190565b600060405180830381600087803b158015612ae657600080fd5b505af1158015612afa573d6000803e3d6000fd5b505050505b6000612b7385612b0d6123a7565b6001600160a01b031663313ce5676040518163ffffffff1660e01b8152600401602060405180830381865afa158015612b4a573d6000803e3d6000fd5b505050506040513d601f19601f82011682018060405250810190612b6e9190615749565b6132d6565b905034612b9357604051630ba4e53360e21b815260040160405180910390fd5b600030466101a38054906000612ba8836155dd565b90915550604080516001600160a01b039094166020850152830191909152606082015260800160408051808303601f1901815282825280516020918201206001600160a01b03808e1692850192909252908b16918301919091526060820184905260808201819052915060009060a00160408051601f1981840301815291905290506000856001811115612c3e57612c3e61576c565b1415612c87576000612c4f8961334f565b9050805160001415612c775760405163068a505360e01b8152600481018a9052602401610c47565b612c818282613406565b50612d22565b6001856001811115612c9b57612c9b61576c565b1415612d22576000612cac896134ea565b905061ffff8116612cd35760405163068a505360e01b8152600481018a9052602401610c47565b6000612ce4828d8d8860008b610d50565b50905034811115612d11576040516324a89fab60e21b815260048101829052346024820152604401610c47565b612d1f83838e60008a613546565b50505b81896001600160a01b03168b6001600160a01b03167fabeeb7182c7294cd8efcd40e9ff952c1b759c2165b3634aac589429de5d55ad08b87428b604051612d6c94939291906157a4565b60405180910390a450505050505050505050565b600080516020615bb5833981519152546001600160a01b031690565b6116356128b9565b7f4910fdfa16fed3260ed0e7147f7cc6da11a60208b5b9406d12a635614ffd91435460ff1615612dd7576117248361359d565b826001600160a01b03166352d1902d6040518163ffffffff1660e01b8152600401602060405180830381865afa925050508015612e31575060408051601f3d908101601f19168201909252612e2e9181019061566c565b60015b612e945760405162461bcd60e51b815260206004820152602e60248201527f45524331393637557067726164653a206e657720696d706c656d656e7461746960448201526d6f6e206973206e6f74205555505360901b6064820152608401610c47565b600080516020615bb58339815191528114612f035760405162461bcd60e51b815260206004820152602960248201527f45524331393637557067726164653a20756e737570706f727465642070726f786044820152681a58589b195555525160ba1b6064820152608401610c47565b50611724838383613637565b6000612f5085858080601f01602080910402602001604051908101604052809392919081815260200183838082843760009201919091525061365c92505050565b90506000808080612f63868801886157c6565b93509350935093506110638b8b8080601f01602080910402602001604051908101604052809392919081815260200183838082843760009201919091525089925088915087905086866137db565b60008060008084806020019051810190612fcb919061580c565b929650909450925090503061205189828988888888613834565b60cc80546001600160a01b038381166001600160a01b0319831681179093556040519116919082907f8be0079c531659141344cd1fd0a4f28419497f9722a3daafe3b4186f6b6457e090600090a35050565b60608161304581601f61541d565b10156130845760405162461bcd60e51b815260206004820152600e60248201526d736c6963655f6f766572666c6f7760901b6044820152606401610c47565b61308e828461541d565b845110156130d25760405162461bcd60e51b8152602060048201526011602482015270736c6963655f6f75744f66426f756e647360781b6044820152606401610c47565b6060821580156130f1576040519150600082526020820160405261313b565b6040519150601f8416801560200281840101858101878315602002848b0101015b8183101561312a578051835260209283019201613112565b5050858452601f01601f1916604052505b50949350505050565b6001600160a01b03163b151590565b606780546001600160a01b0319166001600160a01b038316179055611635611070565b600054610100900460ff1661319d5760405162461bcd60e51b8152600401610c4790615854565b6131a561388d565b611635816138bd565b6000606060008060008661ffff166001600160401b038111156131d3576131d361486b565b6040519080825280601f01601f1916602001820160405280156131fd576020820181803683370190505b50905060008087516020890160008d8df191503d92508683111561321f578692505b828152826000602083013e909890975095505050505050565b818051906020012061013060008761ffff1661ffff1681526020019081526020016000208560405161326a919061589f565b9081526040805191829003602090810183206001600160401b0388166000908152915220919091557fe183f33de2837795525b4792ca4cd60535bd77c53b7e7030060bfcf5734d6b0c906132c790879087908790879087906158bb565b60405180910390a15050505050565b81601260ff831610156133125760006132f083601261590d565b60ff16905061330081600a615a14565b61330a9085615a20565b915050613349565b60128260ff16111561334957600061332b60128461590d565b60ff16905061333b81600a615a14565b6133459085615a3f565b9150505b92915050565b6060816001141561337e575050604080518082019091526008815267457468657265756d60c01b602082015290565b81600514156133ad57505060408051808201909152600a81526932ba3432b932bab6969960b11b602082015290565b8161a4ec14156133d757505060408051808201909152600481526363656c6f60e01b602082015290565b8161aef3141561340157505060408051808201909152600481526363656c6f60e01b602082015290565b919050565b600061341130613906565b90507f00000000000000000000000000000000000000000000000000000000000000006001600160a01b0316630c93e3bb3430858588336040518763ffffffff1660e01b8152600401613468959493929190615a61565b6000604051808303818588803b15801561348157600080fd5b505af1158015613495573d6000803e3d6000fd5b5050604051631c92115f60e01b81526001600160a01b037f0000000000000000000000000000000000000000000000000000000000000000169350631c92115f92506117659150859085908890600401615abf565b600081600114156134fe5750612711919050565b81600514156135105750612789919050565b8161a4ec14156135225750607d919050565b8161aef31415613535575061278d919050565b81607a14156134015750608a919050565b3030604051602001613559929190615270565b60408051601f1981840301815291815261ffff8616600090815260ff6020908152919020825161358e9391929091019061462a565b50610e76848685858534613b4b565b6135a681613144565b6136085760405162461bcd60e51b815260206004820152602d60248201527f455243313936373a206e657720696d706c656d656e746174696f6e206973206e60448201526c1bdd08184818dbdb9d1c9858dd609a1b6064820152608401610c47565b600080516020615bb583398151915280546001600160a01b0319166001600160a01b0392909216919091179055565b61364083613cd5565b60008251118061364d5750805b15611724576111b68383613d15565b6000808290506000808251602a14158061369c575082600081518110613684576136846155c7565b6020910101516001600160f81b031916600360fc1b14155b806136cd5750826001815181106136b5576136b56155c7565b6020910101516001600160f81b031916600f60fb1b14155b156136eb57604051636fa478cf60e11b815260040160405180910390fd5b60025b602a8110156137d157838181518110613709576137096155c7565b016020015160f81c915060618210801590613728575060668260ff1611155b1561373f5761373860578361590d565b91506137a8565b60418260ff1610158015613757575060468260ff1611155b156137675761373860378361590d565b60308260ff161015801561377f575060398260ff1611155b1561378f5761373860308361590d565b604051636fa478cf60e11b815260040160405180910390fd5b60026137b5826029615406565b60ff8416911b1b92909217916137ca816155dd565b90506136ee565b5090949350505050565b60006137e687613dfe565b90506001600160a01b038616301461382557600080516020615bd58339815191528187604051613817929190615b02565b60405180910390a150611ad7565b610d4785858584866000613ed2565b600061383f88614278565b90506001600160a01b038716301461387e57600080516020615bd58339815191528188604051613870929190615b02565b60405180910390a150610d47565b61187185858584866001613ed2565b600054610100900460ff166138b45760405162461bcd60e51b8152600401610c4790615854565b611af133612fe5565b600054610100900460ff166138e45760405162461bcd60e51b8152600401610c4790615854565b60fe80546001600160a01b0319166001600160a01b0392909216919091179055565b604051606082811b6001600160601b03191660208301529060009060340160408051601f198184030181528282528051838301909252601083526f181899199a1a9b1b9c1cb0b131b232b360811b6020840152805190935090919060009061396f906002615a20565b61397a90600261541d565b6001600160401b038111156139915761399161486b565b6040519080825280601f01601f1916602001820160405280156139bb576020820181803683370190505b509050600360fc1b816000815181106139d6576139d66155c7565b60200101906001600160f81b031916908160001a905350600f60fb1b81600181518110613a0557613a056155c7565b60200101906001600160f81b031916908160001a90535060005b83811015613b4157826004868381518110613a3c57613a3c6155c7565b016020015182516001600160f81b031990911690911c60f81c908110613a6457613a646155c7565b01602001516001600160f81b03191682613a7f836002615a20565b613a8a90600261541d565b81518110613a9a57613a9a6155c7565b60200101906001600160f81b031916908160001a90535082858281518110613ac457613ac46155c7565b602091010151815160f89190911c600f16908110613ae457613ae46155c7565b01602001516001600160f81b03191682613aff836002615a20565b613b0a90600361541d565b81518110613b1a57613b1a6155c7565b60200101906001600160f81b031916908160001a905350613b3a816155dd565b9050613a1f565b5095945050505050565b61ffff8616600090815260ff602052604081208054613b69906154a9565b80601f0160208091040260200160405190810160405280929190818152602001828054613b95906154a9565b8015613be25780601f10613bb757610100808354040283529160200191613be2565b820191906000526020600020905b815481529060010190602001808311613bc557829003601f168201915b50505050509050805160001415613c545760405162461bcd60e51b815260206004820152603060248201527f4c7a4170703a2064657374696e6174696f6e20636861696e206973206e6f742060448201526f61207472757374656420736f7572636560801b6064820152608401610c47565b613c5f8787516142e8565b60fe5460405162c5803160e81b81526001600160a01b039091169063c5803100908490613c9a908b9086908c908c908c908c90600401615b19565b6000604051808303818588803b158015613cb357600080fd5b505af1158015613cc7573d6000803e3d6000fd5b505050505050505050505050565b613cde8161359d565b6040516001600160a01b038216907fbc7cd75a20ee27fd9adebab32041f755214dbc6bffa90cc0225b39da2e5c2d3b90600090a250565b6060613d2083613144565b613d7b5760405162461bcd60e51b815260206004820152602660248201527f416464726573733a2064656c65676174652063616c6c20746f206e6f6e2d636f6044820152651b9d1c9858dd60d21b6064820152608401610c47565b600080846001600160a01b031684604051613d96919061589f565b600060405180830381855af49150503d8060008114613dd1576040519150601f19603f3d011682016040523d82523d6000602084013e613dd6565b606091505b509150915061267c8282604051806060016040528060278152602001615bf560279139614357565b805160208201206000907f564ccaf7594d66b1eaaea24fe01f0585bf52ee70852af4eac0cc4b04711cd0e2811415613e395750600192915050565b7f43ab905ae53adfdd46d0850022d385a6c09c15bfde5206c98fa0fc8dc340c3f8811415613e6a5750600592915050565b7f2ab2bf4c5cabc3000e2502e33470a863db2755809d7561237424a0eb373154c2811415613ecc577f000000000000000000000000000000000000000000000000000000000000000015613ec2575061aef392915050565b5061a4ec92915050565b50919050565b613edb836134ea565b61ffff16613eff5760405163068a505360e01b815260048101849052602401610c47565b61019560008483604051602001613f17929190615b80565b60408051601f198184030181529181528151602092830120835290820192909252016000205460ff1615613f805760405163c5426f8d60e01b815260206004820152600f60248201526e1cdbdd5c98d948191a5cd8589b1959608a1b6044820152606401610c47565b6000828152610194602052604090205460ff1615613fb457604051636e91c2f160e11b815260048101839052602401610c47565b613fc086868646614370565b600061403485613fce6123a7565b6001600160a01b031663313ce5676040518163ffffffff1660e01b8152600401602060405180830381865afa15801561400b573d6000803e3d6000fd5b505050506040513d601f19601f8201168201806040525081019061402f9190615749565b61449d565b90506000614041826144f1565b600085815261019460205260409020805460ff19166001179055905061406687614510565b46600114806140755750466005145b1561411d576140826123a7565b6001600160a01b031663a9059cbb8861409b8486615406565b6040518363ffffffff1660e01b81526004016140b8929190615685565b6020604051808303816000875af11580156140d7573d6000803e3d6000fd5b505050506040513d601f19601f820116820180604052508101906140fb91906153b6565b614118576040516376420e1d60e01b815260040160405180910390fd5b61421c565b60675460405163bf40fac160e01b815260206004820152601060248201526f26a4a72a212aa9272faba920a82822a960811b60448201526001600160a01b039091169063bf40fac190606401602060405180830381865afa158015614186573d6000803e3d6000fd5b505050506040513d601f19601f820116820180604052508101906141aa91906153d3565b6001600160a01b03166340c10f1988846040518363ffffffff1660e01b81526004016141d7929190615685565b6020604051808303816000875af11580156141f6573d6000803e3d6000fd5b505050506040513d601f19601f8201168201806040525081019061421a91906153b6565b505b83876001600160a01b0316896001600160a01b03167f6cf712ce908185c8c38a073b7315f79687e7440fb057d9d1ca76a2509a1282ee89858a8960405161426694939291906157a4565b60405180910390a45050505050505050565b60008161ffff16612711141561429057506001919050565b8161ffff1661278914156142a657506005919050565b8161ffff16607d14156142bc575061a4ec919050565b8161ffff1661278d14156142d3575061aef3919050565b8161ffff16608a14156134015750607a919050565b61ffff8216600090815261010160205260409020548061430757506127105b808211156117245760405162461bcd60e51b815260206004820181905260248201527f4c7a4170703a207061796c6f61642073697a6520697320746f6f206c617267656044820152606401610c47565b606083156143665750816116fe565b6116fe8383614600565b6001600160a01b0383161580614384575080155b156143a65782816040516314b2a5c360e31b8152600401610c47929190615685565b6143b36201518042615406565b61019f5410156143c9574261019f5560006101a0555b6143d66201518042615406565b6001600160a01b03851660009081526101a160205260409020541015614417576001600160a01b03841660009081526101a160205260408120428155600101555b6000806144248685611252565b909250905081614449578060405163c5426f8d60e01b8152600401610c479190614ef0565b8361019f600101600082825461445f919061541d565b90915550506001600160a01b03861660009081526101a160205260408120600101805486929061449090849061541d565b9091555050505050505050565b81601260ff831610156144d15760006144b783601261590d565b60ff1690506144c781600a615a14565b61330a9085615a3f565b60128260ff1611156144ea5760006132f060128461590d565b5090919050565b61019954600090612710906145069084615a20565b6133499190615a3f565b6101a2546001600160a01b03161580159061459857506101a2546040516374bf77e960e11b81526001600160a01b039091169063e97eefd290614557908490600401614834565b602060405180830381865afa158015614574573d6000803e3d6000fd5b505050506040513d601f19601f8201168201806040525081019061459891906153b6565b15611635576101a2546040516306ee3b9f60e31b81526001600160a01b0390911690633771dcf8906145ce908490600401614834565b600060405180830381600087803b1580156145e857600080fd5b505af19250505080156145f9575060015b6116355750565b8151156146105781518083602001fd5b8060405162461bcd60e51b8152600401610c479190614ef0565b828054614636906154a9565b90600052602060002090601f016020900481019282614658576000855561469e565b82601f1061467157805160ff191683800117855561469e565b8280016001018555821561469e579182015b8281111561469e578251825591602001919060010190614683565b506146aa929150614722565b5090565b8280546146ba906154a9565b90600052602060002090601f0160209004810192826146dc576000855561469e565b82601f106146f55782800160ff1982351617855561469e565b8280016001018555821561469e579182015b8281111561469e578235825591602001919060010190614707565b5b808211156146aa5760008155600101614723565b803561ffff8116811461340157600080fd5b60008083601f84011261475b57600080fd5b5081356001600160401b0381111561477257600080fd5b60208301915083602082850101111561156857600080fd5b80356001600160401b038116811461340157600080fd5b600080600080600080608087890312156147ba57600080fd5b6147c387614737565b955060208701356001600160401b03808211156147df57600080fd5b6147eb8a838b01614749565b90975095508591506147ff60408a0161478a565b9450606089013591508082111561481557600080fd5b5061482289828a01614749565b979a9699509497509295939492505050565b6001600160a01b0391909116815260200190565b6001600160a01b038116811461163557600080fd5b801515811461163557600080fd5b634e487b7160e01b600052604160045260246000fd5b604051601f8201601f191681016001600160401b03811182821017156148a9576148a961486b565b604052919050565b60006001600160401b038211156148ca576148ca61486b565b50601f01601f191660200190565b600082601f8301126148e957600080fd5b81356148fc6148f7826148b1565b614881565b81815284602083860101111561491157600080fd5b816020850160208301376000918101602001919091529392505050565b60008060008060008060c0878903121561494757600080fd5b61495087614737565b9550602087013561496081614848565b9450604087013561497081614848565b93506060870135925060808701356149878161485d565b915060a08701356001600160401b038111156149a257600080fd5b6149ae89828a016148d8565b9150509295509295509295565b6000602082840312156149cd57600080fd5b6116fe82614737565b6000806000806000608086880312156149ee57600080fd5b85356149f981614848565b9450602086013593506040860135925060608601356001600160401b03811115614a2257600080fd5b614a2e88828901614749565b969995985093965092949392505050565b60008060408385031215614a5257600080fd5b614a5b83614737565b946020939093013593505050565b600060208284031215614a7b57600080fd5b81356116fe8161485d565b60008060008060008060008060008060c08b8d031215614aa557600080fd5b8a35995060208b01356001600160401b0380821115614ac357600080fd5b614acf8e838f01614749565b909b50995060408d0135915080821115614ae857600080fd5b614af48e838f01614749565b909950975060608d0135915080821115614b0d57600080fd5b614b198e838f01614749565b909750955060808d0135915080821115614b3257600080fd5b50614b3f8d828e01614749565b9150809450508092505060a08b013590509295989b9194979a5092959850565b80356002811061340157600080fd5b60008060008060808587031215614b8457600080fd5b8435614b8f81614848565b93506020850135925060408501359150614bab60608601614b5f565b905092959194509250565b600060a08284031215614bc857600080fd5b60405160a081016001600160401b0381118282101715614bea57614bea61486b565b8060405250809150823581526020830135602082015260408301356040820152606083013560608201526080830135614c228161485d565b6080919091015292915050565b600060a08284031215614c4157600080fd5b6116fe8383614bb6565b60008060408385031215614c5e57600080fd5b8235614a5b81614848565b60005b83811015614c84578181015183820152602001614c6c565b838111156111b65750506000910152565b60008151808452614cad816020860160208601614c69565b601f01601f19169290920160200192915050565b8215158152604060208201526000614cdc6040830184614c95565b949350505050565b600060208284031215614cf657600080fd5b81356116fe81614848565b600080600060408486031215614d1657600080fd5b614d1f84614737565b925060208401356001600160401b03811115614d3a57600080fd5b614d4686828701614749565b9497909650939450505050565b600080600060608486031215614d6857600080fd5b8335614d7381614848565b95602085013595506040909401359392505050565b600060208284031215614d9a57600080fd5b5035919050565b60008060008060008060006080888a031215614dbc57600080fd5b8735965060208801356001600160401b0380821115614dda57600080fd5b614de68b838c01614749565b909850965060408a0135915080821115614dff57600080fd5b614e0b8b838c01614749565b909650945060608a0135915080821115614e2457600080fd5b50614e318a828b01614749565b989b979a50959850939692959293505050565b60008060408385031215614e5757600080fd5b8235614e6281614848565b915060208301356001600160401b03811115614e7d57600080fd5b614e89858286016148d8565b9150509250929050565b600080600060608486031215614ea857600080fd5b614eb184614737565b925060208401356001600160401b03811115614ecc57600080fd5b614ed8868287016148d8565b925050614ee76040850161478a565b90509250925092565b6020815260006116fe6020830184614c95565b600060608284031215614f1557600080fd5b604051606081016001600160401b0381118282101715614f3757614f3761486b565b80604052508091508235815260208301356020820152604083013560408201525092915050565b600060608284031215614f7057600080fd5b6116fe8383614f03565b60008060408385031215614f8d57600080fd5b614f9683614737565b9150614fa460208401614737565b90509250929050565b60008060008060608587031215614fc357600080fd5b8435614fce81614848565b93506020850135925060408501356001600160401b03811115614ff057600080fd5b614ffc87828801614749565b95989497509550505050565b61ffff91909116815260200190565b60006001600160401b038211156150305761503061486b565b5060051b60200190565b600082601f83011261504b57600080fd5b8135602061505b6148f783615017565b82815260059290921b8401810191818101908684111561507a57600080fd5b8286015b8481101561509e5780356150918161485d565b835291830191830161507e565b509695505050505050565b600080604083850312156150bc57600080fd5b82356001600160401b03808211156150d357600080fd5b818501915085601f8301126150e757600080fd5b813560206150f76148f783615017565b82815260059290921b8401810191818101908984111561511657600080fd5b948201945b838610156151345785358252948201949082019061511b565b9650508601359250508082111561514a57600080fd5b50614e898582860161503a565b60008060008060006080868803121561516f57600080fd5b61517886614737565b945061518660208701614737565b93506040860135925060608601356001600160401b03811115614a2257600080fd5b6000806000606084860312156151bd57600080fd5b6151c684614737565b92506151d460208501614737565b9150604084013590509250925092565b600080600080608085870312156151fa57600080fd5b61520385614737565b935061521160208601614737565b9250604085013561522181614848565b9396929550929360600135925050565b6000806000610120848603121561524757600080fd5b833561525281614848565b92506152618560208601614bb6565b9150614ee78560c08601614f03565b6001600160601b0319606093841b811682529190921b16601482015260280190565b8183823760009101908152919050565b81835281816020850137506000828201602090810191909152601f909101601f19169091010190565b602081526000614cdc6020830184866152a2565b61ffff861681526001600160a01b038516602082015260a06040820181905260009061530d90830186614c95565b841515606084015282810360808401526153278185614c95565b98975050505050505050565b6000806040838503121561534657600080fd5b505080516020909101519092909150565b89815260c06020820152600061537160c083018a8c6152a2565b828103604084015261538481898b6152a2565b9050866060840152828103608084015261539f8186886152a2565b9150508260a08301529a9950505050505050505050565b6000602082840312156153c857600080fd5b81516116fe8161485d565b6000602082840312156153e557600080fd5b81516116fe81614848565b634e487b7160e01b600052601160045260246000fd5b600082821015615418576154186153f0565b500390565b60008219821115615430576154306153f0565b500190565b6020808252602c90820152600080516020615b9583398151915260408201526b19195b1959d85d1958d85b1b60a21b606082015260800190565b6020808252602c90820152600080516020615b9583398151915260408201526b6163746976652070726f787960a01b606082015260800190565b600181811c908216806154bd57607f821691505b60208210811415613ecc57634e487b7160e01b600052602260045260246000fd5b61ffff8416815260406020820152600061267c6040830184866152a2565b8681526080602082015260006155166080830187896152a2565b82810360408401526155298186886152a2565b915050826060830152979650505050505050565b6000806000806080858703121561555357600080fd5b84359350602085013561556581614848565b925061557360408601614b5f565b915060608501356001600160401b0381111561558e57600080fd5b61559a878288016148d8565b91505092959194509250565b8284823760609190911b6001600160601b0319169101908152601401919050565b634e487b7160e01b600052603260045260246000fd5b60006000198214156155f1576155f16153f0565b5060010190565b600061ffff8088168352808716602084015250846040830152608060608301526156266080830184866152a2565b979650505050505050565b61ffff8616815260806020820152600061564f6080830186886152a2565b6001600160401b0394909416604083015250606001529392505050565b60006020828403121561567e57600080fd5b5051919050565b6001600160a01b03929092168252602082015260400190565b6000602082840312156156b057600080fd5b81516001600160401b038111156156c657600080fd5b8201601f810184136156d757600080fd5b80516156e56148f7826148b1565b8181528560208385010111156156fa57600080fd5b61267c826020830160208601614c69565b61ffff851681526080602082015260006157286080830186614c95565b6001600160401b038516604084015282810360608401526156268185614c95565b60006020828403121561575b57600080fd5b815160ff811681146116fe57600080fd5b634e487b7160e01b600052602160045260246000fd5b600281106157a057634e487b7160e01b600052602160045260246000fd5b9052565b84815260208101849052604081018390526080810161267c6060830184615782565b600080600080608085870312156157dc57600080fd5b84356157e781614848565b935060208501356157f781614848565b93969395505050506040820135916060013590565b6000806000806080858703121561582257600080fd5b845161582d81614848565b602086015190945061583e81614848565b6040860151606090960151949790965092505050565b6020808252602b908201527f496e697469616c697a61626c653a20636f6e7472616374206973206e6f74206960408201526a6e697469616c697a696e6760a81b606082015260800190565b600082516158b1818460208701614c69565b9190910192915050565b61ffff8616815260a0602082015260006158d860a0830187614c95565b6001600160401b038616604084015282810360608401526158f98186614c95565b905082810360808401526153278185614c95565b600060ff821660ff841680821015615927576159276153f0565b90039392505050565b600181815b8085111561596b578160001904821115615951576159516153f0565b8085161561595e57918102915b93841c9390800290615935565b509250929050565b60008261598257506001613349565b8161598f57506000613349565b81600181146159a557600281146159af576159cb565b6001915050613349565b60ff8411156159c0576159c06153f0565b50506001821b613349565b5060208310610133831016604e8410600b84101617156159ee575081810a613349565b6159f88383615930565b8060001904821115615a0c57615a0c6153f0565b029392505050565b60006116fe8383615973565b6000816000190483118215151615615a3a57615a3a6153f0565b500290565b600082615a5c57634e487b7160e01b600052601260045260246000fd5b500490565b600060018060a01b03808816835260a06020840152615a8360a0840188614c95565b8381036040850152615a958188614c95565b90508381036060850152615aa98187614c95565b9250508084166080840152509695505050505050565b606081526000615ad26060830186614c95565b8281036020840152615ae48186614c95565b90508281036040840152615af88185614c95565b9695505050505050565b9182526001600160a01b0316602082015260400190565b61ffff8716815260c060208201526000615b3660c0830188614c95565b8281036040840152615b488188614c95565b6001600160a01b0387811660608601528616608085015283810360a08501529050615b738185614c95565b9998505050505050505050565b828152604081016116fe602083018461578256fe46756e6374696f6e206d7573742062652063616c6c6564207468726f75676820360894a13ba1a3210667c828492db98dca3e2076cc3735a920a3ca505d382bbc1eafb58197ea0dc76b9278ccad47f61a239f00b017d89a19081a89321cce213d416464726573733a206c6f772d6c6576656c2064656c65676174652063616c6c206661696c6564a26469706673582212203606c6f5e03028c3497f70e677d6c79604b498cbe61683bc31847e0c747ffdf964736f6c634300080a0033",
  "devdoc": {
    "details": "A contract for bridging assets between chains",
    "kind": "dev",
    "methods": {
      "canBridge(address,uint256)": {
        "details": "Function for checking if a bridge is possible",
        "params": {
          "amount": "The amount to bridge",
          "from": "The address of the sender"
        },
        "returns": {
          "error": "The error message, if any",
          "isWithinLimit": "Whether the bridge is within the limit"
        }
      },
      "constructor": {
        "details": "Constructor function for the AxelarBridge contract",
        "params": {
          "axlGasReceiver": "The address of the gas receiver contract",
          "axlGateway": "The address of the gateway contract"
        }
      },
      "initialize(address,(uint256,uint256,uint256,uint256,bool),(uint256,uint256,uint256))": {
        "details": "Function for initializing the contract",
        "params": {
          "nameService": "The address of the name service contract"
        }
      },
      "onTokenTransfer(address,uint256,bytes)": {
        "details": "Function for handling token transfers",
        "params": {
          "amount": "The amount to transfer",
          "data": "The data to decode of format (uint256 targetChainId, address target, BridgeService bridge, bytes memory lzAdapterParams)",
          "from": "The address of the sender"
        },
        "returns": {
          "_0": "Whether the transfer was successful or not"
        }
      },
      "owner()": {
        "details": "Returns the address of the current owner."
      },
      "pauseBridge(bool)": {
        "details": "Function for pausing the bridge",
        "params": {
          "isPaused": "Whether to pause the bridge or not"
        }
      },
      "proxiableUUID()": {
        "details": "Implementation of the ERC1822 {proxiableUUID} function. This returns the storage slot used by the implementation. It is used to validate the implementation's compatibility when performing an upgrade. IMPORTANT: A proxy pointing at a proxiable contract should not be considered proxiable itself, because this risks bricking a proxy that upgrades to it, by delegating to itself until out of gas. Thus it is critical that this function revert if invoked through a proxy. This is guaranteed by the `notDelegated` modifier."
      },
      "renounceOwnership()": {
        "details": "Leaves the contract without owner. It will not be possible to call `onlyOwner` functions anymore. Can only be called by the current owner. NOTE: Renouncing ownership will leave the contract without an owner, thereby removing any functionality that is only available to the owner."
      },
      "setBridgeFees((uint256,uint256,uint256))": {
        "details": "Function for setting the bridge fees",
        "params": {
          "fees": "The bridge fees to set"
        }
      },
      "setBridgeLimits((uint256,uint256,uint256,uint256,bool))": {
        "details": "Function for setting the bridge limits",
        "params": {
          "limits": "The bridge limits to set"
        }
      },
      "setFaucet(address)": {
        "details": "Function for setting the faucet contract",
        "params": {
          "_faucet": "The faucet contract to set"
        }
      },
      "setGuardian(address)": {
        "details": "Function for setting the guardian contract",
        "params": {
          "_guardian": "The guardian to set"
        }
      },
      "transferOwnership(address)": {
        "details": "Transfers ownership of the contract to a new account (`newOwner`). Can only be called by the current owner."
      },
      "upgradeTo(address)": {
        "details": "Upgrade the implementation of the proxy to `newImplementation`. Calls {_authorizeUpgrade}. Emits an {Upgraded} event."
      },
      "upgradeToAndCall(address,bytes)": {
        "details": "Upgrade the implementation of the proxy to `newImplementation`, and subsequently execute the function call encoded in `data`. Calls {_authorizeUpgrade}. Emits an {Upgraded} event."
      },
      "withdraw(address,uint256)": {
        "details": "Function for withdrawing tokens",
        "params": {
          "amount": "The amount to withdraw",
          "token": "The address of the token to withdraw"
        }
      }
    },
    "title": "MessagePassingBridge",
    "version": 1
  },
  "userdoc": {
    "kind": "user",
    "methods": {},
    "version": 1
  },
  "storageLayout": {
    "storage": [
      {
        "astId": 5302,
        "contract": "contracts/messagePassingBridge/MessagePassingBridge.sol:MessagePassingBridge",
        "label": "_initialized",
        "offset": 0,
        "slot": "0",
        "type": "t_uint8"
      },
      {
        "astId": 5305,
        "contract": "contracts/messagePassingBridge/MessagePassingBridge.sol:MessagePassingBridge",
        "label": "_initializing",
        "offset": 1,
        "slot": "0",
        "type": "t_bool"
      },
      {
        "astId": 5284,
        "contract": "contracts/messagePassingBridge/MessagePassingBridge.sol:MessagePassingBridge",
        "label": "__gap",
        "offset": 0,
        "slot": "1",
        "type": "t_array(t_uint256)50_storage"
      },
      {
        "astId": 5599,
        "contract": "contracts/messagePassingBridge/MessagePassingBridge.sol:MessagePassingBridge",
        "label": "__gap",
        "offset": 0,
        "slot": "51",
        "type": "t_array(t_uint256)50_storage"
      },
      {
        "astId": 2441,
        "contract": "contracts/messagePassingBridge/MessagePassingBridge.sol:MessagePassingBridge",
        "label": "dao",
        "offset": 0,
        "slot": "101",
        "type": "t_contract(Controller)1248"
      },
      {
        "astId": 2443,
        "contract": "contracts/messagePassingBridge/MessagePassingBridge.sol:MessagePassingBridge",
        "label": "avatar",
        "offset": 0,
        "slot": "102",
        "type": "t_address"
      },
      {
        "astId": 2446,
        "contract": "contracts/messagePassingBridge/MessagePassingBridge.sol:MessagePassingBridge",
        "label": "nameService",
        "offset": 0,
        "slot": "103",
        "type": "t_contract(INameService)2296"
      },
      {
        "astId": 2514,
        "contract": "contracts/messagePassingBridge/MessagePassingBridge.sol:MessagePassingBridge",
        "label": "gap",
        "offset": 0,
        "slot": "104",
        "type": "t_array(t_uint256)50_storage"
      },
      {
        "astId": 5925,
        "contract": "contracts/messagePassingBridge/MessagePassingBridge.sol:MessagePassingBridge",
        "label": "__gap",
        "offset": 0,
        "slot": "154",
        "type": "t_array(t_uint256)50_storage"
      },
      {
        "astId": 4785,
        "contract": "contracts/messagePassingBridge/MessagePassingBridge.sol:MessagePassingBridge",
        "label": "_owner",
        "offset": 0,
        "slot": "204",
        "type": "t_address"
      },
      {
        "astId": 4905,
        "contract": "contracts/messagePassingBridge/MessagePassingBridge.sol:MessagePassingBridge",
        "label": "__gap",
        "offset": 0,
        "slot": "205",
        "type": "t_array(t_uint256)49_storage"
      },
      {
        "astId": 3124,
        "contract": "contracts/messagePassingBridge/MessagePassingBridge.sol:MessagePassingBridge",
        "label": "lzEndpoint",
        "offset": 0,
        "slot": "254",
        "type": "t_contract(ILayerZeroEndpointUpgradeable)3055"
      },
      {
        "astId": 3128,
        "contract": "contracts/messagePassingBridge/MessagePassingBridge.sol:MessagePassingBridge",
        "label": "trustedRemoteLookup",
        "offset": 0,
        "slot": "255",
        "type": "t_mapping(t_uint16,t_bytes_storage)"
      },
      {
        "astId": 3134,
        "contract": "contracts/messagePassingBridge/MessagePassingBridge.sol:MessagePassingBridge",
        "label": "minDstGasLookup",
        "offset": 0,
        "slot": "256",
        "type": "t_mapping(t_uint16,t_mapping(t_uint16,t_uint256))"
      },
      {
        "astId": 3138,
        "contract": "contracts/messagePassingBridge/MessagePassingBridge.sol:MessagePassingBridge",
        "label": "payloadSizeLimitLookup",
        "offset": 0,
        "slot": "257",
        "type": "t_mapping(t_uint16,t_uint256)"
      },
      {
        "astId": 3140,
        "contract": "contracts/messagePassingBridge/MessagePassingBridge.sol:MessagePassingBridge",
        "label": "precrime",
        "offset": 0,
        "slot": "258",
        "type": "t_address"
      },
      {
        "astId": 3672,
        "contract": "contracts/messagePassingBridge/MessagePassingBridge.sol:MessagePassingBridge",
        "label": "__gap",
        "offset": 0,
        "slot": "259",
        "type": "t_array(t_uint256)45_storage"
      },
      {
        "astId": 3715,
        "contract": "contracts/messagePassingBridge/MessagePassingBridge.sol:MessagePassingBridge",
        "label": "failedMessages",
        "offset": 0,
        "slot": "304",
        "type": "t_mapping(t_uint16,t_mapping(t_bytes_memory_ptr,t_mapping(t_uint64,t_bytes32)))"
      },
      {
        "astId": 3934,
        "contract": "contracts/messagePassingBridge/MessagePassingBridge.sol:MessagePassingBridge",
        "label": "__gap",
        "offset": 0,
        "slot": "305",
        "type": "t_array(t_uint256)49_storage"
      },
      {
        "astId": 9891,
        "contract": "contracts/messagePassingBridge/MessagePassingBridge.sol:MessagePassingBridge",
        "label": "__gap",
        "offset": 0,
        "slot": "354",
        "type": "t_array(t_uint256)49_storage"
      },
      {
        "astId": 10075,
        "contract": "contracts/messagePassingBridge/MessagePassingBridge.sol:MessagePassingBridge",
        "label": "guardian",
        "offset": 0,
        "slot": "403",
        "type": "t_address"
      },
      {
        "astId": 10079,
        "contract": "contracts/messagePassingBridge/MessagePassingBridge.sol:MessagePassingBridge",
        "label": "executedRequests",
        "offset": 0,
        "slot": "404",
        "type": "t_mapping(t_uint256,t_bool)"
      },
      {
        "astId": 10083,
        "contract": "contracts/messagePassingBridge/MessagePassingBridge.sol:MessagePassingBridge",
        "label": "disabledSourceBridges",
        "offset": 0,
        "slot": "405",
        "type": "t_mapping(t_bytes32,t_bool)"
      },
      {
        "astId": 10085,
        "contract": "contracts/messagePassingBridge/MessagePassingBridge.sol:MessagePassingBridge",
        "label": "isClosed",
        "offset": 0,
        "slot": "406",
        "type": "t_bool"
      },
      {
        "astId": 10088,
        "contract": "contracts/messagePassingBridge/MessagePassingBridge.sol:MessagePassingBridge",
        "label": "bridgeFees",
        "offset": 0,
        "slot": "407",
        "type": "t_struct(BridgeFees)10052_storage"
      },
      {
        "astId": 10091,
        "contract": "contracts/messagePassingBridge/MessagePassingBridge.sol:MessagePassingBridge",
        "label": "bridgeLimits",
        "offset": 0,
        "slot": "410",
        "type": "t_struct(BridgeLimits)10063_storage"
      },
      {
        "astId": 10094,
        "contract": "contracts/messagePassingBridge/MessagePassingBridge.sol:MessagePassingBridge",
        "label": "bridgeDailyLimit",
        "offset": 0,
        "slot": "415",
        "type": "t_struct(BridgeDailyLimit)10073_storage"
      },
      {
        "astId": 10099,
        "contract": "contracts/messagePassingBridge/MessagePassingBridge.sol:MessagePassingBridge",
        "label": "accountsDailyLimit",
        "offset": 0,
        "slot": "417",
        "type": "t_mapping(t_address,t_struct(AccountLimit)10068_storage)"
      },
      {
        "astId": 10102,
        "contract": "contracts/messagePassingBridge/MessagePassingBridge.sol:MessagePassingBridge",
        "label": "faucet",
        "offset": 0,
        "slot": "418",
        "type": "t_contract(IFaucet)9927"
      },
      {
        "astId": 10104,
        "contract": "contracts/messagePassingBridge/MessagePassingBridge.sol:MessagePassingBridge",
        "label": "currentId",
        "offset": 0,
        "slot": "419",
        "type": "t_uint256"
      },
      {
        "astId": 10108,
        "contract": "contracts/messagePassingBridge/MessagePassingBridge.sol:MessagePassingBridge",
        "label": "lzChainIdsMapping",
        "offset": 0,
        "slot": "420",
        "type": "t_mapping(t_uint256,t_uint16)"
      }
    ],
    "types": {
      "t_address": {
        "encoding": "inplace",
        "label": "address",
        "numberOfBytes": "20"
      },
      "t_array(t_uint256)45_storage": {
        "base": "t_uint256",
        "encoding": "inplace",
        "label": "uint256[45]",
        "numberOfBytes": "1440"
      },
      "t_array(t_uint256)49_storage": {
        "base": "t_uint256",
        "encoding": "inplace",
        "label": "uint256[49]",
        "numberOfBytes": "1568"
      },
      "t_array(t_uint256)50_storage": {
        "base": "t_uint256",
        "encoding": "inplace",
        "label": "uint256[50]",
        "numberOfBytes": "1600"
      },
      "t_bool": {
        "encoding": "inplace",
        "label": "bool",
        "numberOfBytes": "1"
      },
      "t_bytes32": {
        "encoding": "inplace",
        "label": "bytes32",
        "numberOfBytes": "32"
      },
      "t_bytes_memory_ptr": {
        "encoding": "bytes",
        "label": "bytes",
        "numberOfBytes": "32"
      },
      "t_bytes_storage": {
        "encoding": "bytes",
        "label": "bytes",
        "numberOfBytes": "32"
      },
      "t_contract(Controller)1248": {
        "encoding": "inplace",
        "label": "contract Controller",
        "numberOfBytes": "20"
      },
      "t_contract(IFaucet)9927": {
        "encoding": "inplace",
        "label": "contract IFaucet",
        "numberOfBytes": "20"
      },
      "t_contract(ILayerZeroEndpointUpgradeable)3055": {
        "encoding": "inplace",
        "label": "contract ILayerZeroEndpointUpgradeable",
        "numberOfBytes": "20"
      },
      "t_contract(INameService)2296": {
        "encoding": "inplace",
        "label": "contract INameService",
        "numberOfBytes": "20"
      },
      "t_mapping(t_address,t_struct(AccountLimit)10068_storage)": {
        "encoding": "mapping",
        "key": "t_address",
        "label": "mapping(address => struct MessagePassingBridge.AccountLimit)",
        "numberOfBytes": "32",
        "value": "t_struct(AccountLimit)10068_storage"
      },
      "t_mapping(t_bytes32,t_bool)": {
        "encoding": "mapping",
        "key": "t_bytes32",
        "label": "mapping(bytes32 => bool)",
        "numberOfBytes": "32",
        "value": "t_bool"
      },
      "t_mapping(t_bytes_memory_ptr,t_mapping(t_uint64,t_bytes32))": {
        "encoding": "mapping",
        "key": "t_bytes_memory_ptr",
        "label": "mapping(bytes => mapping(uint64 => bytes32))",
        "numberOfBytes": "32",
        "value": "t_mapping(t_uint64,t_bytes32)"
      },
      "t_mapping(t_uint16,t_bytes_storage)": {
        "encoding": "mapping",
        "key": "t_uint16",
        "label": "mapping(uint16 => bytes)",
        "numberOfBytes": "32",
        "value": "t_bytes_storage"
      },
      "t_mapping(t_uint16,t_mapping(t_bytes_memory_ptr,t_mapping(t_uint64,t_bytes32)))": {
        "encoding": "mapping",
        "key": "t_uint16",
        "label": "mapping(uint16 => mapping(bytes => mapping(uint64 => bytes32)))",
        "numberOfBytes": "32",
        "value": "t_mapping(t_bytes_memory_ptr,t_mapping(t_uint64,t_bytes32))"
      },
      "t_mapping(t_uint16,t_mapping(t_uint16,t_uint256))": {
        "encoding": "mapping",
        "key": "t_uint16",
        "label": "mapping(uint16 => mapping(uint16 => uint256))",
        "numberOfBytes": "32",
        "value": "t_mapping(t_uint16,t_uint256)"
      },
      "t_mapping(t_uint16,t_uint256)": {
        "encoding": "mapping",
        "key": "t_uint16",
        "label": "mapping(uint16 => uint256)",
        "numberOfBytes": "32",
        "value": "t_uint256"
      },
      "t_mapping(t_uint256,t_bool)": {
        "encoding": "mapping",
        "key": "t_uint256",
        "label": "mapping(uint256 => bool)",
        "numberOfBytes": "32",
        "value": "t_bool"
      },
      "t_mapping(t_uint256,t_uint16)": {
        "encoding": "mapping",
        "key": "t_uint256",
        "label": "mapping(uint256 => uint16)",
        "numberOfBytes": "32",
        "value": "t_uint16"
      },
      "t_mapping(t_uint64,t_bytes32)": {
        "encoding": "mapping",
        "key": "t_uint64",
        "label": "mapping(uint64 => bytes32)",
        "numberOfBytes": "32",
        "value": "t_bytes32"
      },
      "t_struct(AccountLimit)10068_storage": {
        "encoding": "inplace",
        "label": "struct MessagePassingBridge.AccountLimit",
        "members": [
          {
            "astId": 10065,
            "contract": "contracts/messagePassingBridge/MessagePassingBridge.sol:MessagePassingBridge",
            "label": "lastTransferReset",
            "offset": 0,
            "slot": "0",
            "type": "t_uint256"
          },
          {
            "astId": 10067,
            "contract": "contracts/messagePassingBridge/MessagePassingBridge.sol:MessagePassingBridge",
            "label": "bridged24Hours",
            "offset": 0,
            "slot": "1",
            "type": "t_uint256"
          }
        ],
        "numberOfBytes": "64"
      },
      "t_struct(BridgeDailyLimit)10073_storage": {
        "encoding": "inplace",
        "label": "struct MessagePassingBridge.BridgeDailyLimit",
        "members": [
          {
            "astId": 10070,
            "contract": "contracts/messagePassingBridge/MessagePassingBridge.sol:MessagePassingBridge",
            "label": "lastTransferReset",
            "offset": 0,
            "slot": "0",
            "type": "t_uint256"
          },
          {
            "astId": 10072,
            "contract": "contracts/messagePassingBridge/MessagePassingBridge.sol:MessagePassingBridge",
            "label": "bridged24Hours",
            "offset": 0,
            "slot": "1",
            "type": "t_uint256"
          }
        ],
        "numberOfBytes": "64"
      },
      "t_struct(BridgeFees)10052_storage": {
        "encoding": "inplace",
        "label": "struct MessagePassingBridge.BridgeFees",
        "members": [
          {
            "astId": 10047,
            "contract": "contracts/messagePassingBridge/MessagePassingBridge.sol:MessagePassingBridge",
            "label": "minFee",
            "offset": 0,
            "slot": "0",
            "type": "t_uint256"
          },
          {
            "astId": 10049,
            "contract": "contracts/messagePassingBridge/MessagePassingBridge.sol:MessagePassingBridge",
            "label": "maxFee",
            "offset": 0,
            "slot": "1",
            "type": "t_uint256"
          },
          {
            "astId": 10051,
            "contract": "contracts/messagePassingBridge/MessagePassingBridge.sol:MessagePassingBridge",
            "label": "fee",
            "offset": 0,
            "slot": "2",
            "type": "t_uint256"
          }
        ],
        "numberOfBytes": "96"
      },
      "t_struct(BridgeLimits)10063_storage": {
        "encoding": "inplace",
        "label": "struct MessagePassingBridge.BridgeLimits",
        "members": [
          {
            "astId": 10054,
            "contract": "contracts/messagePassingBridge/MessagePassingBridge.sol:MessagePassingBridge",
            "label": "dailyLimit",
            "offset": 0,
            "slot": "0",
            "type": "t_uint256"
          },
          {
            "astId": 10056,
            "contract": "contracts/messagePassingBridge/MessagePassingBridge.sol:MessagePassingBridge",
            "label": "txLimit",
            "offset": 0,
            "slot": "1",
            "type": "t_uint256"
          },
          {
            "astId": 10058,
            "contract": "contracts/messagePassingBridge/MessagePassingBridge.sol:MessagePassingBridge",
            "label": "accountDailyLimit",
            "offset": 0,
            "slot": "2",
            "type": "t_uint256"
          },
          {
            "astId": 10060,
            "contract": "contracts/messagePassingBridge/MessagePassingBridge.sol:MessagePassingBridge",
            "label": "minAmount",
            "offset": 0,
            "slot": "3",
            "type": "t_uint256"
          },
          {
            "astId": 10062,
            "contract": "contracts/messagePassingBridge/MessagePassingBridge.sol:MessagePassingBridge",
            "label": "onlyWhitelisted",
            "offset": 0,
            "slot": "4",
            "type": "t_bool"
          }
        ],
        "numberOfBytes": "160"
      },
      "t_uint16": {
        "encoding": "inplace",
        "label": "uint16",
        "numberOfBytes": "2"
      },
      "t_uint256": {
        "encoding": "inplace",
        "label": "uint256",
        "numberOfBytes": "32"
      },
      "t_uint64": {
        "encoding": "inplace",
        "label": "uint64",
        "numberOfBytes": "8"
      },
      "t_uint8": {
        "encoding": "inplace",
        "label": "uint8",
        "numberOfBytes": "1"
      }
    }
  }
}