{
  "_format": "hh-sol-artifact-1",
  "contractName": "BlockHeaderRegistry",
  "sourceName": "contracts/BlockHeaderRegistry.sol",
  "abi": [
    {
      "inputs": [
        {
          "internalType": "address",
          "name": "_voting",
          "type": "address"
        },
        {
          "internalType": "address",
          "name": "_consensus",
          "type": "address"
        }
      ],
      "stateMutability": "nonpayable",
      "type": "constructor"
    },
    {
      "anonymous": false,
      "inputs": [
        {
          "indexed": false,
          "internalType": "uint256",
          "name": "chainId",
          "type": "uint256"
        },
        {
          "indexed": false,
          "internalType": "string",
          "name": "rpc",
          "type": "string"
        }
      ],
      "name": "BlockchainAdded",
      "type": "event"
    },
    {
      "anonymous": false,
      "inputs": [
        {
          "indexed": false,
          "internalType": "uint256",
          "name": "chainId",
          "type": "uint256"
        }
      ],
      "name": "BlockchainRemoved",
      "type": "event"
    },
    {
      "inputs": [
        {
          "internalType": "uint256",
          "name": "chainId",
          "type": "uint256"
        },
        {
          "internalType": "string",
          "name": "rpc",
          "type": "string"
        }
      ],
      "name": "addBlockchain",
      "outputs": [],
      "stateMutability": "nonpayable",
      "type": "function"
    },
    {
      "inputs": [
        {
          "components": [
            {
              "internalType": "bytes",
              "name": "rlpHeader",
              "type": "bytes"
            },
            {
              "components": [
                {
                  "internalType": "bytes32",
                  "name": "r",
                  "type": "bytes32"
                },
                {
                  "internalType": "bytes32",
                  "name": "vs",
                  "type": "bytes32"
                }
              ],
              "internalType": "struct BlockHeaderRegistry.Signature",
              "name": "signature",
              "type": "tuple"
            },
            {
              "internalType": "uint256",
              "name": "chainId",
              "type": "uint256"
            },
            {
              "internalType": "bytes32",
              "name": "blockHash",
              "type": "bytes32"
            },
            {
              "internalType": "uint256",
              "name": "cycleEnd",
              "type": "uint256"
            },
            {
              "internalType": "address[]",
              "name": "validators",
              "type": "address[]"
            }
          ],
          "internalType": "struct BlockHeaderRegistry.Block[]",
          "name": "blocks",
          "type": "tuple[]"
        }
      ],
      "name": "addSignedBlocks",
      "outputs": [],
      "stateMutability": "nonpayable",
      "type": "function"
    },
    {
      "inputs": [
        {
          "internalType": "uint256",
          "name": "",
          "type": "uint256"
        },
        {
          "internalType": "uint256",
          "name": "",
          "type": "uint256"
        },
        {
          "internalType": "uint256",
          "name": "",
          "type": "uint256"
        }
      ],
      "name": "blockHashes",
      "outputs": [
        {
          "internalType": "bytes32",
          "name": "",
          "type": "bytes32"
        }
      ],
      "stateMutability": "view",
      "type": "function"
    },
    {
      "inputs": [],
      "name": "consensus",
      "outputs": [
        {
          "internalType": "address",
          "name": "",
          "type": "address"
        }
      ],
      "stateMutability": "view",
      "type": "function"
    },
    {
      "inputs": [
        {
          "internalType": "uint256",
          "name": "",
          "type": "uint256"
        }
      ],
      "name": "enabledBlockchains",
      "outputs": [
        {
          "internalType": "string",
          "name": "rpc",
          "type": "string"
        },
        {
          "internalType": "uint256",
          "name": "chainId",
          "type": "uint256"
        }
      ],
      "stateMutability": "view",
      "type": "function"
    },
    {
      "inputs": [
        {
          "internalType": "bytes32",
          "name": "payloadHash",
          "type": "bytes32"
        }
      ],
      "name": "getBlockHashByPayloadHash",
      "outputs": [
        {
          "internalType": "bytes32",
          "name": "blockHash",
          "type": "bytes32"
        }
      ],
      "stateMutability": "view",
      "type": "function"
    },
    {
      "inputs": [],
      "name": "getRPCs",
      "outputs": [
        {
          "components": [
            {
              "internalType": "string",
              "name": "rpc",
              "type": "string"
            },
            {
              "internalType": "uint256",
              "name": "chainId",
              "type": "uint256"
            }
          ],
          "internalType": "struct BlockHeaderRegistry.Blockchain[]",
          "name": "",
          "type": "tuple[]"
        }
      ],
      "stateMutability": "view",
      "type": "function"
    },
    {
      "inputs": [
        {
          "internalType": "uint256",
          "name": "chainId",
          "type": "uint256"
        },
        {
          "internalType": "uint256",
          "name": "number",
          "type": "uint256"
        }
      ],
      "name": "getSignedBlock",
      "outputs": [
        {
          "components": [
            {
              "internalType": "bytes[]",
              "name": "signatures",
              "type": "bytes[]"
            },
            {
              "internalType": "uint256",
              "name": "cycleEnd",
              "type": "uint256"
            },
            {
              "internalType": "address[]",
              "name": "validators",
              "type": "address[]"
            },
            {
              "internalType": "bytes32",
              "name": "blockHash",
              "type": "bytes32"
            }
          ],
          "internalType": "struct BlockHeaderRegistry.SignedBlock",
          "name": "signedBlock",
          "type": "tuple"
        }
      ],
      "stateMutability": "view",
      "type": "function"
    },
    {
      "inputs": [
        {
          "internalType": "bytes32",
          "name": "",
          "type": "bytes32"
        },
        {
          "internalType": "address",
          "name": "",
          "type": "address"
        }
      ],
      "name": "hasValidatorSigned",
      "outputs": [
        {
          "internalType": "bool",
          "name": "",
          "type": "bool"
        }
      ],
      "stateMutability": "view",
      "type": "function"
    },
    {
      "inputs": [
        {
          "internalType": "bytes",
          "name": "rlpHeader",
          "type": "bytes"
        }
      ],
      "name": "parseRLPBlockNumber",
      "outputs": [
        {
          "internalType": "uint256",
          "name": "blockNumber",
          "type": "uint256"
        }
      ],
      "stateMutability": "pure",
      "type": "function"
    },
    {
      "inputs": [
        {
          "internalType": "bytes32",
          "name": "",
          "type": "bytes32"
        }
      ],
      "name": "signedBlocks",
      "outputs": [
        {
          "internalType": "uint256",
          "name": "cycleEnd",
          "type": "uint256"
        },
        {
          "internalType": "bytes32",
          "name": "blockHash",
          "type": "bytes32"
        }
      ],
      "stateMutability": "view",
      "type": "function"
    },
    {
      "inputs": [],
      "name": "voting",
      "outputs": [
        {
          "internalType": "address",
          "name": "",
          "type": "address"
        }
      ],
      "stateMutability": "view",
      "type": "function"
    }
  ],
  "bytecode": "0x60c06040523480156200001157600080fd5b50604051620033b2380380620033b2833981810160405281019062000037919062000111565b8173ffffffffffffffffffffffffffffffffffffffff1660808173ffffffffffffffffffffffffffffffffffffffff16815250508073ffffffffffffffffffffffffffffffffffffffff1660a08173ffffffffffffffffffffffffffffffffffffffff1681525050505062000158565b600080fd5b600073ffffffffffffffffffffffffffffffffffffffff82169050919050565b6000620000d982620000ac565b9050919050565b620000eb81620000cc565b8114620000f757600080fd5b50565b6000815190506200010b81620000e0565b92915050565b600080604083850312156200012b576200012a620000a7565b5b60006200013b85828601620000fa565b92505060206200014e85828601620000fa565b9150509250929050565b60805160a0516132266200018c6000396000818161074c01526112320152600081816108ba015261106f01526132266000f3fe608060405234801561001057600080fd5b50600436106100b45760003560e01c8063d892369111610071578063d8923691146101c8578063db20f3b5146101e6578063dc20fa8914610216578063ed8eeee314610232578063f105a7621461024e578063fce1ccca1461027f576100b4565b8063063d5669146100b957806352c634ec146100e9578063631df4e41461011a5780638c7b80551461014a5780638ef3f7611461017a578063c6be980c14610198575b600080fd5b6100d360048036038101906100ce9190611d61565b61029d565b6040516100e0919061207e565b60405180910390f35b61010360048036038101906100fe91906120a0565b6105c9565b604051610111929190612131565b60405180910390f35b610134600480360381019061012f9190612161565b610685565b60405161014191906121c3565b60405180910390f35b610164600480360381019061015f9190612243565b6106c3565b6040516101719190612290565b60405180910390f35b61018261074a565b60405161018f91906122ba565b60405180910390f35b6101b260048036038101906101ad9190612301565b61076e565b6040516101bf91906121c3565b60405180910390f35b6101d061078e565b6040516101dd9190612477565b60405180910390f35b61020060048036038101906101fb91906124c5565b610889565b60405161020d9190612520565b60405180910390f35b610230600480360381019061022b919061266b565b6108b8565b005b61024c6004803603810190610247919061271d565b610be3565b005b61026860048036038101906102639190612301565b611049565b60405161027692919061276a565b60405180910390f35b61028761106d565b60405161029491906122ba565b60405180910390f35b6102a5611a22565b600060016000858152602001908152602001600020600084815260200190815260200160002080548060200260200160405190810160405280929190818152602001828054801561031557602002820191906000526020600020905b815481526020019060010190808311610301575b50505050509050600081511415610361576040517f08c379a0000000000000000000000000000000000000000000000000000000008152600401610358906127df565b60405180910390fd5b600081600081518110610377576103766127ff565b5b602002602001015190506000600260008381526020019081526020016000206000018054905090506000600190505b8351811015610424576000600260008684815181106103c8576103c76127ff565b5b602002602001015181526020019081526020016000206000018054905090508281111561041057809250848281518110610405576104046127ff565b5b602002602001015193505b50808061041c9061285d565b9150506103a6565b506002600083815260200190815260200160002060405180608001604052908160008201805480602002602001604051908101604052809291908181526020016000905b82821015610514578382906000526020600020018054610487906128d5565b80601f01602080910402602001604051908101604052809291908181526020018280546104b3906128d5565b80156105005780601f106104d557610100808354040283529160200191610500565b820191906000526020600020905b8154815290600101906020018083116104e357829003601f168201915b505050505081526020019060010190610468565b50505050815260200160018201548152602001600282018054806020026020016040519081016040528092919081815260200182805480156105ab57602002820191906000526020600020905b8160009054906101000a900473ffffffffffffffffffffffffffffffffffffffff1673ffffffffffffffffffffffffffffffffffffffff1681526020019060010190808311610561575b50505050508152602001600382015481525050935050505092915050565b600381815481106105d957600080fd5b90600052602060002090600202016000915090508060000180546105fc906128d5565b80601f0160208091040260200160405190810160405280929190818152602001828054610628906128d5565b80156106755780601f1061064a57610100808354040283529160200191610675565b820191906000526020600020905b81548152906001019060200180831161065857829003601f168201915b5050505050908060010154905082565b600160205282600052604060002060205281600052604060002081815481106106ad57600080fd5b9060005260206000200160009250925050505481565b60008061071b61071685858080601f016020809104026020016040519081016040528093929190818152602001838380828437600081840152601f19601f82011690508083019250505050505050611091565b6110bf565b905061074181600881518110610734576107336127ff565b5b60200260200101516111d4565b91505092915050565b7f000000000000000000000000000000000000000000000000000000000000000081565b600060026000838152602001908152602001600020600301549050919050565b60606003805480602002602001604051908101604052809291908181526020016000905b8282101561088057838290600052602060002090600202016040518060400160405290816000820180546107e5906128d5565b80601f0160208091040260200160405190810160405280929190818152602001828054610811906128d5565b801561085e5780601f106108335761010080835404028352916020019161085e565b820191906000526020600020905b81548152906001019060200180831161084157829003601f168201915b50505050508152602001600182015481525050815260200190600101906107b2565b50505050905090565b60006020528160005260406000206020528060005260406000206000915091509054906101000a900460ff1681565b7f000000000000000000000000000000000000000000000000000000000000000073ffffffffffffffffffffffffffffffffffffffff163373ffffffffffffffffffffffffffffffffffffffff1614610946576040517f08c379a000000000000000000000000000000000000000000000000000000000815260040161093d90612953565b60405180910390fd5b6000600380549050905060005b81811015610b325783600382815481106109705761096f6127ff565b5b9060005260206000209060020201600101541415610b1f57600083511415610aa557816001826109a09190612973565b1015610a245760036001836109b591906129c9565b815481106109c6576109c56127ff565b5b9060005260206000209060020201600382815481106109e8576109e76127ff565b5b90600052602060002090600202016000820181600001908054610a0a906128d5565b610a15929190611a4d565b50600182015481600101559050505b6003805480610a3657610a356129fd565b5b600190038181906000526020600020906002020160008082016000610a5b9190611ada565b6001820160009055505090557f62509941575b6cd38681c5cb9b9f2e5db7f1f95db671e972ff3bbb05a49875ee84604051610a969190612290565b60405180910390a15050610bdf565b8260038281548110610aba57610ab96127ff565b5b90600052602060002090600202016000019080519060200190610ade929190611b1a565b507ff3300e667302dba8542aa32316477d74cb3620e37163bcb4a19d9ce0049d1d9c8484604051610b10929190612a2c565b60405180910390a15050610bdf565b8080610b2a9061285d565b915050610953565b50610b3b611ba0565b8381602001818152505082816000018190525060038190806001815401808255809150506001900390600052602060002090600202016000909190919091506000820151816000019080519060200190610b96929190611b1a565b506020820151816001015550507ff3300e667302dba8542aa32316477d74cb3620e37163bcb4a19d9ce0049d1d9c8484604051610bd4929190612a2c565b60405180910390a150505b5050565b610bec3361122e565b610c2b576040517f08c379a0000000000000000000000000000000000000000000000000000000008152600401610c2290612aa8565b60405180910390fd5b60005b828290508110156110445736838383818110610c4d57610c4c6127ff565b5b9050602002810190610c5f9190612ad7565b90506000818060000190610c739190612aff565b604051610c81929190612b92565b6040518091039020905081608001358114610cd1576040517f08c379a0000000000000000000000000000000000000000000000000000000008152600401610cc890612bf7565b60405180910390fd5b6000610ce083606001356112d3565b9050600083608001358460600135858060c00190610cfe9190612c17565b8760a00135604051602001610d17959493929190612d79565b604051602081830303815290604052805190602001209050610d38816112e0565b6000610d5b610d4683611379565b866020016000013587602001602001356113a9565b90508073ffffffffffffffffffffffffffffffffffffffff163373ffffffffffffffffffffffffffffffffffffffff1614610dcb576040517f08c379a0000000000000000000000000000000000000000000000000000000008152600401610dc290612e11565b60405180910390fd5b60008083815260200190815260200160002060003373ffffffffffffffffffffffffffffffffffffffff1673ffffffffffffffffffffffffffffffffffffffff16815260200190815260200160002060009054906101000a900460ff1615610e37575050505050611031565b600160008084815260200190815260200160002060008373ffffffffffffffffffffffffffffffffffffffff1673ffffffffffffffffffffffffffffffffffffffff16815260200190815260200160002060006101000a81548160ff021916908315150217905550610ea8826113d2565b15610fac576000610ec7868060000190610ec29190612aff565b6106c3565b905060016000876060013581526020019081526020016000206000828152602001908152602001600020839080600181540180825580915050600190039060005260206000200160009091909190915055838015610f3657506000868060c00190610f329190612c17565b9050115b15610f8f57858060c00190610f4b9190612c17565b600260008681526020019081526020016000206002019190610f6e929190611bba565b508560a0013560026000858152602001908152602001600020600101819055505b846002600085815260200190815260200160002060030181905550505b6002600083815260200190815260200160002060000185602001600001358660200160200135604051602001610fe3929190612e31565b60405160208183030381529060405290806001815401808255809150506001900390600052602060002001600090919091909150908051906020019061102a929190611c5a565b5050505050505b808061103c9061285d565b915050610c2e565b505050565b60026020528060005260406000206000915090508060010154908060030154905082565b7f000000000000000000000000000000000000000000000000000000000000000081565b611099611ce0565b600060208301905060405180604001604052808451815260200182815250915050919050565b60606110ca826113f7565b6110d357600080fd5b60006110de83611445565b905060008167ffffffffffffffff8111156110fc576110fb612540565b5b60405190808252806020026020018201604052801561113557816020015b611122611ce0565b81526020019060019003908161111a5790505b509050600061114785602001516114d3565b85602001516111569190612973565b9050600080600090505b848110156111c75761117183611592565b915060405180604001604052808381526020018481525084828151811061119b5761119a6127ff565b5b602002602001018190525081836111b29190612973565b925080806111bf9061285d565b915050611160565b5082945050505050919050565b60008082600001511180156111ee57506021826000015111155b6111f757600080fd5b6000806112038461166e565b91509150600082519050602082101561122357816020036101000a810490505b809350505050919050565b60007f000000000000000000000000000000000000000000000000000000000000000073ffffffffffffffffffffffffffffffffffffffff1663facd743b836040518263ffffffff1660e01b815260040161128991906122ba565b6020604051808303816000875af11580156112a8573d6000803e3d6000fd5b505050506040513d601f19601f820116820180604052508101906112cc9190612e86565b9050919050565b6000607a82149050919050565b611376816040516024016112f491906121c3565b6040516020818303038152906040527f27b7cf85000000000000000000000000000000000000000000000000000000007bffffffffffffffffffffffffffffffffffffffffffffffffffffffff19166020820180517bffffffffffffffffffffffffffffffffffffffffffffffffffffffff83818316178352505050506116b8565b50565b60008160405160200161138c9190612f0a565b604051602081830303815290604052805190602001209050919050565b60008060006113b98686866116e1565b915091506113c681611740565b81925050509392505050565b6000806002600084815260200190815260200160002060000180549050149050919050565b6000808260000151141561140e5760009050611440565b60008083602001519050805160001a915060c060ff168260ff16101561143957600092505050611440565b6001925050505b919050565b6000808260000151141561145c57600090506114ce565b60008061146c84602001516114d3565b846020015161147b9190612973565b90506000846000015185602001516114939190612973565b90505b808210156114c7576114a782611592565b826114b29190612973565b915082806114bf9061285d565b935050611496565b8293505050505b919050565b600080825160001a9050608060ff168110156114f357600091505061158d565b60b860ff16811080611518575060c060ff168110158015611517575060f860ff1681105b5b1561152757600191505061158d565b60c060ff168110156115625760018060b86115429190612f3d565b60ff168261155091906129c9565b61155a9190612973565b91505061158d565b60018060f86115719190612f3d565b60ff168261157f91906129c9565b6115899190612973565b9150505b919050565b6000806000835160001a9050608060ff168110156115b35760019150611664565b60b860ff168110156115e2576001608060ff16826115d191906129c9565b6115db9190612973565b9150611663565b60c060ff168110156116125760b78103600185019450806020036101000a85510460018201810193505050611662565b60f860ff1681101561164157600160c060ff168261163091906129c9565b61163a9190612973565b9150611661565b60f78103600185019450806020036101000a855104600182018101935050505b5b5b5b8192505050919050565b600080600061168084602001516114d3565b905060008185602001516116949190612973565b905060008286600001516116a891906129c9565b9050818194509450505050915091565b60008151905060006a636f6e736f6c652e6c6f679050602083016000808483855afa5050505050565b60008060007f7fffffffffffffffffffffffffffffffffffffffffffffffffffffffffffffff60001b841690506000601b60ff8660001c901c6117249190612973565b905061173287828885611915565b935093505050935093915050565b6000600481111561175457611753612f71565b5b81600481111561176757611766612f71565b5b141561177257611912565b6001600481111561178657611785612f71565b5b81600481111561179957611798612f71565b5b14156117da576040517f08c379a00000000000000000000000000000000000000000000000000000000081526004016117d190612fec565b60405180910390fd5b600260048111156117ee576117ed612f71565b5b81600481111561180157611800612f71565b5b1415611842576040517f08c379a000000000000000000000000000000000000000000000000000000000815260040161183990613058565b60405180910390fd5b6003600481111561185657611855612f71565b5b81600481111561186957611868612f71565b5b14156118aa576040517f08c379a00000000000000000000000000000000000000000000000000000000081526004016118a1906130ea565b60405180910390fd5b6004808111156118bd576118bc612f71565b5b8160048111156118d0576118cf612f71565b5b1415611911576040517f08c379a00000000000000000000000000000000000000000000000000000000081526004016119089061317c565b60405180910390fd5b5b50565b6000807f7fffffffffffffffffffffffffffffff5d576e7357a4501ddfe92f46681b20a08360001c1115611950576000600391509150611a19565b601b8560ff16141580156119685750601c8560ff1614155b1561197a576000600491509150611a19565b60006001878787876040516000815260200160405260405161199f94939291906131ab565b6020604051602081039080840390855afa1580156119c1573d6000803e3d6000fd5b505050602060405103519050600073ffffffffffffffffffffffffffffffffffffffff168173ffffffffffffffffffffffffffffffffffffffff161415611a1057600060019250925050611a19565b80600092509250505b94509492505050565b6040518060800160405280606081526020016000815260200160608152602001600080191681525090565b828054611a59906128d5565b90600052602060002090601f016020900481019282611a7b5760008555611ac9565b82601f10611a8c5780548555611ac9565b82800160010185558215611ac957600052602060002091601f016020900482015b82811115611ac8578254825591600101919060010190611aad565b5b509050611ad69190611cfa565b5090565b508054611ae6906128d5565b6000825580601f10611af85750611b17565b601f016020900490600052602060002090810190611b169190611cfa565b5b50565b828054611b26906128d5565b90600052602060002090601f016020900481019282611b485760008555611b8f565b82601f10611b6157805160ff1916838001178555611b8f565b82800160010185558215611b8f579182015b82811115611b8e578251825591602001919060010190611b73565b5b509050611b9c9190611cfa565b5090565b604051806040016040528060608152602001600081525090565b828054828255906000526020600020908101928215611c49579160200282015b82811115611c4857823573ffffffffffffffffffffffffffffffffffffffff168260006101000a81548173ffffffffffffffffffffffffffffffffffffffff021916908373ffffffffffffffffffffffffffffffffffffffff16021790555091602001919060010190611bda565b5b509050611c569190611cfa565b5090565b828054611c66906128d5565b90600052602060002090601f016020900481019282611c885760008555611ccf565b82601f10611ca157805160ff1916838001178555611ccf565b82800160010185558215611ccf579182015b82811115611cce578251825591602001919060010190611cb3565b5b509050611cdc9190611cfa565b5090565b604051806040016040528060008152602001600081525090565b5b80821115611d13576000816000905550600101611cfb565b5090565b6000604051905090565b600080fd5b600080fd5b6000819050919050565b611d3e81611d2b565b8114611d4957600080fd5b50565b600081359050611d5b81611d35565b92915050565b60008060408385031215611d7857611d77611d21565b5b6000611d8685828601611d4c565b9250506020611d9785828601611d4c565b9150509250929050565b600081519050919050565b600082825260208201905092915050565b6000819050602082019050919050565b600081519050919050565b600082825260208201905092915050565b60005b83811015611e07578082015181840152602081019050611dec565b83811115611e16576000848401525b50505050565b6000601f19601f8301169050919050565b6000611e3882611dcd565b611e428185611dd8565b9350611e52818560208601611de9565b611e5b81611e1c565b840191505092915050565b6000611e728383611e2d565b905092915050565b6000602082019050919050565b6000611e9282611da1565b611e9c8185611dac565b935083602082028501611eae85611dbd565b8060005b85811015611eea5784840389528151611ecb8582611e66565b9450611ed683611e7a565b925060208a01995050600181019050611eb2565b50829750879550505050505092915050565b611f0581611d2b565b82525050565b600081519050919050565b600082825260208201905092915050565b6000819050602082019050919050565b600073ffffffffffffffffffffffffffffffffffffffff82169050919050565b6000611f6282611f37565b9050919050565b611f7281611f57565b82525050565b6000611f848383611f69565b60208301905092915050565b6000602082019050919050565b6000611fa882611f0b565b611fb28185611f16565b9350611fbd83611f27565b8060005b83811015611fee578151611fd58882611f78565b9750611fe083611f90565b925050600181019050611fc1565b5085935050505092915050565b6000819050919050565b61200e81611ffb565b82525050565b600060808301600083015184820360008601526120318282611e87565b91505060208301516120466020860182611efc565b506040830151848203604086015261205e8282611f9d565b91505060608301516120736060860182612005565b508091505092915050565b600060208201905081810360008301526120988184612014565b905092915050565b6000602082840312156120b6576120b5611d21565b5b60006120c484828501611d4c565b91505092915050565b600081519050919050565b600082825260208201905092915050565b60006120f4826120cd565b6120fe81856120d8565b935061210e818560208601611de9565b61211781611e1c565b840191505092915050565b61212b81611d2b565b82525050565b6000604082019050818103600083015261214b81856120e9565b905061215a6020830184612122565b9392505050565b60008060006060848603121561217a57612179611d21565b5b600061218886828701611d4c565b935050602061219986828701611d4c565b92505060406121aa86828701611d4c565b9150509250925092565b6121bd81611ffb565b82525050565b60006020820190506121d860008301846121b4565b92915050565b600080fd5b600080fd5b600080fd5b60008083601f840112612203576122026121de565b5b8235905067ffffffffffffffff8111156122205761221f6121e3565b5b60208301915083600182028301111561223c5761223b6121e8565b5b9250929050565b6000806020838503121561225a57612259611d21565b5b600083013567ffffffffffffffff81111561227857612277611d26565b5b612284858286016121ed565b92509250509250929050565b60006020820190506122a56000830184612122565b92915050565b6122b481611f57565b82525050565b60006020820190506122cf60008301846122ab565b92915050565b6122de81611ffb565b81146122e957600080fd5b50565b6000813590506122fb816122d5565b92915050565b60006020828403121561231757612316611d21565b5b6000612325848285016122ec565b91505092915050565b600081519050919050565b600082825260208201905092915050565b6000819050602082019050919050565b600082825260208201905092915050565b6000612376826120cd565b612380818561235a565b9350612390818560208601611de9565b61239981611e1c565b840191505092915050565b600060408301600083015184820360008601526123c1828261236b565b91505060208301516123d66020860182611efc565b508091505092915050565b60006123ed83836123a4565b905092915050565b6000602082019050919050565b600061240d8261232e565b6124178185612339565b9350836020820285016124298561234a565b8060005b85811015612465578484038952815161244685826123e1565b9450612451836123f5565b925060208a0199505060018101905061242d565b50829750879550505050505092915050565b600060208201905081810360008301526124918184612402565b905092915050565b6124a281611f57565b81146124ad57600080fd5b50565b6000813590506124bf81612499565b92915050565b600080604083850312156124dc576124db611d21565b5b60006124ea858286016122ec565b92505060206124fb858286016124b0565b9150509250929050565b60008115159050919050565b61251a81612505565b82525050565b60006020820190506125356000830184612511565b92915050565b600080fd5b7f4e487b7100000000000000000000000000000000000000000000000000000000600052604160045260246000fd5b61257882611e1c565b810181811067ffffffffffffffff8211171561259757612596612540565b5b80604052505050565b60006125aa611d17565b90506125b6828261256f565b919050565b600067ffffffffffffffff8211156125d6576125d5612540565b5b6125df82611e1c565b9050602081019050919050565b82818337600083830152505050565b600061260e612609846125bb565b6125a0565b90508281526020810184848401111561262a5761262961253b565b5b6126358482856125ec565b509392505050565b600082601f830112612652576126516121de565b5b81356126628482602086016125fb565b91505092915050565b6000806040838503121561268257612681611d21565b5b600061269085828601611d4c565b925050602083013567ffffffffffffffff8111156126b1576126b0611d26565b5b6126bd8582860161263d565b9150509250929050565b60008083601f8401126126dd576126dc6121de565b5b8235905067ffffffffffffffff8111156126fa576126f96121e3565b5b602083019150836020820283011115612716576127156121e8565b5b9250929050565b6000806020838503121561273457612733611d21565b5b600083013567ffffffffffffffff81111561275257612751611d26565b5b61275e858286016126c7565b92509250509250929050565b600060408201905061277f6000830185612122565b61278c60208301846121b4565b9392505050565b7f5f626c6f636b4861736865732e6c656e67746800000000000000000000000000600082015250565b60006127c96013836120d8565b91506127d482612793565b602082019050919050565b600060208201905081810360008301526127f8816127bc565b9050919050565b7f4e487b7100000000000000000000000000000000000000000000000000000000600052603260045260246000fd5b7f4e487b7100000000000000000000000000000000000000000000000000000000600052601160045260246000fd5b600061286882611d2b565b91507fffffffffffffffffffffffffffffffffffffffffffffffffffffffffffffffff82141561289b5761289a61282e565b5b600182019050919050565b7f4e487b7100000000000000000000000000000000000000000000000000000000600052602260045260246000fd5b600060028204905060018216806128ed57607f821691505b60208210811415612901576129006128a6565b5b50919050565b7f6f6e6c79566f74696e6700000000000000000000000000000000000000000000600082015250565b600061293d600a836120d8565b915061294882612907565b602082019050919050565b6000602082019050818103600083015261296c81612930565b9050919050565b600061297e82611d2b565b915061298983611d2b565b9250827fffffffffffffffffffffffffffffffffffffffffffffffffffffffffffffffff038211156129be576129bd61282e565b5b828201905092915050565b60006129d482611d2b565b91506129df83611d2b565b9250828210156129f2576129f161282e565b5b828203905092915050565b7f4e487b7100000000000000000000000000000000000000000000000000000000600052603160045260246000fd5b6000604082019050612a416000830185612122565b8181036020830152612a5381846120e9565b90509392505050565b7f6f6e6c7956616c696461746f7200000000000000000000000000000000000000600082015250565b6000612a92600d836120d8565b9150612a9d82612a5c565b602082019050919050565b60006020820190508181036000830152612ac181612a85565b9050919050565b600080fd5b600080fd5b600080fd5b60008235600160e003833603038112612af357612af2612ac8565b5b80830191505092915050565b60008083356001602003843603038112612b1c57612b1b612ac8565b5b80840192508235915067ffffffffffffffff821115612b3e57612b3d612acd565b5b602083019250600182023603831315612b5a57612b59612ad2565b5b509250929050565b600081905092915050565b6000612b798385612b62565b9350612b868385846125ec565b82840190509392505050565b6000612b9f828486612b6d565b91508190509392505050565b7f726c704865616465724861736800000000000000000000000000000000000000600082015250565b6000612be1600d836120d8565b9150612bec82612bab565b602082019050919050565b60006020820190508181036000830152612c1081612bd4565b9050919050565b60008083356001602003843603038112612c3457612c33612ac8565b5b80840192508235915067ffffffffffffffff821115612c5657612c55612acd565b5b602083019250602082023603831315612c7257612c71612ad2565b5b509250929050565b6000819050919050565b612c95612c9082611ffb565b612c7a565b82525050565b6000819050919050565b612cb6612cb182611d2b565b612c9b565b82525050565b600081905092915050565b6000819050919050565b612cda81611f57565b82525050565b6000612cec8383612cd1565b60208301905092915050565b6000612d0760208401846124b0565b905092915050565b6000602082019050919050565b6000612d288385612cbc565b9350612d3382612cc7565b8060005b85811015612d6c57612d498284612cf8565b612d538882612ce0565b9750612d5e83612d0f565b925050600181019050612d37565b5085925050509392505050565b6000612d858288612c84565b602082019150612d958287612ca5565b602082019150612da6828587612d1c565b9150612db28284612ca5565b6020820191508190509695505050505050565b7f6d73672e73656e646572203d3d207369676e6572000000000000000000000000600082015250565b6000612dfb6014836120d8565b9150612e0682612dc5565b602082019050919050565b60006020820190508181036000830152612e2a81612dee565b9050919050565b6000604082019050612e4660008301856121b4565b612e5360208301846121b4565b9392505050565b612e6381612505565b8114612e6e57600080fd5b50565b600081519050612e8081612e5a565b92915050565b600060208284031215612e9c57612e9b611d21565b5b6000612eaa84828501612e71565b91505092915050565b600081905092915050565b7f19457468657265756d205369676e6564204d6573736167653a0a333200000000600082015250565b6000612ef4601c83612eb3565b9150612eff82612ebe565b601c82019050919050565b6000612f1582612ee7565b9150612f218284612c84565b60208201915081905092915050565b600060ff82169050919050565b6000612f4882612f30565b9150612f5383612f30565b925082821015612f6657612f6561282e565b5b828203905092915050565b7f4e487b7100000000000000000000000000000000000000000000000000000000600052602160045260246000fd5b7f45434453413a20696e76616c6964207369676e61747572650000000000000000600082015250565b6000612fd66018836120d8565b9150612fe182612fa0565b602082019050919050565b6000602082019050818103600083015261300581612fc9565b9050919050565b7f45434453413a20696e76616c6964207369676e6174757265206c656e67746800600082015250565b6000613042601f836120d8565b915061304d8261300c565b602082019050919050565b6000602082019050818103600083015261307181613035565b9050919050565b7f45434453413a20696e76616c6964207369676e6174757265202773272076616c60008201527f7565000000000000000000000000000000000000000000000000000000000000602082015250565b60006130d46022836120d8565b91506130df82613078565b604082019050919050565b60006020820190508181036000830152613103816130c7565b9050919050565b7f45434453413a20696e76616c6964207369676e6174757265202776272076616c60008201527f7565000000000000000000000000000000000000000000000000000000000000602082015250565b60006131666022836120d8565b91506131718261310a565b604082019050919050565b6000602082019050818103600083015261319581613159565b9050919050565b6131a581612f30565b82525050565b60006080820190506131c060008301876121b4565b6131cd602083018661319c565b6131da60408301856121b4565b6131e760608301846121b4565b9594505050505056fea2646970667358221220807af85639b05f6fc3371de0c79d8089b1fd5274c895bec85fb7df60bbcd297c64736f6c634300080a0033",
  "linkReferences": {},
  "deployedLinkReferences": {}
}