{
  "_format": "hh-sol-artifact-1",
  "contractName": "BlockHeaderRegistry",
  "sourceName": "contracts/blockRegistry/BlockHeaderRegistry.sol",
  "abi": [
    {
      "inputs": [
        {
          "internalType": "address",
          "name": "_voting",
          "type": "address"
        },
        {
          "internalType": "address",
          "name": "_consensus",
          "type": "address"
        }
      ],
      "stateMutability": "nonpayable",
      "type": "constructor"
    },
    {
      "anonymous": false,
      "inputs": [
        {
          "indexed": true,
          "internalType": "address",
          "name": "validator",
          "type": "address"
        },
        {
          "indexed": true,
          "internalType": "uint256",
          "name": "chainId",
          "type": "uint256"
        },
        {
          "indexed": true,
          "internalType": "bytes32",
          "name": "rlpHeaderHash",
          "type": "bytes32"
        },
        {
          "indexed": false,
          "internalType": "address[]",
          "name": "validators",
          "type": "address[]"
        },
        {
          "indexed": false,
          "internalType": "uint256",
          "name": "cycleEnd",
          "type": "uint256"
        }
      ],
      "name": "BlockAdded",
      "type": "event"
    },
    {
      "anonymous": false,
      "inputs": [
        {
          "indexed": false,
          "internalType": "uint256",
          "name": "chainId",
          "type": "uint256"
        },
        {
          "indexed": false,
          "internalType": "string",
          "name": "rpc",
          "type": "string"
        }
      ],
      "name": "BlockchainAdded",
      "type": "event"
    },
    {
      "anonymous": false,
      "inputs": [
        {
          "indexed": false,
          "internalType": "uint256",
          "name": "chainId",
          "type": "uint256"
        }
      ],
      "name": "BlockchainRemoved",
      "type": "event"
    },
    {
      "inputs": [
        {
          "internalType": "uint256",
          "name": "chainId",
          "type": "uint256"
        },
        {
          "internalType": "string",
          "name": "rpc",
          "type": "string"
        }
      ],
      "name": "addBlockchain",
      "outputs": [],
      "stateMutability": "nonpayable",
      "type": "function"
    },
    {
      "inputs": [
        {
          "components": [
            {
              "internalType": "bytes",
              "name": "rlpHeader",
              "type": "bytes"
            },
            {
              "components": [
                {
                  "internalType": "bytes32",
                  "name": "r",
                  "type": "bytes32"
                },
                {
                  "internalType": "bytes32",
                  "name": "vs",
                  "type": "bytes32"
                }
              ],
              "internalType": "struct BlockHeaderRegistry.Signature",
              "name": "signature",
              "type": "tuple"
            },
            {
              "internalType": "uint256",
              "name": "chainId",
              "type": "uint256"
            },
            {
              "internalType": "bytes32",
              "name": "blockHash",
              "type": "bytes32"
            },
            {
              "internalType": "uint256",
              "name": "cycleEnd",
              "type": "uint256"
            },
            {
              "internalType": "address[]",
              "name": "validators",
              "type": "address[]"
            }
          ],
          "internalType": "struct BlockHeaderRegistry.Block[]",
          "name": "blocks",
          "type": "tuple[]"
        }
      ],
      "name": "addSignedBlocks",
      "outputs": [],
      "stateMutability": "nonpayable",
      "type": "function"
    },
    {
      "inputs": [
        {
          "internalType": "uint256",
          "name": "",
          "type": "uint256"
        },
        {
          "internalType": "uint256",
          "name": "",
          "type": "uint256"
        },
        {
          "internalType": "uint256",
          "name": "",
          "type": "uint256"
        }
      ],
      "name": "blockHashes",
      "outputs": [
        {
          "internalType": "bytes32",
          "name": "",
          "type": "bytes32"
        }
      ],
      "stateMutability": "view",
      "type": "function"
    },
    {
      "inputs": [],
      "name": "consensus",
      "outputs": [
        {
          "internalType": "address",
          "name": "",
          "type": "address"
        }
      ],
      "stateMutability": "view",
      "type": "function"
    },
    {
      "inputs": [
        {
          "internalType": "uint256",
          "name": "",
          "type": "uint256"
        }
      ],
      "name": "enabledBlockchains",
      "outputs": [
        {
          "internalType": "string",
          "name": "rpc",
          "type": "string"
        },
        {
          "internalType": "uint256",
          "name": "chainId",
          "type": "uint256"
        }
      ],
      "stateMutability": "view",
      "type": "function"
    },
    {
      "inputs": [
        {
          "internalType": "bytes32",
          "name": "payloadHash",
          "type": "bytes32"
        }
      ],
      "name": "getBlockHashByPayloadHash",
      "outputs": [
        {
          "internalType": "bytes32",
          "name": "blockHash",
          "type": "bytes32"
        }
      ],
      "stateMutability": "view",
      "type": "function"
    },
    {
      "inputs": [],
      "name": "getRPCs",
      "outputs": [
        {
          "components": [
            {
              "internalType": "string",
              "name": "rpc",
              "type": "string"
            },
            {
              "internalType": "uint256",
              "name": "chainId",
              "type": "uint256"
            }
          ],
          "internalType": "struct BlockHeaderRegistry.Blockchain[]",
          "name": "",
          "type": "tuple[]"
        }
      ],
      "stateMutability": "view",
      "type": "function"
    },
    {
      "inputs": [
        {
          "internalType": "uint256",
          "name": "chainId",
          "type": "uint256"
        },
        {
          "internalType": "uint256",
          "name": "number",
          "type": "uint256"
        }
      ],
      "name": "getSignedBlock",
      "outputs": [
        {
          "components": [
            {
              "internalType": "bytes[]",
              "name": "signatures",
              "type": "bytes[]"
            },
            {
              "internalType": "uint256",
              "name": "cycleEnd",
              "type": "uint256"
            },
            {
              "internalType": "address[]",
              "name": "validators",
              "type": "address[]"
            },
            {
              "internalType": "bytes32",
              "name": "blockHash",
              "type": "bytes32"
            }
          ],
          "internalType": "struct BlockHeaderRegistry.SignedBlock",
          "name": "signedBlock",
          "type": "tuple"
        }
      ],
      "stateMutability": "view",
      "type": "function"
    },
    {
      "inputs": [
        {
          "internalType": "bytes32",
          "name": "",
          "type": "bytes32"
        },
        {
          "internalType": "address",
          "name": "",
          "type": "address"
        }
      ],
      "name": "hasValidatorSigned",
      "outputs": [
        {
          "internalType": "bool",
          "name": "",
          "type": "bool"
        }
      ],
      "stateMutability": "view",
      "type": "function"
    },
    {
      "inputs": [
        {
          "internalType": "bytes",
          "name": "rlpHeader",
          "type": "bytes"
        }
      ],
      "name": "parseRLPBlockNumber",
      "outputs": [
        {
          "internalType": "uint256",
          "name": "blockNumber",
          "type": "uint256"
        }
      ],
      "stateMutability": "pure",
      "type": "function"
    },
    {
      "inputs": [
        {
          "internalType": "bytes32",
          "name": "",
          "type": "bytes32"
        }
      ],
      "name": "signedBlocks",
      "outputs": [
        {
          "internalType": "uint256",
          "name": "cycleEnd",
          "type": "uint256"
        },
        {
          "internalType": "bytes32",
          "name": "blockHash",
          "type": "bytes32"
        }
      ],
      "stateMutability": "view",
      "type": "function"
    },
    {
      "inputs": [],
      "name": "voting",
      "outputs": [
        {
          "internalType": "address",
          "name": "",
          "type": "address"
        }
      ],
      "stateMutability": "view",
      "type": "function"
    }
  ],
  "bytecode": "0x60c06040523480156200001157600080fd5b50604051620033f1380380620033f1833981810160405281019062000037919062000111565b8173ffffffffffffffffffffffffffffffffffffffff1660808173ffffffffffffffffffffffffffffffffffffffff16815250508073ffffffffffffffffffffffffffffffffffffffff1660a08173ffffffffffffffffffffffffffffffffffffffff1681525050505062000158565b600080fd5b600073ffffffffffffffffffffffffffffffffffffffff82169050919050565b6000620000d982620000ac565b9050919050565b620000eb81620000cc565b8114620000f757600080fd5b50565b6000815190506200010b81620000e0565b92915050565b600080604083850312156200012b576200012a620000a7565b5b60006200013b85828601620000fa565b92505060206200014e85828601620000fa565b9150509250929050565b60805160a0516132656200018c6000396000818161074c01526112930152600081816108ba01526110d001526132656000f3fe608060405234801561001057600080fd5b50600436106100b45760003560e01c8063d892369111610071578063d8923691146101c8578063db20f3b5146101e6578063dc20fa8914610216578063ed8eeee314610232578063f105a7621461024e578063fce1ccca1461027f576100b4565b8063063d5669146100b957806352c634ec146100e9578063631df4e41461011a5780638c7b80551461014a5780638ef3f7611461017a578063c6be980c14610198575b600080fd5b6100d360048036038101906100ce9190611d00565b61029d565b6040516100e0919061201d565b60405180910390f35b61010360048036038101906100fe919061203f565b6105c9565b6040516101119291906120d0565b60405180910390f35b610134600480360381019061012f9190612100565b610685565b6040516101419190612162565b60405180910390f35b610164600480360381019061015f91906121e2565b6106c3565b604051610171919061222f565b60405180910390f35b61018261074a565b60405161018f9190612259565b60405180910390f35b6101b260048036038101906101ad91906122a0565b61076e565b6040516101bf9190612162565b60405180910390f35b6101d061078e565b6040516101dd9190612416565b60405180910390f35b61020060048036038101906101fb9190612464565b610889565b60405161020d91906124bf565b60405180910390f35b610230600480360381019061022b919061260a565b6108b8565b005b61024c600480360381019061024791906126bc565b610be3565b005b610268600480360381019061026391906122a0565b6110aa565b604051610276929190612709565b60405180910390f35b6102876110ce565b6040516102949190612259565b60405180910390f35b6102a56119c1565b600060016000858152602001908152602001600020600084815260200190815260200160002080548060200260200160405190810160405280929190818152602001828054801561031557602002820191906000526020600020905b815481526020019060010190808311610301575b50505050509050600081511415610361576040517f08c379a00000000000000000000000000000000000000000000000000000000081526004016103589061277e565b60405180910390fd5b6000816000815181106103775761037661279e565b5b602002602001015190506000600260008381526020019081526020016000206000018054905090506000600190505b8351811015610424576000600260008684815181106103c8576103c761279e565b5b6020026020010151815260200190815260200160002060000180549050905082811115610410578092508482815181106104055761040461279e565b5b602002602001015193505b50808061041c906127fc565b9150506103a6565b506002600083815260200190815260200160002060405180608001604052908160008201805480602002602001604051908101604052809291908181526020016000905b8282101561051457838290600052602060002001805461048790612874565b80601f01602080910402602001604051908101604052809291908181526020018280546104b390612874565b80156105005780601f106104d557610100808354040283529160200191610500565b820191906000526020600020905b8154815290600101906020018083116104e357829003601f168201915b505050505081526020019060010190610468565b50505050815260200160018201548152602001600282018054806020026020016040519081016040528092919081815260200182805480156105ab57602002820191906000526020600020905b8160009054906101000a900473ffffffffffffffffffffffffffffffffffffffff1673ffffffffffffffffffffffffffffffffffffffff1681526020019060010190808311610561575b50505050508152602001600382015481525050935050505092915050565b600381815481106105d957600080fd5b90600052602060002090600202016000915090508060000180546105fc90612874565b80601f016020809104026020016040519081016040528092919081815260200182805461062890612874565b80156106755780601f1061064a57610100808354040283529160200191610675565b820191906000526020600020905b81548152906001019060200180831161065857829003601f168201915b5050505050908060010154905082565b600160205282600052604060002060205281600052604060002081815481106106ad57600080fd5b9060005260206000200160009250925050505481565b60008061071b61071685858080601f016020809104026020016040519081016040528093929190818152602001838380828437600081840152601f19601f820116905080830192505050505050506110f2565b611120565b9050610741816008815181106107345761073361279e565b5b6020026020010151611235565b91505092915050565b7f000000000000000000000000000000000000000000000000000000000000000081565b600060026000838152602001908152602001600020600301549050919050565b60606003805480602002602001604051908101604052809291908181526020016000905b8282101561088057838290600052602060002090600202016040518060400160405290816000820180546107e590612874565b80601f016020809104026020016040519081016040528092919081815260200182805461081190612874565b801561085e5780601f106108335761010080835404028352916020019161085e565b820191906000526020600020905b81548152906001019060200180831161084157829003601f168201915b50505050508152602001600182015481525050815260200190600101906107b2565b50505050905090565b60006020528160005260406000206020528060005260406000206000915091509054906101000a900460ff1681565b7f000000000000000000000000000000000000000000000000000000000000000073ffffffffffffffffffffffffffffffffffffffff163373ffffffffffffffffffffffffffffffffffffffff1614610946576040517f08c379a000000000000000000000000000000000000000000000000000000000815260040161093d906128f2565b60405180910390fd5b6000600380549050905060005b81811015610b325783600382815481106109705761096f61279e565b5b9060005260206000209060020201600101541415610b1f57600083511415610aa557816001826109a09190612912565b1015610a245760036001836109b59190612968565b815481106109c6576109c561279e565b5b9060005260206000209060020201600382815481106109e8576109e761279e565b5b90600052602060002090600202016000820181600001908054610a0a90612874565b610a159291906119ec565b50600182015481600101559050505b6003805480610a3657610a3561299c565b5b600190038181906000526020600020906002020160008082016000610a5b9190611a79565b6001820160009055505090557f62509941575b6cd38681c5cb9b9f2e5db7f1f95db671e972ff3bbb05a49875ee84604051610a96919061222f565b60405180910390a15050610bdf565b8260038281548110610aba57610ab961279e565b5b90600052602060002090600202016000019080519060200190610ade929190611ab9565b507ff3300e667302dba8542aa32316477d74cb3620e37163bcb4a19d9ce0049d1d9c8484604051610b109291906129cb565b60405180910390a15050610bdf565b8080610b2a906127fc565b915050610953565b50610b3b611b3f565b8381602001818152505082816000018190525060038190806001815401808255809150506001900390600052602060002090600202016000909190919091506000820151816000019080519060200190610b96929190611ab9565b506020820151816001015550507ff3300e667302dba8542aa32316477d74cb3620e37163bcb4a19d9ce0049d1d9c8484604051610bd49291906129cb565b60405180910390a150505b5050565b610bec3361128f565b610c2b576040517f08c379a0000000000000000000000000000000000000000000000000000000008152600401610c2290612a47565b60405180910390fd5b60005b828290508110156110a55736838383818110610c4d57610c4c61279e565b5b9050602002810190610c5f9190612a76565b90506000818060000190610c739190612a9e565b604051610c81929190612b31565b6040518091039020905081608001358114610cd1576040517f08c379a0000000000000000000000000000000000000000000000000000000008152600401610cc890612b96565b60405180910390fd5b6000610ce08360600135611334565b9050600083608001358460600135858060c00190610cfe9190612bb6565b8760a00135604051602001610d17959493929190612d18565b6040516020818303038152906040528051906020012090506000610d52610d3d83611341565b86602001600001358760200160200135611371565b90508073ffffffffffffffffffffffffffffffffffffffff163373ffffffffffffffffffffffffffffffffffffffff1614610dc2576040517f08c379a0000000000000000000000000000000000000000000000000000000008152600401610db990612db0565b60405180910390fd5b60008083815260200190815260200160002060003373ffffffffffffffffffffffffffffffffffffffff1673ffffffffffffffffffffffffffffffffffffffff16815260200190815260200160002060009054906101000a900460ff1615610e2e575050505050611092565b600160008084815260200190815260200160002060008373ffffffffffffffffffffffffffffffffffffffff1673ffffffffffffffffffffffffffffffffffffffff16815260200190815260200160002060006101000a81548160ff021916908315150217905550610e9f8261139a565b15610fa3576000610ebe868060000190610eb99190612a9e565b6106c3565b905060016000876060013581526020019081526020016000206000828152602001908152602001600020839080600181540180825580915050600190039060005260206000200160009091909190915055838015610f2d57506000868060c00190610f299190612bb6565b9050115b15610f8657858060c00190610f429190612bb6565b600260008681526020019081526020016000206002019190610f65929190611b59565b508560a0013560026000858152602001908152602001600020600101819055505b846002600085815260200190815260200160002060030181905550505b6002600083815260200190815260200160002060000185602001600001358660200160200135604051602001610fda929190612dd0565b604051602081830303815290604052908060018154018082558091505060019003906000526020600020016000909190919091509080519060200190611021929190611bf9565b508385606001353373ffffffffffffffffffffffffffffffffffffffff167f146d2e664a83ed952c329392861603e9cb54d5f7d8fa29dbbea4a65048c7cde0888060c001906110709190612bb6565b8a60a0013560405161108493929190612e67565b60405180910390a450505050505b808061109d906127fc565b915050610c2e565b505050565b60026020528060005260406000206000915090508060010154908060030154905082565b7f000000000000000000000000000000000000000000000000000000000000000081565b6110fa611c7f565b600060208301905060405180604001604052808451815260200182815250915050919050565b606061112b826113bf565b61113457600080fd5b600061113f8361140d565b905060008167ffffffffffffffff81111561115d5761115c6124df565b5b60405190808252806020026020018201604052801561119657816020015b611183611c7f565b81526020019060019003908161117b5790505b50905060006111a8856020015161149b565b85602001516111b79190612912565b9050600080600090505b84811015611228576111d28361155a565b91506040518060400160405280838152602001848152508482815181106111fc576111fb61279e565b5b602002602001018190525081836112139190612912565b92508080611220906127fc565b9150506111c1565b5082945050505050919050565b600080826000015111801561124f57506021826000015111155b61125857600080fd5b60008061126484611636565b91509150600082519050602082101561128457816020036101000a810490505b809350505050919050565b60007f000000000000000000000000000000000000000000000000000000000000000073ffffffffffffffffffffffffffffffffffffffff1663facd743b836040518263ffffffff1660e01b81526004016112ea9190612259565b6020604051808303816000875af1158015611309573d6000803e3d6000fd5b505050506040513d601f19601f8201168201806040525081019061132d9190612ec5565b9050919050565b6000607a82149050919050565b6000816040516020016113549190612f49565b604051602081830303815290604052805190602001209050919050565b6000806000611381868686611680565b9150915061138e816116df565b81925050509392505050565b6000806002600084815260200190815260200160002060000180549050149050919050565b600080826000015114156113d65760009050611408565b60008083602001519050805160001a915060c060ff168260ff16101561140157600092505050611408565b6001925050505b919050565b600080826000015114156114245760009050611496565b600080611434846020015161149b565b84602001516114439190612912565b905060008460000151856020015161145b9190612912565b90505b8082101561148f5761146f8261155a565b8261147a9190612912565b91508280611487906127fc565b93505061145e565b8293505050505b919050565b600080825160001a9050608060ff168110156114bb576000915050611555565b60b860ff168110806114e0575060c060ff1681101580156114df575060f860ff1681105b5b156114ef576001915050611555565b60c060ff1681101561152a5760018060b861150a9190612f7c565b60ff16826115189190612968565b6115229190612912565b915050611555565b60018060f86115399190612f7c565b60ff16826115479190612968565b6115519190612912565b9150505b919050565b6000806000835160001a9050608060ff1681101561157b576001915061162c565b60b860ff168110156115aa576001608060ff16826115999190612968565b6115a39190612912565b915061162b565b60c060ff168110156115da5760b78103600185019450806020036101000a8551046001820181019350505061162a565b60f860ff1681101561160957600160c060ff16826115f89190612968565b6116029190612912565b9150611629565b60f78103600185019450806020036101000a855104600182018101935050505b5b5b5b8192505050919050565b6000806000611648846020015161149b565b9050600081856020015161165c9190612912565b905060008286600001516116709190612968565b9050818194509450505050915091565b60008060007f7fffffffffffffffffffffffffffffffffffffffffffffffffffffffffffffff60001b841690506000601b60ff8660001c901c6116c39190612912565b90506116d1878288856118b4565b935093505050935093915050565b600060048111156116f3576116f2612fb0565b5b81600481111561170657611705612fb0565b5b1415611711576118b1565b6001600481111561172557611724612fb0565b5b81600481111561173857611737612fb0565b5b1415611779576040517f08c379a00000000000000000000000000000000000000000000000000000000081526004016117709061302b565b60405180910390fd5b6002600481111561178d5761178c612fb0565b5b8160048111156117a05761179f612fb0565b5b14156117e1576040517f08c379a00000000000000000000000000000000000000000000000000000000081526004016117d890613097565b60405180910390fd5b600360048111156117f5576117f4612fb0565b5b81600481111561180857611807612fb0565b5b1415611849576040517f08c379a000000000000000000000000000000000000000000000000000000000815260040161184090613129565b60405180910390fd5b60048081111561185c5761185b612fb0565b5b81600481111561186f5761186e612fb0565b5b14156118b0576040517f08c379a00000000000000000000000000000000000000000000000000000000081526004016118a7906131bb565b60405180910390fd5b5b50565b6000807f7fffffffffffffffffffffffffffffff5d576e7357a4501ddfe92f46681b20a08360001c11156118ef5760006003915091506119b8565b601b8560ff16141580156119075750601c8560ff1614155b156119195760006004915091506119b8565b60006001878787876040516000815260200160405260405161193e94939291906131ea565b6020604051602081039080840390855afa158015611960573d6000803e3d6000fd5b505050602060405103519050600073ffffffffffffffffffffffffffffffffffffffff168173ffffffffffffffffffffffffffffffffffffffff1614156119af576000600192509250506119b8565b80600092509250505b94509492505050565b6040518060800160405280606081526020016000815260200160608152602001600080191681525090565b8280546119f890612874565b90600052602060002090601f016020900481019282611a1a5760008555611a68565b82601f10611a2b5780548555611a68565b82800160010185558215611a6857600052602060002091601f016020900482015b82811115611a67578254825591600101919060010190611a4c565b5b509050611a759190611c99565b5090565b508054611a8590612874565b6000825580601f10611a975750611ab6565b601f016020900490600052602060002090810190611ab59190611c99565b5b50565b828054611ac590612874565b90600052602060002090601f016020900481019282611ae75760008555611b2e565b82601f10611b0057805160ff1916838001178555611b2e565b82800160010185558215611b2e579182015b82811115611b2d578251825591602001919060010190611b12565b5b509050611b3b9190611c99565b5090565b604051806040016040528060608152602001600081525090565b828054828255906000526020600020908101928215611be8579160200282015b82811115611be757823573ffffffffffffffffffffffffffffffffffffffff168260006101000a81548173ffffffffffffffffffffffffffffffffffffffff021916908373ffffffffffffffffffffffffffffffffffffffff16021790555091602001919060010190611b79565b5b509050611bf59190611c99565b5090565b828054611c0590612874565b90600052602060002090601f016020900481019282611c275760008555611c6e565b82601f10611c4057805160ff1916838001178555611c6e565b82800160010185558215611c6e579182015b82811115611c6d578251825591602001919060010190611c52565b5b509050611c7b9190611c99565b5090565b604051806040016040528060008152602001600081525090565b5b80821115611cb2576000816000905550600101611c9a565b5090565b6000604051905090565b600080fd5b600080fd5b6000819050919050565b611cdd81611cca565b8114611ce857600080fd5b50565b600081359050611cfa81611cd4565b92915050565b60008060408385031215611d1757611d16611cc0565b5b6000611d2585828601611ceb565b9250506020611d3685828601611ceb565b9150509250929050565b600081519050919050565b600082825260208201905092915050565b6000819050602082019050919050565b600081519050919050565b600082825260208201905092915050565b60005b83811015611da6578082015181840152602081019050611d8b565b83811115611db5576000848401525b50505050565b6000601f19601f8301169050919050565b6000611dd782611d6c565b611de18185611d77565b9350611df1818560208601611d88565b611dfa81611dbb565b840191505092915050565b6000611e118383611dcc565b905092915050565b6000602082019050919050565b6000611e3182611d40565b611e3b8185611d4b565b935083602082028501611e4d85611d5c565b8060005b85811015611e895784840389528151611e6a8582611e05565b9450611e7583611e19565b925060208a01995050600181019050611e51565b50829750879550505050505092915050565b611ea481611cca565b82525050565b600081519050919050565b600082825260208201905092915050565b6000819050602082019050919050565b600073ffffffffffffffffffffffffffffffffffffffff82169050919050565b6000611f0182611ed6565b9050919050565b611f1181611ef6565b82525050565b6000611f238383611f08565b60208301905092915050565b6000602082019050919050565b6000611f4782611eaa565b611f518185611eb5565b9350611f5c83611ec6565b8060005b83811015611f8d578151611f748882611f17565b9750611f7f83611f2f565b925050600181019050611f60565b5085935050505092915050565b6000819050919050565b611fad81611f9a565b82525050565b60006080830160008301518482036000860152611fd08282611e26565b9150506020830151611fe56020860182611e9b565b5060408301518482036040860152611ffd8282611f3c565b91505060608301516120126060860182611fa4565b508091505092915050565b600060208201905081810360008301526120378184611fb3565b905092915050565b60006020828403121561205557612054611cc0565b5b600061206384828501611ceb565b91505092915050565b600081519050919050565b600082825260208201905092915050565b60006120938261206c565b61209d8185612077565b93506120ad818560208601611d88565b6120b681611dbb565b840191505092915050565b6120ca81611cca565b82525050565b600060408201905081810360008301526120ea8185612088565b90506120f960208301846120c1565b9392505050565b60008060006060848603121561211957612118611cc0565b5b600061212786828701611ceb565b935050602061213886828701611ceb565b925050604061214986828701611ceb565b9150509250925092565b61215c81611f9a565b82525050565b60006020820190506121776000830184612153565b92915050565b600080fd5b600080fd5b600080fd5b60008083601f8401126121a2576121a161217d565b5b8235905067ffffffffffffffff8111156121bf576121be612182565b5b6020830191508360018202830111156121db576121da612187565b5b9250929050565b600080602083850312156121f9576121f8611cc0565b5b600083013567ffffffffffffffff81111561221757612216611cc5565b5b6122238582860161218c565b92509250509250929050565b600060208201905061224460008301846120c1565b92915050565b61225381611ef6565b82525050565b600060208201905061226e600083018461224a565b92915050565b61227d81611f9a565b811461228857600080fd5b50565b60008135905061229a81612274565b92915050565b6000602082840312156122b6576122b5611cc0565b5b60006122c48482850161228b565b91505092915050565b600081519050919050565b600082825260208201905092915050565b6000819050602082019050919050565b600082825260208201905092915050565b60006123158261206c565b61231f81856122f9565b935061232f818560208601611d88565b61233881611dbb565b840191505092915050565b60006040830160008301518482036000860152612360828261230a565b91505060208301516123756020860182611e9b565b508091505092915050565b600061238c8383612343565b905092915050565b6000602082019050919050565b60006123ac826122cd565b6123b681856122d8565b9350836020820285016123c8856122e9565b8060005b8581101561240457848403895281516123e58582612380565b94506123f083612394565b925060208a019950506001810190506123cc565b50829750879550505050505092915050565b6000602082019050818103600083015261243081846123a1565b905092915050565b61244181611ef6565b811461244c57600080fd5b50565b60008135905061245e81612438565b92915050565b6000806040838503121561247b5761247a611cc0565b5b60006124898582860161228b565b925050602061249a8582860161244f565b9150509250929050565b60008115159050919050565b6124b9816124a4565b82525050565b60006020820190506124d460008301846124b0565b92915050565b600080fd5b7f4e487b7100000000000000000000000000000000000000000000000000000000600052604160045260246000fd5b61251782611dbb565b810181811067ffffffffffffffff82111715612536576125356124df565b5b80604052505050565b6000612549611cb6565b9050612555828261250e565b919050565b600067ffffffffffffffff821115612575576125746124df565b5b61257e82611dbb565b9050602081019050919050565b82818337600083830152505050565b60006125ad6125a88461255a565b61253f565b9050828152602081018484840111156125c9576125c86124da565b5b6125d484828561258b565b509392505050565b600082601f8301126125f1576125f061217d565b5b813561260184826020860161259a565b91505092915050565b6000806040838503121561262157612620611cc0565b5b600061262f85828601611ceb565b925050602083013567ffffffffffffffff8111156126505761264f611cc5565b5b61265c858286016125dc565b9150509250929050565b60008083601f84011261267c5761267b61217d565b5b8235905067ffffffffffffffff81111561269957612698612182565b5b6020830191508360208202830111156126b5576126b4612187565b5b9250929050565b600080602083850312156126d3576126d2611cc0565b5b600083013567ffffffffffffffff8111156126f1576126f0611cc5565b5b6126fd85828601612666565b92509250509250929050565b600060408201905061271e60008301856120c1565b61272b6020830184612153565b9392505050565b7f5f626c6f636b4861736865732e6c656e67746800000000000000000000000000600082015250565b6000612768601383612077565b915061277382612732565b602082019050919050565b600060208201905081810360008301526127978161275b565b9050919050565b7f4e487b7100000000000000000000000000000000000000000000000000000000600052603260045260246000fd5b7f4e487b7100000000000000000000000000000000000000000000000000000000600052601160045260246000fd5b600061280782611cca565b91507fffffffffffffffffffffffffffffffffffffffffffffffffffffffffffffffff82141561283a576128396127cd565b5b600182019050919050565b7f4e487b7100000000000000000000000000000000000000000000000000000000600052602260045260246000fd5b6000600282049050600182168061288c57607f821691505b602082108114156128a05761289f612845565b5b50919050565b7f6f6e6c79566f74696e6700000000000000000000000000000000000000000000600082015250565b60006128dc600a83612077565b91506128e7826128a6565b602082019050919050565b6000602082019050818103600083015261290b816128cf565b9050919050565b600061291d82611cca565b915061292883611cca565b9250827fffffffffffffffffffffffffffffffffffffffffffffffffffffffffffffffff0382111561295d5761295c6127cd565b5b828201905092915050565b600061297382611cca565b915061297e83611cca565b925082821015612991576129906127cd565b5b828203905092915050565b7f4e487b7100000000000000000000000000000000000000000000000000000000600052603160045260246000fd5b60006040820190506129e060008301856120c1565b81810360208301526129f28184612088565b90509392505050565b7f6f6e6c7956616c696461746f7200000000000000000000000000000000000000600082015250565b6000612a31600d83612077565b9150612a3c826129fb565b602082019050919050565b60006020820190508181036000830152612a6081612a24565b9050919050565b600080fd5b600080fd5b600080fd5b60008235600160e003833603038112612a9257612a91612a67565b5b80830191505092915050565b60008083356001602003843603038112612abb57612aba612a67565b5b80840192508235915067ffffffffffffffff821115612add57612adc612a6c565b5b602083019250600182023603831315612af957612af8612a71565b5b509250929050565b600081905092915050565b6000612b188385612b01565b9350612b2583858461258b565b82840190509392505050565b6000612b3e828486612b0c565b91508190509392505050565b7f726c704865616465724861736800000000000000000000000000000000000000600082015250565b6000612b80600d83612077565b9150612b8b82612b4a565b602082019050919050565b60006020820190508181036000830152612baf81612b73565b9050919050565b60008083356001602003843603038112612bd357612bd2612a67565b5b80840192508235915067ffffffffffffffff821115612bf557612bf4612a6c565b5b602083019250602082023603831315612c1157612c10612a71565b5b509250929050565b6000819050919050565b612c34612c2f82611f9a565b612c19565b82525050565b6000819050919050565b612c55612c5082611cca565b612c3a565b82525050565b600081905092915050565b6000819050919050565b612c7981611ef6565b82525050565b6000612c8b8383612c70565b60208301905092915050565b6000612ca6602084018461244f565b905092915050565b6000602082019050919050565b6000612cc78385612c5b565b9350612cd282612c66565b8060005b85811015612d0b57612ce88284612c97565b612cf28882612c7f565b9750612cfd83612cae565b925050600181019050612cd6565b5085925050509392505050565b6000612d248288612c23565b602082019150612d348287612c44565b602082019150612d45828587612cbb565b9150612d518284612c44565b6020820191508190509695505050505050565b7f6d73672e73656e646572203d3d207369676e6572000000000000000000000000600082015250565b6000612d9a601483612077565b9150612da582612d64565b602082019050919050565b60006020820190508181036000830152612dc981612d8d565b9050919050565b6000604082019050612de56000830185612153565b612df26020830184612153565b9392505050565b600082825260208201905092915050565b6000612e168385612df9565b9350612e2182612c66565b8060005b85811015612e5a57612e378284612c97565b612e418882611f17565b9750612e4c83612cae565b925050600181019050612e25565b5085925050509392505050565b60006040820190508181036000830152612e82818587612e0a565b9050612e9160208301846120c1565b949350505050565b612ea2816124a4565b8114612ead57600080fd5b50565b600081519050612ebf81612e99565b92915050565b600060208284031215612edb57612eda611cc0565b5b6000612ee984828501612eb0565b91505092915050565b600081905092915050565b7f19457468657265756d205369676e6564204d6573736167653a0a333200000000600082015250565b6000612f33601c83612ef2565b9150612f3e82612efd565b601c82019050919050565b6000612f5482612f26565b9150612f608284612c23565b60208201915081905092915050565b600060ff82169050919050565b6000612f8782612f6f565b9150612f9283612f6f565b925082821015612fa557612fa46127cd565b5b828203905092915050565b7f4e487b7100000000000000000000000000000000000000000000000000000000600052602160045260246000fd5b7f45434453413a20696e76616c6964207369676e61747572650000000000000000600082015250565b6000613015601883612077565b915061302082612fdf565b602082019050919050565b6000602082019050818103600083015261304481613008565b9050919050565b7f45434453413a20696e76616c6964207369676e6174757265206c656e67746800600082015250565b6000613081601f83612077565b915061308c8261304b565b602082019050919050565b600060208201905081810360008301526130b081613074565b9050919050565b7f45434453413a20696e76616c6964207369676e6174757265202773272076616c60008201527f7565000000000000000000000000000000000000000000000000000000000000602082015250565b6000613113602283612077565b915061311e826130b7565b604082019050919050565b6000602082019050818103600083015261314281613106565b9050919050565b7f45434453413a20696e76616c6964207369676e6174757265202776272076616c60008201527f7565000000000000000000000000000000000000000000000000000000000000602082015250565b60006131a5602283612077565b91506131b082613149565b604082019050919050565b600060208201905081810360008301526131d481613198565b9050919050565b6131e481612f6f565b82525050565b60006080820190506131ff6000830187612153565b61320c60208301866131db565b6132196040830185612153565b6132266060830184612153565b9594505050505056fea2646970667358221220b5d551f756b45f3cf58109fb4943699d12932debc4df3dcc8f9a6c86df056ff764736f6c634300080a0033",
  "linkReferences": {},
  "deployedLinkReferences": {}
}