{
  "_format": "hh-sol-artifact-1",
  "contractName": "BlockHeaderRegistry",
  "sourceName": "contracts/blockRegistry/BlockHeaderRegistry.sol",
  "abi": [
    {
      "anonymous": false,
      "inputs": [
        {
          "indexed": false,
          "internalType": "address",
          "name": "previousAdmin",
          "type": "address"
        },
        {
          "indexed": false,
          "internalType": "address",
          "name": "newAdmin",
          "type": "address"
        }
      ],
      "name": "AdminChanged",
      "type": "event"
    },
    {
      "anonymous": false,
      "inputs": [
        {
          "indexed": true,
          "internalType": "address",
          "name": "beacon",
          "type": "address"
        }
      ],
      "name": "BeaconUpgraded",
      "type": "event"
    },
    {
      "anonymous": false,
      "inputs": [
        {
          "indexed": true,
          "internalType": "address",
          "name": "validator",
          "type": "address"
        },
        {
          "indexed": true,
          "internalType": "uint256",
          "name": "chainId",
          "type": "uint256"
        },
        {
          "indexed": true,
          "internalType": "uint256",
          "name": "blockNumber",
          "type": "uint256"
        },
        {
          "indexed": false,
          "internalType": "bytes32",
          "name": "payload",
          "type": "bytes32"
        },
        {
          "indexed": false,
          "internalType": "address[]",
          "name": "validators",
          "type": "address[]"
        },
        {
          "indexed": false,
          "internalType": "uint256",
          "name": "cycleEnd",
          "type": "uint256"
        },
        {
          "indexed": false,
          "internalType": "bytes",
          "name": "signature",
          "type": "bytes"
        }
      ],
      "name": "BlockAdded",
      "type": "event"
    },
    {
      "anonymous": false,
      "inputs": [
        {
          "indexed": false,
          "internalType": "uint256",
          "name": "chainId",
          "type": "uint256"
        },
        {
          "indexed": false,
          "internalType": "string",
          "name": "rpc",
          "type": "string"
        }
      ],
      "name": "BlockchainAdded",
      "type": "event"
    },
    {
      "anonymous": false,
      "inputs": [
        {
          "indexed": false,
          "internalType": "uint256",
          "name": "chainId",
          "type": "uint256"
        }
      ],
      "name": "BlockchainRemoved",
      "type": "event"
    },
    {
      "anonymous": false,
      "inputs": [
        {
          "indexed": false,
          "internalType": "uint8",
          "name": "version",
          "type": "uint8"
        }
      ],
      "name": "Initialized",
      "type": "event"
    },
    {
      "anonymous": false,
      "inputs": [
        {
          "indexed": true,
          "internalType": "address",
          "name": "implementation",
          "type": "address"
        }
      ],
      "name": "Upgraded",
      "type": "event"
    },
    {
      "inputs": [
        {
          "internalType": "uint256",
          "name": "chainId",
          "type": "uint256"
        },
        {
          "internalType": "string",
          "name": "rpc",
          "type": "string"
        }
      ],
      "name": "addBlockchain",
      "outputs": [],
      "stateMutability": "nonpayable",
      "type": "function"
    },
    {
      "inputs": [
        {
          "components": [
            {
              "internalType": "bytes",
              "name": "rlpHeader",
              "type": "bytes"
            },
            {
              "components": [
                {
                  "internalType": "bytes32",
                  "name": "r",
                  "type": "bytes32"
                },
                {
                  "internalType": "bytes32",
                  "name": "vs",
                  "type": "bytes32"
                }
              ],
              "internalType": "struct BlockHeaderRegistry.Signature",
              "name": "signature",
              "type": "tuple"
            },
            {
              "internalType": "uint256",
              "name": "chainId",
              "type": "uint256"
            },
            {
              "internalType": "bytes32",
              "name": "blockHash",
              "type": "bytes32"
            },
            {
              "internalType": "uint256",
              "name": "cycleEnd",
              "type": "uint256"
            },
            {
              "internalType": "address[]",
              "name": "validators",
              "type": "address[]"
            }
          ],
          "internalType": "struct BlockHeaderRegistry.Block[]",
          "name": "blocks",
          "type": "tuple[]"
        }
      ],
      "name": "addSignedBlocks",
      "outputs": [],
      "stateMutability": "nonpayable",
      "type": "function"
    },
    {
      "inputs": [
        {
          "internalType": "uint256",
          "name": "",
          "type": "uint256"
        },
        {
          "internalType": "uint256",
          "name": "",
          "type": "uint256"
        },
        {
          "internalType": "uint256",
          "name": "",
          "type": "uint256"
        }
      ],
      "name": "blockHashes",
      "outputs": [
        {
          "internalType": "bytes32",
          "name": "",
          "type": "bytes32"
        }
      ],
      "stateMutability": "view",
      "type": "function"
    },
    {
      "inputs": [
        {
          "internalType": "address",
          "name": "",
          "type": "address"
        }
      ],
      "name": "cachedValidators",
      "outputs": [
        {
          "internalType": "uint256",
          "name": "",
          "type": "uint256"
        }
      ],
      "stateMutability": "view",
      "type": "function"
    },
    {
      "inputs": [],
      "name": "consensus",
      "outputs": [
        {
          "internalType": "address",
          "name": "",
          "type": "address"
        }
      ],
      "stateMutability": "view",
      "type": "function"
    },
    {
      "inputs": [
        {
          "internalType": "uint256",
          "name": "",
          "type": "uint256"
        }
      ],
      "name": "enabledBlockchains",
      "outputs": [
        {
          "internalType": "string",
          "name": "rpc",
          "type": "string"
        },
        {
          "internalType": "uint256",
          "name": "chainId",
          "type": "uint256"
        }
      ],
      "stateMutability": "view",
      "type": "function"
    },
    {
      "inputs": [
        {
          "internalType": "bytes32",
          "name": "payloadHash",
          "type": "bytes32"
        }
      ],
      "name": "getBlockHashByPayloadHash",
      "outputs": [
        {
          "internalType": "bytes32",
          "name": "blockHash",
          "type": "bytes32"
        }
      ],
      "stateMutability": "view",
      "type": "function"
    },
    {
      "inputs": [],
      "name": "getRPCs",
      "outputs": [
        {
          "components": [
            {
              "internalType": "string",
              "name": "rpc",
              "type": "string"
            },
            {
              "internalType": "uint256",
              "name": "chainId",
              "type": "uint256"
            }
          ],
          "internalType": "struct BlockHeaderRegistry.Blockchain[]",
          "name": "",
          "type": "tuple[]"
        }
      ],
      "stateMutability": "view",
      "type": "function"
    },
    {
      "inputs": [
        {
          "internalType": "uint256",
          "name": "chainId",
          "type": "uint256"
        },
        {
          "internalType": "uint256",
          "name": "number",
          "type": "uint256"
        }
      ],
      "name": "getSignedBlock",
      "outputs": [
        {
          "components": [
            {
              "internalType": "bytes[]",
              "name": "signatures",
              "type": "bytes[]"
            },
            {
              "internalType": "uint256",
              "name": "cycleEnd",
              "type": "uint256"
            },
            {
              "internalType": "address[]",
              "name": "validators",
              "type": "address[]"
            },
            {
              "internalType": "bytes32",
              "name": "blockHash",
              "type": "bytes32"
            }
          ],
          "internalType": "struct BlockHeaderRegistry.SignedBlock",
          "name": "signedBlock",
          "type": "tuple"
        }
      ],
      "stateMutability": "view",
      "type": "function"
    },
    {
      "inputs": [
        {
          "internalType": "bytes32",
          "name": "",
          "type": "bytes32"
        },
        {
          "internalType": "address",
          "name": "",
          "type": "address"
        }
      ],
      "name": "hasValidatorSigned",
      "outputs": [
        {
          "internalType": "bool",
          "name": "",
          "type": "bool"
        }
      ],
      "stateMutability": "view",
      "type": "function"
    },
    {
      "inputs": [
        {
          "internalType": "address",
          "name": "_voting",
          "type": "address"
        },
        {
          "internalType": "address",
          "name": "_consensus",
          "type": "address"
        },
        {
          "internalType": "bool",
          "name": "_isEventsOnly",
          "type": "bool"
        }
      ],
      "name": "initialize",
      "outputs": [],
      "stateMutability": "nonpayable",
      "type": "function"
    },
    {
      "inputs": [],
      "name": "isEventsOnly",
      "outputs": [
        {
          "internalType": "bool",
          "name": "",
          "type": "bool"
        }
      ],
      "stateMutability": "view",
      "type": "function"
    },
    {
      "inputs": [
        {
          "internalType": "bytes",
          "name": "rlpHeader",
          "type": "bytes"
        },
        {
          "internalType": "uint256",
          "name": "chainId",
          "type": "uint256"
        }
      ],
      "name": "parseRLPBlockNumber",
      "outputs": [
        {
          "internalType": "uint256",
          "name": "blockNumber",
          "type": "uint256"
        }
      ],
      "stateMutability": "pure",
      "type": "function"
    },
    {
      "inputs": [],
      "name": "proxiableUUID",
      "outputs": [
        {
          "internalType": "bytes32",
          "name": "",
          "type": "bytes32"
        }
      ],
      "stateMutability": "view",
      "type": "function"
    },
    {
      "inputs": [
        {
          "internalType": "bytes32",
          "name": "",
          "type": "bytes32"
        }
      ],
      "name": "signedBlocks",
      "outputs": [
        {
          "internalType": "uint256",
          "name": "cycleEnd",
          "type": "uint256"
        },
        {
          "internalType": "bytes32",
          "name": "blockHash",
          "type": "bytes32"
        }
      ],
      "stateMutability": "view",
      "type": "function"
    },
    {
      "inputs": [
        {
          "internalType": "address",
          "name": "newImplementation",
          "type": "address"
        }
      ],
      "name": "upgradeTo",
      "outputs": [],
      "stateMutability": "nonpayable",
      "type": "function"
    },
    {
      "inputs": [
        {
          "internalType": "address",
          "name": "newImplementation",
          "type": "address"
        },
        {
          "internalType": "bytes",
          "name": "data",
          "type": "bytes"
        }
      ],
      "name": "upgradeToAndCall",
      "outputs": [],
      "stateMutability": "payable",
      "type": "function"
    },
    {
      "inputs": [],
      "name": "voting",
      "outputs": [
        {
          "internalType": "address",
          "name": "",
          "type": "address"
        }
      ],
      "stateMutability": "view",
      "type": "function"
    }
  ],
  "bytecode": "0x60a06040523060805234801561001457600080fd5b50608051612acb61004c6000396000818161070201528181610742015281816107e20152818161082201526109710152612acb6000f3fe6080604052600436106101095760003560e01c80638ef3f76111610095578063dc20fa8911610064578063dc20fa891461032d578063e4bbb5a81461034d578063ed8eeee31461036d578063f105a7621461038d578063fce1ccca146103d957600080fd5b80638ef3f76114610268578063c6be980c146102a0578063d8923691146102d0578063db20f3b5146102f257600080fd5b806352d1902d116100dc57806352d1902d146101a757806359f464ac146101ca578063631df4e4146101f7578063670640841461021757806376e1977d1461023757600080fd5b8063063d56691461010e5780633659cfe6146101445780634f1ef2861461016657806352c634ec14610179575b600080fd5b34801561011a57600080fd5b5061012e6101293660046121c2565b6103f9565b60405161013b9190612280565b60405180910390f35b34801561015057600080fd5b5061016461015f366004612338565b6106f7565b005b6101646101743660046123df565b6107d7565b34801561018557600080fd5b50610199610194366004612441565b6108a8565b60405161013b92919061245a565b3480156101b357600080fd5b506101bc610964565b60405190815260200161013b565b3480156101d657600080fd5b506101bc6101e5366004612338565b606b6020526000908152604090205481565b34801561020357600080fd5b506101bc61021236600461247c565b610a17565b34801561022357600080fd5b506101bc6102323660046124a8565b610a55565b34801561024357600080fd5b50606a5461025890600160a01b900460ff1681565b604051901515815260200161013b565b34801561027457600080fd5b50606a54610288906001600160a01b031681565b6040516001600160a01b03909116815260200161013b565b3480156102ac57600080fd5b506101bc6102bb366004612441565b60009081526067602052604090206003015490565b3480156102dc57600080fd5b506102e5610ae7565b60405161013b9190612520565b3480156102fe57600080fd5b5061025861030d366004612596565b606560209081526000928352604080842090915290825290205460ff1681565b34801561033957600080fd5b506101646103483660046125c2565b610be2565b34801561035957600080fd5b50610164610368366004612601565b610e84565b34801561037957600080fd5b50610164610388366004612648565b610fcf565b34801561039957600080fd5b506103c46103a8366004612441565b6067602052600090815260409020600181015460039091015482565b6040805192835260208301919091520161013b565b3480156103e557600080fd5b50606954610288906001600160a01b031681565b6104276040518060800160405280606081526020016000815260200160608152602001600080191681525090565b600083815260666020908152604080832085845282528083208054825181850281018501909352808352919290919083018282801561048557602002820191906000526020600020905b815481526020019060010190808311610471575b505050505090508051600014156104d95760405162461bcd60e51b81526020600482015260136024820152720bec4d8dec6d690c2e6d0cae65cd8cadccee8d606b1b60448201526064015b60405180910390fd5b6000816000815181106104ee576104ee6126bd565b6020908102919091018101516000818152606790925260409091205490915060015b835181101561058b57600060676000868481518110610531576105316126bd565b60200260200101518152602001908152602001600020600001805490509050828111156105785780925084828151811061056d5761056d6126bd565b602002602001015193505b5080610583816126e9565b915050610510565b5060008281526067602090815260408083208151815460a09481028201850190935260808101838152909491938593919285929185015b8282101561066e5783829060005260206000200180546105e190612704565b80601f016020809104026020016040519081016040528092919081815260200182805461060d90612704565b801561065a5780601f1061062f5761010080835404028352916020019161065a565b820191906000526020600020905b81548152906001019060200180831161063d57829003601f168201915b5050505050815260200190600101906105c2565b50505050815260200160018201548152602001600282018054806020026020016040519081016040528092919081815260200182805480156106d957602002820191906000526020600020905b81546001600160a01b031681526001909101906020018083116106bb575b50505050508152602001600382015481525050935050505092915050565b306001600160a01b037f00000000000000000000000000000000000000000000000000000000000000001614156107405760405162461bcd60e51b81526004016104d090612739565b7f00000000000000000000000000000000000000000000000000000000000000006001600160a01b0316610789600080516020612a4f833981519152546001600160a01b031690565b6001600160a01b0316146107af5760405162461bcd60e51b81526004016104d090612785565b6107b8816113ce565b604080516000808252602082019092526107d491839190611415565b50565b306001600160a01b037f00000000000000000000000000000000000000000000000000000000000000001614156108205760405162461bcd60e51b81526004016104d090612739565b7f00000000000000000000000000000000000000000000000000000000000000006001600160a01b0316610869600080516020612a4f833981519152546001600160a01b031690565b6001600160a01b03161461088f5760405162461bcd60e51b81526004016104d090612785565b610898826113ce565b6108a482826001611415565b5050565b606881815481106108b857600080fd5b90600052602060002090600202016000915090508060000180546108db90612704565b80601f016020809104026020016040519081016040528092919081815260200182805461090790612704565b80156109545780601f1061092957610100808354040283529160200191610954565b820191906000526020600020905b81548152906001019060200180831161093757829003601f168201915b5050505050908060010154905082565b6000306001600160a01b037f00000000000000000000000000000000000000000000000000000000000000001614610a045760405162461bcd60e51b815260206004820152603860248201527f555550535570677261646561626c653a206d757374206e6f742062652063616c60448201527f6c6564207468726f7567682064656c656761746563616c6c000000000000000060648201526084016104d0565b50600080516020612a4f83398151915290565b60666020528260005260406000206020528160005260406000208181548110610a3f57600080fd5b9060005260206000200160009250925050505481565b600080610a9f610a9a86868080601f01602080910402602001604051908101604052809392919081815260200183838082843760009201919091525061158092505050565b6115ad565b905060008361a4ec14610ab3576008610ab6565b60065b60ff169050610add828281518110610ad057610ad06126bd565b60200260200101516116c3565b9695505050505050565b60606068805480602002602001604051908101604052809291908181526020016000905b82821015610bd95783829060005260206000209060020201604051806040016040529081600082018054610b3e90612704565b80601f0160208091040260200160405190810160405280929190818152602001828054610b6a90612704565b8015610bb75780601f10610b8c57610100808354040283529160200191610bb7565b820191906000526020600020905b815481529060010190602001808311610b9a57829003601f168201915b5050505050815260200160018201548152505081526020019060010190610b0b565b50505050905090565b6069546001600160a01b03163314610c295760405162461bcd60e51b815260206004820152600a6024820152696f6e6c79566f74696e6760b01b60448201526064016104d0565b60685460005b81811015610de4578360688281548110610c4b57610c4b6126bd565b9060005260206000209060020201600101541415610dd2578251610d685781610c758260016127d1565b1015610cf1576068610c886001846127e9565b81548110610c9857610c986126bd565b906000526020600020906002020160688281548110610cb957610cb96126bd565b90600052602060002090600202016000820181600001908054610cdb90612704565b610ce6929190612021565b506001918201549101555b6068805480610d0257610d02612800565b60008281526020812060001990920191600283020190610d2282826120ac565b5060006001919091015590556040518481527f62509941575b6cd38681c5cb9b9f2e5db7f1f95db671e972ff3bbb05a49875ee906020015b60405180910390a150505050565b8260688281548110610d7c57610d7c6126bd565b90600052602060002090600202016000019080519060200190610da09291906120e6565b507ff3300e667302dba8542aa32316477d74cb3620e37163bcb4a19d9ce0049d1d9c8484604051610d5a929190612816565b80610ddc816126e9565b915050610c2f565b506040805180820190915260208082018590528382526068805460018101825560009190915282518051849360029093027fa2153420d844928b4421650203c77babc8b33d7f2e7b450e2966db0c220977530192610e469284929101906120e6565b506020820151816001015550507ff3300e667302dba8542aa32316477d74cb3620e37163bcb4a19d9ce0049d1d9c8484604051610d5a929190612816565b600054610100900460ff1615808015610ea45750600054600160ff909116105b80610ebe5750303b158015610ebe575060005460ff166001145b610f215760405162461bcd60e51b815260206004820152602e60248201527f496e697469616c697a61626c653a20636f6e747261637420697320616c72656160448201526d191e481a5b9a5d1a585b1a5e995960921b60648201526084016104d0565b6000805460ff191660011790558015610f44576000805461ff0019166101001790555b606980546001600160a01b0319166001600160a01b0386811691909117909155606a80549185166001600160a81b031990921691909117600160a01b841515021790558015610fc9576000805461ff0019169055604051600181527f7f26b83ff96e1f2b6a682f133852f6798a09c465da95921460cefb384740249890602001610d5a565b50505050565b60005b818110156113c95736838383818110610fed57610fed6126bd565b9050602002810190610fff919061282f565b9050600061100d828061284f565b60405161101b92919061289d565b60405180910390209050816080013581146110685760405162461bcd60e51b815260206004820152600d60248201526c0e4d8e090cac2c8cae490c2e6d609b1b60448201526064016104d0565b6060820135607a81149060009060808501359061108860c08701876128ad565b8760a001356040516020016110a19594939291906128f7565b6040516020818303038152906040528051906020012090506000611124611115836040517f19457468657265756d205369676e6564204d6573736167653a0a3332000000006020820152603c8101829052600090605c01604051602081830303815290604052805190602001209050919050565b60208701356040880135611711565b905061112f81611739565b61116b5760405162461bcd60e51b815260206004820152600d60248201526c3737ba103b30b634b230ba37b960991b60448201526064016104d0565b600061118461117a878061284f565b8860600135610a55565b606a54909150600160a01b900460ff1661131c5760008381526065602090815260408083206001600160a01b038616845290915290205460ff16156111ce575050505050506113b7565b60008381526065602090815260408083206001600160a01b03861684528252808320805460ff1916600117905585835260679091529020546112b257606086013560009081526066602090815260408083208484528252822080546001810182559083529120018390558380156112535750600061124f60c08801886128ad565b9050115b1561129d5761126560c08701876128ad565b60008581526067602052604090206112829260029091019161215a565b50600083815260676020526040902060a08701356001909101555b60008381526067602052604090206003018590555b600083815260676020908152604091829020825190926112e5928a81013592918b01359101918252602082015260400190565b60408051601f1981840301815291905281546001810183556000928352602092839020825161131a94919092019201906120e6565b505b8060608701356001600160a01b0384167fbea5e0a625dfb1ce157ffaa70df88e91918faced66adc5690ed9df8ee7f8aa938661135b60c08c018c6128ad565b8c60a001358d602001600001358e6020016020013560405160200161138a929190918252602082015260400190565b60408051601f19818403018152908290526113a89594939291612949565b60405180910390a45050505050505b806113c1816126e9565b915050610fd2565b505050565b6069546001600160a01b031633146107d45760405162461bcd60e51b815260206004820152600a6024820152696f6e6c79566f74696e6760b01b60448201526064016104d0565b7f4910fdfa16fed3260ed0e7147f7cc6da11a60208b5b9406d12a635614ffd91435460ff1615611448576113c98361186e565b826001600160a01b03166352d1902d6040518163ffffffff1660e01b8152600401602060405180830381865afa9250505080156114a2575060408051601f3d908101601f1916820190925261149f918101906129ba565b60015b6115055760405162461bcd60e51b815260206004820152602e60248201527f45524331393637557067726164653a206e657720696d706c656d656e7461746960448201526d6f6e206973206e6f74205555505360901b60648201526084016104d0565b600080516020612a4f83398151915281146115745760405162461bcd60e51b815260206004820152602960248201527f45524331393637557067726164653a20756e737570706f727465642070726f786044820152681a58589b195555525160ba1b60648201526084016104d0565b506113c983838361190a565b60408051808201825260008082526020918201528151808301909252825182529182019181019190915290565b60606115b88261192f565b6115c157600080fd5b60006115cc83611968565b905060008167ffffffffffffffff8111156115e9576115e9612353565b60405190808252806020026020018201604052801561162e57816020015b60408051808201909152600080825260208201528152602001906001900390816116075790505b509050600061164085602001516119eb565b856020015161164f91906127d1565b90506000805b848110156116b85761166683611a6c565b915060405180604001604052808381526020018481525084828151811061168f5761168f6126bd565b60209081029190910101526116a482846127d1565b9250806116b0816126e9565b915050611655565b509195945050505050565b8051600090158015906116d857508151602110155b6116e157600080fd5b6000806116ed84611b15565b8151919350915060208210156117095760208290036101000a90045b949350505050565b6000806000611721868686611b5c565b9150915061172e81611b95565b5090505b9392505050565b606a546040805163af29518160e01b815290516000926001600160a01b03169163af2951819160048083019260209291908290030181865afa158015611783573d6000803e3d6000fd5b505050506040513d601f19601f820116820180604052508101906117a791906129ba565b6001600160a01b0383166000908152606b602052604090205414806117d057506117d082611d50565b9050801561186957606a60009054906101000a90046001600160a01b03166001600160a01b031663af2951816040518163ffffffff1660e01b8152600401602060405180830381865afa15801561182b573d6000803e3d6000fd5b505050506040513d601f19601f8201168201806040525081019061184f91906129ba565b6001600160a01b0383166000908152606b60205260409020555b919050565b6001600160a01b0381163b6118db5760405162461bcd60e51b815260206004820152602d60248201527f455243313936373a206e657720696d706c656d656e746174696f6e206973206e60448201526c1bdd08184818dbdb9d1c9858dd609a1b60648201526084016104d0565b600080516020612a4f83398151915280546001600160a01b0319166001600160a01b0392909216919091179055565b61191383611dc7565b6000825111806119205750805b156113c957610fc98383611e07565b805160009061194057506000919050565b6020820151805160001a9060c082101561195e575060009392505050565b5060019392505050565b805160009061197957506000919050565b60008061198984602001516119eb565b846020015161199891906127d1565b90506000846000015185602001516119b091906127d1565b90505b808210156119e2576119c482611a6c565b6119ce90836127d1565b9150826119da816126e9565b9350506119b3565b50909392505050565b8051600090811a6080811015611a045750600092915050565b60b8811080611a1f575060c08110801590611a1f575060f881105b15611a2d5750600192915050565b60c0811015611a5a57611a42600160b86129d3565b611a4f9060ff16826127e9565b6117329060016127d1565b611a42600160f86129d3565b50919050565b80516000908190811a6080811015611a875760019150611b0e565b60b8811015611aad57611a9b6080826127e9565b611aa69060016127d1565b9150611b0e565b60c0811015611ada5760b78103600185019450806020036101000a85510460018201810193505050611b0e565b60f8811015611aee57611a9b60c0826127e9565b60f78103600185019450806020036101000a855104600182018101935050505b5092915050565b6000806000611b2784602001516119eb565b90506000818560200151611b3b91906127d1565b90506000828660000151611b4f91906127e9565b9196919550909350505050565b6000806001600160ff1b03831681611b7960ff86901c601b6127d1565b9050611b8787828885611efb565b935093505050935093915050565b6000816004811115611ba957611ba96129f6565b1415611bb25750565b6001816004811115611bc657611bc66129f6565b1415611c145760405162461bcd60e51b815260206004820152601860248201527f45434453413a20696e76616c6964207369676e6174757265000000000000000060448201526064016104d0565b6002816004811115611c2857611c286129f6565b1415611c765760405162461bcd60e51b815260206004820152601f60248201527f45434453413a20696e76616c6964207369676e6174757265206c656e6774680060448201526064016104d0565b6003816004811115611c8a57611c8a6129f6565b1415611ce35760405162461bcd60e51b815260206004820152602260248201527f45434453413a20696e76616c6964207369676e6174757265202773272076616c604482015261756560f01b60648201526084016104d0565b6004816004811115611cf757611cf76129f6565b14156107d45760405162461bcd60e51b815260206004820152602260248201527f45434453413a20696e76616c6964207369676e6174757265202776272076616c604482015261756560f01b60648201526084016104d0565b606a5460405163facd743b60e01b81526001600160a01b038381166004830152600092169063facd743b906024016020604051808303816000875af1158015611d9d573d6000803e3d6000fd5b505050506040513d601f19601f82011682018060405250810190611dc19190612a0c565b92915050565b611dd08161186e565b6040516001600160a01b038216907fbc7cd75a20ee27fd9adebab32041f755214dbc6bffa90cc0225b39da2e5c2d3b90600090a250565b60606001600160a01b0383163b611e6f5760405162461bcd60e51b815260206004820152602660248201527f416464726573733a2064656c65676174652063616c6c20746f206e6f6e2d636f6044820152651b9d1c9858dd60d21b60648201526084016104d0565b600080846001600160a01b031684604051611e8a9190612a29565b600060405180830381855af49150503d8060008114611ec5576040519150601f19603f3d011682016040523d82523d6000602084013e611eca565b606091505b5091509150611ef28282604051806060016040528060278152602001612a6f60279139611fe8565b95945050505050565b6000807f7fffffffffffffffffffffffffffffff5d576e7357a4501ddfe92f46681b20a0831115611f325750600090506003611fdf565b8460ff16601b14158015611f4a57508460ff16601c14155b15611f5b5750600090506004611fdf565b6040805160008082526020820180845289905260ff881692820192909252606081018690526080810185905260019060a0016020604051602081039080840390855afa158015611faf573d6000803e3d6000fd5b5050604051601f1901519150506001600160a01b038116611fd857600060019250925050611fdf565b9150600090505b94509492505050565b60608315611ff7575081611732565b8251156120075782518084602001fd5b8160405162461bcd60e51b81526004016104d09190612a3b565b82805461202d90612704565b90600052602060002090601f01602090048101928261204f576000855561209c565b82601f10612060578054855561209c565b8280016001018555821561209c57600052602060002091601f016020900482015b8281111561209c578254825591600101919060010190612081565b506120a89291506121ad565b5090565b5080546120b890612704565b6000825580601f106120c8575050565b601f0160209004906000526020600020908101906107d491906121ad565b8280546120f290612704565b90600052602060002090601f016020900481019282612114576000855561209c565b82601f1061212d57805160ff191683800117855561209c565b8280016001018555821561209c579182015b8281111561209c57825182559160200191906001019061213f565b82805482825590600052602060002090810192821561209c579160200282015b8281111561209c5781546001600160a01b0319166001600160a01b0384351617825560209092019160019091019061217a565b5b808211156120a857600081556001016121ae565b600080604083850312156121d557600080fd5b50508035926020909101359150565b60005b838110156121ff5781810151838201526020016121e7565b83811115610fc95750506000910152565b600081518084526122288160208601602086016121e4565b601f01601f19169290920160200192915050565b600081518084526020808501945080840160005b838110156122755781516001600160a01b031687529582019590820190600101612250565b509495945050505050565b6000602080835260a08301845160808386015281815180845260c08701915060c08160051b8801019350848301925060005b818110156122e05760bf198886030183526122ce858551612210565b945092850192918501916001016122b2565b5050505081850151604085015260408501519150601f1984820301606085015261230a818361223c565b915050606084015160808401528091505092915050565b80356001600160a01b038116811461186957600080fd5b60006020828403121561234a57600080fd5b61173282612321565b634e487b7160e01b600052604160045260246000fd5b600067ffffffffffffffff8084111561238457612384612353565b604051601f8501601f19908116603f011681019082821181831017156123ac576123ac612353565b816040528093508581528686860111156123c557600080fd5b858560208301376000602087830101525050509392505050565b600080604083850312156123f257600080fd5b6123fb83612321565b9150602083013567ffffffffffffffff81111561241757600080fd5b8301601f8101851361242857600080fd5b61243785823560208401612369565b9150509250929050565b60006020828403121561245357600080fd5b5035919050565b60408152600061246d6040830185612210565b90508260208301529392505050565b60008060006060848603121561249157600080fd5b505081359360208301359350604090920135919050565b6000806000604084860312156124bd57600080fd5b833567ffffffffffffffff808211156124d557600080fd5b818601915086601f8301126124e957600080fd5b8135818111156124f857600080fd5b87602082850101111561250a57600080fd5b6020928301989097509590910135949350505050565b60006020808301818452808551808352604092508286019150828160051b87010184880160005b8381101561258857888303603f190185528151805187855261256b88860182612210565b918901519489019490945294870194925090860190600101612547565b509098975050505050505050565b600080604083850312156125a957600080fd5b823591506125b960208401612321565b90509250929050565b600080604083850312156125d557600080fd5b82359150602083013567ffffffffffffffff81111561241757600080fd5b80151581146107d457600080fd5b60008060006060848603121561261657600080fd5b61261f84612321565b925061262d60208501612321565b9150604084013561263d816125f3565b809150509250925092565b6000806020838503121561265b57600080fd5b823567ffffffffffffffff8082111561267357600080fd5b818501915085601f83011261268757600080fd5b81358181111561269657600080fd5b8660208260051b85010111156126ab57600080fd5b60209290920196919550909350505050565b634e487b7160e01b600052603260045260246000fd5b634e487b7160e01b600052601160045260246000fd5b60006000198214156126fd576126fd6126d3565b5060010190565b600181811c9082168061271857607f821691505b60208210811415611a6657634e487b7160e01b600052602260045260246000fd5b6020808252602c908201527f46756e6374696f6e206d7573742062652063616c6c6564207468726f7567682060408201526b19195b1959d85d1958d85b1b60a21b606082015260800190565b6020808252602c908201527f46756e6374696f6e206d7573742062652063616c6c6564207468726f7567682060408201526b6163746976652070726f787960a01b606082015260800190565b600082198211156127e4576127e46126d3565b500190565b6000828210156127fb576127fb6126d3565b500390565b634e487b7160e01b600052603160045260246000fd5b8281526040602082015260006117096040830184612210565b6000823560de1983360301811261284557600080fd5b9190910192915050565b6000808335601e1984360301811261286657600080fd5b83018035915067ffffffffffffffff82111561288157600080fd5b60200191503681900382131561289657600080fd5b9250929050565b8183823760009101908152919050565b6000808335601e198436030181126128c457600080fd5b83018035915067ffffffffffffffff8211156128df57600080fd5b6020019150600581901b360382131561289657600080fd5b858152600060208681840152604083018660005b87811015612937576001600160a01b0361292483612321565b168352918301919083019060010161290b565b50509384529092019695505050505050565b85815260806020808301829052908201859052600090869060a08401835b88811015612993576001600160a01b0361298085612321565b1682529282019290820190600101612967565b5086604086015284810360608601526129ac8187612210565b9a9950505050505050505050565b6000602082840312156129cc57600080fd5b5051919050565b600060ff821660ff8416808210156129ed576129ed6126d3565b90039392505050565b634e487b7160e01b600052602160045260246000fd5b600060208284031215612a1e57600080fd5b8151611732816125f3565b600082516128458184602087016121e4565b602081526000611732602083018461221056fe360894a13ba1a3210667c828492db98dca3e2076cc3735a920a3ca505d382bbc416464726573733a206c6f772d6c6576656c2064656c65676174652063616c6c206661696c6564a26469706673582212200eadf8f518012d76b0a2a879b90b828a98f2452de783c2b60b1ac8b4ef8c82ae64736f6c634300080a0033",
  "linkReferences": {},
  "deployedLinkReferences": {}
}