{
  "_format": "hh-sol-artifact-1",
  "contractName": "BlockHeaderRegistry",
  "sourceName": "contracts/blockRegistry/BlockHeaderRegistry.sol",
  "abi": [
    {
      "anonymous": false,
      "inputs": [
        {
          "indexed": false,
          "internalType": "address",
          "name": "previousAdmin",
          "type": "address"
        },
        {
          "indexed": false,
          "internalType": "address",
          "name": "newAdmin",
          "type": "address"
        }
      ],
      "name": "AdminChanged",
      "type": "event"
    },
    {
      "anonymous": false,
      "inputs": [
        {
          "indexed": true,
          "internalType": "address",
          "name": "beacon",
          "type": "address"
        }
      ],
      "name": "BeaconUpgraded",
      "type": "event"
    },
    {
      "anonymous": false,
      "inputs": [
        {
          "indexed": true,
          "internalType": "address",
          "name": "validator",
          "type": "address"
        },
        {
          "indexed": true,
          "internalType": "uint256",
          "name": "chainId",
          "type": "uint256"
        },
        {
          "indexed": true,
          "internalType": "uint256",
          "name": "blockNumber",
          "type": "uint256"
        },
        {
          "indexed": false,
          "internalType": "bytes32",
          "name": "payload",
          "type": "bytes32"
        },
        {
          "indexed": false,
          "internalType": "address[]",
          "name": "validators",
          "type": "address[]"
        },
        {
          "indexed": false,
          "internalType": "uint256",
          "name": "cycleEnd",
          "type": "uint256"
        },
        {
          "indexed": false,
          "internalType": "bytes",
          "name": "signature",
          "type": "bytes"
        }
      ],
      "name": "BlockAdded",
      "type": "event"
    },
    {
      "anonymous": false,
      "inputs": [
        {
          "indexed": false,
          "internalType": "uint256",
          "name": "chainId",
          "type": "uint256"
        },
        {
          "indexed": false,
          "internalType": "string",
          "name": "rpc",
          "type": "string"
        }
      ],
      "name": "BlockchainAdded",
      "type": "event"
    },
    {
      "anonymous": false,
      "inputs": [
        {
          "indexed": false,
          "internalType": "uint256",
          "name": "chainId",
          "type": "uint256"
        }
      ],
      "name": "BlockchainRemoved",
      "type": "event"
    },
    {
      "anonymous": false,
      "inputs": [
        {
          "indexed": false,
          "internalType": "uint8",
          "name": "version",
          "type": "uint8"
        }
      ],
      "name": "Initialized",
      "type": "event"
    },
    {
      "anonymous": false,
      "inputs": [
        {
          "indexed": true,
          "internalType": "address",
          "name": "implementation",
          "type": "address"
        }
      ],
      "name": "Upgraded",
      "type": "event"
    },
    {
      "inputs": [
        {
          "internalType": "uint256",
          "name": "chainId",
          "type": "uint256"
        },
        {
          "internalType": "string",
          "name": "rpc",
          "type": "string"
        }
      ],
      "name": "addBlockchain",
      "outputs": [],
      "stateMutability": "nonpayable",
      "type": "function"
    },
    {
      "inputs": [
        {
          "components": [
            {
              "internalType": "bytes",
              "name": "rlpHeader",
              "type": "bytes"
            },
            {
              "components": [
                {
                  "internalType": "bytes32",
                  "name": "r",
                  "type": "bytes32"
                },
                {
                  "internalType": "bytes32",
                  "name": "vs",
                  "type": "bytes32"
                }
              ],
              "internalType": "struct BlockHeaderRegistry.Signature",
              "name": "signature",
              "type": "tuple"
            },
            {
              "internalType": "uint256",
              "name": "chainId",
              "type": "uint256"
            },
            {
              "internalType": "bytes32",
              "name": "blockHash",
              "type": "bytes32"
            },
            {
              "internalType": "uint256",
              "name": "cycleEnd",
              "type": "uint256"
            },
            {
              "internalType": "address[]",
              "name": "validators",
              "type": "address[]"
            }
          ],
          "internalType": "struct BlockHeaderRegistry.Block[]",
          "name": "blocks",
          "type": "tuple[]"
        }
      ],
      "name": "addSignedBlocks",
      "outputs": [],
      "stateMutability": "nonpayable",
      "type": "function"
    },
    {
      "inputs": [
        {
          "internalType": "uint256",
          "name": "",
          "type": "uint256"
        },
        {
          "internalType": "uint256",
          "name": "",
          "type": "uint256"
        },
        {
          "internalType": "uint256",
          "name": "",
          "type": "uint256"
        }
      ],
      "name": "blockHashes",
      "outputs": [
        {
          "internalType": "bytes32",
          "name": "",
          "type": "bytes32"
        }
      ],
      "stateMutability": "view",
      "type": "function"
    },
    {
      "inputs": [
        {
          "internalType": "address",
          "name": "",
          "type": "address"
        }
      ],
      "name": "cachedValidators",
      "outputs": [
        {
          "internalType": "uint256",
          "name": "",
          "type": "uint256"
        }
      ],
      "stateMutability": "view",
      "type": "function"
    },
    {
      "inputs": [],
      "name": "consensus",
      "outputs": [
        {
          "internalType": "address",
          "name": "",
          "type": "address"
        }
      ],
      "stateMutability": "view",
      "type": "function"
    },
    {
      "inputs": [
        {
          "internalType": "uint256",
          "name": "",
          "type": "uint256"
        }
      ],
      "name": "enabledBlockchains",
      "outputs": [
        {
          "internalType": "string",
          "name": "rpc",
          "type": "string"
        },
        {
          "internalType": "uint256",
          "name": "chainId",
          "type": "uint256"
        }
      ],
      "stateMutability": "view",
      "type": "function"
    },
    {
      "inputs": [
        {
          "internalType": "bytes32",
          "name": "payloadHash",
          "type": "bytes32"
        }
      ],
      "name": "getBlockHashByPayloadHash",
      "outputs": [
        {
          "internalType": "bytes32",
          "name": "blockHash",
          "type": "bytes32"
        }
      ],
      "stateMutability": "view",
      "type": "function"
    },
    {
      "inputs": [],
      "name": "getRPCs",
      "outputs": [
        {
          "components": [
            {
              "internalType": "string",
              "name": "rpc",
              "type": "string"
            },
            {
              "internalType": "uint256",
              "name": "chainId",
              "type": "uint256"
            }
          ],
          "internalType": "struct BlockHeaderRegistry.Blockchain[]",
          "name": "",
          "type": "tuple[]"
        }
      ],
      "stateMutability": "view",
      "type": "function"
    },
    {
      "inputs": [
        {
          "internalType": "uint256",
          "name": "chainId",
          "type": "uint256"
        },
        {
          "internalType": "uint256",
          "name": "number",
          "type": "uint256"
        }
      ],
      "name": "getSignedBlock",
      "outputs": [
        {
          "components": [
            {
              "internalType": "bytes[]",
              "name": "signatures",
              "type": "bytes[]"
            },
            {
              "internalType": "uint256",
              "name": "cycleEnd",
              "type": "uint256"
            },
            {
              "internalType": "address[]",
              "name": "validators",
              "type": "address[]"
            },
            {
              "internalType": "bytes32",
              "name": "blockHash",
              "type": "bytes32"
            }
          ],
          "internalType": "struct BlockHeaderRegistry.SignedBlock",
          "name": "signedBlock",
          "type": "tuple"
        }
      ],
      "stateMutability": "view",
      "type": "function"
    },
    {
      "inputs": [
        {
          "internalType": "bytes32",
          "name": "",
          "type": "bytes32"
        },
        {
          "internalType": "address",
          "name": "",
          "type": "address"
        }
      ],
      "name": "hasValidatorSigned",
      "outputs": [
        {
          "internalType": "bool",
          "name": "",
          "type": "bool"
        }
      ],
      "stateMutability": "view",
      "type": "function"
    },
    {
      "inputs": [
        {
          "internalType": "address",
          "name": "_voting",
          "type": "address"
        },
        {
          "internalType": "address",
          "name": "_consensus",
          "type": "address"
        },
        {
          "internalType": "bool",
          "name": "_isEventsOnly",
          "type": "bool"
        }
      ],
      "name": "initialize",
      "outputs": [],
      "stateMutability": "nonpayable",
      "type": "function"
    },
    {
      "inputs": [],
      "name": "isEventsOnly",
      "outputs": [
        {
          "internalType": "bool",
          "name": "",
          "type": "bool"
        }
      ],
      "stateMutability": "view",
      "type": "function"
    },
    {
      "inputs": [
        {
          "internalType": "bytes",
          "name": "rlpHeader",
          "type": "bytes"
        }
      ],
      "name": "parseRLPBlockNumber",
      "outputs": [
        {
          "internalType": "uint256",
          "name": "blockNumber",
          "type": "uint256"
        }
      ],
      "stateMutability": "pure",
      "type": "function"
    },
    {
      "inputs": [],
      "name": "proxiableUUID",
      "outputs": [
        {
          "internalType": "bytes32",
          "name": "",
          "type": "bytes32"
        }
      ],
      "stateMutability": "view",
      "type": "function"
    },
    {
      "inputs": [
        {
          "internalType": "bytes32",
          "name": "",
          "type": "bytes32"
        }
      ],
      "name": "signedBlocks",
      "outputs": [
        {
          "internalType": "uint256",
          "name": "cycleEnd",
          "type": "uint256"
        },
        {
          "internalType": "bytes32",
          "name": "blockHash",
          "type": "bytes32"
        }
      ],
      "stateMutability": "view",
      "type": "function"
    },
    {
      "inputs": [
        {
          "internalType": "address",
          "name": "newImplementation",
          "type": "address"
        }
      ],
      "name": "upgradeTo",
      "outputs": [],
      "stateMutability": "nonpayable",
      "type": "function"
    },
    {
      "inputs": [
        {
          "internalType": "address",
          "name": "newImplementation",
          "type": "address"
        },
        {
          "internalType": "bytes",
          "name": "data",
          "type": "bytes"
        }
      ],
      "name": "upgradeToAndCall",
      "outputs": [],
      "stateMutability": "payable",
      "type": "function"
    },
    {
      "inputs": [],
      "name": "voting",
      "outputs": [
        {
          "internalType": "address",
          "name": "",
          "type": "address"
        }
      ],
      "stateMutability": "view",
      "type": "function"
    }
  ],
  "bytecode": "0x60a06040523060805234801561001457600080fd5b50608051612a8d61004c6000396000818161070201528181610742015281816107e20152818161082201526109710152612a8d6000f3fe6080604052600436106101095760003560e01c80638ef3f76111610095578063dc20fa8911610064578063dc20fa891461032d578063e4bbb5a81461034d578063ed8eeee31461036d578063f105a7621461038d578063fce1ccca146103d957600080fd5b80638ef3f76114610268578063c6be980c146102a0578063d8923691146102d0578063db20f3b5146102f257600080fd5b806352d1902d116100dc57806352d1902d146101a757806359f464ac146101ca578063631df4e4146101f757806376e1977d146102175780638c7b80551461024857600080fd5b8063063d56691461010e5780633659cfe6146101445780634f1ef2861461016657806352c634ec14610179575b600080fd5b34801561011a57600080fd5b5061012e61012936600461219c565b6103f9565b60405161013b919061225a565b60405180910390f35b34801561015057600080fd5b5061016461015f366004612312565b6106f7565b005b6101646101743660046123b9565b6107d7565b34801561018557600080fd5b5061019961019436600461241b565b6108a8565b60405161013b929190612434565b3480156101b357600080fd5b506101bc610964565b60405190815260200161013b565b3480156101d657600080fd5b506101bc6101e5366004612312565b606b6020526000908152604090205481565b34801561020357600080fd5b506101bc610212366004612456565b610a17565b34801561022357600080fd5b50606a5461023890600160a01b900460ff1681565b604051901515815260200161013b565b34801561025457600080fd5b506101bc610263366004612482565b610a55565b34801561027457600080fd5b50606a54610288906001600160a01b031681565b6040516001600160a01b03909116815260200161013b565b3480156102ac57600080fd5b506101bc6102bb36600461241b565b60009081526067602052604090206003015490565b3480156102dc57600080fd5b506102e5610acc565b60405161013b91906124f4565b3480156102fe57600080fd5b5061023861030d36600461256a565b606560209081526000928352604080842090915290825290205460ff1681565b34801561033957600080fd5b50610164610348366004612596565b610bc7565b34801561035957600080fd5b506101646103683660046125d5565b610e69565b34801561037957600080fd5b5061016461038836600461261c565b610fb4565b34801561039957600080fd5b506103c46103a836600461241b565b6067602052600090815260409020600181015460039091015482565b6040805192835260208301919091520161013b565b3480156103e557600080fd5b50606954610288906001600160a01b031681565b6104276040518060800160405280606081526020016000815260200160608152602001600080191681525090565b600083815260666020908152604080832085845282528083208054825181850281018501909352808352919290919083018282801561048557602002820191906000526020600020905b815481526020019060010190808311610471575b505050505090508051600014156104d95760405162461bcd60e51b81526020600482015260136024820152720bec4d8dec6d690c2e6d0cae65cd8cadccee8d606b1b60448201526064015b60405180910390fd5b6000816000815181106104ee576104ee61267f565b6020908102919091018101516000818152606790925260409091205490915060015b835181101561058b576000606760008684815181106105315761053161267f565b60200260200101518152602001908152602001600020600001805490509050828111156105785780925084828151811061056d5761056d61267f565b602002602001015193505b5080610583816126ab565b915050610510565b5060008281526067602090815260408083208151815460a09481028201850190935260808101838152909491938593919285929185015b8282101561066e5783829060005260206000200180546105e1906126c6565b80601f016020809104026020016040519081016040528092919081815260200182805461060d906126c6565b801561065a5780601f1061062f5761010080835404028352916020019161065a565b820191906000526020600020905b81548152906001019060200180831161063d57829003601f168201915b5050505050815260200190600101906105c2565b50505050815260200160018201548152602001600282018054806020026020016040519081016040528092919081815260200182805480156106d957602002820191906000526020600020905b81546001600160a01b031681526001909101906020018083116106bb575b50505050508152602001600382015481525050935050505092915050565b306001600160a01b037f00000000000000000000000000000000000000000000000000000000000000001614156107405760405162461bcd60e51b81526004016104d0906126fb565b7f00000000000000000000000000000000000000000000000000000000000000006001600160a01b0316610789600080516020612a11833981519152546001600160a01b031690565b6001600160a01b0316146107af5760405162461bcd60e51b81526004016104d090612747565b6107b8816113a9565b604080516000808252602082019092526107d4918391906113f0565b50565b306001600160a01b037f00000000000000000000000000000000000000000000000000000000000000001614156108205760405162461bcd60e51b81526004016104d0906126fb565b7f00000000000000000000000000000000000000000000000000000000000000006001600160a01b0316610869600080516020612a11833981519152546001600160a01b031690565b6001600160a01b03161461088f5760405162461bcd60e51b81526004016104d090612747565b610898826113a9565b6108a4828260016113f0565b5050565b606881815481106108b857600080fd5b90600052602060002090600202016000915090508060000180546108db906126c6565b80601f0160208091040260200160405190810160405280929190818152602001828054610907906126c6565b80156109545780601f1061092957610100808354040283529160200191610954565b820191906000526020600020905b81548152906001019060200180831161093757829003601f168201915b5050505050908060010154905082565b6000306001600160a01b037f00000000000000000000000000000000000000000000000000000000000000001614610a045760405162461bcd60e51b815260206004820152603860248201527f555550535570677261646561626c653a206d757374206e6f742062652063616c60448201527f6c6564207468726f7567682064656c656761746563616c6c000000000000000060648201526084016104d0565b50600080516020612a1183398151915290565b60666020528260005260406000206020528160005260406000208181548110610a3f57600080fd5b9060005260206000200160009250925050505481565b600080610a9f610a9a85858080601f01602080910402602001604051908101604052809392919081815260200183838082843760009201919091525061155b92505050565b611588565b9050610ac481600881518110610ab757610ab761267f565b602002602001015161169e565b949350505050565b60606068805480602002602001604051908101604052809291908181526020016000905b82821015610bbe5783829060005260206000209060020201604051806040016040529081600082018054610b23906126c6565b80601f0160208091040260200160405190810160405280929190818152602001828054610b4f906126c6565b8015610b9c5780601f10610b7157610100808354040283529160200191610b9c565b820191906000526020600020905b815481529060010190602001808311610b7f57829003601f168201915b5050505050815260200160018201548152505081526020019060010190610af0565b50505050905090565b6069546001600160a01b03163314610c0e5760405162461bcd60e51b815260206004820152600a6024820152696f6e6c79566f74696e6760b01b60448201526064016104d0565b60685460005b81811015610dc9578360688281548110610c3057610c3061267f565b9060005260206000209060020201600101541415610db7578251610d4d5781610c5a826001612793565b1015610cd6576068610c6d6001846127ab565b81548110610c7d57610c7d61267f565b906000526020600020906002020160688281548110610c9e57610c9e61267f565b90600052602060002090600202016000820181600001908054610cc0906126c6565b610ccb929190611ffb565b506001918201549101555b6068805480610ce757610ce76127c2565b60008281526020812060001990920191600283020190610d078282612086565b5060006001919091015590556040518481527f62509941575b6cd38681c5cb9b9f2e5db7f1f95db671e972ff3bbb05a49875ee906020015b60405180910390a150505050565b8260688281548110610d6157610d6161267f565b90600052602060002090600202016000019080519060200190610d859291906120c0565b507ff3300e667302dba8542aa32316477d74cb3620e37163bcb4a19d9ce0049d1d9c8484604051610d3f9291906127d8565b80610dc1816126ab565b915050610c14565b506040805180820190915260208082018590528382526068805460018101825560009190915282518051849360029093027fa2153420d844928b4421650203c77babc8b33d7f2e7b450e2966db0c220977530192610e2b9284929101906120c0565b506020820151816001015550507ff3300e667302dba8542aa32316477d74cb3620e37163bcb4a19d9ce0049d1d9c8484604051610d3f9291906127d8565b600054610100900460ff1615808015610e895750600054600160ff909116105b80610ea35750303b158015610ea3575060005460ff166001145b610f065760405162461bcd60e51b815260206004820152602e60248201527f496e697469616c697a61626c653a20636f6e747261637420697320616c72656160448201526d191e481a5b9a5d1a585b1a5e995960921b60648201526084016104d0565b6000805460ff191660011790558015610f29576000805461ff0019166101001790555b606980546001600160a01b0319166001600160a01b0386811691909117909155606a80549185166001600160a81b031990921691909117600160a01b841515021790558015610fae576000805461ff0019169055604051600181527f7f26b83ff96e1f2b6a682f133852f6798a09c465da95921460cefb384740249890602001610d3f565b50505050565b60005b818110156113a45736838383818110610fd257610fd261267f565b9050602002810190610fe491906127f1565b90506000610ff28280612811565b60405161100092919061285f565b604051809103902090508160800135811461104d5760405162461bcd60e51b815260206004820152600d60248201526c0e4d8e090cac2c8cae490c2e6d609b1b60448201526064016104d0565b6060820135607a81149060009060808501359061106d60c087018761286f565b8760a001356040516020016110869594939291906128b9565b60405160208183030381529060405280519060200120905060006111096110fa836040517f19457468657265756d205369676e6564204d6573736167653a0a3332000000006020820152603c8101829052600090605c01604051602081830303815290604052805190602001209050919050565b602087013560408801356116eb565b905061111481611713565b6111505760405162461bcd60e51b815260206004820152600d60248201526c3737ba103b30b634b230ba37b960991b60448201526064016104d0565b600061115f6102638780612811565b606a54909150600160a01b900460ff166112f75760008381526065602090815260408083206001600160a01b038616845290915290205460ff16156111a957505050505050611392565b60008381526065602090815260408083206001600160a01b03861684528252808320805460ff19166001179055858352606790915290205461128d576060860135600090815260666020908152604080832084845282528220805460018101825590835291200183905583801561122e5750600061122a60c088018861286f565b9050115b156112785761124060c087018761286f565b600085815260676020526040902061125d92600290910191612134565b50600083815260676020526040902060a08701356001909101555b60008381526067602052604090206003018590555b600083815260676020908152604091829020825190926112c0928a81013592918b01359101918252602082015260400190565b60408051601f198184030181529190528154600181018355600092835260209283902082516112f594919092019201906120c0565b505b8060608701356001600160a01b0384167fbea5e0a625dfb1ce157ffaa70df88e91918faced66adc5690ed9df8ee7f8aa938661133660c08c018c61286f565b8c60a001358d602001600001358e60200160200135604051602001611365929190918252602082015260400190565b60408051601f1981840301815290829052611383959493929161290b565b60405180910390a45050505050505b8061139c816126ab565b915050610fb7565b505050565b6069546001600160a01b031633146107d45760405162461bcd60e51b815260206004820152600a6024820152696f6e6c79566f74696e6760b01b60448201526064016104d0565b7f4910fdfa16fed3260ed0e7147f7cc6da11a60208b5b9406d12a635614ffd91435460ff1615611423576113a483611848565b826001600160a01b03166352d1902d6040518163ffffffff1660e01b8152600401602060405180830381865afa92505050801561147d575060408051601f3d908101601f1916820190925261147a9181019061297c565b60015b6114e05760405162461bcd60e51b815260206004820152602e60248201527f45524331393637557067726164653a206e657720696d706c656d656e7461746960448201526d6f6e206973206e6f74205555505360901b60648201526084016104d0565b600080516020612a11833981519152811461154f5760405162461bcd60e51b815260206004820152602960248201527f45524331393637557067726164653a20756e737570706f727465642070726f786044820152681a58589b195555525160ba1b60648201526084016104d0565b506113a48383836118e4565b60408051808201825260008082526020918201528151808301909252825182529182019181019190915290565b606061159382611909565b61159c57600080fd5b60006115a783611942565b905060008167ffffffffffffffff8111156115c4576115c461232d565b60405190808252806020026020018201604052801561160957816020015b60408051808201909152600080825260208201528152602001906001900390816115e25790505b509050600061161b85602001516119c5565b856020015161162a9190612793565b90506000805b848110156116935761164183611a46565b915060405180604001604052808381526020018481525084828151811061166a5761166a61267f565b602090810291909101015261167f8284612793565b92508061168b816126ab565b915050611630565b509195945050505050565b8051600090158015906116b357508151602110155b6116bc57600080fd5b6000806116c884611aef565b815191935091506020821015610ac45760208290036101000a9004949350505050565b60008060006116fb868686611b36565b9150915061170881611b6f565b5090505b9392505050565b606a546040805163af29518160e01b815290516000926001600160a01b03169163af2951819160048083019260209291908290030181865afa15801561175d573d6000803e3d6000fd5b505050506040513d601f19601f82011682018060405250810190611781919061297c565b6001600160a01b0383166000908152606b602052604090205414806117aa57506117aa82611d2a565b9050801561184357606a60009054906101000a90046001600160a01b03166001600160a01b031663af2951816040518163ffffffff1660e01b8152600401602060405180830381865afa158015611805573d6000803e3d6000fd5b505050506040513d601f19601f82011682018060405250810190611829919061297c565b6001600160a01b0383166000908152606b60205260409020555b919050565b6001600160a01b0381163b6118b55760405162461bcd60e51b815260206004820152602d60248201527f455243313936373a206e657720696d706c656d656e746174696f6e206973206e60448201526c1bdd08184818dbdb9d1c9858dd609a1b60648201526084016104d0565b600080516020612a1183398151915280546001600160a01b0319166001600160a01b0392909216919091179055565b6118ed83611da1565b6000825111806118fa5750805b156113a457610fae8383611de1565b805160009061191a57506000919050565b6020820151805160001a9060c0821015611938575060009392505050565b5060019392505050565b805160009061195357506000919050565b60008061196384602001516119c5565b84602001516119729190612793565b905060008460000151856020015161198a9190612793565b90505b808210156119bc5761199e82611a46565b6119a89083612793565b9150826119b4816126ab565b93505061198d565b50909392505050565b8051600090811a60808110156119de5750600092915050565b60b88110806119f9575060c081108015906119f9575060f881105b15611a075750600192915050565b60c0811015611a3457611a1c600160b8612995565b611a299060ff16826127ab565b61170c906001612793565b611a1c600160f8612995565b50919050565b80516000908190811a6080811015611a615760019150611ae8565b60b8811015611a8757611a756080826127ab565b611a80906001612793565b9150611ae8565b60c0811015611ab45760b78103600185019450806020036101000a85510460018201810193505050611ae8565b60f8811015611ac857611a7560c0826127ab565b60f78103600185019450806020036101000a855104600182018101935050505b5092915050565b6000806000611b0184602001516119c5565b90506000818560200151611b159190612793565b90506000828660000151611b2991906127ab565b9196919550909350505050565b6000806001600160ff1b03831681611b5360ff86901c601b612793565b9050611b6187828885611ed5565b935093505050935093915050565b6000816004811115611b8357611b836129b8565b1415611b8c5750565b6001816004811115611ba057611ba06129b8565b1415611bee5760405162461bcd60e51b815260206004820152601860248201527f45434453413a20696e76616c6964207369676e6174757265000000000000000060448201526064016104d0565b6002816004811115611c0257611c026129b8565b1415611c505760405162461bcd60e51b815260206004820152601f60248201527f45434453413a20696e76616c6964207369676e6174757265206c656e6774680060448201526064016104d0565b6003816004811115611c6457611c646129b8565b1415611cbd5760405162461bcd60e51b815260206004820152602260248201527f45434453413a20696e76616c6964207369676e6174757265202773272076616c604482015261756560f01b60648201526084016104d0565b6004816004811115611cd157611cd16129b8565b14156107d45760405162461bcd60e51b815260206004820152602260248201527f45434453413a20696e76616c6964207369676e6174757265202776272076616c604482015261756560f01b60648201526084016104d0565b606a5460405163facd743b60e01b81526001600160a01b038381166004830152600092169063facd743b906024016020604051808303816000875af1158015611d77573d6000803e3d6000fd5b505050506040513d601f19601f82011682018060405250810190611d9b91906129ce565b92915050565b611daa81611848565b6040516001600160a01b038216907fbc7cd75a20ee27fd9adebab32041f755214dbc6bffa90cc0225b39da2e5c2d3b90600090a250565b60606001600160a01b0383163b611e495760405162461bcd60e51b815260206004820152602660248201527f416464726573733a2064656c65676174652063616c6c20746f206e6f6e2d636f6044820152651b9d1c9858dd60d21b60648201526084016104d0565b600080846001600160a01b031684604051611e6491906129eb565b600060405180830381855af49150503d8060008114611e9f576040519150601f19603f3d011682016040523d82523d6000602084013e611ea4565b606091505b5091509150611ecc8282604051806060016040528060278152602001612a3160279139611fc2565b95945050505050565b6000807f7fffffffffffffffffffffffffffffff5d576e7357a4501ddfe92f46681b20a0831115611f0c5750600090506003611fb9565b8460ff16601b14158015611f2457508460ff16601c14155b15611f355750600090506004611fb9565b6040805160008082526020820180845289905260ff881692820192909252606081018690526080810185905260019060a0016020604051602081039080840390855afa158015611f89573d6000803e3d6000fd5b5050604051601f1901519150506001600160a01b038116611fb257600060019250925050611fb9565b9150600090505b94509492505050565b60608315611fd157508161170c565b825115611fe15782518084602001fd5b8160405162461bcd60e51b81526004016104d091906129fd565b828054612007906126c6565b90600052602060002090601f0160209004810192826120295760008555612076565b82601f1061203a5780548555612076565b8280016001018555821561207657600052602060002091601f016020900482015b8281111561207657825482559160010191906001019061205b565b50612082929150612187565b5090565b508054612092906126c6565b6000825580601f106120a2575050565b601f0160209004906000526020600020908101906107d49190612187565b8280546120cc906126c6565b90600052602060002090601f0160209004810192826120ee5760008555612076565b82601f1061210757805160ff1916838001178555612076565b82800160010185558215612076579182015b82811115612076578251825591602001919060010190612119565b828054828255906000526020600020908101928215612076579160200282015b828111156120765781546001600160a01b0319166001600160a01b03843516178255602090920191600190910190612154565b5b808211156120825760008155600101612188565b600080604083850312156121af57600080fd5b50508035926020909101359150565b60005b838110156121d95781810151838201526020016121c1565b83811115610fae5750506000910152565b600081518084526122028160208601602086016121be565b601f01601f19169290920160200192915050565b600081518084526020808501945080840160005b8381101561224f5781516001600160a01b03168752958201959082019060010161222a565b509495945050505050565b6000602080835260a08301845160808386015281815180845260c08701915060c08160051b8801019350848301925060005b818110156122ba5760bf198886030183526122a88585516121ea565b9450928501929185019160010161228c565b5050505081850151604085015260408501519150601f198482030160608501526122e48183612216565b915050606084015160808401528091505092915050565b80356001600160a01b038116811461184357600080fd5b60006020828403121561232457600080fd5b61170c826122fb565b634e487b7160e01b600052604160045260246000fd5b600067ffffffffffffffff8084111561235e5761235e61232d565b604051601f8501601f19908116603f011681019082821181831017156123865761238661232d565b8160405280935085815286868601111561239f57600080fd5b858560208301376000602087830101525050509392505050565b600080604083850312156123cc57600080fd5b6123d5836122fb565b9150602083013567ffffffffffffffff8111156123f157600080fd5b8301601f8101851361240257600080fd5b61241185823560208401612343565b9150509250929050565b60006020828403121561242d57600080fd5b5035919050565b60408152600061244760408301856121ea565b90508260208301529392505050565b60008060006060848603121561246b57600080fd5b505081359360208301359350604090920135919050565b6000806020838503121561249557600080fd5b823567ffffffffffffffff808211156124ad57600080fd5b818501915085601f8301126124c157600080fd5b8135818111156124d057600080fd5b8660208285010111156124e257600080fd5b60209290920196919550909350505050565b60006020808301818452808551808352604092508286019150828160051b87010184880160005b8381101561255c57888303603f190185528151805187855261253f888601826121ea565b91890151948901949094529487019492509086019060010161251b565b509098975050505050505050565b6000806040838503121561257d57600080fd5b8235915061258d602084016122fb565b90509250929050565b600080604083850312156125a957600080fd5b82359150602083013567ffffffffffffffff8111156123f157600080fd5b80151581146107d457600080fd5b6000806000606084860312156125ea57600080fd5b6125f3846122fb565b9250612601602085016122fb565b91506040840135612611816125c7565b809150509250925092565b6000806020838503121561262f57600080fd5b823567ffffffffffffffff8082111561264757600080fd5b818501915085601f83011261265b57600080fd5b81358181111561266a57600080fd5b8660208260051b85010111156124e257600080fd5b634e487b7160e01b600052603260045260246000fd5b634e487b7160e01b600052601160045260246000fd5b60006000198214156126bf576126bf612695565b5060010190565b600181811c908216806126da57607f821691505b60208210811415611a4057634e487b7160e01b600052602260045260246000fd5b6020808252602c908201527f46756e6374696f6e206d7573742062652063616c6c6564207468726f7567682060408201526b19195b1959d85d1958d85b1b60a21b606082015260800190565b6020808252602c908201527f46756e6374696f6e206d7573742062652063616c6c6564207468726f7567682060408201526b6163746976652070726f787960a01b606082015260800190565b600082198211156127a6576127a6612695565b500190565b6000828210156127bd576127bd612695565b500390565b634e487b7160e01b600052603160045260246000fd5b828152604060208201526000610ac460408301846121ea565b6000823560de1983360301811261280757600080fd5b9190910192915050565b6000808335601e1984360301811261282857600080fd5b83018035915067ffffffffffffffff82111561284357600080fd5b60200191503681900382131561285857600080fd5b9250929050565b8183823760009101908152919050565b6000808335601e1984360301811261288657600080fd5b83018035915067ffffffffffffffff8211156128a157600080fd5b6020019150600581901b360382131561285857600080fd5b858152600060208681840152604083018660005b878110156128f9576001600160a01b036128e6836122fb565b16835291830191908301906001016128cd565b50509384529092019695505050505050565b85815260806020808301829052908201859052600090869060a08401835b88811015612955576001600160a01b03612942856122fb565b1682529282019290820190600101612929565b50866040860152848103606086015261296e81876121ea565b9a9950505050505050505050565b60006020828403121561298e57600080fd5b5051919050565b600060ff821660ff8416808210156129af576129af612695565b90039392505050565b634e487b7160e01b600052602160045260246000fd5b6000602082840312156129e057600080fd5b815161170c816125c7565b600082516128078184602087016121be565b60208152600061170c60208301846121ea56fe360894a13ba1a3210667c828492db98dca3e2076cc3735a920a3ca505d382bbc416464726573733a206c6f772d6c6576656c2064656c65676174652063616c6c206661696c6564a264697066735822122061f1600607c9510e5eb686eaffccbd3e167b082e7be4085111438b53a0f10a5a64736f6c634300080a0033",
  "linkReferences": {},
  "deployedLinkReferences": {}
}