{
  "_format": "hh-sol-artifact-1",
  "contractName": "BlockHeaderRegistry",
  "sourceName": "contracts/blockRegistry/BlockHeaderRegistry.sol",
  "abi": [
    {
      "anonymous": false,
      "inputs": [
        {
          "indexed": false,
          "internalType": "address",
          "name": "previousAdmin",
          "type": "address"
        },
        {
          "indexed": false,
          "internalType": "address",
          "name": "newAdmin",
          "type": "address"
        }
      ],
      "name": "AdminChanged",
      "type": "event"
    },
    {
      "anonymous": false,
      "inputs": [
        {
          "indexed": true,
          "internalType": "address",
          "name": "beacon",
          "type": "address"
        }
      ],
      "name": "BeaconUpgraded",
      "type": "event"
    },
    {
      "anonymous": false,
      "inputs": [
        {
          "indexed": true,
          "internalType": "address",
          "name": "validator",
          "type": "address"
        },
        {
          "indexed": true,
          "internalType": "uint256",
          "name": "chainId",
          "type": "uint256"
        },
        {
          "indexed": true,
          "internalType": "uint256",
          "name": "blockNumber",
          "type": "uint256"
        },
        {
          "indexed": false,
          "internalType": "bytes32",
          "name": "payload",
          "type": "bytes32"
        },
        {
          "indexed": false,
          "internalType": "address[]",
          "name": "validators",
          "type": "address[]"
        },
        {
          "indexed": false,
          "internalType": "uint256",
          "name": "cycleEnd",
          "type": "uint256"
        },
        {
          "indexed": false,
          "internalType": "bytes",
          "name": "signature",
          "type": "bytes"
        }
      ],
      "name": "BlockAdded",
      "type": "event"
    },
    {
      "anonymous": false,
      "inputs": [
        {
          "indexed": false,
          "internalType": "uint256",
          "name": "chainId",
          "type": "uint256"
        },
        {
          "indexed": false,
          "internalType": "string",
          "name": "rpc",
          "type": "string"
        }
      ],
      "name": "BlockchainAdded",
      "type": "event"
    },
    {
      "anonymous": false,
      "inputs": [
        {
          "indexed": false,
          "internalType": "uint256",
          "name": "chainId",
          "type": "uint256"
        }
      ],
      "name": "BlockchainRemoved",
      "type": "event"
    },
    {
      "anonymous": false,
      "inputs": [
        {
          "indexed": false,
          "internalType": "uint8",
          "name": "version",
          "type": "uint8"
        }
      ],
      "name": "Initialized",
      "type": "event"
    },
    {
      "anonymous": false,
      "inputs": [
        {
          "indexed": true,
          "internalType": "address",
          "name": "implementation",
          "type": "address"
        }
      ],
      "name": "Upgraded",
      "type": "event"
    },
    {
      "inputs": [
        {
          "internalType": "uint256",
          "name": "chainId",
          "type": "uint256"
        },
        {
          "internalType": "string",
          "name": "rpc",
          "type": "string"
        }
      ],
      "name": "addBlockchain",
      "outputs": [],
      "stateMutability": "nonpayable",
      "type": "function"
    },
    {
      "inputs": [
        {
          "components": [
            {
              "internalType": "bytes",
              "name": "rlpHeader",
              "type": "bytes"
            },
            {
              "components": [
                {
                  "internalType": "bytes32",
                  "name": "r",
                  "type": "bytes32"
                },
                {
                  "internalType": "bytes32",
                  "name": "vs",
                  "type": "bytes32"
                }
              ],
              "internalType": "struct BlockHeaderRegistry.Signature",
              "name": "signature",
              "type": "tuple"
            },
            {
              "internalType": "uint256",
              "name": "chainId",
              "type": "uint256"
            },
            {
              "internalType": "bytes32",
              "name": "blockHash",
              "type": "bytes32"
            },
            {
              "internalType": "uint256",
              "name": "cycleEnd",
              "type": "uint256"
            },
            {
              "internalType": "address[]",
              "name": "validators",
              "type": "address[]"
            }
          ],
          "internalType": "struct BlockHeaderRegistry.Block[]",
          "name": "blocks",
          "type": "tuple[]"
        }
      ],
      "name": "addSignedBlocks",
      "outputs": [],
      "stateMutability": "nonpayable",
      "type": "function"
    },
    {
      "inputs": [
        {
          "internalType": "uint256",
          "name": "",
          "type": "uint256"
        },
        {
          "internalType": "uint256",
          "name": "",
          "type": "uint256"
        },
        {
          "internalType": "uint256",
          "name": "",
          "type": "uint256"
        }
      ],
      "name": "blockHashes",
      "outputs": [
        {
          "internalType": "bytes32",
          "name": "",
          "type": "bytes32"
        }
      ],
      "stateMutability": "view",
      "type": "function"
    },
    {
      "inputs": [],
      "name": "consensus",
      "outputs": [
        {
          "internalType": "address",
          "name": "",
          "type": "address"
        }
      ],
      "stateMutability": "view",
      "type": "function"
    },
    {
      "inputs": [
        {
          "internalType": "uint256",
          "name": "",
          "type": "uint256"
        }
      ],
      "name": "enabledBlockchains",
      "outputs": [
        {
          "internalType": "string",
          "name": "rpc",
          "type": "string"
        },
        {
          "internalType": "uint256",
          "name": "chainId",
          "type": "uint256"
        }
      ],
      "stateMutability": "view",
      "type": "function"
    },
    {
      "inputs": [
        {
          "internalType": "bytes32",
          "name": "payloadHash",
          "type": "bytes32"
        }
      ],
      "name": "getBlockHashByPayloadHash",
      "outputs": [
        {
          "internalType": "bytes32",
          "name": "blockHash",
          "type": "bytes32"
        }
      ],
      "stateMutability": "view",
      "type": "function"
    },
    {
      "inputs": [],
      "name": "getRPCs",
      "outputs": [
        {
          "components": [
            {
              "internalType": "string",
              "name": "rpc",
              "type": "string"
            },
            {
              "internalType": "uint256",
              "name": "chainId",
              "type": "uint256"
            }
          ],
          "internalType": "struct BlockHeaderRegistry.Blockchain[]",
          "name": "",
          "type": "tuple[]"
        }
      ],
      "stateMutability": "view",
      "type": "function"
    },
    {
      "inputs": [
        {
          "internalType": "uint256",
          "name": "chainId",
          "type": "uint256"
        },
        {
          "internalType": "uint256",
          "name": "number",
          "type": "uint256"
        }
      ],
      "name": "getSignedBlock",
      "outputs": [
        {
          "components": [
            {
              "internalType": "bytes[]",
              "name": "signatures",
              "type": "bytes[]"
            },
            {
              "internalType": "uint256",
              "name": "cycleEnd",
              "type": "uint256"
            },
            {
              "internalType": "address[]",
              "name": "validators",
              "type": "address[]"
            },
            {
              "internalType": "bytes32",
              "name": "blockHash",
              "type": "bytes32"
            }
          ],
          "internalType": "struct BlockHeaderRegistry.SignedBlock",
          "name": "signedBlock",
          "type": "tuple"
        }
      ],
      "stateMutability": "view",
      "type": "function"
    },
    {
      "inputs": [
        {
          "internalType": "bytes32",
          "name": "",
          "type": "bytes32"
        },
        {
          "internalType": "address",
          "name": "",
          "type": "address"
        }
      ],
      "name": "hasValidatorSigned",
      "outputs": [
        {
          "internalType": "bool",
          "name": "",
          "type": "bool"
        }
      ],
      "stateMutability": "view",
      "type": "function"
    },
    {
      "inputs": [
        {
          "internalType": "address",
          "name": "_voting",
          "type": "address"
        },
        {
          "internalType": "address",
          "name": "_consensus",
          "type": "address"
        },
        {
          "internalType": "bool",
          "name": "_isEventsOnly",
          "type": "bool"
        }
      ],
      "name": "initialize",
      "outputs": [],
      "stateMutability": "nonpayable",
      "type": "function"
    },
    {
      "inputs": [],
      "name": "isEventsOnly",
      "outputs": [
        {
          "internalType": "bool",
          "name": "",
          "type": "bool"
        }
      ],
      "stateMutability": "view",
      "type": "function"
    },
    {
      "inputs": [
        {
          "internalType": "bytes",
          "name": "rlpHeader",
          "type": "bytes"
        }
      ],
      "name": "parseRLPBlockNumber",
      "outputs": [
        {
          "internalType": "uint256",
          "name": "blockNumber",
          "type": "uint256"
        }
      ],
      "stateMutability": "pure",
      "type": "function"
    },
    {
      "inputs": [],
      "name": "proxiableUUID",
      "outputs": [
        {
          "internalType": "bytes32",
          "name": "",
          "type": "bytes32"
        }
      ],
      "stateMutability": "view",
      "type": "function"
    },
    {
      "inputs": [
        {
          "internalType": "bytes32",
          "name": "",
          "type": "bytes32"
        }
      ],
      "name": "signedBlocks",
      "outputs": [
        {
          "internalType": "uint256",
          "name": "cycleEnd",
          "type": "uint256"
        },
        {
          "internalType": "bytes32",
          "name": "blockHash",
          "type": "bytes32"
        }
      ],
      "stateMutability": "view",
      "type": "function"
    },
    {
      "inputs": [
        {
          "internalType": "address",
          "name": "newImplementation",
          "type": "address"
        }
      ],
      "name": "upgradeTo",
      "outputs": [],
      "stateMutability": "nonpayable",
      "type": "function"
    },
    {
      "inputs": [
        {
          "internalType": "address",
          "name": "newImplementation",
          "type": "address"
        },
        {
          "internalType": "bytes",
          "name": "data",
          "type": "bytes"
        }
      ],
      "name": "upgradeToAndCall",
      "outputs": [],
      "stateMutability": "payable",
      "type": "function"
    },
    {
      "inputs": [],
      "name": "voting",
      "outputs": [
        {
          "internalType": "address",
          "name": "",
          "type": "address"
        }
      ],
      "stateMutability": "view",
      "type": "function"
    }
  ],
  "bytecode": "0x60a06040523060805234801561001457600080fd5b5060805161292561004c600039600081816106ca0152818161070a015281816107aa015281816107ea015261093901526129256000f3fe6080604052600436106100fe5760003560e01c80638ef3f76111610095578063dc20fa8911610064578063dc20fa89146102f5578063e4bbb5a814610315578063ed8eeee314610335578063f105a76214610355578063fce1ccca146103a157600080fd5b80638ef3f76114610230578063c6be980c14610268578063d892369114610298578063db20f3b5146102ba57600080fd5b806352d1902d116100d157806352d1902d1461019c578063631df4e4146101bf57806376e1977d146101df5780638c7b80551461021057600080fd5b8063063d5669146101035780633659cfe6146101395780634f1ef2861461015b57806352c634ec1461016e575b600080fd5b34801561010f57600080fd5b5061012361011e36600461202f565b6103c1565b60405161013091906120ed565b60405180910390f35b34801561014557600080fd5b506101596101543660046121aa565b6106bf565b005b610159610169366004612251565b61079f565b34801561017a57600080fd5b5061018e6101893660046122b3565b610870565b6040516101309291906122cc565b3480156101a857600080fd5b506101b161092c565b604051908152602001610130565b3480156101cb57600080fd5b506101b16101da3660046122ee565b6109df565b3480156101eb57600080fd5b50606a5461020090600160a01b900460ff1681565b6040519015158152602001610130565b34801561021c57600080fd5b506101b161022b36600461231a565b610a1d565b34801561023c57600080fd5b50606a54610250906001600160a01b031681565b6040516001600160a01b039091168152602001610130565b34801561027457600080fd5b506101b16102833660046122b3565b60009081526067602052604090206003015490565b3480156102a457600080fd5b506102ad610a94565b604051610130919061238c565b3480156102c657600080fd5b506102006102d5366004612402565b606560209081526000928352604080842090915290825290205460ff1681565b34801561030157600080fd5b5061015961031036600461242e565b610b8f565b34801561032157600080fd5b5061015961033036600461246d565b610e31565b34801561034157600080fd5b506101596103503660046124b4565b610f7c565b34801561036157600080fd5b5061038c6103703660046122b3565b6067602052600090815260409020600181015460039091015482565b60408051928352602083019190915201610130565b3480156103ad57600080fd5b50606954610250906001600160a01b031681565b6103ef6040518060800160405280606081526020016000815260200160608152602001600080191681525090565b600083815260666020908152604080832085845282528083208054825181850281018501909352808352919290919083018282801561044d57602002820191906000526020600020905b815481526020019060010190808311610439575b505050505090508051600014156104a15760405162461bcd60e51b81526020600482015260136024820152720bec4d8dec6d690c2e6d0cae65cd8cadccee8d606b1b60448201526064015b60405180910390fd5b6000816000815181106104b6576104b6612517565b6020908102919091018101516000818152606790925260409091205490915060015b8351811015610553576000606760008684815181106104f9576104f9612517565b60200260200101518152602001908152602001600020600001805490509050828111156105405780925084828151811061053557610535612517565b602002602001015193505b508061054b81612543565b9150506104d8565b5060008281526067602090815260408083208151815460a09481028201850190935260808101838152909491938593919285929185015b828210156106365783829060005260206000200180546105a99061255e565b80601f01602080910402602001604051908101604052809291908181526020018280546105d59061255e565b80156106225780601f106105f757610100808354040283529160200191610622565b820191906000526020600020905b81548152906001019060200180831161060557829003601f168201915b50505050508152602001906001019061058a565b50505050815260200160018201548152602001600282018054806020026020016040519081016040528092919081815260200182805480156106a157602002820191906000526020600020905b81546001600160a01b03168152600190910190602001808311610683575b50505050508152602001600382015481525050935050505092915050565b306001600160a01b037f00000000000000000000000000000000000000000000000000000000000000001614156107085760405162461bcd60e51b815260040161049890612593565b7f00000000000000000000000000000000000000000000000000000000000000006001600160a01b03166107516000805160206128a9833981519152546001600160a01b031690565b6001600160a01b0316146107775760405162461bcd60e51b8152600401610498906125df565b61078081611371565b6040805160008082526020820190925261079c918391906113b8565b50565b306001600160a01b037f00000000000000000000000000000000000000000000000000000000000000001614156107e85760405162461bcd60e51b815260040161049890612593565b7f00000000000000000000000000000000000000000000000000000000000000006001600160a01b03166108316000805160206128a9833981519152546001600160a01b031690565b6001600160a01b0316146108575760405162461bcd60e51b8152600401610498906125df565b61086082611371565b61086c828260016113b8565b5050565b6068818154811061088057600080fd5b90600052602060002090600202016000915090508060000180546108a39061255e565b80601f01602080910402602001604051908101604052809291908181526020018280546108cf9061255e565b801561091c5780601f106108f15761010080835404028352916020019161091c565b820191906000526020600020905b8154815290600101906020018083116108ff57829003601f168201915b5050505050908060010154905082565b6000306001600160a01b037f000000000000000000000000000000000000000000000000000000000000000016146109cc5760405162461bcd60e51b815260206004820152603860248201527f555550535570677261646561626c653a206d757374206e6f742062652063616c60448201527f6c6564207468726f7567682064656c656761746563616c6c00000000000000006064820152608401610498565b506000805160206128a983398151915290565b60666020528260005260406000206020528160005260406000208181548110610a0757600080fd5b9060005260206000200160009250925050505481565b600080610a67610a6285858080601f01602080910402602001604051908101604052809392919081815260200183838082843760009201919091525061152392505050565b611550565b9050610a8c81600881518110610a7f57610a7f612517565b6020026020010151611666565b949350505050565b60606068805480602002602001604051908101604052809291908181526020016000905b82821015610b865783829060005260206000209060020201604051806040016040529081600082018054610aeb9061255e565b80601f0160208091040260200160405190810160405280929190818152602001828054610b179061255e565b8015610b645780601f10610b3957610100808354040283529160200191610b64565b820191906000526020600020905b815481529060010190602001808311610b4757829003601f168201915b5050505050815260200160018201548152505081526020019060010190610ab8565b50505050905090565b6069546001600160a01b03163314610bd65760405162461bcd60e51b815260206004820152600a6024820152696f6e6c79566f74696e6760b01b6044820152606401610498565b60685460005b81811015610d91578360688281548110610bf857610bf8612517565b9060005260206000209060020201600101541415610d7f578251610d155781610c2282600161262b565b1015610c9e576068610c35600184612643565b81548110610c4557610c45612517565b906000526020600020906002020160688281548110610c6657610c66612517565b90600052602060002090600202016000820181600001908054610c889061255e565b610c93929190611e8e565b506001918201549101555b6068805480610caf57610caf61265a565b60008281526020812060001990920191600283020190610ccf8282611f19565b5060006001919091015590556040518481527f62509941575b6cd38681c5cb9b9f2e5db7f1f95db671e972ff3bbb05a49875ee906020015b60405180910390a150505050565b8260688281548110610d2957610d29612517565b90600052602060002090600202016000019080519060200190610d4d929190611f53565b507ff3300e667302dba8542aa32316477d74cb3620e37163bcb4a19d9ce0049d1d9c8484604051610d07929190612670565b80610d8981612543565b915050610bdc565b506040805180820190915260208082018590528382526068805460018101825560009190915282518051849360029093027fa2153420d844928b4421650203c77babc8b33d7f2e7b450e2966db0c220977530192610df3928492910190611f53565b506020820151816001015550507ff3300e667302dba8542aa32316477d74cb3620e37163bcb4a19d9ce0049d1d9c8484604051610d07929190612670565b600054610100900460ff1615808015610e515750600054600160ff909116105b80610e6b5750303b158015610e6b575060005460ff166001145b610ece5760405162461bcd60e51b815260206004820152602e60248201527f496e697469616c697a61626c653a20636f6e747261637420697320616c72656160448201526d191e481a5b9a5d1a585b1a5e995960921b6064820152608401610498565b6000805460ff191660011790558015610ef1576000805461ff0019166101001790555b606980546001600160a01b0319166001600160a01b0386811691909117909155606a80549185166001600160a81b031990921691909117600160a01b841515021790558015610f76576000805461ff0019169055604051600181527f7f26b83ff96e1f2b6a682f133852f6798a09c465da95921460cefb384740249890602001610d07565b50505050565b60005b8181101561136c5736838383818110610f9a57610f9a612517565b9050602002810190610fac9190612689565b90506000610fba82806126a9565b604051610fc89291906126f7565b60405180910390209050816080013581146110155760405162461bcd60e51b815260206004820152600d60248201526c0e4d8e090cac2c8cae490c2e6d609b1b6044820152606401610498565b6060820135607a81149060009060808501359061103560c0870187612707565b8760a0013560405160200161104e959493929190612751565b60405160208183030381529060405280519060200120905060006110d16110c2836040517f19457468657265756d205369676e6564204d6573736167653a0a3332000000006020820152603c8101829052600090605c01604051602081830303815290604052805190602001209050919050565b602087013560408801356116b3565b90506110dc816116db565b6111185760405162461bcd60e51b815260206004820152600d60248201526c3737ba103b30b634b230ba37b960991b6044820152606401610498565b600061112761022b87806126a9565b606a54909150600160a01b900460ff166112bf5760008381526065602090815260408083206001600160a01b038616845290915290205460ff16156111715750505050505061135a565b60008381526065602090815260408083206001600160a01b03861684528252808320805460ff19166001179055858352606790915290205461125557606086013560009081526066602090815260408083208484528252822080546001810182559083529120018390558380156111f6575060006111f260c0880188612707565b9050115b156112405761120860c0870187612707565b600085815260676020526040902061122592600290910191611fc7565b50600083815260676020526040902060a08701356001909101555b60008381526067602052604090206003018590555b60008381526067602090815260409182902082519092611288928a81013592918b01359101918252602082015260400190565b60408051601f198184030181529190528154600181018355600092835260209283902082516112bd9491909201920190611f53565b505b8060608701356001600160a01b0384167fbea5e0a625dfb1ce157ffaa70df88e91918faced66adc5690ed9df8ee7f8aa93866112fe60c08c018c612707565b8c60a001358d602001600001358e6020016020013560405160200161132d929190918252602082015260400190565b60408051601f198184030181529082905261134b95949392916127a3565b60405180910390a45050505050505b8061136481612543565b915050610f7f565b505050565b6069546001600160a01b0316331461079c5760405162461bcd60e51b815260206004820152600a6024820152696f6e6c79566f74696e6760b01b6044820152606401610498565b7f4910fdfa16fed3260ed0e7147f7cc6da11a60208b5b9406d12a635614ffd91435460ff16156113eb5761136c83611752565b826001600160a01b03166352d1902d6040518163ffffffff1660e01b8152600401602060405180830381865afa925050508015611445575060408051601f3d908101601f1916820190925261144291810190612814565b60015b6114a85760405162461bcd60e51b815260206004820152602e60248201527f45524331393637557067726164653a206e657720696d706c656d656e7461746960448201526d6f6e206973206e6f74205555505360901b6064820152608401610498565b6000805160206128a983398151915281146115175760405162461bcd60e51b815260206004820152602960248201527f45524331393637557067726164653a20756e737570706f727465642070726f786044820152681a58589b195555525160ba1b6064820152608401610498565b5061136c8383836117ee565b60408051808201825260008082526020918201528151808301909252825182529182019181019190915290565b606061155b82611813565b61156457600080fd5b600061156f8361184c565b905060008167ffffffffffffffff81111561158c5761158c6121c5565b6040519080825280602002602001820160405280156115d157816020015b60408051808201909152600080825260208201528152602001906001900390816115aa5790505b50905060006115e385602001516118cf565b85602001516115f2919061262b565b90506000805b8481101561165b5761160983611950565b915060405180604001604052808381526020018481525084828151811061163257611632612517565b6020908102919091010152611647828461262b565b92508061165381612543565b9150506115f8565b509195945050505050565b80516000901580159061167b57508151602110155b61168457600080fd5b600080611690846119f9565b815191935091506020821015610a8c5760208290036101000a9004949350505050565b60008060006116c3868686611a40565b915091506116d081611a79565b5090505b9392505050565b606a5460405163facd743b60e01b81526001600160a01b038381166004830152600092169063facd743b906024016020604051808303816000875af1158015611728573d6000803e3d6000fd5b505050506040513d601f19601f8201168201806040525081019061174c919061282d565b92915050565b6001600160a01b0381163b6117bf5760405162461bcd60e51b815260206004820152602d60248201527f455243313936373a206e657720696d706c656d656e746174696f6e206973206e60448201526c1bdd08184818dbdb9d1c9858dd609a1b6064820152608401610498565b6000805160206128a983398151915280546001600160a01b0319166001600160a01b0392909216919091179055565b6117f783611c34565b6000825111806118045750805b1561136c57610f768383611c74565b805160009061182457506000919050565b6020820151805160001a9060c0821015611842575060009392505050565b5060019392505050565b805160009061185d57506000919050565b60008061186d84602001516118cf565b846020015161187c919061262b565b9050600084600001518560200151611894919061262b565b90505b808210156118c6576118a882611950565b6118b2908361262b565b9150826118be81612543565b935050611897565b50909392505050565b8051600090811a60808110156118e85750600092915050565b60b8811080611903575060c08110801590611903575060f881105b156119115750600192915050565b60c081101561193e57611926600160b861284a565b6119339060ff1682612643565b6116d490600161262b565b611926600160f861284a565b50919050565b80516000908190811a608081101561196b57600191506119f2565b60b88110156119915761197f608082612643565b61198a90600161262b565b91506119f2565b60c08110156119be5760b78103600185019450806020036101000a855104600182018101935050506119f2565b60f88110156119d25761197f60c082612643565b60f78103600185019450806020036101000a855104600182018101935050505b5092915050565b6000806000611a0b84602001516118cf565b90506000818560200151611a1f919061262b565b90506000828660000151611a339190612643565b9196919550909350505050565b6000806001600160ff1b03831681611a5d60ff86901c601b61262b565b9050611a6b87828885611d68565b935093505050935093915050565b6000816004811115611a8d57611a8d61286d565b1415611a965750565b6001816004811115611aaa57611aaa61286d565b1415611af85760405162461bcd60e51b815260206004820152601860248201527f45434453413a20696e76616c6964207369676e617475726500000000000000006044820152606401610498565b6002816004811115611b0c57611b0c61286d565b1415611b5a5760405162461bcd60e51b815260206004820152601f60248201527f45434453413a20696e76616c6964207369676e6174757265206c656e677468006044820152606401610498565b6003816004811115611b6e57611b6e61286d565b1415611bc75760405162461bcd60e51b815260206004820152602260248201527f45434453413a20696e76616c6964207369676e6174757265202773272076616c604482015261756560f01b6064820152608401610498565b6004816004811115611bdb57611bdb61286d565b141561079c5760405162461bcd60e51b815260206004820152602260248201527f45434453413a20696e76616c6964207369676e6174757265202776272076616c604482015261756560f01b6064820152608401610498565b611c3d81611752565b6040516001600160a01b038216907fbc7cd75a20ee27fd9adebab32041f755214dbc6bffa90cc0225b39da2e5c2d3b90600090a250565b60606001600160a01b0383163b611cdc5760405162461bcd60e51b815260206004820152602660248201527f416464726573733a2064656c65676174652063616c6c20746f206e6f6e2d636f6044820152651b9d1c9858dd60d21b6064820152608401610498565b600080846001600160a01b031684604051611cf79190612883565b600060405180830381855af49150503d8060008114611d32576040519150601f19603f3d011682016040523d82523d6000602084013e611d37565b606091505b5091509150611d5f82826040518060600160405280602781526020016128c960279139611e55565b95945050505050565b6000807f7fffffffffffffffffffffffffffffff5d576e7357a4501ddfe92f46681b20a0831115611d9f5750600090506003611e4c565b8460ff16601b14158015611db757508460ff16601c14155b15611dc85750600090506004611e4c565b6040805160008082526020820180845289905260ff881692820192909252606081018690526080810185905260019060a0016020604051602081039080840390855afa158015611e1c573d6000803e3d6000fd5b5050604051601f1901519150506001600160a01b038116611e4557600060019250925050611e4c565b9150600090505b94509492505050565b60608315611e645750816116d4565b825115611e745782518084602001fd5b8160405162461bcd60e51b81526004016104989190612895565b828054611e9a9061255e565b90600052602060002090601f016020900481019282611ebc5760008555611f09565b82601f10611ecd5780548555611f09565b82800160010185558215611f0957600052602060002091601f016020900482015b82811115611f09578254825591600101919060010190611eee565b50611f1592915061201a565b5090565b508054611f259061255e565b6000825580601f10611f35575050565b601f01602090049060005260206000209081019061079c919061201a565b828054611f5f9061255e565b90600052602060002090601f016020900481019282611f815760008555611f09565b82601f10611f9a57805160ff1916838001178555611f09565b82800160010185558215611f09579182015b82811115611f09578251825591602001919060010190611fac565b828054828255906000526020600020908101928215611f09579160200282015b82811115611f095781546001600160a01b0319166001600160a01b03843516178255602090920191600190910190611fe7565b5b80821115611f15576000815560010161201b565b6000806040838503121561204257600080fd5b50508035926020909101359150565b60005b8381101561206c578181015183820152602001612054565b83811115610f765750506000910152565b60008151808452612095816020860160208601612051565b601f01601f19169290920160200192915050565b600081518084526020808501945080840160005b838110156120e25781516001600160a01b0316875295820195908201906001016120bd565b509495945050505050565b6000602080835260a08301845160808386015281815180845260c08701915060c08160051b8801019350848301925060005b8181101561214d5760bf1988860301835261213b85855161207d565b9450928501929185019160010161211f565b5050505081850151604085015260408501519150601f1984820301606085015261217781836120a9565b915050606084015160808401528091505092915050565b80356001600160a01b03811681146121a557600080fd5b919050565b6000602082840312156121bc57600080fd5b6116d48261218e565b634e487b7160e01b600052604160045260246000fd5b600067ffffffffffffffff808411156121f6576121f66121c5565b604051601f8501601f19908116603f0116810190828211818310171561221e5761221e6121c5565b8160405280935085815286868601111561223757600080fd5b858560208301376000602087830101525050509392505050565b6000806040838503121561226457600080fd5b61226d8361218e565b9150602083013567ffffffffffffffff81111561228957600080fd5b8301601f8101851361229a57600080fd5b6122a9858235602084016121db565b9150509250929050565b6000602082840312156122c557600080fd5b5035919050565b6040815260006122df604083018561207d565b90508260208301529392505050565b60008060006060848603121561230357600080fd5b505081359360208301359350604090920135919050565b6000806020838503121561232d57600080fd5b823567ffffffffffffffff8082111561234557600080fd5b818501915085601f83011261235957600080fd5b81358181111561236857600080fd5b86602082850101111561237a57600080fd5b60209290920196919550909350505050565b60006020808301818452808551808352604092508286019150828160051b87010184880160005b838110156123f457888303603f19018552815180518785526123d78886018261207d565b9189015194890194909452948701949250908601906001016123b3565b509098975050505050505050565b6000806040838503121561241557600080fd5b823591506124256020840161218e565b90509250929050565b6000806040838503121561244157600080fd5b82359150602083013567ffffffffffffffff81111561228957600080fd5b801515811461079c57600080fd5b60008060006060848603121561248257600080fd5b61248b8461218e565b92506124996020850161218e565b915060408401356124a98161245f565b809150509250925092565b600080602083850312156124c757600080fd5b823567ffffffffffffffff808211156124df57600080fd5b818501915085601f8301126124f357600080fd5b81358181111561250257600080fd5b8660208260051b850101111561237a57600080fd5b634e487b7160e01b600052603260045260246000fd5b634e487b7160e01b600052601160045260246000fd5b60006000198214156125575761255761252d565b5060010190565b600181811c9082168061257257607f821691505b6020821081141561194a57634e487b7160e01b600052602260045260246000fd5b6020808252602c908201527f46756e6374696f6e206d7573742062652063616c6c6564207468726f7567682060408201526b19195b1959d85d1958d85b1b60a21b606082015260800190565b6020808252602c908201527f46756e6374696f6e206d7573742062652063616c6c6564207468726f7567682060408201526b6163746976652070726f787960a01b606082015260800190565b6000821982111561263e5761263e61252d565b500190565b6000828210156126555761265561252d565b500390565b634e487b7160e01b600052603160045260246000fd5b828152604060208201526000610a8c604083018461207d565b6000823560de1983360301811261269f57600080fd5b9190910192915050565b6000808335601e198436030181126126c057600080fd5b83018035915067ffffffffffffffff8211156126db57600080fd5b6020019150368190038213156126f057600080fd5b9250929050565b8183823760009101908152919050565b6000808335601e1984360301811261271e57600080fd5b83018035915067ffffffffffffffff82111561273957600080fd5b6020019150600581901b36038213156126f057600080fd5b858152600060208681840152604083018660005b87811015612791576001600160a01b0361277e8361218e565b1683529183019190830190600101612765565b50509384529092019695505050505050565b85815260806020808301829052908201859052600090869060a08401835b888110156127ed576001600160a01b036127da8561218e565b16825292820192908201906001016127c1565b508660408601528481036060860152612806818761207d565b9a9950505050505050505050565b60006020828403121561282657600080fd5b5051919050565b60006020828403121561283f57600080fd5b81516116d48161245f565b600060ff821660ff8416808210156128645761286461252d565b90039392505050565b634e487b7160e01b600052602160045260246000fd5b6000825161269f818460208701612051565b6020815260006116d4602083018461207d56fe360894a13ba1a3210667c828492db98dca3e2076cc3735a920a3ca505d382bbc416464726573733a206c6f772d6c6576656c2064656c65676174652063616c6c206661696c6564a2646970667358221220d3ec618c2cdf3f552b72bc46734441ff845fb7e2c10aebecade3281134743fbe64736f6c634300080a0033",
  "linkReferences": {},
  "deployedLinkReferences": {}
}