{
  "_format": "hh-sol-artifact-1",
  "contractName": "ConsensusMock",
  "sourceName": "contracts/test/ConsensusMock.sol",
  "abi": [
    {
      "inputs": [
        {
          "internalType": "address[]",
          "name": "signers",
          "type": "address[]"
        }
      ],
      "stateMutability": "nonpayable",
      "type": "constructor"
    },
    {
      "inputs": [
        {
          "internalType": "uint256",
          "name": "",
          "type": "uint256"
        }
      ],
      "name": "currentValidators",
      "outputs": [
        {
          "internalType": "address",
          "name": "",
          "type": "address"
        }
      ],
      "stateMutability": "view",
      "type": "function"
    },
    {
      "inputs": [],
      "name": "getCurrentCycleEndBlock",
      "outputs": [
        {
          "internalType": "uint256",
          "name": "",
          "type": "uint256"
        }
      ],
      "stateMutability": "view",
      "type": "function"
    },
    {
      "inputs": [],
      "name": "getCurrentCycleStartBlock",
      "outputs": [
        {
          "internalType": "uint256",
          "name": "",
          "type": "uint256"
        }
      ],
      "stateMutability": "view",
      "type": "function"
    },
    {
      "inputs": [],
      "name": "getValidators",
      "outputs": [
        {
          "internalType": "address[]",
          "name": "",
          "type": "address[]"
        }
      ],
      "stateMutability": "view",
      "type": "function"
    },
    {
      "inputs": [
        {
          "internalType": "address",
          "name": "",
          "type": "address"
        }
      ],
      "name": "isValidator",
      "outputs": [
        {
          "internalType": "bool",
          "name": "",
          "type": "bool"
        }
      ],
      "stateMutability": "view",
      "type": "function"
    }
  ],
  "bytecode": "0x60806040523480156200001157600080fd5b50604051620009c3380380620009c3833981810160405281019062000037919062000391565b60005b81518160ff161015620000d4576001600080848460ff1681518110620000655762000064620003e2565b5b602002602001015173ffffffffffffffffffffffffffffffffffffffff1673ffffffffffffffffffffffffffffffffffffffff16815260200190815260200160002060006101000a81548160ff0219169083151502179055508080620000cb906200044d565b9150506200003a565b508060019080519060200190620000ed929190620000f5565b50506200047c565b82805482825590600052602060002090810192821562000171579160200282015b82811115620001705782518260006101000a81548173ffffffffffffffffffffffffffffffffffffffff021916908373ffffffffffffffffffffffffffffffffffffffff1602179055509160200191906001019062000116565b5b50905062000180919062000184565b5090565b5b808211156200019f57600081600090555060010162000185565b5090565b6000604051905090565b600080fd5b600080fd5b600080fd5b6000601f19601f8301169050919050565b7f4e487b7100000000000000000000000000000000000000000000000000000000600052604160045260246000fd5b6200020782620001bc565b810181811067ffffffffffffffff82111715620002295762000228620001cd565b5b80604052505050565b60006200023e620001a3565b90506200024c8282620001fc565b919050565b600067ffffffffffffffff8211156200026f576200026e620001cd565b5b602082029050602081019050919050565b600080fd5b600073ffffffffffffffffffffffffffffffffffffffff82169050919050565b6000620002b28262000285565b9050919050565b620002c481620002a5565b8114620002d057600080fd5b50565b600081519050620002e481620002b9565b92915050565b600062000301620002fb8462000251565b62000232565b9050808382526020820190506020840283018581111562000327576200032662000280565b5b835b818110156200035457806200033f8882620002d3565b84526020840193505060208101905062000329565b5050509392505050565b600082601f830112620003765762000375620001b7565b5b815162000388848260208601620002ea565b91505092915050565b600060208284031215620003aa57620003a9620001ad565b5b600082015167ffffffffffffffff811115620003cb57620003ca620001b2565b5b620003d9848285016200035e565b91505092915050565b7f4e487b7100000000000000000000000000000000000000000000000000000000600052603260045260246000fd5b7f4e487b7100000000000000000000000000000000000000000000000000000000600052601160045260246000fd5b600060ff82169050919050565b60006200045a8262000440565b915060ff82141562000471576200047062000411565b5b600182019050919050565b610537806200048c6000396000f3fe608060405234801561001057600080fd5b50600436106100575760003560e01c8063900eb5a81461005c578063932781d61461008c578063af295181146100aa578063b7ab4db5146100c8578063facd743b146100e6575b600080fd5b6100766004803603810190610071919061025a565b610116565b60405161008391906102c8565b60405180910390f35b610094610155565b6040516100a191906102f2565b60405180910390f35b6100b261015d565b6040516100bf91906102f2565b60405180910390f35b6100d0610171565b6040516100dd91906103cb565b60405180910390f35b61010060048036038101906100fb9190610419565b6101ff565b60405161010d9190610461565b60405180910390f35b6001818154811061012657600080fd5b906000526020600020016000915054906101000a900473ffffffffffffffffffffffffffffffffffffffff1681565b600043905090565b600060644361016c91906104ab565b905090565b606060018054806020026020016040519081016040528092919081815260200182805480156101f557602002820191906000526020600020905b8160009054906101000a900473ffffffffffffffffffffffffffffffffffffffff1673ffffffffffffffffffffffffffffffffffffffff16815260200190600101908083116101ab575b5050505050905090565b60006020528060005260406000206000915054906101000a900460ff1681565b600080fd5b6000819050919050565b61023781610224565b811461024257600080fd5b50565b6000813590506102548161022e565b92915050565b6000602082840312156102705761026f61021f565b5b600061027e84828501610245565b91505092915050565b600073ffffffffffffffffffffffffffffffffffffffff82169050919050565b60006102b282610287565b9050919050565b6102c2816102a7565b82525050565b60006020820190506102dd60008301846102b9565b92915050565b6102ec81610224565b82525050565b600060208201905061030760008301846102e3565b92915050565b600081519050919050565b600082825260208201905092915050565b6000819050602082019050919050565b610342816102a7565b82525050565b60006103548383610339565b60208301905092915050565b6000602082019050919050565b60006103788261030d565b6103828185610318565b935061038d83610329565b8060005b838110156103be5781516103a58882610348565b97506103b083610360565b925050600181019050610391565b5085935050505092915050565b600060208201905081810360008301526103e5818461036d565b905092915050565b6103f6816102a7565b811461040157600080fd5b50565b600081359050610413816103ed565b92915050565b60006020828403121561042f5761042e61021f565b5b600061043d84828501610404565b91505092915050565b60008115159050919050565b61045b81610446565b82525050565b60006020820190506104766000830184610452565b92915050565b7f4e487b7100000000000000000000000000000000000000000000000000000000600052601160045260246000fd5b60006104b682610224565b91506104c183610224565b9250827fffffffffffffffffffffffffffffffffffffffffffffffffffffffffffffffff038211156104f6576104f561047c565b5b82820190509291505056fea264697066735822122060a2ab3eab8fe95ab44dc08318340a66f41c0c42969dc77a93989247a78a782364736f6c634300080a0033",
  "linkReferences": {},
  "deployedLinkReferences": {}
}