{
  "_format": "hh-sol-artifact-1",
  "contractName": "TokenBridge",
  "sourceName": "contracts/bridge/TokenBridge.sol",
  "abi": [
    {
      "inputs": [
        {
          "internalType": "address[]",
          "name": "_validators",
          "type": "address[]"
        },
        {
          "internalType": "uint256",
          "name": "_cycleEnd",
          "type": "uint256"
        },
        {
          "internalType": "address[]",
          "name": "_requiredValidators",
          "type": "address[]"
        },
        {
          "internalType": "uint32",
          "name": "_consensusRatio",
          "type": "uint32"
        },
        {
          "internalType": "address",
          "name": "_bridgedToken",
          "type": "address"
        },
        {
          "components": [
            {
              "internalType": "uint256",
              "name": "minFee",
              "type": "uint256"
            },
            {
              "internalType": "uint256",
              "name": "maxFee",
              "type": "uint256"
            },
            {
              "internalType": "uint256",
              "name": "fee",
              "type": "uint256"
            }
          ],
          "internalType": "struct TokenBridge.BridgeFees",
          "name": "_fees",
          "type": "tuple"
        },
        {
          "components": [
            {
              "internalType": "uint256",
              "name": "dailyLimit",
              "type": "uint256"
            },
            {
              "internalType": "uint256",
              "name": "txLimit",
              "type": "uint256"
            },
            {
              "internalType": "uint256",
              "name": "accountDailyLimit",
              "type": "uint256"
            },
            {
              "internalType": "uint256",
              "name": "minAmount",
              "type": "uint256"
            },
            {
              "internalType": "bool",
              "name": "onlyWhitelisted",
              "type": "bool"
            }
          ],
          "internalType": "struct TokenBridge.BridgeLimits",
          "name": "_limits",
          "type": "tuple"
        },
        {
          "internalType": "contract IFaucet",
          "name": "_faucet",
          "type": "address"
        },
        {
          "internalType": "contract INameService",
          "name": "_nameService",
          "type": "address"
        }
      ],
      "stateMutability": "nonpayable",
      "type": "constructor"
    },
    {
      "anonymous": false,
      "inputs": [
        {
          "indexed": true,
          "internalType": "address",
          "name": "from",
          "type": "address"
        },
        {
          "indexed": true,
          "internalType": "address",
          "name": "to",
          "type": "address"
        },
        {
          "indexed": false,
          "internalType": "uint256",
          "name": "targetChainId",
          "type": "uint256"
        },
        {
          "indexed": false,
          "internalType": "uint256",
          "name": "amount",
          "type": "uint256"
        },
        {
          "indexed": false,
          "internalType": "bool",
          "name": "withRelay",
          "type": "bool"
        },
        {
          "indexed": false,
          "internalType": "uint256",
          "name": "timestamp",
          "type": "uint256"
        },
        {
          "indexed": true,
          "internalType": "uint256",
          "name": "id",
          "type": "uint256"
        }
      ],
      "name": "BridgeRequest",
      "type": "event"
    },
    {
      "anonymous": false,
      "inputs": [
        {
          "indexed": true,
          "internalType": "address",
          "name": "from",
          "type": "address"
        },
        {
          "indexed": true,
          "internalType": "address",
          "name": "to",
          "type": "address"
        },
        {
          "indexed": false,
          "internalType": "address",
          "name": "relayer",
          "type": "address"
        },
        {
          "indexed": false,
          "internalType": "uint256",
          "name": "amount",
          "type": "uint256"
        },
        {
          "indexed": false,
          "internalType": "uint256",
          "name": "fee",
          "type": "uint256"
        },
        {
          "indexed": false,
          "internalType": "uint256",
          "name": "sourceChainId",
          "type": "uint256"
        },
        {
          "indexed": false,
          "internalType": "uint256",
          "name": "sourceBlockNumber",
          "type": "uint256"
        },
        {
          "indexed": true,
          "internalType": "uint256",
          "name": "id",
          "type": "uint256"
        }
      ],
      "name": "ExecutedTransfer",
      "type": "event"
    },
    {
      "anonymous": false,
      "inputs": [
        {
          "indexed": true,
          "internalType": "address",
          "name": "previousOwner",
          "type": "address"
        },
        {
          "indexed": true,
          "internalType": "address",
          "name": "newOwner",
          "type": "address"
        }
      ],
      "name": "OwnershipTransferred",
      "type": "event"
    },
    {
      "inputs": [],
      "name": "BRIDGE_TOPIC",
      "outputs": [
        {
          "internalType": "bytes32",
          "name": "",
          "type": "bytes32"
        }
      ],
      "stateMutability": "view",
      "type": "function"
    },
    {
      "inputs": [
        {
          "internalType": "address",
          "name": "",
          "type": "address"
        }
      ],
      "name": "accountsDailyLimit",
      "outputs": [
        {
          "internalType": "uint256",
          "name": "lastTransferReset",
          "type": "uint256"
        },
        {
          "internalType": "uint256",
          "name": "bridged24Hours",
          "type": "uint256"
        }
      ],
      "stateMutability": "view",
      "type": "function"
    },
    {
      "inputs": [],
      "name": "bridgeDailyLimit",
      "outputs": [
        {
          "internalType": "uint256",
          "name": "lastTransferReset",
          "type": "uint256"
        },
        {
          "internalType": "uint256",
          "name": "bridged24Hours",
          "type": "uint256"
        }
      ],
      "stateMutability": "view",
      "type": "function"
    },
    {
      "inputs": [],
      "name": "bridgeFees",
      "outputs": [
        {
          "internalType": "uint256",
          "name": "minFee",
          "type": "uint256"
        },
        {
          "internalType": "uint256",
          "name": "maxFee",
          "type": "uint256"
        },
        {
          "internalType": "uint256",
          "name": "fee",
          "type": "uint256"
        }
      ],
      "stateMutability": "view",
      "type": "function"
    },
    {
      "inputs": [],
      "name": "bridgeLimits",
      "outputs": [
        {
          "internalType": "uint256",
          "name": "dailyLimit",
          "type": "uint256"
        },
        {
          "internalType": "uint256",
          "name": "txLimit",
          "type": "uint256"
        },
        {
          "internalType": "uint256",
          "name": "accountDailyLimit",
          "type": "uint256"
        },
        {
          "internalType": "uint256",
          "name": "minAmount",
          "type": "uint256"
        },
        {
          "internalType": "bool",
          "name": "onlyWhitelisted",
          "type": "bool"
        }
      ],
      "stateMutability": "view",
      "type": "function"
    },
    {
      "inputs": [
        {
          "internalType": "address",
          "name": "target",
          "type": "address"
        },
        {
          "internalType": "uint256",
          "name": "targetChainId",
          "type": "uint256"
        },
        {
          "internalType": "uint256",
          "name": "amount",
          "type": "uint256"
        }
      ],
      "name": "bridgeTo",
      "outputs": [],
      "stateMutability": "nonpayable",
      "type": "function"
    },
    {
      "inputs": [],
      "name": "bridgedToken",
      "outputs": [
        {
          "internalType": "address",
          "name": "",
          "type": "address"
        }
      ],
      "stateMutability": "view",
      "type": "function"
    },
    {
      "inputs": [
        {
          "internalType": "address",
          "name": "from",
          "type": "address"
        },
        {
          "internalType": "uint256",
          "name": "amount",
          "type": "uint256"
        }
      ],
      "name": "canBridge",
      "outputs": [
        {
          "internalType": "bool",
          "name": "isWithinLimit",
          "type": "bool"
        },
        {
          "internalType": "string",
          "name": "error",
          "type": "string"
        }
      ],
      "stateMutability": "nonpayable",
      "type": "function"
    },
    {
      "inputs": [
        {
          "internalType": "uint256",
          "name": "",
          "type": "uint256"
        }
      ],
      "name": "chainIdToTotalBridgeFees",
      "outputs": [
        {
          "internalType": "uint256",
          "name": "",
          "type": "uint256"
        }
      ],
      "stateMutability": "view",
      "type": "function"
    },
    {
      "inputs": [
        {
          "internalType": "uint256",
          "name": "",
          "type": "uint256"
        }
      ],
      "name": "chainIdToTotalBridged",
      "outputs": [
        {
          "internalType": "uint256",
          "name": "",
          "type": "uint256"
        }
      ],
      "stateMutability": "view",
      "type": "function"
    },
    {
      "inputs": [
        {
          "internalType": "uint256",
          "name": "",
          "type": "uint256"
        }
      ],
      "name": "chainIdToTotalRelayFees",
      "outputs": [
        {
          "internalType": "uint256",
          "name": "",
          "type": "uint256"
        }
      ],
      "stateMutability": "view",
      "type": "function"
    },
    {
      "inputs": [
        {
          "internalType": "uint256",
          "name": "",
          "type": "uint256"
        }
      ],
      "name": "chainStartBlock",
      "outputs": [
        {
          "internalType": "uint256",
          "name": "bridgeStartBlock",
          "type": "uint256"
        }
      ],
      "stateMutability": "nonpayable",
      "type": "function"
    },
    {
      "inputs": [
        {
          "internalType": "uint256",
          "name": "",
          "type": "uint256"
        },
        {
          "internalType": "uint256",
          "name": "",
          "type": "uint256"
        }
      ],
      "name": "chainVerifiedBlocks",
      "outputs": [
        {
          "internalType": "bytes32",
          "name": "",
          "type": "bytes32"
        }
      ],
      "stateMutability": "view",
      "type": "function"
    },
    {
      "inputs": [
        {
          "internalType": "address",
          "name": "token",
          "type": "address"
        }
      ],
      "name": "closeBridge",
      "outputs": [],
      "stateMutability": "nonpayable",
      "type": "function"
    },
    {
      "inputs": [],
      "name": "consensusRatio",
      "outputs": [
        {
          "internalType": "uint32",
          "name": "",
          "type": "uint32"
        }
      ],
      "stateMutability": "view",
      "type": "function"
    },
    {
      "inputs": [],
      "name": "currentId",
      "outputs": [
        {
          "internalType": "uint256",
          "name": "",
          "type": "uint256"
        }
      ],
      "stateMutability": "view",
      "type": "function"
    },
    {
      "inputs": [
        {
          "internalType": "address",
          "name": "",
          "type": "address"
        }
      ],
      "name": "currentValidators",
      "outputs": [
        {
          "internalType": "uint256",
          "name": "",
          "type": "uint256"
        }
      ],
      "stateMutability": "view",
      "type": "function"
    },
    {
      "inputs": [
        {
          "internalType": "uint256",
          "name": "chainId",
          "type": "uint256"
        },
        {
          "components": [
            {
              "components": [
                {
                  "internalType": "bytes32",
                  "name": "expectedRoot",
                  "type": "bytes32"
                },
                {
                  "internalType": "bytes",
                  "name": "key",
                  "type": "bytes"
                },
                {
                  "internalType": "bytes[]",
                  "name": "proof",
                  "type": "bytes[]"
                },
                {
                  "internalType": "uint256",
                  "name": "keyIndex",
                  "type": "uint256"
                },
                {
                  "internalType": "uint256",
                  "name": "proofIndex",
                  "type": "uint256"
                },
                {
                  "internalType": "bytes",
                  "name": "expectedValue",
                  "type": "bytes"
                }
              ],
              "internalType": "struct MPT.MerkleProof[]",
              "name": "receiptProofs",
              "type": "tuple[]"
            },
            {
              "internalType": "bytes",
              "name": "blockHeaderRlp",
              "type": "bytes"
            },
            {
              "internalType": "uint256",
              "name": "blockNumber",
              "type": "uint256"
            }
          ],
          "internalType": "struct BridgeCore.BlockReceiptProofs[]",
          "name": "blocks",
          "type": "tuple[]"
        }
      ],
      "name": "executeReceipts",
      "outputs": [],
      "stateMutability": "nonpayable",
      "type": "function"
    },
    {
      "inputs": [],
      "name": "faucet",
      "outputs": [
        {
          "internalType": "contract IFaucet",
          "name": "",
          "type": "address"
        }
      ],
      "stateMutability": "view",
      "type": "function"
    },
    {
      "inputs": [],
      "name": "isClosed",
      "outputs": [
        {
          "internalType": "bool",
          "name": "",
          "type": "bool"
        }
      ],
      "stateMutability": "view",
      "type": "function"
    },
    {
      "inputs": [
        {
          "internalType": "address[]",
          "name": "signers",
          "type": "address[]"
        }
      ],
      "name": "isValidConsensus",
      "outputs": [
        {
          "internalType": "bool",
          "name": "isValid",
          "type": "bool"
        }
      ],
      "stateMutability": "nonpayable",
      "type": "function"
    },
    {
      "inputs": [],
      "name": "nameService",
      "outputs": [
        {
          "internalType": "contract INameService",
          "name": "",
          "type": "address"
        }
      ],
      "stateMutability": "view",
      "type": "function"
    },
    {
      "inputs": [],
      "name": "numRequiredValidators",
      "outputs": [
        {
          "internalType": "uint32",
          "name": "",
          "type": "uint32"
        }
      ],
      "stateMutability": "view",
      "type": "function"
    },
    {
      "inputs": [],
      "name": "numValidators",
      "outputs": [
        {
          "internalType": "uint256",
          "name": "",
          "type": "uint256"
        }
      ],
      "stateMutability": "view",
      "type": "function"
    },
    {
      "inputs": [
        {
          "internalType": "address",
          "name": "from",
          "type": "address"
        },
        {
          "internalType": "uint256",
          "name": "amount",
          "type": "uint256"
        },
        {
          "internalType": "bytes",
          "name": "data",
          "type": "bytes"
        }
      ],
      "name": "onTokenTransfer",
      "outputs": [
        {
          "internalType": "bool",
          "name": "",
          "type": "bool"
        }
      ],
      "stateMutability": "nonpayable",
      "type": "function"
    },
    {
      "inputs": [],
      "name": "owner",
      "outputs": [
        {
          "internalType": "address",
          "name": "",
          "type": "address"
        }
      ],
      "stateMutability": "view",
      "type": "function"
    },
    {
      "inputs": [
        {
          "internalType": "bytes",
          "name": "rlpHeader",
          "type": "bytes"
        }
      ],
      "name": "parseRLPToHeader",
      "outputs": [
        {
          "components": [
            {
              "internalType": "bytes32",
              "name": "parentHash",
              "type": "bytes32"
            },
            {
              "internalType": "uint256",
              "name": "number",
              "type": "uint256"
            }
          ],
          "internalType": "struct BridgeCore.BlockHeader",
          "name": "header",
          "type": "tuple"
        }
      ],
      "stateMutability": "pure",
      "type": "function"
    },
    {
      "inputs": [],
      "name": "renounceOwnership",
      "outputs": [],
      "stateMutability": "nonpayable",
      "type": "function"
    },
    {
      "inputs": [
        {
          "internalType": "address",
          "name": "",
          "type": "address"
        }
      ],
      "name": "requiredValidators",
      "outputs": [
        {
          "internalType": "uint256",
          "name": "",
          "type": "uint256"
        }
      ],
      "stateMutability": "view",
      "type": "function"
    },
    {
      "inputs": [],
      "name": "requiredValidatorsSet",
      "outputs": [
        {
          "internalType": "uint256",
          "name": "",
          "type": "uint256"
        }
      ],
      "stateMutability": "view",
      "type": "function"
    },
    {
      "inputs": [
        {
          "components": [
            {
              "internalType": "uint256",
              "name": "minFee",
              "type": "uint256"
            },
            {
              "internalType": "uint256",
              "name": "maxFee",
              "type": "uint256"
            },
            {
              "internalType": "uint256",
              "name": "fee",
              "type": "uint256"
            }
          ],
          "internalType": "struct TokenBridge.BridgeFees",
          "name": "_fees",
          "type": "tuple"
        }
      ],
      "name": "setBridgeFees",
      "outputs": [],
      "stateMutability": "nonpayable",
      "type": "function"
    },
    {
      "inputs": [
        {
          "components": [
            {
              "internalType": "uint256",
              "name": "dailyLimit",
              "type": "uint256"
            },
            {
              "internalType": "uint256",
              "name": "txLimit",
              "type": "uint256"
            },
            {
              "internalType": "uint256",
              "name": "accountDailyLimit",
              "type": "uint256"
            },
            {
              "internalType": "uint256",
              "name": "minAmount",
              "type": "uint256"
            },
            {
              "internalType": "bool",
              "name": "onlyWhitelisted",
              "type": "bool"
            }
          ],
          "internalType": "struct TokenBridge.BridgeLimits",
          "name": "_limits",
          "type": "tuple"
        }
      ],
      "name": "setBridgeLimits",
      "outputs": [],
      "stateMutability": "nonpayable",
      "type": "function"
    },
    {
      "inputs": [
        {
          "internalType": "uint32",
          "name": "_consensusRatio",
          "type": "uint32"
        }
      ],
      "name": "setConsensusRatio",
      "outputs": [],
      "stateMutability": "nonpayable",
      "type": "function"
    },
    {
      "inputs": [
        {
          "internalType": "contract IFaucet",
          "name": "_faucet",
          "type": "address"
        }
      ],
      "name": "setFaucet",
      "outputs": [],
      "stateMutability": "nonpayable",
      "type": "function"
    },
    {
      "inputs": [
        {
          "internalType": "address[]",
          "name": "validators",
          "type": "address[]"
        }
      ],
      "name": "setRequiredValidators",
      "outputs": [],
      "stateMutability": "nonpayable",
      "type": "function"
    },
    {
      "inputs": [
        {
          "internalType": "address[]",
          "name": "bridges",
          "type": "address[]"
        },
        {
          "internalType": "uint256[]",
          "name": "blockstart",
          "type": "uint256[]"
        }
      ],
      "name": "setSourceBridges",
      "outputs": [],
      "stateMutability": "nonpayable",
      "type": "function"
    },
    {
      "inputs": [
        {
          "internalType": "address",
          "name": "",
          "type": "address"
        }
      ],
      "name": "sourceBridgeToBlockstart",
      "outputs": [
        {
          "internalType": "uint256",
          "name": "",
          "type": "uint256"
        }
      ],
      "stateMutability": "view",
      "type": "function"
    },
    {
      "inputs": [
        {
          "components": [
            {
              "internalType": "uint256",
              "name": "chainId",
              "type": "uint256"
            },
            {
              "internalType": "bytes",
              "name": "rlpHeader",
              "type": "bytes"
            },
            {
              "internalType": "bytes[]",
              "name": "signatures",
              "type": "bytes[]"
            },
            {
              "internalType": "uint256",
              "name": "cycleEnd",
              "type": "uint256"
            },
            {
              "internalType": "address[]",
              "name": "validators",
              "type": "address[]"
            }
          ],
          "internalType": "struct BridgeCore.SignedBlock[]",
          "name": "signedBlocks",
          "type": "tuple[]"
        }
      ],
      "name": "submitBlocks",
      "outputs": [],
      "stateMutability": "nonpayable",
      "type": "function"
    },
    {
      "inputs": [
        {
          "components": [
            {
              "internalType": "uint256",
              "name": "chainId",
              "type": "uint256"
            },
            {
              "internalType": "bytes",
              "name": "rlpHeader",
              "type": "bytes"
            },
            {
              "internalType": "bytes[]",
              "name": "signatures",
              "type": "bytes[]"
            },
            {
              "internalType": "uint256",
              "name": "cycleEnd",
              "type": "uint256"
            },
            {
              "internalType": "address[]",
              "name": "validators",
              "type": "address[]"
            }
          ],
          "internalType": "struct BridgeCore.SignedBlock",
          "name": "blockData",
          "type": "tuple"
        },
        {
          "internalType": "uint256",
          "name": "signedBlockNumber",
          "type": "uint256"
        },
        {
          "internalType": "bytes[]",
          "name": "parentRlpHeaders",
          "type": "bytes[]"
        },
        {
          "components": [
            {
              "components": [
                {
                  "internalType": "bytes32",
                  "name": "expectedRoot",
                  "type": "bytes32"
                },
                {
                  "internalType": "bytes",
                  "name": "key",
                  "type": "bytes"
                },
                {
                  "internalType": "bytes[]",
                  "name": "proof",
                  "type": "bytes[]"
                },
                {
                  "internalType": "uint256",
                  "name": "keyIndex",
                  "type": "uint256"
                },
                {
                  "internalType": "uint256",
                  "name": "proofIndex",
                  "type": "uint256"
                },
                {
                  "internalType": "bytes",
                  "name": "expectedValue",
                  "type": "bytes"
                }
              ],
              "internalType": "struct MPT.MerkleProof[]",
              "name": "receiptProofs",
              "type": "tuple[]"
            },
            {
              "internalType": "bytes",
              "name": "blockHeaderRlp",
              "type": "bytes"
            },
            {
              "internalType": "uint256",
              "name": "blockNumber",
              "type": "uint256"
            }
          ],
          "internalType": "struct BridgeCore.BlockReceiptProofs[]",
          "name": "txs",
          "type": "tuple[]"
        }
      ],
      "name": "submitChainBlockParentsAndTxs",
      "outputs": [],
      "stateMutability": "nonpayable",
      "type": "function"
    },
    {
      "inputs": [
        {
          "internalType": "address",
          "name": "newOwner",
          "type": "address"
        }
      ],
      "name": "transferOwnership",
      "outputs": [],
      "stateMutability": "nonpayable",
      "type": "function"
    },
    {
      "inputs": [
        {
          "internalType": "bytes32",
          "name": "",
          "type": "bytes32"
        }
      ],
      "name": "usedReceipts",
      "outputs": [
        {
          "internalType": "bool",
          "name": "",
          "type": "bool"
        }
      ],
      "stateMutability": "view",
      "type": "function"
    },
    {
      "inputs": [],
      "name": "validatorsCycleEnd",
      "outputs": [
        {
          "internalType": "uint256",
          "name": "",
          "type": "uint256"
        }
      ],
      "stateMutability": "view",
      "type": "function"
    },
    {
      "inputs": [
        {
          "internalType": "uint256",
          "name": "chainId",
          "type": "uint256"
        },
        {
          "internalType": "uint256",
          "name": "childBlockNumber",
          "type": "uint256"
        },
        {
          "internalType": "bytes[]",
          "name": "parentRlpHeaders",
          "type": "bytes[]"
        },
        {
          "internalType": "bytes",
          "name": "childRlpHeader",
          "type": "bytes"
        }
      ],
      "name": "verifyParentBlocks",
      "outputs": [],
      "stateMutability": "nonpayable",
      "type": "function"
    }
  ],
  "bytecode": "0x60806040523480156200001157600080fd5b5060405162004fc438038062004fc4833981016040819052620000349162000449565b88888888620000433362000113565b6200004f848462000165565b6200005a82620001d8565b6008805463ffffffff9092166401000000000263ffffffff60201b199092169190911790555050600c80546001600160a01b039788166001600160a01b0319918216179091558551600f556020808701516010556040968701516011558551601255850151601355948401516014555060608301516015556080909201516016805491151560ff19909216919091179055601a8054918516918416919091179055601b8054919093169116179055506200057b92505050565b600580546001600160a01b038381166001600160a01b0319831681179093556040519116919082907f8be0079c531659141344cd1fd0a4f28419497f9722a3daafe3b4186f6b6457e090600090a35050565b60005b8251811015620001ce5781600160008584815181106200018c576200018c6200053b565b60200260200101516001600160a01b03166001600160a01b03168152602001908152602001600020819055508080620001c59062000551565b91505062000168565b5060045551600355565b60068054906000620001ea8362000551565b919050555060005b81518110156200025a57600654600760008484815181106200021857620002186200053b565b60200260200101516001600160a01b03166001600160a01b03168152602001908152602001600020819055508080620002519062000551565b915050620001f2565b50516008805463ffffffff191663ffffffff909216919091179055565b634e487b7160e01b600052604160045260246000fd5b6001600160a01b0381168114620002a357600080fd5b50565b8051620002b3816200028d565b919050565b600082601f830112620002ca57600080fd5b815160206001600160401b0380831115620002e957620002e962000277565b8260051b604051601f19603f8301168101818110848211171562000311576200031162000277565b6040529384528581018301938381019250878511156200033057600080fd5b83870191505b848210156200035c5781516200034c816200028d565b8352918301919083019062000336565b979650505050505050565b6000606082840312156200037a57600080fd5b604051606081016001600160401b03811182821017156200039f576200039f62000277565b80604052508091508251815260208301516020820152604083015160408201525092915050565b600060a08284031215620003d957600080fd5b60405160a081016001600160401b0381118282101715620003fe57620003fe62000277565b806040525080915082518152602083015160208201526040830151604082015260608301516060820152608083015180151581146200043c57600080fd5b6080919091015292915050565b60008060008060008060008060006101e08a8c0312156200046957600080fd5b89516001600160401b03808211156200048157600080fd5b6200048f8d838e01620002b8565b9a5060208c0151995060408c0151915080821115620004ad57600080fd5b50620004bc8c828d01620002b8565b97505060608a015163ffffffff81168114620004d757600080fd5b9550620004e760808b01620002a6565b9450620004f88b60a08c0162000367565b93506200050a8b6101008c01620003c6565b92506200051b6101a08b01620002a6565b91506200052c6101c08b01620002a6565b90509295985092959850929598565b634e487b7160e01b600052603260045260246000fd5b60006000198214156200057457634e487b7160e01b600052601160045260246000fd5b5060010190565b614a39806200058b6000396000f3fe608060405234801561001057600080fd5b50600436106102695760003560e01c8063a4c0ed3611610151578063ce2b2cf0116100c3578063de5f72fd11610087578063de5f72fd1461065f578063e00dd16114610672578063e39b32e81461067b578063ee3839371461068e578063f2fde38b146106a1578063f39e17d5146106b457600080fd5b8063ce2b2cf0146105f6578063d422794714610609578063d8b31c7714610630578063dd99014b14610643578063de55abc31461064c57600080fd5b8063b2f7667f11610115578063b2f7667f14610514578063be58d44d14610537578063c2b6b58c1461055a578063c3e6978f14610567578063c6dd812f1461058f578063c8edb049146105d657600080fd5b8063a4c0ed36146104a4578063a8b8be18146104c7578063a976acf3146104da578063a9c4b87e146104ed578063b1228a631461050157600080fd5b80634c83f9e4116101ea57806382dc737d116101ae57806382dc737d1461041a57806388a421511461042d5780638da5cb5b1461044d578063930af3541461045e57806393dec84d1461047157806394cb97991461049157600080fd5b80634c83f9e4146103b15780635c843060146103c95780635d593f8d146103dc578063715018a6146103e55780637b0240c0146103ed57600080fd5b80633886d21e116102315780633886d21e1461030e5780633cca046d146103335780633e6326fc1461034657806341686ec7146103715780634406acdd1461039157600080fd5b80631b1c62721461026e57806329b70872146102a15780633095634a146102b6578063370a4250146102d75780633811da50146102ee575b600080fd5b61028161027c366004613bd5565b6106c9565b604080518251815260209283015192810192909252015b60405180910390f35b6102b46102af366004613c17565b61073b565b005b6102c96102c4366004613ca1565b610777565b604051610298929190613d1a565b6102e060065481565b604051908152602001610298565b6102e06102fc366004613d35565b60076020526000908152604090205481565b60085461031e9063ffffffff1681565b60405163ffffffff9091168152602001610298565b6102b4610341366004613d96565b610a54565b601b54610359906001600160a01b031681565b6040516001600160a01b039091168152602001610298565b6102e061037f366004613de1565b60096020526000908152604090205481565b6102e061039f366004613d35565b60016020526000908152604090205481565b60085461031e90640100000000900463ffffffff1681565b6102b46103d7366004613fb7565b610e45565b6102e060035481565b6102b461110f565b600f546010546011546103ff92919083565b60408051938452602084019290925290820152606001610298565b6102b4610428366004614067565b611123565b6102e061043b366004613de1565b600a6020526000908152604090205481565b6005546001600160a01b0316610359565b6102b461046c3660046140c2565b611141565b6102e061047f366004613de1565b600b6020526000908152604090205481565b6102b461049f366004613d35565b611155565b6104b76104b2366004614137565b61129c565b6040519015158152602001610298565b6104b76104d53660046140c2565b6113a0565b6102b46104e8366004614192565b611576565b6102e06104fb366004613de1565b50600190565b6102b461050f3660046141f1565b611600565b601754601854610522919082565b60408051928352602083019190915201610298565b6104b7610545366004613de1565b60026020526000908152604090205460ff1681565b600e546104b79060ff1681565b6102e0610575366004614217565b600060208181529281526040808220909352908152205481565b6012546013546014546015546016546105ac949392919060ff1685565b6040805195865260208601949094529284019190915260608301521515608082015260a001610298565b6102e06105e4366004613d35565b600d6020526000908152604090205481565b6102b4610604366004614239565b611630565b610522610617366004613d35565b6019602052600090815260409020805460019091015482565b6102b461063e366004613d35565b6118e1565b6102e060045481565b6102b461065a3660046142bb565b61190b565b601a54610359906001600160a01b031681565b6102e0601c5481565b6102b461068936600461434e565b6119e1565b600c54610359906001600160a01b031681565b6102b46106af366004613d35565b611b34565b6102e06000805160206149e483398151915281565b604080518082019091526000808252602082015260006106f06106eb84611baa565b611bd7565b90506107158160008151811061070857610708614383565b6020026020010151611cec565b82528051610730908290600890811061070857610708614383565b602083015250919050565b610743611d3a565b8051601255602081015160135560408101516014556060810151601555608001516016805460ff1916911515919091179055565b600060606012600301548310156107b25750506040805180820190915260098152681b5a5b905b5bdd5b9d60ba1b6020820152600090610a4d565b60165460ff1680156107ce5750601b546001600160a01b031615155b1561090f57601b5460405163bf40fac160e01b81526020600482015260086024820152674944454e5449545960c01b60448201526000916001600160a01b03169063bf40fac1906064016020604051808303816000875af1158015610837573d6000803e3d6000fd5b505050506040513d601f19601f8201168201806040525081019061085b9190614399565b90506001600160a01b0381161561090d57604051633af32abf60e01b81526001600160a01b038681166004830152821690633af32abf906024016020604051808303816000875af11580156108b4573d6000803e3d6000fd5b505050506040513d601f19601f820116820180604052508101906108d891906143b6565b61090d57505060408051808201909152600f81526e1b9bdd081dda1a5d195b1a5cdd1959608a1b602082015260009150610a4d565b505b6013548311156109415750506040805180820190915260078152661d1e131a5b5a5d60ca1b6020820152600090610a4d565b61094e62015180426143e9565b601754101561095c5761099e565b60125460185461096d908590614400565b111561099e57505060408051808201909152600a81526919185a5b1e531a5b5a5d60b21b6020820152600090610a4d565b6001600160a01b0384166000908152601960205260409020600101546109c762015180426143e9565b6001600160a01b03861660009081526019602052604090205410156109ed5750826109fa565b6109f78482614400565b90505b601454811115610a375750506040805180820190915260118152701858d8dbdd5b9d11185a5b1e531a5b5a5d607a1b602082015260009150610a4d565b5050604080516020810190915260008152600191505b9250929050565b60005b81811015610e3f576000838383818110610a7357610a73614383565b9050602002810190610a859190614418565b610a8e90614438565b600086815260208181526040808320818501518452825290912054818301518051920191909120919250908114610b015760405162461bcd60e51b81526020600482015260126024820152710d2dcecc2d8d2c840c4d8dec6d640d0c2e6d60731b60448201526064015b60405180910390fd5b6000610b136106eb8460200151611baa565b90506000610b2d8260058151811061070857610708614383565b905060005b845151811015610e27576000898587600001518481518110610b5657610b56614383565b602002602001015160a00151604051602001610b74939291906145c7565b60408051601f1981840301815291815281516020928301206000818152600290935291205490915060ff1615610be35760405162461bcd60e51b81526020600482015260146024820152731c9958d95a5c1d08185b1c9958591e481d5cd95960621b6044820152606401610af8565b6000818152600260205260409020805460ff191660011790558551805183908110610c1057610c10614383565b6020026020010151606001516000148015610c4a57508551805183908110610c3a57610c3a614383565b6020026020010151608001516000145b610c885760405162461bcd60e51b815260206004820152600f60248201526e0dcdee840e6e8c2e4e840d2dcc8caf608b1b6044820152606401610af8565b8286600001518381518110610c9f57610c9f614383565b60200260200101516000015114610cef5760405162461bcd60e51b81526020600482015260146024820152730e4cac6cad2e0e8a4dedee840dad2e6dac2e8c6d60631b6044820152606401610af8565b610d1586600001518381518110610d0857610d08614383565b6020026020010151611d94565b610d585760405162461bcd60e51b815260206004820152601460248201527372656365697074206e6f7420696e20626c6f636b60601b6044820152606401610af8565b604086015160011115610d9f5760405162461bcd60e51b815260206004820152600f60248201526e1c9958d95a5c1d081d1bdbc81bdb19608a1b6044820152606401610af8565b610dd78a8760400151610dd289600001518681518110610dc157610dc1614383565b602002602001015160a00151611f55565b61213d565b610e145760405162461bcd60e51b815260206004820152600e60248201526d195e1958dd5d194819985a5b195960921b6044820152606401610af8565b5080610e1f816145e6565b915050610b32565b50505050508080610e37906145e6565b915050610a57565b50505050565b60005b815181101561110b576000828281518110610e6557610e65614383565b602090810291909101810151808201518051908301208151608083015160608401516040519496509294607a831494600094610ea79488949093909201614601565b60405160208183030381529060405280519060200120905060008460400151516001600160401b03811115610ede57610ede613ab4565b604051908082528060200260200182016040528015610f07578160200160208202803683370190505b50905060005b856040015151811015610ffa5760008087604001518381518110610f3357610f33614383565b6020026020010151806020019051810190610f4e9190614650565b91509150610fb3610fac866040517f19457468657265756d205369676e6564204d6573736167653a0a3332000000006020820152603c8101829052600090605c01604051602081830303815290604052805190602001209050919050565b8383612351565b848481518110610fc557610fc5614383565b60200260200101906001600160a01b031690816001600160a01b03168152505050508080610ff2906145e6565b915050610f0d565b50611004816113a0565b6110425760405162461bcd60e51b815260206004820152600f60248201526e696e76616c6964207369676e65727360881b6044820152606401610af8565b600061105186602001516106c9565b90506001816020015110156110985760405162461bcd60e51b815260206004820152600d60248201526c189b1bd8dac81d1bdbc81bdb19609a1b6044820152606401610af8565b855160009081526020818152604080832084830151845290915290208590558380156110c957506000866080015151115b80156110db5750600454816020015110155b156110f2576110f28660800151876060015161236e565b5050505050508080611103906145e6565b915050610e48565b5050565b611117611d3a565b61112160006123da565b565b61112b611d3a565b8051600f55602081015160105560400151601155565b611149611d3a565b6111528161242c565b50565b61115d611d3a565b806001600160a01b031663a9059cbb61117e6005546001600160a01b031690565b6040516370a0823160e01b81523060048201526001600160a01b038516906370a0823190602401602060405180830381865afa1580156111c2573d6000803e3d6000fd5b505050506040513d601f19601f820116820180604052508101906111e69190614674565b6040516001600160e01b031960e085901b1681526001600160a01b03909216600483015260248201526044016020604051808303816000875af1158015611231573d6000803e3d6000fd5b505050506040513d601f19601f8201168201806040525081019061125591906143b6565b61128c5760405162461bcd60e51b81526020600482015260086024820152673a3930b739b332b960c11b6044820152606401610af8565b50600e805460ff19166001179055565b600c546000906001600160a01b031633146112e55760405162461bcd60e51b81526020600482015260096024820152683737ba103a37b5b2b760b91b6044820152606401610af8565b6000806112f48486018661468d565b91509150611304878288856124c2565b33814684893042601c600081548092919061131e906145e6565b919050556040516020016113399897969594939291906146bd565b60408051808303601f190181528282528051602091820120858452908301899052600183830152426060840152905190916001600160a01b0384811692908b16916000805160206149e4833981519152919081900360800190a45060019695505050505050565b60008080805b845181101561156b5760006113bc600183614709565b90505b6000811261145a578581815181106113d9576113d9614383565b60200260200101516001600160a01b03168683815181106113fc576113fc614383565b60200260200101516001600160a01b031614156114485760405162461bcd60e51b815260206004820152600a602482015269323ab81039b4b3b732b960b11b6044820152606401610af8565b8061145281614748565b9150506113bf565b506004546001600087848151811061147457611474614383565b60200260200101516001600160a01b03166001600160a01b031681526020019081526020016000205414156114b157826114ad816145e6565b9350505b600654600760008784815181106114ca576114ca614383565b60200260200101516001600160a01b03166001600160a01b031681526020019081526020016000205414156115075781611503816145e6565b9250505b60085463ffffffff1682148015611549575060085460035460649161153b9164010000000090910463ffffffff1690614766565b611545919061479b565b8310155b1561155957506001949350505050565b80611563816145e6565b9150506113a6565b506000949350505050565b61157e611d3a565b60005b838110156115f95782828281811061159b5761159b614383565b90506020020135600d60008787858181106115b8576115b8614383565b90506020020160208101906115cd9190613d35565b6001600160a01b03168152602081019190915260400160002055806115f1816145e6565b915050611581565b5050505050565b611608611d3a565b6008805463ffffffff9092166401000000000267ffffffff0000000019909216919091179055565b6000868152602081815260408083208884529091529081902054905161165990849084906147af565b604051809103902081146116af5760405162461bcd60e51b815260206004820152601760248201527f696e76616c6964206368696c6420726c704865616465720000000000000000006044820152606401610af8565b60006116f084848080601f0160208091040260200160405190810160405280939291908181526020018383808284376000920191909152506106c992505050565b905060005b858110156118d657600087878381811061171157611711614383565b905060200281019061172391906147bf565b6040516117319291906147af565b604051809103902090508083600001511461177b5760405162461bcd60e51b815260206004820152600a6024820152691b9bdd081c185c995b9d60b21b6044820152606401610af8565b60006117de89898581811061179257611792614383565b90506020028101906117a491906147bf565b8080601f0160208091040260200160405190810160405280939291908181526020018383808284376000920191909152506106c992505050565b90506001816020015110156118255760405162461bcd60e51b815260206004820152600d60248201526c189b1bd8dac81d1bdbc81bdb19609a1b6044820152606401610af8565b60008b8152602081815260408083208483015184529091529020541580611865575060008b81526020818152604080832084830151845290915290205482145b6118a45760405162461bcd60e51b815260206004820152601060248201526f185b1c9958591e481d995c9a599a595960821b6044820152606401610af8565b60008b8152602081815260408083208483015184529091529020919091559150806118ce816145e6565b9150506116f5565b505050505050505050565b6118e9611d3a565b601a80546001600160a01b0319166001600160a01b0392909216919091179055565b600061191a6040880188614805565b905011156119b257604080516001808252818301909252600091816020015b61196b6040518060a0016040528060008152602001606081526020016060815260200160008152602001606081525090565b8152602001906001900390816119395790505090506119898761484e565b8160008151811061199c5761199c614383565b60200260200101819052506119b081610e45565b505b82156119cd576119cd863586868661060460208c018c6147bf565b6119d986358383610a54565b505050505050565b6119ed338483856124c2565b600c546040516323b872dd60e01b8152336004820152306024820152604481018390526001600160a01b03909116906323b872dd906064016020604051808303816000875af1158015611a44573d6000803e3d6000fd5b505050506040513d601f19601f82011682018060405250810190611a6891906143b6565b611aa35760405162461bcd60e51b815260206004820152600c60248201526b7472616e7366657246726f6d60a01b6044820152606401610af8565b33834684843042601c6000815480929190611abd906145e6565b91905055604051602001611ad89897969594939291906146bd565b60408051808303601f190181528282528051602091820120858452908301849052600183830152426060840152905190916001600160a01b0386169133916000805160206149e4833981519152919081900360800190a4505050565b611b3c611d3a565b6001600160a01b038116611ba15760405162461bcd60e51b815260206004820152602660248201527f4f776e61626c653a206e6577206f776e657220697320746865207a65726f206160448201526564647265737360d01b6064820152608401610af8565b611152816123da565b60408051808201825260008082526020918201528151808301909252825182529182019181019190915290565b6060611be28261267d565b611beb57600080fd5b6000611bf6836126b6565b90506000816001600160401b03811115611c1257611c12613ab4565b604051908082528060200260200182016040528015611c5757816020015b6040805180820190915260008082526020820152815260200190600190039081611c305790505b5090506000611c698560200151612739565b8560200151611c789190614400565b90506000805b84811015611ce157611c8f836127bb565b9150604051806040016040528083815260200184815250848281518110611cb857611cb8614383565b6020908102919091010152611ccd8284614400565b925080611cd9816145e6565b915050611c7e565b509195945050505050565b805160009015801590611d0157508151602110155b611d0a57600080fd5b600080611d1684612864565b815191935091506020821015611d325760208290036101000a90045b949350505050565b6005546001600160a01b031633146111215760405162461bcd60e51b815260206004820181905260248201527f4f776e61626c653a2063616c6c6572206973206e6f7420746865206f776e65726044820152606401610af8565b6000808260400151836080015181518110611db157611db1614383565b602002602001015190506000611dce611dc983611baa565b6128ab565b9050836060015160001415611e475783518251602084012014611e425760405162461bcd60e51b815260206004820152602660248201527f7665726966795472696550726f6f6620726f6f74206e6f6465206861736820696044820152651b9d985b1a5960d21b6064820152608401610af8565b611f01565b602082511015611eb4576000611e64611e5f83612917565b611cec565b85519091508114611eae5760405162461bcd60e51b81526020600482015260146024820152733b32b934b33caa3934b2a83937b7b3101e10199960611b6044820152606401610af8565b50611f01565b83518251602084012014611f015760405162461bcd60e51b81526020600482015260146024820152737665726966795472696550726f6f6620656c736560601b6044820152606401610af8565b6000611f1082600001516126b6565b90508060111415611f2d57611f2485612974565b95945050505050565b8060021415611f4057611f248286612aac565b60a08501515161156b57506001949350505050565b611f836040518060800160405280600060ff1681526020016000815260200160608152602001606081525090565b8151600090607f60f81b9084908390611f9e57611f9e614383565b01602001516001600160f81b03191611611fb6575060015b6000611fc56106eb8584612d83565b9050611fdd8160008151811061070857610708614383565b60ff1683528051611ffb908290600190811061070857610708614383565b60208401528051612026908290600290811061201957612019614383565b6020026020010151612dcf565b836040018190525060006120538260038151811061204657612046614383565b6020026020010151611bd7565b905080516001600160401b0381111561206e5761206e613ab4565b6040519080825280602002602001820160405280156120cc57816020015b6120b9604051806060016040528060006001600160a01b0316815260200160608152602001606081525090565b81526020019060019003908161208c5790505b50606085015260005b8151811015612134576121008282815181106120f3576120f3614383565b6020026020010151612e43565b8560600151828151811061211657612116614383565b6020026020010181905250808061212c906145e6565b9150506120d5565b50505050919050565b6000816000015160ff166001146121875760405162461bcd60e51b815260206004820152600e60248201526d696e76616c69642073746174757360901b6044820152606401610af8565b6000805b836060015151811015612348576000846060015182815181106121b0576121b0614383565b6020026020010151905085600d600083600001516001600160a01b03166001600160a01b031681526020019081526020016000205411156122255760405162461bcd60e51b815260206004820152600f60248201526e1c9958d95a5c1d081d1bdbc81bdb19608a1b6044820152606401610af8565b80516001600160a01b03166000908152600d6020526040902054158061227757506000805160206149e4833981519152816020015160008151811061226c5761226c614383565b602002602001015114155b156122825750612336565b6000806000836040015180602001905181019061229f919061485a565b9250925092506122ac4690565b83146122bb5750505050612336565b6001955061233184602001516001815181106122d9576122d9614383565b602002602001015160001c85602001516002815181106122fb576122fb614383565b602002602001015160001c848d8d868a6020015160038151811061232157612321614383565b602002602001015160001c612f92565b505050505b80612340816145e6565b91505061218b565b50949350505050565b6000806000612361868686613235565b915091506123488161326e565b60005b82518110156123d057816001600085848151811061239157612391614383565b60200260200101516001600160a01b03166001600160a01b031681526020019081526020016000208190555080806123c8906145e6565b915050612371565b5060045551600355565b600580546001600160a01b038381166001600160a01b0319831681179093556040519116919082907f8be0079c531659141344cd1fd0a4f28419497f9722a3daafe3b4186f6b6457e090600090a35050565b6006805490600061243c836145e6565b919050555060005b81518110156124a5576006546007600084848151811061246657612466614383565b60200260200101516001600160a01b03166001600160a01b0316815260200190815260200160002081905550808061249d906145e6565b915050612444565b50516008805463ffffffff191663ffffffff909216919091179055565b6001600160a01b0383166125095760405162461bcd60e51b815260206004820152600e60248201526d1a5b9d985b1a59081d185c99d95d60921b6044820152606401610af8565b600081116125515760405162461bcd60e51b81526020600482015260156024820152741a5b9d985b1a59081d185c99d95d10da185a5b9259605a1b6044820152606401610af8565b600e5460ff161561258d5760405162461bcd60e51b815260206004820152600660248201526518db1bdcd95960d21b6044820152606401610af8565b61259a62015180426143e9565b60175410156125ad574260175560006018555b6125ba62015180426143e9565b6001600160a01b03851660009081526019602052604090205410156125f9576001600160a01b0384166000908152601960205260408120428155600101555b6000806126068685610777565b9150915081819061262a5760405162461bcd60e51b8152600401610af89190614893565b5083601760010160008282546126409190614400565b90915550506001600160a01b03861660009081526019602052604081206001018054869290612670908490614400565b9091555050505050505050565b805160009061268e57506000919050565b6020820151805160001a9060c08210156126ac575060009392505050565b5060019392505050565b80516000906126c757506000919050565b6000806126d78460200151612739565b84602001516126e69190614400565b90506000846000015185602001516126fe9190614400565b90505b8082101561273057612712826127bb565b61271c9083614400565b915082612728816145e6565b935050612701565b50909392505050565b8051600090811a60808110156127525750600092915050565b60b881108061276d575060c0811080159061276d575060f881105b1561277b5750600192915050565b60c08110156127af57612790600160b86148a6565b61279d9060ff16826143e9565b6127a8906001614400565b9392505050565b612790600160f86148a6565b80516000908190811a60808110156127d6576001915061285d565b60b88110156127fc576127ea6080826143e9565b6127f5906001614400565b915061285d565b60c08110156128295760b78103600185019450806020036101000a8551046001820181019350505061285d565b60f881101561283d576127ea60c0826143e9565b60f78103600185019450806020036101000a855104600182018101935050505b5092915050565b60008060006128768460200151612739565b9050600081856020015161288a9190614400565b9050600082866000015161289e91906143e9565b9196919550909350505050565b60408051608081018252600091810182815260608201839052815260208101919091526128d78261267d565b6128e057600080fd5b60006128ef8360200151612739565b83602001516128fe9190614400565b6040805180820190915293845260208401525090919050565b604080518082019091526000808252602082015261293482613429565b61293d57600080fd5b6020820151600061294d826127bb565b90506129598183614400565b60209485015260408051808201909152908152928301525090565b600080826040015183608001518151811061299157612991614383565b602002602001015190508260200151518360600151106129fa5760006129ce6129bc6106eb84611baa565b60108151811061201957612019614383565b90508360a0015180519060200120818051906020012014156129f4575060019392505050565b50612a90565b60008360200151846060015181518110612a1657612a16614383565b016020015160f81c90506000612a42612a316106eb85611baa565b838151811061201957612019614383565b90508051600014612a8d576020810151855260608501805160019190612a69908390614400565b90525060808501805160019190612a81908390614400565b905250611f2485611d94565b50505b60a083015151612aa35750600192915050565b50600092915050565b600080612ac0612abb85612917565b612dcf565b90506000612ad0612abb86612917565b602083015190915060fc1c6002811415612b9457600060018451612af491906143e9565b90506000612b0685600184600061344d565b90506000612b1f8860200151896060015185600061344d565b905084805190602001208860a00151805190602001201415612b8c57808051906020012082805190602001201415612b605760019650505050505050612d7d565b80516020820120612b7083613531565b805190602001201415612b8c5760019650505050505050612d7d565b505050612d5f565b8060031415612c4a576000612bae8460008651600161344d565b602087015160608801518151929350600092612bd8929190612bd19082906143e9565b600061344d565b905083805190602001208760a00151805190602001201415612c4357808051906020012082805190602001201415612c1857600195505050505050612d7d565b80516020820120612c2883613668565b805190602001201415612c4357600195505050505050612d7d565b5050612d5f565b80612d0d57600060018451612c5f91906143e9565b90506000612c7185600184600061344d565b90506000612c8a8860200151896060015185600061344d565b9050808051906020012082805190602001201480612cbc575080516020820120612cb383613531565b80519060200120145b15612b8c5760208501518852606088018051849190612cdc908390614400565b90525060808801805160019190612cf4908390614400565b905250612d0088611d94565b9650505050505050612d7d565b8060011415612d275782516000612c71858284600161344d565b60405162461bcd60e51b815260206004820152600d60248201526c24b73b30b634b210383937b7b360991b6044820152606401610af8565b60a085015151612d755760019350505050612d7d565b600093505050505b92915050565b604080518082019091526000808252602082015260208301612da58382614400565b90506040518060400160405280848651612dbf91906143e9565b8152602001919091529392505050565b8051606090612ddd57600080fd5b600080612de984612864565b915091506000816001600160401b03811115612e0757612e07613ab4565b6040519080825280601f01601f191660200182016040528015612e31576020820181803683370190505b509050602081016123488482856137c9565b612e70604051806060016040528060006001600160a01b0316815260200160608152602001606081525090565b6000612e7b83611bd7565b9050612ea081600081518110612e9357612e93614383565b6020026020010151613849565b6001600160a01b031682528051600090612ec7908390600190811061204657612046614383565b905080516001600160401b03811115612ee257612ee2613ab4565b604051908082528060200260200182016040528015612f0b578160200160208202803683370190505b50602084015260005b8151811015612f6e576000612f3483838151811061070857610708614383565b60001b90508085602001518381518110612f5057612f50614383565b60209081029190910101525080612f66816145e6565b915050612f14565b50612f858260028151811061201957612019614383565b6040840152509092915050565b600080612fc987858015612faf5750336001600160a01b038b1614155b8015612fc45750336001600160a01b038c1614155b613863565b90925090506000612fda8284614400565b905081600a60008981526020019081526020016000206000828254612fff9190614400565b90915550506000878152600b602052604081208054859290613022908490614400565b9091555050600087815260096020526040812080548a9290613045908490614400565b909155506130549050896138de565b600c546001600160a01b031663a9059cbb8a613070848c6143e9565b6040516001600160e01b031960e085901b1681526001600160a01b03909216600483015260248201526044016020604051808303816000875af11580156130bb573d6000803e3d6000fd5b505050506040513d601f19601f820116820180604052508101906130df91906143b6565b6131165760405162461bcd60e51b81526020600482015260086024820152673a3930b739b332b960c11b6044820152606401610af8565b81156131c857600c5460405163a9059cbb60e01b8152336004820152602481018490526001600160a01b039091169063a9059cbb906044016020604051808303816000875af115801561316d573d6000803e3d6000fd5b505050506040513d601f19601f8201168201806040525081019061319191906143b6565b6131c85760405162461bcd60e51b815260206004820152600860248201526772656c617946656560c01b6044820152606401610af8565b60408051338152602081018a9052908101829052606081018890526080810187905284906001600160a01b03808c1691908d16907f8f5fb725904dff7292d34df72f578088cca0aa71767d7d82fc40b1b786ef96a79060a00160405180910390a450505050505050505050565b6000806001600160ff1b0383168161325260ff86901c601b614400565b9050613260878288856139c7565b935093505050935093915050565b6000816004811115613282576132826148c9565b141561328b5750565b600181600481111561329f5761329f6148c9565b14156132ed5760405162461bcd60e51b815260206004820152601860248201527f45434453413a20696e76616c6964207369676e617475726500000000000000006044820152606401610af8565b6002816004811115613301576133016148c9565b141561334f5760405162461bcd60e51b815260206004820152601f60248201527f45434453413a20696e76616c6964207369676e6174757265206c656e677468006044820152606401610af8565b6003816004811115613363576133636148c9565b14156133bc5760405162461bcd60e51b815260206004820152602260248201527f45434453413a20696e76616c6964207369676e6174757265202773272076616c604482015261756560f01b6064820152608401610af8565b60048160048111156133d0576133d06148c9565b14156111525760405162461bcd60e51b815260206004820152602260248201527f45434453413a20696e76616c6964207369676e6174757265202776272076616c604482015261756560f01b6064820152608401610af8565b8051805160208201516000929161343f91614400565b836020015110915050919050565b6060600061345c60208561479b565b9050600061346b6020866148df565b613476906008614766565b613482906101006143e9565b9050602060008080886001600160401b038111156134a2576134a2613ab4565b6040519080825280601f01601f1916602001820160405280156134cc576020820181803683370190505b5090508a8a01915087156134f657818401516001600160fc1b031681850152602090930192600192505b825b868110156135165782850151828601526020909401936001016134f8565b5083820151851c851b84820152505050505050949350505050565b60606000825160026135439190614766565b90506000816001600160401b0381111561355f5761355f613ab4565b6040519080825280601f01601f191660200182016040528015613589576020820181803683370190505b50905060005b8451811015613660576000806135d38784815181106135b0576135b0614383565b01602001516001600160f81b031916600481901c916001600160fc1b0390911690565b909250905081846135e5856002614766565b815181106135f5576135f5614383565b60200101906001600160f81b031916908160001a9053508084613619856002614766565b613624906001614400565b8151811061363457613634614383565b60200101906001600160f81b031916908160001a90535050508080613658906145e6565b91505061358f565b509392505050565b6060600060018351600261367c9190614766565b61368691906143e9565b90506000816001600160401b038111156136a2576136a2613ab4565b6040519080825280601f01601f1916602001820160405280156136cc576020820181803683370190505b509050836000815181106136e2576136e2614383565b602001015160f81c60f81b8160008151811061370057613700614383565b60200101906001600160f81b031916908160001a90535060015b84518110156136605760008061373b8784815181106135b0576135b0614383565b90925090508184600161374f866002614766565b61375991906143e9565b8151811061376957613769614383565b60200101906001600160f81b031916908160001a905350808461378d856002614766565b8151811061379d5761379d614383565b60200101906001600160f81b031916908160001a905350505080806137c1906145e6565b91505061371a565b806137d357505050565b6020811061380b57825182526137ea602084614400565b92506137f7602083614400565b91506138046020826143e9565b90506137d3565b801561384457600060016138208360206143e9565b61382c906101006149d7565b61383691906143e9565b845184518216911916178352505b505050565b805160009060151461385a57600080fd5b612d7d82611cec565b6000806000612710600f600201548661387c9190614766565b613886919061479b565b600f5490915081101561389b57600f5461389d565b805b6010549091508111156138b2576010546138b4565b805b90506138c160028261479b565b905080846138d05760006138d2565b815b92509250509250929050565b601a546001600160a01b0316158015906139635750601a546040516374bf77e960e11b81526001600160a01b0383811660048301529091169063e97eefd2906024016020604051808303816000875af115801561393f573d6000803e3d6000fd5b505050506040513d601f19601f8201168201806040525081019061396391906143b6565b1561115257601a546040516306ee3b9f60e31b81526001600160a01b03838116600483015290911690633771dcf890602401600060405180830381600087803b1580156139af57600080fd5b505af19250505080156139c0575060015b6111525750565b6000807f7fffffffffffffffffffffffffffffff5d576e7357a4501ddfe92f46681b20a08311156139fe5750600090506003613aab565b8460ff16601b14158015613a1657508460ff16601c14155b15613a275750600090506004613aab565b6040805160008082526020820180845289905260ff881692820192909252606081018690526080810185905260019060a0016020604051602081039080840390855afa158015613a7b573d6000803e3d6000fd5b5050604051601f1901519150506001600160a01b038116613aa457600060019250925050613aab565b9150600090505b94509492505050565b634e487b7160e01b600052604160045260246000fd5b60405160a081016001600160401b0381118282101715613aec57613aec613ab4565b60405290565b604051606081016001600160401b0381118282101715613aec57613aec613ab4565b60405160c081016001600160401b0381118282101715613aec57613aec613ab4565b604051601f8201601f191681016001600160401b0381118282101715613b5e57613b5e613ab4565b604052919050565b600082601f830112613b7757600080fd5b81356001600160401b03811115613b9057613b90613ab4565b613ba3601f8201601f1916602001613b36565b818152846020838601011115613bb857600080fd5b816020850160208301376000918101602001919091529392505050565b600060208284031215613be757600080fd5b81356001600160401b03811115613bfd57600080fd5b611d3284828501613b66565b801515811461115257600080fd5b600060a08284031215613c2957600080fd5b60405160a081018181106001600160401b0382111715613c4b57613c4b613ab4565b8060405250823581526020830135602082015260408301356040820152606083013560608201526080830135613c8081613c09565b60808201529392505050565b6001600160a01b038116811461115257600080fd5b60008060408385031215613cb457600080fd5b8235613cbf81613c8c565b946020939093013593505050565b6000815180845260005b81811015613cf357602081850181015186830182015201613cd7565b81811115613d05576000602083870101525b50601f01601f19169290920160200192915050565b8215158152604060208201526000611d326040830184613ccd565b600060208284031215613d4757600080fd5b81356127a881613c8c565b60008083601f840112613d6457600080fd5b5081356001600160401b03811115613d7b57600080fd5b6020830191508360208260051b8501011115610a4d57600080fd5b600080600060408486031215613dab57600080fd5b8335925060208401356001600160401b03811115613dc857600080fd5b613dd486828701613d52565b9497909650939450505050565b600060208284031215613df357600080fd5b5035919050565b60006001600160401b03821115613e1357613e13613ab4565b5060051b60200190565b600082601f830112613e2e57600080fd5b81356020613e43613e3e83613dfa565b613b36565b82815260059290921b84018101918181019086841115613e6257600080fd5b8286015b84811015613ea15780356001600160401b03811115613e855760008081fd5b613e938986838b0101613b66565b845250918301918301613e66565b509695505050505050565b600082601f830112613ebd57600080fd5b81356020613ecd613e3e83613dfa565b82815260059290921b84018101918181019086841115613eec57600080fd5b8286015b84811015613ea1578035613f0381613c8c565b8352918301918301613ef0565b600060a08284031215613f2257600080fd5b613f2a613aca565b90508135815260208201356001600160401b0380821115613f4a57600080fd5b613f5685838601613b66565b60208401526040840135915080821115613f6f57600080fd5b613f7b85838601613e1d565b6040840152606084013560608401526080840135915080821115613f9e57600080fd5b50613fab84828501613eac565b60808301525092915050565b60006020808385031215613fca57600080fd5b82356001600160401b0380821115613fe157600080fd5b818501915085601f830112613ff557600080fd5b8135614003613e3e82613dfa565b81815260059190911b8301840190848101908883111561402257600080fd5b8585015b8381101561405a5780358581111561403e5760008081fd5b61404c8b89838a0101613f10565b845250918601918601614026565b5098975050505050505050565b60006060828403121561407957600080fd5b604051606081018181106001600160401b038211171561409b5761409b613ab4565b80604052508235815260208301356020820152604083013560408201528091505092915050565b6000602082840312156140d457600080fd5b81356001600160401b038111156140ea57600080fd5b611d3284828501613eac565b60008083601f84011261410857600080fd5b5081356001600160401b0381111561411f57600080fd5b602083019150836020828501011115610a4d57600080fd5b6000806000806060858703121561414d57600080fd5b843561415881613c8c565b93506020850135925060408501356001600160401b0381111561417a57600080fd5b614186878288016140f6565b95989497509550505050565b600080600080604085870312156141a857600080fd5b84356001600160401b03808211156141bf57600080fd5b6141cb88838901613d52565b909650945060208701359150808211156141e457600080fd5b5061418687828801613d52565b60006020828403121561420357600080fd5b813563ffffffff811681146127a857600080fd5b6000806040838503121561422a57600080fd5b50508035926020909101359150565b6000806000806000806080878903121561425257600080fd5b863595506020870135945060408701356001600160401b038082111561427757600080fd5b6142838a838b01613d52565b9096509450606089013591508082111561429c57600080fd5b506142a989828a016140f6565b979a9699509497509295939492505050565b600080600080600080608087890312156142d457600080fd5b86356001600160401b03808211156142eb57600080fd5b9088019060a0828b0312156142ff57600080fd5b909650602088013595506040880135908082111561431c57600080fd5b6143288a838b01613d52565b9096509450606089013591508082111561434157600080fd5b506142a989828a01613d52565b60008060006060848603121561436357600080fd5b833561436e81613c8c565b95602085013595506040909401359392505050565b634e487b7160e01b600052603260045260246000fd5b6000602082840312156143ab57600080fd5b81516127a881613c8c565b6000602082840312156143c857600080fd5b81516127a881613c09565b634e487b7160e01b600052601160045260246000fd5b6000828210156143fb576143fb6143d3565b500390565b60008219821115614413576144136143d3565b500190565b60008235605e1983360301811261442e57600080fd5b9190910192915050565b6000606080833603121561444b57600080fd5b614453613af2565b83356001600160401b038082111561446a57600080fd5b9085019036601f83011261447d57600080fd5b8135602061448d613e3e83613dfa565b82815260059290921b840181019181810190368411156144ac57600080fd5b8286015b84811015614588578035868111156144c85760008081fd5b870160c036829003601f19018113156144e15760008081fd5b6144e9613b14565b8683013581526040808401358a8111156145035760008081fd5b614511368a83880101613b66565b89840152508c8401358a8111156145285760008081fd5b614536368a83880101613e1d565b8284015250506080808401358d83015260a080850135828401528385013593508a84111561456657600091508182fd5b614574368a86880101613b66565b9083015250855250509183019183016144b0565b508652508781013595508286111561459f57600080fd5b6145ab36878a01613b66565b8186015250505050604084013560408201528092505050919050565b838152826020820152606060408201526000611f246060830184613ccd565b60006000198214156145fa576145fa6143d3565b5060010190565b84815260006020858184015260408301855182870160005b8281101561463e5781516001600160a01b031684529284019290840190600101614619565b50505093845290920195945050505050565b6000806040838503121561466357600080fd5b505080516020909101519092909150565b60006020828403121561468657600080fd5b5051919050565b600080604083850312156146a057600080fd5b8235915060208301356146b281613c8c565b809150509250929050565b6001600160a01b039889168152968816602088015260408701959095526060860193909352608085019190915290931660a083015260c082019290925260e08101919091526101000190565b60008083128015600160ff1b850184121615614727576147276143d3565b6001600160ff1b0384018313811615614742576147426143d3565b50500390565b6000600160ff1b82141561475e5761475e6143d3565b506000190190565b6000816000190483118215151615614780576147806143d3565b500290565b634e487b7160e01b600052601260045260246000fd5b6000826147aa576147aa614785565b500490565b8183823760009101908152919050565b6000808335601e198436030181126147d657600080fd5b8301803591506001600160401b038211156147f057600080fd5b602001915036819003821315610a4d57600080fd5b6000808335601e1984360301811261481c57600080fd5b8301803591506001600160401b0382111561483657600080fd5b6020019150600581901b3603821315610a4d57600080fd5b6000612d7d3683613f10565b60008060006060848603121561486f57600080fd5b8351925060208401519150604084015161488881613c09565b809150509250925092565b6020815260006127a86020830184613ccd565b600060ff821660ff8416808210156148c0576148c06143d3565b90039392505050565b634e487b7160e01b600052602160045260246000fd5b6000826148ee576148ee614785565b500690565b600181815b8085111561492e578160001904821115614914576149146143d3565b8085161561492157918102915b93841c93908002906148f8565b509250929050565b60008261494557506001612d7d565b8161495257506000612d7d565b816001811461496857600281146149725761498e565b6001915050612d7d565b60ff841115614983576149836143d3565b50506001821b612d7d565b5060208310610133831016604e8410600b84101617156149b1575081810a612d7d565b6149bb83836148f3565b80600019048211156149cf576149cf6143d3565b029392505050565b60006127a8838361493656fe4246d22454f5bd543c70e6ffcca20eed2dcf09d3beef6d39e415385538b02d0aa2646970667358221220a03f19bb88f54ea8eb3f3c5bf91ab9443e1acafd27940c3e799cbb4a997c73b864736f6c634300080a0033",
  "linkReferences": {},
  "deployedLinkReferences": {}
}