{
  "_format": "hh-sol-artifact-1",
  "contractName": "TokenBridge",
  "sourceName": "contracts/bridge/TokenBridge.sol",
  "abi": [
    {
      "inputs": [
        {
          "internalType": "address[]",
          "name": "_validators",
          "type": "address[]"
        },
        {
          "internalType": "uint256",
          "name": "_cycleEnd",
          "type": "uint256"
        },
        {
          "internalType": "address[]",
          "name": "_requiredValidators",
          "type": "address[]"
        },
        {
          "internalType": "uint32",
          "name": "_consensusRatio",
          "type": "uint32"
        },
        {
          "internalType": "address",
          "name": "_bridgedToken",
          "type": "address"
        },
        {
          "components": [
            {
              "internalType": "uint256",
              "name": "minFee",
              "type": "uint256"
            },
            {
              "internalType": "uint256",
              "name": "maxFee",
              "type": "uint256"
            },
            {
              "internalType": "uint256",
              "name": "fee",
              "type": "uint256"
            }
          ],
          "internalType": "struct TokenBridge.BridgeFees",
          "name": "_fees",
          "type": "tuple"
        },
        {
          "internalType": "contract IFaucet",
          "name": "_faucet",
          "type": "address"
        }
      ],
      "stateMutability": "nonpayable",
      "type": "constructor"
    },
    {
      "anonymous": false,
      "inputs": [
        {
          "indexed": true,
          "internalType": "address",
          "name": "from",
          "type": "address"
        },
        {
          "indexed": true,
          "internalType": "address",
          "name": "to",
          "type": "address"
        },
        {
          "indexed": false,
          "internalType": "uint256",
          "name": "targetChainId",
          "type": "uint256"
        },
        {
          "indexed": false,
          "internalType": "uint256",
          "name": "amount",
          "type": "uint256"
        }
      ],
      "name": "BridgeRequest",
      "type": "event"
    },
    {
      "anonymous": false,
      "inputs": [
        {
          "indexed": true,
          "internalType": "address",
          "name": "from",
          "type": "address"
        },
        {
          "indexed": true,
          "internalType": "address",
          "name": "to",
          "type": "address"
        },
        {
          "indexed": true,
          "internalType": "address",
          "name": "relayer",
          "type": "address"
        },
        {
          "indexed": false,
          "internalType": "uint256",
          "name": "amount",
          "type": "uint256"
        },
        {
          "indexed": false,
          "internalType": "uint256",
          "name": "fee",
          "type": "uint256"
        },
        {
          "indexed": false,
          "internalType": "uint256",
          "name": "sourceChainId",
          "type": "uint256"
        },
        {
          "indexed": false,
          "internalType": "uint256",
          "name": "sourceBlockNumber",
          "type": "uint256"
        }
      ],
      "name": "ExecutedTransfer",
      "type": "event"
    },
    {
      "anonymous": false,
      "inputs": [
        {
          "indexed": true,
          "internalType": "address",
          "name": "previousOwner",
          "type": "address"
        },
        {
          "indexed": true,
          "internalType": "address",
          "name": "newOwner",
          "type": "address"
        }
      ],
      "name": "OwnershipTransferred",
      "type": "event"
    },
    {
      "inputs": [],
      "name": "BRIDGE_TOPIC",
      "outputs": [
        {
          "internalType": "bytes32",
          "name": "",
          "type": "bytes32"
        }
      ],
      "stateMutability": "view",
      "type": "function"
    },
    {
      "inputs": [],
      "name": "bridgeFees",
      "outputs": [
        {
          "internalType": "uint256",
          "name": "minFee",
          "type": "uint256"
        },
        {
          "internalType": "uint256",
          "name": "maxFee",
          "type": "uint256"
        },
        {
          "internalType": "uint256",
          "name": "fee",
          "type": "uint256"
        }
      ],
      "stateMutability": "view",
      "type": "function"
    },
    {
      "inputs": [],
      "name": "bridgeStartBlock",
      "outputs": [
        {
          "internalType": "uint256",
          "name": "",
          "type": "uint256"
        }
      ],
      "stateMutability": "view",
      "type": "function"
    },
    {
      "inputs": [
        {
          "internalType": "address",
          "name": "target",
          "type": "address"
        },
        {
          "internalType": "uint256",
          "name": "targetChainId",
          "type": "uint256"
        },
        {
          "internalType": "uint256",
          "name": "amount",
          "type": "uint256"
        }
      ],
      "name": "bridgeTo",
      "outputs": [],
      "stateMutability": "nonpayable",
      "type": "function"
    },
    {
      "inputs": [],
      "name": "bridgedToken",
      "outputs": [
        {
          "internalType": "address",
          "name": "",
          "type": "address"
        }
      ],
      "stateMutability": "view",
      "type": "function"
    },
    {
      "inputs": [
        {
          "internalType": "uint256",
          "name": "",
          "type": "uint256"
        },
        {
          "internalType": "uint256",
          "name": "",
          "type": "uint256"
        }
      ],
      "name": "chainVerifiedBlocks",
      "outputs": [
        {
          "internalType": "bytes32",
          "name": "",
          "type": "bytes32"
        }
      ],
      "stateMutability": "view",
      "type": "function"
    },
    {
      "inputs": [],
      "name": "closeBridge",
      "outputs": [],
      "stateMutability": "nonpayable",
      "type": "function"
    },
    {
      "inputs": [],
      "name": "consensusRatio",
      "outputs": [
        {
          "internalType": "uint32",
          "name": "",
          "type": "uint32"
        }
      ],
      "stateMutability": "view",
      "type": "function"
    },
    {
      "inputs": [
        {
          "internalType": "address",
          "name": "",
          "type": "address"
        }
      ],
      "name": "currentValidators",
      "outputs": [
        {
          "internalType": "uint256",
          "name": "",
          "type": "uint256"
        }
      ],
      "stateMutability": "view",
      "type": "function"
    },
    {
      "inputs": [
        {
          "internalType": "uint256",
          "name": "chainId",
          "type": "uint256"
        },
        {
          "components": [
            {
              "components": [
                {
                  "internalType": "bytes32",
                  "name": "expectedRoot",
                  "type": "bytes32"
                },
                {
                  "internalType": "bytes",
                  "name": "key",
                  "type": "bytes"
                },
                {
                  "internalType": "bytes[]",
                  "name": "proof",
                  "type": "bytes[]"
                },
                {
                  "internalType": "uint256",
                  "name": "keyIndex",
                  "type": "uint256"
                },
                {
                  "internalType": "uint256",
                  "name": "proofIndex",
                  "type": "uint256"
                },
                {
                  "internalType": "bytes",
                  "name": "expectedValue",
                  "type": "bytes"
                }
              ],
              "internalType": "struct MPT.MerkleProof[]",
              "name": "receiptProofs",
              "type": "tuple[]"
            },
            {
              "internalType": "bytes",
              "name": "blockHeaderRlp",
              "type": "bytes"
            },
            {
              "internalType": "uint256",
              "name": "blockNumber",
              "type": "uint256"
            }
          ],
          "internalType": "struct BridgeCore.BlockReceiptProofs[]",
          "name": "blocks",
          "type": "tuple[]"
        }
      ],
      "name": "executeReceipts",
      "outputs": [],
      "stateMutability": "nonpayable",
      "type": "function"
    },
    {
      "inputs": [],
      "name": "faucet",
      "outputs": [
        {
          "internalType": "contract IFaucet",
          "name": "",
          "type": "address"
        }
      ],
      "stateMutability": "view",
      "type": "function"
    },
    {
      "inputs": [],
      "name": "isClosed",
      "outputs": [
        {
          "internalType": "bool",
          "name": "",
          "type": "bool"
        }
      ],
      "stateMutability": "view",
      "type": "function"
    },
    {
      "inputs": [
        {
          "internalType": "address[]",
          "name": "signers",
          "type": "address[]"
        }
      ],
      "name": "isValidConsensus",
      "outputs": [
        {
          "internalType": "bool",
          "name": "isValid",
          "type": "bool"
        }
      ],
      "stateMutability": "nonpayable",
      "type": "function"
    },
    {
      "inputs": [],
      "name": "numRequiredValidators",
      "outputs": [
        {
          "internalType": "uint32",
          "name": "",
          "type": "uint32"
        }
      ],
      "stateMutability": "view",
      "type": "function"
    },
    {
      "inputs": [],
      "name": "numValidators",
      "outputs": [
        {
          "internalType": "uint256",
          "name": "",
          "type": "uint256"
        }
      ],
      "stateMutability": "view",
      "type": "function"
    },
    {
      "inputs": [
        {
          "internalType": "address",
          "name": "from",
          "type": "address"
        },
        {
          "internalType": "uint256",
          "name": "amount",
          "type": "uint256"
        },
        {
          "internalType": "bytes",
          "name": "data",
          "type": "bytes"
        }
      ],
      "name": "onTokenTransfer",
      "outputs": [],
      "stateMutability": "nonpayable",
      "type": "function"
    },
    {
      "inputs": [],
      "name": "owner",
      "outputs": [
        {
          "internalType": "address",
          "name": "",
          "type": "address"
        }
      ],
      "stateMutability": "view",
      "type": "function"
    },
    {
      "inputs": [
        {
          "internalType": "bytes",
          "name": "rlpHeader",
          "type": "bytes"
        }
      ],
      "name": "parseRLPToHeader",
      "outputs": [
        {
          "components": [
            {
              "internalType": "bytes32",
              "name": "parentHash",
              "type": "bytes32"
            },
            {
              "internalType": "uint256",
              "name": "number",
              "type": "uint256"
            }
          ],
          "internalType": "struct BridgeCore.BlockHeader",
          "name": "header",
          "type": "tuple"
        }
      ],
      "stateMutability": "pure",
      "type": "function"
    },
    {
      "inputs": [],
      "name": "renounceOwnership",
      "outputs": [],
      "stateMutability": "nonpayable",
      "type": "function"
    },
    {
      "inputs": [
        {
          "internalType": "address",
          "name": "",
          "type": "address"
        }
      ],
      "name": "requiredValidators",
      "outputs": [
        {
          "internalType": "uint256",
          "name": "",
          "type": "uint256"
        }
      ],
      "stateMutability": "view",
      "type": "function"
    },
    {
      "inputs": [],
      "name": "requiredValidatorsSet",
      "outputs": [
        {
          "internalType": "uint256",
          "name": "",
          "type": "uint256"
        }
      ],
      "stateMutability": "view",
      "type": "function"
    },
    {
      "inputs": [
        {
          "components": [
            {
              "internalType": "uint256",
              "name": "minFee",
              "type": "uint256"
            },
            {
              "internalType": "uint256",
              "name": "maxFee",
              "type": "uint256"
            },
            {
              "internalType": "uint256",
              "name": "fee",
              "type": "uint256"
            }
          ],
          "internalType": "struct TokenBridge.BridgeFees",
          "name": "_fees",
          "type": "tuple"
        }
      ],
      "name": "setBridgeFees",
      "outputs": [],
      "stateMutability": "nonpayable",
      "type": "function"
    },
    {
      "inputs": [
        {
          "internalType": "uint32",
          "name": "_consensusRatio",
          "type": "uint32"
        }
      ],
      "name": "setConsensusRatio",
      "outputs": [],
      "stateMutability": "nonpayable",
      "type": "function"
    },
    {
      "inputs": [
        {
          "internalType": "contract IFaucet",
          "name": "_faucet",
          "type": "address"
        }
      ],
      "name": "setFaucet",
      "outputs": [],
      "stateMutability": "nonpayable",
      "type": "function"
    },
    {
      "inputs": [
        {
          "internalType": "address[]",
          "name": "validators",
          "type": "address[]"
        }
      ],
      "name": "setRequiredValidators",
      "outputs": [],
      "stateMutability": "nonpayable",
      "type": "function"
    },
    {
      "inputs": [
        {
          "internalType": "address[]",
          "name": "bridges",
          "type": "address[]"
        }
      ],
      "name": "setSourceBridges",
      "outputs": [],
      "stateMutability": "nonpayable",
      "type": "function"
    },
    {
      "inputs": [
        {
          "internalType": "address",
          "name": "",
          "type": "address"
        }
      ],
      "name": "sourceBridges",
      "outputs": [
        {
          "internalType": "bool",
          "name": "",
          "type": "bool"
        }
      ],
      "stateMutability": "view",
      "type": "function"
    },
    {
      "inputs": [
        {
          "components": [
            {
              "internalType": "uint256",
              "name": "chainId",
              "type": "uint256"
            },
            {
              "internalType": "bytes",
              "name": "rlpHeader",
              "type": "bytes"
            },
            {
              "internalType": "bytes[]",
              "name": "signatures",
              "type": "bytes[]"
            },
            {
              "internalType": "uint256",
              "name": "cycleEnd",
              "type": "uint256"
            },
            {
              "internalType": "address[]",
              "name": "validators",
              "type": "address[]"
            }
          ],
          "internalType": "struct BridgeCore.SignedBlock[]",
          "name": "signedBlocks",
          "type": "tuple[]"
        }
      ],
      "name": "submitBlocks",
      "outputs": [],
      "stateMutability": "nonpayable",
      "type": "function"
    },
    {
      "inputs": [
        {
          "components": [
            {
              "internalType": "uint256",
              "name": "chainId",
              "type": "uint256"
            },
            {
              "internalType": "bytes",
              "name": "rlpHeader",
              "type": "bytes"
            },
            {
              "internalType": "bytes[]",
              "name": "signatures",
              "type": "bytes[]"
            },
            {
              "internalType": "uint256",
              "name": "cycleEnd",
              "type": "uint256"
            },
            {
              "internalType": "address[]",
              "name": "validators",
              "type": "address[]"
            }
          ],
          "internalType": "struct BridgeCore.SignedBlock",
          "name": "blockData",
          "type": "tuple"
        },
        {
          "internalType": "uint256",
          "name": "childBlockNumber",
          "type": "uint256"
        },
        {
          "internalType": "bytes[]",
          "name": "parentRlpHeaders",
          "type": "bytes[]"
        },
        {
          "components": [
            {
              "components": [
                {
                  "internalType": "bytes32",
                  "name": "expectedRoot",
                  "type": "bytes32"
                },
                {
                  "internalType": "bytes",
                  "name": "key",
                  "type": "bytes"
                },
                {
                  "internalType": "bytes[]",
                  "name": "proof",
                  "type": "bytes[]"
                },
                {
                  "internalType": "uint256",
                  "name": "keyIndex",
                  "type": "uint256"
                },
                {
                  "internalType": "uint256",
                  "name": "proofIndex",
                  "type": "uint256"
                },
                {
                  "internalType": "bytes",
                  "name": "expectedValue",
                  "type": "bytes"
                }
              ],
              "internalType": "struct MPT.MerkleProof[]",
              "name": "receiptProofs",
              "type": "tuple[]"
            },
            {
              "internalType": "bytes",
              "name": "blockHeaderRlp",
              "type": "bytes"
            },
            {
              "internalType": "uint256",
              "name": "blockNumber",
              "type": "uint256"
            }
          ],
          "internalType": "struct BridgeCore.BlockReceiptProofs[]",
          "name": "txs",
          "type": "tuple[]"
        }
      ],
      "name": "submitChainBlockParentsAndTxs",
      "outputs": [],
      "stateMutability": "nonpayable",
      "type": "function"
    },
    {
      "inputs": [
        {
          "internalType": "address",
          "name": "newOwner",
          "type": "address"
        }
      ],
      "name": "transferOwnership",
      "outputs": [],
      "stateMutability": "nonpayable",
      "type": "function"
    },
    {
      "inputs": [
        {
          "internalType": "bytes32",
          "name": "",
          "type": "bytes32"
        }
      ],
      "name": "usedReceipts",
      "outputs": [
        {
          "internalType": "bool",
          "name": "",
          "type": "bool"
        }
      ],
      "stateMutability": "view",
      "type": "function"
    },
    {
      "inputs": [],
      "name": "validatorsCycleEnd",
      "outputs": [
        {
          "internalType": "uint256",
          "name": "",
          "type": "uint256"
        }
      ],
      "stateMutability": "view",
      "type": "function"
    },
    {
      "inputs": [
        {
          "internalType": "uint256",
          "name": "chainId",
          "type": "uint256"
        },
        {
          "internalType": "uint256",
          "name": "childBlockNumber",
          "type": "uint256"
        },
        {
          "internalType": "bytes[]",
          "name": "parentRlpHeaders",
          "type": "bytes[]"
        },
        {
          "internalType": "bytes",
          "name": "childRlpHeader",
          "type": "bytes"
        }
      ],
      "name": "verifyParentBlocks",
      "outputs": [],
      "stateMutability": "nonpayable",
      "type": "function"
    }
  ],
  "bytecode": "0x60806040523480156200001157600080fd5b5060405162007085380380620070858339818101604052810190620000379190620006a5565b868686866200005b6200004f6200015660201b60201c565b6200015e60201b60201c565b6200006d84846200022460201b60201c565b6200007e82620002bc60201b60201c565b80600960046101000a81548163ffffffff021916908363ffffffff1602179055505050505082600960086101000a81548173ffffffffffffffffffffffffffffffffffffffff021916908373ffffffffffffffffffffffffffffffffffffffff16021790555081600c60008201518160000155602082015181600101556040820151816002015590505080600f60006101000a81548173ffffffffffffffffffffffffffffffffffffffff021916908373ffffffffffffffffffffffffffffffffffffffff1602179055505050505050505062000844565b600033905090565b6000600660009054906101000a900473ffffffffffffffffffffffffffffffffffffffff16905081600660006101000a81548173ffffffffffffffffffffffffffffffffffffffff021916908373ffffffffffffffffffffffffffffffffffffffff1602179055508173ffffffffffffffffffffffffffffffffffffffff168173ffffffffffffffffffffffffffffffffffffffff167f8be0079c531659141344cd1fd0a4f28419497f9722a3daafe3b4186f6b6457e060405160405180910390a35050565b60005b8251811015620002a85781600160008584815181106200024c576200024b62000798565b5b602002602001015173ffffffffffffffffffffffffffffffffffffffff1673ffffffffffffffffffffffffffffffffffffffff1681526020019081526020016000208190555080806200029f90620007f6565b91505062000227565b508060048190555081516003819055505050565b60076000815480929190620002d190620007f6565b919050555060005b81518110156200035c57600754600860008484815181106200030057620002ff62000798565b5b602002602001015173ffffffffffffffffffffffffffffffffffffffff1673ffffffffffffffffffffffffffffffffffffffff1681526020019081526020016000208190555080806200035390620007f6565b915050620002d9565b508051600960006101000a81548163ffffffff021916908363ffffffff16021790555050565b6000604051905090565b600080fd5b600080fd5b600080fd5b6000601f19601f8301169050919050565b7f4e487b7100000000000000000000000000000000000000000000000000000000600052604160045260246000fd5b620003e6826200039b565b810181811067ffffffffffffffff82111715620004085762000407620003ac565b5b80604052505050565b60006200041d62000382565b90506200042b8282620003db565b919050565b600067ffffffffffffffff8211156200044e576200044d620003ac565b5b602082029050602081019050919050565b600080fd5b600073ffffffffffffffffffffffffffffffffffffffff82169050919050565b6000620004918262000464565b9050919050565b620004a38162000484565b8114620004af57600080fd5b50565b600081519050620004c38162000498565b92915050565b6000620004e0620004da8462000430565b62000411565b905080838252602082019050602084028301858111156200050657620005056200045f565b5b835b818110156200053357806200051e8882620004b2565b84526020840193505060208101905062000508565b5050509392505050565b600082601f83011262000555576200055462000396565b5b815162000567848260208601620004c9565b91505092915050565b6000819050919050565b620005858162000570565b81146200059157600080fd5b50565b600081519050620005a5816200057a565b92915050565b600063ffffffff82169050919050565b620005c681620005ab565b8114620005d257600080fd5b50565b600081519050620005e681620005bb565b92915050565b600080fd5b6000606082840312156200060a5762000609620005ec565b5b62000616606062000411565b90506000620006288482850162000594565b60008301525060206200063e8482850162000594565b6020830152506040620006548482850162000594565b60408301525092915050565b60006200066d8262000484565b9050919050565b6200067f8162000660565b81146200068b57600080fd5b50565b6000815190506200069f8162000674565b92915050565b6000806000806000806000610120888a031215620006c857620006c76200038c565b5b600088015167ffffffffffffffff811115620006e957620006e862000391565b5b620006f78a828b016200053d565b97505060206200070a8a828b0162000594565b965050604088015167ffffffffffffffff8111156200072e576200072d62000391565b5b6200073c8a828b016200053d565b95505060606200074f8a828b01620005d5565b9450506080620007628a828b01620004b2565b93505060a0620007758a828b01620005f1565b925050610100620007898a828b016200068e565b91505092959891949750929550565b7f4e487b7100000000000000000000000000000000000000000000000000000000600052603260045260246000fd5b7f4e487b7100000000000000000000000000000000000000000000000000000000600052601160045260246000fd5b6000620008038262000570565b91507fffffffffffffffffffffffffffffffffffffffffffffffffffffffffffffffff821415620008395762000838620007c7565b5b600182019050919050565b61683180620008546000396000f3fe608060405234801561001057600080fd5b50600436106101fb5760003560e01c8063930af3541161011a578063ce2b2cf0116100ad578063de5f72fd1161007c578063de5f72fd1461058c578063e39b32e8146105aa578063ee383937146105c6578063f2fde38b146105e4578063f39e17d514610600576101fb565b8063ce2b2cf01461051a578063d8b31c7714610536578063dd99014b14610552578063de55abc314610570576101fb565b8063be58d44d116100e9578063be58d44d1461047e578063c2b6b58c146104ae578063c3e6978f146104cc578063c728a603146104fc576101fb565b8063930af354146103fa578063a4c0ed3614610416578063a8b8be1814610432578063b1228a6314610462576101fb565b80634406acdd11610192578063715018a611610161578063715018a6146103965780637b0240c0146103a057806382dc737d146103c05780638da5cb5b146103dc576101fb565b80634406acdd1461030e5780634c83f9e41461033e5780635c8430601461035c5780635d593f8d14610378576101fb565b8063370a4250116101ce578063370a4250146102865780633811da50146102a45780633886d21e146102d45780633cca046d146102f2576101fb565b806309d3f896146102005780631b1c62721461021c5780631b89ee311461024c5780631d3af25514610256575b600080fd5b61021a60048036038101906102159190613fc7565b61061e565b005b61023660048036038101906102319190614155565b6106cb565b60405161024391906141ff565b60405180910390f35b61025461074b565b005b610270600480360381019061026b9190614278565b6108f1565b60405161027d91906142c0565b60405180910390f35b61028e610911565b60405161029b91906142ea565b60405180910390f35b6102be60048036038101906102b99190614278565b610917565b6040516102cb91906142ea565b60405180910390f35b6102dc61092f565b6040516102e99190614324565b60405180910390f35b61030c600480360381019061030791906143c1565b610945565b005b61032860048036038101906103239190614278565b610d3d565b60405161033591906142ea565b60405180910390f35b610346610d55565b6040516103539190614324565b60405180910390f35b61037660048036038101906103719190614790565b610d6b565b005b61038061102b565b60405161038d91906142ea565b60405180910390f35b61039e611031565b005b6103a8611045565b6040516103b7939291906147d9565b60405180910390f35b6103da60048036038101906103d59190614874565b61105d565b005b6103e461108c565b6040516103f191906148b0565b60405180910390f35b610414600480360381019061040f91906148cb565b6110b6565b005b610430600480360381019061042b919061496a565b6110ca565b005b61044c600480360381019061044791906148cb565b611235565b60405161045991906142c0565b60405180910390f35b61047c60048036038101906104779190614a0a565b6114c7565b005b61049860048036038101906104939190614a63565b6114f3565b6040516104a591906142c0565b60405180910390f35b6104b6611513565b6040516104c391906142c0565b60405180910390f35b6104e660048036038101906104e19190614a90565b611526565b6040516104f39190614adf565b60405180910390f35b61050461154b565b60405161051191906142ea565b60405180910390f35b610534600480360381019061052f9190614b50565b611551565b005b610550600480360381019061054b9190614c35565b6117c2565b005b61055a61180e565b60405161056791906142ea565b60405180910390f35b61058a60048036038101906105859190614c86565b611814565b005b6105946118e4565b6040516105a19190614da8565b60405180910390f35b6105c460048036038101906105bf9190614dc3565b61190a565b005b6105ce611aad565b6040516105db91906148b0565b60405180910390f35b6105fe60048036038101906105f99190614278565b611ad3565b005b610608611b57565b6040516106159190614adf565b60405180910390f35b610626611b7b565b60005b828290508110156106c6576001600a600085858581811061064d5761064c614e16565b5b90506020020160208101906106629190614278565b73ffffffffffffffffffffffffffffffffffffffff1673ffffffffffffffffffffffffffffffffffffffff16815260200190815260200160002060006101000a81548160ff02191690831515021790555080806106be90614e74565b915050610629565b505050565b6106d3613e66565b60006106e66106e184611bf9565b611c27565b905061070c816000815181106106ff576106fe614e16565b5b6020026020010151611d3c565b60001b82600001818152505061073c8160088151811061072f5761072e614e16565b5b6020026020010151611d3c565b82602001818152505050919050565b610753611b7b565b600960089054906101000a900473ffffffffffffffffffffffffffffffffffffffff1673ffffffffffffffffffffffffffffffffffffffff1663a9059cbb61079961108c565b600960089054906101000a900473ffffffffffffffffffffffffffffffffffffffff1673ffffffffffffffffffffffffffffffffffffffff166370a08231306040518263ffffffff1660e01b81526004016107f491906148b0565b602060405180830381865afa158015610811573d6000803e3d6000fd5b505050506040513d601f19601f820116820180604052508101906108359190614ed2565b6040518363ffffffff1660e01b8152600401610852929190614eff565b6020604051808303816000875af1158015610871573d6000803e3d6000fd5b505050506040513d601f19601f820116820180604052508101906108959190614f54565b6108d4576040517f08c379a00000000000000000000000000000000000000000000000000000000081526004016108cb90614fde565b60405180910390fd5b6001600b60006101000a81548160ff021916908315150217905550565b600a6020528060005260406000206000915054906101000a900460ff1681565b60075481565b60086020528060005260406000206000915090505481565b600960009054906101000a900463ffffffff1681565b60005b82829050811015610d3757600083838381811061096857610967614e16565b5b905060200281019061097a919061500d565b610983906152a6565b9050600080600087815260200190815260200160002060008360400151815260200190815260200160002054905080826020015180519060200120146109fe576040517f08c379a00000000000000000000000000000000000000000000000000000000081526004016109f590615305565b60405180910390fd5b6000610a15610a108460200151611bf9565b611c27565b90506000610a3d82600581518110610a3057610a2f614e16565b5b6020026020010151611d3c565b60001b905060005b846000015151811015610d1f576000898587600001518481518110610a6d57610a6c614e16565b5b602002602001015160a00151604051602001610a8b939291906153ad565b604051602081830303815290604052805190602001209050600015156002600083815260200190815260200160002060009054906101000a900460ff16151514610b0a576040517f08c379a0000000000000000000000000000000000000000000000000000000008152600401610b0190615437565b60405180910390fd5b60016002600083815260200190815260200160002060006101000a81548160ff021916908315150217905550600086600001518381518110610b4f57610b4e614e16565b5b602002602001015160600151148015610b8a5750600086600001518381518110610b7c57610b7b614e16565b5b602002602001015160800151145b610bc9576040517f08c379a0000000000000000000000000000000000000000000000000000000008152600401610bc0906154a3565b60405180910390fd5b8286600001518381518110610be157610be0614e16565b5b60200260200101516000015114610c2d576040517f08c379a0000000000000000000000000000000000000000000000000000000008152600401610c249061550f565b60405180910390fd5b610c5486600001518381518110610c4757610c46614e16565b5b6020026020010151611d96565b610c93576040517f08c379a0000000000000000000000000000000000000000000000000000000008152600401610c8a9061557b565b60405180910390fd5b610ccc8a8760400151610cc789600001518681518110610cb657610cb5614e16565b5b602002602001015160a00151611f60565b61217b565b610d0b576040517f08c379a0000000000000000000000000000000000000000000000000000000008152600401610d02906155e7565b60405180910390fd5b508080610d1790614e74565b915050610a45565b50505050508080610d2f90614e74565b915050610948565b50505050565b60016020528060005260406000206000915090505481565b600960049054906101000a900463ffffffff1681565b60005b8151811015611027576000828281518110610d8c57610d8b614e16565b5b60200260200101519050600081602001518051906020012090506000607a8360000151149050600082846000015185608001518660600151604051602001610dd79493929190615701565b604051602081830303815290604052805190602001209050600084604001515167ffffffffffffffff811115610e1057610e0f61402a565b5b604051908082528060200260200182016040528015610e3e5781602001602082028036833780820191505090505b50905060005b856040015151811015610eff5760008087604001518381518110610e6b57610e6a614e16565b5b6020026020010151806020019051810190610e869190615760565b91509150610e9d610e9686612361565b8383612391565b848481518110610eb057610eaf614e16565b5b602002602001019073ffffffffffffffffffffffffffffffffffffffff16908173ffffffffffffffffffffffffffffffffffffffff168152505050508080610ef790614e74565b915050610e44565b50610f0981611235565b610f48576040517f08c379a0000000000000000000000000000000000000000000000000000000008152600401610f3f906157ec565b60405180910390fd5b6000610f5786602001516106cb565b905060055481602001511015610fa2576040517f08c379a0000000000000000000000000000000000000000000000000000000008152600401610f9990615858565b60405180910390fd5b846000808860000151815260200190815260200160002060008360200151815260200190815260200160002081905550838015610fe457506000866080015151115b8015610ff65750600454816020015110155b1561100e5761100d866080015187606001516123ba565b5b505050505050808061101f90614e74565b915050610d6e565b5050565b60035481565b611039611b7b565b611043600061244b565b565b600c8060000154908060010154908060020154905083565b611065611b7b565b80600c60008201518160000155602082015181600101556040820151816002015590505050565b6000600660009054906101000a900473ffffffffffffffffffffffffffffffffffffffff16905090565b6110be611b7b565b6110c781612511565b50565b600960089054906101000a900473ffffffffffffffffffffffffffffffffffffffff1673ffffffffffffffffffffffffffffffffffffffff163373ffffffffffffffffffffffffffffffffffffffff161461115a576040517f08c379a0000000000000000000000000000000000000000000000000000000008152600401611151906158c4565b60405180910390fd5b60001515600b60009054906101000a900460ff161515146111b0576040517f08c379a00000000000000000000000000000000000000000000000000000000081526004016111a790615930565b60405180910390fd5b60008083838101906111c2919061598e565b915091508073ffffffffffffffffffffffffffffffffffffffff168673ffffffffffffffffffffffffffffffffffffffff167f112fb14b18814e9f8ab6364318bbf6412464e49fd65b580b134d7947f33c208e84886040516112259291906159ce565b60405180910390a3505050505050565b600080600080600090505b845181101561147a5760006001826112589190615a01565b90505b600081126113195785818151811061127657611275614e16565b5b602002602001015173ffffffffffffffffffffffffffffffffffffffff168683815181106112a7576112a6614e16565b5b602002602001015173ffffffffffffffffffffffffffffffffffffffff161415611306576040517f08c379a00000000000000000000000000000000000000000000000000000000081526004016112fd90615ae1565b60405180910390fd5b808061131190615b01565b91505061125b565b506004546001600087848151811061133457611333614e16565b5b602002602001015173ffffffffffffffffffffffffffffffffffffffff1673ffffffffffffffffffffffffffffffffffffffff16815260200190815260200160002054141561138c57828061138890614e74565b9350505b600754600860008784815181106113a6576113a5614e16565b5b602002602001015173ffffffffffffffffffffffffffffffffffffffff1673ffffffffffffffffffffffffffffffffffffffff1681526020019081526020016000205414156113fe5781806113fa90614e74565b9250505b600960009054906101000a900463ffffffff1663ffffffff168214801561145657506064600960049054906101000a900463ffffffff1663ffffffff166003546114489190615b4a565b6114529190615bd3565b8310155b1561146757600193505050506114c2565b808061147290614e74565b915050611240565b506114bb6040518060400160405280601681526020017f76616c69643a2025732072657175697265643a2025730000000000000000000081525083836125ce565b6000925050505b919050565b6114cf611b7b565b80600960046101000a81548163ffffffff021916908363ffffffff16021790555050565b60026020528060005260406000206000915054906101000a900460ff1681565b600b60009054906101000a900460ff1681565b6000602052816000526040600020602052806000526040600020600091509150505481565b60055481565b600080600088815260200190815260200160002060008781526020019081526020016000205490508282604051611589929190615c34565b604051809103902081146115d2576040517f08c379a00000000000000000000000000000000000000000000000000000000081526004016115c990615c99565b60405180910390fd5b600061162184848080601f016020809104026020016040519081016040528093929190818152602001838380828437600081840152601f19601f820116905080830192505050505050506106cb565b905060005b868690508110156117b757600087878381811061164657611645614e16565b5b90506020028101906116589190615cb9565b604051611666929190615c34565b60405180910390209050808360000151146116b6576040517f08c379a00000000000000000000000000000000000000000000000000000000081526004016116ad90615d68565b60405180910390fd5b60006117288989858181106116ce576116cd614e16565b5b90506020028101906116e09190615cb9565b8080601f016020809104026020016040519081016040528093929190818152602001838380828437600081840152601f19601f820116905080830192505050505050506106cb565b905060055481602001511015611773576040517f08c379a000000000000000000000000000000000000000000000000000000000815260040161176a90615858565b60405180910390fd5b816000808d815260200190815260200160002060008360200151815260200190815260200160002081905550809350505080806117af90614e74565b915050611626565b505050505050505050565b6117ca611b7b565b80600f60006101000a81548173ffffffffffffffffffffffffffffffffffffffff021916908373ffffffffffffffffffffffffffffffffffffffff16021790555050565b60045481565b6000600167ffffffffffffffff8111156118315761183061402a565b5b60405190808252806020026020018201604052801561186a57816020015b611857613e83565b81526020019060019003908161184f5790505b5090508661187790615d88565b8160008151811061188b5761188a614e16565b5b602002602001018190525061189f81610d6b565b60008585905011156118cc576118cb87600001358787878b80602001906118c69190615cb9565b611551565b5b6118db87600001358484610945565b50505050505050565b600f60009054906101000a900473ffffffffffffffffffffffffffffffffffffffff1681565b60001515600b60009054906101000a900460ff16151514611960576040517f08c379a000000000000000000000000000000000000000000000000000000000815260040161195790615930565b60405180910390fd5b600960089054906101000a900473ffffffffffffffffffffffffffffffffffffffff1673ffffffffffffffffffffffffffffffffffffffff166323b872dd3330846040518463ffffffff1660e01b81526004016119bf93929190615d9b565b6020604051808303816000875af11580156119de573d6000803e3d6000fd5b505050506040513d601f19601f82011682018060405250810190611a029190614f54565b611a41576040517f08c379a0000000000000000000000000000000000000000000000000000000008152600401611a3890615e1e565b60405180910390fd5b8273ffffffffffffffffffffffffffffffffffffffff163373ffffffffffffffffffffffffffffffffffffffff167f112fb14b18814e9f8ab6364318bbf6412464e49fd65b580b134d7947f33c208e8484604051611aa09291906159ce565b60405180910390a3505050565b600960089054906101000a900473ffffffffffffffffffffffffffffffffffffffff1681565b611adb611b7b565b600073ffffffffffffffffffffffffffffffffffffffff168173ffffffffffffffffffffffffffffffffffffffff161415611b4b576040517f08c379a0000000000000000000000000000000000000000000000000000000008152600401611b4290615eb0565b60405180910390fd5b611b548161244b565b50565b7f112fb14b18814e9f8ab6364318bbf6412464e49fd65b580b134d7947f33c208e81565b611b8361266d565b73ffffffffffffffffffffffffffffffffffffffff16611ba161108c565b73ffffffffffffffffffffffffffffffffffffffff1614611bf7576040517f08c379a0000000000000000000000000000000000000000000000000000000008152600401611bee90615f1c565b60405180910390fd5b565b611c01613eb2565b600060208301905060405180604001604052808451815260200182815250915050919050565b6060611c3282612675565b611c3b57600080fd5b6000611c46836126c3565b905060008167ffffffffffffffff811115611c6457611c6361402a565b5b604051908082528060200260200182016040528015611c9d57816020015b611c8a613eb2565b815260200190600190039081611c825790505b5090506000611caf8560200151612751565b8560200151611cbe9190615f3c565b9050600080600090505b84811015611d2f57611cd983612810565b9150604051806040016040528083815260200184815250848281518110611d0357611d02614e16565b5b60200260200101819052508183611d1a9190615f3c565b92508080611d2790614e74565b915050611cc8565b5082945050505050919050565b6000808260000151118015611d5657506021826000015111155b611d5f57600080fd5b600080611d6b846128ec565b915091506000825190506020821015611d8b57816020036101000a810490505b809350505050919050565b6000808260400151836080015181518110611db457611db3614e16565b5b602002602001015190506000611dd1611dcc83611bf9565b612936565b9050600084606001511415611e32578360000151828051906020012014611e2d576040517f08c379a0000000000000000000000000000000000000000000000000000000008152600401611e2490616004565b60405180910390fd5b611eef565b602082511015611ea0576000611e4f611e4a8361298d565b611d3c565b60001b905084600001518114611e9a576040517f08c379a0000000000000000000000000000000000000000000000000000000008152600401611e9190616070565b60405180910390fd5b50611eee565b8360000151828051906020012014611eed576040517f08c379a0000000000000000000000000000000000000000000000000000000008152600401611ee4906160dc565b60405180910390fd5b5b5b6000611efe82600001516126c3565b90506011811415611f1c57611f12856129f0565b9350505050611f5b565b6002811415611f3957611f2f8286612b7a565b9350505050611f5b565b60008560a00151511415611f535760019350505050611f5b565b600093505050505b919050565b611f68613ecc565b6000607f60f81b7effffffffffffffffffffffffffffffffffffffffffffffffffffffffffffff191683600081518110611fa557611fa4614e16565b5b602001015160f81c60f81b7effffffffffffffffffffffffffffffffffffffffffffffffffffffffffffff191611611fdc57600190505b6000611ff9611ff48386612f4490919063ffffffff16565b611c27565b905061201f8160008151811061201257612011614e16565b5b6020026020010151611d3c565b836000019060ff16908160ff16815250506120548160018151811061204757612046614e16565b5b6020026020010151611d3c565b8360200181815250506120818160028151811061207457612073614e16565b5b6020026020010151612f8c565b836040018190525060006120af826003815181106120a2576120a1614e16565b5b6020026020010151611c27565b9050805167ffffffffffffffff8111156120cc576120cb61402a565b5b60405190808252806020026020018201604052801561210557816020015b6120f2613ef7565b8152602001906001900390816120ea5790505b50846060018190525060005b81518110156121725761213d8282815181106121305761212f614e16565b5b602002602001015161301f565b8560600151828151811061215457612153614e16565b5b6020026020010181905250808061216a90614e74565b915050612111565b50505050919050565b60006001826000015160ff16146121c7576040517f08c379a00000000000000000000000000000000000000000000000000000000081526004016121be90616148565b60405180910390fd5b6000805b836060015151811015612355576000846060015182815181106121f1576121f0614e16565b5b6020026020010151905060001515600a6000836000015173ffffffffffffffffffffffffffffffffffffffff1673ffffffffffffffffffffffffffffffffffffffff16815260200190815260200160002060009054906101000a900460ff161515148061229d57507f112fb14b18814e9f8ab6364318bbf6412464e49fd65b580b134d7947f33c208e816020015160008151811061229257612291614e16565b5b602002602001015114155b156122a85750612342565b60008082604001518060200190518101906122c39190616168565b915091506122cf6131ab565b82146122dd57505050612342565b60019450600083602001516002815181106122fb576122fa614e16565b5b602002602001015160001c90506000846020015160018151811061232257612321614e16565b5b602002602001015160001c905061233c8183858e8e6131b3565b50505050505b808061234d90614e74565b9150506121cb565b50809150509392505050565b60008160405160200161237491906161ff565b604051602081830303815290604052805190602001209050919050565b60008060006123a18686866133b6565b915091506123ae81613415565b81925050509392505050565b60005b82518110156124375781600160008584815181106123de576123dd614e16565b5b602002602001015173ffffffffffffffffffffffffffffffffffffffff1673ffffffffffffffffffffffffffffffffffffffff16815260200190815260200160002081905550808061242f90614e74565b9150506123bd565b508060048190555081516003819055505050565b6000600660009054906101000a900473ffffffffffffffffffffffffffffffffffffffff16905081600660006101000a81548173ffffffffffffffffffffffffffffffffffffffff021916908373ffffffffffffffffffffffffffffffffffffffff1602179055508173ffffffffffffffffffffffffffffffffffffffff168173ffffffffffffffffffffffffffffffffffffffff167f8be0079c531659141344cd1fd0a4f28419497f9722a3daafe3b4186f6b6457e060405160405180910390a35050565b6007600081548092919061252490614e74565b919050555060005b81518110156125a8576007546008600084848151811061254f5761254e614e16565b5b602002602001015173ffffffffffffffffffffffffffffffffffffffff1673ffffffffffffffffffffffffffffffffffffffff1681526020019081526020016000208190555080806125a090614e74565b91505061252c565b508051600960006101000a81548163ffffffff021916908363ffffffff16021790555050565b6126688383836040516024016125e693929190616269565b6040516020818303038152906040527fca47c4eb000000000000000000000000000000000000000000000000000000007bffffffffffffffffffffffffffffffffffffffffffffffffffffffff19166020820180517bffffffffffffffffffffffffffffffffffffffffffffffffffffffff83818316178352505050506135ea565b505050565b600033905090565b6000808260000151141561268c57600090506126be565b60008083602001519050805160001a915060c060ff168260ff1610156126b7576000925050506126be565b6001925050505b919050565b600080826000015114156126da576000905061274c565b6000806126ea8460200151612751565b84602001516126f99190615f3c565b90506000846000015185602001516127119190615f3c565b90505b808210156127455761272582612810565b826127309190615f3c565b9150828061273d90614e74565b935050612714565b8293505050505b919050565b600080825160001a9050608060ff1681101561277157600091505061280b565b60b860ff16811080612796575060c060ff168110158015612795575060f860ff1681105b5b156127a557600191505061280b565b60c060ff168110156127e05760018060b86127c091906162b4565b60ff16826127ce91906162e8565b6127d89190615f3c565b91505061280b565b60018060f86127ef91906162b4565b60ff16826127fd91906162e8565b6128079190615f3c565b9150505b919050565b6000806000835160001a9050608060ff1681101561283157600191506128e2565b60b860ff16811015612860576001608060ff168261284f91906162e8565b6128599190615f3c565b91506128e1565b60c060ff168110156128905760b78103600185019450806020036101000a855104600182018101935050506128e0565b60f860ff168110156128bf57600160c060ff16826128ae91906162e8565b6128b89190615f3c565b91506128df565b60f78103600185019450806020036101000a855104600182018101935050505b5b5b5b8192505050919050565b60008060006128fe8460200151612751565b905060008185602001516129129190615f3c565b9050600082866000015161292691906162e8565b9050818194509450505050915091565b61293e613f2e565b61294782612675565b61295057600080fd5b600061295f8360200151612751565b836020015161296e9190615f3c565b9050604051806040016040528084815260200182815250915050919050565b612995613eb2565b61299e82613613565b6129a757600080fd5b60008260200151905060006129bb82612810565b905080826129c99190615f3c565b84602001818152505060405180604001604052808281526020018381525092505050919050565b6000808260400151836080015181518110612a0e57612a0d614e16565b5b60200260200101519050826020015151836060015110612a8b576000612a5e612a3e612a3984611bf9565b611c27565b601081518110612a5157612a50614e16565b5b6020026020010151612f8c565b90508360a001518051906020012081805190602001201415612a8557600192505050612b75565b50612b57565b60008360200151846060015181518110612aa857612aa7614e16565b5b602001015160f81c60f81b60f81c60ff1690506000612af0612ad1612acc85611bf9565b611c27565b8381518110612ae357612ae2614e16565b5b6020026020010151612f8c565b90506000815114612b5457612b048161363f565b856000018181525050600185606001818151612b209190615f3c565b91508181525050600185608001818151612b3a9190615f3c565b91508181525050612b4a85611d96565b9350505050612b75565b50505b60008360a00151511415612b6f576001915050612b75565b60009150505b919050565b600080612b8e612b898561298d565b612f8c565b90506000612ba3612b9e8661298d565b612f8c565b90506000602083015160f81c8060041c9150506002811415612c7157600060018451612bcf91906162e8565b90506000612be185600184600061364d565b90506000612bfa8860200151896060015185600061364d565b905084805190602001208860a00151805190602001201415612c6957808051906020012082805190602001201415612c3b5760019650505050505050612f3e565b8080519060200120612c4c83613745565b805190602001201415612c685760019650505050505050612f3e565b5b505050612f1c565b6003811415612d2c576000612c8b8460008651600161364d565b90506000612cb88760200151886060015189606001518a6020015151612cb191906162e8565b600061364d565b905083805190602001208760a00151805190602001201415612d2557808051906020012082805190602001201415612cf857600195505050505050612f3e565b8080519060200120612d09836138ad565b805190602001201415612d2457600195505050505050612f3e565b5b5050612f1b565b6000811415612e0b57600060018451612d4591906162e8565b90506000612d5785600184600061364d565b90506000612d708860200151896060015185600061364d565b9050808051906020012082805190602001201480612da357508080519060200120612d9a83613745565b80519060200120145b15612e0357612db18561363f565b8860000181815250508288606001818151612dcc9190615f3c565b91508181525050600188608001818151612de69190615f3c565b91508181525050612df688611d96565b9650505050505050612f3e565b505050612f1a565b6001811415612ede576000835190506000612e2a85600084600161364d565b90506000612e438860200151896060015185600061364d565b9050808051906020012082805190602001201480612e7657508080519060200120612e6d83613745565b80519060200120145b15612ed657612e848561363f565b8860000181815250508288606001818151612e9f9190615f3c565b91508181525050600188608001818151612eb99190615f3c565b91508181525050612ec988611d96565b9650505050505050612f3e565b505050612f19565b6040517f08c379a0000000000000000000000000000000000000000000000000000000008152600401612f1090616368565b60405180910390fd5b5b5b5b60008560a00151511415612f365760019350505050612f3e565b600093505050505b92915050565b612f4c613eb2565b60006020840190508281612f609190615f3c565b90506040518060400160405280848651612f7a91906162e8565b81526020018281525091505092915050565b60606000826000015111612f9f57600080fd5b600080612fab846128ec565b9150915060008167ffffffffffffffff811115612fcb57612fca61402a565b5b6040519080825280601f01601f191660200182016040528015612ffd5781602001600182028036833780820191505090505b5090506000816020019050613013848285613a87565b81945050505050919050565b613027613ef7565b600061303283611c27565b90506130588160008151811061304b5761304a614e16565b5b6020026020010151613b2e565b826000019073ffffffffffffffffffffffffffffffffffffffff16908173ffffffffffffffffffffffffffffffffffffffff168152505060006130b5826001815181106130a8576130a7614e16565b5b6020026020010151611c27565b9050805167ffffffffffffffff8111156130d2576130d161402a565b5b6040519080825280602002602001820160405280156131005781602001602082028036833780820191505090505b50836020018190525060005b815181101561317757600061313a83838151811061312d5761312c614e16565b5b6020026020010151611d3c565b60001b9050808560200151838151811061315757613156614e16565b5b60200260200101818152505050808061316f90614e74565b91505061310c565b5061319c8260028151811061318f5761318e614e16565b5b6020026020010151612f8c565b83604001819052505050919050565b600046905090565b60008473ffffffffffffffffffffffffffffffffffffffff163373ffffffffffffffffffffffffffffffffffffffff161415801561321d57508573ffffffffffffffffffffffffffffffffffffffff163373ffffffffffffffffffffffffffffffffffffffff1614155b1561322e5761322b84613b51565b90505b600960089054906101000a900473ffffffffffffffffffffffffffffffffffffffff1673ffffffffffffffffffffffffffffffffffffffff1663a9059cbb86838761327991906162e8565b6040518363ffffffff1660e01b8152600401613296929190614eff565b6020604051808303816000875af11580156132b5573d6000803e3d6000fd5b505050506040513d601f19601f820116820180604052508101906132d99190614f54565b613318576040517f08c379a000000000000000000000000000000000000000000000000000000000815260040161330f90614fde565b60405180910390fd5b61332185613bb0565b3373ffffffffffffffffffffffffffffffffffffffff168573ffffffffffffffffffffffffffffffffffffffff168773ffffffffffffffffffffffffffffffffffffffff167ff29fbcfcb6494a73073140d30bd2c2e269766b65882ea37b70184a1cba7ea065848861339391906162e8565b8588886040516133a69493929190616388565b60405180910390a4505050505050565b60008060007f7fffffffffffffffffffffffffffffffffffffffffffffffffffffffffffffff60001b841690506000601b60ff8660001c901c6133f99190615f3c565b905061340787828885613d42565b935093505050935093915050565b60006004811115613429576134286163cd565b5b81600481111561343c5761343b6163cd565b5b1415613447576135e7565b6001600481111561345b5761345a6163cd565b5b81600481111561346e5761346d6163cd565b5b14156134af576040517f08c379a00000000000000000000000000000000000000000000000000000000081526004016134a690616448565b60405180910390fd5b600260048111156134c3576134c26163cd565b5b8160048111156134d6576134d56163cd565b5b1415613517576040517f08c379a000000000000000000000000000000000000000000000000000000000815260040161350e906164b4565b60405180910390fd5b6003600481111561352b5761352a6163cd565b5b81600481111561353e5761353d6163cd565b5b141561357f576040517f08c379a000000000000000000000000000000000000000000000000000000000815260040161357690616546565b60405180910390fd5b600480811115613592576135916163cd565b5b8160048111156135a5576135a46163cd565b5b14156135e6576040517f08c379a00000000000000000000000000000000000000000000000000000000081526004016135dd906165d8565b60405180910390fd5b5b50565b60008151905060006a636f6e736f6c652e6c6f679050602083016000808483855afa5050505050565b60008082600001519050806000015181602001516136319190615f3c565b836020015110915050919050565b600060208201519050919050565b6060600060208461365e9190615bd3565b90506000600860208661367191906165f8565b61367b9190615b4a565b61010061368891906162e8565b9050600060209050600080808867ffffffffffffffff8111156136ae576136ad61402a565b5b6040519080825280601f01601f1916602001820160405280156136e05781602001600182028036833780820191505090505b5090508a8a0191508715613707578382015160041b60041c84820152600192506020840193505b825b8681101561372a578483015185830152602085019450600181019050613709565b5083820151851c851b84820152505050505050949350505050565b60606000600283516137579190615b4a565b905060008167ffffffffffffffff8111156137755761377461402a565b5b6040519080825280601f01601f1916602001820160405280156137a75781602001600182028036833780820191505090505b50905060005b84518110156138a2576000806137df8784815181106137cf576137ce614e16565b5b602001015160f81c60f81b613e4f565b9150915081846002856137f29190615b4a565b8151811061380357613802614e16565b5b60200101907effffffffffffffffffffffffffffffffffffffffffffffffffffffffffffff1916908160001a905350808460016002866138439190615b4a565b61384d9190615f3c565b8151811061385e5761385d614e16565b5b60200101907effffffffffffffffffffffffffffffffffffffffffffffffffffffffffffff1916908160001a9053505050808061389a90614e74565b9150506137ad565b508092505050919050565b606060006001600284516138c19190615b4a565b6138cb91906162e8565b905060008167ffffffffffffffff8111156138e9576138e861402a565b5b6040519080825280601f01601f19166020018201604052801561391b5781602001600182028036833780820191505090505b5090508360008151811061393257613931614e16565b5b602001015160f81c60f81b8160008151811061395157613950614e16565b5b60200101907effffffffffffffffffffffffffffffffffffffffffffffffffffffffffffff1916908160001a9053506000600190505b8451811015613a7c576000806139b98784815181106139a9576139a8614e16565b5b602001015160f81c60f81b613e4f565b91509150818460016002866139ce9190615b4a565b6139d891906162e8565b815181106139e9576139e8614e16565b5b60200101907effffffffffffffffffffffffffffffffffffffffffffffffffffffffffffff1916908160001a9053508084600285613a279190615b4a565b81518110613a3857613a37614e16565b5b60200101907effffffffffffffffffffffffffffffffffffffffffffffffffffffffffffff1916908160001a90535050508080613a7490614e74565b915050613987565b508092505050919050565b6000811415613a9557613b29565b5b602060ff168110613ae05782518252602060ff1683613ab59190615f3c565b9250602060ff1682613ac79190615f3c565b9150602060ff1681613ad991906162e8565b9050613a96565b6000811115613b28576000600182602060ff16613afd91906162e8565b610100613b0a919061675c565b613b1491906162e8565b905080198451168184511681811785525050505b5b505050565b60006015826000015114613b4157600080fd5b613b4a82611d3c565b9050919050565b6000612710600c6002015483613b679190615b4a565b613b719190615bd3565b9050600c60000154811015613b8b57600c60000154613b8d565b805b9050600c60010154811115613ba757600c60010154613ba9565b805b9050919050565b600073ffffffffffffffffffffffffffffffffffffffff16600f60009054906101000a900473ffffffffffffffffffffffffffffffffffffffff1673ffffffffffffffffffffffffffffffffffffffff1614158015613ca95750600f60009054906101000a900473ffffffffffffffffffffffffffffffffffffffff1673ffffffffffffffffffffffffffffffffffffffff1663e97eefd2826040518263ffffffff1660e01b8152600401613c6591906148b0565b6020604051808303816000875af1158015613c84573d6000803e3d6000fd5b505050506040513d601f19601f82011682018060405250810190613ca89190614f54565b5b15613d3f57600f60009054906101000a900473ffffffffffffffffffffffffffffffffffffffff1673ffffffffffffffffffffffffffffffffffffffff16633771dcf8826040518263ffffffff1660e01b8152600401613d0991906148b0565b600060405180830381600087803b158015613d2357600080fd5b505af1925050508015613d34575060015b613d3d57613d3e565b5b5b50565b6000807f7fffffffffffffffffffffffffffffff5d576e7357a4501ddfe92f46681b20a08360001c1115613d7d576000600391509150613e46565b601b8560ff1614158015613d955750601c8560ff1614155b15613da7576000600491509150613e46565b600060018787878760405160008152602001604052604051613dcc94939291906167b6565b6020604051602081039080840390855afa158015613dee573d6000803e3d6000fd5b505050602060405103519050600073ffffffffffffffffffffffffffffffffffffffff168173ffffffffffffffffffffffffffffffffffffffff161415613e3d57600060019250925050613e46565b80600092509250505b94509492505050565b6000808260041c91508260041b60041c9050915091565b604051806040016040528060008019168152602001600081525090565b6040518060a0016040528060008152602001606081526020016060815260200160008152602001606081525090565b604051806040016040528060008152602001600081525090565b6040518060800160405280600060ff1681526020016000815260200160608152602001606081525090565b6040518060600160405280600073ffffffffffffffffffffffffffffffffffffffff16815260200160608152602001606081525090565b6040518060400160405280613f41613eb2565b8152602001600081525090565b6000604051905090565b600080fd5b600080fd5b600080fd5b600080fd5b600080fd5b60008083601f840112613f8757613f86613f62565b5b8235905067ffffffffffffffff811115613fa457613fa3613f67565b5b602083019150836020820283011115613fc057613fbf613f6c565b5b9250929050565b60008060208385031215613fde57613fdd613f58565b5b600083013567ffffffffffffffff811115613ffc57613ffb613f5d565b5b61400885828601613f71565b92509250509250929050565b600080fd5b6000601f19601f8301169050919050565b7f4e487b7100000000000000000000000000000000000000000000000000000000600052604160045260246000fd5b61406282614019565b810181811067ffffffffffffffff821117156140815761408061402a565b5b80604052505050565b6000614094613f4e565b90506140a08282614059565b919050565b600067ffffffffffffffff8211156140c0576140bf61402a565b5b6140c982614019565b9050602081019050919050565b82818337600083830152505050565b60006140f86140f3846140a5565b61408a565b90508281526020810184848401111561411457614113614014565b5b61411f8482856140d6565b509392505050565b600082601f83011261413c5761413b613f62565b5b813561414c8482602086016140e5565b91505092915050565b60006020828403121561416b5761416a613f58565b5b600082013567ffffffffffffffff81111561418957614188613f5d565b5b61419584828501614127565b91505092915050565b6000819050919050565b6141b18161419e565b82525050565b6000819050919050565b6141ca816141b7565b82525050565b6040820160008201516141e660008501826141a8565b5060208201516141f960208501826141c1565b50505050565b600060408201905061421460008301846141d0565b92915050565b600073ffffffffffffffffffffffffffffffffffffffff82169050919050565b60006142458261421a565b9050919050565b6142558161423a565b811461426057600080fd5b50565b6000813590506142728161424c565b92915050565b60006020828403121561428e5761428d613f58565b5b600061429c84828501614263565b91505092915050565b60008115159050919050565b6142ba816142a5565b82525050565b60006020820190506142d560008301846142b1565b92915050565b6142e4816141b7565b82525050565b60006020820190506142ff60008301846142db565b92915050565b600063ffffffff82169050919050565b61431e81614305565b82525050565b60006020820190506143396000830184614315565b92915050565b614348816141b7565b811461435357600080fd5b50565b6000813590506143658161433f565b92915050565b60008083601f84011261438157614380613f62565b5b8235905067ffffffffffffffff81111561439e5761439d613f67565b5b6020830191508360208202830111156143ba576143b9613f6c565b5b9250929050565b6000806000604084860312156143da576143d9613f58565b5b60006143e886828701614356565b935050602084013567ffffffffffffffff81111561440957614408613f5d565b5b6144158682870161436b565b92509250509250925092565b600067ffffffffffffffff82111561443c5761443b61402a565b5b602082029050602081019050919050565b600080fd5b600080fd5b600067ffffffffffffffff8211156144725761447161402a565b5b602082029050602081019050919050565b600061449661449184614457565b61408a565b905080838252602082019050602084028301858111156144b9576144b8613f6c565b5b835b8181101561450057803567ffffffffffffffff8111156144de576144dd613f62565b5b8086016144eb8982614127565b855260208501945050506020810190506144bb565b5050509392505050565b600082601f83011261451f5761451e613f62565b5b813561452f848260208601614483565b91505092915050565b600067ffffffffffffffff8211156145535761455261402a565b5b602082029050602081019050919050565b600061457761457284614538565b61408a565b9050808382526020820190506020840283018581111561459a57614599613f6c565b5b835b818110156145c357806145af8882614263565b84526020840193505060208101905061459c565b5050509392505050565b600082601f8301126145e2576145e1613f62565b5b81356145f2848260208601614564565b91505092915050565b600060a082840312156146115761461061444d565b5b61461b60a061408a565b9050600061462b84828501614356565b600083015250602082013567ffffffffffffffff81111561464f5761464e614452565b5b61465b84828501614127565b602083015250604082013567ffffffffffffffff81111561467f5761467e614452565b5b61468b8482850161450a565b604083015250606061469f84828501614356565b606083015250608082013567ffffffffffffffff8111156146c3576146c2614452565b5b6146cf848285016145cd565b60808301525092915050565b60006146ee6146e984614421565b61408a565b9050808382526020820190506020840283018581111561471157614710613f6c565b5b835b8181101561475857803567ffffffffffffffff81111561473657614735613f62565b5b80860161474389826145fb565b85526020850194505050602081019050614713565b5050509392505050565b600082601f83011261477757614776613f62565b5b81356147878482602086016146db565b91505092915050565b6000602082840312156147a6576147a5613f58565b5b600082013567ffffffffffffffff8111156147c4576147c3613f5d565b5b6147d084828501614762565b91505092915050565b60006060820190506147ee60008301866142db565b6147fb60208301856142db565b61480860408301846142db565b949350505050565b6000606082840312156148265761482561444d565b5b614830606061408a565b9050600061484084828501614356565b600083015250602061485484828501614356565b602083015250604061486884828501614356565b60408301525092915050565b60006060828403121561488a57614889613f58565b5b600061489884828501614810565b91505092915050565b6148aa8161423a565b82525050565b60006020820190506148c560008301846148a1565b92915050565b6000602082840312156148e1576148e0613f58565b5b600082013567ffffffffffffffff8111156148ff576148fe613f5d565b5b61490b848285016145cd565b91505092915050565b60008083601f84011261492a57614929613f62565b5b8235905067ffffffffffffffff81111561494757614946613f67565b5b60208301915083600182028301111561496357614962613f6c565b5b9250929050565b6000806000806060858703121561498457614983613f58565b5b600061499287828801614263565b94505060206149a387828801614356565b935050604085013567ffffffffffffffff8111156149c4576149c3613f5d565b5b6149d087828801614914565b925092505092959194509250565b6149e781614305565b81146149f257600080fd5b50565b600081359050614a04816149de565b92915050565b600060208284031215614a2057614a1f613f58565b5b6000614a2e848285016149f5565b91505092915050565b614a408161419e565b8114614a4b57600080fd5b50565b600081359050614a5d81614a37565b92915050565b600060208284031215614a7957614a78613f58565b5b6000614a8784828501614a4e565b91505092915050565b60008060408385031215614aa757614aa6613f58565b5b6000614ab585828601614356565b9250506020614ac685828601614356565b9150509250929050565b614ad98161419e565b82525050565b6000602082019050614af46000830184614ad0565b92915050565b60008083601f840112614b1057614b0f613f62565b5b8235905067ffffffffffffffff811115614b2d57614b2c613f67565b5b602083019150836020820283011115614b4957614b48613f6c565b5b9250929050565b60008060008060008060808789031215614b6d57614b6c613f58565b5b6000614b7b89828a01614356565b9650506020614b8c89828a01614356565b955050604087013567ffffffffffffffff811115614bad57614bac613f5d565b5b614bb989828a01614afa565b9450945050606087013567ffffffffffffffff811115614bdc57614bdb613f5d565b5b614be889828a01614914565b92509250509295509295509295565b6000614c028261423a565b9050919050565b614c1281614bf7565b8114614c1d57600080fd5b50565b600081359050614c2f81614c09565b92915050565b600060208284031215614c4b57614c4a613f58565b5b6000614c5984828501614c20565b91505092915050565b600080fd5b600060a08284031215614c7d57614c7c614c62565b5b81905092915050565b60008060008060008060808789031215614ca357614ca2613f58565b5b600087013567ffffffffffffffff811115614cc157614cc0613f5d565b5b614ccd89828a01614c67565b9650506020614cde89828a01614356565b955050604087013567ffffffffffffffff811115614cff57614cfe613f5d565b5b614d0b89828a01614afa565b9450945050606087013567ffffffffffffffff811115614d2e57614d2d613f5d565b5b614d3a89828a0161436b565b92509250509295509295509295565b6000819050919050565b6000614d6e614d69614d648461421a565b614d49565b61421a565b9050919050565b6000614d8082614d53565b9050919050565b6000614d9282614d75565b9050919050565b614da281614d87565b82525050565b6000602082019050614dbd6000830184614d99565b92915050565b600080600060608486031215614ddc57614ddb613f58565b5b6000614dea86828701614263565b9350506020614dfb86828701614356565b9250506040614e0c86828701614356565b9150509250925092565b7f4e487b7100000000000000000000000000000000000000000000000000000000600052603260045260246000fd5b7f4e487b7100000000000000000000000000000000000000000000000000000000600052601160045260246000fd5b6000614e7f826141b7565b91507fffffffffffffffffffffffffffffffffffffffffffffffffffffffffffffffff821415614eb257614eb1614e45565b5b600182019050919050565b600081519050614ecc8161433f565b92915050565b600060208284031215614ee857614ee7613f58565b5b6000614ef684828501614ebd565b91505092915050565b6000604082019050614f1460008301856148a1565b614f2160208301846142db565b9392505050565b614f31816142a5565b8114614f3c57600080fd5b50565b600081519050614f4e81614f28565b92915050565b600060208284031215614f6a57614f69613f58565b5b6000614f7884828501614f3f565b91505092915050565b600082825260208201905092915050565b7f7472616e73666572000000000000000000000000000000000000000000000000600082015250565b6000614fc8600883614f81565b9150614fd382614f92565b602082019050919050565b60006020820190508181036000830152614ff781614fbb565b9050919050565b600080fd5b600080fd5b600080fd5b60008235600160600383360303811261502957615028614ffe565b5b80830191505092915050565b600067ffffffffffffffff8211156150505761504f61402a565b5b602082029050602081019050919050565b600060c082840312156150775761507661444d565b5b61508160c061408a565b9050600061509184828501614a4e565b600083015250602082013567ffffffffffffffff8111156150b5576150b4614452565b5b6150c184828501614127565b602083015250604082013567ffffffffffffffff8111156150e5576150e4614452565b5b6150f18482850161450a565b604083015250606061510584828501614356565b606083015250608061511984828501614356565b60808301525060a082013567ffffffffffffffff81111561513d5761513c614452565b5b61514984828501614127565b60a08301525092915050565b600061516861516384615035565b61408a565b9050808382526020820190506020840283018581111561518b5761518a613f6c565b5b835b818110156151d257803567ffffffffffffffff8111156151b0576151af613f62565b5b8086016151bd8982615061565b8552602085019450505060208101905061518d565b5050509392505050565b600082601f8301126151f1576151f0613f62565b5b8135615201848260208601615155565b91505092915050565b6000606082840312156152205761521f61444d565b5b61522a606061408a565b9050600082013567ffffffffffffffff81111561524a57615249614452565b5b615256848285016151dc565b600083015250602082013567ffffffffffffffff81111561527a57615279614452565b5b61528684828501614127565b602083015250604061529a84828501614356565b60408301525092915050565b60006152b2368361520a565b9050919050565b7f696e76616c696420626c6f636b20686173680000000000000000000000000000600082015250565b60006152ef601283614f81565b91506152fa826152b9565b602082019050919050565b6000602082019050818103600083015261531e816152e2565b9050919050565b600081519050919050565b600082825260208201905092915050565b60005b8381101561535f578082015181840152602081019050615344565b8381111561536e576000848401525b50505050565b600061537f82615325565b6153898185615330565b9350615399818560208601615341565b6153a281614019565b840191505092915050565b60006060820190506153c260008301866142db565b6153cf6020830185614ad0565b81810360408301526153e18184615374565b9050949350505050565b7f7265636569707420616c72656164792075736564000000000000000000000000600082015250565b6000615421601483614f81565b915061542c826153eb565b602082019050919050565b6000602082019050818103600083015261545081615414565b9050919050565b7f6e6f7420737461727420696e6465780000000000000000000000000000000000600082015250565b600061548d600f83614f81565b915061549882615457565b602082019050919050565b600060208201905081810360008301526154bc81615480565b9050919050565b7f72656365697074526f6f74206d69736d61746368000000000000000000000000600082015250565b60006154f9601483614f81565b9150615504826154c3565b602082019050919050565b60006020820190508181036000830152615528816154ec565b9050919050565b7f72656365697074206e6f7420696e20626c6f636b000000000000000000000000600082015250565b6000615565601483614f81565b91506155708261552f565b602082019050919050565b6000602082019050818103600083015261559481615558565b9050919050565b7f65786563757465206661696c6564000000000000000000000000000000000000600082015250565b60006155d1600e83614f81565b91506155dc8261559b565b602082019050919050565b60006020820190508181036000830152615600816155c4565b9050919050565b6000819050919050565b61562261561d8261419e565b615607565b82525050565b6000819050919050565b61564361563e826141b7565b615628565b82525050565b600081519050919050565b600081905092915050565b6000819050602082019050919050565b6156788161423a565b82525050565b600061568a838361566f565b60208301905092915050565b6000602082019050919050565b60006156ae82615649565b6156b88185615654565b93506156c38361565f565b8060005b838110156156f45781516156db888261567e565b97506156e683615696565b9250506001810190506156c7565b5085935050505092915050565b600061570d8287615611565b60208201915061571d8286615632565b60208201915061572d82856156a3565b91506157398284615632565b60208201915081905095945050505050565b60008151905061575a81614a37565b92915050565b6000806040838503121561577757615776613f58565b5b60006157858582860161574b565b92505060206157968582860161574b565b9150509250929050565b7f696e76616c6964207369676e6572730000000000000000000000000000000000600082015250565b60006157d6600f83614f81565b91506157e1826157a0565b602082019050919050565b60006020820190508181036000830152615805816157c9565b9050919050565b7f626c6f636b20746f6f206f6c6400000000000000000000000000000000000000600082015250565b6000615842600d83614f81565b915061584d8261580c565b602082019050919050565b6000602082019050818103600083015261587181615835565b9050919050565b7f6e6f7420746f6b656e0000000000000000000000000000000000000000000000600082015250565b60006158ae600983614f81565b91506158b982615878565b602082019050919050565b600060208201905081810360008301526158dd816158a1565b9050919050565b7f636c6f7365640000000000000000000000000000000000000000000000000000600082015250565b600061591a600683614f81565b9150615925826158e4565b602082019050919050565b600060208201905081810360008301526159498161590d565b9050919050565b600061595b8261421a565b9050919050565b61596b81615950565b811461597657600080fd5b50565b60008135905061598881615962565b92915050565b600080604083850312156159a5576159a4613f58565b5b60006159b385828601614356565b92505060206159c485828601615979565b9150509250929050565b60006040820190506159e360008301856142db565b6159f060208301846142db565b9392505050565b6000819050919050565b6000615a0c826159f7565b9150615a17836159f7565b9250827f800000000000000000000000000000000000000000000000000000000000000001821260008412151615615a5257615a51614e45565b5b827f7fffffffffffffffffffffffffffffffffffffffffffffffffffffffffffffff018213600084121615615a8a57615a89614e45565b5b828203905092915050565b7f647570207369676e657200000000000000000000000000000000000000000000600082015250565b6000615acb600a83614f81565b9150615ad682615a95565b602082019050919050565b60006020820190508181036000830152615afa81615abe565b9050919050565b6000615b0c826159f7565b91507f8000000000000000000000000000000000000000000000000000000000000000821415615b3f57615b3e614e45565b5b600182039050919050565b6000615b55826141b7565b9150615b60836141b7565b9250817fffffffffffffffffffffffffffffffffffffffffffffffffffffffffffffffff0483118215151615615b9957615b98614e45565b5b828202905092915050565b7f4e487b7100000000000000000000000000000000000000000000000000000000600052601260045260246000fd5b6000615bde826141b7565b9150615be9836141b7565b925082615bf957615bf8615ba4565b5b828204905092915050565b600081905092915050565b6000615c1b8385615c04565b9350615c288385846140d6565b82840190509392505050565b6000615c41828486615c0f565b91508190509392505050565b7f696e76616c6964206368696c6420726c70486561646572000000000000000000600082015250565b6000615c83601783614f81565b9150615c8e82615c4d565b602082019050919050565b60006020820190508181036000830152615cb281615c76565b9050919050565b60008083356001602003843603038112615cd657615cd5614ffe565b5b80840192508235915067ffffffffffffffff821115615cf857615cf7615003565b5b602083019250600182023603831315615d1457615d13615008565b5b509250929050565b7f6e6f7420706172656e7400000000000000000000000000000000000000000000600082015250565b6000615d52600a83614f81565b9150615d5d82615d1c565b602082019050919050565b60006020820190508181036000830152615d8181615d45565b9050919050565b6000615d9436836145fb565b9050919050565b6000606082019050615db060008301866148a1565b615dbd60208301856148a1565b615dca60408301846142db565b949350505050565b7f7472616e7366657246726f6d0000000000000000000000000000000000000000600082015250565b6000615e08600c83614f81565b9150615e1382615dd2565b602082019050919050565b60006020820190508181036000830152615e3781615dfb565b9050919050565b7f4f776e61626c653a206e6577206f776e657220697320746865207a65726f206160008201527f6464726573730000000000000000000000000000000000000000000000000000602082015250565b6000615e9a602683614f81565b9150615ea582615e3e565b604082019050919050565b60006020820190508181036000830152615ec981615e8d565b9050919050565b7f4f776e61626c653a2063616c6c6572206973206e6f7420746865206f776e6572600082015250565b6000615f06602083614f81565b9150615f1182615ed0565b602082019050919050565b60006020820190508181036000830152615f3581615ef9565b9050919050565b6000615f47826141b7565b9150615f52836141b7565b9250827fffffffffffffffffffffffffffffffffffffffffffffffffffffffffffffffff03821115615f8757615f86614e45565b5b828201905092915050565b7f7665726966795472696550726f6f6620726f6f74206e6f64652068617368206960008201527f6e76616c69640000000000000000000000000000000000000000000000000000602082015250565b6000615fee602683614f81565b9150615ff982615f92565b604082019050919050565b6000602082019050818103600083015261601d81615fe1565b9050919050565b7f7665726966795472696550726f6f66203c203332000000000000000000000000600082015250565b600061605a601483614f81565b915061606582616024565b602082019050919050565b600060208201905081810360008301526160898161604d565b9050919050565b7f7665726966795472696550726f6f6620656c7365000000000000000000000000600082015250565b60006160c6601483614f81565b91506160d182616090565b602082019050919050565b600060208201905081810360008301526160f5816160b9565b9050919050565b7f696e76616c696420737461747573000000000000000000000000000000000000600082015250565b6000616132600e83614f81565b915061613d826160fc565b602082019050919050565b6000602082019050818103600083015261616181616125565b9050919050565b6000806040838503121561617f5761617e613f58565b5b600061618d85828601614ebd565b925050602061619e85828601614ebd565b9150509250929050565b600081905092915050565b7f19457468657265756d205369676e6564204d6573736167653a0a333200000000600082015250565b60006161e9601c836161a8565b91506161f4826161b3565b601c82019050919050565b600061620a826161dc565b91506162168284615611565b60208201915081905092915050565b600081519050919050565b600061623b82616225565b6162458185614f81565b9350616255818560208601615341565b61625e81614019565b840191505092915050565b600060608201905081810360008301526162838186616230565b905061629260208301856142db565b61629f60408301846142db565b949350505050565b600060ff82169050919050565b60006162bf826162a7565b91506162ca836162a7565b9250828210156162dd576162dc614e45565b5b828203905092915050565b60006162f3826141b7565b91506162fe836141b7565b92508282101561631157616310614e45565b5b828203905092915050565b7f496e76616c69642070726f6f6600000000000000000000000000000000000000600082015250565b6000616352600d83614f81565b915061635d8261631c565b602082019050919050565b6000602082019050818103600083015261638181616345565b9050919050565b600060808201905061639d60008301876142db565b6163aa60208301866142db565b6163b760408301856142db565b6163c460608301846142db565b95945050505050565b7f4e487b7100000000000000000000000000000000000000000000000000000000600052602160045260246000fd5b7f45434453413a20696e76616c6964207369676e61747572650000000000000000600082015250565b6000616432601883614f81565b915061643d826163fc565b602082019050919050565b6000602082019050818103600083015261646181616425565b9050919050565b7f45434453413a20696e76616c6964207369676e6174757265206c656e67746800600082015250565b600061649e601f83614f81565b91506164a982616468565b602082019050919050565b600060208201905081810360008301526164cd81616491565b9050919050565b7f45434453413a20696e76616c6964207369676e6174757265202773272076616c60008201527f7565000000000000000000000000000000000000000000000000000000000000602082015250565b6000616530602283614f81565b915061653b826164d4565b604082019050919050565b6000602082019050818103600083015261655f81616523565b9050919050565b7f45434453413a20696e76616c6964207369676e6174757265202776272076616c60008201527f7565000000000000000000000000000000000000000000000000000000000000602082015250565b60006165c2602283614f81565b91506165cd82616566565b604082019050919050565b600060208201905081810360008301526165f1816165b5565b9050919050565b6000616603826141b7565b915061660e836141b7565b92508261661e5761661d615ba4565b5b828206905092915050565b60008160011c9050919050565b6000808291508390505b60018511156166805780860481111561665c5761665b614e45565b5b600185161561666b5780820291505b808102905061667985616629565b9450616640565b94509492505050565b6000826166995760019050616755565b816166a75760009050616755565b81600181146166bd57600281146166c7576166f6565b6001915050616755565b60ff8411156166d9576166d8614e45565b5b8360020a9150848211156166f0576166ef614e45565b5b50616755565b5060208310610133831016604e8410600b841016171561672b5782820a90508381111561672657616725614e45565b5b616755565b6167388484846001616636565b9250905081840481111561674f5761674e614e45565b5b81810290505b9392505050565b6000616767826141b7565b9150616772836141b7565b925061679f7fffffffffffffffffffffffffffffffffffffffffffffffffffffffffffffffff8484616689565b905092915050565b6167b0816162a7565b82525050565b60006080820190506167cb6000830187614ad0565b6167d860208301866167a7565b6167e56040830185614ad0565b6167f26060830184614ad0565b9594505050505056fea26469706673582212201f612838559942ce08a10e42bdbbf5851943193c6df9b1c80c6dbed50744bb1164736f6c634300080a0033",
  "linkReferences": {},
  "deployedLinkReferences": {}
}