{
  "_format": "hh-sol-artifact-1",
  "contractName": "TokenBridgeTest",
  "sourceName": "contracts/test/TokenBridgeTest.sol",
  "abi": [
    {
      "inputs": [
        {
          "internalType": "address[]",
          "name": "_validators",
          "type": "address[]"
        },
        {
          "internalType": "uint256",
          "name": "_cycleEnd",
          "type": "uint256"
        },
        {
          "internalType": "address[]",
          "name": "_requiredValidators",
          "type": "address[]"
        },
        {
          "internalType": "uint32",
          "name": "_consensusRatio",
          "type": "uint32"
        },
        {
          "internalType": "address",
          "name": "_bridgedToken",
          "type": "address"
        },
        {
          "components": [
            {
              "internalType": "uint256",
              "name": "minFee",
              "type": "uint256"
            },
            {
              "internalType": "uint256",
              "name": "maxFee",
              "type": "uint256"
            },
            {
              "internalType": "uint256",
              "name": "fee",
              "type": "uint256"
            }
          ],
          "internalType": "struct TokenBridge.BridgeFees",
          "name": "_fees",
          "type": "tuple"
        },
        {
          "internalType": "contract IFaucet",
          "name": "_faucet",
          "type": "address"
        },
        {
          "internalType": "uint256",
          "name": "_chainIdOverride",
          "type": "uint256"
        }
      ],
      "stateMutability": "nonpayable",
      "type": "constructor"
    },
    {
      "anonymous": false,
      "inputs": [
        {
          "indexed": true,
          "internalType": "address",
          "name": "from",
          "type": "address"
        },
        {
          "indexed": true,
          "internalType": "address",
          "name": "to",
          "type": "address"
        },
        {
          "indexed": false,
          "internalType": "uint256",
          "name": "targetChainId",
          "type": "uint256"
        },
        {
          "indexed": false,
          "internalType": "uint256",
          "name": "amount",
          "type": "uint256"
        }
      ],
      "name": "BridgeRequest",
      "type": "event"
    },
    {
      "anonymous": false,
      "inputs": [
        {
          "indexed": true,
          "internalType": "address",
          "name": "from",
          "type": "address"
        },
        {
          "indexed": true,
          "internalType": "address",
          "name": "to",
          "type": "address"
        },
        {
          "indexed": true,
          "internalType": "address",
          "name": "relayer",
          "type": "address"
        },
        {
          "indexed": false,
          "internalType": "uint256",
          "name": "amount",
          "type": "uint256"
        },
        {
          "indexed": false,
          "internalType": "uint256",
          "name": "fee",
          "type": "uint256"
        },
        {
          "indexed": false,
          "internalType": "uint256",
          "name": "sourceChainId",
          "type": "uint256"
        },
        {
          "indexed": false,
          "internalType": "uint256",
          "name": "sourceBlockNumber",
          "type": "uint256"
        }
      ],
      "name": "ExecutedTransfer",
      "type": "event"
    },
    {
      "anonymous": false,
      "inputs": [
        {
          "indexed": true,
          "internalType": "address",
          "name": "previousOwner",
          "type": "address"
        },
        {
          "indexed": true,
          "internalType": "address",
          "name": "newOwner",
          "type": "address"
        }
      ],
      "name": "OwnershipTransferred",
      "type": "event"
    },
    {
      "inputs": [],
      "name": "BRIDGE_TOPIC",
      "outputs": [
        {
          "internalType": "bytes32",
          "name": "",
          "type": "bytes32"
        }
      ],
      "stateMutability": "view",
      "type": "function"
    },
    {
      "inputs": [],
      "name": "bridgeFees",
      "outputs": [
        {
          "internalType": "uint256",
          "name": "minFee",
          "type": "uint256"
        },
        {
          "internalType": "uint256",
          "name": "maxFee",
          "type": "uint256"
        },
        {
          "internalType": "uint256",
          "name": "fee",
          "type": "uint256"
        }
      ],
      "stateMutability": "view",
      "type": "function"
    },
    {
      "inputs": [],
      "name": "bridgeStartBlock",
      "outputs": [
        {
          "internalType": "uint256",
          "name": "",
          "type": "uint256"
        }
      ],
      "stateMutability": "view",
      "type": "function"
    },
    {
      "inputs": [
        {
          "internalType": "address",
          "name": "target",
          "type": "address"
        },
        {
          "internalType": "uint256",
          "name": "targetChainId",
          "type": "uint256"
        },
        {
          "internalType": "uint256",
          "name": "amount",
          "type": "uint256"
        }
      ],
      "name": "bridgeTo",
      "outputs": [],
      "stateMutability": "nonpayable",
      "type": "function"
    },
    {
      "inputs": [],
      "name": "bridgedToken",
      "outputs": [
        {
          "internalType": "address",
          "name": "",
          "type": "address"
        }
      ],
      "stateMutability": "view",
      "type": "function"
    },
    {
      "inputs": [
        {
          "internalType": "uint256",
          "name": "",
          "type": "uint256"
        },
        {
          "internalType": "uint256",
          "name": "",
          "type": "uint256"
        }
      ],
      "name": "chainVerifiedBlocks",
      "outputs": [
        {
          "internalType": "bytes32",
          "name": "",
          "type": "bytes32"
        }
      ],
      "stateMutability": "view",
      "type": "function"
    },
    {
      "inputs": [],
      "name": "closeBridge",
      "outputs": [],
      "stateMutability": "nonpayable",
      "type": "function"
    },
    {
      "inputs": [],
      "name": "consensusRatio",
      "outputs": [
        {
          "internalType": "uint32",
          "name": "",
          "type": "uint32"
        }
      ],
      "stateMutability": "view",
      "type": "function"
    },
    {
      "inputs": [
        {
          "internalType": "address",
          "name": "",
          "type": "address"
        }
      ],
      "name": "currentValidators",
      "outputs": [
        {
          "internalType": "uint256",
          "name": "",
          "type": "uint256"
        }
      ],
      "stateMutability": "view",
      "type": "function"
    },
    {
      "inputs": [
        {
          "internalType": "uint256",
          "name": "chainId",
          "type": "uint256"
        },
        {
          "components": [
            {
              "components": [
                {
                  "internalType": "bytes32",
                  "name": "expectedRoot",
                  "type": "bytes32"
                },
                {
                  "internalType": "bytes",
                  "name": "key",
                  "type": "bytes"
                },
                {
                  "internalType": "bytes[]",
                  "name": "proof",
                  "type": "bytes[]"
                },
                {
                  "internalType": "uint256",
                  "name": "keyIndex",
                  "type": "uint256"
                },
                {
                  "internalType": "uint256",
                  "name": "proofIndex",
                  "type": "uint256"
                },
                {
                  "internalType": "bytes",
                  "name": "expectedValue",
                  "type": "bytes"
                }
              ],
              "internalType": "struct MPT.MerkleProof[]",
              "name": "receiptProofs",
              "type": "tuple[]"
            },
            {
              "internalType": "bytes",
              "name": "blockHeaderRlp",
              "type": "bytes"
            },
            {
              "internalType": "uint256",
              "name": "blockNumber",
              "type": "uint256"
            }
          ],
          "internalType": "struct BridgeCore.BlockReceiptProofs[]",
          "name": "blocks",
          "type": "tuple[]"
        }
      ],
      "name": "executeReceipts",
      "outputs": [],
      "stateMutability": "nonpayable",
      "type": "function"
    },
    {
      "inputs": [],
      "name": "faucet",
      "outputs": [
        {
          "internalType": "contract IFaucet",
          "name": "",
          "type": "address"
        }
      ],
      "stateMutability": "view",
      "type": "function"
    },
    {
      "inputs": [],
      "name": "isClosed",
      "outputs": [
        {
          "internalType": "bool",
          "name": "",
          "type": "bool"
        }
      ],
      "stateMutability": "view",
      "type": "function"
    },
    {
      "inputs": [
        {
          "internalType": "address[]",
          "name": "signers",
          "type": "address[]"
        }
      ],
      "name": "isValidConsensus",
      "outputs": [
        {
          "internalType": "bool",
          "name": "isValid",
          "type": "bool"
        }
      ],
      "stateMutability": "nonpayable",
      "type": "function"
    },
    {
      "inputs": [],
      "name": "numRequiredValidators",
      "outputs": [
        {
          "internalType": "uint32",
          "name": "",
          "type": "uint32"
        }
      ],
      "stateMutability": "view",
      "type": "function"
    },
    {
      "inputs": [],
      "name": "numValidators",
      "outputs": [
        {
          "internalType": "uint256",
          "name": "",
          "type": "uint256"
        }
      ],
      "stateMutability": "view",
      "type": "function"
    },
    {
      "inputs": [
        {
          "internalType": "address",
          "name": "from",
          "type": "address"
        },
        {
          "internalType": "uint256",
          "name": "amount",
          "type": "uint256"
        },
        {
          "internalType": "bytes",
          "name": "data",
          "type": "bytes"
        }
      ],
      "name": "onTokenTransfer",
      "outputs": [],
      "stateMutability": "nonpayable",
      "type": "function"
    },
    {
      "inputs": [],
      "name": "owner",
      "outputs": [
        {
          "internalType": "address",
          "name": "",
          "type": "address"
        }
      ],
      "stateMutability": "view",
      "type": "function"
    },
    {
      "inputs": [
        {
          "internalType": "bytes",
          "name": "rlpHeader",
          "type": "bytes"
        }
      ],
      "name": "parseRLPToHeader",
      "outputs": [
        {
          "components": [
            {
              "internalType": "bytes32",
              "name": "parentHash",
              "type": "bytes32"
            },
            {
              "internalType": "uint256",
              "name": "number",
              "type": "uint256"
            }
          ],
          "internalType": "struct BridgeCore.BlockHeader",
          "name": "header",
          "type": "tuple"
        }
      ],
      "stateMutability": "pure",
      "type": "function"
    },
    {
      "inputs": [],
      "name": "renounceOwnership",
      "outputs": [],
      "stateMutability": "nonpayable",
      "type": "function"
    },
    {
      "inputs": [
        {
          "internalType": "address",
          "name": "",
          "type": "address"
        }
      ],
      "name": "requiredValidators",
      "outputs": [
        {
          "internalType": "uint256",
          "name": "",
          "type": "uint256"
        }
      ],
      "stateMutability": "view",
      "type": "function"
    },
    {
      "inputs": [],
      "name": "requiredValidatorsSet",
      "outputs": [
        {
          "internalType": "uint256",
          "name": "",
          "type": "uint256"
        }
      ],
      "stateMutability": "view",
      "type": "function"
    },
    {
      "inputs": [
        {
          "components": [
            {
              "internalType": "uint256",
              "name": "minFee",
              "type": "uint256"
            },
            {
              "internalType": "uint256",
              "name": "maxFee",
              "type": "uint256"
            },
            {
              "internalType": "uint256",
              "name": "fee",
              "type": "uint256"
            }
          ],
          "internalType": "struct TokenBridge.BridgeFees",
          "name": "_fees",
          "type": "tuple"
        }
      ],
      "name": "setBridgeFees",
      "outputs": [],
      "stateMutability": "nonpayable",
      "type": "function"
    },
    {
      "inputs": [
        {
          "internalType": "uint32",
          "name": "_consensusRatio",
          "type": "uint32"
        }
      ],
      "name": "setConsensusRatio",
      "outputs": [],
      "stateMutability": "nonpayable",
      "type": "function"
    },
    {
      "inputs": [
        {
          "internalType": "contract IFaucet",
          "name": "_faucet",
          "type": "address"
        }
      ],
      "name": "setFaucet",
      "outputs": [],
      "stateMutability": "nonpayable",
      "type": "function"
    },
    {
      "inputs": [
        {
          "internalType": "address[]",
          "name": "validators",
          "type": "address[]"
        }
      ],
      "name": "setRequiredValidators",
      "outputs": [],
      "stateMutability": "nonpayable",
      "type": "function"
    },
    {
      "inputs": [
        {
          "internalType": "address[]",
          "name": "bridges",
          "type": "address[]"
        }
      ],
      "name": "setSourceBridges",
      "outputs": [],
      "stateMutability": "nonpayable",
      "type": "function"
    },
    {
      "inputs": [
        {
          "internalType": "address",
          "name": "",
          "type": "address"
        }
      ],
      "name": "sourceBridges",
      "outputs": [
        {
          "internalType": "bool",
          "name": "",
          "type": "bool"
        }
      ],
      "stateMutability": "view",
      "type": "function"
    },
    {
      "inputs": [
        {
          "components": [
            {
              "internalType": "uint256",
              "name": "chainId",
              "type": "uint256"
            },
            {
              "internalType": "bytes",
              "name": "rlpHeader",
              "type": "bytes"
            },
            {
              "internalType": "bytes[]",
              "name": "signatures",
              "type": "bytes[]"
            },
            {
              "internalType": "uint256",
              "name": "cycleEnd",
              "type": "uint256"
            },
            {
              "internalType": "address[]",
              "name": "validators",
              "type": "address[]"
            }
          ],
          "internalType": "struct BridgeCore.SignedBlock[]",
          "name": "signedBlocks",
          "type": "tuple[]"
        }
      ],
      "name": "submitBlocks",
      "outputs": [],
      "stateMutability": "nonpayable",
      "type": "function"
    },
    {
      "inputs": [
        {
          "components": [
            {
              "internalType": "uint256",
              "name": "chainId",
              "type": "uint256"
            },
            {
              "internalType": "bytes",
              "name": "rlpHeader",
              "type": "bytes"
            },
            {
              "internalType": "bytes[]",
              "name": "signatures",
              "type": "bytes[]"
            },
            {
              "internalType": "uint256",
              "name": "cycleEnd",
              "type": "uint256"
            },
            {
              "internalType": "address[]",
              "name": "validators",
              "type": "address[]"
            }
          ],
          "internalType": "struct BridgeCore.SignedBlock",
          "name": "blockData",
          "type": "tuple"
        },
        {
          "internalType": "uint256",
          "name": "childBlockNumber",
          "type": "uint256"
        },
        {
          "internalType": "bytes[]",
          "name": "parentRlpHeaders",
          "type": "bytes[]"
        },
        {
          "components": [
            {
              "components": [
                {
                  "internalType": "bytes32",
                  "name": "expectedRoot",
                  "type": "bytes32"
                },
                {
                  "internalType": "bytes",
                  "name": "key",
                  "type": "bytes"
                },
                {
                  "internalType": "bytes[]",
                  "name": "proof",
                  "type": "bytes[]"
                },
                {
                  "internalType": "uint256",
                  "name": "keyIndex",
                  "type": "uint256"
                },
                {
                  "internalType": "uint256",
                  "name": "proofIndex",
                  "type": "uint256"
                },
                {
                  "internalType": "bytes",
                  "name": "expectedValue",
                  "type": "bytes"
                }
              ],
              "internalType": "struct MPT.MerkleProof[]",
              "name": "receiptProofs",
              "type": "tuple[]"
            },
            {
              "internalType": "bytes",
              "name": "blockHeaderRlp",
              "type": "bytes"
            },
            {
              "internalType": "uint256",
              "name": "blockNumber",
              "type": "uint256"
            }
          ],
          "internalType": "struct BridgeCore.BlockReceiptProofs[]",
          "name": "txs",
          "type": "tuple[]"
        }
      ],
      "name": "submitChainBlockParentsAndTxs",
      "outputs": [],
      "stateMutability": "nonpayable",
      "type": "function"
    },
    {
      "inputs": [
        {
          "internalType": "address",
          "name": "newOwner",
          "type": "address"
        }
      ],
      "name": "transferOwnership",
      "outputs": [],
      "stateMutability": "nonpayable",
      "type": "function"
    },
    {
      "inputs": [
        {
          "internalType": "bytes32",
          "name": "",
          "type": "bytes32"
        }
      ],
      "name": "usedReceipts",
      "outputs": [
        {
          "internalType": "bool",
          "name": "",
          "type": "bool"
        }
      ],
      "stateMutability": "view",
      "type": "function"
    },
    {
      "inputs": [],
      "name": "validatorsCycleEnd",
      "outputs": [
        {
          "internalType": "uint256",
          "name": "",
          "type": "uint256"
        }
      ],
      "stateMutability": "view",
      "type": "function"
    },
    {
      "inputs": [
        {
          "internalType": "uint256",
          "name": "chainId",
          "type": "uint256"
        },
        {
          "internalType": "uint256",
          "name": "childBlockNumber",
          "type": "uint256"
        },
        {
          "internalType": "bytes[]",
          "name": "parentRlpHeaders",
          "type": "bytes[]"
        },
        {
          "internalType": "bytes",
          "name": "childRlpHeader",
          "type": "bytes"
        }
      ],
      "name": "verifyParentBlocks",
      "outputs": [],
      "stateMutability": "nonpayable",
      "type": "function"
    }
  ],
  "bytecode": "0x60806040523480156200001157600080fd5b50604051620070b3380380620070b38339818101604052810190620000379190620006bb565b878787878787878686868662000062620000566200016c60201b60201c565b6200017460201b60201c565b6200007484846200023a60201b60201c565b6200008582620002d260201b60201c565b80600960046101000a81548163ffffffff021916908363ffffffff1602179055505050505082600960086101000a81548173ffffffffffffffffffffffffffffffffffffffff021916908373ffffffffffffffffffffffffffffffffffffffff16021790555081600c60008201518160000155602082015181600101556040820151816002015590505080600f60006101000a81548173ffffffffffffffffffffffffffffffffffffffff021916908373ffffffffffffffffffffffffffffffffffffffff1602179055505050505050505080601081905550505050505050505062000870565b600033905090565b6000600660009054906101000a900473ffffffffffffffffffffffffffffffffffffffff16905081600660006101000a81548173ffffffffffffffffffffffffffffffffffffffff021916908373ffffffffffffffffffffffffffffffffffffffff1602179055508173ffffffffffffffffffffffffffffffffffffffff168173ffffffffffffffffffffffffffffffffffffffff167f8be0079c531659141344cd1fd0a4f28419497f9722a3daafe3b4186f6b6457e060405160405180910390a35050565b60005b8251811015620002be578160016000858481518110620002625762000261620007c4565b5b602002602001015173ffffffffffffffffffffffffffffffffffffffff1673ffffffffffffffffffffffffffffffffffffffff168152602001908152602001600020819055508080620002b59062000822565b9150506200023d565b508060048190555081516003819055505050565b60076000815480929190620002e79062000822565b919050555060005b8151811015620003725760075460086000848481518110620003165762000315620007c4565b5b602002602001015173ffffffffffffffffffffffffffffffffffffffff1673ffffffffffffffffffffffffffffffffffffffff168152602001908152602001600020819055508080620003699062000822565b915050620002ef565b508051600960006101000a81548163ffffffff021916908363ffffffff16021790555050565b6000604051905090565b600080fd5b600080fd5b600080fd5b6000601f19601f8301169050919050565b7f4e487b7100000000000000000000000000000000000000000000000000000000600052604160045260246000fd5b620003fc82620003b1565b810181811067ffffffffffffffff821117156200041e576200041d620003c2565b5b80604052505050565b60006200043362000398565b9050620004418282620003f1565b919050565b600067ffffffffffffffff821115620004645762000463620003c2565b5b602082029050602081019050919050565b600080fd5b600073ffffffffffffffffffffffffffffffffffffffff82169050919050565b6000620004a7826200047a565b9050919050565b620004b9816200049a565b8114620004c557600080fd5b50565b600081519050620004d981620004ae565b92915050565b6000620004f6620004f08462000446565b62000427565b905080838252602082019050602084028301858111156200051c576200051b62000475565b5b835b81811015620005495780620005348882620004c8565b8452602084019350506020810190506200051e565b5050509392505050565b600082601f8301126200056b576200056a620003ac565b5b81516200057d848260208601620004df565b91505092915050565b6000819050919050565b6200059b8162000586565b8114620005a757600080fd5b50565b600081519050620005bb8162000590565b92915050565b600063ffffffff82169050919050565b620005dc81620005c1565b8114620005e857600080fd5b50565b600081519050620005fc81620005d1565b92915050565b600080fd5b60006060828403121562000620576200061f62000602565b5b6200062c606062000427565b905060006200063e84828501620005aa565b60008301525060206200065484828501620005aa565b60208301525060406200066a84828501620005aa565b60408301525092915050565b600062000683826200049a565b9050919050565b620006958162000676565b8114620006a157600080fd5b50565b600081519050620006b5816200068a565b92915050565b600080600080600080600080610140898b031215620006df57620006de620003a2565b5b600089015167ffffffffffffffff8111156200070057620006ff620003a7565b5b6200070e8b828c0162000553565b9850506020620007218b828c01620005aa565b975050604089015167ffffffffffffffff811115620007455762000744620003a7565b5b620007538b828c0162000553565b9650506060620007668b828c01620005eb565b9550506080620007798b828c01620004c8565b94505060a06200078c8b828c0162000607565b935050610100620007a08b828c01620006a4565b925050610120620007b48b828c01620005aa565b9150509295985092959890939650565b7f4e487b7100000000000000000000000000000000000000000000000000000000600052603260045260246000fd5b7f4e487b7100000000000000000000000000000000000000000000000000000000600052601160045260246000fd5b60006200082f8262000586565b91507fffffffffffffffffffffffffffffffffffffffffffffffffffffffffffffffff821415620008655762000864620007f3565b5b600182019050919050565b61683380620008806000396000f3fe608060405234801561001057600080fd5b50600436106101fb5760003560e01c8063930af3541161011a578063ce2b2cf0116100ad578063de5f72fd1161007c578063de5f72fd1461058c578063e39b32e8146105aa578063ee383937146105c6578063f2fde38b146105e4578063f39e17d514610600576101fb565b8063ce2b2cf01461051a578063d8b31c7714610536578063dd99014b14610552578063de55abc314610570576101fb565b8063be58d44d116100e9578063be58d44d1461047e578063c2b6b58c146104ae578063c3e6978f146104cc578063c728a603146104fc576101fb565b8063930af354146103fa578063a4c0ed3614610416578063a8b8be1814610432578063b1228a6314610462576101fb565b80634406acdd11610192578063715018a611610161578063715018a6146103965780637b0240c0146103a057806382dc737d146103c05780638da5cb5b146103dc576101fb565b80634406acdd1461030e5780634c83f9e41461033e5780635c8430601461035c5780635d593f8d14610378576101fb565b8063370a4250116101ce578063370a4250146102865780633811da50146102a45780633886d21e146102d45780633cca046d146102f2576101fb565b806309d3f896146102005780631b1c62721461021c5780631b89ee311461024c5780631d3af25514610256575b600080fd5b61021a60048036038101906102159190613fc9565b61061e565b005b61023660048036038101906102319190614157565b6106cb565b6040516102439190614201565b60405180910390f35b61025461074b565b005b610270600480360381019061026b919061427a565b6108f1565b60405161027d91906142c2565b60405180910390f35b61028e610911565b60405161029b91906142ec565b60405180910390f35b6102be60048036038101906102b9919061427a565b610917565b6040516102cb91906142ec565b60405180910390f35b6102dc61092f565b6040516102e99190614326565b60405180910390f35b61030c600480360381019061030791906143c3565b610945565b005b6103286004803603810190610323919061427a565b610d3d565b60405161033591906142ec565b60405180910390f35b610346610d55565b6040516103539190614326565b60405180910390f35b61037660048036038101906103719190614792565b610d6b565b005b61038061102b565b60405161038d91906142ec565b60405180910390f35b61039e611031565b005b6103a8611045565b6040516103b7939291906147db565b60405180910390f35b6103da60048036038101906103d59190614876565b61105d565b005b6103e461108c565b6040516103f191906148b2565b60405180910390f35b610414600480360381019061040f91906148cd565b6110b6565b005b610430600480360381019061042b919061496c565b6110ca565b005b61044c600480360381019061044791906148cd565b611235565b60405161045991906142c2565b60405180910390f35b61047c60048036038101906104779190614a0c565b6114c7565b005b61049860048036038101906104939190614a65565b6114f3565b6040516104a591906142c2565b60405180910390f35b6104b6611513565b6040516104c391906142c2565b60405180910390f35b6104e660048036038101906104e19190614a92565b611526565b6040516104f39190614ae1565b60405180910390f35b61050461154b565b60405161051191906142ec565b60405180910390f35b610534600480360381019061052f9190614b52565b611551565b005b610550600480360381019061054b9190614c37565b6117c2565b005b61055a61180e565b60405161056791906142ec565b60405180910390f35b61058a60048036038101906105859190614c88565b611814565b005b6105946118e4565b6040516105a19190614daa565b60405180910390f35b6105c460048036038101906105bf9190614dc5565b61190a565b005b6105ce611aad565b6040516105db91906148b2565b60405180910390f35b6105fe60048036038101906105f9919061427a565b611ad3565b005b610608611b57565b6040516106159190614ae1565b60405180910390f35b610626611b7b565b60005b828290508110156106c6576001600a600085858581811061064d5761064c614e18565b5b9050602002016020810190610662919061427a565b73ffffffffffffffffffffffffffffffffffffffff1673ffffffffffffffffffffffffffffffffffffffff16815260200190815260200160002060006101000a81548160ff02191690831515021790555080806106be90614e76565b915050610629565b505050565b6106d3613e68565b60006106e66106e184611bf9565b611c27565b905061070c816000815181106106ff576106fe614e18565b5b6020026020010151611d3c565b60001b82600001818152505061073c8160088151811061072f5761072e614e18565b5b6020026020010151611d3c565b82602001818152505050919050565b610753611b7b565b600960089054906101000a900473ffffffffffffffffffffffffffffffffffffffff1673ffffffffffffffffffffffffffffffffffffffff1663a9059cbb61079961108c565b600960089054906101000a900473ffffffffffffffffffffffffffffffffffffffff1673ffffffffffffffffffffffffffffffffffffffff166370a08231306040518263ffffffff1660e01b81526004016107f491906148b2565b602060405180830381865afa158015610811573d6000803e3d6000fd5b505050506040513d601f19601f820116820180604052508101906108359190614ed4565b6040518363ffffffff1660e01b8152600401610852929190614f01565b6020604051808303816000875af1158015610871573d6000803e3d6000fd5b505050506040513d601f19601f820116820180604052508101906108959190614f56565b6108d4576040517f08c379a00000000000000000000000000000000000000000000000000000000081526004016108cb90614fe0565b60405180910390fd5b6001600b60006101000a81548160ff021916908315150217905550565b600a6020528060005260406000206000915054906101000a900460ff1681565b60075481565b60086020528060005260406000206000915090505481565b600960009054906101000a900463ffffffff1681565b60005b82829050811015610d3757600083838381811061096857610967614e18565b5b905060200281019061097a919061500f565b610983906152a8565b9050600080600087815260200190815260200160002060008360400151815260200190815260200160002054905080826020015180519060200120146109fe576040517f08c379a00000000000000000000000000000000000000000000000000000000081526004016109f590615307565b60405180910390fd5b6000610a15610a108460200151611bf9565b611c27565b90506000610a3d82600581518110610a3057610a2f614e18565b5b6020026020010151611d3c565b60001b905060005b846000015151811015610d1f576000898587600001518481518110610a6d57610a6c614e18565b5b602002602001015160a00151604051602001610a8b939291906153af565b604051602081830303815290604052805190602001209050600015156002600083815260200190815260200160002060009054906101000a900460ff16151514610b0a576040517f08c379a0000000000000000000000000000000000000000000000000000000008152600401610b0190615439565b60405180910390fd5b60016002600083815260200190815260200160002060006101000a81548160ff021916908315150217905550600086600001518381518110610b4f57610b4e614e18565b5b602002602001015160600151148015610b8a5750600086600001518381518110610b7c57610b7b614e18565b5b602002602001015160800151145b610bc9576040517f08c379a0000000000000000000000000000000000000000000000000000000008152600401610bc0906154a5565b60405180910390fd5b8286600001518381518110610be157610be0614e18565b5b60200260200101516000015114610c2d576040517f08c379a0000000000000000000000000000000000000000000000000000000008152600401610c2490615511565b60405180910390fd5b610c5486600001518381518110610c4757610c46614e18565b5b6020026020010151611d96565b610c93576040517f08c379a0000000000000000000000000000000000000000000000000000000008152600401610c8a9061557d565b60405180910390fd5b610ccc8a8760400151610cc789600001518681518110610cb657610cb5614e18565b5b602002602001015160a00151611f60565b61217b565b610d0b576040517f08c379a0000000000000000000000000000000000000000000000000000000008152600401610d02906155e9565b60405180910390fd5b508080610d1790614e76565b915050610a45565b50505050508080610d2f90614e76565b915050610948565b50505050565b60016020528060005260406000206000915090505481565b600960049054906101000a900463ffffffff1681565b60005b8151811015611027576000828281518110610d8c57610d8b614e18565b5b60200260200101519050600081602001518051906020012090506000607a8360000151149050600082846000015185608001518660600151604051602001610dd79493929190615703565b604051602081830303815290604052805190602001209050600084604001515167ffffffffffffffff811115610e1057610e0f61402c565b5b604051908082528060200260200182016040528015610e3e5781602001602082028036833780820191505090505b50905060005b856040015151811015610eff5760008087604001518381518110610e6b57610e6a614e18565b5b6020026020010151806020019051810190610e869190615762565b91509150610e9d610e9686612361565b8383612391565b848481518110610eb057610eaf614e18565b5b602002602001019073ffffffffffffffffffffffffffffffffffffffff16908173ffffffffffffffffffffffffffffffffffffffff168152505050508080610ef790614e76565b915050610e44565b50610f0981611235565b610f48576040517f08c379a0000000000000000000000000000000000000000000000000000000008152600401610f3f906157ee565b60405180910390fd5b6000610f5786602001516106cb565b905060055481602001511015610fa2576040517f08c379a0000000000000000000000000000000000000000000000000000000008152600401610f999061585a565b60405180910390fd5b846000808860000151815260200190815260200160002060008360200151815260200190815260200160002081905550838015610fe457506000866080015151115b8015610ff65750600454816020015110155b1561100e5761100d866080015187606001516123ba565b5b505050505050808061101f90614e76565b915050610d6e565b5050565b60035481565b611039611b7b565b611043600061244b565b565b600c8060000154908060010154908060020154905083565b611065611b7b565b80600c60008201518160000155602082015181600101556040820151816002015590505050565b6000600660009054906101000a900473ffffffffffffffffffffffffffffffffffffffff16905090565b6110be611b7b565b6110c781612511565b50565b600960089054906101000a900473ffffffffffffffffffffffffffffffffffffffff1673ffffffffffffffffffffffffffffffffffffffff163373ffffffffffffffffffffffffffffffffffffffff161461115a576040517f08c379a0000000000000000000000000000000000000000000000000000000008152600401611151906158c6565b60405180910390fd5b60001515600b60009054906101000a900460ff161515146111b0576040517f08c379a00000000000000000000000000000000000000000000000000000000081526004016111a790615932565b60405180910390fd5b60008083838101906111c29190615990565b915091508073ffffffffffffffffffffffffffffffffffffffff168673ffffffffffffffffffffffffffffffffffffffff167f112fb14b18814e9f8ab6364318bbf6412464e49fd65b580b134d7947f33c208e84886040516112259291906159d0565b60405180910390a3505050505050565b600080600080600090505b845181101561147a5760006001826112589190615a03565b90505b600081126113195785818151811061127657611275614e18565b5b602002602001015173ffffffffffffffffffffffffffffffffffffffff168683815181106112a7576112a6614e18565b5b602002602001015173ffffffffffffffffffffffffffffffffffffffff161415611306576040517f08c379a00000000000000000000000000000000000000000000000000000000081526004016112fd90615ae3565b60405180910390fd5b808061131190615b03565b91505061125b565b506004546001600087848151811061133457611333614e18565b5b602002602001015173ffffffffffffffffffffffffffffffffffffffff1673ffffffffffffffffffffffffffffffffffffffff16815260200190815260200160002054141561138c57828061138890614e76565b9350505b600754600860008784815181106113a6576113a5614e18565b5b602002602001015173ffffffffffffffffffffffffffffffffffffffff1673ffffffffffffffffffffffffffffffffffffffff1681526020019081526020016000205414156113fe5781806113fa90614e76565b9250505b600960009054906101000a900463ffffffff1663ffffffff168214801561145657506064600960049054906101000a900463ffffffff1663ffffffff166003546114489190615b4c565b6114529190615bd5565b8310155b1561146757600193505050506114c2565b808061147290614e76565b915050611240565b506114bb6040518060400160405280601681526020017f76616c69643a2025732072657175697265643a2025730000000000000000000081525083836125ce565b6000925050505b919050565b6114cf611b7b565b80600960046101000a81548163ffffffff021916908363ffffffff16021790555050565b60026020528060005260406000206000915054906101000a900460ff1681565b600b60009054906101000a900460ff1681565b6000602052816000526040600020602052806000526040600020600091509150505481565b60055481565b600080600088815260200190815260200160002060008781526020019081526020016000205490508282604051611589929190615c36565b604051809103902081146115d2576040517f08c379a00000000000000000000000000000000000000000000000000000000081526004016115c990615c9b565b60405180910390fd5b600061162184848080601f016020809104026020016040519081016040528093929190818152602001838380828437600081840152601f19601f820116905080830192505050505050506106cb565b905060005b868690508110156117b757600087878381811061164657611645614e18565b5b90506020028101906116589190615cbb565b604051611666929190615c36565b60405180910390209050808360000151146116b6576040517f08c379a00000000000000000000000000000000000000000000000000000000081526004016116ad90615d6a565b60405180910390fd5b60006117288989858181106116ce576116cd614e18565b5b90506020028101906116e09190615cbb565b8080601f016020809104026020016040519081016040528093929190818152602001838380828437600081840152601f19601f820116905080830192505050505050506106cb565b905060055481602001511015611773576040517f08c379a000000000000000000000000000000000000000000000000000000000815260040161176a9061585a565b60405180910390fd5b816000808d815260200190815260200160002060008360200151815260200190815260200160002081905550809350505080806117af90614e76565b915050611626565b505050505050505050565b6117ca611b7b565b80600f60006101000a81548173ffffffffffffffffffffffffffffffffffffffff021916908373ffffffffffffffffffffffffffffffffffffffff16021790555050565b60045481565b6000600167ffffffffffffffff8111156118315761183061402c565b5b60405190808252806020026020018201604052801561186a57816020015b611857613e85565b81526020019060019003908161184f5790505b5090508661187790615d8a565b8160008151811061188b5761188a614e18565b5b602002602001018190525061189f81610d6b565b60008585905011156118cc576118cb87600001358787878b80602001906118c69190615cbb565b611551565b5b6118db87600001358484610945565b50505050505050565b600f60009054906101000a900473ffffffffffffffffffffffffffffffffffffffff1681565b60001515600b60009054906101000a900460ff16151514611960576040517f08c379a000000000000000000000000000000000000000000000000000000000815260040161195790615932565b60405180910390fd5b600960089054906101000a900473ffffffffffffffffffffffffffffffffffffffff1673ffffffffffffffffffffffffffffffffffffffff166323b872dd3330846040518463ffffffff1660e01b81526004016119bf93929190615d9d565b6020604051808303816000875af11580156119de573d6000803e3d6000fd5b505050506040513d601f19601f82011682018060405250810190611a029190614f56565b611a41576040517f08c379a0000000000000000000000000000000000000000000000000000000008152600401611a3890615e20565b60405180910390fd5b8273ffffffffffffffffffffffffffffffffffffffff163373ffffffffffffffffffffffffffffffffffffffff167f112fb14b18814e9f8ab6364318bbf6412464e49fd65b580b134d7947f33c208e8484604051611aa09291906159d0565b60405180910390a3505050565b600960089054906101000a900473ffffffffffffffffffffffffffffffffffffffff1681565b611adb611b7b565b600073ffffffffffffffffffffffffffffffffffffffff168173ffffffffffffffffffffffffffffffffffffffff161415611b4b576040517f08c379a0000000000000000000000000000000000000000000000000000000008152600401611b4290615eb2565b60405180910390fd5b611b548161244b565b50565b7f112fb14b18814e9f8ab6364318bbf6412464e49fd65b580b134d7947f33c208e81565b611b8361266d565b73ffffffffffffffffffffffffffffffffffffffff16611ba161108c565b73ffffffffffffffffffffffffffffffffffffffff1614611bf7576040517f08c379a0000000000000000000000000000000000000000000000000000000008152600401611bee90615f1e565b60405180910390fd5b565b611c01613eb4565b600060208301905060405180604001604052808451815260200182815250915050919050565b6060611c3282612675565b611c3b57600080fd5b6000611c46836126c3565b905060008167ffffffffffffffff811115611c6457611c6361402c565b5b604051908082528060200260200182016040528015611c9d57816020015b611c8a613eb4565b815260200190600190039081611c825790505b5090506000611caf8560200151612751565b8560200151611cbe9190615f3e565b9050600080600090505b84811015611d2f57611cd983612810565b9150604051806040016040528083815260200184815250848281518110611d0357611d02614e18565b5b60200260200101819052508183611d1a9190615f3e565b92508080611d2790614e76565b915050611cc8565b5082945050505050919050565b6000808260000151118015611d5657506021826000015111155b611d5f57600080fd5b600080611d6b846128ec565b915091506000825190506020821015611d8b57816020036101000a810490505b809350505050919050565b6000808260400151836080015181518110611db457611db3614e18565b5b602002602001015190506000611dd1611dcc83611bf9565b612936565b9050600084606001511415611e32578360000151828051906020012014611e2d576040517f08c379a0000000000000000000000000000000000000000000000000000000008152600401611e2490616006565b60405180910390fd5b611eef565b602082511015611ea0576000611e4f611e4a8361298d565b611d3c565b60001b905084600001518114611e9a576040517f08c379a0000000000000000000000000000000000000000000000000000000008152600401611e9190616072565b60405180910390fd5b50611eee565b8360000151828051906020012014611eed576040517f08c379a0000000000000000000000000000000000000000000000000000000008152600401611ee4906160de565b60405180910390fd5b5b5b6000611efe82600001516126c3565b90506011811415611f1c57611f12856129f0565b9350505050611f5b565b6002811415611f3957611f2f8286612b7a565b9350505050611f5b565b60008560a00151511415611f535760019350505050611f5b565b600093505050505b919050565b611f68613ece565b6000607f60f81b7effffffffffffffffffffffffffffffffffffffffffffffffffffffffffffff191683600081518110611fa557611fa4614e18565b5b602001015160f81c60f81b7effffffffffffffffffffffffffffffffffffffffffffffffffffffffffffff191611611fdc57600190505b6000611ff9611ff48386612f4490919063ffffffff16565b611c27565b905061201f8160008151811061201257612011614e18565b5b6020026020010151611d3c565b836000019060ff16908160ff16815250506120548160018151811061204757612046614e18565b5b6020026020010151611d3c565b8360200181815250506120818160028151811061207457612073614e18565b5b6020026020010151612f8c565b836040018190525060006120af826003815181106120a2576120a1614e18565b5b6020026020010151611c27565b9050805167ffffffffffffffff8111156120cc576120cb61402c565b5b60405190808252806020026020018201604052801561210557816020015b6120f2613ef9565b8152602001906001900390816120ea5790505b50846060018190525060005b81518110156121725761213d8282815181106121305761212f614e18565b5b602002602001015161301f565b8560600151828151811061215457612153614e18565b5b6020026020010181905250808061216a90614e76565b915050612111565b50505050919050565b60006001826000015160ff16146121c7576040517f08c379a00000000000000000000000000000000000000000000000000000000081526004016121be9061614a565b60405180910390fd5b6000805b836060015151811015612355576000846060015182815181106121f1576121f0614e18565b5b6020026020010151905060001515600a6000836000015173ffffffffffffffffffffffffffffffffffffffff1673ffffffffffffffffffffffffffffffffffffffff16815260200190815260200160002060009054906101000a900460ff161515148061229d57507f112fb14b18814e9f8ab6364318bbf6412464e49fd65b580b134d7947f33c208e816020015160008151811061229257612291614e18565b5b602002602001015114155b156122a85750612342565b60008082604001518060200190518101906122c3919061616a565b915091506122cf6131ab565b82146122dd57505050612342565b60019450600083602001516002815181106122fb576122fa614e18565b5b602002602001015160001c90506000846020015160018151811061232257612321614e18565b5b602002602001015160001c905061233c8183858e8e6131b5565b50505050505b808061234d90614e76565b9150506121cb565b50809150509392505050565b6000816040516020016123749190616201565b604051602081830303815290604052805190602001209050919050565b60008060006123a18686866133b8565b915091506123ae81613417565b81925050509392505050565b60005b82518110156124375781600160008584815181106123de576123dd614e18565b5b602002602001015173ffffffffffffffffffffffffffffffffffffffff1673ffffffffffffffffffffffffffffffffffffffff16815260200190815260200160002081905550808061242f90614e76565b9150506123bd565b508060048190555081516003819055505050565b6000600660009054906101000a900473ffffffffffffffffffffffffffffffffffffffff16905081600660006101000a81548173ffffffffffffffffffffffffffffffffffffffff021916908373ffffffffffffffffffffffffffffffffffffffff1602179055508173ffffffffffffffffffffffffffffffffffffffff168173ffffffffffffffffffffffffffffffffffffffff167f8be0079c531659141344cd1fd0a4f28419497f9722a3daafe3b4186f6b6457e060405160405180910390a35050565b6007600081548092919061252490614e76565b919050555060005b81518110156125a8576007546008600084848151811061254f5761254e614e18565b5b602002602001015173ffffffffffffffffffffffffffffffffffffffff1673ffffffffffffffffffffffffffffffffffffffff1681526020019081526020016000208190555080806125a090614e76565b91505061252c565b508051600960006101000a81548163ffffffff021916908363ffffffff16021790555050565b6126688383836040516024016125e69392919061626b565b6040516020818303038152906040527fca47c4eb000000000000000000000000000000000000000000000000000000007bffffffffffffffffffffffffffffffffffffffffffffffffffffffff19166020820180517bffffffffffffffffffffffffffffffffffffffffffffffffffffffff83818316178352505050506135ec565b505050565b600033905090565b6000808260000151141561268c57600090506126be565b60008083602001519050805160001a915060c060ff168260ff1610156126b7576000925050506126be565b6001925050505b919050565b600080826000015114156126da576000905061274c565b6000806126ea8460200151612751565b84602001516126f99190615f3e565b90506000846000015185602001516127119190615f3e565b90505b808210156127455761272582612810565b826127309190615f3e565b9150828061273d90614e76565b935050612714565b8293505050505b919050565b600080825160001a9050608060ff1681101561277157600091505061280b565b60b860ff16811080612796575060c060ff168110158015612795575060f860ff1681105b5b156127a557600191505061280b565b60c060ff168110156127e05760018060b86127c091906162b6565b60ff16826127ce91906162ea565b6127d89190615f3e565b91505061280b565b60018060f86127ef91906162b6565b60ff16826127fd91906162ea565b6128079190615f3e565b9150505b919050565b6000806000835160001a9050608060ff1681101561283157600191506128e2565b60b860ff16811015612860576001608060ff168261284f91906162ea565b6128599190615f3e565b91506128e1565b60c060ff168110156128905760b78103600185019450806020036101000a855104600182018101935050506128e0565b60f860ff168110156128bf57600160c060ff16826128ae91906162ea565b6128b89190615f3e565b91506128df565b60f78103600185019450806020036101000a855104600182018101935050505b5b5b5b8192505050919050565b60008060006128fe8460200151612751565b905060008185602001516129129190615f3e565b9050600082866000015161292691906162ea565b9050818194509450505050915091565b61293e613f30565b61294782612675565b61295057600080fd5b600061295f8360200151612751565b836020015161296e9190615f3e565b9050604051806040016040528084815260200182815250915050919050565b612995613eb4565b61299e82613615565b6129a757600080fd5b60008260200151905060006129bb82612810565b905080826129c99190615f3e565b84602001818152505060405180604001604052808281526020018381525092505050919050565b6000808260400151836080015181518110612a0e57612a0d614e18565b5b60200260200101519050826020015151836060015110612a8b576000612a5e612a3e612a3984611bf9565b611c27565b601081518110612a5157612a50614e18565b5b6020026020010151612f8c565b90508360a001518051906020012081805190602001201415612a8557600192505050612b75565b50612b57565b60008360200151846060015181518110612aa857612aa7614e18565b5b602001015160f81c60f81b60f81c60ff1690506000612af0612ad1612acc85611bf9565b611c27565b8381518110612ae357612ae2614e18565b5b6020026020010151612f8c565b90506000815114612b5457612b0481613641565b856000018181525050600185606001818151612b209190615f3e565b91508181525050600185608001818151612b3a9190615f3e565b91508181525050612b4a85611d96565b9350505050612b75565b50505b60008360a00151511415612b6f576001915050612b75565b60009150505b919050565b600080612b8e612b898561298d565b612f8c565b90506000612ba3612b9e8661298d565b612f8c565b90506000602083015160f81c8060041c9150506002811415612c7157600060018451612bcf91906162ea565b90506000612be185600184600061364f565b90506000612bfa8860200151896060015185600061364f565b905084805190602001208860a00151805190602001201415612c6957808051906020012082805190602001201415612c3b5760019650505050505050612f3e565b8080519060200120612c4c83613747565b805190602001201415612c685760019650505050505050612f3e565b5b505050612f1c565b6003811415612d2c576000612c8b8460008651600161364f565b90506000612cb88760200151886060015189606001518a6020015151612cb191906162ea565b600061364f565b905083805190602001208760a00151805190602001201415612d2557808051906020012082805190602001201415612cf857600195505050505050612f3e565b8080519060200120612d09836138af565b805190602001201415612d2457600195505050505050612f3e565b5b5050612f1b565b6000811415612e0b57600060018451612d4591906162ea565b90506000612d5785600184600061364f565b90506000612d708860200151896060015185600061364f565b9050808051906020012082805190602001201480612da357508080519060200120612d9a83613747565b80519060200120145b15612e0357612db185613641565b8860000181815250508288606001818151612dcc9190615f3e565b91508181525050600188608001818151612de69190615f3e565b91508181525050612df688611d96565b9650505050505050612f3e565b505050612f1a565b6001811415612ede576000835190506000612e2a85600084600161364f565b90506000612e438860200151896060015185600061364f565b9050808051906020012082805190602001201480612e7657508080519060200120612e6d83613747565b80519060200120145b15612ed657612e8485613641565b8860000181815250508288606001818151612e9f9190615f3e565b91508181525050600188608001818151612eb99190615f3e565b91508181525050612ec988611d96565b9650505050505050612f3e565b505050612f19565b6040517f08c379a0000000000000000000000000000000000000000000000000000000008152600401612f109061636a565b60405180910390fd5b5b5b5b60008560a00151511415612f365760019350505050612f3e565b600093505050505b92915050565b612f4c613eb4565b60006020840190508281612f609190615f3e565b90506040518060400160405280848651612f7a91906162ea565b81526020018281525091505092915050565b60606000826000015111612f9f57600080fd5b600080612fab846128ec565b9150915060008167ffffffffffffffff811115612fcb57612fca61402c565b5b6040519080825280601f01601f191660200182016040528015612ffd5781602001600182028036833780820191505090505b5090506000816020019050613013848285613a89565b81945050505050919050565b613027613ef9565b600061303283611c27565b90506130588160008151811061304b5761304a614e18565b5b6020026020010151613b30565b826000019073ffffffffffffffffffffffffffffffffffffffff16908173ffffffffffffffffffffffffffffffffffffffff168152505060006130b5826001815181106130a8576130a7614e18565b5b6020026020010151611c27565b9050805167ffffffffffffffff8111156130d2576130d161402c565b5b6040519080825280602002602001820160405280156131005781602001602082028036833780820191505090505b50836020018190525060005b815181101561317757600061313a83838151811061312d5761312c614e18565b5b6020026020010151611d3c565b60001b9050808560200151838151811061315757613156614e18565b5b60200260200101818152505050808061316f90614e76565b91505061310c565b5061319c8260028151811061318f5761318e614e18565b5b6020026020010151612f8c565b83604001819052505050919050565b6000601054905090565b60008473ffffffffffffffffffffffffffffffffffffffff163373ffffffffffffffffffffffffffffffffffffffff161415801561321f57508573ffffffffffffffffffffffffffffffffffffffff163373ffffffffffffffffffffffffffffffffffffffff1614155b156132305761322d84613b53565b90505b600960089054906101000a900473ffffffffffffffffffffffffffffffffffffffff1673ffffffffffffffffffffffffffffffffffffffff1663a9059cbb86838761327b91906162ea565b6040518363ffffffff1660e01b8152600401613298929190614f01565b6020604051808303816000875af11580156132b7573d6000803e3d6000fd5b505050506040513d601f19601f820116820180604052508101906132db9190614f56565b61331a576040517f08c379a000000000000000000000000000000000000000000000000000000000815260040161331190614fe0565b60405180910390fd5b61332385613bb2565b3373ffffffffffffffffffffffffffffffffffffffff168573ffffffffffffffffffffffffffffffffffffffff168773ffffffffffffffffffffffffffffffffffffffff167ff29fbcfcb6494a73073140d30bd2c2e269766b65882ea37b70184a1cba7ea065848861339591906162ea565b8588886040516133a8949392919061638a565b60405180910390a4505050505050565b60008060007f7fffffffffffffffffffffffffffffffffffffffffffffffffffffffffffffff60001b841690506000601b60ff8660001c901c6133fb9190615f3e565b905061340987828885613d44565b935093505050935093915050565b6000600481111561342b5761342a6163cf565b5b81600481111561343e5761343d6163cf565b5b1415613449576135e9565b6001600481111561345d5761345c6163cf565b5b8160048111156134705761346f6163cf565b5b14156134b1576040517f08c379a00000000000000000000000000000000000000000000000000000000081526004016134a89061644a565b60405180910390fd5b600260048111156134c5576134c46163cf565b5b8160048111156134d8576134d76163cf565b5b1415613519576040517f08c379a0000000000000000000000000000000000000000000000000000000008152600401613510906164b6565b60405180910390fd5b6003600481111561352d5761352c6163cf565b5b8160048111156135405761353f6163cf565b5b1415613581576040517f08c379a000000000000000000000000000000000000000000000000000000000815260040161357890616548565b60405180910390fd5b600480811115613594576135936163cf565b5b8160048111156135a7576135a66163cf565b5b14156135e8576040517f08c379a00000000000000000000000000000000000000000000000000000000081526004016135df906165da565b60405180910390fd5b5b50565b60008151905060006a636f6e736f6c652e6c6f679050602083016000808483855afa5050505050565b60008082600001519050806000015181602001516136339190615f3e565b836020015110915050919050565b600060208201519050919050565b606060006020846136609190615bd5565b90506000600860208661367391906165fa565b61367d9190615b4c565b61010061368a91906162ea565b9050600060209050600080808867ffffffffffffffff8111156136b0576136af61402c565b5b6040519080825280601f01601f1916602001820160405280156136e25781602001600182028036833780820191505090505b5090508a8a0191508715613709578382015160041b60041c84820152600192506020840193505b825b8681101561372c57848301518583015260208501945060018101905061370b565b5083820151851c851b84820152505050505050949350505050565b60606000600283516137599190615b4c565b905060008167ffffffffffffffff8111156137775761377661402c565b5b6040519080825280601f01601f1916602001820160405280156137a95781602001600182028036833780820191505090505b50905060005b84518110156138a4576000806137e18784815181106137d1576137d0614e18565b5b602001015160f81c60f81b613e51565b9150915081846002856137f49190615b4c565b8151811061380557613804614e18565b5b60200101907effffffffffffffffffffffffffffffffffffffffffffffffffffffffffffff1916908160001a905350808460016002866138459190615b4c565b61384f9190615f3e565b815181106138605761385f614e18565b5b60200101907effffffffffffffffffffffffffffffffffffffffffffffffffffffffffffff1916908160001a9053505050808061389c90614e76565b9150506137af565b508092505050919050565b606060006001600284516138c39190615b4c565b6138cd91906162ea565b905060008167ffffffffffffffff8111156138eb576138ea61402c565b5b6040519080825280601f01601f19166020018201604052801561391d5781602001600182028036833780820191505090505b5090508360008151811061393457613933614e18565b5b602001015160f81c60f81b8160008151811061395357613952614e18565b5b60200101907effffffffffffffffffffffffffffffffffffffffffffffffffffffffffffff1916908160001a9053506000600190505b8451811015613a7e576000806139bb8784815181106139ab576139aa614e18565b5b602001015160f81c60f81b613e51565b91509150818460016002866139d09190615b4c565b6139da91906162ea565b815181106139eb576139ea614e18565b5b60200101907effffffffffffffffffffffffffffffffffffffffffffffffffffffffffffff1916908160001a9053508084600285613a299190615b4c565b81518110613a3a57613a39614e18565b5b60200101907effffffffffffffffffffffffffffffffffffffffffffffffffffffffffffff1916908160001a90535050508080613a7690614e76565b915050613989565b508092505050919050565b6000811415613a9757613b2b565b5b602060ff168110613ae25782518252602060ff1683613ab79190615f3e565b9250602060ff1682613ac99190615f3e565b9150602060ff1681613adb91906162ea565b9050613a98565b6000811115613b2a576000600182602060ff16613aff91906162ea565b610100613b0c919061675e565b613b1691906162ea565b905080198451168184511681811785525050505b5b505050565b60006015826000015114613b4357600080fd5b613b4c82611d3c565b9050919050565b6000612710600c6002015483613b699190615b4c565b613b739190615bd5565b9050600c60000154811015613b8d57600c60000154613b8f565b805b9050600c60010154811115613ba957600c60010154613bab565b805b9050919050565b600073ffffffffffffffffffffffffffffffffffffffff16600f60009054906101000a900473ffffffffffffffffffffffffffffffffffffffff1673ffffffffffffffffffffffffffffffffffffffff1614158015613cab5750600f60009054906101000a900473ffffffffffffffffffffffffffffffffffffffff1673ffffffffffffffffffffffffffffffffffffffff1663e97eefd2826040518263ffffffff1660e01b8152600401613c6791906148b2565b6020604051808303816000875af1158015613c86573d6000803e3d6000fd5b505050506040513d601f19601f82011682018060405250810190613caa9190614f56565b5b15613d4157600f60009054906101000a900473ffffffffffffffffffffffffffffffffffffffff1673ffffffffffffffffffffffffffffffffffffffff16633771dcf8826040518263ffffffff1660e01b8152600401613d0b91906148b2565b600060405180830381600087803b158015613d2557600080fd5b505af1925050508015613d36575060015b613d3f57613d40565b5b5b50565b6000807f7fffffffffffffffffffffffffffffff5d576e7357a4501ddfe92f46681b20a08360001c1115613d7f576000600391509150613e48565b601b8560ff1614158015613d975750601c8560ff1614155b15613da9576000600491509150613e48565b600060018787878760405160008152602001604052604051613dce94939291906167b8565b6020604051602081039080840390855afa158015613df0573d6000803e3d6000fd5b505050602060405103519050600073ffffffffffffffffffffffffffffffffffffffff168173ffffffffffffffffffffffffffffffffffffffff161415613e3f57600060019250925050613e48565b80600092509250505b94509492505050565b6000808260041c91508260041b60041c9050915091565b604051806040016040528060008019168152602001600081525090565b6040518060a0016040528060008152602001606081526020016060815260200160008152602001606081525090565b604051806040016040528060008152602001600081525090565b6040518060800160405280600060ff1681526020016000815260200160608152602001606081525090565b6040518060600160405280600073ffffffffffffffffffffffffffffffffffffffff16815260200160608152602001606081525090565b6040518060400160405280613f43613eb4565b8152602001600081525090565b6000604051905090565b600080fd5b600080fd5b600080fd5b600080fd5b600080fd5b60008083601f840112613f8957613f88613f64565b5b8235905067ffffffffffffffff811115613fa657613fa5613f69565b5b602083019150836020820283011115613fc257613fc1613f6e565b5b9250929050565b60008060208385031215613fe057613fdf613f5a565b5b600083013567ffffffffffffffff811115613ffe57613ffd613f5f565b5b61400a85828601613f73565b92509250509250929050565b600080fd5b6000601f19601f8301169050919050565b7f4e487b7100000000000000000000000000000000000000000000000000000000600052604160045260246000fd5b6140648261401b565b810181811067ffffffffffffffff821117156140835761408261402c565b5b80604052505050565b6000614096613f50565b90506140a2828261405b565b919050565b600067ffffffffffffffff8211156140c2576140c161402c565b5b6140cb8261401b565b9050602081019050919050565b82818337600083830152505050565b60006140fa6140f5846140a7565b61408c565b90508281526020810184848401111561411657614115614016565b5b6141218482856140d8565b509392505050565b600082601f83011261413e5761413d613f64565b5b813561414e8482602086016140e7565b91505092915050565b60006020828403121561416d5761416c613f5a565b5b600082013567ffffffffffffffff81111561418b5761418a613f5f565b5b61419784828501614129565b91505092915050565b6000819050919050565b6141b3816141a0565b82525050565b6000819050919050565b6141cc816141b9565b82525050565b6040820160008201516141e860008501826141aa565b5060208201516141fb60208501826141c3565b50505050565b600060408201905061421660008301846141d2565b92915050565b600073ffffffffffffffffffffffffffffffffffffffff82169050919050565b60006142478261421c565b9050919050565b6142578161423c565b811461426257600080fd5b50565b6000813590506142748161424e565b92915050565b6000602082840312156142905761428f613f5a565b5b600061429e84828501614265565b91505092915050565b60008115159050919050565b6142bc816142a7565b82525050565b60006020820190506142d760008301846142b3565b92915050565b6142e6816141b9565b82525050565b600060208201905061430160008301846142dd565b92915050565b600063ffffffff82169050919050565b61432081614307565b82525050565b600060208201905061433b6000830184614317565b92915050565b61434a816141b9565b811461435557600080fd5b50565b60008135905061436781614341565b92915050565b60008083601f84011261438357614382613f64565b5b8235905067ffffffffffffffff8111156143a05761439f613f69565b5b6020830191508360208202830111156143bc576143bb613f6e565b5b9250929050565b6000806000604084860312156143dc576143db613f5a565b5b60006143ea86828701614358565b935050602084013567ffffffffffffffff81111561440b5761440a613f5f565b5b6144178682870161436d565b92509250509250925092565b600067ffffffffffffffff82111561443e5761443d61402c565b5b602082029050602081019050919050565b600080fd5b600080fd5b600067ffffffffffffffff8211156144745761447361402c565b5b602082029050602081019050919050565b600061449861449384614459565b61408c565b905080838252602082019050602084028301858111156144bb576144ba613f6e565b5b835b8181101561450257803567ffffffffffffffff8111156144e0576144df613f64565b5b8086016144ed8982614129565b855260208501945050506020810190506144bd565b5050509392505050565b600082601f83011261452157614520613f64565b5b8135614531848260208601614485565b91505092915050565b600067ffffffffffffffff8211156145555761455461402c565b5b602082029050602081019050919050565b60006145796145748461453a565b61408c565b9050808382526020820190506020840283018581111561459c5761459b613f6e565b5b835b818110156145c557806145b18882614265565b84526020840193505060208101905061459e565b5050509392505050565b600082601f8301126145e4576145e3613f64565b5b81356145f4848260208601614566565b91505092915050565b600060a082840312156146135761461261444f565b5b61461d60a061408c565b9050600061462d84828501614358565b600083015250602082013567ffffffffffffffff81111561465157614650614454565b5b61465d84828501614129565b602083015250604082013567ffffffffffffffff81111561468157614680614454565b5b61468d8482850161450c565b60408301525060606146a184828501614358565b606083015250608082013567ffffffffffffffff8111156146c5576146c4614454565b5b6146d1848285016145cf565b60808301525092915050565b60006146f06146eb84614423565b61408c565b9050808382526020820190506020840283018581111561471357614712613f6e565b5b835b8181101561475a57803567ffffffffffffffff81111561473857614737613f64565b5b80860161474589826145fd565b85526020850194505050602081019050614715565b5050509392505050565b600082601f83011261477957614778613f64565b5b81356147898482602086016146dd565b91505092915050565b6000602082840312156147a8576147a7613f5a565b5b600082013567ffffffffffffffff8111156147c6576147c5613f5f565b5b6147d284828501614764565b91505092915050565b60006060820190506147f060008301866142dd565b6147fd60208301856142dd565b61480a60408301846142dd565b949350505050565b6000606082840312156148285761482761444f565b5b614832606061408c565b9050600061484284828501614358565b600083015250602061485684828501614358565b602083015250604061486a84828501614358565b60408301525092915050565b60006060828403121561488c5761488b613f5a565b5b600061489a84828501614812565b91505092915050565b6148ac8161423c565b82525050565b60006020820190506148c760008301846148a3565b92915050565b6000602082840312156148e3576148e2613f5a565b5b600082013567ffffffffffffffff81111561490157614900613f5f565b5b61490d848285016145cf565b91505092915050565b60008083601f84011261492c5761492b613f64565b5b8235905067ffffffffffffffff81111561494957614948613f69565b5b60208301915083600182028301111561496557614964613f6e565b5b9250929050565b6000806000806060858703121561498657614985613f5a565b5b600061499487828801614265565b94505060206149a587828801614358565b935050604085013567ffffffffffffffff8111156149c6576149c5613f5f565b5b6149d287828801614916565b925092505092959194509250565b6149e981614307565b81146149f457600080fd5b50565b600081359050614a06816149e0565b92915050565b600060208284031215614a2257614a21613f5a565b5b6000614a30848285016149f7565b91505092915050565b614a42816141a0565b8114614a4d57600080fd5b50565b600081359050614a5f81614a39565b92915050565b600060208284031215614a7b57614a7a613f5a565b5b6000614a8984828501614a50565b91505092915050565b60008060408385031215614aa957614aa8613f5a565b5b6000614ab785828601614358565b9250506020614ac885828601614358565b9150509250929050565b614adb816141a0565b82525050565b6000602082019050614af66000830184614ad2565b92915050565b60008083601f840112614b1257614b11613f64565b5b8235905067ffffffffffffffff811115614b2f57614b2e613f69565b5b602083019150836020820283011115614b4b57614b4a613f6e565b5b9250929050565b60008060008060008060808789031215614b6f57614b6e613f5a565b5b6000614b7d89828a01614358565b9650506020614b8e89828a01614358565b955050604087013567ffffffffffffffff811115614baf57614bae613f5f565b5b614bbb89828a01614afc565b9450945050606087013567ffffffffffffffff811115614bde57614bdd613f5f565b5b614bea89828a01614916565b92509250509295509295509295565b6000614c048261423c565b9050919050565b614c1481614bf9565b8114614c1f57600080fd5b50565b600081359050614c3181614c0b565b92915050565b600060208284031215614c4d57614c4c613f5a565b5b6000614c5b84828501614c22565b91505092915050565b600080fd5b600060a08284031215614c7f57614c7e614c64565b5b81905092915050565b60008060008060008060808789031215614ca557614ca4613f5a565b5b600087013567ffffffffffffffff811115614cc357614cc2613f5f565b5b614ccf89828a01614c69565b9650506020614ce089828a01614358565b955050604087013567ffffffffffffffff811115614d0157614d00613f5f565b5b614d0d89828a01614afc565b9450945050606087013567ffffffffffffffff811115614d3057614d2f613f5f565b5b614d3c89828a0161436d565b92509250509295509295509295565b6000819050919050565b6000614d70614d6b614d668461421c565b614d4b565b61421c565b9050919050565b6000614d8282614d55565b9050919050565b6000614d9482614d77565b9050919050565b614da481614d89565b82525050565b6000602082019050614dbf6000830184614d9b565b92915050565b600080600060608486031215614dde57614ddd613f5a565b5b6000614dec86828701614265565b9350506020614dfd86828701614358565b9250506040614e0e86828701614358565b9150509250925092565b7f4e487b7100000000000000000000000000000000000000000000000000000000600052603260045260246000fd5b7f4e487b7100000000000000000000000000000000000000000000000000000000600052601160045260246000fd5b6000614e81826141b9565b91507fffffffffffffffffffffffffffffffffffffffffffffffffffffffffffffffff821415614eb457614eb3614e47565b5b600182019050919050565b600081519050614ece81614341565b92915050565b600060208284031215614eea57614ee9613f5a565b5b6000614ef884828501614ebf565b91505092915050565b6000604082019050614f1660008301856148a3565b614f2360208301846142dd565b9392505050565b614f33816142a7565b8114614f3e57600080fd5b50565b600081519050614f5081614f2a565b92915050565b600060208284031215614f6c57614f6b613f5a565b5b6000614f7a84828501614f41565b91505092915050565b600082825260208201905092915050565b7f7472616e73666572000000000000000000000000000000000000000000000000600082015250565b6000614fca600883614f83565b9150614fd582614f94565b602082019050919050565b60006020820190508181036000830152614ff981614fbd565b9050919050565b600080fd5b600080fd5b600080fd5b60008235600160600383360303811261502b5761502a615000565b5b80830191505092915050565b600067ffffffffffffffff8211156150525761505161402c565b5b602082029050602081019050919050565b600060c082840312156150795761507861444f565b5b61508360c061408c565b9050600061509384828501614a50565b600083015250602082013567ffffffffffffffff8111156150b7576150b6614454565b5b6150c384828501614129565b602083015250604082013567ffffffffffffffff8111156150e7576150e6614454565b5b6150f38482850161450c565b604083015250606061510784828501614358565b606083015250608061511b84828501614358565b60808301525060a082013567ffffffffffffffff81111561513f5761513e614454565b5b61514b84828501614129565b60a08301525092915050565b600061516a61516584615037565b61408c565b9050808382526020820190506020840283018581111561518d5761518c613f6e565b5b835b818110156151d457803567ffffffffffffffff8111156151b2576151b1613f64565b5b8086016151bf8982615063565b8552602085019450505060208101905061518f565b5050509392505050565b600082601f8301126151f3576151f2613f64565b5b8135615203848260208601615157565b91505092915050565b6000606082840312156152225761522161444f565b5b61522c606061408c565b9050600082013567ffffffffffffffff81111561524c5761524b614454565b5b615258848285016151de565b600083015250602082013567ffffffffffffffff81111561527c5761527b614454565b5b61528884828501614129565b602083015250604061529c84828501614358565b60408301525092915050565b60006152b4368361520c565b9050919050565b7f696e76616c696420626c6f636b20686173680000000000000000000000000000600082015250565b60006152f1601283614f83565b91506152fc826152bb565b602082019050919050565b60006020820190508181036000830152615320816152e4565b9050919050565b600081519050919050565b600082825260208201905092915050565b60005b83811015615361578082015181840152602081019050615346565b83811115615370576000848401525b50505050565b600061538182615327565b61538b8185615332565b935061539b818560208601615343565b6153a48161401b565b840191505092915050565b60006060820190506153c460008301866142dd565b6153d16020830185614ad2565b81810360408301526153e38184615376565b9050949350505050565b7f7265636569707420616c72656164792075736564000000000000000000000000600082015250565b6000615423601483614f83565b915061542e826153ed565b602082019050919050565b6000602082019050818103600083015261545281615416565b9050919050565b7f6e6f7420737461727420696e6465780000000000000000000000000000000000600082015250565b600061548f600f83614f83565b915061549a82615459565b602082019050919050565b600060208201905081810360008301526154be81615482565b9050919050565b7f72656365697074526f6f74206d69736d61746368000000000000000000000000600082015250565b60006154fb601483614f83565b9150615506826154c5565b602082019050919050565b6000602082019050818103600083015261552a816154ee565b9050919050565b7f72656365697074206e6f7420696e20626c6f636b000000000000000000000000600082015250565b6000615567601483614f83565b915061557282615531565b602082019050919050565b600060208201905081810360008301526155968161555a565b9050919050565b7f65786563757465206661696c6564000000000000000000000000000000000000600082015250565b60006155d3600e83614f83565b91506155de8261559d565b602082019050919050565b60006020820190508181036000830152615602816155c6565b9050919050565b6000819050919050565b61562461561f826141a0565b615609565b82525050565b6000819050919050565b615645615640826141b9565b61562a565b82525050565b600081519050919050565b600081905092915050565b6000819050602082019050919050565b61567a8161423c565b82525050565b600061568c8383615671565b60208301905092915050565b6000602082019050919050565b60006156b08261564b565b6156ba8185615656565b93506156c583615661565b8060005b838110156156f65781516156dd8882615680565b97506156e883615698565b9250506001810190506156c9565b5085935050505092915050565b600061570f8287615613565b60208201915061571f8286615634565b60208201915061572f82856156a5565b915061573b8284615634565b60208201915081905095945050505050565b60008151905061575c81614a39565b92915050565b6000806040838503121561577957615778613f5a565b5b60006157878582860161574d565b92505060206157988582860161574d565b9150509250929050565b7f696e76616c6964207369676e6572730000000000000000000000000000000000600082015250565b60006157d8600f83614f83565b91506157e3826157a2565b602082019050919050565b60006020820190508181036000830152615807816157cb565b9050919050565b7f626c6f636b20746f6f206f6c6400000000000000000000000000000000000000600082015250565b6000615844600d83614f83565b915061584f8261580e565b602082019050919050565b6000602082019050818103600083015261587381615837565b9050919050565b7f6e6f7420746f6b656e0000000000000000000000000000000000000000000000600082015250565b60006158b0600983614f83565b91506158bb8261587a565b602082019050919050565b600060208201905081810360008301526158df816158a3565b9050919050565b7f636c6f7365640000000000000000000000000000000000000000000000000000600082015250565b600061591c600683614f83565b9150615927826158e6565b602082019050919050565b6000602082019050818103600083015261594b8161590f565b9050919050565b600061595d8261421c565b9050919050565b61596d81615952565b811461597857600080fd5b50565b60008135905061598a81615964565b92915050565b600080604083850312156159a7576159a6613f5a565b5b60006159b585828601614358565b92505060206159c68582860161597b565b9150509250929050565b60006040820190506159e560008301856142dd565b6159f260208301846142dd565b9392505050565b6000819050919050565b6000615a0e826159f9565b9150615a19836159f9565b9250827f800000000000000000000000000000000000000000000000000000000000000001821260008412151615615a5457615a53614e47565b5b827f7fffffffffffffffffffffffffffffffffffffffffffffffffffffffffffffff018213600084121615615a8c57615a8b614e47565b5b828203905092915050565b7f647570207369676e657200000000000000000000000000000000000000000000600082015250565b6000615acd600a83614f83565b9150615ad882615a97565b602082019050919050565b60006020820190508181036000830152615afc81615ac0565b9050919050565b6000615b0e826159f9565b91507f8000000000000000000000000000000000000000000000000000000000000000821415615b4157615b40614e47565b5b600182039050919050565b6000615b57826141b9565b9150615b62836141b9565b9250817fffffffffffffffffffffffffffffffffffffffffffffffffffffffffffffffff0483118215151615615b9b57615b9a614e47565b5b828202905092915050565b7f4e487b7100000000000000000000000000000000000000000000000000000000600052601260045260246000fd5b6000615be0826141b9565b9150615beb836141b9565b925082615bfb57615bfa615ba6565b5b828204905092915050565b600081905092915050565b6000615c1d8385615c06565b9350615c2a8385846140d8565b82840190509392505050565b6000615c43828486615c11565b91508190509392505050565b7f696e76616c6964206368696c6420726c70486561646572000000000000000000600082015250565b6000615c85601783614f83565b9150615c9082615c4f565b602082019050919050565b60006020820190508181036000830152615cb481615c78565b9050919050565b60008083356001602003843603038112615cd857615cd7615000565b5b80840192508235915067ffffffffffffffff821115615cfa57615cf9615005565b5b602083019250600182023603831315615d1657615d1561500a565b5b509250929050565b7f6e6f7420706172656e7400000000000000000000000000000000000000000000600082015250565b6000615d54600a83614f83565b9150615d5f82615d1e565b602082019050919050565b60006020820190508181036000830152615d8381615d47565b9050919050565b6000615d9636836145fd565b9050919050565b6000606082019050615db260008301866148a3565b615dbf60208301856148a3565b615dcc60408301846142dd565b949350505050565b7f7472616e7366657246726f6d0000000000000000000000000000000000000000600082015250565b6000615e0a600c83614f83565b9150615e1582615dd4565b602082019050919050565b60006020820190508181036000830152615e3981615dfd565b9050919050565b7f4f776e61626c653a206e6577206f776e657220697320746865207a65726f206160008201527f6464726573730000000000000000000000000000000000000000000000000000602082015250565b6000615e9c602683614f83565b9150615ea782615e40565b604082019050919050565b60006020820190508181036000830152615ecb81615e8f565b9050919050565b7f4f776e61626c653a2063616c6c6572206973206e6f7420746865206f776e6572600082015250565b6000615f08602083614f83565b9150615f1382615ed2565b602082019050919050565b60006020820190508181036000830152615f3781615efb565b9050919050565b6000615f49826141b9565b9150615f54836141b9565b9250827fffffffffffffffffffffffffffffffffffffffffffffffffffffffffffffffff03821115615f8957615f88614e47565b5b828201905092915050565b7f7665726966795472696550726f6f6620726f6f74206e6f64652068617368206960008201527f6e76616c69640000000000000000000000000000000000000000000000000000602082015250565b6000615ff0602683614f83565b9150615ffb82615f94565b604082019050919050565b6000602082019050818103600083015261601f81615fe3565b9050919050565b7f7665726966795472696550726f6f66203c203332000000000000000000000000600082015250565b600061605c601483614f83565b915061606782616026565b602082019050919050565b6000602082019050818103600083015261608b8161604f565b9050919050565b7f7665726966795472696550726f6f6620656c7365000000000000000000000000600082015250565b60006160c8601483614f83565b91506160d382616092565b602082019050919050565b600060208201905081810360008301526160f7816160bb565b9050919050565b7f696e76616c696420737461747573000000000000000000000000000000000000600082015250565b6000616134600e83614f83565b915061613f826160fe565b602082019050919050565b6000602082019050818103600083015261616381616127565b9050919050565b6000806040838503121561618157616180613f5a565b5b600061618f85828601614ebf565b92505060206161a085828601614ebf565b9150509250929050565b600081905092915050565b7f19457468657265756d205369676e6564204d6573736167653a0a333200000000600082015250565b60006161eb601c836161aa565b91506161f6826161b5565b601c82019050919050565b600061620c826161de565b91506162188284615613565b60208201915081905092915050565b600081519050919050565b600061623d82616227565b6162478185614f83565b9350616257818560208601615343565b6162608161401b565b840191505092915050565b600060608201905081810360008301526162858186616232565b905061629460208301856142dd565b6162a160408301846142dd565b949350505050565b600060ff82169050919050565b60006162c1826162a9565b91506162cc836162a9565b9250828210156162df576162de614e47565b5b828203905092915050565b60006162f5826141b9565b9150616300836141b9565b92508282101561631357616312614e47565b5b828203905092915050565b7f496e76616c69642070726f6f6600000000000000000000000000000000000000600082015250565b6000616354600d83614f83565b915061635f8261631e565b602082019050919050565b6000602082019050818103600083015261638381616347565b9050919050565b600060808201905061639f60008301876142dd565b6163ac60208301866142dd565b6163b960408301856142dd565b6163c660608301846142dd565b95945050505050565b7f4e487b7100000000000000000000000000000000000000000000000000000000600052602160045260246000fd5b7f45434453413a20696e76616c6964207369676e61747572650000000000000000600082015250565b6000616434601883614f83565b915061643f826163fe565b602082019050919050565b6000602082019050818103600083015261646381616427565b9050919050565b7f45434453413a20696e76616c6964207369676e6174757265206c656e67746800600082015250565b60006164a0601f83614f83565b91506164ab8261646a565b602082019050919050565b600060208201905081810360008301526164cf81616493565b9050919050565b7f45434453413a20696e76616c6964207369676e6174757265202773272076616c60008201527f7565000000000000000000000000000000000000000000000000000000000000602082015250565b6000616532602283614f83565b915061653d826164d6565b604082019050919050565b6000602082019050818103600083015261656181616525565b9050919050565b7f45434453413a20696e76616c6964207369676e6174757265202776272076616c60008201527f7565000000000000000000000000000000000000000000000000000000000000602082015250565b60006165c4602283614f83565b91506165cf82616568565b604082019050919050565b600060208201905081810360008301526165f3816165b7565b9050919050565b6000616605826141b9565b9150616610836141b9565b9250826166205761661f615ba6565b5b828206905092915050565b60008160011c9050919050565b6000808291508390505b60018511156166825780860481111561665e5761665d614e47565b5b600185161561666d5780820291505b808102905061667b8561662b565b9450616642565b94509492505050565b60008261669b5760019050616757565b816166a95760009050616757565b81600181146166bf57600281146166c9576166f8565b6001915050616757565b60ff8411156166db576166da614e47565b5b8360020a9150848211156166f2576166f1614e47565b5b50616757565b5060208310610133831016604e8410600b841016171561672d5782820a90508381111561672857616727614e47565b5b616757565b61673a8484846001616638565b9250905081840481111561675157616750614e47565b5b81810290505b9392505050565b6000616769826141b9565b9150616774836141b9565b92506167a17fffffffffffffffffffffffffffffffffffffffffffffffffffffffffffffffff848461668b565b905092915050565b6167b2816162a9565b82525050565b60006080820190506167cd6000830187614ad2565b6167da60208301866167a9565b6167e76040830185614ad2565b6167f46060830184614ad2565b9594505050505056fea264697066735822122080c2e3556a9e6e50150dbaa7efaeee8576ea6dd016a1d88fdf0ffb0c608e222864736f6c634300080a0033",
  "linkReferences": {},
  "deployedLinkReferences": {}
}