{
  "_format": "hh-sol-artifact-1",
  "contractName": "TokenBridge",
  "sourceName": "contracts/bridge/TokenBridge.sol",
  "abi": [
    {
      "inputs": [
        {
          "internalType": "address[]",
          "name": "_validators",
          "type": "address[]"
        },
        {
          "internalType": "uint256",
          "name": "_cycleEnd",
          "type": "uint256"
        },
        {
          "internalType": "address[]",
          "name": "_requiredValidators",
          "type": "address[]"
        },
        {
          "internalType": "uint32",
          "name": "_consensusRatio",
          "type": "uint32"
        },
        {
          "internalType": "address",
          "name": "_bridgedToken",
          "type": "address"
        },
        {
          "components": [
            {
              "internalType": "uint256",
              "name": "minFee",
              "type": "uint256"
            },
            {
              "internalType": "uint256",
              "name": "maxFee",
              "type": "uint256"
            },
            {
              "internalType": "uint256",
              "name": "fee",
              "type": "uint256"
            }
          ],
          "internalType": "struct TokenBridge.BridgeFees",
          "name": "_fees",
          "type": "tuple"
        },
        {
          "components": [
            {
              "internalType": "uint256",
              "name": "dailyLimit",
              "type": "uint256"
            },
            {
              "internalType": "uint256",
              "name": "txLimit",
              "type": "uint256"
            },
            {
              "internalType": "uint256",
              "name": "accountDailyLimit",
              "type": "uint256"
            }
          ],
          "internalType": "struct TokenBridge.BridgeLimits",
          "name": "_limits",
          "type": "tuple"
        },
        {
          "internalType": "contract IFaucet",
          "name": "_faucet",
          "type": "address"
        },
        {
          "internalType": "contract INameService",
          "name": "_nameService",
          "type": "address"
        }
      ],
      "stateMutability": "nonpayable",
      "type": "constructor"
    },
    {
      "anonymous": false,
      "inputs": [
        {
          "indexed": true,
          "internalType": "address",
          "name": "from",
          "type": "address"
        },
        {
          "indexed": true,
          "internalType": "address",
          "name": "to",
          "type": "address"
        },
        {
          "indexed": false,
          "internalType": "uint256",
          "name": "targetChainId",
          "type": "uint256"
        },
        {
          "indexed": false,
          "internalType": "uint256",
          "name": "amount",
          "type": "uint256"
        },
        {
          "indexed": false,
          "internalType": "bool",
          "name": "withRelay",
          "type": "bool"
        },
        {
          "indexed": false,
          "internalType": "bytes32",
          "name": "id",
          "type": "bytes32"
        }
      ],
      "name": "BridgeRequest",
      "type": "event"
    },
    {
      "anonymous": false,
      "inputs": [
        {
          "indexed": true,
          "internalType": "address",
          "name": "from",
          "type": "address"
        },
        {
          "indexed": true,
          "internalType": "address",
          "name": "to",
          "type": "address"
        },
        {
          "indexed": false,
          "internalType": "address",
          "name": "relayer",
          "type": "address"
        },
        {
          "indexed": false,
          "internalType": "uint256",
          "name": "amount",
          "type": "uint256"
        },
        {
          "indexed": false,
          "internalType": "uint256",
          "name": "fee",
          "type": "uint256"
        },
        {
          "indexed": false,
          "internalType": "uint256",
          "name": "sourceChainId",
          "type": "uint256"
        },
        {
          "indexed": false,
          "internalType": "uint256",
          "name": "sourceBlockNumber",
          "type": "uint256"
        },
        {
          "indexed": true,
          "internalType": "bytes32",
          "name": "id",
          "type": "bytes32"
        }
      ],
      "name": "ExecutedTransfer",
      "type": "event"
    },
    {
      "anonymous": false,
      "inputs": [
        {
          "indexed": true,
          "internalType": "address",
          "name": "previousOwner",
          "type": "address"
        },
        {
          "indexed": true,
          "internalType": "address",
          "name": "newOwner",
          "type": "address"
        }
      ],
      "name": "OwnershipTransferred",
      "type": "event"
    },
    {
      "inputs": [],
      "name": "BRIDGE_TOPIC",
      "outputs": [
        {
          "internalType": "bytes32",
          "name": "",
          "type": "bytes32"
        }
      ],
      "stateMutability": "view",
      "type": "function"
    },
    {
      "inputs": [
        {
          "internalType": "address",
          "name": "",
          "type": "address"
        }
      ],
      "name": "accountsDailyLimit",
      "outputs": [
        {
          "internalType": "uint256",
          "name": "lastTransferReset",
          "type": "uint256"
        },
        {
          "internalType": "uint256",
          "name": "bridged24Hours",
          "type": "uint256"
        }
      ],
      "stateMutability": "view",
      "type": "function"
    },
    {
      "inputs": [],
      "name": "bridgeDailyLimit",
      "outputs": [
        {
          "internalType": "uint256",
          "name": "lastTransferDay",
          "type": "uint256"
        },
        {
          "internalType": "uint256",
          "name": "totalBridgedToday",
          "type": "uint256"
        }
      ],
      "stateMutability": "view",
      "type": "function"
    },
    {
      "inputs": [],
      "name": "bridgeFees",
      "outputs": [
        {
          "internalType": "uint256",
          "name": "minFee",
          "type": "uint256"
        },
        {
          "internalType": "uint256",
          "name": "maxFee",
          "type": "uint256"
        },
        {
          "internalType": "uint256",
          "name": "fee",
          "type": "uint256"
        }
      ],
      "stateMutability": "view",
      "type": "function"
    },
    {
      "inputs": [],
      "name": "bridgeLimits",
      "outputs": [
        {
          "internalType": "uint256",
          "name": "dailyLimit",
          "type": "uint256"
        },
        {
          "internalType": "uint256",
          "name": "txLimit",
          "type": "uint256"
        },
        {
          "internalType": "uint256",
          "name": "accountDailyLimit",
          "type": "uint256"
        }
      ],
      "stateMutability": "view",
      "type": "function"
    },
    {
      "inputs": [],
      "name": "bridgeStartBlock",
      "outputs": [
        {
          "internalType": "uint256",
          "name": "",
          "type": "uint256"
        }
      ],
      "stateMutability": "view",
      "type": "function"
    },
    {
      "inputs": [
        {
          "internalType": "address",
          "name": "target",
          "type": "address"
        },
        {
          "internalType": "uint256",
          "name": "targetChainId",
          "type": "uint256"
        },
        {
          "internalType": "uint256",
          "name": "amount",
          "type": "uint256"
        }
      ],
      "name": "bridgeTo",
      "outputs": [],
      "stateMutability": "nonpayable",
      "type": "function"
    },
    {
      "inputs": [],
      "name": "bridgedToken",
      "outputs": [
        {
          "internalType": "address",
          "name": "",
          "type": "address"
        }
      ],
      "stateMutability": "view",
      "type": "function"
    },
    {
      "inputs": [
        {
          "internalType": "uint256",
          "name": "",
          "type": "uint256"
        },
        {
          "internalType": "uint256",
          "name": "",
          "type": "uint256"
        }
      ],
      "name": "chainVerifiedBlocks",
      "outputs": [
        {
          "internalType": "bytes32",
          "name": "",
          "type": "bytes32"
        }
      ],
      "stateMutability": "view",
      "type": "function"
    },
    {
      "inputs": [],
      "name": "closeBridge",
      "outputs": [],
      "stateMutability": "nonpayable",
      "type": "function"
    },
    {
      "inputs": [],
      "name": "consensusRatio",
      "outputs": [
        {
          "internalType": "uint32",
          "name": "",
          "type": "uint32"
        }
      ],
      "stateMutability": "view",
      "type": "function"
    },
    {
      "inputs": [
        {
          "internalType": "address",
          "name": "",
          "type": "address"
        }
      ],
      "name": "currentValidators",
      "outputs": [
        {
          "internalType": "uint256",
          "name": "",
          "type": "uint256"
        }
      ],
      "stateMutability": "view",
      "type": "function"
    },
    {
      "inputs": [
        {
          "internalType": "uint256",
          "name": "chainId",
          "type": "uint256"
        },
        {
          "components": [
            {
              "components": [
                {
                  "internalType": "bytes32",
                  "name": "expectedRoot",
                  "type": "bytes32"
                },
                {
                  "internalType": "bytes",
                  "name": "key",
                  "type": "bytes"
                },
                {
                  "internalType": "bytes[]",
                  "name": "proof",
                  "type": "bytes[]"
                },
                {
                  "internalType": "uint256",
                  "name": "keyIndex",
                  "type": "uint256"
                },
                {
                  "internalType": "uint256",
                  "name": "proofIndex",
                  "type": "uint256"
                },
                {
                  "internalType": "bytes",
                  "name": "expectedValue",
                  "type": "bytes"
                }
              ],
              "internalType": "struct MPT.MerkleProof[]",
              "name": "receiptProofs",
              "type": "tuple[]"
            },
            {
              "internalType": "bytes",
              "name": "blockHeaderRlp",
              "type": "bytes"
            },
            {
              "internalType": "uint256",
              "name": "blockNumber",
              "type": "uint256"
            }
          ],
          "internalType": "struct BridgeCore.BlockReceiptProofs[]",
          "name": "blocks",
          "type": "tuple[]"
        }
      ],
      "name": "executeReceipts",
      "outputs": [],
      "stateMutability": "nonpayable",
      "type": "function"
    },
    {
      "inputs": [],
      "name": "faucet",
      "outputs": [
        {
          "internalType": "contract IFaucet",
          "name": "",
          "type": "address"
        }
      ],
      "stateMutability": "view",
      "type": "function"
    },
    {
      "inputs": [],
      "name": "isClosed",
      "outputs": [
        {
          "internalType": "bool",
          "name": "",
          "type": "bool"
        }
      ],
      "stateMutability": "view",
      "type": "function"
    },
    {
      "inputs": [
        {
          "internalType": "address[]",
          "name": "signers",
          "type": "address[]"
        }
      ],
      "name": "isValidConsensus",
      "outputs": [
        {
          "internalType": "bool",
          "name": "isValid",
          "type": "bool"
        }
      ],
      "stateMutability": "nonpayable",
      "type": "function"
    },
    {
      "inputs": [],
      "name": "nameService",
      "outputs": [
        {
          "internalType": "contract INameService",
          "name": "",
          "type": "address"
        }
      ],
      "stateMutability": "view",
      "type": "function"
    },
    {
      "inputs": [],
      "name": "numRequiredValidators",
      "outputs": [
        {
          "internalType": "uint32",
          "name": "",
          "type": "uint32"
        }
      ],
      "stateMutability": "view",
      "type": "function"
    },
    {
      "inputs": [],
      "name": "numValidators",
      "outputs": [
        {
          "internalType": "uint256",
          "name": "",
          "type": "uint256"
        }
      ],
      "stateMutability": "view",
      "type": "function"
    },
    {
      "inputs": [
        {
          "internalType": "address",
          "name": "from",
          "type": "address"
        },
        {
          "internalType": "uint256",
          "name": "amount",
          "type": "uint256"
        },
        {
          "internalType": "bytes",
          "name": "data",
          "type": "bytes"
        }
      ],
      "name": "onTokenTransfer",
      "outputs": [],
      "stateMutability": "nonpayable",
      "type": "function"
    },
    {
      "inputs": [],
      "name": "owner",
      "outputs": [
        {
          "internalType": "address",
          "name": "",
          "type": "address"
        }
      ],
      "stateMutability": "view",
      "type": "function"
    },
    {
      "inputs": [
        {
          "internalType": "bytes",
          "name": "rlpHeader",
          "type": "bytes"
        }
      ],
      "name": "parseRLPToHeader",
      "outputs": [
        {
          "components": [
            {
              "internalType": "bytes32",
              "name": "parentHash",
              "type": "bytes32"
            },
            {
              "internalType": "uint256",
              "name": "number",
              "type": "uint256"
            }
          ],
          "internalType": "struct BridgeCore.BlockHeader",
          "name": "header",
          "type": "tuple"
        }
      ],
      "stateMutability": "pure",
      "type": "function"
    },
    {
      "inputs": [],
      "name": "renounceOwnership",
      "outputs": [],
      "stateMutability": "nonpayable",
      "type": "function"
    },
    {
      "inputs": [
        {
          "internalType": "address",
          "name": "",
          "type": "address"
        }
      ],
      "name": "requiredValidators",
      "outputs": [
        {
          "internalType": "uint256",
          "name": "",
          "type": "uint256"
        }
      ],
      "stateMutability": "view",
      "type": "function"
    },
    {
      "inputs": [],
      "name": "requiredValidatorsSet",
      "outputs": [
        {
          "internalType": "uint256",
          "name": "",
          "type": "uint256"
        }
      ],
      "stateMutability": "view",
      "type": "function"
    },
    {
      "inputs": [
        {
          "components": [
            {
              "internalType": "uint256",
              "name": "minFee",
              "type": "uint256"
            },
            {
              "internalType": "uint256",
              "name": "maxFee",
              "type": "uint256"
            },
            {
              "internalType": "uint256",
              "name": "fee",
              "type": "uint256"
            }
          ],
          "internalType": "struct TokenBridge.BridgeFees",
          "name": "_fees",
          "type": "tuple"
        }
      ],
      "name": "setBridgeFees",
      "outputs": [],
      "stateMutability": "nonpayable",
      "type": "function"
    },
    {
      "inputs": [
        {
          "internalType": "uint32",
          "name": "_consensusRatio",
          "type": "uint32"
        }
      ],
      "name": "setConsensusRatio",
      "outputs": [],
      "stateMutability": "nonpayable",
      "type": "function"
    },
    {
      "inputs": [
        {
          "internalType": "contract IFaucet",
          "name": "_faucet",
          "type": "address"
        }
      ],
      "name": "setFaucet",
      "outputs": [],
      "stateMutability": "nonpayable",
      "type": "function"
    },
    {
      "inputs": [
        {
          "internalType": "address[]",
          "name": "validators",
          "type": "address[]"
        }
      ],
      "name": "setRequiredValidators",
      "outputs": [],
      "stateMutability": "nonpayable",
      "type": "function"
    },
    {
      "inputs": [
        {
          "internalType": "address[]",
          "name": "bridges",
          "type": "address[]"
        }
      ],
      "name": "setSourceBridges",
      "outputs": [],
      "stateMutability": "nonpayable",
      "type": "function"
    },
    {
      "inputs": [
        {
          "internalType": "address",
          "name": "",
          "type": "address"
        }
      ],
      "name": "sourceBridges",
      "outputs": [
        {
          "internalType": "bool",
          "name": "",
          "type": "bool"
        }
      ],
      "stateMutability": "view",
      "type": "function"
    },
    {
      "inputs": [
        {
          "components": [
            {
              "internalType": "uint256",
              "name": "chainId",
              "type": "uint256"
            },
            {
              "internalType": "bytes",
              "name": "rlpHeader",
              "type": "bytes"
            },
            {
              "internalType": "bytes[]",
              "name": "signatures",
              "type": "bytes[]"
            },
            {
              "internalType": "uint256",
              "name": "cycleEnd",
              "type": "uint256"
            },
            {
              "internalType": "address[]",
              "name": "validators",
              "type": "address[]"
            }
          ],
          "internalType": "struct BridgeCore.SignedBlock[]",
          "name": "signedBlocks",
          "type": "tuple[]"
        }
      ],
      "name": "submitBlocks",
      "outputs": [],
      "stateMutability": "nonpayable",
      "type": "function"
    },
    {
      "inputs": [
        {
          "components": [
            {
              "internalType": "uint256",
              "name": "chainId",
              "type": "uint256"
            },
            {
              "internalType": "bytes",
              "name": "rlpHeader",
              "type": "bytes"
            },
            {
              "internalType": "bytes[]",
              "name": "signatures",
              "type": "bytes[]"
            },
            {
              "internalType": "uint256",
              "name": "cycleEnd",
              "type": "uint256"
            },
            {
              "internalType": "address[]",
              "name": "validators",
              "type": "address[]"
            }
          ],
          "internalType": "struct BridgeCore.SignedBlock",
          "name": "blockData",
          "type": "tuple"
        },
        {
          "internalType": "uint256",
          "name": "childBlockNumber",
          "type": "uint256"
        },
        {
          "internalType": "bytes[]",
          "name": "parentRlpHeaders",
          "type": "bytes[]"
        },
        {
          "components": [
            {
              "components": [
                {
                  "internalType": "bytes32",
                  "name": "expectedRoot",
                  "type": "bytes32"
                },
                {
                  "internalType": "bytes",
                  "name": "key",
                  "type": "bytes"
                },
                {
                  "internalType": "bytes[]",
                  "name": "proof",
                  "type": "bytes[]"
                },
                {
                  "internalType": "uint256",
                  "name": "keyIndex",
                  "type": "uint256"
                },
                {
                  "internalType": "uint256",
                  "name": "proofIndex",
                  "type": "uint256"
                },
                {
                  "internalType": "bytes",
                  "name": "expectedValue",
                  "type": "bytes"
                }
              ],
              "internalType": "struct MPT.MerkleProof[]",
              "name": "receiptProofs",
              "type": "tuple[]"
            },
            {
              "internalType": "bytes",
              "name": "blockHeaderRlp",
              "type": "bytes"
            },
            {
              "internalType": "uint256",
              "name": "blockNumber",
              "type": "uint256"
            }
          ],
          "internalType": "struct BridgeCore.BlockReceiptProofs[]",
          "name": "txs",
          "type": "tuple[]"
        }
      ],
      "name": "submitChainBlockParentsAndTxs",
      "outputs": [],
      "stateMutability": "nonpayable",
      "type": "function"
    },
    {
      "inputs": [
        {
          "internalType": "address",
          "name": "newOwner",
          "type": "address"
        }
      ],
      "name": "transferOwnership",
      "outputs": [],
      "stateMutability": "nonpayable",
      "type": "function"
    },
    {
      "inputs": [
        {
          "internalType": "bytes32",
          "name": "",
          "type": "bytes32"
        }
      ],
      "name": "usedReceipts",
      "outputs": [
        {
          "internalType": "bool",
          "name": "",
          "type": "bool"
        }
      ],
      "stateMutability": "view",
      "type": "function"
    },
    {
      "inputs": [],
      "name": "validatorsCycleEnd",
      "outputs": [
        {
          "internalType": "uint256",
          "name": "",
          "type": "uint256"
        }
      ],
      "stateMutability": "view",
      "type": "function"
    },
    {
      "inputs": [
        {
          "internalType": "uint256",
          "name": "chainId",
          "type": "uint256"
        },
        {
          "internalType": "uint256",
          "name": "childBlockNumber",
          "type": "uint256"
        },
        {
          "internalType": "bytes[]",
          "name": "parentRlpHeaders",
          "type": "bytes[]"
        },
        {
          "internalType": "bytes",
          "name": "childRlpHeader",
          "type": "bytes"
        }
      ],
      "name": "verifyParentBlocks",
      "outputs": [],
      "stateMutability": "nonpayable",
      "type": "function"
    }
  ],
  "bytecode": "0x60806040523480156200001157600080fd5b5060405162004a4638038062004a468339810160408190526200003491620003a8565b888888886200004333620000f5565b6200004f848462000147565b6200005a82620001ba565b6009805463ffffffff9092166401000000000263ffffffff60201b199092169190911790555050600d80546001600160a01b039788166001600160a01b0319918216179091558551601055602080870151601155604096870151601255855160135585015160145593909401516015556019805492861692841692909217909155601a80549190941691161790915550620004da9350505050565b600680546001600160a01b038381166001600160a01b0319831681179093556040519116919082907f8be0079c531659141344cd1fd0a4f28419497f9722a3daafe3b4186f6b6457e090600090a35050565b60005b8251811015620001b05781600160008584815181106200016e576200016e6200049a565b60200260200101516001600160a01b03166001600160a01b03168152602001908152602001600020819055508080620001a790620004b0565b9150506200014a565b5060045551600355565b60078054906000620001cc83620004b0565b919050555060005b81518110156200023c5760075460086000848481518110620001fa57620001fa6200049a565b60200260200101516001600160a01b03166001600160a01b031681526020019081526020016000208190555080806200023390620004b0565b915050620001d4565b50516009805463ffffffff191663ffffffff909216919091179055565b634e487b7160e01b600052604160045260246000fd5b6001600160a01b03811681146200028557600080fd5b50565b805162000295816200026f565b919050565b600082601f830112620002ac57600080fd5b815160206001600160401b0380831115620002cb57620002cb62000259565b8260051b604051601f19603f83011681018181108482111715620002f357620002f362000259565b6040529384528581018301938381019250878511156200031257600080fd5b83870191505b848210156200033e5781516200032e816200026f565b8352918301919083019062000318565b979650505050505050565b6000606082840312156200035c57600080fd5b604051606081016001600160401b038111828210171562000381576200038162000259565b80604052508091508251815260208301516020820152604083015160408201525092915050565b60008060008060008060008060006101a08a8c031215620003c857600080fd5b89516001600160401b0380821115620003e057600080fd5b620003ee8d838e016200029a565b9a5060208c0151995060408c01519150808211156200040c57600080fd5b506200041b8c828d016200029a565b97505060608a015163ffffffff811681146200043657600080fd5b95506200044660808b0162000288565b9450620004578b60a08c0162000349565b9350620004698b6101008c0162000349565b92506200047a6101608b0162000288565b91506200048b6101808b0162000288565b90509295985092959850929598565b634e487b7160e01b600052603260045260246000fd5b6000600019821415620004d357634e487b7160e01b600052601160045260246000fd5b5060010190565b61455c80620004ea6000396000f3fe608060405234801561001057600080fd5b50600436106102275760003560e01c8063a4c0ed3611610130578063ce2b2cf0116100b8578063de5f72fd1161007c578063de5f72fd14610541578063e39b32e814610554578063ee38393714610567578063f2fde38b1461057a578063f39e17d51461058d57600080fd5b8063ce2b2cf0146104d8578063d4227947146104eb578063d8b31c7714610512578063dd99014b14610525578063de55abc31461052e57600080fd5b8063be58d44d116100ff578063be58d44d14610465578063c2b6b58c14610488578063c3e6978f14610495578063c6dd812f146104bd578063c728a603146104cf57600080fd5b8063a4c0ed3614610409578063a8b8be181461041c578063b1228a631461042f578063b2f7667f1461044257600080fd5b80634406acdd116101b3578063715018a611610182578063715018a61461039d5780637b0240c0146103a557806382dc737d146103d25780638da5cb5b146103e5578063930af354146103f657600080fd5b80634406acdd146103495780634c83f9e4146103695780635c843060146103815780635d593f8d1461039457600080fd5b8063370a4250116101fa578063370a4250146102af5780633811da50146102c65780633886d21e146102e65780633cca046d1461030b5780633e6326fc1461031e57600080fd5b806309d3f8961461022c5780631b1c6272146102415780631b89ee31146102745780631d3af2551461027c575b600080fd5b61023f61023a36600461375a565b6105a2565b005b61025461024f3660046138bc565b610621565b604080518251815260209283015192810192909252015b60405180910390f35b61023f610693565b61029f61028a366004613905565b600e6020526000908152604090205460ff1681565b604051901515815260200161026b565b6102b860075481565b60405190815260200161026b565b6102b86102d4366004613905565b60086020526000908152604090205481565b6009546102f69063ffffffff1681565b60405163ffffffff909116815260200161026b565b61023f610319366004613922565b6107e4565b601a54610331906001600160a01b031681565b6040516001600160a01b03909116815260200161026b565b6102b8610357366004613905565b60016020526000908152604090205481565b6009546102f690640100000000900463ffffffff1681565b61023f61038f366004613b2a565b610b89565b6102b860035481565b61023f610e54565b6010546011546012546103b792919083565b6040805193845260208401929092529082015260600161026b565b61023f6103e0366004613bda565b610e68565b6006546001600160a01b0316610331565b61023f610404366004613c35565b610e86565b61023f610417366004613caa565b610e9a565b61029f61042a366004613c35565b610f92565b61023f61043d366004613d05565b611168565b601654601754610450919082565b6040805192835260208301919091520161026b565b61029f610473366004613d2b565b60026020526000908152604090205460ff1681565b600f5461029f9060ff1681565b6102b86104a3366004613d44565b600060208181529281526040808220909352908152205481565b6013546014546015546103b792919083565b6102b860055481565b61023f6104e6366004613d66565b611198565b6104506104f9366004613905565b6018602052600090815260409020805460019091015482565b61023f610520366004613905565b6113cb565b6102b860045481565b61023f61053c366004613de8565b6113f5565b601954610331906001600160a01b031681565b61023f610562366004613e7b565b6114b3565b600d54610331906001600160a01b031681565b61023f610588366004613905565b611605565b6102b860008051602061450783398151915281565b6105aa61167b565b60005b8181101561061c576001600e60008585858181106105cd576105cd613eb0565b90506020020160208101906105e29190613905565b6001600160a01b031681526020810191909152604001600020805460ff19169115159190911790558061061481613edc565b9150506105ad565b505050565b60408051808201909152600080825260208201526000610648610643846116d5565b611702565b905061066d8160008151811061066057610660613eb0565b6020026020010151611817565b82528051610688908290600890811061066057610660613eb0565b602083015250919050565b61069b61167b565b600d546001600160a01b031663a9059cbb6106be6006546001600160a01b031690565b600d546040516370a0823160e01b81523060048201526001600160a01b03909116906370a0823190602401602060405180830381865afa158015610706573d6000803e3d6000fd5b505050506040513d601f19601f8201168201806040525081019061072a9190613ef7565b6040516001600160e01b031960e085901b1681526001600160a01b03909216600483015260248201526044016020604051808303816000875af1158015610775573d6000803e3d6000fd5b505050506040513d601f19601f820116820180604052508101906107999190613f25565b6107d55760405162461bcd60e51b81526020600482015260086024820152673a3930b739b332b960c11b60448201526064015b60405180910390fd5b600f805460ff19166001179055565b60005b81811015610b8357600083838381811061080357610803613eb0565b90506020028101906108159190613f40565b61081e90613f60565b60008681526020818152604080832081850151845282529091205481830151805192019190912091925090811461088c5760405162461bcd60e51b81526020600482015260126024820152710d2dcecc2d8d2c840c4d8dec6d640d0c2e6d60731b60448201526064016107cc565b600061089e61064384602001516116d5565b905060006108b88260058151811061066057610660613eb0565b905060005b845151811015610b6b5760008985876000015184815181106108e1576108e1613eb0565b602002602001015160a001516040516020016108ff939291906140ef565b60408051601f1981840301815291815281516020928301206000818152600290935291205490915060ff161561096e5760405162461bcd60e51b81526020600482015260146024820152731c9958d95a5c1d08185b1c9958591e481d5cd95960621b60448201526064016107cc565b6000818152600260205260409020805460ff19166001179055855180518390811061099b5761099b613eb0565b60200260200101516060015160001480156109d5575085518051839081106109c5576109c5613eb0565b6020026020010151608001516000145b610a135760405162461bcd60e51b815260206004820152600f60248201526e0dcdee840e6e8c2e4e840d2dcc8caf608b1b60448201526064016107cc565b8286600001518381518110610a2a57610a2a613eb0565b60200260200101516000015114610a7a5760405162461bcd60e51b81526020600482015260146024820152730e4cac6cad2e0e8a4dedee840dad2e6dac2e8c6d60631b60448201526064016107cc565b610aa086600001518381518110610a9357610a93613eb0565b6020026020010151611865565b610ae35760405162461bcd60e51b815260206004820152601460248201527372656365697074206e6f7420696e20626c6f636b60601b60448201526064016107cc565b610b1b8a8760400151610b1689600001518681518110610b0557610b05613eb0565b602002602001015160a00151611a26565b611c0e565b610b585760405162461bcd60e51b815260206004820152600e60248201526d195e1958dd5d194819985a5b195960921b60448201526064016107cc565b5080610b6381613edc565b9150506108bd565b50505050508080610b7b90613edc565b9150506107e7565b50505050565b60005b8151811015610e50576000828281518110610ba957610ba9613eb0565b602090810291909101810151808201518051908301208151608083015160608401516040519496509294607a831494600094610beb9488949093909201614153565b60405160208183030381529060405280519060200120905060008460400151516001600160401b03811115610c2257610c2261379b565b604051908082528060200260200182016040528015610c4b578160200160208202803683370190505b50905060005b856040015151811015610d3e5760008087604001518381518110610c7757610c77613eb0565b6020026020010151806020019051810190610c9291906141a2565b91509150610cf7610cf0866040517f19457468657265756d205369676e6564204d6573736167653a0a3332000000006020820152603c8101829052600090605c01604051602081830303815290604052805190602001209050919050565b8383611da4565b848481518110610d0957610d09613eb0565b60200260200101906001600160a01b031690816001600160a01b03168152505050508080610d3690613edc565b915050610c51565b50610d4881610f92565b610d865760405162461bcd60e51b815260206004820152600f60248201526e696e76616c6964207369676e65727360881b60448201526064016107cc565b6000610d958660200151610621565b905060055481602001511015610ddd5760405162461bcd60e51b815260206004820152600d60248201526c189b1bd8dac81d1bdbc81bdb19609a1b60448201526064016107cc565b85516000908152602081815260408083208483015184529091529020859055838015610e0e57506000866080015151115b8015610e205750600454816020015110155b15610e3757610e3786608001518760600151611dc1565b5050505050508080610e4890613edc565b915050610b8c565b5050565b610e5c61167b565b610e666000611e2d565b565b610e7061167b565b8051601055602081015160115560400151601255565b610e8e61167b565b610e9781611e7f565b50565b600d546001600160a01b03163314610ee05760405162461bcd60e51b81526020600482015260096024820152683737ba103a37b5b2b760b91b60448201526064016107cc565b600080610eef838501856141c6565b91509150610eff86828785611f15565b806001600160a01b0316866001600160a01b0316600080516020614507833981519152848860018b87898d60013043604051602001610f4497969594939291906141f6565b60405160208183030381529060405280519060200120604051610f829493929190938452602084019290925215156040830152606082015260800190565b60405180910390a3505050505050565b60008080805b845181101561115d576000610fae600183614238565b90505b6000811261104c57858181518110610fcb57610fcb613eb0565b60200260200101516001600160a01b0316868381518110610fee57610fee613eb0565b60200260200101516001600160a01b0316141561103a5760405162461bcd60e51b815260206004820152600a602482015269323ab81039b4b3b732b960b11b60448201526064016107cc565b8061104481614277565b915050610fb1565b506004546001600087848151811061106657611066613eb0565b60200260200101516001600160a01b03166001600160a01b031681526020019081526020016000205414156110a3578261109f81613edc565b9350505b600754600860008784815181106110bc576110bc613eb0565b60200260200101516001600160a01b03166001600160a01b031681526020019081526020016000205414156110f957816110f581613edc565b9250505b60095463ffffffff168214801561113b575060095460035460649161112d9164010000000090910463ffffffff1690614295565b61113791906142ca565b8310155b1561114b57506001949350505050565b8061115581613edc565b915050610f98565b506000949350505050565b61117061167b565b6009805463ffffffff9092166401000000000267ffffffff0000000019909216919091179055565b600086815260208181526040808320888452909152908190205490516111c190849084906142de565b604051809103902081146112175760405162461bcd60e51b815260206004820152601760248201527f696e76616c6964206368696c6420726c7048656164657200000000000000000060448201526064016107cc565b600061125884848080601f01602080910402602001604051908101604052809392919081815260200183838082843760009201919091525061062192505050565b905060005b858110156113c057600087878381811061127957611279613eb0565b905060200281019061128b91906142ee565b6040516112999291906142de565b60405180910390209050808360000151146112e35760405162461bcd60e51b815260206004820152600a6024820152691b9bdd081c185c995b9d60b21b60448201526064016107cc565b60006113468989858181106112fa576112fa613eb0565b905060200281019061130c91906142ee565b8080601f01602080910402602001604051908101604052809392919081815260200183838082843760009201919091525061062192505050565b90506005548160200151101561138e5760405162461bcd60e51b815260206004820152600d60248201526c189b1bd8dac81d1bdbc81bdb19609a1b60448201526064016107cc565b60008b8152602081815260408083208483015184529091529020919091559150806113b881613edc565b91505061125d565b505050505050505050565b6113d361167b565b601980546001600160a01b0319166001600160a01b0392909216919091179055565b604080516001808252818301909252600091816020015b61143e6040518060a0016040528060008152602001606081526020016060815260200160008152602001606081525090565b81526020019060019003908161140c57905050905061145c87614334565b8160008151811061146f5761146f613eb0565b602002602001018190525061148381610b89565b831561149e5761149e87358787876104e660208d018d6142ee565b6114aa873584846107e4565b50505050505050565b6114bf33848385611f15565b600d546040516323b872dd60e01b8152336004820152306024820152604481018390526001600160a01b03909116906323b872dd906064016020604051808303816000875af1158015611516573d6000803e3d6000fd5b505050506040513d601f19601f8201168201806040525081019061153a9190613f25565b6115755760405162461bcd60e51b815260206004820152600c60248201526b7472616e7366657246726f6d60a01b60448201526064016107cc565b826001600160a01b0316336001600160a01b03166000805160206145078339815191528484600133898989600130436040516020016115ba97969594939291906141f6565b604051602081830303815290604052805190602001206040516115f89493929190938452602084019290925215156040830152606082015260800190565b60405180910390a3505050565b61160d61167b565b6001600160a01b0381166116725760405162461bcd60e51b815260206004820152602660248201527f4f776e61626c653a206e6577206f776e657220697320746865207a65726f206160448201526564647265737360d01b60648201526084016107cc565b610e9781611e2d565b6006546001600160a01b03163314610e665760405162461bcd60e51b815260206004820181905260248201527f4f776e61626c653a2063616c6c6572206973206e6f7420746865206f776e657260448201526064016107cc565b60408051808201825260008082526020918201528151808301909252825182529182019181019190915290565b606061170d826122df565b61171657600080fd5b600061172183612318565b90506000816001600160401b0381111561173d5761173d61379b565b60405190808252806020026020018201604052801561178257816020015b604080518082019091526000808252602082015281526020019060019003908161175b5790505b5090506000611794856020015161239b565b85602001516117a39190614340565b90506000805b8481101561180c576117ba8361241d565b91506040518060400160405280838152602001848152508482815181106117e3576117e3613eb0565b60209081029190910101526117f88284614340565b92508061180481613edc565b9150506117a9565b509195945050505050565b80516000901580159061182c57508151602110155b61183557600080fd5b600080611841846124c6565b81519193509150602082101561185d5760208290036101000a90045b949350505050565b600080826040015183608001518151811061188257611882613eb0565b60200260200101519050600061189f61189a836116d5565b61250d565b905083606001516000141561191857835182516020840120146119135760405162461bcd60e51b815260206004820152602660248201527f7665726966795472696550726f6f6620726f6f74206e6f6465206861736820696044820152651b9d985b1a5960d21b60648201526084016107cc565b6119d2565b60208251101561198557600061193561193083612579565b611817565b8551909150811461197f5760405162461bcd60e51b81526020600482015260146024820152733b32b934b33caa3934b2a83937b7b3101e10199960611b60448201526064016107cc565b506119d2565b835182516020840120146119d25760405162461bcd60e51b81526020600482015260146024820152737665726966795472696550726f6f6620656c736560601b60448201526064016107cc565b60006119e18260000151612318565b905080601114156119fe576119f5856125d6565b95945050505050565b8060021415611a11576119f5828661270e565b60a08501515161115d57506001949350505050565b611a546040518060800160405280600060ff1681526020016000815260200160608152602001606081525090565b8151600090607f60f81b9084908390611a6f57611a6f613eb0565b01602001516001600160f81b03191611611a87575060015b6000611a9661064385846129e5565b9050611aae8160008151811061066057610660613eb0565b60ff1683528051611acc908290600190811061066057610660613eb0565b60208401528051611af79082906002908110611aea57611aea613eb0565b6020026020010151612a31565b83604001819052506000611b2482600381518110611b1757611b17613eb0565b6020026020010151611702565b905080516001600160401b03811115611b3f57611b3f61379b565b604051908082528060200260200182016040528015611b9d57816020015b611b8a604051806060016040528060006001600160a01b0316815260200160608152602001606081525090565b815260200190600190039081611b5d5790505b50606085015260005b8151811015611c0557611bd1828281518110611bc457611bc4613eb0565b6020026020010151612aa5565b85606001518281518110611be757611be7613eb0565b60200260200101819052508080611bfd90613edc565b915050611ba6565b50505050919050565b6000816000015160ff16600114611c585760405162461bcd60e51b815260206004820152600e60248201526d696e76616c69642073746174757360901b60448201526064016107cc565b6000805b836060015151811015611d9b57600084606001518281518110611c8157611c81613eb0565b60209081029190910181015180516001600160a01b03166000908152600e90925260409091205490915060ff161580611ce657506000805160206145078339815191528160200151600081518110611cdb57611cdb613eb0565b602002602001015114155b15611cf15750611d89565b6000806000808460400151806020019051810190611d0f9190614358565b9350935093509350611d1e4690565b8414611d2e575050505050611d89565b60019650611d838560200151600181518110611d4c57611d4c613eb0565b602002602001015160001c8660200151600281518110611d6e57611d6e613eb0565b602002602001015160001c858e8e8787612bf4565b50505050505b80611d9381613edc565b915050611c5c565b50949350505050565b6000806000611db4868686612e97565b91509150611d9b81612ed0565b60005b8251811015611e23578160016000858481518110611de457611de4613eb0565b60200260200101516001600160a01b03166001600160a01b03168152602001908152602001600020819055508080611e1b90613edc565b915050611dc4565b5060045551600355565b600680546001600160a01b038381166001600160a01b0319831681179093556040519116919082907f8be0079c531659141344cd1fd0a4f28419497f9722a3daafe3b4186f6b6457e090600090a35050565b60078054906000611e8f83613edc565b919050555060005b8151811015611ef85760075460086000848481518110611eb957611eb9613eb0565b60200260200101516001600160a01b03166001600160a01b03168152602001908152602001600020819055508080611ef090613edc565b915050611e97565b50516009805463ffffffff191663ffffffff909216919091179055565b6001600160a01b038316611f5c5760405162461bcd60e51b815260206004820152600e60248201526d1a5b9d985b1a59081d185c99d95d60921b60448201526064016107cc565b60008111611fa45760405162461bcd60e51b81526020600482015260156024820152741a5b9d985b1a59081d185c99d95d10da185a5b9259605a1b60448201526064016107cc565b600f5460ff1615611fe05760405162461bcd60e51b815260206004820152600660248201526518db1bdcd95960d21b60448201526064016107cc565b601a546001600160a01b03161561213657601a5460405163bf40fac160e01b81526020600482015260086024820152674944454e5449545960c01b60448201526000916001600160a01b03169063bf40fac1906064016020604051808303816000875af1158015612055573d6000803e3d6000fd5b505050506040513d601f19601f820116820180604052508101906120799190614395565b90506001600160a01b0381161561213457604051633af32abf60e01b81526001600160a01b038681166004830152821690633af32abf906024016020604051808303816000875af11580156120d2573d6000803e3d6000fd5b505050506040513d601f19601f820116820180604052508101906120f69190613f25565b6121345760405162461bcd60e51b815260206004820152600f60248201526e1b9bdd081dda1a5d195b1a5cdd1959608a1b60448201526064016107cc565b505b6014548211156121725760405162461bcd60e51b81526020600482015260076024820152661d1e131a5b5a5d60ca1b60448201526064016107cc565b600061218162015180426142ca565b60165490915081111561219957601681905560006017555b82601660010160008282546121ae9190614340565b909155505060135460175411156121f45760405162461bcd60e51b815260206004820152600a60248201526919185a5b1e531a5b5a5d60b21b60448201526064016107cc565b61220162015180426143b2565b6001600160a01b0386166000908152601860205260409020541015612246576001600160a01b0385166000908152601860205260409020428155600101839055612277565b6001600160a01b03851660009081526018602052604081206001018054859290612271908490614340565b90915550505b6015546001600160a01b03861660009081526018602052604090206001015411156122d85760405162461bcd60e51b81526020600482015260116024820152701858d8dbdd5b9d11185a5b1e531a5b5a5d607a1b60448201526064016107cc565b5050505050565b80516000906122f057506000919050565b6020820151805160001a9060c082101561230e575060009392505050565b5060019392505050565b805160009061232957506000919050565b600080612339846020015161239b565b84602001516123489190614340565b90506000846000015185602001516123609190614340565b90505b80821015612392576123748261241d565b61237e9083614340565b91508261238a81613edc565b935050612363565b50909392505050565b8051600090811a60808110156123b45750600092915050565b60b88110806123cf575060c081108015906123cf575060f881105b156123dd5750600192915050565b60c0811015612411576123f2600160b86143c9565b6123ff9060ff16826143b2565b61240a906001614340565b9392505050565b6123f2600160f86143c9565b80516000908190811a608081101561243857600191506124bf565b60b881101561245e5761244c6080826143b2565b612457906001614340565b91506124bf565b60c081101561248b5760b78103600185019450806020036101000a855104600182018101935050506124bf565b60f881101561249f5761244c60c0826143b2565b60f78103600185019450806020036101000a855104600182018101935050505b5092915050565b60008060006124d8846020015161239b565b905060008185602001516124ec9190614340565b9050600082866000015161250091906143b2565b9196919550909350505050565b6040805160808101825260009181018281526060820183905281526020810191909152612539826122df565b61254257600080fd5b6000612551836020015161239b565b83602001516125609190614340565b6040805180820190915293845260208401525090919050565b60408051808201909152600080825260208201526125968261308b565b61259f57600080fd5b602082015160006125af8261241d565b90506125bb8183614340565b60209485015260408051808201909152908152928301525090565b60008082604001518360800151815181106125f3576125f3613eb0565b6020026020010151905082602001515183606001511061265c57600061263061261e610643846116d5565b601081518110611aea57611aea613eb0565b90508360a001518051906020012081805190602001201415612656575060019392505050565b506126f2565b6000836020015184606001518151811061267857612678613eb0565b016020015160f81c905060006126a4612693610643856116d5565b8381518110611aea57611aea613eb0565b905080516000146126ef5760208101518552606085018051600191906126cb908390614340565b905250608085018051600191906126e3908390614340565b9052506119f585611865565b50505b60a0830151516127055750600192915050565b50600092915050565b60008061272261271d85612579565b612a31565b9050600061273261271d86612579565b602083015190915060fc1c60028114156127f65760006001845161275691906143b2565b905060006127688560018460006130af565b90506000612781886020015189606001518560006130af565b905084805190602001208860a001518051906020012014156127ee578080519060200120828051906020012014156127c257600196505050505050506129df565b805160208201206127d283613193565b8051906020012014156127ee57600196505050505050506129df565b5050506129c1565b80600314156128ac576000612810846000865160016130af565b60208701516060880151815192935060009261283a9291906128339082906143b2565b60006130af565b905083805190602001208760a001518051906020012014156128a55780805190602001208280519060200120141561287a576001955050505050506129df565b8051602082012061288a836132ca565b8051906020012014156128a5576001955050505050506129df565b50506129c1565b8061296f576000600184516128c191906143b2565b905060006128d38560018460006130af565b905060006128ec886020015189606001518560006130af565b905080805190602001208280519060200120148061291e57508051602082012061291583613193565b80519060200120145b156127ee576020850151885260608801805184919061293e908390614340565b90525060808801805160019190612956908390614340565b90525061296288611865565b96505050505050506129df565b806001141561298957825160006128d385828460016130af565b60405162461bcd60e51b815260206004820152600d60248201526c24b73b30b634b210383937b7b360991b60448201526064016107cc565b60a0850151516129d757600193505050506129df565b600093505050505b92915050565b604080518082019091526000808252602082015260208301612a078382614340565b90506040518060400160405280848651612a2191906143b2565b8152602001919091529392505050565b8051606090612a3f57600080fd5b600080612a4b846124c6565b915091506000816001600160401b03811115612a6957612a6961379b565b6040519080825280601f01601f191660200182016040528015612a93576020820181803683370190505b50905060208101611d9b84828561342b565b612ad2604051806060016040528060006001600160a01b0316815260200160608152602001606081525090565b6000612add83611702565b9050612b0281600081518110612af557612af5613eb0565b60200260200101516134aa565b6001600160a01b031682528051600090612b299083906001908110611b1757611b17613eb0565b905080516001600160401b03811115612b4457612b4461379b565b604051908082528060200260200182016040528015612b6d578160200160208202803683370190505b50602084015260005b8151811015612bd0576000612b9683838151811061066057610660613eb0565b60001b90508085602001518381518110612bb257612bb2613eb0565b60209081029190910101525080612bc881613edc565b915050612b76565b50612be782600281518110611aea57611aea613eb0565b6040840152509092915050565b600080612c2b87858015612c115750336001600160a01b038b1614155b8015612c265750336001600160a01b038c1614155b6134c4565b90925090506000612c3c8284614340565b905081600b60008981526020019081526020016000206000828254612c619190614340565b90915550506000878152600c602052604081208054859290612c84908490614340565b90915550506000878152600a6020526040812080548a9290612ca7908490614340565b90915550612cb6905089613540565b600d546001600160a01b031663a9059cbb8a612cd2848c6143b2565b6040516001600160e01b031960e085901b1681526001600160a01b03909216600483015260248201526044016020604051808303816000875af1158015612d1d573d6000803e3d6000fd5b505050506040513d601f19601f82011682018060405250810190612d419190613f25565b612d785760405162461bcd60e51b81526020600482015260086024820152673a3930b739b332b960c11b60448201526064016107cc565b8115612e2a57600d5460405163a9059cbb60e01b8152336004820152602481018490526001600160a01b039091169063a9059cbb906044016020604051808303816000875af1158015612dcf573d6000803e3d6000fd5b505050506040513d601f19601f82011682018060405250810190612df39190613f25565b612e2a5760405162461bcd60e51b815260206004820152600860248201526772656c617946656560c01b60448201526064016107cc565b60408051338152602081018a9052908101829052606081018890526080810187905284906001600160a01b03808c1691908d16907feb4691abd5753902536b4ddb66b353862d2698ca20a7f783c2c7adb736404b0f9060a00160405180910390a450505050505050505050565b6000806001600160ff1b03831681612eb460ff86901c601b614340565b9050612ec287828885613629565b935093505050935093915050565b6000816004811115612ee457612ee46143ec565b1415612eed5750565b6001816004811115612f0157612f016143ec565b1415612f4f5760405162461bcd60e51b815260206004820152601860248201527f45434453413a20696e76616c6964207369676e6174757265000000000000000060448201526064016107cc565b6002816004811115612f6357612f636143ec565b1415612fb15760405162461bcd60e51b815260206004820152601f60248201527f45434453413a20696e76616c6964207369676e6174757265206c656e6774680060448201526064016107cc565b6003816004811115612fc557612fc56143ec565b141561301e5760405162461bcd60e51b815260206004820152602260248201527f45434453413a20696e76616c6964207369676e6174757265202773272076616c604482015261756560f01b60648201526084016107cc565b6004816004811115613032576130326143ec565b1415610e975760405162461bcd60e51b815260206004820152602260248201527f45434453413a20696e76616c6964207369676e6174757265202776272076616c604482015261756560f01b60648201526084016107cc565b805180516020820151600092916130a191614340565b836020015110915050919050565b606060006130be6020856142ca565b905060006130cd602086614402565b6130d8906008614295565b6130e4906101006143b2565b9050602060008080886001600160401b038111156131045761310461379b565b6040519080825280601f01601f19166020018201604052801561312e576020820181803683370190505b5090508a8a019150871561315857818401516001600160fc1b031681850152602090930192600192505b825b8681101561317857828501518286015260209094019360010161315a565b5083820151851c851b84820152505050505050949350505050565b60606000825160026131a59190614295565b90506000816001600160401b038111156131c1576131c161379b565b6040519080825280601f01601f1916602001820160405280156131eb576020820181803683370190505b50905060005b84518110156132c25760008061323587848151811061321257613212613eb0565b01602001516001600160f81b031916600481901c916001600160fc1b0390911690565b90925090508184613247856002614295565b8151811061325757613257613eb0565b60200101906001600160f81b031916908160001a905350808461327b856002614295565b613286906001614340565b8151811061329657613296613eb0565b60200101906001600160f81b031916908160001a905350505080806132ba90613edc565b9150506131f1565b509392505050565b606060006001835160026132de9190614295565b6132e891906143b2565b90506000816001600160401b038111156133045761330461379b565b6040519080825280601f01601f19166020018201604052801561332e576020820181803683370190505b5090508360008151811061334457613344613eb0565b602001015160f81c60f81b8160008151811061336257613362613eb0565b60200101906001600160f81b031916908160001a90535060015b84518110156132c25760008061339d87848151811061321257613212613eb0565b9092509050818460016133b1866002614295565b6133bb91906143b2565b815181106133cb576133cb613eb0565b60200101906001600160f81b031916908160001a90535080846133ef856002614295565b815181106133ff576133ff613eb0565b60200101906001600160f81b031916908160001a9053505050808061342390613edc565b91505061337c565b8061343557505050565b6020811061346d578251825261344c602084614340565b9250613459602083614340565b91506134666020826143b2565b9050613435565b801561061c57600060016134828360206143b2565b61348e906101006144fa565b61349891906143b2565b84518451821691191617835250505050565b80516000906015146134bb57600080fd5b6129df82611817565b6000806000612710601060020154866134dd9190614295565b6134e791906142ca565b6010549091508110156134fc576010546134fe565b805b60115490915081111561351357601154613515565b805b90506135226002826142ca565b90508084613531576000613533565b815b92509250505b9250929050565b6019546001600160a01b0316158015906135c557506019546040516374bf77e960e11b81526001600160a01b0383811660048301529091169063e97eefd2906024016020604051808303816000875af11580156135a1573d6000803e3d6000fd5b505050506040513d601f19601f820116820180604052508101906135c59190613f25565b15610e97576019546040516306ee3b9f60e31b81526001600160a01b03838116600483015290911690633771dcf890602401600060405180830381600087803b15801561361157600080fd5b505af1925050508015613622575060015b610e975750565b6000807f7fffffffffffffffffffffffffffffff5d576e7357a4501ddfe92f46681b20a0831115613660575060009050600361370d565b8460ff16601b1415801561367857508460ff16601c14155b15613689575060009050600461370d565b6040805160008082526020820180845289905260ff881692820192909252606081018690526080810185905260019060a0016020604051602081039080840390855afa1580156136dd573d6000803e3d6000fd5b5050604051601f1901519150506001600160a01b0381166137065760006001925092505061370d565b9150600090505b94509492505050565b60008083601f84011261372857600080fd5b5081356001600160401b0381111561373f57600080fd5b6020830191508360208260051b850101111561353957600080fd5b6000806020838503121561376d57600080fd5b82356001600160401b0381111561378357600080fd5b61378f85828601613716565b90969095509350505050565b634e487b7160e01b600052604160045260246000fd5b60405160a081016001600160401b03811182821017156137d3576137d361379b565b60405290565b604051606081016001600160401b03811182821017156137d3576137d361379b565b60405160c081016001600160401b03811182821017156137d3576137d361379b565b604051601f8201601f191681016001600160401b03811182821017156138455761384561379b565b604052919050565b600082601f83011261385e57600080fd5b81356001600160401b038111156138775761387761379b565b61388a601f8201601f191660200161381d565b81815284602083860101111561389f57600080fd5b816020850160208301376000918101602001919091529392505050565b6000602082840312156138ce57600080fd5b81356001600160401b038111156138e457600080fd5b61185d8482850161384d565b6001600160a01b0381168114610e9757600080fd5b60006020828403121561391757600080fd5b813561240a816138f0565b60008060006040848603121561393757600080fd5b8335925060208401356001600160401b0381111561395457600080fd5b61396086828701613716565b9497909650939450505050565b60006001600160401b038211156139865761398661379b565b5060051b60200190565b600082601f8301126139a157600080fd5b813560206139b66139b18361396d565b61381d565b82815260059290921b840181019181810190868411156139d557600080fd5b8286015b84811015613a145780356001600160401b038111156139f85760008081fd5b613a068986838b010161384d565b8452509183019183016139d9565b509695505050505050565b600082601f830112613a3057600080fd5b81356020613a406139b18361396d565b82815260059290921b84018101918181019086841115613a5f57600080fd5b8286015b84811015613a14578035613a76816138f0565b8352918301918301613a63565b600060a08284031215613a9557600080fd5b613a9d6137b1565b90508135815260208201356001600160401b0380821115613abd57600080fd5b613ac98583860161384d565b60208401526040840135915080821115613ae257600080fd5b613aee85838601613990565b6040840152606084013560608401526080840135915080821115613b1157600080fd5b50613b1e84828501613a1f565b60808301525092915050565b60006020808385031215613b3d57600080fd5b82356001600160401b0380821115613b5457600080fd5b818501915085601f830112613b6857600080fd5b8135613b766139b18261396d565b81815260059190911b83018401908481019088831115613b9557600080fd5b8585015b83811015613bcd57803585811115613bb15760008081fd5b613bbf8b89838a0101613a83565b845250918601918601613b99565b5098975050505050505050565b600060608284031215613bec57600080fd5b604051606081018181106001600160401b0382111715613c0e57613c0e61379b565b80604052508235815260208301356020820152604083013560408201528091505092915050565b600060208284031215613c4757600080fd5b81356001600160401b03811115613c5d57600080fd5b61185d84828501613a1f565b60008083601f840112613c7b57600080fd5b5081356001600160401b03811115613c9257600080fd5b60208301915083602082850101111561353957600080fd5b60008060008060608587031215613cc057600080fd5b8435613ccb816138f0565b93506020850135925060408501356001600160401b03811115613ced57600080fd5b613cf987828801613c69565b95989497509550505050565b600060208284031215613d1757600080fd5b813563ffffffff8116811461240a57600080fd5b600060208284031215613d3d57600080fd5b5035919050565b60008060408385031215613d5757600080fd5b50508035926020909101359150565b60008060008060008060808789031215613d7f57600080fd5b863595506020870135945060408701356001600160401b0380821115613da457600080fd5b613db08a838b01613716565b90965094506060890135915080821115613dc957600080fd5b50613dd689828a01613c69565b979a9699509497509295939492505050565b60008060008060008060808789031215613e0157600080fd5b86356001600160401b0380821115613e1857600080fd5b9088019060a0828b031215613e2c57600080fd5b9096506020880135955060408801359080821115613e4957600080fd5b613e558a838b01613716565b90965094506060890135915080821115613e6e57600080fd5b50613dd689828a01613716565b600080600060608486031215613e9057600080fd5b8335613e9b816138f0565b95602085013595506040909401359392505050565b634e487b7160e01b600052603260045260246000fd5b634e487b7160e01b600052601160045260246000fd5b6000600019821415613ef057613ef0613ec6565b5060010190565b600060208284031215613f0957600080fd5b5051919050565b80518015158114613f2057600080fd5b919050565b600060208284031215613f3757600080fd5b61240a82613f10565b60008235605e19833603018112613f5657600080fd5b9190910192915050565b60006060808336031215613f7357600080fd5b613f7b6137d9565b83356001600160401b0380821115613f9257600080fd5b9085019036601f830112613fa557600080fd5b81356020613fb56139b18361396d565b82815260059290921b84018101918181019036841115613fd457600080fd5b8286015b848110156140b057803586811115613ff05760008081fd5b870160c036829003601f19018113156140095760008081fd5b6140116137fb565b8683013581526040808401358a81111561402b5760008081fd5b614039368a8388010161384d565b89840152508c8401358a8111156140505760008081fd5b61405e368a83880101613990565b8284015250506080808401358d83015260a080850135828401528385013593508a84111561408e57600091508182fd5b61409c368a8688010161384d565b908301525085525050918301918301613fd8565b50865250878101359550828611156140c757600080fd5b6140d336878a0161384d565b8186015250505050604084013560408201528092505050919050565b83815260006020848184015260606040840152835180606085015260005b818110156141295785810183015185820160800152820161410d565b8181111561413b576000608083870101525b50601f01601f19169290920160800195945050505050565b84815260006020858184015260408301855182870160005b828110156141905781516001600160a01b03168452928401929084019060010161416b565b50505093845290920195945050505050565b600080604083850312156141b557600080fd5b505080516020909101519092909150565b600080604083850312156141d957600080fd5b8235915060208301356141eb816138f0565b809150509250929050565b6001600160a01b0397881681529587166020870152604086019490945260608501929092521515608084015290921660a082015260c081019190915260e00190565b60008083128015600160ff1b85018412161561425657614256613ec6565b6001600160ff1b038401831381161561427157614271613ec6565b50500390565b6000600160ff1b82141561428d5761428d613ec6565b506000190190565b60008160001904831182151516156142af576142af613ec6565b500290565b634e487b7160e01b600052601260045260246000fd5b6000826142d9576142d96142b4565b500490565b8183823760009101908152919050565b6000808335601e1984360301811261430557600080fd5b8301803591506001600160401b0382111561431f57600080fd5b60200191503681900382131561353957600080fd5b60006129df3683613a83565b6000821982111561435357614353613ec6565b500190565b6000806000806080858703121561436e57600080fd5b845193506020850151925061438560408601613f10565b6060959095015193969295505050565b6000602082840312156143a757600080fd5b815161240a816138f0565b6000828210156143c4576143c4613ec6565b500390565b600060ff821660ff8416808210156143e3576143e3613ec6565b90039392505050565b634e487b7160e01b600052602160045260246000fd5b600082614411576144116142b4565b500690565b600181815b8085111561445157816000190482111561443757614437613ec6565b8085161561444457918102915b93841c939080029061441b565b509250929050565b600082614468575060016129df565b81614475575060006129df565b816001811461448b5760028114614495576144b1565b60019150506129df565b60ff8411156144a6576144a6613ec6565b50506001821b6129df565b5060208310610133831016604e8410600b84101617156144d4575081810a6129df565b6144de8383614416565b80600019048211156144f2576144f2613ec6565b029392505050565b600061240a838361445956fe87f490592055a59338db50720217e62ade13d1b63d64b39ca63654b3c8a8ca74a2646970667358221220dd5e2a7683e3c8f88c3d4a522052a2828de95c299f26f3fbb3f830e8d41d9dc664736f6c634300080a0033",
  "linkReferences": {},
  "deployedLinkReferences": {}
}