{
  "_format": "hh-sol-artifact-1",
  "contractName": "TokenBridge",
  "sourceName": "contracts/bridge/TokenBridge.sol",
  "abi": [
    {
      "inputs": [
        {
          "internalType": "address[]",
          "name": "_validators",
          "type": "address[]"
        },
        {
          "internalType": "uint256",
          "name": "_cycleEnd",
          "type": "uint256"
        },
        {
          "internalType": "address[]",
          "name": "_requiredValidators",
          "type": "address[]"
        },
        {
          "internalType": "uint32",
          "name": "_consensusRatio",
          "type": "uint32"
        },
        {
          "internalType": "address",
          "name": "_bridgedToken",
          "type": "address"
        },
        {
          "components": [
            {
              "internalType": "uint256",
              "name": "minFee",
              "type": "uint256"
            },
            {
              "internalType": "uint256",
              "name": "maxFee",
              "type": "uint256"
            },
            {
              "internalType": "uint256",
              "name": "fee",
              "type": "uint256"
            }
          ],
          "internalType": "struct TokenBridge.BridgeFees",
          "name": "_fees",
          "type": "tuple"
        },
        {
          "components": [
            {
              "internalType": "uint256",
              "name": "dailyLimit",
              "type": "uint256"
            },
            {
              "internalType": "uint256",
              "name": "txLimit",
              "type": "uint256"
            },
            {
              "internalType": "uint256",
              "name": "accountDailyLimit",
              "type": "uint256"
            },
            {
              "internalType": "uint256",
              "name": "minAmount",
              "type": "uint256"
            },
            {
              "internalType": "bool",
              "name": "onlyWhitelisted",
              "type": "bool"
            }
          ],
          "internalType": "struct TokenBridge.BridgeLimits",
          "name": "_limits",
          "type": "tuple"
        },
        {
          "internalType": "contract IFaucet",
          "name": "_faucet",
          "type": "address"
        },
        {
          "internalType": "contract INameService",
          "name": "_nameService",
          "type": "address"
        }
      ],
      "stateMutability": "nonpayable",
      "type": "constructor"
    },
    {
      "anonymous": false,
      "inputs": [
        {
          "indexed": true,
          "internalType": "address",
          "name": "from",
          "type": "address"
        },
        {
          "indexed": true,
          "internalType": "address",
          "name": "to",
          "type": "address"
        },
        {
          "indexed": false,
          "internalType": "uint256",
          "name": "targetChainId",
          "type": "uint256"
        },
        {
          "indexed": false,
          "internalType": "uint256",
          "name": "amount",
          "type": "uint256"
        },
        {
          "indexed": false,
          "internalType": "bool",
          "name": "withRelay",
          "type": "bool"
        },
        {
          "indexed": false,
          "internalType": "uint256",
          "name": "timestamp",
          "type": "uint256"
        },
        {
          "indexed": true,
          "internalType": "uint256",
          "name": "id",
          "type": "uint256"
        }
      ],
      "name": "BridgeRequest",
      "type": "event"
    },
    {
      "anonymous": false,
      "inputs": [
        {
          "indexed": true,
          "internalType": "address",
          "name": "from",
          "type": "address"
        },
        {
          "indexed": true,
          "internalType": "address",
          "name": "to",
          "type": "address"
        },
        {
          "indexed": false,
          "internalType": "address",
          "name": "relayer",
          "type": "address"
        },
        {
          "indexed": false,
          "internalType": "uint256",
          "name": "amount",
          "type": "uint256"
        },
        {
          "indexed": false,
          "internalType": "uint256",
          "name": "fee",
          "type": "uint256"
        },
        {
          "indexed": false,
          "internalType": "uint256",
          "name": "sourceChainId",
          "type": "uint256"
        },
        {
          "indexed": false,
          "internalType": "uint256",
          "name": "sourceBlockNumber",
          "type": "uint256"
        },
        {
          "indexed": true,
          "internalType": "uint256",
          "name": "id",
          "type": "uint256"
        }
      ],
      "name": "ExecutedTransfer",
      "type": "event"
    },
    {
      "anonymous": false,
      "inputs": [
        {
          "indexed": true,
          "internalType": "address",
          "name": "previousOwner",
          "type": "address"
        },
        {
          "indexed": true,
          "internalType": "address",
          "name": "newOwner",
          "type": "address"
        }
      ],
      "name": "OwnershipTransferred",
      "type": "event"
    },
    {
      "inputs": [],
      "name": "BRIDGE_TOPIC",
      "outputs": [
        {
          "internalType": "bytes32",
          "name": "",
          "type": "bytes32"
        }
      ],
      "stateMutability": "view",
      "type": "function"
    },
    {
      "inputs": [
        {
          "internalType": "address",
          "name": "",
          "type": "address"
        }
      ],
      "name": "accountsDailyLimit",
      "outputs": [
        {
          "internalType": "uint256",
          "name": "lastTransferReset",
          "type": "uint256"
        },
        {
          "internalType": "uint256",
          "name": "bridged24Hours",
          "type": "uint256"
        }
      ],
      "stateMutability": "view",
      "type": "function"
    },
    {
      "inputs": [],
      "name": "bridgeDailyLimit",
      "outputs": [
        {
          "internalType": "uint256",
          "name": "lastTransferReset",
          "type": "uint256"
        },
        {
          "internalType": "uint256",
          "name": "bridged24Hours",
          "type": "uint256"
        }
      ],
      "stateMutability": "view",
      "type": "function"
    },
    {
      "inputs": [],
      "name": "bridgeFees",
      "outputs": [
        {
          "internalType": "uint256",
          "name": "minFee",
          "type": "uint256"
        },
        {
          "internalType": "uint256",
          "name": "maxFee",
          "type": "uint256"
        },
        {
          "internalType": "uint256",
          "name": "fee",
          "type": "uint256"
        }
      ],
      "stateMutability": "view",
      "type": "function"
    },
    {
      "inputs": [],
      "name": "bridgeLimits",
      "outputs": [
        {
          "internalType": "uint256",
          "name": "dailyLimit",
          "type": "uint256"
        },
        {
          "internalType": "uint256",
          "name": "txLimit",
          "type": "uint256"
        },
        {
          "internalType": "uint256",
          "name": "accountDailyLimit",
          "type": "uint256"
        },
        {
          "internalType": "uint256",
          "name": "minAmount",
          "type": "uint256"
        },
        {
          "internalType": "bool",
          "name": "onlyWhitelisted",
          "type": "bool"
        }
      ],
      "stateMutability": "view",
      "type": "function"
    },
    {
      "inputs": [
        {
          "internalType": "address",
          "name": "target",
          "type": "address"
        },
        {
          "internalType": "uint256",
          "name": "targetChainId",
          "type": "uint256"
        },
        {
          "internalType": "uint256",
          "name": "amount",
          "type": "uint256"
        }
      ],
      "name": "bridgeTo",
      "outputs": [],
      "stateMutability": "nonpayable",
      "type": "function"
    },
    {
      "inputs": [
        {
          "internalType": "address",
          "name": "target",
          "type": "address"
        },
        {
          "internalType": "uint256",
          "name": "targetChainId",
          "type": "uint256"
        },
        {
          "internalType": "uint256",
          "name": "amount",
          "type": "uint256"
        }
      ],
      "name": "bridgeToWithoutRelay",
      "outputs": [],
      "stateMutability": "nonpayable",
      "type": "function"
    },
    {
      "inputs": [],
      "name": "bridgedToken",
      "outputs": [
        {
          "internalType": "address",
          "name": "",
          "type": "address"
        }
      ],
      "stateMutability": "view",
      "type": "function"
    },
    {
      "inputs": [
        {
          "internalType": "address",
          "name": "from",
          "type": "address"
        },
        {
          "internalType": "uint256",
          "name": "amount",
          "type": "uint256"
        }
      ],
      "name": "canBridge",
      "outputs": [
        {
          "internalType": "bool",
          "name": "isWithinLimit",
          "type": "bool"
        },
        {
          "internalType": "string",
          "name": "error",
          "type": "string"
        }
      ],
      "stateMutability": "nonpayable",
      "type": "function"
    },
    {
      "inputs": [
        {
          "internalType": "uint256",
          "name": "",
          "type": "uint256"
        }
      ],
      "name": "chainIdToStats",
      "outputs": [
        {
          "internalType": "uint128",
          "name": "totalBridged",
          "type": "uint128"
        },
        {
          "internalType": "uint128",
          "name": "totalRelayFees",
          "type": "uint128"
        },
        {
          "internalType": "uint128",
          "name": "totalBridgeFees",
          "type": "uint128"
        }
      ],
      "stateMutability": "view",
      "type": "function"
    },
    {
      "inputs": [
        {
          "internalType": "uint256",
          "name": "",
          "type": "uint256"
        }
      ],
      "name": "chainStartBlock",
      "outputs": [
        {
          "internalType": "uint256",
          "name": "bridgeStartBlock",
          "type": "uint256"
        }
      ],
      "stateMutability": "view",
      "type": "function"
    },
    {
      "inputs": [
        {
          "internalType": "uint256",
          "name": "",
          "type": "uint256"
        },
        {
          "internalType": "uint256",
          "name": "",
          "type": "uint256"
        }
      ],
      "name": "chainVerifiedBlocks",
      "outputs": [
        {
          "internalType": "bytes32",
          "name": "",
          "type": "bytes32"
        }
      ],
      "stateMutability": "view",
      "type": "function"
    },
    {
      "inputs": [
        {
          "internalType": "address",
          "name": "token",
          "type": "address"
        }
      ],
      "name": "closeBridge",
      "outputs": [],
      "stateMutability": "nonpayable",
      "type": "function"
    },
    {
      "inputs": [],
      "name": "consensusRatio",
      "outputs": [
        {
          "internalType": "uint32",
          "name": "",
          "type": "uint32"
        }
      ],
      "stateMutability": "view",
      "type": "function"
    },
    {
      "inputs": [],
      "name": "currentId",
      "outputs": [
        {
          "internalType": "uint256",
          "name": "",
          "type": "uint256"
        }
      ],
      "stateMutability": "view",
      "type": "function"
    },
    {
      "inputs": [
        {
          "internalType": "address",
          "name": "",
          "type": "address"
        }
      ],
      "name": "currentValidators",
      "outputs": [
        {
          "internalType": "uint256",
          "name": "",
          "type": "uint256"
        }
      ],
      "stateMutability": "view",
      "type": "function"
    },
    {
      "inputs": [
        {
          "internalType": "uint256",
          "name": "chainId",
          "type": "uint256"
        },
        {
          "components": [
            {
              "components": [
                {
                  "internalType": "bytes32",
                  "name": "expectedRoot",
                  "type": "bytes32"
                },
                {
                  "internalType": "bytes",
                  "name": "key",
                  "type": "bytes"
                },
                {
                  "internalType": "bytes[]",
                  "name": "proof",
                  "type": "bytes[]"
                },
                {
                  "internalType": "uint256",
                  "name": "keyIndex",
                  "type": "uint256"
                },
                {
                  "internalType": "uint256",
                  "name": "proofIndex",
                  "type": "uint256"
                },
                {
                  "internalType": "bytes",
                  "name": "expectedValue",
                  "type": "bytes"
                }
              ],
              "internalType": "struct MPT.MerkleProof[]",
              "name": "receiptProofs",
              "type": "tuple[]"
            },
            {
              "internalType": "bytes",
              "name": "blockHeaderRlp",
              "type": "bytes"
            },
            {
              "internalType": "uint256",
              "name": "blockNumber",
              "type": "uint256"
            }
          ],
          "internalType": "struct BridgeCore.BlockReceiptProofs[]",
          "name": "blocks",
          "type": "tuple[]"
        }
      ],
      "name": "executeReceipts",
      "outputs": [
        {
          "internalType": "string[][]",
          "name": "results",
          "type": "string[][]"
        }
      ],
      "stateMutability": "nonpayable",
      "type": "function"
    },
    {
      "inputs": [
        {
          "internalType": "uint256",
          "name": "",
          "type": "uint256"
        }
      ],
      "name": "executedRequests",
      "outputs": [
        {
          "internalType": "bool",
          "name": "",
          "type": "bool"
        }
      ],
      "stateMutability": "view",
      "type": "function"
    },
    {
      "inputs": [],
      "name": "faucet",
      "outputs": [
        {
          "internalType": "contract IFaucet",
          "name": "",
          "type": "address"
        }
      ],
      "stateMutability": "view",
      "type": "function"
    },
    {
      "inputs": [],
      "name": "isClosed",
      "outputs": [
        {
          "internalType": "bool",
          "name": "",
          "type": "bool"
        }
      ],
      "stateMutability": "view",
      "type": "function"
    },
    {
      "inputs": [
        {
          "internalType": "address[]",
          "name": "signers",
          "type": "address[]"
        }
      ],
      "name": "isValidConsensus",
      "outputs": [
        {
          "internalType": "bool",
          "name": "isValid",
          "type": "bool"
        }
      ],
      "stateMutability": "nonpayable",
      "type": "function"
    },
    {
      "inputs": [],
      "name": "nameService",
      "outputs": [
        {
          "internalType": "contract INameService",
          "name": "",
          "type": "address"
        }
      ],
      "stateMutability": "view",
      "type": "function"
    },
    {
      "inputs": [],
      "name": "numRequiredValidators",
      "outputs": [
        {
          "internalType": "uint32",
          "name": "",
          "type": "uint32"
        }
      ],
      "stateMutability": "view",
      "type": "function"
    },
    {
      "inputs": [],
      "name": "numValidators",
      "outputs": [
        {
          "internalType": "uint256",
          "name": "",
          "type": "uint256"
        }
      ],
      "stateMutability": "view",
      "type": "function"
    },
    {
      "inputs": [
        {
          "internalType": "address",
          "name": "from",
          "type": "address"
        },
        {
          "internalType": "uint256",
          "name": "amount",
          "type": "uint256"
        },
        {
          "internalType": "bytes",
          "name": "data",
          "type": "bytes"
        }
      ],
      "name": "onTokenTransfer",
      "outputs": [
        {
          "internalType": "bool",
          "name": "",
          "type": "bool"
        }
      ],
      "stateMutability": "nonpayable",
      "type": "function"
    },
    {
      "inputs": [],
      "name": "owner",
      "outputs": [
        {
          "internalType": "address",
          "name": "",
          "type": "address"
        }
      ],
      "stateMutability": "view",
      "type": "function"
    },
    {
      "inputs": [
        {
          "internalType": "bytes",
          "name": "rlpHeader",
          "type": "bytes"
        }
      ],
      "name": "parseRLPToHeader",
      "outputs": [
        {
          "components": [
            {
              "internalType": "bytes32",
              "name": "parentHash",
              "type": "bytes32"
            },
            {
              "internalType": "uint256",
              "name": "number",
              "type": "uint256"
            }
          ],
          "internalType": "struct BridgeCore.BlockHeader",
          "name": "header",
          "type": "tuple"
        }
      ],
      "stateMutability": "pure",
      "type": "function"
    },
    {
      "inputs": [],
      "name": "renounceOwnership",
      "outputs": [],
      "stateMutability": "nonpayable",
      "type": "function"
    },
    {
      "inputs": [
        {
          "internalType": "address",
          "name": "",
          "type": "address"
        }
      ],
      "name": "requiredValidators",
      "outputs": [
        {
          "internalType": "uint256",
          "name": "",
          "type": "uint256"
        }
      ],
      "stateMutability": "view",
      "type": "function"
    },
    {
      "inputs": [],
      "name": "requiredValidatorsSet",
      "outputs": [
        {
          "internalType": "uint256",
          "name": "",
          "type": "uint256"
        }
      ],
      "stateMutability": "view",
      "type": "function"
    },
    {
      "inputs": [
        {
          "components": [
            {
              "internalType": "uint256",
              "name": "minFee",
              "type": "uint256"
            },
            {
              "internalType": "uint256",
              "name": "maxFee",
              "type": "uint256"
            },
            {
              "internalType": "uint256",
              "name": "fee",
              "type": "uint256"
            }
          ],
          "internalType": "struct TokenBridge.BridgeFees",
          "name": "_fees",
          "type": "tuple"
        }
      ],
      "name": "setBridgeFees",
      "outputs": [],
      "stateMutability": "nonpayable",
      "type": "function"
    },
    {
      "inputs": [
        {
          "components": [
            {
              "internalType": "uint256",
              "name": "dailyLimit",
              "type": "uint256"
            },
            {
              "internalType": "uint256",
              "name": "txLimit",
              "type": "uint256"
            },
            {
              "internalType": "uint256",
              "name": "accountDailyLimit",
              "type": "uint256"
            },
            {
              "internalType": "uint256",
              "name": "minAmount",
              "type": "uint256"
            },
            {
              "internalType": "bool",
              "name": "onlyWhitelisted",
              "type": "bool"
            }
          ],
          "internalType": "struct TokenBridge.BridgeLimits",
          "name": "_limits",
          "type": "tuple"
        }
      ],
      "name": "setBridgeLimits",
      "outputs": [],
      "stateMutability": "nonpayable",
      "type": "function"
    },
    {
      "inputs": [
        {
          "internalType": "uint32",
          "name": "_consensusRatio",
          "type": "uint32"
        }
      ],
      "name": "setConsensusRatio",
      "outputs": [],
      "stateMutability": "nonpayable",
      "type": "function"
    },
    {
      "inputs": [
        {
          "internalType": "contract IFaucet",
          "name": "_faucet",
          "type": "address"
        }
      ],
      "name": "setFaucet",
      "outputs": [],
      "stateMutability": "nonpayable",
      "type": "function"
    },
    {
      "inputs": [
        {
          "internalType": "address[]",
          "name": "validators",
          "type": "address[]"
        }
      ],
      "name": "setRequiredValidators",
      "outputs": [],
      "stateMutability": "nonpayable",
      "type": "function"
    },
    {
      "inputs": [
        {
          "internalType": "address[]",
          "name": "bridges",
          "type": "address[]"
        },
        {
          "internalType": "uint256[]",
          "name": "blockstart",
          "type": "uint256[]"
        }
      ],
      "name": "setSourceBridges",
      "outputs": [],
      "stateMutability": "nonpayable",
      "type": "function"
    },
    {
      "inputs": [
        {
          "internalType": "address",
          "name": "",
          "type": "address"
        }
      ],
      "name": "sourceBridgeToBlockstart",
      "outputs": [
        {
          "internalType": "uint256",
          "name": "",
          "type": "uint256"
        }
      ],
      "stateMutability": "view",
      "type": "function"
    },
    {
      "inputs": [
        {
          "components": [
            {
              "internalType": "uint256",
              "name": "chainId",
              "type": "uint256"
            },
            {
              "internalType": "bytes",
              "name": "rlpHeader",
              "type": "bytes"
            },
            {
              "internalType": "bytes[]",
              "name": "signatures",
              "type": "bytes[]"
            },
            {
              "internalType": "uint256",
              "name": "cycleEnd",
              "type": "uint256"
            },
            {
              "internalType": "address[]",
              "name": "validators",
              "type": "address[]"
            }
          ],
          "internalType": "struct BridgeCore.SignedBlock[]",
          "name": "signedBlocks",
          "type": "tuple[]"
        }
      ],
      "name": "submitBlocks",
      "outputs": [],
      "stateMutability": "nonpayable",
      "type": "function"
    },
    {
      "inputs": [
        {
          "components": [
            {
              "internalType": "uint256",
              "name": "chainId",
              "type": "uint256"
            },
            {
              "internalType": "bytes",
              "name": "rlpHeader",
              "type": "bytes"
            },
            {
              "internalType": "bytes[]",
              "name": "signatures",
              "type": "bytes[]"
            },
            {
              "internalType": "uint256",
              "name": "cycleEnd",
              "type": "uint256"
            },
            {
              "internalType": "address[]",
              "name": "validators",
              "type": "address[]"
            }
          ],
          "internalType": "struct BridgeCore.SignedBlock",
          "name": "blockData",
          "type": "tuple"
        },
        {
          "internalType": "uint256",
          "name": "signedBlockNumber",
          "type": "uint256"
        },
        {
          "internalType": "bytes[]",
          "name": "parentRlpHeaders",
          "type": "bytes[]"
        },
        {
          "components": [
            {
              "components": [
                {
                  "internalType": "bytes32",
                  "name": "expectedRoot",
                  "type": "bytes32"
                },
                {
                  "internalType": "bytes",
                  "name": "key",
                  "type": "bytes"
                },
                {
                  "internalType": "bytes[]",
                  "name": "proof",
                  "type": "bytes[]"
                },
                {
                  "internalType": "uint256",
                  "name": "keyIndex",
                  "type": "uint256"
                },
                {
                  "internalType": "uint256",
                  "name": "proofIndex",
                  "type": "uint256"
                },
                {
                  "internalType": "bytes",
                  "name": "expectedValue",
                  "type": "bytes"
                }
              ],
              "internalType": "struct MPT.MerkleProof[]",
              "name": "receiptProofs",
              "type": "tuple[]"
            },
            {
              "internalType": "bytes",
              "name": "blockHeaderRlp",
              "type": "bytes"
            },
            {
              "internalType": "uint256",
              "name": "blockNumber",
              "type": "uint256"
            }
          ],
          "internalType": "struct BridgeCore.BlockReceiptProofs[]",
          "name": "txs",
          "type": "tuple[]"
        }
      ],
      "name": "submitChainBlockParentsAndTxs",
      "outputs": [],
      "stateMutability": "nonpayable",
      "type": "function"
    },
    {
      "inputs": [
        {
          "internalType": "address",
          "name": "newOwner",
          "type": "address"
        }
      ],
      "name": "transferOwnership",
      "outputs": [],
      "stateMutability": "nonpayable",
      "type": "function"
    },
    {
      "inputs": [
        {
          "internalType": "bytes32",
          "name": "",
          "type": "bytes32"
        }
      ],
      "name": "usedReceipts",
      "outputs": [
        {
          "internalType": "bool",
          "name": "",
          "type": "bool"
        }
      ],
      "stateMutability": "view",
      "type": "function"
    },
    {
      "inputs": [],
      "name": "validatorsCycleEnd",
      "outputs": [
        {
          "internalType": "uint256",
          "name": "",
          "type": "uint256"
        }
      ],
      "stateMutability": "view",
      "type": "function"
    },
    {
      "inputs": [
        {
          "internalType": "uint256",
          "name": "chainId",
          "type": "uint256"
        },
        {
          "internalType": "uint256",
          "name": "childBlockNumber",
          "type": "uint256"
        },
        {
          "internalType": "bytes[]",
          "name": "parentRlpHeaders",
          "type": "bytes[]"
        },
        {
          "internalType": "bytes",
          "name": "childRlpHeader",
          "type": "bytes"
        }
      ],
      "name": "verifyParentBlocks",
      "outputs": [],
      "stateMutability": "nonpayable",
      "type": "function"
    },
    {
      "inputs": [
        {
          "internalType": "address",
          "name": "token",
          "type": "address"
        }
      ],
      "name": "withdraw",
      "outputs": [],
      "stateMutability": "nonpayable",
      "type": "function"
    }
  ],
  "bytecode": "0x60806040523480156200001157600080fd5b50604051620051e3380380620051e3833981016040819052620000349162000449565b88888888620000433362000113565b6200004f848462000165565b6200005a82620001d8565b6008805463ffffffff9092166401000000000263ffffffff60201b199092169190911790555050600b80546001600160a01b039788166001600160a01b0319918216179091558551600e55602080870151600f556040968701516010558551601155850151601255948401516013555060608301516014556080909201516015805491151560ff1990921691909117905560198054918516918416919091179055601a8054919093169116179055506200057b92505050565b600580546001600160a01b038381166001600160a01b0319831681179093556040519116919082907f8be0079c531659141344cd1fd0a4f28419497f9722a3daafe3b4186f6b6457e090600090a35050565b60005b8251811015620001ce5781600160008584815181106200018c576200018c6200053b565b60200260200101516001600160a01b03166001600160a01b03168152602001908152602001600020819055508080620001c59062000551565b91505062000168565b5060045551600355565b60068054906000620001ea8362000551565b919050555060005b81518110156200025a57600654600760008484815181106200021857620002186200053b565b60200260200101516001600160a01b03166001600160a01b03168152602001908152602001600020819055508080620002519062000551565b915050620001f2565b50516008805463ffffffff191663ffffffff909216919091179055565b634e487b7160e01b600052604160045260246000fd5b6001600160a01b0381168114620002a357600080fd5b50565b8051620002b3816200028d565b919050565b600082601f830112620002ca57600080fd5b815160206001600160401b0380831115620002e957620002e962000277565b8260051b604051601f19603f8301168101818110848211171562000311576200031162000277565b6040529384528581018301938381019250878511156200033057600080fd5b83870191505b848210156200035c5781516200034c816200028d565b8352918301919083019062000336565b979650505050505050565b6000606082840312156200037a57600080fd5b604051606081016001600160401b03811182821017156200039f576200039f62000277565b80604052508091508251815260208301516020820152604083015160408201525092915050565b600060a08284031215620003d957600080fd5b60405160a081016001600160401b0381118282101715620003fe57620003fe62000277565b806040525080915082518152602083015160208201526040830151604082015260608301516060820152608083015180151581146200043c57600080fd5b6080919091015292915050565b60008060008060008060008060006101e08a8c0312156200046957600080fd5b89516001600160401b03808211156200048157600080fd5b6200048f8d838e01620002b8565b9a5060208c0151995060408c0151915080821115620004ad57600080fd5b50620004bc8c828d01620002b8565b97505060608a015163ffffffff81168114620004d757600080fd5b9550620004e760808b01620002a6565b9450620004f88b60a08c0162000367565b93506200050a8b6101008c01620003c6565b92506200051b6101a08b01620002a6565b91506200052c6101c08b01620002a6565b90509295985092959850929598565b634e487b7160e01b600052603260045260246000fd5b60006000198214156200057457634e487b7160e01b600052601160045260246000fd5b5060010190565b614c58806200058b6000396000f3fe608060405234801561001057600080fd5b50600436106102745760003560e01c8063a976acf311610151578063ce2b2cf0116100c3578063de5f72fd11610087578063de5f72fd146106c8578063e00dd161146106db578063e39b32e8146106e4578063ee383937146106f7578063f2fde38b1461070a578063f39e17d51461071d57600080fd5b8063ce2b2cf01461065f578063d422794714610672578063d8b31c7714610699578063dd99014b146106ac578063de55abc3146106b557600080fd5b8063be58d44d11610115578063be58d44d1461058d578063c2b6b58c146105b0578063c3e6978f146105bd578063c562887d146105e5578063c6dd812f146105f8578063c8edb0491461063f57600080fd5b8063a976acf3146104c8578063a9c4b87e146104db578063af17773c146104ef578063b1228a6314610557578063b2f7667f1461056a57600080fd5b806351cff8d9116101ea57806382dc737d116101ae57806382dc737d146104585780638da5cb5b1461046b578063930af3541461047c57806394cb97991461048f578063a4c0ed36146104a2578063a8b8be18146104b557600080fd5b806351cff8d9146103f45780635c843060146104075780635d593f8d1461041a578063715018a6146104235780637b0240c01461042b57600080fd5b80633886d21e1161023c5780633886d21e146103195780633cca046d1461033e5780633e6326fc1461035e578063425cfb53146103895780634406acdd146103bc5780634c83f9e4146103dc57600080fd5b80631b1c62721461027957806329b70872146102ac5780633095634a146102c1578063370a4250146102e25780633811da50146102f9575b600080fd5b61028c610287366004613d92565b610744565b604080518251815260209283015192810192909252015b60405180910390f35b6102bf6102ba366004613dd4565b6107b6565b005b6102d46102cf366004613e5e565b6107f2565b6040516102a3929190613ed7565b6102eb60065481565b6040519081526020016102a3565b6102eb610307366004613ef2565b60076020526000908152604090205481565b6008546103299063ffffffff1681565b60405163ffffffff90911681526020016102a3565b61035161034c366004613f53565b610acf565b6040516102a39190613f9e565b601a54610371906001600160a01b031681565b6040516001600160a01b0390911681526020016102a3565b6103ac610397366004614043565b600a6020526000908152604090205460ff1681565b60405190151581526020016102a3565b6102eb6103ca366004613ef2565b60016020526000908152604090205481565b60085461032990640100000000900463ffffffff1681565b6102bf610402366004613ef2565b610fff565b6102bf610415366004614219565b611107565b6102eb60035481565b6102bf6113d1565b600e54600f5460105461043d92919083565b604080519384526020840192909252908201526060016102a3565b6102bf6104663660046142c9565b6113e5565b6005546001600160a01b0316610371565b6102bf61048a366004614324565b611403565b6102bf61049d366004613ef2565b611414565b6103ac6104b0366004614399565b611529565b6103ac6104c3366004614324565b6115a6565b6102bf6104d63660046143f4565b61177c565b6102eb6104e9366004614043565b50600190565b61052d6104fd366004614043565b600960205260009081526040902080546001909101546001600160801b0380831692600160801b90048116911683565b604080516001600160801b03948516815292841660208401529216918101919091526060016102a3565b6102bf610565366004614453565b611806565b601654601754610578919082565b604080519283526020830191909152016102a3565b6103ac61059b366004614043565b60026020526000908152604090205460ff1681565b600d546103ac9060ff1681565b6102eb6105cb366004614479565b600060208181529281526040808220909352908152205481565b6102bf6105f336600461449b565b611836565b601154601254601354601454601554610615949392919060ff1685565b6040805195865260208601949094529284019190915260608301521515608082015260a0016102a3565b6102eb61064d366004613ef2565b600c6020526000908152604090205481565b6102bf61066d3660046144d0565b61184a565b610578610680366004613ef2565b6018602052600090815260409020805460019091015482565b6102bf6106a7366004613ef2565b611afb565b6102eb60045481565b6102bf6106c3366004614552565b611b25565b601954610371906001600160a01b031681565b6102eb601b5481565b6102bf6106f236600461449b565b611bfc565b600b54610371906001600160a01b031681565b6102bf610718366004613ef2565b611c0c565b6102eb7f4246d22454f5bd543c70e6ffcca20eed2dcf09d3beef6d39e415385538b02d0a81565b6040805180820190915260008082526020820152600061076b61076684611c82565b611caf565b905061079081600081518110610783576107836145e5565b6020026020010151611dc4565b825280516107ab9082906008908110610783576107836145e5565b602083015250919050565b6107be611e12565b8051601155602081015160125560408101516013556060810151601455608001516015805460ff1916911515919091179055565b6000606060116003015483101561082d5750506040805180820190915260098152681b5a5b905b5bdd5b9d60ba1b6020820152600090610ac8565b60155460ff1680156108495750601a546001600160a01b031615155b1561098a57601a5460405163bf40fac160e01b81526020600482015260086024820152674944454e5449545960c01b60448201526000916001600160a01b03169063bf40fac1906064016020604051808303816000875af11580156108b2573d6000803e3d6000fd5b505050506040513d601f19601f820116820180604052508101906108d691906145fb565b90506001600160a01b0381161561098857604051633af32abf60e01b81526001600160a01b038681166004830152821690633af32abf906024016020604051808303816000875af115801561092f573d6000803e3d6000fd5b505050506040513d601f19601f820116820180604052508101906109539190614618565b61098857505060408051808201909152600f81526e1b9bdd081dda1a5d195b1a5cdd1959608a1b602082015260009150610ac8565b505b6012548311156109bc5750506040805180820190915260078152661d1e131a5b5a5d60ca1b6020820152600090610ac8565b6109c9620151804261464b565b60165410156109d757610a19565b6011546017546109e8908590614662565b1115610a1957505060408051808201909152600a81526919185a5b1e531a5b5a5d60b21b6020820152600090610ac8565b6001600160a01b038416600090815260186020526040902060010154610a42620151804261464b565b6001600160a01b0386166000908152601860205260409020541015610a68575082610a75565b610a728482614662565b90505b601354811115610ab25750506040805180820190915260118152701858d8dbdd5b9d11185a5b1e531a5b5a5d607a1b602082015260009150610ac8565b5050604080516020810190915260008152600191505b9250929050565b6060816001600160401b03811115610ae957610ae9613c71565b604051908082528060200260200182016040528015610b1c57816020015b6060815260200190600190039081610b075790505b50905060005b82811015610ff7576000848483818110610b3e57610b3e6145e5565b9050602002810190610b50919061467a565b610b599061469a565b600087815260208181526040808320818501518452825290912054818301518051920191909120919250908114610bcc5760405162461bcd60e51b81526020600482015260126024820152710d2dcecc2d8d2c840c4d8dec6d640d0c2e6d60731b60448201526064015b60405180910390fd5b6000610bde6107668460200151611c82565b90506000610bf882600581518110610783576107836145e5565b8451519091506001600160401b03811115610c1557610c15613c71565b604051908082528060200260200182016040528015610c4857816020015b6060815260200190600190039081610c335790505b50868681518110610c5b57610c5b6145e5565b602002602001018190525060005b845151811015610fdf5760008a8587600001518481518110610c8d57610c8d6145e5565b602002602001015160a00151604051602001610cab93929190614829565b60408051601f1981840301815291815281516020928301206000818152600290935291205490915060ff16151560011415610d4957604051806040016040528060148152602001731c9958d95a5c1d08185b1c9958591e481d5cd95960621b815250888881518110610d1f57610d1f6145e5565b60200260200101518381518110610d3857610d386145e5565b602002602001018190525050610fcd565b6000818152600260205260409020805460ff191660011790558551805183908110610d7657610d766145e5565b6020026020010151606001516000148015610db057508551805183908110610da057610da06145e5565b6020026020010151608001516000145b610dee5760405162461bcd60e51b815260206004820152600f60248201526e0dcdee840e6e8c2e4e840d2dcc8caf608b1b6044820152606401610bc3565b8286600001518381518110610e0557610e056145e5565b60200260200101516000015114610e555760405162461bcd60e51b81526020600482015260146024820152730e4cac6cad2e0e8a4dedee840dad2e6dac2e8c6d60631b6044820152606401610bc3565b610e7b86600001518381518110610e6e57610e6e6145e5565b6020026020010151611e6c565b610ebe5760405162461bcd60e51b815260206004820152601460248201527372656365697074206e6f7420696e20626c6f636b60601b6044820152606401610bc3565b604086015160011115610f055760405162461bcd60e51b815260206004820152600f60248201526e1c9958d95a5c1d081d1bdbc81bdb19608a1b6044820152606401610bc3565b6000610f3f8c8860400151610f3a8a600001518781518110610f2957610f296145e5565b602002602001015160a0015161202d565b612215565b905080610f72576040518060400160405280600e81526020016d195e1958dd5d194819985a5b195960921b815250610f94565b60405180604001604052806008815260200167195e1958dd5d195960c21b8152505b898981518110610fa657610fa66145e5565b60200260200101518481518110610fbf57610fbf6145e5565b602002602001018190525050505b80610fd781614848565b915050610c69565b50505050508080610fef90614848565b915050610b22565b509392505050565b611007611e12565b6040516370a0823160e01b81523060048201526001600160a01b0382169063a9059cbb90339083906370a0823190602401602060405180830381865afa158015611055573d6000803e3d6000fd5b505050506040513d601f19601f820116820180604052508101906110799190614863565b6040516001600160e01b031960e085901b1681526001600160a01b03909216600483015260248201526044016020604051808303816000875af11580156110c4573d6000803e3d6000fd5b505050506040513d601f19601f820116820180604052508101906110e89190614618565b6111045760405162461bcd60e51b8152600401610bc39061487c565b50565b60005b81518110156113cd576000828281518110611127576111276145e5565b602090810291909101810151808201518051908301208151608083015160608401516040519496509294607a831494600094611169948894909390920161489e565b60405160208183030381529060405280519060200120905060008460400151516001600160401b038111156111a0576111a0613c71565b6040519080825280602002602001820160405280156111c9578160200160208202803683370190505b50905060005b8560400151518110156112bc57600080876040015183815181106111f5576111f56145e5565b602002602001015180602001905181019061121091906148ed565b9150915061127561126e866040517f19457468657265756d205369676e6564204d6573736167653a0a3332000000006020820152603c8101829052600090605c01604051602081830303815290604052805190602001209050919050565b83836123d8565b848481518110611287576112876145e5565b60200260200101906001600160a01b031690816001600160a01b031681525050505080806112b490614848565b9150506111cf565b506112c6816115a6565b6113045760405162461bcd60e51b815260206004820152600f60248201526e696e76616c6964207369676e65727360881b6044820152606401610bc3565b60006113138660200151610744565b905060018160200151101561135a5760405162461bcd60e51b815260206004820152600d60248201526c189b1bd8dac81d1bdbc81bdb19609a1b6044820152606401610bc3565b8551600090815260208181526040808320848301518452909152902085905583801561138b57506000866080015151115b801561139d5750600454816020015110155b156113b4576113b4866080015187606001516123f5565b50505050505080806113c590614848565b91505061110a565b5050565b6113d9611e12565b6113e36000612461565b565b6113ed611e12565b8051600e556020810151600f5560400151601055565b61140b611e12565b611104816124b3565b61141c611e12565b6040516370a0823160e01b81523060048201526001600160a01b0382169063a9059cbb90339083906370a0823190602401602060405180830381865afa15801561146a573d6000803e3d6000fd5b505050506040513d601f19601f8201168201806040525081019061148e9190614863565b6040516001600160e01b031960e085901b1681526001600160a01b03909216600483015260248201526044016020604051808303816000875af11580156114d9573d6000803e3d6000fd5b505050506040513d601f19601f820116820180604052508101906114fd9190614618565b6115195760405162461bcd60e51b8152600401610bc39061487c565b50600d805460ff19166001179055565b600b546000906001600160a01b031633146115725760405162461bcd60e51b81526020600482015260096024820152683737ba103a37b5b2b760b91b6044820152606401610bc3565b6000808061158285870187614911565b9250925092506115988883858a85156001612549565b506001979650505050505050565b60008080805b84518110156117715760006115c2600183614953565b90505b60008112611660578581815181106115df576115df6145e5565b60200260200101516001600160a01b0316868381518110611602576116026145e5565b60200260200101516001600160a01b0316141561164e5760405162461bcd60e51b815260206004820152600a602482015269323ab81039b4b3b732b960b11b6044820152606401610bc3565b8061165881614992565b9150506115c5565b506004546001600087848151811061167a5761167a6145e5565b60200260200101516001600160a01b03166001600160a01b031681526020019081526020016000205414156116b757826116b381614848565b9350505b600654600760008784815181106116d0576116d06145e5565b60200260200101516001600160a01b03166001600160a01b0316815260200190815260200160002054141561170d578161170981614848565b9250505b60085463ffffffff168214801561174f57506008546003546064916117419164010000000090910463ffffffff16906149b0565b61174b91906149e5565b8310155b1561175f57506001949350505050565b8061176981614848565b9150506115ac565b506000949350505050565b611784611e12565b60005b838110156117ff578282828181106117a1576117a16145e5565b90506020020135600c60008787858181106117be576117be6145e5565b90506020020160208101906117d39190613ef2565b6001600160a01b03168152602081019190915260400160002055806117f781614848565b915050611787565b5050505050565b61180e611e12565b6008805463ffffffff9092166401000000000267ffffffff0000000019909216919091179055565b61184533848484600080612549565b505050565b6000868152602081815260408083208884529091529081902054905161187390849084906149f9565b604051809103902081146118c95760405162461bcd60e51b815260206004820152601760248201527f696e76616c6964206368696c6420726c704865616465720000000000000000006044820152606401610bc3565b600061190a84848080601f01602080910402602001604051908101604052809392919081815260200183838082843760009201919091525061074492505050565b905060005b85811015611af057600087878381811061192b5761192b6145e5565b905060200281019061193d9190614a09565b60405161194b9291906149f9565b60405180910390209050808360000151146119955760405162461bcd60e51b815260206004820152600a6024820152691b9bdd081c185c995b9d60b21b6044820152606401610bc3565b60006119f88989858181106119ac576119ac6145e5565b90506020028101906119be9190614a09565b8080601f01602080910402602001604051908101604052809392919081815260200183838082843760009201919091525061074492505050565b9050600181602001511015611a3f5760405162461bcd60e51b815260206004820152600d60248201526c189b1bd8dac81d1bdbc81bdb19609a1b6044820152606401610bc3565b60008b8152602081815260408083208483015184529091529020541580611a7f575060008b81526020818152604080832084830151845290915290205482145b611abe5760405162461bcd60e51b815260206004820152601060248201526f185b1c9958591e481d995c9a599a595960821b6044820152606401610bc3565b60008b815260208181526040808320848301518452909152902091909155915080611ae881614848565b91505061190f565b505050505050505050565b611b03611e12565b601980546001600160a01b0319166001600160a01b0392909216919091179055565b6000611b346040880188614a4f565b90501115611bcc57604080516001808252818301909252600091816020015b611b856040518060a0016040528060008152602001606081526020016060815260200160008152602001606081525090565b815260200190600190039081611b53579050509050611ba387614a98565b81600081518110611bb657611bb66145e5565b6020026020010181905250611bca81611107565b505b8215611be757611be7863586868661066d60208c018c614a09565b611bf386358383610acf565b50505050505050565b6118453384848460016000612549565b611c14611e12565b6001600160a01b038116611c795760405162461bcd60e51b815260206004820152602660248201527f4f776e61626c653a206e6577206f776e657220697320746865207a65726f206160448201526564647265737360d01b6064820152608401610bc3565b61110481612461565b60408051808201825260008082526020918201528151808301909252825182529182019181019190915290565b6060611cba826126f7565b611cc357600080fd5b6000611cce83612730565b90506000816001600160401b03811115611cea57611cea613c71565b604051908082528060200260200182016040528015611d2f57816020015b6040805180820190915260008082526020820152815260200190600190039081611d085790505b5090506000611d4185602001516127b3565b8560200151611d509190614662565b90506000805b84811015611db957611d678361282e565b9150604051806040016040528083815260200184815250848281518110611d9057611d906145e5565b6020908102919091010152611da58284614662565b925080611db181614848565b915050611d56565b509195945050505050565b805160009015801590611dd957508151602110155b611de257600080fd5b600080611dee846128d7565b815191935091506020821015611e0a5760208290036101000a90045b949350505050565b6005546001600160a01b031633146113e35760405162461bcd60e51b815260206004820181905260248201527f4f776e61626c653a2063616c6c6572206973206e6f7420746865206f776e65726044820152606401610bc3565b6000808260400151836080015181518110611e8957611e896145e5565b602002602001015190506000611ea6611ea183611c82565b61291e565b9050836060015160001415611f1f5783518251602084012014611f1a5760405162461bcd60e51b815260206004820152602660248201527f7665726966795472696550726f6f6620726f6f74206e6f6465206861736820696044820152651b9d985b1a5960d21b6064820152608401610bc3565b611fd9565b602082511015611f8c576000611f3c611f378361298a565b611dc4565b85519091508114611f865760405162461bcd60e51b81526020600482015260146024820152733b32b934b33caa3934b2a83937b7b3101e10199960611b6044820152606401610bc3565b50611fd9565b83518251602084012014611fd95760405162461bcd60e51b81526020600482015260146024820152737665726966795472696550726f6f6620656c736560601b6044820152606401610bc3565b6000611fe88260000151612730565b9050806011141561200557611ffc856129e7565b95945050505050565b806002141561201857611ffc8286612b1f565b60a08501515161177157506001949350505050565b61205b6040518060800160405280600060ff1681526020016000815260200160608152602001606081525090565b8151600090607f60f81b9084908390612076576120766145e5565b01602001516001600160f81b0319161161208e575060015b600061209d6107668584612df6565b90506120b581600081518110610783576107836145e5565b60ff16835280516120d39082906001908110610783576107836145e5565b602084015280516120fe90829060029081106120f1576120f16145e5565b6020026020010151612e42565b8360400181905250600061212b8260038151811061211e5761211e6145e5565b6020026020010151611caf565b905080516001600160401b0381111561214657612146613c71565b6040519080825280602002602001820160405280156121a457816020015b612191604051806060016040528060006001600160a01b0316815260200160608152602001606081525090565b8152602001906001900390816121645790505b50606085015260005b815181101561220c576121d88282815181106121cb576121cb6145e5565b6020026020010151612ebf565b856060015182815181106121ee576121ee6145e5565b6020026020010181905250808061220490614848565b9150506121ad565b50505050919050565b6000816000015160ff1660011461222e575060006123d1565b6000805b8360600151518110156123cd57600084606001518281518110612257576122576145e5565b6020026020010151905085600c600083600001516001600160a01b03166001600160a01b0316815260200190815260200160002054111561229857506123bb565b80516001600160a01b03166000908152600c602052604090205415806122fc57507f4246d22454f5bd543c70e6ffcca20eed2dcf09d3beef6d39e415385538b02d0a81602001516000815181106122f1576122f16145e5565b602002602001015114155b1561230757506123bb565b600080600083604001518060200190518101906123249190614aa4565b9250925092506123314690565b831461234057505050506123bb565b600195506123b6846020015160018151811061235e5761235e6145e5565b602002602001015160001c8560200151600281518110612380576123806145e5565b602002602001015160001c848d8d868a602001516003815181106123a6576123a66145e5565b602002602001015160001c61300e565b505050505b806123c581614848565b915050612232565b5090505b9392505050565b60008060006123e8868686613240565b915091506123cd81613279565b60005b8251811015612457578160016000858481518110612418576124186145e5565b60200260200101516001600160a01b03166001600160a01b0316815260200190815260200160002081905550808061244f90614848565b9150506123f8565b5060045551600355565b600580546001600160a01b038381166001600160a01b0319831681179093556040519116919082907f8be0079c531659141344cd1fd0a4f28419497f9722a3daafe3b4186f6b6457e090600090a35050565b600680549060006124c383614848565b919050555060005b815181101561252c57600654600760008484815181106124ed576124ed6145e5565b60200260200101516001600160a01b03166001600160a01b0316815260200190815260200160002081905550808061252490614848565b9150506124cb565b50516008805463ffffffff191663ffffffff909216919091179055565b61255586868587613434565b8061261257600b546040516323b872dd60e01b81526001600160a01b03888116600483015230602483015260448201869052909116906323b872dd906064016020604051808303816000875af11580156125b3573d6000803e3d6000fd5b505050506040513d601f19601f820116820180604052508101906125d79190614618565b6126125760405162461bcd60e51b815260206004820152600c60248201526b7472616e7366657246726f6d60a01b6044820152606401610bc3565b85854686863042601b600081548092919061262c90614848565b90915550604080516001600160a01b03998a166020820152978916908801526060870195909552608086019390935260a085019190915290931660c083015260e08201929092526101008101919091526101200160408051601f19818403018152828252805160209182012087845290830186905284151591830191909152426060830152906001600160a01b0380881691908916907f4246d22454f5bd543c70e6ffcca20eed2dcf09d3beef6d39e415385538b02d0a9060800160405180910390a4505050505050565b805160009061270857506000919050565b6020820151805160001a9060c0821015612726575060009392505050565b5060019392505050565b805160009061274157506000919050565b60008061275184602001516127b3565b84602001516127609190614662565b90506000846000015185602001516127789190614662565b90505b808210156127aa5761278c8261282e565b6127969083614662565b9150826127a281614848565b93505061277b565b50909392505050565b8051600090811a60808110156127cc5750600092915050565b60b88110806127e7575060c081108015906127e7575060f881105b156127f55750600192915050565b60c08110156128225761280a600160b8614ad2565b6128179060ff168261464b565b6123d1906001614662565b61280a600160f8614ad2565b80516000908190811a608081101561284957600191506128d0565b60b881101561286f5761285d60808261464b565b612868906001614662565b91506128d0565b60c081101561289c5760b78103600185019450806020036101000a855104600182018101935050506128d0565b60f88110156128b05761285d60c08261464b565b60f78103600185019450806020036101000a855104600182018101935050505b5092915050565b60008060006128e984602001516127b3565b905060008185602001516128fd9190614662565b90506000828660000151612911919061464b565b9196919550909350505050565b604080516080810182526000918101828152606082018390528152602081019190915261294a826126f7565b61295357600080fd5b600061296283602001516127b3565b83602001516129719190614662565b6040805180820190915293845260208401525090919050565b60408051808201909152600080825260208201526129a7826135ef565b6129b057600080fd5b602082015160006129c08261282e565b90506129cc8183614662565b60209485015260408051808201909152908152928301525090565b6000808260400151836080015181518110612a0457612a046145e5565b60200260200101519050826020015151836060015110612a6d576000612a41612a2f61076684611c82565b6010815181106120f1576120f16145e5565b90508360a001518051906020012081805190602001201415612a67575060019392505050565b50612b03565b60008360200151846060015181518110612a8957612a896145e5565b016020015160f81c90506000612ab5612aa461076685611c82565b83815181106120f1576120f16145e5565b90508051600014612b00576020810151855260608501805160019190612adc908390614662565b90525060808501805160019190612af4908390614662565b905250611ffc85611e6c565b50505b60a083015151612b165750600192915050565b50600092915050565b600080612b33612b2e8561298a565b612e42565b90506000612b43612b2e8661298a565b602083015190915060fc1c6002811415612c0757600060018451612b67919061464b565b90506000612b79856001846000613613565b90506000612b9288602001518960600151856000613613565b905084805190602001208860a00151805190602001201415612bff57808051906020012082805190602001201415612bd35760019650505050505050612df0565b80516020820120612be3836136f7565b805190602001201415612bff5760019650505050505050612df0565b505050612dd2565b8060031415612cbd576000612c2184600086516001613613565b602087015160608801518151929350600092612c4b929190612c4490829061464b565b6000613613565b905083805190602001208760a00151805190602001201415612cb657808051906020012082805190602001201415612c8b57600195505050505050612df0565b80516020820120612c9b83613826565b805190602001201415612cb657600195505050505050612df0565b5050612dd2565b80612d8057600060018451612cd2919061464b565b90506000612ce4856001846000613613565b90506000612cfd88602001518960600151856000613613565b9050808051906020012082805190602001201480612d2f575080516020820120612d26836136f7565b80519060200120145b15612bff5760208501518852606088018051849190612d4f908390614662565b90525060808801805160019190612d67908390614662565b905250612d7388611e6c565b9650505050505050612df0565b8060011415612d9a5782516000612ce48582846001613613565b60405162461bcd60e51b815260206004820152600d60248201526c24b73b30b634b210383937b7b360991b6044820152606401610bc3565b60a085015151612de85760019350505050612df0565b600093505050505b92915050565b604080518082019091526000808252602082015260208301612e188382614662565b90506040518060400160405280848651612e32919061464b565b8152602001919091529392505050565b8051606090612e5057600080fd5b600080612e5c846128d7565b915091506000816001600160401b03811115612e7a57612e7a613c71565b6040519080825280601f01601f191660200182016040528015612ea4576020820181803683370190505b50905060208101612eb6848285613987565b50949350505050565b612eec604051806060016040528060006001600160a01b0316815260200160608152602001606081525090565b6000612ef783611caf565b9050612f1c81600081518110612f0f57612f0f6145e5565b6020026020010151613a06565b6001600160a01b031682528051600090612f43908390600190811061211e5761211e6145e5565b905080516001600160401b03811115612f5e57612f5e613c71565b604051908082528060200260200182016040528015612f87578160200160208202803683370190505b50602084015260005b8151811015612fea576000612fb0838381518110610783576107836145e5565b60001b90508085602001518381518110612fcc57612fcc6145e5565b60209081029190910101525080612fe281614848565b915050612f90565b50613001826002815181106120f1576120f16145e5565b6040840152509092915050565b6000806130458785801561302b5750336001600160a01b038b1614155b80156130405750336001600160a01b038c1614155b613a20565b909250905060006130568284614662565b6000858152600a60205260409020805460ff19166001179055905061307a89613a9b565b600b546001600160a01b031663a9059cbb8a613096848c61464b565b6040516001600160e01b031960e085901b1681526001600160a01b03909216600483015260248201526044016020604051808303816000875af11580156130e1573d6000803e3d6000fd5b505050506040513d601f19601f820116820180604052508101906131059190614618565b6131215760405162461bcd60e51b8152600401610bc39061487c565b81156131d357600b5460405163a9059cbb60e01b8152336004820152602481018490526001600160a01b039091169063a9059cbb906044016020604051808303816000875af1158015613178573d6000803e3d6000fd5b505050506040513d601f19601f8201168201806040525081019061319c9190614618565b6131d35760405162461bcd60e51b815260206004820152600860248201526772656c617946656560c01b6044820152606401610bc3565b60408051338152602081018a9052908101829052606081018890526080810187905284906001600160a01b03808c1691908d16907f8f5fb725904dff7292d34df72f578088cca0aa71767d7d82fc40b1b786ef96a79060a00160405180910390a450505050505050505050565b6000806001600160ff1b0383168161325d60ff86901c601b614662565b905061326b87828885613b84565b935093505050935093915050565b600081600481111561328d5761328d614af5565b14156132965750565b60018160048111156132aa576132aa614af5565b14156132f85760405162461bcd60e51b815260206004820152601860248201527f45434453413a20696e76616c6964207369676e617475726500000000000000006044820152606401610bc3565b600281600481111561330c5761330c614af5565b141561335a5760405162461bcd60e51b815260206004820152601f60248201527f45434453413a20696e76616c6964207369676e6174757265206c656e677468006044820152606401610bc3565b600381600481111561336e5761336e614af5565b14156133c75760405162461bcd60e51b815260206004820152602260248201527f45434453413a20696e76616c6964207369676e6174757265202773272076616c604482015261756560f01b6064820152608401610bc3565b60048160048111156133db576133db614af5565b14156111045760405162461bcd60e51b815260206004820152602260248201527f45434453413a20696e76616c6964207369676e6174757265202776272076616c604482015261756560f01b6064820152608401610bc3565b6001600160a01b03831661347b5760405162461bcd60e51b815260206004820152600e60248201526d1a5b9d985b1a59081d185c99d95d60921b6044820152606401610bc3565b600081116134c35760405162461bcd60e51b81526020600482015260156024820152741a5b9d985b1a59081d185c99d95d10da185a5b9259605a1b6044820152606401610bc3565b600d5460ff16156134ff5760405162461bcd60e51b815260206004820152600660248201526518db1bdcd95960d21b6044820152606401610bc3565b61350c620151804261464b565b601654101561351f574260165560006017555b61352c620151804261464b565b6001600160a01b038516600090815260186020526040902054101561356b576001600160a01b0384166000908152601860205260408120428155600101555b60008061357886856107f2565b9150915081819061359c5760405162461bcd60e51b8152600401610bc39190614b0b565b5083601660010160008282546135b29190614662565b90915550506001600160a01b038616600090815260186020526040812060010180548692906135e2908490614662565b9091555050505050505050565b8051805160208201516000929161360591614662565b836020015110915050919050565b606060006136226020856149e5565b90506000613631602086614b1e565b61363c9060086149b0565b6136489061010061464b565b9050602060008080886001600160401b0381111561366857613668613c71565b6040519080825280601f01601f191660200182016040528015613692576020820181803683370190505b5090508a8a01915087156136bc57818401516001600160fc1b031681850152602090930192600192505b825b868110156136dc5782850151828601526020909401936001016136be565b5083820151851c851b84820152505050505050949350505050565b606060008251600261370991906149b0565b90506000816001600160401b0381111561372557613725613c71565b6040519080825280601f01601f19166020018201604052801561374f576020820181803683370190505b50905060005b8451811015610ff757600080613799878481518110613776576137766145e5565b01602001516001600160f81b031916600481901c916001600160fc1b0390911690565b909250905081846137ab8560026149b0565b815181106137bb576137bb6145e5565b60200101906001600160f81b031916908160001a90535080846137df8560026149b0565b6137ea906001614662565b815181106137fa576137fa6145e5565b60200101906001600160f81b031916908160001a9053505050808061381e90614848565b915050613755565b6060600060018351600261383a91906149b0565b613844919061464b565b90506000816001600160401b0381111561386057613860613c71565b6040519080825280601f01601f19166020018201604052801561388a576020820181803683370190505b509050836000815181106138a0576138a06145e5565b602001015160f81c60f81b816000815181106138be576138be6145e5565b60200101906001600160f81b031916908160001a90535060015b8451811015610ff7576000806138f9878481518110613776576137766145e5565b90925090508184600161390d8660026149b0565b613917919061464b565b81518110613927576139276145e5565b60200101906001600160f81b031916908160001a905350808461394b8560026149b0565b8151811061395b5761395b6145e5565b60200101906001600160f81b031916908160001a9053505050808061397f90614848565b9150506138d8565b8061399157505050565b602081106139c957825182526139a8602084614662565b92506139b5602083614662565b91506139c260208261464b565b9050613991565b801561184557600060016139de83602061464b565b6139ea90610100614c16565b6139f4919061464b565b84518451821691191617835250505050565b8051600090601514613a1757600080fd5b612df082611dc4565b6000806000612710600e6002015486613a3991906149b0565b613a4391906149e5565b600e54909150811015613a5857600e54613a5a565b805b600f54909150811115613a6f57600f54613a71565b805b9050613a7e6002826149e5565b90508084613a8d576000613a8f565b815b92509250509250929050565b6019546001600160a01b031615801590613b2057506019546040516374bf77e960e11b81526001600160a01b0383811660048301529091169063e97eefd2906024016020604051808303816000875af1158015613afc573d6000803e3d6000fd5b505050506040513d601f19601f82011682018060405250810190613b209190614618565b15611104576019546040516306ee3b9f60e31b81526001600160a01b03838116600483015290911690633771dcf890602401600060405180830381600087803b158015613b6c57600080fd5b505af1925050508015613b7d575060015b6111045750565b6000807f7fffffffffffffffffffffffffffffff5d576e7357a4501ddfe92f46681b20a0831115613bbb5750600090506003613c68565b8460ff16601b14158015613bd357508460ff16601c14155b15613be45750600090506004613c68565b6040805160008082526020820180845289905260ff881692820192909252606081018690526080810185905260019060a0016020604051602081039080840390855afa158015613c38573d6000803e3d6000fd5b5050604051601f1901519150506001600160a01b038116613c6157600060019250925050613c68565b9150600090505b94509492505050565b634e487b7160e01b600052604160045260246000fd5b60405160a081016001600160401b0381118282101715613ca957613ca9613c71565b60405290565b604051606081016001600160401b0381118282101715613ca957613ca9613c71565b60405160c081016001600160401b0381118282101715613ca957613ca9613c71565b604051601f8201601f191681016001600160401b0381118282101715613d1b57613d1b613c71565b604052919050565b600082601f830112613d3457600080fd5b81356001600160401b03811115613d4d57613d4d613c71565b613d60601f8201601f1916602001613cf3565b818152846020838601011115613d7557600080fd5b816020850160208301376000918101602001919091529392505050565b600060208284031215613da457600080fd5b81356001600160401b03811115613dba57600080fd5b611e0a84828501613d23565b801515811461110457600080fd5b600060a08284031215613de657600080fd5b60405160a081018181106001600160401b0382111715613e0857613e08613c71565b8060405250823581526020830135602082015260408301356040820152606083013560608201526080830135613e3d81613dc6565b60808201529392505050565b6001600160a01b038116811461110457600080fd5b60008060408385031215613e7157600080fd5b8235613e7c81613e49565b946020939093013593505050565b6000815180845260005b81811015613eb057602081850181015186830182015201613e94565b81811115613ec2576000602083870101525b50601f01601f19169290920160200192915050565b8215158152604060208201526000611e0a6040830184613e8a565b600060208284031215613f0457600080fd5b81356123d181613e49565b60008083601f840112613f2157600080fd5b5081356001600160401b03811115613f3857600080fd5b6020830191508360208260051b8501011115610ac857600080fd5b600080600060408486031215613f6857600080fd5b8335925060208401356001600160401b03811115613f8557600080fd5b613f9186828701613f0f565b9497909650939450505050565b6000602080830181845280855180835260408601915060059250604081841b8701018488016000805b8481101561403457898403603f19018652825180518086529089019089860190808a1b87018b01855b8281101561401e57601f1989830301845261400c828651613e8a565b948d0194938d01939150600101613ff0565b50988b0198965050509288019250600101613fc7565b50919998505050505050505050565b60006020828403121561405557600080fd5b5035919050565b60006001600160401b0382111561407557614075613c71565b5060051b60200190565b600082601f83011261409057600080fd5b813560206140a56140a08361405c565b613cf3565b82815260059290921b840181019181810190868411156140c457600080fd5b8286015b848110156141035780356001600160401b038111156140e75760008081fd5b6140f58986838b0101613d23565b8452509183019183016140c8565b509695505050505050565b600082601f83011261411f57600080fd5b8135602061412f6140a08361405c565b82815260059290921b8401810191818101908684111561414e57600080fd5b8286015b8481101561410357803561416581613e49565b8352918301918301614152565b600060a0828403121561418457600080fd5b61418c613c87565b90508135815260208201356001600160401b03808211156141ac57600080fd5b6141b885838601613d23565b602084015260408401359150808211156141d157600080fd5b6141dd8583860161407f565b604084015260608401356060840152608084013591508082111561420057600080fd5b5061420d8482850161410e565b60808301525092915050565b6000602080838503121561422c57600080fd5b82356001600160401b038082111561424357600080fd5b818501915085601f83011261425757600080fd5b81356142656140a08261405c565b81815260059190911b8301840190848101908883111561428457600080fd5b8585015b838110156142bc578035858111156142a05760008081fd5b6142ae8b89838a0101614172565b845250918601918601614288565b5098975050505050505050565b6000606082840312156142db57600080fd5b604051606081018181106001600160401b03821117156142fd576142fd613c71565b80604052508235815260208301356020820152604083013560408201528091505092915050565b60006020828403121561433657600080fd5b81356001600160401b0381111561434c57600080fd5b611e0a8482850161410e565b60008083601f84011261436a57600080fd5b5081356001600160401b0381111561438157600080fd5b602083019150836020828501011115610ac857600080fd5b600080600080606085870312156143af57600080fd5b84356143ba81613e49565b93506020850135925060408501356001600160401b038111156143dc57600080fd5b6143e887828801614358565b95989497509550505050565b6000806000806040858703121561440a57600080fd5b84356001600160401b038082111561442157600080fd5b61442d88838901613f0f565b9096509450602087013591508082111561444657600080fd5b506143e887828801613f0f565b60006020828403121561446557600080fd5b813563ffffffff811681146123d157600080fd5b6000806040838503121561448c57600080fd5b50508035926020909101359150565b6000806000606084860312156144b057600080fd5b83356144bb81613e49565b95602085013595506040909401359392505050565b600080600080600080608087890312156144e957600080fd5b863595506020870135945060408701356001600160401b038082111561450e57600080fd5b61451a8a838b01613f0f565b9096509450606089013591508082111561453357600080fd5b5061454089828a01614358565b979a9699509497509295939492505050565b6000806000806000806080878903121561456b57600080fd5b86356001600160401b038082111561458257600080fd5b9088019060a0828b03121561459657600080fd5b90965060208801359550604088013590808211156145b357600080fd5b6145bf8a838b01613f0f565b909650945060608901359150808211156145d857600080fd5b5061454089828a01613f0f565b634e487b7160e01b600052603260045260246000fd5b60006020828403121561460d57600080fd5b81516123d181613e49565b60006020828403121561462a57600080fd5b81516123d181613dc6565b634e487b7160e01b600052601160045260246000fd5b60008282101561465d5761465d614635565b500390565b6000821982111561467557614675614635565b500190565b60008235605e1983360301811261469057600080fd5b9190910192915050565b600060608083360312156146ad57600080fd5b6146b5613caf565b83356001600160401b03808211156146cc57600080fd5b9085019036601f8301126146df57600080fd5b813560206146ef6140a08361405c565b82815260059290921b8401810191818101903684111561470e57600080fd5b8286015b848110156147ea5780358681111561472a5760008081fd5b870160c036829003601f19018113156147435760008081fd5b61474b613cd1565b8683013581526040808401358a8111156147655760008081fd5b614773368a83880101613d23565b89840152508c8401358a81111561478a5760008081fd5b614798368a8388010161407f565b8284015250506080808401358d83015260a080850135828401528385013593508a8411156147c857600091508182fd5b6147d6368a86880101613d23565b908301525085525050918301918301614712565b508652508781013595508286111561480157600080fd5b61480d36878a01613d23565b8186015250505050604084013560408201528092505050919050565b838152826020820152606060408201526000611ffc6060830184613e8a565b600060001982141561485c5761485c614635565b5060010190565b60006020828403121561487557600080fd5b5051919050565b6020808252600890820152673a3930b739b332b960c11b604082015260600190565b84815260006020858184015260408301855182870160005b828110156148db5781516001600160a01b0316845292840192908401906001016148b6565b50505093845290920195945050505050565b6000806040838503121561490057600080fd5b505080516020909101519092909150565b60008060006060848603121561492657600080fd5b83359250602084013561493881613e49565b9150604084013561494881613dc6565b809150509250925092565b60008083128015600160ff1b85018412161561497157614971614635565b6001600160ff1b038401831381161561498c5761498c614635565b50500390565b6000600160ff1b8214156149a8576149a8614635565b506000190190565b60008160001904831182151516156149ca576149ca614635565b500290565b634e487b7160e01b600052601260045260246000fd5b6000826149f4576149f46149cf565b500490565b8183823760009101908152919050565b6000808335601e19843603018112614a2057600080fd5b8301803591506001600160401b03821115614a3a57600080fd5b602001915036819003821315610ac857600080fd5b6000808335601e19843603018112614a6657600080fd5b8301803591506001600160401b03821115614a8057600080fd5b6020019150600581901b3603821315610ac857600080fd5b6000612df03683614172565b600080600060608486031215614ab957600080fd5b8351925060208401519150604084015161494881613dc6565b600060ff821660ff841680821015614aec57614aec614635565b90039392505050565b634e487b7160e01b600052602160045260246000fd5b6020815260006123d16020830184613e8a565b600082614b2d57614b2d6149cf565b500690565b600181815b80851115614b6d578160001904821115614b5357614b53614635565b80851615614b6057918102915b93841c9390800290614b37565b509250929050565b600082614b8457506001612df0565b81614b9157506000612df0565b8160018114614ba75760028114614bb157614bcd565b6001915050612df0565b60ff841115614bc257614bc2614635565b50506001821b612df0565b5060208310610133831016604e8410600b8410161715614bf0575081810a612df0565b614bfa8383614b32565b8060001904821115614c0e57614c0e614635565b029392505050565b60006123d18383614b7556fea264697066735822122062b8d3c9a57327c328ee3d5b0f33284abe43f06bc869cd5a5cfd57f99d97395d64736f6c634300080a0033",
  "linkReferences": {},
  "deployedLinkReferences": {}
}