{
  "_format": "hh-sol-artifact-1",
  "contractName": "TokenBridge",
  "sourceName": "contracts/bridge/TokenBridge.sol",
  "abi": [
    {
      "anonymous": false,
      "inputs": [
        {
          "indexed": false,
          "internalType": "address",
          "name": "previousAdmin",
          "type": "address"
        },
        {
          "indexed": false,
          "internalType": "address",
          "name": "newAdmin",
          "type": "address"
        }
      ],
      "name": "AdminChanged",
      "type": "event"
    },
    {
      "anonymous": false,
      "inputs": [
        {
          "indexed": true,
          "internalType": "address",
          "name": "beacon",
          "type": "address"
        }
      ],
      "name": "BeaconUpgraded",
      "type": "event"
    },
    {
      "anonymous": false,
      "inputs": [
        {
          "indexed": false,
          "internalType": "uint256",
          "name": "chainId",
          "type": "uint256"
        },
        {
          "indexed": false,
          "internalType": "uint256",
          "name": "blockNumber",
          "type": "uint256"
        },
        {
          "indexed": false,
          "internalType": "bytes32",
          "name": "blockHash",
          "type": "bytes32"
        }
      ],
      "name": "BlockVerified",
      "type": "event"
    },
    {
      "anonymous": false,
      "inputs": [
        {
          "indexed": true,
          "internalType": "address",
          "name": "from",
          "type": "address"
        },
        {
          "indexed": true,
          "internalType": "address",
          "name": "to",
          "type": "address"
        },
        {
          "indexed": false,
          "internalType": "uint256",
          "name": "targetChainId",
          "type": "uint256"
        },
        {
          "indexed": false,
          "internalType": "uint256",
          "name": "amount",
          "type": "uint256"
        },
        {
          "indexed": false,
          "internalType": "bool",
          "name": "withRelay",
          "type": "bool"
        },
        {
          "indexed": false,
          "internalType": "uint256",
          "name": "timestamp",
          "type": "uint256"
        },
        {
          "indexed": true,
          "internalType": "uint256",
          "name": "id",
          "type": "uint256"
        }
      ],
      "name": "BridgeRequest",
      "type": "event"
    },
    {
      "anonymous": false,
      "inputs": [
        {
          "indexed": true,
          "internalType": "address",
          "name": "from",
          "type": "address"
        },
        {
          "indexed": true,
          "internalType": "address",
          "name": "to",
          "type": "address"
        },
        {
          "indexed": false,
          "internalType": "address",
          "name": "relayer",
          "type": "address"
        },
        {
          "indexed": false,
          "internalType": "uint256",
          "name": "amount",
          "type": "uint256"
        },
        {
          "indexed": false,
          "internalType": "uint256",
          "name": "fee",
          "type": "uint256"
        },
        {
          "indexed": false,
          "internalType": "uint256",
          "name": "sourceChainId",
          "type": "uint256"
        },
        {
          "indexed": false,
          "internalType": "uint256",
          "name": "sourceBlockNumber",
          "type": "uint256"
        },
        {
          "indexed": true,
          "internalType": "uint256",
          "name": "id",
          "type": "uint256"
        }
      ],
      "name": "ExecutedTransfer",
      "type": "event"
    },
    {
      "anonymous": false,
      "inputs": [
        {
          "indexed": false,
          "internalType": "uint8",
          "name": "version",
          "type": "uint8"
        }
      ],
      "name": "Initialized",
      "type": "event"
    },
    {
      "anonymous": false,
      "inputs": [
        {
          "indexed": true,
          "internalType": "address",
          "name": "previousOwner",
          "type": "address"
        },
        {
          "indexed": true,
          "internalType": "address",
          "name": "newOwner",
          "type": "address"
        }
      ],
      "name": "OwnershipTransferred",
      "type": "event"
    },
    {
      "anonymous": false,
      "inputs": [
        {
          "indexed": true,
          "internalType": "address",
          "name": "implementation",
          "type": "address"
        }
      ],
      "name": "Upgraded",
      "type": "event"
    },
    {
      "anonymous": false,
      "inputs": [
        {
          "indexed": false,
          "internalType": "address[]",
          "name": "validators",
          "type": "address[]"
        },
        {
          "indexed": false,
          "internalType": "uint256",
          "name": "cycleEnd",
          "type": "uint256"
        }
      ],
      "name": "ValidatorsSet",
      "type": "event"
    },
    {
      "inputs": [],
      "name": "BRIDGE_TOPIC",
      "outputs": [
        {
          "internalType": "bytes32",
          "name": "",
          "type": "bytes32"
        }
      ],
      "stateMutability": "view",
      "type": "function"
    },
    {
      "inputs": [
        {
          "internalType": "address",
          "name": "",
          "type": "address"
        }
      ],
      "name": "accountsDailyLimit",
      "outputs": [
        {
          "internalType": "uint256",
          "name": "lastTransferReset",
          "type": "uint256"
        },
        {
          "internalType": "uint256",
          "name": "bridged24Hours",
          "type": "uint256"
        }
      ],
      "stateMutability": "view",
      "type": "function"
    },
    {
      "inputs": [],
      "name": "bridgeDailyLimit",
      "outputs": [
        {
          "internalType": "uint256",
          "name": "lastTransferReset",
          "type": "uint256"
        },
        {
          "internalType": "uint256",
          "name": "bridged24Hours",
          "type": "uint256"
        }
      ],
      "stateMutability": "view",
      "type": "function"
    },
    {
      "inputs": [],
      "name": "bridgeFees",
      "outputs": [
        {
          "internalType": "uint256",
          "name": "minFee",
          "type": "uint256"
        },
        {
          "internalType": "uint256",
          "name": "maxFee",
          "type": "uint256"
        },
        {
          "internalType": "uint256",
          "name": "fee",
          "type": "uint256"
        }
      ],
      "stateMutability": "view",
      "type": "function"
    },
    {
      "inputs": [],
      "name": "bridgeLimits",
      "outputs": [
        {
          "internalType": "uint256",
          "name": "dailyLimit",
          "type": "uint256"
        },
        {
          "internalType": "uint256",
          "name": "txLimit",
          "type": "uint256"
        },
        {
          "internalType": "uint256",
          "name": "accountDailyLimit",
          "type": "uint256"
        },
        {
          "internalType": "uint256",
          "name": "minAmount",
          "type": "uint256"
        },
        {
          "internalType": "bool",
          "name": "onlyWhitelisted",
          "type": "bool"
        }
      ],
      "stateMutability": "view",
      "type": "function"
    },
    {
      "inputs": [
        {
          "internalType": "address",
          "name": "target",
          "type": "address"
        },
        {
          "internalType": "uint256",
          "name": "targetChainId",
          "type": "uint256"
        },
        {
          "internalType": "uint256",
          "name": "amount",
          "type": "uint256"
        }
      ],
      "name": "bridgeTo",
      "outputs": [],
      "stateMutability": "nonpayable",
      "type": "function"
    },
    {
      "inputs": [
        {
          "internalType": "address",
          "name": "target",
          "type": "address"
        },
        {
          "internalType": "uint256",
          "name": "targetChainId",
          "type": "uint256"
        },
        {
          "internalType": "uint256",
          "name": "amount",
          "type": "uint256"
        }
      ],
      "name": "bridgeToWithoutRelay",
      "outputs": [],
      "stateMutability": "nonpayable",
      "type": "function"
    },
    {
      "inputs": [],
      "name": "bridgedToken",
      "outputs": [
        {
          "internalType": "address",
          "name": "",
          "type": "address"
        }
      ],
      "stateMutability": "view",
      "type": "function"
    },
    {
      "inputs": [
        {
          "internalType": "address",
          "name": "from",
          "type": "address"
        },
        {
          "internalType": "uint256",
          "name": "amount",
          "type": "uint256"
        }
      ],
      "name": "canBridge",
      "outputs": [
        {
          "internalType": "bool",
          "name": "isWithinLimit",
          "type": "bool"
        },
        {
          "internalType": "string",
          "name": "error",
          "type": "string"
        }
      ],
      "stateMutability": "nonpayable",
      "type": "function"
    },
    {
      "inputs": [
        {
          "internalType": "uint256",
          "name": "",
          "type": "uint256"
        }
      ],
      "name": "chainIdToStats",
      "outputs": [
        {
          "internalType": "uint128",
          "name": "totalBridged",
          "type": "uint128"
        },
        {
          "internalType": "uint128",
          "name": "totalRelayFees",
          "type": "uint128"
        },
        {
          "internalType": "uint128",
          "name": "totalBridgeFees",
          "type": "uint128"
        }
      ],
      "stateMutability": "view",
      "type": "function"
    },
    {
      "inputs": [
        {
          "internalType": "uint256",
          "name": "",
          "type": "uint256"
        }
      ],
      "name": "chainStartBlock",
      "outputs": [
        {
          "internalType": "uint256",
          "name": "bridgeStartBlock",
          "type": "uint256"
        }
      ],
      "stateMutability": "view",
      "type": "function"
    },
    {
      "inputs": [
        {
          "internalType": "uint256",
          "name": "",
          "type": "uint256"
        },
        {
          "internalType": "uint256",
          "name": "",
          "type": "uint256"
        }
      ],
      "name": "chainVerifiedBlocks",
      "outputs": [
        {
          "internalType": "bytes32",
          "name": "",
          "type": "bytes32"
        }
      ],
      "stateMutability": "view",
      "type": "function"
    },
    {
      "inputs": [
        {
          "internalType": "address",
          "name": "token",
          "type": "address"
        }
      ],
      "name": "closeBridge",
      "outputs": [],
      "stateMutability": "nonpayable",
      "type": "function"
    },
    {
      "inputs": [],
      "name": "consensusRatio",
      "outputs": [
        {
          "internalType": "uint32",
          "name": "",
          "type": "uint32"
        }
      ],
      "stateMutability": "view",
      "type": "function"
    },
    {
      "inputs": [],
      "name": "currentId",
      "outputs": [
        {
          "internalType": "uint256",
          "name": "",
          "type": "uint256"
        }
      ],
      "stateMutability": "view",
      "type": "function"
    },
    {
      "inputs": [
        {
          "internalType": "address",
          "name": "",
          "type": "address"
        }
      ],
      "name": "currentValidators",
      "outputs": [
        {
          "internalType": "uint256",
          "name": "",
          "type": "uint256"
        }
      ],
      "stateMutability": "view",
      "type": "function"
    },
    {
      "inputs": [
        {
          "internalType": "uint256",
          "name": "chainId",
          "type": "uint256"
        },
        {
          "components": [
            {
              "components": [
                {
                  "internalType": "bytes32",
                  "name": "expectedRoot",
                  "type": "bytes32"
                },
                {
                  "internalType": "bytes",
                  "name": "key",
                  "type": "bytes"
                },
                {
                  "internalType": "bytes[]",
                  "name": "proof",
                  "type": "bytes[]"
                },
                {
                  "internalType": "uint256",
                  "name": "keyIndex",
                  "type": "uint256"
                },
                {
                  "internalType": "uint256",
                  "name": "proofIndex",
                  "type": "uint256"
                },
                {
                  "internalType": "bytes",
                  "name": "expectedValue",
                  "type": "bytes"
                }
              ],
              "internalType": "struct MPT.MerkleProof[]",
              "name": "receiptProofs",
              "type": "tuple[]"
            },
            {
              "internalType": "bytes",
              "name": "blockHeaderRlp",
              "type": "bytes"
            },
            {
              "internalType": "uint256",
              "name": "blockNumber",
              "type": "uint256"
            }
          ],
          "internalType": "struct BridgeCore.BlockReceiptProofs[]",
          "name": "blocks",
          "type": "tuple[]"
        }
      ],
      "name": "executeReceipts",
      "outputs": [
        {
          "internalType": "string[][]",
          "name": "results",
          "type": "string[][]"
        }
      ],
      "stateMutability": "nonpayable",
      "type": "function"
    },
    {
      "inputs": [
        {
          "internalType": "uint256",
          "name": "",
          "type": "uint256"
        }
      ],
      "name": "executedRequests",
      "outputs": [
        {
          "internalType": "bool",
          "name": "",
          "type": "bool"
        }
      ],
      "stateMutability": "view",
      "type": "function"
    },
    {
      "inputs": [],
      "name": "faucet",
      "outputs": [
        {
          "internalType": "contract IFaucet",
          "name": "",
          "type": "address"
        }
      ],
      "stateMutability": "view",
      "type": "function"
    },
    {
      "inputs": [
        {
          "internalType": "address[]",
          "name": "_validators",
          "type": "address[]"
        },
        {
          "internalType": "uint256",
          "name": "_cycleEnd",
          "type": "uint256"
        },
        {
          "internalType": "address[]",
          "name": "_requiredValidators",
          "type": "address[]"
        },
        {
          "internalType": "uint32",
          "name": "_consensusRatio",
          "type": "uint32"
        },
        {
          "internalType": "address",
          "name": "_bridgedToken",
          "type": "address"
        },
        {
          "components": [
            {
              "internalType": "uint256",
              "name": "minFee",
              "type": "uint256"
            },
            {
              "internalType": "uint256",
              "name": "maxFee",
              "type": "uint256"
            },
            {
              "internalType": "uint256",
              "name": "fee",
              "type": "uint256"
            }
          ],
          "internalType": "struct TokenBridge.BridgeFees",
          "name": "_fees",
          "type": "tuple"
        },
        {
          "components": [
            {
              "internalType": "uint256",
              "name": "dailyLimit",
              "type": "uint256"
            },
            {
              "internalType": "uint256",
              "name": "txLimit",
              "type": "uint256"
            },
            {
              "internalType": "uint256",
              "name": "accountDailyLimit",
              "type": "uint256"
            },
            {
              "internalType": "uint256",
              "name": "minAmount",
              "type": "uint256"
            },
            {
              "internalType": "bool",
              "name": "onlyWhitelisted",
              "type": "bool"
            }
          ],
          "internalType": "struct TokenBridge.BridgeLimits",
          "name": "_limits",
          "type": "tuple"
        },
        {
          "internalType": "contract IFaucet",
          "name": "_faucet",
          "type": "address"
        },
        {
          "internalType": "contract INameService",
          "name": "_nameService",
          "type": "address"
        }
      ],
      "name": "initialize",
      "outputs": [],
      "stateMutability": "nonpayable",
      "type": "function"
    },
    {
      "inputs": [],
      "name": "isClosed",
      "outputs": [
        {
          "internalType": "bool",
          "name": "",
          "type": "bool"
        }
      ],
      "stateMutability": "view",
      "type": "function"
    },
    {
      "inputs": [
        {
          "internalType": "address[]",
          "name": "signers",
          "type": "address[]"
        }
      ],
      "name": "isValidConsensus",
      "outputs": [
        {
          "internalType": "bool",
          "name": "isValid",
          "type": "bool"
        }
      ],
      "stateMutability": "nonpayable",
      "type": "function"
    },
    {
      "inputs": [],
      "name": "nameService",
      "outputs": [
        {
          "internalType": "contract INameService",
          "name": "",
          "type": "address"
        }
      ],
      "stateMutability": "view",
      "type": "function"
    },
    {
      "inputs": [
        {
          "internalType": "uint256",
          "name": "amount",
          "type": "uint256"
        }
      ],
      "name": "normalizeFrom18ToTokenDecimals",
      "outputs": [
        {
          "internalType": "uint256",
          "name": "normalized",
          "type": "uint256"
        }
      ],
      "stateMutability": "view",
      "type": "function"
    },
    {
      "inputs": [
        {
          "internalType": "uint256",
          "name": "amount",
          "type": "uint256"
        }
      ],
      "name": "normalizeFromTokenTo18Decimals",
      "outputs": [
        {
          "internalType": "uint256",
          "name": "normalized",
          "type": "uint256"
        }
      ],
      "stateMutability": "view",
      "type": "function"
    },
    {
      "inputs": [],
      "name": "numRequiredValidators",
      "outputs": [
        {
          "internalType": "uint32",
          "name": "",
          "type": "uint32"
        }
      ],
      "stateMutability": "view",
      "type": "function"
    },
    {
      "inputs": [],
      "name": "numValidators",
      "outputs": [
        {
          "internalType": "uint256",
          "name": "",
          "type": "uint256"
        }
      ],
      "stateMutability": "view",
      "type": "function"
    },
    {
      "inputs": [
        {
          "internalType": "address",
          "name": "from",
          "type": "address"
        },
        {
          "internalType": "uint256",
          "name": "amount",
          "type": "uint256"
        },
        {
          "internalType": "bytes",
          "name": "data",
          "type": "bytes"
        }
      ],
      "name": "onTokenTransfer",
      "outputs": [
        {
          "internalType": "bool",
          "name": "",
          "type": "bool"
        }
      ],
      "stateMutability": "nonpayable",
      "type": "function"
    },
    {
      "inputs": [],
      "name": "owner",
      "outputs": [
        {
          "internalType": "address",
          "name": "",
          "type": "address"
        }
      ],
      "stateMutability": "view",
      "type": "function"
    },
    {
      "inputs": [
        {
          "internalType": "bytes",
          "name": "rlpHeader",
          "type": "bytes"
        }
      ],
      "name": "parseRLPToHeader",
      "outputs": [
        {
          "components": [
            {
              "internalType": "bytes32",
              "name": "parentHash",
              "type": "bytes32"
            },
            {
              "internalType": "uint256",
              "name": "number",
              "type": "uint256"
            }
          ],
          "internalType": "struct BridgeCore.BlockHeader",
          "name": "header",
          "type": "tuple"
        }
      ],
      "stateMutability": "pure",
      "type": "function"
    },
    {
      "inputs": [],
      "name": "proxiableUUID",
      "outputs": [
        {
          "internalType": "bytes32",
          "name": "",
          "type": "bytes32"
        }
      ],
      "stateMutability": "view",
      "type": "function"
    },
    {
      "inputs": [],
      "name": "renounceOwnership",
      "outputs": [],
      "stateMutability": "nonpayable",
      "type": "function"
    },
    {
      "inputs": [
        {
          "internalType": "address",
          "name": "",
          "type": "address"
        }
      ],
      "name": "requiredValidators",
      "outputs": [
        {
          "internalType": "uint256",
          "name": "",
          "type": "uint256"
        }
      ],
      "stateMutability": "view",
      "type": "function"
    },
    {
      "inputs": [],
      "name": "requiredValidatorsSet",
      "outputs": [
        {
          "internalType": "uint256",
          "name": "",
          "type": "uint256"
        }
      ],
      "stateMutability": "view",
      "type": "function"
    },
    {
      "inputs": [
        {
          "components": [
            {
              "internalType": "uint256",
              "name": "minFee",
              "type": "uint256"
            },
            {
              "internalType": "uint256",
              "name": "maxFee",
              "type": "uint256"
            },
            {
              "internalType": "uint256",
              "name": "fee",
              "type": "uint256"
            }
          ],
          "internalType": "struct TokenBridge.BridgeFees",
          "name": "_fees",
          "type": "tuple"
        }
      ],
      "name": "setBridgeFees",
      "outputs": [],
      "stateMutability": "nonpayable",
      "type": "function"
    },
    {
      "inputs": [
        {
          "components": [
            {
              "internalType": "uint256",
              "name": "dailyLimit",
              "type": "uint256"
            },
            {
              "internalType": "uint256",
              "name": "txLimit",
              "type": "uint256"
            },
            {
              "internalType": "uint256",
              "name": "accountDailyLimit",
              "type": "uint256"
            },
            {
              "internalType": "uint256",
              "name": "minAmount",
              "type": "uint256"
            },
            {
              "internalType": "bool",
              "name": "onlyWhitelisted",
              "type": "bool"
            }
          ],
          "internalType": "struct TokenBridge.BridgeLimits",
          "name": "_limits",
          "type": "tuple"
        }
      ],
      "name": "setBridgeLimits",
      "outputs": [],
      "stateMutability": "nonpayable",
      "type": "function"
    },
    {
      "inputs": [
        {
          "internalType": "uint32",
          "name": "_consensusRatio",
          "type": "uint32"
        }
      ],
      "name": "setConsensusRatio",
      "outputs": [],
      "stateMutability": "nonpayable",
      "type": "function"
    },
    {
      "inputs": [
        {
          "internalType": "contract IFaucet",
          "name": "_faucet",
          "type": "address"
        }
      ],
      "name": "setFaucet",
      "outputs": [],
      "stateMutability": "nonpayable",
      "type": "function"
    },
    {
      "inputs": [
        {
          "internalType": "address[]",
          "name": "validators",
          "type": "address[]"
        }
      ],
      "name": "setRequiredValidators",
      "outputs": [],
      "stateMutability": "nonpayable",
      "type": "function"
    },
    {
      "inputs": [
        {
          "internalType": "address[]",
          "name": "bridges",
          "type": "address[]"
        },
        {
          "internalType": "uint256[]",
          "name": "blockstart",
          "type": "uint256[]"
        }
      ],
      "name": "setSourceBridges",
      "outputs": [],
      "stateMutability": "nonpayable",
      "type": "function"
    },
    {
      "inputs": [
        {
          "internalType": "address",
          "name": "",
          "type": "address"
        }
      ],
      "name": "sourceBridgeToBlockstart",
      "outputs": [
        {
          "internalType": "uint256",
          "name": "",
          "type": "uint256"
        }
      ],
      "stateMutability": "view",
      "type": "function"
    },
    {
      "inputs": [
        {
          "components": [
            {
              "internalType": "uint256",
              "name": "chainId",
              "type": "uint256"
            },
            {
              "internalType": "bytes",
              "name": "rlpHeader",
              "type": "bytes"
            },
            {
              "internalType": "bytes[]",
              "name": "signatures",
              "type": "bytes[]"
            },
            {
              "internalType": "uint256",
              "name": "cycleEnd",
              "type": "uint256"
            },
            {
              "internalType": "address[]",
              "name": "validators",
              "type": "address[]"
            }
          ],
          "internalType": "struct BridgeCore.SignedBlock[]",
          "name": "signedBlocks",
          "type": "tuple[]"
        }
      ],
      "name": "submitBlocks",
      "outputs": [],
      "stateMutability": "nonpayable",
      "type": "function"
    },
    {
      "inputs": [
        {
          "components": [
            {
              "internalType": "uint256",
              "name": "chainId",
              "type": "uint256"
            },
            {
              "internalType": "bytes",
              "name": "rlpHeader",
              "type": "bytes"
            },
            {
              "internalType": "bytes[]",
              "name": "signatures",
              "type": "bytes[]"
            },
            {
              "internalType": "uint256",
              "name": "cycleEnd",
              "type": "uint256"
            },
            {
              "internalType": "address[]",
              "name": "validators",
              "type": "address[]"
            }
          ],
          "internalType": "struct BridgeCore.SignedBlock",
          "name": "blockData",
          "type": "tuple"
        },
        {
          "internalType": "uint256",
          "name": "signedBlockNumber",
          "type": "uint256"
        },
        {
          "internalType": "bytes[]",
          "name": "parentRlpHeaders",
          "type": "bytes[]"
        },
        {
          "components": [
            {
              "components": [
                {
                  "internalType": "bytes32",
                  "name": "expectedRoot",
                  "type": "bytes32"
                },
                {
                  "internalType": "bytes",
                  "name": "key",
                  "type": "bytes"
                },
                {
                  "internalType": "bytes[]",
                  "name": "proof",
                  "type": "bytes[]"
                },
                {
                  "internalType": "uint256",
                  "name": "keyIndex",
                  "type": "uint256"
                },
                {
                  "internalType": "uint256",
                  "name": "proofIndex",
                  "type": "uint256"
                },
                {
                  "internalType": "bytes",
                  "name": "expectedValue",
                  "type": "bytes"
                }
              ],
              "internalType": "struct MPT.MerkleProof[]",
              "name": "receiptProofs",
              "type": "tuple[]"
            },
            {
              "internalType": "bytes",
              "name": "blockHeaderRlp",
              "type": "bytes"
            },
            {
              "internalType": "uint256",
              "name": "blockNumber",
              "type": "uint256"
            }
          ],
          "internalType": "struct BridgeCore.BlockReceiptProofs[]",
          "name": "txs",
          "type": "tuple[]"
        }
      ],
      "name": "submitChainBlockParentsAndTxs",
      "outputs": [],
      "stateMutability": "nonpayable",
      "type": "function"
    },
    {
      "inputs": [
        {
          "internalType": "address",
          "name": "newOwner",
          "type": "address"
        }
      ],
      "name": "transferOwnership",
      "outputs": [],
      "stateMutability": "nonpayable",
      "type": "function"
    },
    {
      "inputs": [
        {
          "internalType": "address",
          "name": "newImplementation",
          "type": "address"
        }
      ],
      "name": "upgradeTo",
      "outputs": [],
      "stateMutability": "nonpayable",
      "type": "function"
    },
    {
      "inputs": [
        {
          "internalType": "address",
          "name": "newImplementation",
          "type": "address"
        },
        {
          "internalType": "bytes",
          "name": "data",
          "type": "bytes"
        }
      ],
      "name": "upgradeToAndCall",
      "outputs": [],
      "stateMutability": "payable",
      "type": "function"
    },
    {
      "inputs": [
        {
          "internalType": "bytes32",
          "name": "",
          "type": "bytes32"
        }
      ],
      "name": "usedReceipts",
      "outputs": [
        {
          "internalType": "bool",
          "name": "",
          "type": "bool"
        }
      ],
      "stateMutability": "view",
      "type": "function"
    },
    {
      "inputs": [],
      "name": "validatorsCycleEnd",
      "outputs": [
        {
          "internalType": "uint256",
          "name": "",
          "type": "uint256"
        }
      ],
      "stateMutability": "view",
      "type": "function"
    },
    {
      "inputs": [
        {
          "internalType": "uint256",
          "name": "chainId",
          "type": "uint256"
        },
        {
          "internalType": "uint256",
          "name": "childBlockNumber",
          "type": "uint256"
        },
        {
          "internalType": "bytes[]",
          "name": "parentRlpHeaders",
          "type": "bytes[]"
        },
        {
          "internalType": "bytes",
          "name": "childRlpHeader",
          "type": "bytes"
        }
      ],
      "name": "verifyParentBlocks",
      "outputs": [],
      "stateMutability": "nonpayable",
      "type": "function"
    },
    {
      "inputs": [
        {
          "internalType": "address",
          "name": "token",
          "type": "address"
        }
      ],
      "name": "withdraw",
      "outputs": [],
      "stateMutability": "nonpayable",
      "type": "function"
    }
  ],
  "bytecode": "0x60a06040523060805234801561001457600080fd5b50608051615c9b6200004d600039600081816110f401528181611134015281816116ff0152818161173f01526118d70152615c9b6000f3fe6080604052600436106102c95760003560e01c8063a4c0ed3611610175578063c6dd812f116100dc578063de55abc311610095578063e39b32e81161006f578063e39b32e8146109ed578063ee38393714610a0d578063f2fde38b14610a2d578063f39e17d514610a4d57600080fd5b8063de55abc314610995578063de5f72fd146109b5578063e00dd161146109d657600080fd5b8063c6dd812f14610889578063c8edb049146108dd578063ce2b2cf01461090a578063d42279471461092a578063d8b31c771461095f578063dd99014b1461097f57600080fd5b8063b2f7667f1161012e578063b2f7667f1461079a578063be58d44d146107ca578063c2b6b58c146107fa578063c3e6978f14610814578063c4a6ee1e14610849578063c562887d1461086957600080fd5b8063a4c0ed3614610684578063a8b8be18146106a4578063a976acf3146106c4578063a9c4b87e146106e4578063af17773c14610705578063b1228a631461077a57600080fd5b80634406acdd116102345780635d593f8d116101ed57806382dc737d116101c757806382dc737d146106065780638da5cb5b14610626578063930af3541461064457806394cb97991461066457600080fd5b80635d593f8d146105a1578063715018a6146105b75780637b0240c0146105cc57600080fd5b80634406acdd146104e75780634c83f9e4146105145780634f1ef2861461053957806351cff8d91461054c57806352d1902d1461056c5780635c8430601461058157600080fd5b8063370a425011610286578063370a4250146103cc5780633811da50146103e25780633886d21e1461040f5780633cca046d146104415780633e6326fc1461046e578063425cfb53146104a757600080fd5b8063183d4c8f146102ce5780631b1c6272146102f05780632784b2381461033057806329b708721461035e5780633095634a1461037e5780633659cfe6146103ac575b600080fd5b3480156102da57600080fd5b506102ee6102e9366004614c2b565b610a81565b005b3480156102fc57600080fd5b5061031061030b366004614d73565b610c2b565b604080518251815260209283015192810192909252015b60405180910390f35b34801561033c57600080fd5b5061035061034b366004614da7565b610c9d565b604051908152602001610327565b34801561036a57600080fd5b506102ee610379366004614dc0565b610d91565b34801561038a57600080fd5b5061039e610399366004614ddc565b610dcd565b604051610327929190614e60565b3480156103b857600080fd5b506102ee6103c7366004614e7b565b6110e9565b3480156103d857600080fd5b5061035060de5481565b3480156103ee57600080fd5b506103506103fd366004614e7b565b60df6020526000908152604090205481565b34801561041b57600080fd5b5060e05461042c9063ffffffff1681565b60405163ffffffff9091168152602001610327565b34801561044d57600080fd5b5061046161045c366004614edc565b6111c9565b6040516103279190614f27565b34801561047a57600080fd5b506101025461048f906001600160a01b031681565b6040516001600160a01b039091168152602001610327565b3480156104b357600080fd5b506104d76104c2366004614da7565b60f26020526000908152604090205460ff1681565b6040519015158152602001610327565b3480156104f357600080fd5b50610350610502366004614e7b565b60016020526000908152604090205481565b34801561052057600080fd5b5060e05461042c90640100000000900463ffffffff1681565b6102ee610547366004614fcc565b6116f4565b34801561055857600080fd5b506102ee610567366004614e7b565b6117c5565b34801561057857600080fd5b506103506118ca565b34801561058d57600080fd5b506102ee61059c366004615141565b61197d565b3480156105ad57600080fd5b5061035060035481565b3480156105c357600080fd5b506102ee611c88565b3480156105d857600080fd5b5060f65460f75460f8546105eb92919083565b60408051938452602084019290925290820152606001610327565b34801561061257600080fd5b506102ee6106213660046151f1565b611c9c565b34801561063257600080fd5b5060ac546001600160a01b031661048f565b34801561065057600080fd5b506102ee61065f36600461520d565b611cba565b34801561067057600080fd5b506102ee61067f366004614e7b565b611ccb565b34801561069057600080fd5b506104d761069f366004615282565b611de0565b3480156106b057600080fd5b506104d76106bf36600461520d565b611e5d565b3480156106d057600080fd5b506102ee6106df3660046152dd565b612033565b3480156106f057600080fd5b506103506106ff366004614da7565b50600190565b34801561071157600080fd5b50610750610720366004614da7565b60f160205260009081526040902080546001909101546001600160801b0380831692600160801b90048116911683565b604080516001600160801b0394851681529284166020840152921691810191909152606001610327565b34801561078657600080fd5b506102ee61079536600461533c565b6120bd565b3480156107a657600080fd5b5060fe5460ff546107b5919082565b60408051928352602083019190915201610327565b3480156107d657600080fd5b506104d76107e5366004614da7565b60026020526000908152604090205460ff1681565b34801561080657600080fd5b5060f5546104d79060ff1681565b34801561082057600080fd5b5061035061082f366004615357565b600060208181529281526040808220909352908152205481565b34801561085557600080fd5b50610350610864366004614da7565b6120ed565b34801561087557600080fd5b506102ee610884366004615379565b61219b565b34801561089557600080fd5b5060f95460fa5460fb5460fc5460fd546108b3949392919060ff1685565b6040805195865260208601949094529284019190915260608301521515608082015260a001610327565b3480156108e957600080fd5b506103506108f8366004614e7b565b60f46020526000908152604090205481565b34801561091657600080fd5b506102ee6109253660046153ae565b6121af565b34801561093657600080fd5b506107b5610945366004614e7b565b610100602052600090815260409020805460019091015482565b34801561096b57600080fd5b506102ee61097a366004614e7b565b6124a6565b34801561098b57600080fd5b5061035060045481565b3480156109a157600080fd5b506102ee6109b0366004615430565b6124d1565b3480156109c157600080fd5b506101015461048f906001600160a01b031681565b3480156109e257600080fd5b506103506101035481565b3480156109f957600080fd5b506102ee610a08366004615379565b6125a8565b348015610a1957600080fd5b5060f35461048f906001600160a01b031681565b348015610a3957600080fd5b506102ee610a48366004614e7b565b6125b8565b348015610a5957600080fd5b506103507f4246d22454f5bd543c70e6ffcca20eed2dcf09d3beef6d39e415385538b02d0a81565b601554610100900460ff1615808015610aa15750601554600160ff909116105b80610abb5750303b158015610abb575060155460ff166001145b610b235760405162461bcd60e51b815260206004820152602e60248201527f496e697469616c697a61626c653a20636f6e747261637420697320616c72656160448201526d191e481a5b9a5d1a585b1a5e995960921b60648201526084015b60405180910390fd5b6015805460ff191660011790558015610b46576015805461ff0019166101001790555b610b528a8a8a8a61262e565b60f380546001600160a01b03199081166001600160a01b0389811691909117909255865160f65560208088015160f75560408089015160f855875160f9559087015160fa5586015160fb55606086015160fc55608086015160fd805460ff19169115159190911790556101018054821686841617905561010280549091169184169190911790558015610c1f576015805461ff0019169055604051600181527f7f26b83ff96e1f2b6a682f133852f6798a09c465da95921460cefb38474024989060200160405180910390a15b50505050505050505050565b60408051808201909152600080825260208201526000610c52610c4d84612674565b6126a1565b9050610c7781600081518110610c6a57610c6a6154c3565b60200260200101516127b6565b82528051610c929082906008908110610c6a57610c6a6154c3565b602083015250919050565b60008060f360009054906101000a90046001600160a01b03166001600160a01b031663313ce5676040518163ffffffff1660e01b8152600401602060405180830381865afa158015610cf3573d6000803e3d6000fd5b505050506040513d601f19601f82011682018060405250810190610d1791906154d9565b905060128160ff161015610d54576000610d32826012615512565b60ff169050610d4281600a615619565b610d4c9085615625565b925050610d8b565b60128160ff161115610d87576000610d6d601283615512565b60ff169050610d7d81600a615619565b610d4c908561565a565b8291505b50919050565b610d99612804565b805160f955602081015160fa55604081015160fb55606081015160fc556080015160fd805460ff1916911515919091179055565b60f55460009060609060ff1615610e0557505060408051808201909152600681526518db1bdcd95960d21b60208201526000906110e2565b60fc54831015610e395750506040805180820190915260098152681b5a5b905b5bdd5b9d60ba1b60208201526000906110e2565b6001600160a01b03841660009081526101006020526040902060010154610e63620151804261566e565b6001600160a01b038616600090815261010060205260409020541015610e8a575082610e97565b610e948482615685565b90505b60fd5460ff168015610eb45750610102546001600160a01b031615155b1561103b576101025460405163bf40fac160e01b81526020600482015260086024820152674944454e5449545960c01b60448201526000916001600160a01b03169063bf40fac1906064016020604051808303816000875af1158015610f1e573d6000803e3d6000fd5b505050506040513d601f19601f82011682018060405250810190610f42919061569d565b90506001600160a01b03811615610ff857604051633af32abf60e01b81526001600160a01b038781166004830152821690633af32abf906024016020604051808303816000875af1158015610f9b573d6000803e3d6000fd5b505050506040513d601f19601f82011682018060405250810190610fbf91906156ba565b610ff85760006040518060400160405280600f81526020016e1b9bdd081dda1a5d195b1a5cdd1959608a1b8152509350935050506110e2565b60fb54821115611039576000604051806040016040528060118152602001701858d8dbdd5b9d11185a5b1e531a5b5a5d607a1b8152509350935050506110e2565b505b60fa5484111561106e5750506040805180820190915260078152661d1e131a5b5a5d60ca1b6020820152600091506110e2565b61107b620151804261566e565b60fe541015611089576110cc565b60f95460ff5461109a908690615685565b11156110cc57505060408051808201909152600a81526919185a5b1e531a5b5a5d60b21b6020820152600091506110e2565b5050604080516020810190915260008152600191505b9250929050565b306001600160a01b037f00000000000000000000000000000000000000000000000000000000000000001614156111325760405162461bcd60e51b8152600401610b1a906156d7565b7f00000000000000000000000000000000000000000000000000000000000000006001600160a01b031661117b600080516020615c1f833981519152546001600160a01b031690565b6001600160a01b0316146111a15760405162461bcd60e51b8152600401610b1a90615723565b6111aa8161285e565b604080516000808252602082019092526111c691839190612866565b50565b6060816001600160401b038111156111e3576111e3614a0a565b60405190808252806020026020018201604052801561121657816020015b60608152602001906001900390816112015790505b50905060005b828110156116ec576000848483818110611238576112386154c3565b905060200281019061124a919061576f565b6112539061578f565b6000878152602081815260408083208185015184528252909120548183015180519201919091209192509081146112c15760405162461bcd60e51b81526020600482015260126024820152710d2dcecc2d8d2c840c4d8dec6d640d0c2e6d60731b6044820152606401610b1a565b60006112d3610c4d8460200151612674565b905060006112ed82600581518110610c6a57610c6a6154c3565b8451519091506001600160401b0381111561130a5761130a614a0a565b60405190808252806020026020018201604052801561133d57816020015b60608152602001906001900390816113285790505b50868681518110611350576113506154c3565b602002602001018190525060005b8451518110156116d45760008a8587600001518481518110611382576113826154c3565b602002602001015160a001516040516020016113a09392919061591e565b60408051601f1981840301815291815281516020928301206000818152600290935291205490915060ff1615156001141561143e57604051806040016040528060148152602001731c9958d95a5c1d08185b1c9958591e481d5cd95960621b815250888881518110611414576114146154c3565b6020026020010151838151811061142d5761142d6154c3565b6020026020010181905250506116c2565b6000818152600260205260409020805460ff19166001179055855180518390811061146b5761146b6154c3565b60200260200101516060015160001480156114a557508551805183908110611495576114956154c3565b6020026020010151608001516000145b6114e35760405162461bcd60e51b815260206004820152600f60248201526e0dcdee840e6e8c2e4e840d2dcc8caf608b1b6044820152606401610b1a565b82866000015183815181106114fa576114fa6154c3565b6020026020010151600001511461154a5760405162461bcd60e51b81526020600482015260146024820152730e4cac6cad2e0e8a4dedee840dad2e6dac2e8c6d60631b6044820152606401610b1a565b61157086600001518381518110611563576115636154c3565b60200260200101516129d1565b6115b35760405162461bcd60e51b815260206004820152601460248201527372656365697074206e6f7420696e20626c6f636b60601b6044820152606401610b1a565b6040860151600111156115fa5760405162461bcd60e51b815260206004820152600f60248201526e1c9958d95a5c1d081d1bdbc81bdb19608a1b6044820152606401610b1a565b60006116348c886040015161162f8a60000151878151811061161e5761161e6154c3565b602002602001015160a00151612b92565b612d7a565b905080611667576040518060400160405280600e81526020016d195e1958dd5d194819985a5b195960921b815250611689565b60405180604001604052806008815260200167195e1958dd5d195960c21b8152505b89898151811061169b5761169b6154c3565b602002602001015184815181106116b4576116b46154c3565b602002602001018190525050505b806116cc8161593d565b91505061135e565b505050505080806116e49061593d565b91505061121c565b509392505050565b306001600160a01b037f000000000000000000000000000000000000000000000000000000000000000016141561173d5760405162461bcd60e51b8152600401610b1a906156d7565b7f00000000000000000000000000000000000000000000000000000000000000006001600160a01b0316611786600080516020615c1f833981519152546001600160a01b031690565b6001600160a01b0316146117ac5760405162461bcd60e51b8152600401610b1a90615723565b6117b58261285e565b6117c182826001612866565b5050565b6117cd612804565b6040516370a0823160e01b81523060048201526001600160a01b0382169063a9059cbb90339083906370a0823190602401602060405180830381865afa15801561181b573d6000803e3d6000fd5b505050506040513d601f19601f8201168201806040525081019061183f9190615958565b6040516001600160e01b031960e085901b1681526001600160a01b03909216600483015260248201526044016020604051808303816000875af115801561188a573d6000803e3d6000fd5b505050506040513d601f19601f820116820180604052508101906118ae91906156ba565b6111c65760405162461bcd60e51b8152600401610b1a90615971565b6000306001600160a01b037f0000000000000000000000000000000000000000000000000000000000000000161461196a5760405162461bcd60e51b815260206004820152603860248201527f555550535570677261646561626c653a206d757374206e6f742062652063616c60448201527f6c6564207468726f7567682064656c656761746563616c6c00000000000000006064820152608401610b1a565b50600080516020615c1f83398151915290565b60005b81518110156117c157600082828151811061199d5761199d6154c3565b602090810291909101810151808201518051908301208151608083015160608401516040519496509294607a8314946000946119df9488949093909201615993565b60405160208183030381529060405280519060200120905060008460400151516001600160401b03811115611a1657611a16614a0a565b604051908082528060200260200182016040528015611a3f578160200160208202803683370190505b50905060005b856040015151811015611b325760008087604001518381518110611a6b57611a6b6154c3565b6020026020010151806020019051810190611a8691906159e2565b91509150611aeb611ae4866040517f19457468657265756d205369676e6564204d6573736167653a0a3332000000006020820152603c8101829052600090605c01604051602081830303815290604052805190602001209050919050565b8383612f3d565b848481518110611afd57611afd6154c3565b60200260200101906001600160a01b031690816001600160a01b03168152505050508080611b2a9061593d565b915050611a45565b50611b3c81611e5d565b611b7a5760405162461bcd60e51b815260206004820152600f60248201526e696e76616c6964207369676e65727360881b6044820152606401610b1a565b6000611b898660200151610c2b565b9050600181602001511015611bd05760405162461bcd60e51b815260206004820152600d60248201526c189b1bd8dac81d1bdbc81bdb19609a1b6044820152606401610b1a565b85516000908152602081815260408083208483015184529091529020859055838015611c0157506000866080015151115b8015611c135750600454816020015110155b15611c2a57611c2a86608001518760600151612f5a565b8551602082810151604080519384529183015281018690527f7f7083e3a64a44d5c6f241eebc1447aa155764f7f6eb1508b4ef82dd555e9d689060600160405180910390a15050505050508080611c809061593d565b915050611980565b611c90612804565b611c9a6000613005565b565b611ca4612804565b805160f655602081015160f7556040015160f855565b611cc2612804565b6111c681613057565b611cd3612804565b6040516370a0823160e01b81523060048201526001600160a01b0382169063a9059cbb90339083906370a0823190602401602060405180830381865afa158015611d21573d6000803e3d6000fd5b505050506040513d601f19601f82011682018060405250810190611d459190615958565b6040516001600160e01b031960e085901b1681526001600160a01b03909216600483015260248201526044016020604051808303816000875af1158015611d90573d6000803e3d6000fd5b505050506040513d601f19601f82011682018060405250810190611db491906156ba565b611dd05760405162461bcd60e51b8152600401610b1a90615971565b5060f5805460ff19166001179055565b60f3546000906001600160a01b03163314611e295760405162461bcd60e51b81526020600482015260096024820152683737ba103a37b5b2b760b91b6044820152606401610b1a565b60008080611e3985870187615a06565b925092509250611e4f8883858a851560016130ed565b506001979650505050505050565b60008080805b8451811015612028576000611e79600183615a48565b90505b60008112611f1757858181518110611e9657611e966154c3565b60200260200101516001600160a01b0316868381518110611eb957611eb96154c3565b60200260200101516001600160a01b03161415611f055760405162461bcd60e51b815260206004820152600a602482015269323ab81039b4b3b732b960b11b6044820152606401610b1a565b80611f0f81615a87565b915050611e7c565b5060045460016000878481518110611f3157611f316154c3565b60200260200101516001600160a01b03166001600160a01b03168152602001908152602001600020541415611f6e5782611f6a8161593d565b9350505b60de5460df6000878481518110611f8757611f876154c3565b60200260200101516001600160a01b03166001600160a01b03168152602001908152602001600020541415611fc45781611fc08161593d565b9250505b60e05463ffffffff1682148015612006575060e054600354606491611ff89164010000000090910463ffffffff1690615625565b612002919061565a565b8310155b1561201657506001949350505050565b806120208161593d565b915050611e63565b506000949350505050565b61203b612804565b60005b838110156120b657828282818110612058576120586154c3565b9050602002013560f46000878785818110612075576120756154c3565b905060200201602081019061208a9190614e7b565b6001600160a01b03168152602081019190915260400160002055806120ae8161593d565b91505061203e565b5050505050565b6120c5612804565b60e0805463ffffffff9092166401000000000267ffffffff0000000019909216919091179055565b60008060f360009054906101000a90046001600160a01b03166001600160a01b031663313ce5676040518163ffffffff1660e01b8152600401602060405180830381865afa158015612143573d6000803e3d6000fd5b505050506040513d601f19601f8201168201806040525081019061216791906154d9565b905060128160ff161015612182576000610d6d826012615512565b60128160ff161115610d87576000610d32601283615512565b6121aa338484846000806130ed565b505050565b600086815260208181526040808320888452909152908190205490516121d89084908490615aa5565b6040518091039020811461222e5760405162461bcd60e51b815260206004820152601760248201527f696e76616c6964206368696c6420726c704865616465720000000000000000006044820152606401610b1a565b600061226f84848080601f016020809104026020016040519081016040528093929190818152602001838380828437600092019190915250610c2b92505050565b905060005b8581101561249b576000878783818110612290576122906154c3565b90506020028101906122a29190615ab5565b6040516122b0929190615aa5565b60405180910390209050808360000151146122fa5760405162461bcd60e51b815260206004820152600a6024820152691b9bdd081c185c995b9d60b21b6044820152606401610b1a565b600061235d898985818110612311576123116154c3565b90506020028101906123239190615ab5565b8080601f016020809104026020016040519081016040528093929190818152602001838380828437600092019190915250610c2b92505050565b90506001816020015110156123a45760405162461bcd60e51b815260206004820152600d60248201526c189b1bd8dac81d1bdbc81bdb19609a1b6044820152606401610b1a565b60008b81526020818152604080832084830151845290915290205415806123e4575060008b81526020818152604080832084830151845290915290205482145b6124235760405162461bcd60e51b815260206004820152601060248201526f185b1c9958591e481d995c9a599a595960821b6044820152606401610b1a565b60008b8152602081815260408083208483018051855290835292819020859055915182518e81529182015290810183905290935083907f7f7083e3a64a44d5c6f241eebc1447aa155764f7f6eb1508b4ef82dd555e9d689060600160405180910390a1505080806124939061593d565b915050612274565b505050505050505050565b6124ae612804565b61010180546001600160a01b0319166001600160a01b0392909216919091179055565b60006124e06040880188615afb565b9050111561257857604080516001808252818301909252600091816020015b6125316040518060a0016040528060008152602001606081526020016060815260200160008152602001606081525090565b8152602001906001900390816124ff57905050905061254f87615b44565b81600081518110612562576125626154c3565b60200260200101819052506125768161197d565b505b821561259357612593863586868661092560208c018c615ab5565b61259f863583836111c9565b50505050505050565b6121aa33848484600160006130ed565b6125c0612804565b6001600160a01b0381166126255760405162461bcd60e51b815260206004820152602660248201527f4f776e61626c653a206e6577206f776e657220697320746865207a65726f206160448201526564647265737360d01b6064820152608401610b1a565b6111c681613005565b6126366132aa565b6126408484612f5a565b61264982613057565b60e0805463ffffffff9092166401000000000267ffffffff0000000019909216919091179055505050565b60408051808201825260008082526020918201528151808301909252825182529182019181019190915290565b60606126ac8261331e565b6126b557600080fd5b60006126c083613357565b90506000816001600160401b038111156126dc576126dc614a0a565b60405190808252806020026020018201604052801561272157816020015b60408051808201909152600080825260208201528152602001906001900390816126fa5790505b509050600061273385602001516133da565b85602001516127429190615685565b90506000805b848110156127ab5761275983613455565b9150604051806040016040528083815260200184815250848281518110612782576127826154c3565b60209081029190910101526127978284615685565b9250806127a38161593d565b915050612748565b509195945050505050565b8051600090158015906127cb57508151602110155b6127d457600080fd5b6000806127e0846134fe565b8151919350915060208210156127fc5760208290036101000a90045b949350505050565b60ac546001600160a01b03163314611c9a5760405162461bcd60e51b815260206004820181905260248201527f4f776e61626c653a2063616c6c6572206973206e6f7420746865206f776e65726044820152606401610b1a565b6111c6612804565b7f4910fdfa16fed3260ed0e7147f7cc6da11a60208b5b9406d12a635614ffd91435460ff1615612899576121aa83613545565b826001600160a01b03166352d1902d6040518163ffffffff1660e01b8152600401602060405180830381865afa9250505080156128f3575060408051601f3d908101601f191682019092526128f091810190615958565b60015b6129565760405162461bcd60e51b815260206004820152602e60248201527f45524331393637557067726164653a206e657720696d706c656d656e7461746960448201526d6f6e206973206e6f74205555505360901b6064820152608401610b1a565b600080516020615c1f83398151915281146129c55760405162461bcd60e51b815260206004820152602960248201527f45524331393637557067726164653a20756e737570706f727465642070726f786044820152681a58589b195555525160ba1b6064820152608401610b1a565b506121aa8383836135e1565b60008082604001518360800151815181106129ee576129ee6154c3565b602002602001015190506000612a0b612a0683612674565b61360c565b9050836060015160001415612a845783518251602084012014612a7f5760405162461bcd60e51b815260206004820152602660248201527f7665726966795472696550726f6f6620726f6f74206e6f6465206861736820696044820152651b9d985b1a5960d21b6064820152608401610b1a565b612b3e565b602082511015612af1576000612aa1612a9c83613678565b6127b6565b85519091508114612aeb5760405162461bcd60e51b81526020600482015260146024820152733b32b934b33caa3934b2a83937b7b3101e10199960611b6044820152606401610b1a565b50612b3e565b83518251602084012014612b3e5760405162461bcd60e51b81526020600482015260146024820152737665726966795472696550726f6f6620656c736560601b6044820152606401610b1a565b6000612b4d8260000151613357565b90508060111415612b6a57612b61856136d5565b95945050505050565b8060021415612b7d57612b61828661380d565b60a08501515161202857506001949350505050565b612bc06040518060800160405280600060ff1681526020016000815260200160608152602001606081525090565b8151600090607f60f81b9084908390612bdb57612bdb6154c3565b01602001516001600160f81b03191611612bf3575060015b6000612c02610c4d8584613ae4565b9050612c1a81600081518110610c6a57610c6a6154c3565b60ff1683528051612c389082906001908110610c6a57610c6a6154c3565b60208401528051612c639082906002908110612c5657612c566154c3565b6020026020010151613b30565b83604001819052506000612c9082600381518110612c8357612c836154c3565b60200260200101516126a1565b905080516001600160401b03811115612cab57612cab614a0a565b604051908082528060200260200182016040528015612d0957816020015b612cf6604051806060016040528060006001600160a01b0316815260200160608152602001606081525090565b815260200190600190039081612cc95790505b50606085015260005b8151811015612d7157612d3d828281518110612d3057612d306154c3565b6020026020010151613bad565b85606001518281518110612d5357612d536154c3565b60200260200101819052508080612d699061593d565b915050612d12565b50505050919050565b6000816000015160ff16600114612d9357506000612f36565b6000805b836060015151811015612f3257600084606001518281518110612dbc57612dbc6154c3565b602002602001015190508560f4600083600001516001600160a01b03166001600160a01b03168152602001908152602001600020541115612dfd5750612f20565b80516001600160a01b0316600090815260f460205260409020541580612e6157507f4246d22454f5bd543c70e6ffcca20eed2dcf09d3beef6d39e415385538b02d0a8160200151600081518110612e5657612e566154c3565b602002602001015114155b15612e6c5750612f20565b60008060008360400151806020019051810190612e899190615b50565b925092509250612e964690565b8314612ea55750505050612f20565b60019550612f1b8460200151600181518110612ec357612ec36154c3565b602002602001015160001c8560200151600281518110612ee557612ee56154c3565b602002602001015160001c848d8d868a60200151600381518110612f0b57612f0b6154c3565b602002602001015160001c613cfc565b505050505b80612f2a8161593d565b915050612d97565b5090505b9392505050565b6000806000612f4d868686613f3c565b91509150612f3281613f75565b60005b8251811015612fbc578160016000858481518110612f7d57612f7d6154c3565b60200260200101516001600160a01b03166001600160a01b03168152602001908152602001600020819055508080612fb49061593d565b915050612f5d565b50600481905581516003556040517f27330b21e104b5b4f17c1f89b946c154b973ab51773ac9debf76b53bb57a194790612ff99084908490615b7e565b60405180910390a15050565b60ac80546001600160a01b038381166001600160a01b0319831681179093556040519116919082907f8be0079c531659141344cd1fd0a4f28419497f9722a3daafe3b4186f6b6457e090600090a35050565b60de80549060006130678361593d565b919050555060005b81518110156130d05760de5460df6000848481518110613091576130916154c3565b60200260200101516001600160a01b03166001600160a01b031681526020019081526020016000208190555080806130c89061593d565b91505061306f565b505160e0805463ffffffff191663ffffffff909216919091179055565b6130f9868685876140c3565b806131b65760f3546040516323b872dd60e01b81526001600160a01b03888116600483015230602483015260448201869052909116906323b872dd906064016020604051808303816000875af1158015613157573d6000803e3d6000fd5b505050506040513d601f19601f8201168201806040525081019061317b91906156ba565b6131b65760405162461bcd60e51b815260206004820152600c60248201526b7472616e7366657246726f6d60a01b6044820152606401610b1a565b60006131c184610c9d565b90508686468784304261010360008154809291906131de9061593d565b90915550604080516001600160a01b03998a166020820152978916908801526060870195909552608086019390935260a085019190915290931660c083015260e08201929092526101008101919091526101200160408051601f19818403018152828252805160209182012088845290830184905285151591830191909152426060830152906001600160a01b0380891691908a16907f4246d22454f5bd543c70e6ffcca20eed2dcf09d3beef6d39e415385538b02d0a9060800160405180910390a450505050505050565b601554610100900460ff166133155760405162461bcd60e51b815260206004820152602b60248201527f496e697469616c697a61626c653a20636f6e7472616374206973206e6f74206960448201526a6e697469616c697a696e6760a81b6064820152608401610b1a565b611c9a33613005565b805160009061332f57506000919050565b6020820151805160001a9060c082101561334d575060009392505050565b5060019392505050565b805160009061336857506000919050565b60008061337884602001516133da565b84602001516133879190615685565b905060008460000151856020015161339f9190615685565b90505b808210156133d1576133b382613455565b6133bd9083615685565b9150826133c98161593d565b9350506133a2565b50909392505050565b8051600090811a60808110156133f35750600092915050565b60b881108061340e575060c0811080159061340e575060f881105b1561341c5750600192915050565b60c081101561344957613431600160b8615512565b61343e9060ff168261566e565b612f36906001615685565b613431600160f8615512565b80516000908190811a608081101561347057600191506134f7565b60b88110156134965761348460808261566e565b61348f906001615685565b91506134f7565b60c08110156134c35760b78103600185019450806020036101000a855104600182018101935050506134f7565b60f88110156134d75761348460c08261566e565b60f78103600185019450806020036101000a855104600182018101935050505b5092915050565b600080600061351084602001516133da565b905060008185602001516135249190615685565b90506000828660000151613538919061566e565b9196919550909350505050565b6001600160a01b0381163b6135b25760405162461bcd60e51b815260206004820152602d60248201527f455243313936373a206e657720696d706c656d656e746174696f6e206973206e60448201526c1bdd08184818dbdb9d1c9858dd609a1b6064820152608401610b1a565b600080516020615c1f83398151915280546001600160a01b0319166001600160a01b0392909216919091179055565b6135ea83614245565b6000825111806135f75750805b156121aa576136068383614285565b50505050565b60408051608081018252600091810182815260608201839052815260208101919091526136388261331e565b61364157600080fd5b600061365083602001516133da565b836020015161365f9190615685565b6040805180820190915293845260208401525090919050565b604080518082019091526000808252602082015261369582614370565b61369e57600080fd5b602082015160006136ae82613455565b90506136ba8183615685565b60209485015260408051808201909152908152928301525090565b60008082604001518360800151815181106136f2576136f26154c3565b6020026020010151905082602001515183606001511061375b57600061372f61371d610c4d84612674565b601081518110612c5657612c566154c3565b90508360a001518051906020012081805190602001201415613755575060019392505050565b506137f1565b60008360200151846060015181518110613777576137776154c3565b016020015160f81c905060006137a3613792610c4d85612674565b8381518110612c5657612c566154c3565b905080516000146137ee5760208101518552606085018051600191906137ca908390615685565b905250608085018051600191906137e2908390615685565b905250612b61856129d1565b50505b60a0830151516138045750600192915050565b50600092915050565b60008061382161381c85613678565b613b30565b9050600061383161381c86613678565b602083015190915060fc1c60028114156138f557600060018451613855919061566e565b90506000613867856001846000614394565b9050600061388088602001518960600151856000614394565b905084805190602001208860a001518051906020012014156138ed578080519060200120828051906020012014156138c15760019650505050505050613ade565b805160208201206138d183614478565b8051906020012014156138ed5760019650505050505050613ade565b505050613ac0565b80600314156139ab57600061390f84600086516001614394565b60208701516060880151815192935060009261393992919061393290829061566e565b6000614394565b905083805190602001208760a001518051906020012014156139a45780805190602001208280519060200120141561397957600195505050505050613ade565b80516020820120613989836145a7565b8051906020012014156139a457600195505050505050613ade565b5050613ac0565b80613a6e576000600184516139c0919061566e565b905060006139d2856001846000614394565b905060006139eb88602001518960600151856000614394565b9050808051906020012082805190602001201480613a1d575080516020820120613a1483614478565b80519060200120145b156138ed5760208501518852606088018051849190613a3d908390615685565b90525060808801805160019190613a55908390615685565b905250613a61886129d1565b9650505050505050613ade565b8060011415613a8857825160006139d28582846001614394565b60405162461bcd60e51b815260206004820152600d60248201526c24b73b30b634b210383937b7b360991b6044820152606401610b1a565b60a085015151613ad65760019350505050613ade565b600093505050505b92915050565b604080518082019091526000808252602082015260208301613b068382615685565b90506040518060400160405280848651613b20919061566e565b8152602001919091529392505050565b8051606090613b3e57600080fd5b600080613b4a846134fe565b915091506000816001600160401b03811115613b6857613b68614a0a565b6040519080825280601f01601f191660200182016040528015613b92576020820181803683370190505b50905060208101613ba4848285614708565b50949350505050565b613bda604051806060016040528060006001600160a01b0316815260200160608152602001606081525090565b6000613be5836126a1565b9050613c0a81600081518110613bfd57613bfd6154c3565b6020026020010151614787565b6001600160a01b031682528051600090613c319083906001908110612c8357612c836154c3565b905080516001600160401b03811115613c4c57613c4c614a0a565b604051908082528060200260200182016040528015613c75578160200160208202803683370190505b50602084015260005b8151811015613cd8576000613c9e838381518110610c6a57610c6a6154c3565b60001b90508085602001518381518110613cba57613cba6154c3565b60209081029190910101525080613cd08161593d565b915050613c7e565b50613cef82600281518110612c5657612c566154c3565b6040840152509092915050565b6000613d07866120ed565b9050600080613d4083868015613d265750336001600160a01b038c1614155b8015613d3b5750336001600160a01b038d1614155b6147a1565b90925090506000613d518284615685565b600086815260f260205260409020805460ff191660011790559050613d758a61481c565b60f3546001600160a01b031663a9059cbb8b613d91848861566e565b6040516001600160e01b031960e085901b1681526001600160a01b03909216600483015260248201526044016020604051808303816000875af1158015613ddc573d6000803e3d6000fd5b505050506040513d601f19601f82011682018060405250810190613e0091906156ba565b613e1c5760405162461bcd60e51b8152600401610b1a90615971565b8115613ece5760f35460405163a9059cbb60e01b8152336004820152602481018490526001600160a01b039091169063a9059cbb906044016020604051808303816000875af1158015613e73573d6000803e3d6000fd5b505050506040513d601f19601f82011682018060405250810190613e9791906156ba565b613ece5760405162461bcd60e51b815260206004820152600860248201526772656c617946656560c01b6044820152606401610b1a565b6040805133815260208101869052908101829052606081018990526080810188905285906001600160a01b03808d1691908e16907f8f5fb725904dff7292d34df72f578088cca0aa71767d7d82fc40b1b786ef96a79060a00160405180910390a45050505050505050505050565b6000806001600160ff1b03831681613f5960ff86901c601b615685565b9050613f6787828885614908565b935093505050935093915050565b6000816004811115613f8957613f89615bcf565b1415613f925750565b6001816004811115613fa657613fa6615bcf565b1415613ff45760405162461bcd60e51b815260206004820152601860248201527f45434453413a20696e76616c6964207369676e617475726500000000000000006044820152606401610b1a565b600281600481111561400857614008615bcf565b14156140565760405162461bcd60e51b815260206004820152601f60248201527f45434453413a20696e76616c6964207369676e6174757265206c656e677468006044820152606401610b1a565b600381600481111561406a5761406a615bcf565b14156111c65760405162461bcd60e51b815260206004820152602260248201527f45434453413a20696e76616c6964207369676e6174757265202773272076616c604482015261756560f01b6064820152608401610b1a565b6001600160a01b03831661410a5760405162461bcd60e51b815260206004820152600e60248201526d1a5b9d985b1a59081d185c99d95d60921b6044820152606401610b1a565b600081116141525760405162461bcd60e51b81526020600482015260156024820152741a5b9d985b1a59081d185c99d95d10da185a5b9259605a1b6044820152606401610b1a565b61415f620151804261566e565b60fe541015614172574260fe55600060ff555b61417f620151804261566e565b6001600160a01b0385166000908152610100602052604090205410156141c0576001600160a01b038416600090815261010060205260408120428155600101555b6000806141cd8685610dcd565b915091508181906141f15760405162461bcd60e51b8152600401610b1a9190615be5565b508360fe60010160008282546142079190615685565b90915550506001600160a01b0386166000908152610100602052604081206001018054869290614238908490615685565b9091555050505050505050565b61424e81613545565b6040516001600160a01b038216907fbc7cd75a20ee27fd9adebab32041f755214dbc6bffa90cc0225b39da2e5c2d3b90600090a250565b60606001600160a01b0383163b6142ed5760405162461bcd60e51b815260206004820152602660248201527f416464726573733a2064656c65676174652063616c6c20746f206e6f6e2d636f6044820152651b9d1c9858dd60d21b6064820152608401610b1a565b600080846001600160a01b0316846040516143089190615bf8565b600060405180830381855af49150503d8060008114614343576040519150601f19603f3d011682016040523d82523d6000602084013e614348565b606091505b5091509150612b618282604051806060016040528060278152602001615c3f602791396149cc565b8051805160208201516000929161438691615685565b836020015110915050919050565b606060006143a360208561565a565b905060006143b2602086615c0a565b6143bd906008615625565b6143c99061010061566e565b9050602060008080886001600160401b038111156143e9576143e9614a0a565b6040519080825280601f01601f191660200182016040528015614413576020820181803683370190505b5090508a8a019150871561443d57818401516001600160fc1b031681850152602090930192600192505b825b8681101561445d57828501518286015260209094019360010161443f565b5083820151851c851b84820152505050505050949350505050565b606060008251600261448a9190615625565b90506000816001600160401b038111156144a6576144a6614a0a565b6040519080825280601f01601f1916602001820160405280156144d0576020820181803683370190505b50905060005b84518110156116ec5760008061451a8784815181106144f7576144f76154c3565b01602001516001600160f81b031916600481901c916001600160fc1b0390911690565b9092509050818461452c856002615625565b8151811061453c5761453c6154c3565b60200101906001600160f81b031916908160001a9053508084614560856002615625565b61456b906001615685565b8151811061457b5761457b6154c3565b60200101906001600160f81b031916908160001a9053505050808061459f9061593d565b9150506144d6565b606060006001835160026145bb9190615625565b6145c5919061566e565b90506000816001600160401b038111156145e1576145e1614a0a565b6040519080825280601f01601f19166020018201604052801561460b576020820181803683370190505b50905083600081518110614621576146216154c3565b602001015160f81c60f81b8160008151811061463f5761463f6154c3565b60200101906001600160f81b031916908160001a90535060015b84518110156116ec5760008061467a8784815181106144f7576144f76154c3565b90925090508184600161468e866002615625565b614698919061566e565b815181106146a8576146a86154c3565b60200101906001600160f81b031916908160001a90535080846146cc856002615625565b815181106146dc576146dc6154c3565b60200101906001600160f81b031916908160001a905350505080806147009061593d565b915050614659565b8061471257505050565b6020811061474a5782518252614729602084615685565b9250614736602083615685565b915061474360208261566e565b9050614712565b80156121aa576000600161475f83602061566e565b61476b90610100615619565b614775919061566e565b84518451821691191617835250505050565b805160009060151461479857600080fd5b613ade826127b6565b600080600061271060f660020154866147ba9190615625565b6147c4919061565a565b60f6549091508110156147d95760f6546147db565b805b60f7549091508111156147f05760f7546147f2565b805b90506147ff60028261565a565b9050808461480e576000614810565b815b92509250509250929050565b610101546001600160a01b0316158015906148a35750610101546040516374bf77e960e11b81526001600160a01b0383811660048301529091169063e97eefd2906024016020604051808303816000875af115801561487f573d6000803e3d6000fd5b505050506040513d601f19601f820116820180604052508101906148a391906156ba565b156111c657610101546040516306ee3b9f60e31b81526001600160a01b03838116600483015290911690633771dcf890602401600060405180830381600087803b1580156148f057600080fd5b505af1925050508015614901575060015b6111c65750565b6000807f7fffffffffffffffffffffffffffffff5d576e7357a4501ddfe92f46681b20a083111561493f57506000905060036149c3565b6040805160008082526020820180845289905260ff881692820192909252606081018690526080810185905260019060a0016020604051602081039080840390855afa158015614993573d6000803e3d6000fd5b5050604051601f1901519150506001600160a01b0381166149bc576000600192509250506149c3565b9150600090505b94509492505050565b606083156149db575081612f36565b612f3683838151156149f05781518083602001fd5b8060405162461bcd60e51b8152600401610b1a9190615be5565b634e487b7160e01b600052604160045260246000fd5b604051606081016001600160401b0381118282101715614a4257614a42614a0a565b60405290565b60405160a081016001600160401b0381118282101715614a4257614a42614a0a565b60405160c081016001600160401b0381118282101715614a4257614a42614a0a565b604051601f8201601f191681016001600160401b0381118282101715614ab457614ab4614a0a565b604052919050565b60006001600160401b03821115614ad557614ad5614a0a565b5060051b60200190565b6001600160a01b03811681146111c657600080fd5b600082601f830112614b0557600080fd5b81356020614b1a614b1583614abc565b614a8c565b82815260059290921b84018101918181019086841115614b3957600080fd5b8286015b84811015614b5d578035614b5081614adf565b8352918301918301614b3d565b509695505050505050565b803563ffffffff81168114614b7c57600080fd5b919050565b600060608284031215614b9357600080fd5b614b9b614a20565b905081358152602082013560208201526040820135604082015292915050565b80151581146111c657600080fd5b600060a08284031215614bdb57600080fd5b614be3614a48565b9050813581526020820135602082015260408201356040820152606082013560608201526080820135614c1581614bbb565b608082015292915050565b8035614b7c81614adf565b60008060008060008060008060006101e08a8c031215614c4a57600080fd5b89356001600160401b0380821115614c6157600080fd5b614c6d8d838e01614af4565b9a5060208c0135995060408c0135915080821115614c8a57600080fd5b50614c978c828d01614af4565b975050614ca660608b01614b68565b955060808a0135614cb681614adf565b9450614cc58b60a08c01614b81565b9350614cd58b6101008c01614bc9565b92506101a08a0135614ce681614adf565b9150614cf56101c08b01614c20565b90509295985092959850929598565b600082601f830112614d1557600080fd5b81356001600160401b03811115614d2e57614d2e614a0a565b614d41601f8201601f1916602001614a8c565b818152846020838601011115614d5657600080fd5b816020850160208301376000918101602001919091529392505050565b600060208284031215614d8557600080fd5b81356001600160401b03811115614d9b57600080fd5b6127fc84828501614d04565b600060208284031215614db957600080fd5b5035919050565b600060a08284031215614dd257600080fd5b612f368383614bc9565b60008060408385031215614def57600080fd5b8235614dfa81614adf565b946020939093013593505050565b60005b83811015614e23578181015183820152602001614e0b565b838111156136065750506000910152565b60008151808452614e4c816020860160208601614e08565b601f01601f19169290920160200192915050565b82151581526040602082015260006127fc6040830184614e34565b600060208284031215614e8d57600080fd5b8135612f3681614adf565b60008083601f840112614eaa57600080fd5b5081356001600160401b03811115614ec157600080fd5b6020830191508360208260051b85010111156110e257600080fd5b600080600060408486031215614ef157600080fd5b8335925060208401356001600160401b03811115614f0e57600080fd5b614f1a86828701614e98565b9497909650939450505050565b6000602080830181845280855180835260408601915060059250604081841b8701018488016000805b84811015614fbd57898403603f19018652825180518086529089019089860190808a1b87018b01855b82811015614fa757601f19898303018452614f95828651614e34565b948d0194938d01939150600101614f79565b50988b0198965050509288019250600101614f50565b50919998505050505050505050565b60008060408385031215614fdf57600080fd5b8235614fea81614adf565b915060208301356001600160401b0381111561500557600080fd5b61501185828601614d04565b9150509250929050565b600082601f83011261502c57600080fd5b8135602061503c614b1583614abc565b82815260059290921b8401810191818101908684111561505b57600080fd5b8286015b84811015614b5d5780356001600160401b0381111561507e5760008081fd5b61508c8986838b0101614d04565b84525091830191830161505f565b600060a082840312156150ac57600080fd5b6150b4614a48565b90508135815260208201356001600160401b03808211156150d457600080fd5b6150e085838601614d04565b602084015260408401359150808211156150f957600080fd5b6151058583860161501b565b604084015260608401356060840152608084013591508082111561512857600080fd5b5061513584828501614af4565b60808301525092915050565b6000602080838503121561515457600080fd5b82356001600160401b038082111561516b57600080fd5b818501915085601f83011261517f57600080fd5b813561518d614b1582614abc565b81815260059190911b830184019084810190888311156151ac57600080fd5b8585015b838110156151e4578035858111156151c85760008081fd5b6151d68b89838a010161509a565b8452509186019186016151b0565b5098975050505050505050565b60006060828403121561520357600080fd5b612f368383614b81565b60006020828403121561521f57600080fd5b81356001600160401b0381111561523557600080fd5b6127fc84828501614af4565b60008083601f84011261525357600080fd5b5081356001600160401b0381111561526a57600080fd5b6020830191508360208285010111156110e257600080fd5b6000806000806060858703121561529857600080fd5b84356152a381614adf565b93506020850135925060408501356001600160401b038111156152c557600080fd5b6152d187828801615241565b95989497509550505050565b600080600080604085870312156152f357600080fd5b84356001600160401b038082111561530a57600080fd5b61531688838901614e98565b9096509450602087013591508082111561532f57600080fd5b506152d187828801614e98565b60006020828403121561534e57600080fd5b612f3682614b68565b6000806040838503121561536a57600080fd5b50508035926020909101359150565b60008060006060848603121561538e57600080fd5b833561539981614adf565b95602085013595506040909401359392505050565b600080600080600080608087890312156153c757600080fd5b863595506020870135945060408701356001600160401b03808211156153ec57600080fd5b6153f88a838b01614e98565b9096509450606089013591508082111561541157600080fd5b5061541e89828a01615241565b979a9699509497509295939492505050565b6000806000806000806080878903121561544957600080fd5b86356001600160401b038082111561546057600080fd5b9088019060a0828b03121561547457600080fd5b909650602088013595506040880135908082111561549157600080fd5b61549d8a838b01614e98565b909650945060608901359150808211156154b657600080fd5b5061541e89828a01614e98565b634e487b7160e01b600052603260045260246000fd5b6000602082840312156154eb57600080fd5b815160ff81168114612f3657600080fd5b634e487b7160e01b600052601160045260246000fd5b600060ff821660ff84168082101561552c5761552c6154fc565b90039392505050565b600181815b80851115615570578160001904821115615556576155566154fc565b8085161561556357918102915b93841c939080029061553a565b509250929050565b60008261558757506001613ade565b8161559457506000613ade565b81600181146155aa57600281146155b4576155d0565b6001915050613ade565b60ff8411156155c5576155c56154fc565b50506001821b613ade565b5060208310610133831016604e8410600b84101617156155f3575081810a613ade565b6155fd8383615535565b8060001904821115615611576156116154fc565b029392505050565b6000612f368383615578565b600081600019048311821515161561563f5761563f6154fc565b500290565b634e487b7160e01b600052601260045260246000fd5b60008261566957615669615644565b500490565b600082821015615680576156806154fc565b500390565b60008219821115615698576156986154fc565b500190565b6000602082840312156156af57600080fd5b8151612f3681614adf565b6000602082840312156156cc57600080fd5b8151612f3681614bbb565b6020808252602c908201527f46756e6374696f6e206d7573742062652063616c6c6564207468726f7567682060408201526b19195b1959d85d1958d85b1b60a21b606082015260800190565b6020808252602c908201527f46756e6374696f6e206d7573742062652063616c6c6564207468726f7567682060408201526b6163746976652070726f787960a01b606082015260800190565b60008235605e1983360301811261578557600080fd5b9190910192915050565b600060608083360312156157a257600080fd5b6157aa614a20565b83356001600160401b03808211156157c157600080fd5b9085019036601f8301126157d457600080fd5b813560206157e4614b1583614abc565b82815260059290921b8401810191818101903684111561580357600080fd5b8286015b848110156158df5780358681111561581f5760008081fd5b870160c036829003601f19018113156158385760008081fd5b615840614a6a565b8683013581526040808401358a81111561585a5760008081fd5b615868368a83880101614d04565b89840152508c8401358a81111561587f5760008081fd5b61588d368a8388010161501b565b8284015250506080808401358d83015260a080850135828401528385013593508a8411156158bd57600091508182fd5b6158cb368a86880101614d04565b908301525085525050918301918301615807565b50865250878101359550828611156158f657600080fd5b61590236878a01614d04565b8186015250505050604084013560408201528092505050919050565b838152826020820152606060408201526000612b616060830184614e34565b6000600019821415615951576159516154fc565b5060010190565b60006020828403121561596a57600080fd5b5051919050565b6020808252600890820152673a3930b739b332b960c11b604082015260600190565b84815260006020858184015260408301855182870160005b828110156159d05781516001600160a01b0316845292840192908401906001016159ab565b50505093845290920195945050505050565b600080604083850312156159f557600080fd5b505080516020909101519092909150565b600080600060608486031215615a1b57600080fd5b833592506020840135615a2d81614adf565b91506040840135615a3d81614bbb565b809150509250925092565b60008083128015600160ff1b850184121615615a6657615a666154fc565b6001600160ff1b0384018313811615615a8157615a816154fc565b50500390565b6000600160ff1b821415615a9d57615a9d6154fc565b506000190190565b8183823760009101908152919050565b6000808335601e19843603018112615acc57600080fd5b8301803591506001600160401b03821115615ae657600080fd5b6020019150368190038213156110e257600080fd5b6000808335601e19843603018112615b1257600080fd5b8301803591506001600160401b03821115615b2c57600080fd5b6020019150600581901b36038213156110e257600080fd5b6000613ade368361509a565b600080600060608486031215615b6557600080fd5b83519250602084015191506040840151615a3d81614bbb565b604080825283519082018190526000906020906060840190828701845b82811015615bc05781516001600160a01b031684529284019290840190600101615b9b565b50505092019290925292915050565b634e487b7160e01b600052602160045260246000fd5b602081526000612f366020830184614e34565b60008251615785818460208701614e08565b600082615c1957615c19615644565b50069056fe360894a13ba1a3210667c828492db98dca3e2076cc3735a920a3ca505d382bbc416464726573733a206c6f772d6c6576656c2064656c65676174652063616c6c206661696c6564a264697066735822122049604bbc3986ac9963eef6f22ca20592ef34e83711237c158685f82ead683e5c64736f6c634300080a0033",
  "linkReferences": {},
  "deployedLinkReferences": {}
}