{
  "_format": "hh-sol-artifact-1",
  "contractName": "TokenBridgeTest",
  "sourceName": "contracts/test/TokenBridgeTest.sol",
  "abi": [
    {
      "inputs": [
        {
          "internalType": "address[]",
          "name": "_validators",
          "type": "address[]"
        },
        {
          "internalType": "uint256",
          "name": "_cycleEnd",
          "type": "uint256"
        },
        {
          "internalType": "address[]",
          "name": "_requiredValidators",
          "type": "address[]"
        },
        {
          "internalType": "uint32",
          "name": "_consensusRatio",
          "type": "uint32"
        },
        {
          "internalType": "address",
          "name": "_bridgedToken",
          "type": "address"
        },
        {
          "components": [
            {
              "internalType": "uint256",
              "name": "minFee",
              "type": "uint256"
            },
            {
              "internalType": "uint256",
              "name": "maxFee",
              "type": "uint256"
            },
            {
              "internalType": "uint256",
              "name": "fee",
              "type": "uint256"
            }
          ],
          "internalType": "struct TokenBridge.BridgeFees",
          "name": "_fees",
          "type": "tuple"
        },
        {
          "components": [
            {
              "internalType": "uint256",
              "name": "dailyLimit",
              "type": "uint256"
            },
            {
              "internalType": "uint256",
              "name": "txLimit",
              "type": "uint256"
            },
            {
              "internalType": "uint256",
              "name": "accountDailyLimit",
              "type": "uint256"
            },
            {
              "internalType": "uint256",
              "name": "minAmount",
              "type": "uint256"
            },
            {
              "internalType": "bool",
              "name": "onlyWhitelisted",
              "type": "bool"
            }
          ],
          "internalType": "struct TokenBridge.BridgeLimits",
          "name": "_limits",
          "type": "tuple"
        },
        {
          "internalType": "contract IFaucet",
          "name": "_faucet",
          "type": "address"
        },
        {
          "internalType": "contract INameService",
          "name": "_nameService",
          "type": "address"
        },
        {
          "internalType": "uint256",
          "name": "_chainIdOverride",
          "type": "uint256"
        }
      ],
      "stateMutability": "nonpayable",
      "type": "constructor"
    },
    {
      "anonymous": false,
      "inputs": [
        {
          "indexed": true,
          "internalType": "address",
          "name": "from",
          "type": "address"
        },
        {
          "indexed": true,
          "internalType": "address",
          "name": "to",
          "type": "address"
        },
        {
          "indexed": false,
          "internalType": "uint256",
          "name": "targetChainId",
          "type": "uint256"
        },
        {
          "indexed": false,
          "internalType": "uint256",
          "name": "amount",
          "type": "uint256"
        },
        {
          "indexed": false,
          "internalType": "bool",
          "name": "withRelay",
          "type": "bool"
        },
        {
          "indexed": false,
          "internalType": "uint256",
          "name": "timestamp",
          "type": "uint256"
        },
        {
          "indexed": true,
          "internalType": "uint256",
          "name": "id",
          "type": "uint256"
        }
      ],
      "name": "BridgeRequest",
      "type": "event"
    },
    {
      "anonymous": false,
      "inputs": [
        {
          "indexed": true,
          "internalType": "address",
          "name": "from",
          "type": "address"
        },
        {
          "indexed": true,
          "internalType": "address",
          "name": "to",
          "type": "address"
        },
        {
          "indexed": false,
          "internalType": "address",
          "name": "relayer",
          "type": "address"
        },
        {
          "indexed": false,
          "internalType": "uint256",
          "name": "amount",
          "type": "uint256"
        },
        {
          "indexed": false,
          "internalType": "uint256",
          "name": "fee",
          "type": "uint256"
        },
        {
          "indexed": false,
          "internalType": "uint256",
          "name": "sourceChainId",
          "type": "uint256"
        },
        {
          "indexed": false,
          "internalType": "uint256",
          "name": "sourceBlockNumber",
          "type": "uint256"
        },
        {
          "indexed": true,
          "internalType": "uint256",
          "name": "id",
          "type": "uint256"
        }
      ],
      "name": "ExecutedTransfer",
      "type": "event"
    },
    {
      "anonymous": false,
      "inputs": [
        {
          "indexed": true,
          "internalType": "address",
          "name": "previousOwner",
          "type": "address"
        },
        {
          "indexed": true,
          "internalType": "address",
          "name": "newOwner",
          "type": "address"
        }
      ],
      "name": "OwnershipTransferred",
      "type": "event"
    },
    {
      "inputs": [],
      "name": "BRIDGE_TOPIC",
      "outputs": [
        {
          "internalType": "bytes32",
          "name": "",
          "type": "bytes32"
        }
      ],
      "stateMutability": "view",
      "type": "function"
    },
    {
      "inputs": [
        {
          "internalType": "address",
          "name": "",
          "type": "address"
        }
      ],
      "name": "accountsDailyLimit",
      "outputs": [
        {
          "internalType": "uint256",
          "name": "lastTransferReset",
          "type": "uint256"
        },
        {
          "internalType": "uint256",
          "name": "bridged24Hours",
          "type": "uint256"
        }
      ],
      "stateMutability": "view",
      "type": "function"
    },
    {
      "inputs": [],
      "name": "bridgeDailyLimit",
      "outputs": [
        {
          "internalType": "uint256",
          "name": "lastTransferReset",
          "type": "uint256"
        },
        {
          "internalType": "uint256",
          "name": "bridged24Hours",
          "type": "uint256"
        }
      ],
      "stateMutability": "view",
      "type": "function"
    },
    {
      "inputs": [],
      "name": "bridgeFees",
      "outputs": [
        {
          "internalType": "uint256",
          "name": "minFee",
          "type": "uint256"
        },
        {
          "internalType": "uint256",
          "name": "maxFee",
          "type": "uint256"
        },
        {
          "internalType": "uint256",
          "name": "fee",
          "type": "uint256"
        }
      ],
      "stateMutability": "view",
      "type": "function"
    },
    {
      "inputs": [],
      "name": "bridgeLimits",
      "outputs": [
        {
          "internalType": "uint256",
          "name": "dailyLimit",
          "type": "uint256"
        },
        {
          "internalType": "uint256",
          "name": "txLimit",
          "type": "uint256"
        },
        {
          "internalType": "uint256",
          "name": "accountDailyLimit",
          "type": "uint256"
        },
        {
          "internalType": "uint256",
          "name": "minAmount",
          "type": "uint256"
        },
        {
          "internalType": "bool",
          "name": "onlyWhitelisted",
          "type": "bool"
        }
      ],
      "stateMutability": "view",
      "type": "function"
    },
    {
      "inputs": [
        {
          "internalType": "address",
          "name": "target",
          "type": "address"
        },
        {
          "internalType": "uint256",
          "name": "targetChainId",
          "type": "uint256"
        },
        {
          "internalType": "uint256",
          "name": "amount",
          "type": "uint256"
        }
      ],
      "name": "bridgeTo",
      "outputs": [],
      "stateMutability": "nonpayable",
      "type": "function"
    },
    {
      "inputs": [],
      "name": "bridgedToken",
      "outputs": [
        {
          "internalType": "address",
          "name": "",
          "type": "address"
        }
      ],
      "stateMutability": "view",
      "type": "function"
    },
    {
      "inputs": [
        {
          "internalType": "address",
          "name": "from",
          "type": "address"
        },
        {
          "internalType": "uint256",
          "name": "amount",
          "type": "uint256"
        }
      ],
      "name": "canBridge",
      "outputs": [
        {
          "internalType": "bool",
          "name": "isWithinLimit",
          "type": "bool"
        },
        {
          "internalType": "string",
          "name": "error",
          "type": "string"
        }
      ],
      "stateMutability": "nonpayable",
      "type": "function"
    },
    {
      "inputs": [
        {
          "internalType": "uint256",
          "name": "",
          "type": "uint256"
        }
      ],
      "name": "chainIdToTotalBridgeFees",
      "outputs": [
        {
          "internalType": "uint256",
          "name": "",
          "type": "uint256"
        }
      ],
      "stateMutability": "view",
      "type": "function"
    },
    {
      "inputs": [
        {
          "internalType": "uint256",
          "name": "",
          "type": "uint256"
        }
      ],
      "name": "chainIdToTotalBridged",
      "outputs": [
        {
          "internalType": "uint256",
          "name": "",
          "type": "uint256"
        }
      ],
      "stateMutability": "view",
      "type": "function"
    },
    {
      "inputs": [
        {
          "internalType": "uint256",
          "name": "",
          "type": "uint256"
        }
      ],
      "name": "chainIdToTotalRelayFees",
      "outputs": [
        {
          "internalType": "uint256",
          "name": "",
          "type": "uint256"
        }
      ],
      "stateMutability": "view",
      "type": "function"
    },
    {
      "inputs": [
        {
          "internalType": "uint256",
          "name": "",
          "type": "uint256"
        }
      ],
      "name": "chainStartBlock",
      "outputs": [
        {
          "internalType": "uint256",
          "name": "bridgeStartBlock",
          "type": "uint256"
        }
      ],
      "stateMutability": "nonpayable",
      "type": "function"
    },
    {
      "inputs": [
        {
          "internalType": "uint256",
          "name": "",
          "type": "uint256"
        },
        {
          "internalType": "uint256",
          "name": "",
          "type": "uint256"
        }
      ],
      "name": "chainVerifiedBlocks",
      "outputs": [
        {
          "internalType": "bytes32",
          "name": "",
          "type": "bytes32"
        }
      ],
      "stateMutability": "view",
      "type": "function"
    },
    {
      "inputs": [
        {
          "internalType": "address",
          "name": "token",
          "type": "address"
        }
      ],
      "name": "closeBridge",
      "outputs": [],
      "stateMutability": "nonpayable",
      "type": "function"
    },
    {
      "inputs": [],
      "name": "consensusRatio",
      "outputs": [
        {
          "internalType": "uint32",
          "name": "",
          "type": "uint32"
        }
      ],
      "stateMutability": "view",
      "type": "function"
    },
    {
      "inputs": [],
      "name": "currentId",
      "outputs": [
        {
          "internalType": "uint256",
          "name": "",
          "type": "uint256"
        }
      ],
      "stateMutability": "view",
      "type": "function"
    },
    {
      "inputs": [
        {
          "internalType": "address",
          "name": "",
          "type": "address"
        }
      ],
      "name": "currentValidators",
      "outputs": [
        {
          "internalType": "uint256",
          "name": "",
          "type": "uint256"
        }
      ],
      "stateMutability": "view",
      "type": "function"
    },
    {
      "inputs": [
        {
          "internalType": "uint256",
          "name": "chainId",
          "type": "uint256"
        },
        {
          "components": [
            {
              "components": [
                {
                  "internalType": "bytes32",
                  "name": "expectedRoot",
                  "type": "bytes32"
                },
                {
                  "internalType": "bytes",
                  "name": "key",
                  "type": "bytes"
                },
                {
                  "internalType": "bytes[]",
                  "name": "proof",
                  "type": "bytes[]"
                },
                {
                  "internalType": "uint256",
                  "name": "keyIndex",
                  "type": "uint256"
                },
                {
                  "internalType": "uint256",
                  "name": "proofIndex",
                  "type": "uint256"
                },
                {
                  "internalType": "bytes",
                  "name": "expectedValue",
                  "type": "bytes"
                }
              ],
              "internalType": "struct MPT.MerkleProof[]",
              "name": "receiptProofs",
              "type": "tuple[]"
            },
            {
              "internalType": "bytes",
              "name": "blockHeaderRlp",
              "type": "bytes"
            },
            {
              "internalType": "uint256",
              "name": "blockNumber",
              "type": "uint256"
            }
          ],
          "internalType": "struct BridgeCore.BlockReceiptProofs[]",
          "name": "blocks",
          "type": "tuple[]"
        }
      ],
      "name": "executeReceipts",
      "outputs": [
        {
          "internalType": "string[][]",
          "name": "results",
          "type": "string[][]"
        }
      ],
      "stateMutability": "nonpayable",
      "type": "function"
    },
    {
      "inputs": [
        {
          "internalType": "uint256",
          "name": "",
          "type": "uint256"
        }
      ],
      "name": "executedRequests",
      "outputs": [
        {
          "internalType": "bool",
          "name": "",
          "type": "bool"
        }
      ],
      "stateMutability": "view",
      "type": "function"
    },
    {
      "inputs": [],
      "name": "faucet",
      "outputs": [
        {
          "internalType": "contract IFaucet",
          "name": "",
          "type": "address"
        }
      ],
      "stateMutability": "view",
      "type": "function"
    },
    {
      "inputs": [],
      "name": "isClosed",
      "outputs": [
        {
          "internalType": "bool",
          "name": "",
          "type": "bool"
        }
      ],
      "stateMutability": "view",
      "type": "function"
    },
    {
      "inputs": [
        {
          "internalType": "address[]",
          "name": "signers",
          "type": "address[]"
        }
      ],
      "name": "isValidConsensus",
      "outputs": [
        {
          "internalType": "bool",
          "name": "isValid",
          "type": "bool"
        }
      ],
      "stateMutability": "nonpayable",
      "type": "function"
    },
    {
      "inputs": [],
      "name": "nameService",
      "outputs": [
        {
          "internalType": "contract INameService",
          "name": "",
          "type": "address"
        }
      ],
      "stateMutability": "view",
      "type": "function"
    },
    {
      "inputs": [],
      "name": "numRequiredValidators",
      "outputs": [
        {
          "internalType": "uint32",
          "name": "",
          "type": "uint32"
        }
      ],
      "stateMutability": "view",
      "type": "function"
    },
    {
      "inputs": [],
      "name": "numValidators",
      "outputs": [
        {
          "internalType": "uint256",
          "name": "",
          "type": "uint256"
        }
      ],
      "stateMutability": "view",
      "type": "function"
    },
    {
      "inputs": [
        {
          "internalType": "address",
          "name": "from",
          "type": "address"
        },
        {
          "internalType": "uint256",
          "name": "amount",
          "type": "uint256"
        },
        {
          "internalType": "bytes",
          "name": "data",
          "type": "bytes"
        }
      ],
      "name": "onTokenTransfer",
      "outputs": [
        {
          "internalType": "bool",
          "name": "",
          "type": "bool"
        }
      ],
      "stateMutability": "nonpayable",
      "type": "function"
    },
    {
      "inputs": [],
      "name": "owner",
      "outputs": [
        {
          "internalType": "address",
          "name": "",
          "type": "address"
        }
      ],
      "stateMutability": "view",
      "type": "function"
    },
    {
      "inputs": [
        {
          "internalType": "bytes",
          "name": "rlpHeader",
          "type": "bytes"
        }
      ],
      "name": "parseRLPToHeader",
      "outputs": [
        {
          "components": [
            {
              "internalType": "bytes32",
              "name": "parentHash",
              "type": "bytes32"
            },
            {
              "internalType": "uint256",
              "name": "number",
              "type": "uint256"
            }
          ],
          "internalType": "struct BridgeCore.BlockHeader",
          "name": "header",
          "type": "tuple"
        }
      ],
      "stateMutability": "pure",
      "type": "function"
    },
    {
      "inputs": [],
      "name": "renounceOwnership",
      "outputs": [],
      "stateMutability": "nonpayable",
      "type": "function"
    },
    {
      "inputs": [
        {
          "internalType": "address",
          "name": "",
          "type": "address"
        }
      ],
      "name": "requiredValidators",
      "outputs": [
        {
          "internalType": "uint256",
          "name": "",
          "type": "uint256"
        }
      ],
      "stateMutability": "view",
      "type": "function"
    },
    {
      "inputs": [],
      "name": "requiredValidatorsSet",
      "outputs": [
        {
          "internalType": "uint256",
          "name": "",
          "type": "uint256"
        }
      ],
      "stateMutability": "view",
      "type": "function"
    },
    {
      "inputs": [
        {
          "components": [
            {
              "internalType": "uint256",
              "name": "minFee",
              "type": "uint256"
            },
            {
              "internalType": "uint256",
              "name": "maxFee",
              "type": "uint256"
            },
            {
              "internalType": "uint256",
              "name": "fee",
              "type": "uint256"
            }
          ],
          "internalType": "struct TokenBridge.BridgeFees",
          "name": "_fees",
          "type": "tuple"
        }
      ],
      "name": "setBridgeFees",
      "outputs": [],
      "stateMutability": "nonpayable",
      "type": "function"
    },
    {
      "inputs": [
        {
          "components": [
            {
              "internalType": "uint256",
              "name": "dailyLimit",
              "type": "uint256"
            },
            {
              "internalType": "uint256",
              "name": "txLimit",
              "type": "uint256"
            },
            {
              "internalType": "uint256",
              "name": "accountDailyLimit",
              "type": "uint256"
            },
            {
              "internalType": "uint256",
              "name": "minAmount",
              "type": "uint256"
            },
            {
              "internalType": "bool",
              "name": "onlyWhitelisted",
              "type": "bool"
            }
          ],
          "internalType": "struct TokenBridge.BridgeLimits",
          "name": "_limits",
          "type": "tuple"
        }
      ],
      "name": "setBridgeLimits",
      "outputs": [],
      "stateMutability": "nonpayable",
      "type": "function"
    },
    {
      "inputs": [
        {
          "internalType": "uint32",
          "name": "_consensusRatio",
          "type": "uint32"
        }
      ],
      "name": "setConsensusRatio",
      "outputs": [],
      "stateMutability": "nonpayable",
      "type": "function"
    },
    {
      "inputs": [
        {
          "internalType": "contract IFaucet",
          "name": "_faucet",
          "type": "address"
        }
      ],
      "name": "setFaucet",
      "outputs": [],
      "stateMutability": "nonpayable",
      "type": "function"
    },
    {
      "inputs": [
        {
          "internalType": "address[]",
          "name": "validators",
          "type": "address[]"
        }
      ],
      "name": "setRequiredValidators",
      "outputs": [],
      "stateMutability": "nonpayable",
      "type": "function"
    },
    {
      "inputs": [
        {
          "internalType": "address[]",
          "name": "bridges",
          "type": "address[]"
        },
        {
          "internalType": "uint256[]",
          "name": "blockstart",
          "type": "uint256[]"
        }
      ],
      "name": "setSourceBridges",
      "outputs": [],
      "stateMutability": "nonpayable",
      "type": "function"
    },
    {
      "inputs": [
        {
          "internalType": "address",
          "name": "",
          "type": "address"
        }
      ],
      "name": "sourceBridgeToBlockstart",
      "outputs": [
        {
          "internalType": "uint256",
          "name": "",
          "type": "uint256"
        }
      ],
      "stateMutability": "view",
      "type": "function"
    },
    {
      "inputs": [
        {
          "components": [
            {
              "internalType": "uint256",
              "name": "chainId",
              "type": "uint256"
            },
            {
              "internalType": "bytes",
              "name": "rlpHeader",
              "type": "bytes"
            },
            {
              "internalType": "bytes[]",
              "name": "signatures",
              "type": "bytes[]"
            },
            {
              "internalType": "uint256",
              "name": "cycleEnd",
              "type": "uint256"
            },
            {
              "internalType": "address[]",
              "name": "validators",
              "type": "address[]"
            }
          ],
          "internalType": "struct BridgeCore.SignedBlock[]",
          "name": "signedBlocks",
          "type": "tuple[]"
        }
      ],
      "name": "submitBlocks",
      "outputs": [],
      "stateMutability": "nonpayable",
      "type": "function"
    },
    {
      "inputs": [
        {
          "components": [
            {
              "internalType": "uint256",
              "name": "chainId",
              "type": "uint256"
            },
            {
              "internalType": "bytes",
              "name": "rlpHeader",
              "type": "bytes"
            },
            {
              "internalType": "bytes[]",
              "name": "signatures",
              "type": "bytes[]"
            },
            {
              "internalType": "uint256",
              "name": "cycleEnd",
              "type": "uint256"
            },
            {
              "internalType": "address[]",
              "name": "validators",
              "type": "address[]"
            }
          ],
          "internalType": "struct BridgeCore.SignedBlock",
          "name": "blockData",
          "type": "tuple"
        },
        {
          "internalType": "uint256",
          "name": "signedBlockNumber",
          "type": "uint256"
        },
        {
          "internalType": "bytes[]",
          "name": "parentRlpHeaders",
          "type": "bytes[]"
        },
        {
          "components": [
            {
              "components": [
                {
                  "internalType": "bytes32",
                  "name": "expectedRoot",
                  "type": "bytes32"
                },
                {
                  "internalType": "bytes",
                  "name": "key",
                  "type": "bytes"
                },
                {
                  "internalType": "bytes[]",
                  "name": "proof",
                  "type": "bytes[]"
                },
                {
                  "internalType": "uint256",
                  "name": "keyIndex",
                  "type": "uint256"
                },
                {
                  "internalType": "uint256",
                  "name": "proofIndex",
                  "type": "uint256"
                },
                {
                  "internalType": "bytes",
                  "name": "expectedValue",
                  "type": "bytes"
                }
              ],
              "internalType": "struct MPT.MerkleProof[]",
              "name": "receiptProofs",
              "type": "tuple[]"
            },
            {
              "internalType": "bytes",
              "name": "blockHeaderRlp",
              "type": "bytes"
            },
            {
              "internalType": "uint256",
              "name": "blockNumber",
              "type": "uint256"
            }
          ],
          "internalType": "struct BridgeCore.BlockReceiptProofs[]",
          "name": "txs",
          "type": "tuple[]"
        }
      ],
      "name": "submitChainBlockParentsAndTxs",
      "outputs": [],
      "stateMutability": "nonpayable",
      "type": "function"
    },
    {
      "inputs": [
        {
          "internalType": "address",
          "name": "newOwner",
          "type": "address"
        }
      ],
      "name": "transferOwnership",
      "outputs": [],
      "stateMutability": "nonpayable",
      "type": "function"
    },
    {
      "inputs": [
        {
          "internalType": "bytes32",
          "name": "",
          "type": "bytes32"
        }
      ],
      "name": "usedReceipts",
      "outputs": [
        {
          "internalType": "bool",
          "name": "",
          "type": "bool"
        }
      ],
      "stateMutability": "view",
      "type": "function"
    },
    {
      "inputs": [],
      "name": "validatorsCycleEnd",
      "outputs": [
        {
          "internalType": "uint256",
          "name": "",
          "type": "uint256"
        }
      ],
      "stateMutability": "view",
      "type": "function"
    },
    {
      "inputs": [
        {
          "internalType": "uint256",
          "name": "chainId",
          "type": "uint256"
        },
        {
          "internalType": "uint256",
          "name": "childBlockNumber",
          "type": "uint256"
        },
        {
          "internalType": "bytes[]",
          "name": "parentRlpHeaders",
          "type": "bytes[]"
        },
        {
          "internalType": "bytes",
          "name": "childRlpHeader",
          "type": "bytes"
        }
      ],
      "name": "verifyParentBlocks",
      "outputs": [],
      "stateMutability": "nonpayable",
      "type": "function"
    }
  ],
  "bytecode": "0x60806040523480156200001157600080fd5b506040516200516538038062005165833981016040819052620000349162000476565b898989898989898989888888886200004c336200012b565b6200005884846200017d565b6200006382620001f0565b6008805463ffffffff9092166401000000000263ffffffff60201b199092169190911790555050600d80546001600160a01b039788166001600160a01b03199182161790915585516010556020808701516011556040968701516012558551601355850151601455948401516015555060608301516016556080909201516017805491151560ff19909216919091179055601b8054918516918416919091179055601c8054919093169116179055505050601e9190915550620005a998505050505050505050565b600580546001600160a01b038381166001600160a01b0319831681179093556040519116919082907f8be0079c531659141344cd1fd0a4f28419497f9722a3daafe3b4186f6b6457e090600090a35050565b60005b8251811015620001e6578160016000858481518110620001a457620001a462000569565b60200260200101516001600160a01b03166001600160a01b03168152602001908152602001600020819055508080620001dd906200057f565b91505062000180565b5060045551600355565b6006805490600062000202836200057f565b919050555060005b815181101562000272576006546007600084848151811062000230576200023062000569565b60200260200101516001600160a01b03166001600160a01b0316815260200190815260200160002081905550808062000269906200057f565b9150506200020a565b50516008805463ffffffff191663ffffffff909216919091179055565b634e487b7160e01b600052604160045260246000fd5b6001600160a01b0381168114620002bb57600080fd5b50565b8051620002cb81620002a5565b919050565b600082601f830112620002e257600080fd5b815160206001600160401b03808311156200030157620003016200028f565b8260051b604051601f19603f830116810181811084821117156200032957620003296200028f565b6040529384528581018301938381019250878511156200034857600080fd5b83870191505b84821015620003745781516200036481620002a5565b835291830191908301906200034e565b979650505050505050565b805163ffffffff81168114620002cb57600080fd5b600060608284031215620003a757600080fd5b604051606081016001600160401b0381118282101715620003cc57620003cc6200028f565b80604052508091508251815260208301516020820152604083015160408201525092915050565b600060a082840312156200040657600080fd5b60405160a081016001600160401b03811182821017156200042b576200042b6200028f565b806040525080915082518152602083015160208201526040830151604082015260608301516060820152608083015180151581146200046957600080fd5b6080919091015292915050565b6000806000806000806000806000806102008b8d0312156200049757600080fd5b8a516001600160401b0380821115620004af57600080fd5b620004bd8e838f01620002d0565b9b5060208d01519a5060408d0151915080821115620004db57600080fd5b50620004ea8d828e01620002d0565b985050620004fb60608c016200037f565b96506200050b60808c01620002be565b95506200051c8c60a08d0162000394565b94506200052e8c6101008d01620003f3565b93506200053f6101a08c01620002be565b9250620005506101c08c01620002be565b91506101e08b015190509295989b9194979a5092959850565b634e487b7160e01b600052603260045260246000fd5b6000600019821415620005a257634e487b7160e01b600052601160045260246000fd5b5060010190565b614bac80620005b96000396000f3fe608060405234801561001057600080fd5b50600436106102745760003560e01c8063a4c0ed3611610151578063ce2b2cf0116100c3578063de5f72fd11610087578063de5f72fd1461069a578063e00dd161146106ad578063e39b32e8146106b6578063ee383937146106c9578063f2fde38b146106dc578063f39e17d5146106ef57600080fd5b8063ce2b2cf014610631578063d422794714610644578063d8b31c771461066b578063dd99014b1461067e578063de55abc31461068757600080fd5b8063b2f7667f11610115578063b2f7667f1461054f578063be58d44d14610572578063c2b6b58c14610595578063c3e6978f146105a2578063c6dd812f146105ca578063c8edb0491461061157600080fd5b8063a4c0ed36146104ef578063a8b8be1814610502578063a976acf314610515578063a9c4b87e14610528578063b1228a631461053c57600080fd5b80634c83f9e4116101ea57806382dc737d116101ae57806382dc737d1461046557806388a42151146104785780638da5cb5b14610498578063930af354146104a957806393dec84d146104bc57806394cb9799146104dc57600080fd5b80634c83f9e4146103fc5780635c843060146104145780635d593f8d14610427578063715018a6146104305780637b0240c01461043857600080fd5b80633886d21e1161023c5780633886d21e146103195780633cca046d1461033e5780633e6326fc1461035e57806341686ec714610389578063425cfb53146103a95780634406acdd146103dc57600080fd5b80631b1c62721461027957806329b70872146102ac5780633095634a146102c1578063370a4250146102e25780633811da50146102f9575b600080fd5b61028c610287366004613ca3565b610704565b604080518251815260209283015192810192909252015b60405180910390f35b6102bf6102ba366004613ce5565b610776565b005b6102d46102cf366004613d6f565b6107b2565b6040516102a3929190613de8565b6102eb60065481565b6040519081526020016102a3565b6102eb610307366004613e03565b60076020526000908152604090205481565b6008546103299063ffffffff1681565b60405163ffffffff90911681526020016102a3565b61035161034c366004613e64565b610a8f565b6040516102a39190613eaf565b601c54610371906001600160a01b031681565b6040516001600160a01b0390911681526020016102a3565b6102eb610397366004613f54565b60096020526000908152604090205481565b6103cc6103b7366004613f54565b600c6020526000908152604090205460ff1681565b60405190151581526020016102a3565b6102eb6103ea366004613e03565b60016020526000908152604090205481565b60085461032990640100000000900463ffffffff1681565b6102bf61042236600461412a565b610fbf565b6102eb60035481565b6102bf611289565b60105460115460125461044a92919083565b604080519384526020840192909252908201526060016102a3565b6102bf6104733660046141da565b61129d565b6102eb610486366004613f54565b600a6020526000908152604090205481565b6005546001600160a01b0316610371565b6102bf6104b7366004614235565b6112bb565b6102eb6104ca366004613f54565b600b6020526000908152604090205481565b6102bf6104ea366004613e03565b6112cf565b6103cc6104fd3660046142aa565b611416565b6103cc610510366004614235565b611522565b6102bf610523366004614305565b6116f8565b6102eb610536366004613f54565b50600190565b6102bf61054a366004614364565b611782565b60185460195461055d919082565b604080519283526020830191909152016102a3565b6103cc610580366004613f54565b60026020526000908152604090205460ff1681565b600f546103cc9060ff1681565b6102eb6105b036600461438a565b600060208181529281526040808220909352908152205481565b6013546014546015546016546017546105e7949392919060ff1685565b6040805195865260208601949094529284019190915260608301521515608082015260a0016102a3565b6102eb61061f366004613e03565b600e6020526000908152604090205481565b6102bf61063f3660046143ac565b6117b2565b61055d610652366004613e03565b601a602052600090815260409020805460019091015482565b6102bf610679366004613e03565b611a63565b6102eb60045481565b6102bf61069536600461442e565b611a8d565b601b54610371906001600160a01b031681565b6102eb601d5481565b6102bf6106c43660046144c1565b611b64565b600d54610371906001600160a01b031681565b6102bf6106ea366004613e03565b611cbf565b6102eb600080516020614b5783398151915281565b6040805180820190915260008082526020820152600061072b61072684611d35565b611d62565b905061075081600081518110610743576107436144f6565b6020026020010151611e77565b8252805161076b9082906008908110610743576107436144f6565b602083015250919050565b61077e611ec5565b8051601355602081015160145560408101516015556060810151601655608001516017805460ff1916911515919091179055565b600060606013600301548310156107ed5750506040805180820190915260098152681b5a5b905b5bdd5b9d60ba1b6020820152600090610a88565b60175460ff1680156108095750601c546001600160a01b031615155b1561094a57601c5460405163bf40fac160e01b81526020600482015260086024820152674944454e5449545960c01b60448201526000916001600160a01b03169063bf40fac1906064016020604051808303816000875af1158015610872573d6000803e3d6000fd5b505050506040513d601f19601f82011682018060405250810190610896919061450c565b90506001600160a01b0381161561094857604051633af32abf60e01b81526001600160a01b038681166004830152821690633af32abf906024016020604051808303816000875af11580156108ef573d6000803e3d6000fd5b505050506040513d601f19601f820116820180604052508101906109139190614529565b61094857505060408051808201909152600f81526e1b9bdd081dda1a5d195b1a5cdd1959608a1b602082015260009150610a88565b505b60145483111561097c5750506040805180820190915260078152661d1e131a5b5a5d60ca1b6020820152600090610a88565b610989620151804261455c565b6018541015610997576109d9565b6013546019546109a8908590614573565b11156109d957505060408051808201909152600a81526919185a5b1e531a5b5a5d60b21b6020820152600090610a88565b6001600160a01b0384166000908152601a6020526040902060010154610a02620151804261455c565b6001600160a01b0386166000908152601a60205260409020541015610a28575082610a35565b610a328482614573565b90505b601554811115610a725750506040805180820190915260118152701858d8dbdd5b9d11185a5b1e531a5b5a5d607a1b602082015260009150610a88565b5050604080516020810190915260008152600191505b9250929050565b6060816001600160401b03811115610aa957610aa9613b82565b604051908082528060200260200182016040528015610adc57816020015b6060815260200190600190039081610ac75790505b50905060005b82811015610fb7576000848483818110610afe57610afe6144f6565b9050602002810190610b10919061458b565b610b19906145ab565b600087815260208181526040808320818501518452825290912054818301518051920191909120919250908114610b8c5760405162461bcd60e51b81526020600482015260126024820152710d2dcecc2d8d2c840c4d8dec6d640d0c2e6d60731b60448201526064015b60405180910390fd5b6000610b9e6107268460200151611d35565b90506000610bb882600581518110610743576107436144f6565b8451519091506001600160401b03811115610bd557610bd5613b82565b604051908082528060200260200182016040528015610c0857816020015b6060815260200190600190039081610bf35790505b50868681518110610c1b57610c1b6144f6565b602002602001018190525060005b845151811015610f9f5760008a8587600001518481518110610c4d57610c4d6144f6565b602002602001015160a00151604051602001610c6b9392919061473a565b60408051601f1981840301815291815281516020928301206000818152600290935291205490915060ff16151560011415610d0957604051806040016040528060148152602001731c9958d95a5c1d08185b1c9958591e481d5cd95960621b815250888881518110610cdf57610cdf6144f6565b60200260200101518381518110610cf857610cf86144f6565b602002602001018190525050610f8d565b6000818152600260205260409020805460ff191660011790558551805183908110610d3657610d366144f6565b6020026020010151606001516000148015610d7057508551805183908110610d6057610d606144f6565b6020026020010151608001516000145b610dae5760405162461bcd60e51b815260206004820152600f60248201526e0dcdee840e6e8c2e4e840d2dcc8caf608b1b6044820152606401610b83565b8286600001518381518110610dc557610dc56144f6565b60200260200101516000015114610e155760405162461bcd60e51b81526020600482015260146024820152730e4cac6cad2e0e8a4dedee840dad2e6dac2e8c6d60631b6044820152606401610b83565b610e3b86600001518381518110610e2e57610e2e6144f6565b6020026020010151611f1f565b610e7e5760405162461bcd60e51b815260206004820152601460248201527372656365697074206e6f7420696e20626c6f636b60601b6044820152606401610b83565b604086015160011115610ec55760405162461bcd60e51b815260206004820152600f60248201526e1c9958d95a5c1d081d1bdbc81bdb19608a1b6044820152606401610b83565b6000610eff8c8860400151610efa8a600001518781518110610ee957610ee96144f6565b602002602001015160a001516120e0565b6122c8565b905080610f32576040518060400160405280600e81526020016d195e1958dd5d194819985a5b195960921b815250610f54565b60405180604001604052806008815260200167195e1958dd5d195960c21b8152505b898981518110610f6657610f666144f6565b60200260200101518481518110610f7f57610f7f6144f6565b602002602001018190525050505b80610f9781614759565b915050610c29565b50505050508080610faf90614759565b915050610ae2565b509392505050565b60005b8151811015611285576000828281518110610fdf57610fdf6144f6565b602090810291909101810151808201518051908301208151608083015160608401516040519496509294607a8314946000946110219488949093909201614774565b60405160208183030381529060405280519060200120905060008460400151516001600160401b0381111561105857611058613b82565b604051908082528060200260200182016040528015611081578160200160208202803683370190505b50905060005b85604001515181101561117457600080876040015183815181106110ad576110ad6144f6565b60200260200101518060200190518101906110c891906147c3565b9150915061112d611126866040517f19457468657265756d205369676e6564204d6573736167653a0a3332000000006020820152603c8101829052600090605c01604051602081830303815290604052805190602001209050919050565b838361247b565b84848151811061113f5761113f6144f6565b60200260200101906001600160a01b031690816001600160a01b0316815250505050808061116c90614759565b915050611087565b5061117e81611522565b6111bc5760405162461bcd60e51b815260206004820152600f60248201526e696e76616c6964207369676e65727360881b6044820152606401610b83565b60006111cb8660200151610704565b90506001816020015110156112125760405162461bcd60e51b815260206004820152600d60248201526c189b1bd8dac81d1bdbc81bdb19609a1b6044820152606401610b83565b8551600090815260208181526040808320848301518452909152902085905583801561124357506000866080015151115b80156112555750600454816020015110155b1561126c5761126c86608001518760600151612498565b505050505050808061127d90614759565b915050610fc2565b5050565b611291611ec5565b61129b6000612504565b565b6112a5611ec5565b8051601055602081015160115560400151601255565b6112c3611ec5565b6112cc81612556565b50565b6112d7611ec5565b806001600160a01b031663a9059cbb6112f86005546001600160a01b031690565b6040516370a0823160e01b81523060048201526001600160a01b038516906370a0823190602401602060405180830381865afa15801561133c573d6000803e3d6000fd5b505050506040513d601f19601f8201168201806040525081019061136091906147e7565b6040516001600160e01b031960e085901b1681526001600160a01b03909216600483015260248201526044016020604051808303816000875af11580156113ab573d6000803e3d6000fd5b505050506040513d601f19601f820116820180604052508101906113cf9190614529565b6114065760405162461bcd60e51b81526020600482015260086024820152673a3930b739b332b960c11b6044820152606401610b83565b50600f805460ff19166001179055565b600d546000906001600160a01b0316331461145f5760405162461bcd60e51b81526020600482015260096024820152683737ba103a37b5b2b760b91b6044820152606401610b83565b60008061146e84860186614800565b9150915061147e878288856125ec565b3381611489601e5490565b84893042601d60008154809291906114a090614759565b919050556040516020016114bb989796959493929190614830565b60408051808303601f190181528282528051602091820120858452908301899052600183830152426060840152905190916001600160a01b0384811692908b1691600080516020614b57833981519152919081900360800190a45060019695505050505050565b60008080805b84518110156116ed57600061153e60018361487c565b90505b600081126115dc5785818151811061155b5761155b6144f6565b60200260200101516001600160a01b031686838151811061157e5761157e6144f6565b60200260200101516001600160a01b031614156115ca5760405162461bcd60e51b815260206004820152600a602482015269323ab81039b4b3b732b960b11b6044820152606401610b83565b806115d4816148bb565b915050611541565b50600454600160008784815181106115f6576115f66144f6565b60200260200101516001600160a01b03166001600160a01b03168152602001908152602001600020541415611633578261162f81614759565b9350505b6006546007600087848151811061164c5761164c6144f6565b60200260200101516001600160a01b03166001600160a01b03168152602001908152602001600020541415611689578161168581614759565b9250505b60085463ffffffff16821480156116cb57506008546003546064916116bd9164010000000090910463ffffffff16906148d9565b6116c7919061490e565b8310155b156116db57506001949350505050565b806116e581614759565b915050611528565b506000949350505050565b611700611ec5565b60005b8381101561177b5782828281811061171d5761171d6144f6565b90506020020135600e600087878581811061173a5761173a6144f6565b905060200201602081019061174f9190613e03565b6001600160a01b031681526020810191909152604001600020558061177381614759565b915050611703565b5050505050565b61178a611ec5565b6008805463ffffffff9092166401000000000267ffffffff0000000019909216919091179055565b600086815260208181526040808320888452909152908190205490516117db9084908490614922565b604051809103902081146118315760405162461bcd60e51b815260206004820152601760248201527f696e76616c6964206368696c6420726c704865616465720000000000000000006044820152606401610b83565b600061187284848080601f01602080910402602001604051908101604052809392919081815260200183838082843760009201919091525061070492505050565b905060005b85811015611a58576000878783818110611893576118936144f6565b90506020028101906118a59190614932565b6040516118b3929190614922565b60405180910390209050808360000151146118fd5760405162461bcd60e51b815260206004820152600a6024820152691b9bdd081c185c995b9d60b21b6044820152606401610b83565b6000611960898985818110611914576119146144f6565b90506020028101906119269190614932565b8080601f01602080910402602001604051908101604052809392919081815260200183838082843760009201919091525061070492505050565b90506001816020015110156119a75760405162461bcd60e51b815260206004820152600d60248201526c189b1bd8dac81d1bdbc81bdb19609a1b6044820152606401610b83565b60008b81526020818152604080832084830151845290915290205415806119e7575060008b81526020818152604080832084830151845290915290205482145b611a265760405162461bcd60e51b815260206004820152601060248201526f185b1c9958591e481d995c9a599a595960821b6044820152606401610b83565b60008b815260208181526040808320848301518452909152902091909155915080611a5081614759565b915050611877565b505050505050505050565b611a6b611ec5565b601b80546001600160a01b0319166001600160a01b0392909216919091179055565b6000611a9c6040880188614978565b90501115611b3457604080516001808252818301909252600091816020015b611aed6040518060a0016040528060008152602001606081526020016060815260200160008152602001606081525090565b815260200190600190039081611abb579050509050611b0b876149c1565b81600081518110611b1e57611b1e6144f6565b6020026020010181905250611b3281610fbf565b505b8215611b4f57611b4f863586868661063f60208c018c614932565b611b5b86358383610a8f565b50505050505050565b611b70338483856125ec565b600d546040516323b872dd60e01b8152336004820152306024820152604481018390526001600160a01b03909116906323b872dd906064016020604051808303816000875af1158015611bc7573d6000803e3d6000fd5b505050506040513d601f19601f82011682018060405250810190611beb9190614529565b611c265760405162461bcd60e51b815260206004820152600c60248201526b7472616e7366657246726f6d60a01b6044820152606401610b83565b3383611c31601e5490565b84843042601d6000815480929190611c4890614759565b91905055604051602001611c63989796959493929190614830565b60408051808303601f190181528282528051602091820120858452908301849052600183830152426060840152905190916001600160a01b038616913391600080516020614b57833981519152919081900360800190a4505050565b611cc7611ec5565b6001600160a01b038116611d2c5760405162461bcd60e51b815260206004820152602660248201527f4f776e61626c653a206e6577206f776e657220697320746865207a65726f206160448201526564647265737360d01b6064820152608401610b83565b6112cc81612504565b60408051808201825260008082526020918201528151808301909252825182529182019181019190915290565b6060611d6d826127a7565b611d7657600080fd5b6000611d81836127e0565b90506000816001600160401b03811115611d9d57611d9d613b82565b604051908082528060200260200182016040528015611de257816020015b6040805180820190915260008082526020820152815260200190600190039081611dbb5790505b5090506000611df48560200151612863565b8560200151611e039190614573565b90506000805b84811015611e6c57611e1a836128de565b9150604051806040016040528083815260200184815250848281518110611e4357611e436144f6565b6020908102919091010152611e588284614573565b925080611e6481614759565b915050611e09565b509195945050505050565b805160009015801590611e8c57508151602110155b611e9557600080fd5b600080611ea184612987565b815191935091506020821015611ebd5760208290036101000a90045b949350505050565b6005546001600160a01b0316331461129b5760405162461bcd60e51b815260206004820181905260248201527f4f776e61626c653a2063616c6c6572206973206e6f7420746865206f776e65726044820152606401610b83565b6000808260400151836080015181518110611f3c57611f3c6144f6565b602002602001015190506000611f59611f5483611d35565b6129ce565b9050836060015160001415611fd25783518251602084012014611fcd5760405162461bcd60e51b815260206004820152602660248201527f7665726966795472696550726f6f6620726f6f74206e6f6465206861736820696044820152651b9d985b1a5960d21b6064820152608401610b83565b61208c565b60208251101561203f576000611fef611fea83612a3a565b611e77565b855190915081146120395760405162461bcd60e51b81526020600482015260146024820152733b32b934b33caa3934b2a83937b7b3101e10199960611b6044820152606401610b83565b5061208c565b8351825160208401201461208c5760405162461bcd60e51b81526020600482015260146024820152737665726966795472696550726f6f6620656c736560601b6044820152606401610b83565b600061209b82600001516127e0565b905080601114156120b8576120af85612a97565b95945050505050565b80600214156120cb576120af8286612bcf565b60a0850151516116ed57506001949350505050565b61210e6040518060800160405280600060ff1681526020016000815260200160608152602001606081525090565b8151600090607f60f81b9084908390612129576121296144f6565b01602001516001600160f81b03191611612141575060015b60006121506107268584612ea6565b905061216881600081518110610743576107436144f6565b60ff16835280516121869082906001908110610743576107436144f6565b602084015280516121b190829060029081106121a4576121a46144f6565b6020026020010151612ef2565b836040018190525060006121de826003815181106121d1576121d16144f6565b6020026020010151611d62565b905080516001600160401b038111156121f9576121f9613b82565b60405190808252806020026020018201604052801561225757816020015b612244604051806060016040528060006001600160a01b0316815260200160608152602001606081525090565b8152602001906001900390816122175790505b50606085015260005b81518110156122bf5761228b82828151811061227e5761227e6144f6565b6020026020010151612f6f565b856060015182815181106122a1576122a16144f6565b602002602001018190525080806122b790614759565b915050612260565b50505050919050565b6000816000015160ff166001146122e157506000612474565b6000805b8360600151518110156124705760008460600151828151811061230a5761230a6144f6565b6020026020010151905085600e600083600001516001600160a01b03166001600160a01b0316815260200190815260200160002054111561234b575061245e565b80516001600160a01b03166000908152600e6020526040902054158061239d5750600080516020614b578339815191528160200151600081518110612392576123926144f6565b602002602001015114155b156123a8575061245e565b600080600083604001518060200190518101906123c591906149cd565b9250925092506123d4601e5490565b83146123e3575050505061245e565b600195506124598460200151600181518110612401576124016144f6565b602002602001015160001c8560200151600281518110612423576124236144f6565b602002602001015160001c848d8d868a60200151600381518110612449576124496144f6565b602002602001015160001c6130be565b505050505b8061246881614759565b9150506122e5565b5090505b9392505050565b600080600061248b86868661330b565b9150915061247081613344565b60005b82518110156124fa5781600160008584815181106124bb576124bb6144f6565b60200260200101516001600160a01b03166001600160a01b031681526020019081526020016000208190555080806124f290614759565b91505061249b565b5060045551600355565b600580546001600160a01b038381166001600160a01b0319831681179093556040519116919082907f8be0079c531659141344cd1fd0a4f28419497f9722a3daafe3b4186f6b6457e090600090a35050565b6006805490600061256683614759565b919050555060005b81518110156125cf5760065460076000848481518110612590576125906144f6565b60200260200101516001600160a01b03166001600160a01b031681526020019081526020016000208190555080806125c790614759565b91505061256e565b50516008805463ffffffff191663ffffffff909216919091179055565b6001600160a01b0383166126335760405162461bcd60e51b815260206004820152600e60248201526d1a5b9d985b1a59081d185c99d95d60921b6044820152606401610b83565b6000811161267b5760405162461bcd60e51b81526020600482015260156024820152741a5b9d985b1a59081d185c99d95d10da185a5b9259605a1b6044820152606401610b83565b600f5460ff16156126b75760405162461bcd60e51b815260206004820152600660248201526518db1bdcd95960d21b6044820152606401610b83565b6126c4620151804261455c565b60185410156126d7574260185560006019555b6126e4620151804261455c565b6001600160a01b0385166000908152601a60205260409020541015612723576001600160a01b0384166000908152601a60205260408120428155600101555b60008061273086856107b2565b915091508181906127545760405162461bcd60e51b8152600401610b839190614a06565b50836018600101600082825461276a9190614573565b90915550506001600160a01b0386166000908152601a60205260408120600101805486929061279a908490614573565b9091555050505050505050565b80516000906127b857506000919050565b6020820151805160001a9060c08210156127d6575060009392505050565b5060019392505050565b80516000906127f157506000919050565b6000806128018460200151612863565b84602001516128109190614573565b90506000846000015185602001516128289190614573565b90505b8082101561285a5761283c826128de565b6128469083614573565b91508261285281614759565b93505061282b565b50909392505050565b8051600090811a608081101561287c5750600092915050565b60b8811080612897575060c08110801590612897575060f881105b156128a55750600192915050565b60c08110156128d2576128ba600160b8614a19565b6128c79060ff168261455c565b612474906001614573565b6128ba600160f8614a19565b80516000908190811a60808110156128f95760019150612980565b60b881101561291f5761290d60808261455c565b612918906001614573565b9150612980565b60c081101561294c5760b78103600185019450806020036101000a85510460018201810193505050612980565b60f88110156129605761290d60c08261455c565b60f78103600185019450806020036101000a855104600182018101935050505b5092915050565b60008060006129998460200151612863565b905060008185602001516129ad9190614573565b905060008286600001516129c1919061455c565b9196919550909350505050565b60408051608081018252600091810182815260608201839052815260208101919091526129fa826127a7565b612a0357600080fd5b6000612a128360200151612863565b8360200151612a219190614573565b6040805180820190915293845260208401525090919050565b6040805180820190915260008082526020820152612a57826134ff565b612a6057600080fd5b60208201516000612a70826128de565b9050612a7c8183614573565b60209485015260408051808201909152908152928301525090565b6000808260400151836080015181518110612ab457612ab46144f6565b60200260200101519050826020015151836060015110612b1d576000612af1612adf61072684611d35565b6010815181106121a4576121a46144f6565b90508360a001518051906020012081805190602001201415612b17575060019392505050565b50612bb3565b60008360200151846060015181518110612b3957612b396144f6565b016020015160f81c90506000612b65612b5461072685611d35565b83815181106121a4576121a46144f6565b90508051600014612bb0576020810151855260608501805160019190612b8c908390614573565b90525060808501805160019190612ba4908390614573565b9052506120af85611f1f565b50505b60a083015151612bc65750600192915050565b50600092915050565b600080612be3612bde85612a3a565b612ef2565b90506000612bf3612bde86612a3a565b602083015190915060fc1c6002811415612cb757600060018451612c17919061455c565b90506000612c29856001846000613523565b90506000612c4288602001518960600151856000613523565b905084805190602001208860a00151805190602001201415612caf57808051906020012082805190602001201415612c835760019650505050505050612ea0565b80516020820120612c9383613607565b805190602001201415612caf5760019650505050505050612ea0565b505050612e82565b8060031415612d6d576000612cd184600086516001613523565b602087015160608801518151929350600092612cfb929190612cf490829061455c565b6000613523565b905083805190602001208760a00151805190602001201415612d6657808051906020012082805190602001201415612d3b57600195505050505050612ea0565b80516020820120612d4b83613736565b805190602001201415612d6657600195505050505050612ea0565b5050612e82565b80612e3057600060018451612d82919061455c565b90506000612d94856001846000613523565b90506000612dad88602001518960600151856000613523565b9050808051906020012082805190602001201480612ddf575080516020820120612dd683613607565b80519060200120145b15612caf5760208501518852606088018051849190612dff908390614573565b90525060808801805160019190612e17908390614573565b905250612e2388611f1f565b9650505050505050612ea0565b8060011415612e4a5782516000612d948582846001613523565b60405162461bcd60e51b815260206004820152600d60248201526c24b73b30b634b210383937b7b360991b6044820152606401610b83565b60a085015151612e985760019350505050612ea0565b600093505050505b92915050565b604080518082019091526000808252602082015260208301612ec88382614573565b90506040518060400160405280848651612ee2919061455c565b8152602001919091529392505050565b8051606090612f0057600080fd5b600080612f0c84612987565b915091506000816001600160401b03811115612f2a57612f2a613b82565b6040519080825280601f01601f191660200182016040528015612f54576020820181803683370190505b50905060208101612f66848285613897565b50949350505050565b612f9c604051806060016040528060006001600160a01b0316815260200160608152602001606081525090565b6000612fa783611d62565b9050612fcc81600081518110612fbf57612fbf6144f6565b6020026020010151613917565b6001600160a01b031682528051600090612ff390839060019081106121d1576121d16144f6565b905080516001600160401b0381111561300e5761300e613b82565b604051908082528060200260200182016040528015613037578160200160208202803683370190505b50602084015260005b815181101561309a576000613060838381518110610743576107436144f6565b60001b9050808560200151838151811061307c5761307c6144f6565b6020908102919091010152508061309281614759565b915050613040565b506130b1826002815181106121a4576121a46144f6565b6040840152509092915050565b6000806130f5878580156130db5750336001600160a01b038b1614155b80156130f05750336001600160a01b038c1614155b613931565b909250905060006131068284614573565b6000858152600c60205260409020805460ff19166001179055905061312a896139ac565b600d546001600160a01b031663a9059cbb8a613146848c61455c565b6040516001600160e01b031960e085901b1681526001600160a01b03909216600483015260248201526044016020604051808303816000875af1158015613191573d6000803e3d6000fd5b505050506040513d601f19601f820116820180604052508101906131b59190614529565b6131ec5760405162461bcd60e51b81526020600482015260086024820152673a3930b739b332b960c11b6044820152606401610b83565b811561329e57600d5460405163a9059cbb60e01b8152336004820152602481018490526001600160a01b039091169063a9059cbb906044016020604051808303816000875af1158015613243573d6000803e3d6000fd5b505050506040513d601f19601f820116820180604052508101906132679190614529565b61329e5760405162461bcd60e51b815260206004820152600860248201526772656c617946656560c01b6044820152606401610b83565b60408051338152602081018a9052908101829052606081018890526080810187905284906001600160a01b03808c1691908d16907f8f5fb725904dff7292d34df72f578088cca0aa71767d7d82fc40b1b786ef96a79060a00160405180910390a450505050505050505050565b6000806001600160ff1b0383168161332860ff86901c601b614573565b905061333687828885613a95565b935093505050935093915050565b600081600481111561335857613358614a3c565b14156133615750565b600181600481111561337557613375614a3c565b14156133c35760405162461bcd60e51b815260206004820152601860248201527f45434453413a20696e76616c6964207369676e617475726500000000000000006044820152606401610b83565b60028160048111156133d7576133d7614a3c565b14156134255760405162461bcd60e51b815260206004820152601f60248201527f45434453413a20696e76616c6964207369676e6174757265206c656e677468006044820152606401610b83565b600381600481111561343957613439614a3c565b14156134925760405162461bcd60e51b815260206004820152602260248201527f45434453413a20696e76616c6964207369676e6174757265202773272076616c604482015261756560f01b6064820152608401610b83565b60048160048111156134a6576134a6614a3c565b14156112cc5760405162461bcd60e51b815260206004820152602260248201527f45434453413a20696e76616c6964207369676e6174757265202776272076616c604482015261756560f01b6064820152608401610b83565b8051805160208201516000929161351591614573565b836020015110915050919050565b6060600061353260208561490e565b90506000613541602086614a52565b61354c9060086148d9565b6135589061010061455c565b9050602060008080886001600160401b0381111561357857613578613b82565b6040519080825280601f01601f1916602001820160405280156135a2576020820181803683370190505b5090508a8a01915087156135cc57818401516001600160fc1b031681850152602090930192600192505b825b868110156135ec5782850151828601526020909401936001016135ce565b5083820151851c851b84820152505050505050949350505050565b606060008251600261361991906148d9565b90506000816001600160401b0381111561363557613635613b82565b6040519080825280601f01601f19166020018201604052801561365f576020820181803683370190505b50905060005b8451811015610fb7576000806136a9878481518110613686576136866144f6565b01602001516001600160f81b031916600481901c916001600160fc1b0390911690565b909250905081846136bb8560026148d9565b815181106136cb576136cb6144f6565b60200101906001600160f81b031916908160001a90535080846136ef8560026148d9565b6136fa906001614573565b8151811061370a5761370a6144f6565b60200101906001600160f81b031916908160001a9053505050808061372e90614759565b915050613665565b6060600060018351600261374a91906148d9565b613754919061455c565b90506000816001600160401b0381111561377057613770613b82565b6040519080825280601f01601f19166020018201604052801561379a576020820181803683370190505b509050836000815181106137b0576137b06144f6565b602001015160f81c60f81b816000815181106137ce576137ce6144f6565b60200101906001600160f81b031916908160001a90535060015b8451811015610fb757600080613809878481518110613686576136866144f6565b90925090508184600161381d8660026148d9565b613827919061455c565b81518110613837576138376144f6565b60200101906001600160f81b031916908160001a905350808461385b8560026148d9565b8151811061386b5761386b6144f6565b60200101906001600160f81b031916908160001a9053505050808061388f90614759565b9150506137e8565b806138a157505050565b602081106138d957825182526138b8602084614573565b92506138c5602083614573565b91506138d260208261455c565b90506138a1565b801561391257600060016138ee83602061455c565b6138fa90610100614b4a565b613904919061455c565b845184518216911916178352505b505050565b805160009060151461392857600080fd5b612ea082611e77565b60008060006127106010600201548661394a91906148d9565b613954919061490e565b6010549091508110156139695760105461396b565b805b60115490915081111561398057601154613982565b805b905061398f60028261490e565b9050808461399e5760006139a0565b815b92509250509250929050565b601b546001600160a01b031615801590613a315750601b546040516374bf77e960e11b81526001600160a01b0383811660048301529091169063e97eefd2906024016020604051808303816000875af1158015613a0d573d6000803e3d6000fd5b505050506040513d601f19601f82011682018060405250810190613a319190614529565b156112cc57601b546040516306ee3b9f60e31b81526001600160a01b03838116600483015290911690633771dcf890602401600060405180830381600087803b158015613a7d57600080fd5b505af1925050508015613a8e575060015b6112cc5750565b6000807f7fffffffffffffffffffffffffffffff5d576e7357a4501ddfe92f46681b20a0831115613acc5750600090506003613b79565b8460ff16601b14158015613ae457508460ff16601c14155b15613af55750600090506004613b79565b6040805160008082526020820180845289905260ff881692820192909252606081018690526080810185905260019060a0016020604051602081039080840390855afa158015613b49573d6000803e3d6000fd5b5050604051601f1901519150506001600160a01b038116613b7257600060019250925050613b79565b9150600090505b94509492505050565b634e487b7160e01b600052604160045260246000fd5b60405160a081016001600160401b0381118282101715613bba57613bba613b82565b60405290565b604051606081016001600160401b0381118282101715613bba57613bba613b82565b60405160c081016001600160401b0381118282101715613bba57613bba613b82565b604051601f8201601f191681016001600160401b0381118282101715613c2c57613c2c613b82565b604052919050565b600082601f830112613c4557600080fd5b81356001600160401b03811115613c5e57613c5e613b82565b613c71601f8201601f1916602001613c04565b818152846020838601011115613c8657600080fd5b816020850160208301376000918101602001919091529392505050565b600060208284031215613cb557600080fd5b81356001600160401b03811115613ccb57600080fd5b611ebd84828501613c34565b80151581146112cc57600080fd5b600060a08284031215613cf757600080fd5b60405160a081018181106001600160401b0382111715613d1957613d19613b82565b8060405250823581526020830135602082015260408301356040820152606083013560608201526080830135613d4e81613cd7565b60808201529392505050565b6001600160a01b03811681146112cc57600080fd5b60008060408385031215613d8257600080fd5b8235613d8d81613d5a565b946020939093013593505050565b6000815180845260005b81811015613dc157602081850181015186830182015201613da5565b81811115613dd3576000602083870101525b50601f01601f19169290920160200192915050565b8215158152604060208201526000611ebd6040830184613d9b565b600060208284031215613e1557600080fd5b813561247481613d5a565b60008083601f840112613e3257600080fd5b5081356001600160401b03811115613e4957600080fd5b6020830191508360208260051b8501011115610a8857600080fd5b600080600060408486031215613e7957600080fd5b8335925060208401356001600160401b03811115613e9657600080fd5b613ea286828701613e20565b9497909650939450505050565b6000602080830181845280855180835260408601915060059250604081841b8701018488016000805b84811015613f4557898403603f19018652825180518086529089019089860190808a1b87018b01855b82811015613f2f57601f19898303018452613f1d828651613d9b565b948d0194938d01939150600101613f01565b50988b0198965050509288019250600101613ed8565b50919998505050505050505050565b600060208284031215613f6657600080fd5b5035919050565b60006001600160401b03821115613f8657613f86613b82565b5060051b60200190565b600082601f830112613fa157600080fd5b81356020613fb6613fb183613f6d565b613c04565b82815260059290921b84018101918181019086841115613fd557600080fd5b8286015b848110156140145780356001600160401b03811115613ff85760008081fd5b6140068986838b0101613c34565b845250918301918301613fd9565b509695505050505050565b600082601f83011261403057600080fd5b81356020614040613fb183613f6d565b82815260059290921b8401810191818101908684111561405f57600080fd5b8286015b8481101561401457803561407681613d5a565b8352918301918301614063565b600060a0828403121561409557600080fd5b61409d613b98565b90508135815260208201356001600160401b03808211156140bd57600080fd5b6140c985838601613c34565b602084015260408401359150808211156140e257600080fd5b6140ee85838601613f90565b604084015260608401356060840152608084013591508082111561411157600080fd5b5061411e8482850161401f565b60808301525092915050565b6000602080838503121561413d57600080fd5b82356001600160401b038082111561415457600080fd5b818501915085601f83011261416857600080fd5b8135614176613fb182613f6d565b81815260059190911b8301840190848101908883111561419557600080fd5b8585015b838110156141cd578035858111156141b15760008081fd5b6141bf8b89838a0101614083565b845250918601918601614199565b5098975050505050505050565b6000606082840312156141ec57600080fd5b604051606081018181106001600160401b038211171561420e5761420e613b82565b80604052508235815260208301356020820152604083013560408201528091505092915050565b60006020828403121561424757600080fd5b81356001600160401b0381111561425d57600080fd5b611ebd8482850161401f565b60008083601f84011261427b57600080fd5b5081356001600160401b0381111561429257600080fd5b602083019150836020828501011115610a8857600080fd5b600080600080606085870312156142c057600080fd5b84356142cb81613d5a565b93506020850135925060408501356001600160401b038111156142ed57600080fd5b6142f987828801614269565b95989497509550505050565b6000806000806040858703121561431b57600080fd5b84356001600160401b038082111561433257600080fd5b61433e88838901613e20565b9096509450602087013591508082111561435757600080fd5b506142f987828801613e20565b60006020828403121561437657600080fd5b813563ffffffff8116811461247457600080fd5b6000806040838503121561439d57600080fd5b50508035926020909101359150565b600080600080600080608087890312156143c557600080fd5b863595506020870135945060408701356001600160401b03808211156143ea57600080fd5b6143f68a838b01613e20565b9096509450606089013591508082111561440f57600080fd5b5061441c89828a01614269565b979a9699509497509295939492505050565b6000806000806000806080878903121561444757600080fd5b86356001600160401b038082111561445e57600080fd5b9088019060a0828b03121561447257600080fd5b909650602088013595506040880135908082111561448f57600080fd5b61449b8a838b01613e20565b909650945060608901359150808211156144b457600080fd5b5061441c89828a01613e20565b6000806000606084860312156144d657600080fd5b83356144e181613d5a565b95602085013595506040909401359392505050565b634e487b7160e01b600052603260045260246000fd5b60006020828403121561451e57600080fd5b815161247481613d5a565b60006020828403121561453b57600080fd5b815161247481613cd7565b634e487b7160e01b600052601160045260246000fd5b60008282101561456e5761456e614546565b500390565b6000821982111561458657614586614546565b500190565b60008235605e198336030181126145a157600080fd5b9190910192915050565b600060608083360312156145be57600080fd5b6145c6613bc0565b83356001600160401b03808211156145dd57600080fd5b9085019036601f8301126145f057600080fd5b81356020614600613fb183613f6d565b82815260059290921b8401810191818101903684111561461f57600080fd5b8286015b848110156146fb5780358681111561463b5760008081fd5b870160c036829003601f19018113156146545760008081fd5b61465c613be2565b8683013581526040808401358a8111156146765760008081fd5b614684368a83880101613c34565b89840152508c8401358a81111561469b5760008081fd5b6146a9368a83880101613f90565b8284015250506080808401358d83015260a080850135828401528385013593508a8411156146d957600091508182fd5b6146e7368a86880101613c34565b908301525085525050918301918301614623565b508652508781013595508286111561471257600080fd5b61471e36878a01613c34565b8186015250505050604084013560408201528092505050919050565b8381528260208201526060604082015260006120af6060830184613d9b565b600060001982141561476d5761476d614546565b5060010190565b84815260006020858184015260408301855182870160005b828110156147b15781516001600160a01b03168452928401929084019060010161478c565b50505093845290920195945050505050565b600080604083850312156147d657600080fd5b505080516020909101519092909150565b6000602082840312156147f957600080fd5b5051919050565b6000806040838503121561481357600080fd5b82359150602083013561482581613d5a565b809150509250929050565b6001600160a01b039889168152968816602088015260408701959095526060860193909352608085019190915290931660a083015260c082019290925260e08101919091526101000190565b60008083128015600160ff1b85018412161561489a5761489a614546565b6001600160ff1b03840183138116156148b5576148b5614546565b50500390565b6000600160ff1b8214156148d1576148d1614546565b506000190190565b60008160001904831182151516156148f3576148f3614546565b500290565b634e487b7160e01b600052601260045260246000fd5b60008261491d5761491d6148f8565b500490565b8183823760009101908152919050565b6000808335601e1984360301811261494957600080fd5b8301803591506001600160401b0382111561496357600080fd5b602001915036819003821315610a8857600080fd5b6000808335601e1984360301811261498f57600080fd5b8301803591506001600160401b038211156149a957600080fd5b6020019150600581901b3603821315610a8857600080fd5b6000612ea03683614083565b6000806000606084860312156149e257600080fd5b835192506020840151915060408401516149fb81613cd7565b809150509250925092565b6020815260006124746020830184613d9b565b600060ff821660ff841680821015614a3357614a33614546565b90039392505050565b634e487b7160e01b600052602160045260246000fd5b600082614a6157614a616148f8565b500690565b600181815b80851115614aa1578160001904821115614a8757614a87614546565b80851615614a9457918102915b93841c9390800290614a6b565b509250929050565b600082614ab857506001612ea0565b81614ac557506000612ea0565b8160018114614adb5760028114614ae557614b01565b6001915050612ea0565b60ff841115614af657614af6614546565b50506001821b612ea0565b5060208310610133831016604e8410600b8410161715614b24575081810a612ea0565b614b2e8383614a66565b8060001904821115614b4257614b42614546565b029392505050565b60006124748383614aa956fe4246d22454f5bd543c70e6ffcca20eed2dcf09d3beef6d39e415385538b02d0aa26469706673582212205003db9a26b3b613059c9d3c50d771565e1431a69de70113028d94a3526c30cd64736f6c634300080a0033",
  "linkReferences": {},
  "deployedLinkReferences": {}
}