{
  "_format": "hh-sol-artifact-1",
  "contractName": "TokenBridgeTest",
  "sourceName": "contracts/test/TokenBridgeTest.sol",
  "abi": [
    {
      "inputs": [
        {
          "internalType": "address[]",
          "name": "_validators",
          "type": "address[]"
        },
        {
          "internalType": "uint256",
          "name": "_cycleEnd",
          "type": "uint256"
        },
        {
          "internalType": "address[]",
          "name": "_requiredValidators",
          "type": "address[]"
        },
        {
          "internalType": "uint32",
          "name": "_consensusRatio",
          "type": "uint32"
        },
        {
          "internalType": "address",
          "name": "_bridgedToken",
          "type": "address"
        },
        {
          "components": [
            {
              "internalType": "uint256",
              "name": "minFee",
              "type": "uint256"
            },
            {
              "internalType": "uint256",
              "name": "maxFee",
              "type": "uint256"
            },
            {
              "internalType": "uint256",
              "name": "fee",
              "type": "uint256"
            }
          ],
          "internalType": "struct TokenBridge.BridgeFees",
          "name": "_fees",
          "type": "tuple"
        },
        {
          "components": [
            {
              "internalType": "uint256",
              "name": "dailyLimit",
              "type": "uint256"
            },
            {
              "internalType": "uint256",
              "name": "txLimit",
              "type": "uint256"
            },
            {
              "internalType": "uint256",
              "name": "accountDailyLimit",
              "type": "uint256"
            },
            {
              "internalType": "uint256",
              "name": "minAmount",
              "type": "uint256"
            },
            {
              "internalType": "bool",
              "name": "onlyWhitelisted",
              "type": "bool"
            }
          ],
          "internalType": "struct TokenBridge.BridgeLimits",
          "name": "_limits",
          "type": "tuple"
        },
        {
          "internalType": "contract IFaucet",
          "name": "_faucet",
          "type": "address"
        },
        {
          "internalType": "contract INameService",
          "name": "_nameService",
          "type": "address"
        },
        {
          "internalType": "uint256",
          "name": "_chainIdOverride",
          "type": "uint256"
        }
      ],
      "stateMutability": "nonpayable",
      "type": "constructor"
    },
    {
      "anonymous": false,
      "inputs": [
        {
          "indexed": true,
          "internalType": "address",
          "name": "from",
          "type": "address"
        },
        {
          "indexed": true,
          "internalType": "address",
          "name": "to",
          "type": "address"
        },
        {
          "indexed": false,
          "internalType": "uint256",
          "name": "targetChainId",
          "type": "uint256"
        },
        {
          "indexed": false,
          "internalType": "uint256",
          "name": "amount",
          "type": "uint256"
        },
        {
          "indexed": false,
          "internalType": "bool",
          "name": "withRelay",
          "type": "bool"
        },
        {
          "indexed": false,
          "internalType": "uint256",
          "name": "timestamp",
          "type": "uint256"
        },
        {
          "indexed": true,
          "internalType": "uint256",
          "name": "id",
          "type": "uint256"
        }
      ],
      "name": "BridgeRequest",
      "type": "event"
    },
    {
      "anonymous": false,
      "inputs": [
        {
          "indexed": true,
          "internalType": "address",
          "name": "from",
          "type": "address"
        },
        {
          "indexed": true,
          "internalType": "address",
          "name": "to",
          "type": "address"
        },
        {
          "indexed": false,
          "internalType": "address",
          "name": "relayer",
          "type": "address"
        },
        {
          "indexed": false,
          "internalType": "uint256",
          "name": "amount",
          "type": "uint256"
        },
        {
          "indexed": false,
          "internalType": "uint256",
          "name": "fee",
          "type": "uint256"
        },
        {
          "indexed": false,
          "internalType": "uint256",
          "name": "sourceChainId",
          "type": "uint256"
        },
        {
          "indexed": false,
          "internalType": "uint256",
          "name": "sourceBlockNumber",
          "type": "uint256"
        },
        {
          "indexed": true,
          "internalType": "uint256",
          "name": "id",
          "type": "uint256"
        }
      ],
      "name": "ExecutedTransfer",
      "type": "event"
    },
    {
      "anonymous": false,
      "inputs": [
        {
          "indexed": true,
          "internalType": "address",
          "name": "previousOwner",
          "type": "address"
        },
        {
          "indexed": true,
          "internalType": "address",
          "name": "newOwner",
          "type": "address"
        }
      ],
      "name": "OwnershipTransferred",
      "type": "event"
    },
    {
      "inputs": [],
      "name": "BRIDGE_TOPIC",
      "outputs": [
        {
          "internalType": "bytes32",
          "name": "",
          "type": "bytes32"
        }
      ],
      "stateMutability": "view",
      "type": "function"
    },
    {
      "inputs": [
        {
          "internalType": "address",
          "name": "",
          "type": "address"
        }
      ],
      "name": "accountsDailyLimit",
      "outputs": [
        {
          "internalType": "uint256",
          "name": "lastTransferReset",
          "type": "uint256"
        },
        {
          "internalType": "uint256",
          "name": "bridged24Hours",
          "type": "uint256"
        }
      ],
      "stateMutability": "view",
      "type": "function"
    },
    {
      "inputs": [],
      "name": "bridgeDailyLimit",
      "outputs": [
        {
          "internalType": "uint256",
          "name": "lastTransferReset",
          "type": "uint256"
        },
        {
          "internalType": "uint256",
          "name": "bridged24Hours",
          "type": "uint256"
        }
      ],
      "stateMutability": "view",
      "type": "function"
    },
    {
      "inputs": [],
      "name": "bridgeFees",
      "outputs": [
        {
          "internalType": "uint256",
          "name": "minFee",
          "type": "uint256"
        },
        {
          "internalType": "uint256",
          "name": "maxFee",
          "type": "uint256"
        },
        {
          "internalType": "uint256",
          "name": "fee",
          "type": "uint256"
        }
      ],
      "stateMutability": "view",
      "type": "function"
    },
    {
      "inputs": [],
      "name": "bridgeLimits",
      "outputs": [
        {
          "internalType": "uint256",
          "name": "dailyLimit",
          "type": "uint256"
        },
        {
          "internalType": "uint256",
          "name": "txLimit",
          "type": "uint256"
        },
        {
          "internalType": "uint256",
          "name": "accountDailyLimit",
          "type": "uint256"
        },
        {
          "internalType": "uint256",
          "name": "minAmount",
          "type": "uint256"
        },
        {
          "internalType": "bool",
          "name": "onlyWhitelisted",
          "type": "bool"
        }
      ],
      "stateMutability": "view",
      "type": "function"
    },
    {
      "inputs": [
        {
          "internalType": "address",
          "name": "target",
          "type": "address"
        },
        {
          "internalType": "uint256",
          "name": "targetChainId",
          "type": "uint256"
        },
        {
          "internalType": "uint256",
          "name": "amount",
          "type": "uint256"
        }
      ],
      "name": "bridgeTo",
      "outputs": [],
      "stateMutability": "nonpayable",
      "type": "function"
    },
    {
      "inputs": [],
      "name": "bridgedToken",
      "outputs": [
        {
          "internalType": "address",
          "name": "",
          "type": "address"
        }
      ],
      "stateMutability": "view",
      "type": "function"
    },
    {
      "inputs": [
        {
          "internalType": "address",
          "name": "from",
          "type": "address"
        },
        {
          "internalType": "uint256",
          "name": "amount",
          "type": "uint256"
        }
      ],
      "name": "canBridge",
      "outputs": [
        {
          "internalType": "bool",
          "name": "isWithinLimit",
          "type": "bool"
        },
        {
          "internalType": "string",
          "name": "error",
          "type": "string"
        }
      ],
      "stateMutability": "nonpayable",
      "type": "function"
    },
    {
      "inputs": [
        {
          "internalType": "uint256",
          "name": "",
          "type": "uint256"
        }
      ],
      "name": "chainIdToTotalBridgeFees",
      "outputs": [
        {
          "internalType": "uint256",
          "name": "",
          "type": "uint256"
        }
      ],
      "stateMutability": "view",
      "type": "function"
    },
    {
      "inputs": [
        {
          "internalType": "uint256",
          "name": "",
          "type": "uint256"
        }
      ],
      "name": "chainIdToTotalBridged",
      "outputs": [
        {
          "internalType": "uint256",
          "name": "",
          "type": "uint256"
        }
      ],
      "stateMutability": "view",
      "type": "function"
    },
    {
      "inputs": [
        {
          "internalType": "uint256",
          "name": "",
          "type": "uint256"
        }
      ],
      "name": "chainIdToTotalRelayFees",
      "outputs": [
        {
          "internalType": "uint256",
          "name": "",
          "type": "uint256"
        }
      ],
      "stateMutability": "view",
      "type": "function"
    },
    {
      "inputs": [
        {
          "internalType": "uint256",
          "name": "",
          "type": "uint256"
        }
      ],
      "name": "chainStartBlock",
      "outputs": [
        {
          "internalType": "uint256",
          "name": "bridgeStartBlock",
          "type": "uint256"
        }
      ],
      "stateMutability": "nonpayable",
      "type": "function"
    },
    {
      "inputs": [
        {
          "internalType": "uint256",
          "name": "",
          "type": "uint256"
        },
        {
          "internalType": "uint256",
          "name": "",
          "type": "uint256"
        }
      ],
      "name": "chainVerifiedBlocks",
      "outputs": [
        {
          "internalType": "bytes32",
          "name": "",
          "type": "bytes32"
        }
      ],
      "stateMutability": "view",
      "type": "function"
    },
    {
      "inputs": [
        {
          "internalType": "address",
          "name": "token",
          "type": "address"
        }
      ],
      "name": "closeBridge",
      "outputs": [],
      "stateMutability": "nonpayable",
      "type": "function"
    },
    {
      "inputs": [],
      "name": "consensusRatio",
      "outputs": [
        {
          "internalType": "uint32",
          "name": "",
          "type": "uint32"
        }
      ],
      "stateMutability": "view",
      "type": "function"
    },
    {
      "inputs": [],
      "name": "currentId",
      "outputs": [
        {
          "internalType": "uint256",
          "name": "",
          "type": "uint256"
        }
      ],
      "stateMutability": "view",
      "type": "function"
    },
    {
      "inputs": [
        {
          "internalType": "address",
          "name": "",
          "type": "address"
        }
      ],
      "name": "currentValidators",
      "outputs": [
        {
          "internalType": "uint256",
          "name": "",
          "type": "uint256"
        }
      ],
      "stateMutability": "view",
      "type": "function"
    },
    {
      "inputs": [
        {
          "internalType": "uint256",
          "name": "chainId",
          "type": "uint256"
        },
        {
          "components": [
            {
              "components": [
                {
                  "internalType": "bytes32",
                  "name": "expectedRoot",
                  "type": "bytes32"
                },
                {
                  "internalType": "bytes",
                  "name": "key",
                  "type": "bytes"
                },
                {
                  "internalType": "bytes[]",
                  "name": "proof",
                  "type": "bytes[]"
                },
                {
                  "internalType": "uint256",
                  "name": "keyIndex",
                  "type": "uint256"
                },
                {
                  "internalType": "uint256",
                  "name": "proofIndex",
                  "type": "uint256"
                },
                {
                  "internalType": "bytes",
                  "name": "expectedValue",
                  "type": "bytes"
                }
              ],
              "internalType": "struct MPT.MerkleProof[]",
              "name": "receiptProofs",
              "type": "tuple[]"
            },
            {
              "internalType": "bytes",
              "name": "blockHeaderRlp",
              "type": "bytes"
            },
            {
              "internalType": "uint256",
              "name": "blockNumber",
              "type": "uint256"
            }
          ],
          "internalType": "struct BridgeCore.BlockReceiptProofs[]",
          "name": "blocks",
          "type": "tuple[]"
        }
      ],
      "name": "executeReceipts",
      "outputs": [],
      "stateMutability": "nonpayable",
      "type": "function"
    },
    {
      "inputs": [],
      "name": "faucet",
      "outputs": [
        {
          "internalType": "contract IFaucet",
          "name": "",
          "type": "address"
        }
      ],
      "stateMutability": "view",
      "type": "function"
    },
    {
      "inputs": [],
      "name": "isClosed",
      "outputs": [
        {
          "internalType": "bool",
          "name": "",
          "type": "bool"
        }
      ],
      "stateMutability": "view",
      "type": "function"
    },
    {
      "inputs": [
        {
          "internalType": "address[]",
          "name": "signers",
          "type": "address[]"
        }
      ],
      "name": "isValidConsensus",
      "outputs": [
        {
          "internalType": "bool",
          "name": "isValid",
          "type": "bool"
        }
      ],
      "stateMutability": "nonpayable",
      "type": "function"
    },
    {
      "inputs": [],
      "name": "nameService",
      "outputs": [
        {
          "internalType": "contract INameService",
          "name": "",
          "type": "address"
        }
      ],
      "stateMutability": "view",
      "type": "function"
    },
    {
      "inputs": [],
      "name": "numRequiredValidators",
      "outputs": [
        {
          "internalType": "uint32",
          "name": "",
          "type": "uint32"
        }
      ],
      "stateMutability": "view",
      "type": "function"
    },
    {
      "inputs": [],
      "name": "numValidators",
      "outputs": [
        {
          "internalType": "uint256",
          "name": "",
          "type": "uint256"
        }
      ],
      "stateMutability": "view",
      "type": "function"
    },
    {
      "inputs": [
        {
          "internalType": "address",
          "name": "from",
          "type": "address"
        },
        {
          "internalType": "uint256",
          "name": "amount",
          "type": "uint256"
        },
        {
          "internalType": "bytes",
          "name": "data",
          "type": "bytes"
        }
      ],
      "name": "onTokenTransfer",
      "outputs": [
        {
          "internalType": "bool",
          "name": "",
          "type": "bool"
        }
      ],
      "stateMutability": "nonpayable",
      "type": "function"
    },
    {
      "inputs": [],
      "name": "owner",
      "outputs": [
        {
          "internalType": "address",
          "name": "",
          "type": "address"
        }
      ],
      "stateMutability": "view",
      "type": "function"
    },
    {
      "inputs": [
        {
          "internalType": "bytes",
          "name": "rlpHeader",
          "type": "bytes"
        }
      ],
      "name": "parseRLPToHeader",
      "outputs": [
        {
          "components": [
            {
              "internalType": "bytes32",
              "name": "parentHash",
              "type": "bytes32"
            },
            {
              "internalType": "uint256",
              "name": "number",
              "type": "uint256"
            }
          ],
          "internalType": "struct BridgeCore.BlockHeader",
          "name": "header",
          "type": "tuple"
        }
      ],
      "stateMutability": "pure",
      "type": "function"
    },
    {
      "inputs": [],
      "name": "renounceOwnership",
      "outputs": [],
      "stateMutability": "nonpayable",
      "type": "function"
    },
    {
      "inputs": [
        {
          "internalType": "address",
          "name": "",
          "type": "address"
        }
      ],
      "name": "requiredValidators",
      "outputs": [
        {
          "internalType": "uint256",
          "name": "",
          "type": "uint256"
        }
      ],
      "stateMutability": "view",
      "type": "function"
    },
    {
      "inputs": [],
      "name": "requiredValidatorsSet",
      "outputs": [
        {
          "internalType": "uint256",
          "name": "",
          "type": "uint256"
        }
      ],
      "stateMutability": "view",
      "type": "function"
    },
    {
      "inputs": [
        {
          "components": [
            {
              "internalType": "uint256",
              "name": "minFee",
              "type": "uint256"
            },
            {
              "internalType": "uint256",
              "name": "maxFee",
              "type": "uint256"
            },
            {
              "internalType": "uint256",
              "name": "fee",
              "type": "uint256"
            }
          ],
          "internalType": "struct TokenBridge.BridgeFees",
          "name": "_fees",
          "type": "tuple"
        }
      ],
      "name": "setBridgeFees",
      "outputs": [],
      "stateMutability": "nonpayable",
      "type": "function"
    },
    {
      "inputs": [
        {
          "components": [
            {
              "internalType": "uint256",
              "name": "dailyLimit",
              "type": "uint256"
            },
            {
              "internalType": "uint256",
              "name": "txLimit",
              "type": "uint256"
            },
            {
              "internalType": "uint256",
              "name": "accountDailyLimit",
              "type": "uint256"
            },
            {
              "internalType": "uint256",
              "name": "minAmount",
              "type": "uint256"
            },
            {
              "internalType": "bool",
              "name": "onlyWhitelisted",
              "type": "bool"
            }
          ],
          "internalType": "struct TokenBridge.BridgeLimits",
          "name": "_limits",
          "type": "tuple"
        }
      ],
      "name": "setBridgeLimits",
      "outputs": [],
      "stateMutability": "nonpayable",
      "type": "function"
    },
    {
      "inputs": [
        {
          "internalType": "uint32",
          "name": "_consensusRatio",
          "type": "uint32"
        }
      ],
      "name": "setConsensusRatio",
      "outputs": [],
      "stateMutability": "nonpayable",
      "type": "function"
    },
    {
      "inputs": [
        {
          "internalType": "contract IFaucet",
          "name": "_faucet",
          "type": "address"
        }
      ],
      "name": "setFaucet",
      "outputs": [],
      "stateMutability": "nonpayable",
      "type": "function"
    },
    {
      "inputs": [
        {
          "internalType": "address[]",
          "name": "validators",
          "type": "address[]"
        }
      ],
      "name": "setRequiredValidators",
      "outputs": [],
      "stateMutability": "nonpayable",
      "type": "function"
    },
    {
      "inputs": [
        {
          "internalType": "address[]",
          "name": "bridges",
          "type": "address[]"
        },
        {
          "internalType": "uint256[]",
          "name": "blockstart",
          "type": "uint256[]"
        }
      ],
      "name": "setSourceBridges",
      "outputs": [],
      "stateMutability": "nonpayable",
      "type": "function"
    },
    {
      "inputs": [
        {
          "internalType": "address",
          "name": "",
          "type": "address"
        }
      ],
      "name": "sourceBridgeToBlockstart",
      "outputs": [
        {
          "internalType": "uint256",
          "name": "",
          "type": "uint256"
        }
      ],
      "stateMutability": "view",
      "type": "function"
    },
    {
      "inputs": [
        {
          "components": [
            {
              "internalType": "uint256",
              "name": "chainId",
              "type": "uint256"
            },
            {
              "internalType": "bytes",
              "name": "rlpHeader",
              "type": "bytes"
            },
            {
              "internalType": "bytes[]",
              "name": "signatures",
              "type": "bytes[]"
            },
            {
              "internalType": "uint256",
              "name": "cycleEnd",
              "type": "uint256"
            },
            {
              "internalType": "address[]",
              "name": "validators",
              "type": "address[]"
            }
          ],
          "internalType": "struct BridgeCore.SignedBlock[]",
          "name": "signedBlocks",
          "type": "tuple[]"
        }
      ],
      "name": "submitBlocks",
      "outputs": [],
      "stateMutability": "nonpayable",
      "type": "function"
    },
    {
      "inputs": [
        {
          "components": [
            {
              "internalType": "uint256",
              "name": "chainId",
              "type": "uint256"
            },
            {
              "internalType": "bytes",
              "name": "rlpHeader",
              "type": "bytes"
            },
            {
              "internalType": "bytes[]",
              "name": "signatures",
              "type": "bytes[]"
            },
            {
              "internalType": "uint256",
              "name": "cycleEnd",
              "type": "uint256"
            },
            {
              "internalType": "address[]",
              "name": "validators",
              "type": "address[]"
            }
          ],
          "internalType": "struct BridgeCore.SignedBlock",
          "name": "blockData",
          "type": "tuple"
        },
        {
          "internalType": "uint256",
          "name": "signedBlockNumber",
          "type": "uint256"
        },
        {
          "internalType": "bytes[]",
          "name": "parentRlpHeaders",
          "type": "bytes[]"
        },
        {
          "components": [
            {
              "components": [
                {
                  "internalType": "bytes32",
                  "name": "expectedRoot",
                  "type": "bytes32"
                },
                {
                  "internalType": "bytes",
                  "name": "key",
                  "type": "bytes"
                },
                {
                  "internalType": "bytes[]",
                  "name": "proof",
                  "type": "bytes[]"
                },
                {
                  "internalType": "uint256",
                  "name": "keyIndex",
                  "type": "uint256"
                },
                {
                  "internalType": "uint256",
                  "name": "proofIndex",
                  "type": "uint256"
                },
                {
                  "internalType": "bytes",
                  "name": "expectedValue",
                  "type": "bytes"
                }
              ],
              "internalType": "struct MPT.MerkleProof[]",
              "name": "receiptProofs",
              "type": "tuple[]"
            },
            {
              "internalType": "bytes",
              "name": "blockHeaderRlp",
              "type": "bytes"
            },
            {
              "internalType": "uint256",
              "name": "blockNumber",
              "type": "uint256"
            }
          ],
          "internalType": "struct BridgeCore.BlockReceiptProofs[]",
          "name": "txs",
          "type": "tuple[]"
        }
      ],
      "name": "submitChainBlockParentsAndTxs",
      "outputs": [],
      "stateMutability": "nonpayable",
      "type": "function"
    },
    {
      "inputs": [
        {
          "internalType": "address",
          "name": "newOwner",
          "type": "address"
        }
      ],
      "name": "transferOwnership",
      "outputs": [],
      "stateMutability": "nonpayable",
      "type": "function"
    },
    {
      "inputs": [
        {
          "internalType": "bytes32",
          "name": "",
          "type": "bytes32"
        }
      ],
      "name": "usedReceipts",
      "outputs": [
        {
          "internalType": "bool",
          "name": "",
          "type": "bool"
        }
      ],
      "stateMutability": "view",
      "type": "function"
    },
    {
      "inputs": [],
      "name": "validatorsCycleEnd",
      "outputs": [
        {
          "internalType": "uint256",
          "name": "",
          "type": "uint256"
        }
      ],
      "stateMutability": "view",
      "type": "function"
    },
    {
      "inputs": [
        {
          "internalType": "uint256",
          "name": "chainId",
          "type": "uint256"
        },
        {
          "internalType": "uint256",
          "name": "childBlockNumber",
          "type": "uint256"
        },
        {
          "internalType": "bytes[]",
          "name": "parentRlpHeaders",
          "type": "bytes[]"
        },
        {
          "internalType": "bytes",
          "name": "childRlpHeader",
          "type": "bytes"
        }
      ],
      "name": "verifyParentBlocks",
      "outputs": [],
      "stateMutability": "nonpayable",
      "type": "function"
    }
  ],
  "bytecode": "0x60806040523480156200001157600080fd5b506040516200500438038062005004833981016040819052620000349162000476565b898989898989898989888888886200004c336200012b565b6200005884846200017d565b6200006382620001f0565b6008805463ffffffff9092166401000000000263ffffffff60201b199092169190911790555050600c80546001600160a01b039788166001600160a01b0319918216179091558551600f556020808701516010556040968701516011558551601255850151601355948401516014555060608301516015556080909201516016805491151560ff19909216919091179055601a8054918516918416919091179055601b8054919093169116179055505050601d9190915550620005a998505050505050505050565b600580546001600160a01b038381166001600160a01b0319831681179093556040519116919082907f8be0079c531659141344cd1fd0a4f28419497f9722a3daafe3b4186f6b6457e090600090a35050565b60005b8251811015620001e6578160016000858481518110620001a457620001a462000569565b60200260200101516001600160a01b03166001600160a01b03168152602001908152602001600020819055508080620001dd906200057f565b91505062000180565b5060045551600355565b6006805490600062000202836200057f565b919050555060005b815181101562000272576006546007600084848151811062000230576200023062000569565b60200260200101516001600160a01b03166001600160a01b0316815260200190815260200160002081905550808062000269906200057f565b9150506200020a565b50516008805463ffffffff191663ffffffff909216919091179055565b634e487b7160e01b600052604160045260246000fd5b6001600160a01b0381168114620002bb57600080fd5b50565b8051620002cb81620002a5565b919050565b600082601f830112620002e257600080fd5b815160206001600160401b03808311156200030157620003016200028f565b8260051b604051601f19603f830116810181811084821117156200032957620003296200028f565b6040529384528581018301938381019250878511156200034857600080fd5b83870191505b84821015620003745781516200036481620002a5565b835291830191908301906200034e565b979650505050505050565b805163ffffffff81168114620002cb57600080fd5b600060608284031215620003a757600080fd5b604051606081016001600160401b0381118282101715620003cc57620003cc6200028f565b80604052508091508251815260208301516020820152604083015160408201525092915050565b600060a082840312156200040657600080fd5b60405160a081016001600160401b03811182821017156200042b576200042b6200028f565b806040525080915082518152602083015160208201526040830151604082015260608301516060820152608083015180151581146200046957600080fd5b6080919091015292915050565b6000806000806000806000806000806102008b8d0312156200049757600080fd5b8a516001600160401b0380821115620004af57600080fd5b620004bd8e838f01620002d0565b9b5060208d01519a5060408d0151915080821115620004db57600080fd5b50620004ea8d828e01620002d0565b985050620004fb60608c016200037f565b96506200050b60808c01620002be565b95506200051c8c60a08d0162000394565b94506200052e8c6101008d01620003f3565b93506200053f6101a08c01620002be565b9250620005506101c08c01620002be565b91506101e08b015190509295989b9194979a5092959850565b634e487b7160e01b600052603260045260246000fd5b6000600019821415620005a257634e487b7160e01b600052601160045260246000fd5b5060010190565b614a4b80620005b96000396000f3fe608060405234801561001057600080fd5b50600436106102695760003560e01c8063a4c0ed3611610151578063ce2b2cf0116100c3578063de5f72fd11610087578063de5f72fd1461065f578063e00dd16114610672578063e39b32e81461067b578063ee3839371461068e578063f2fde38b146106a1578063f39e17d5146106b457600080fd5b8063ce2b2cf0146105f6578063d422794714610609578063d8b31c7714610630578063dd99014b14610643578063de55abc31461064c57600080fd5b8063b2f7667f11610115578063b2f7667f14610514578063be58d44d14610537578063c2b6b58c1461055a578063c3e6978f14610567578063c6dd812f1461058f578063c8edb049146105d657600080fd5b8063a4c0ed36146104a4578063a8b8be18146104c7578063a976acf3146104da578063a9c4b87e146104ed578063b1228a631461050157600080fd5b80634c83f9e4116101ea57806382dc737d116101ae57806382dc737d1461041a57806388a421511461042d5780638da5cb5b1461044d578063930af3541461045e57806393dec84d1461047157806394cb97991461049157600080fd5b80634c83f9e4146103b15780635c843060146103c95780635d593f8d146103dc578063715018a6146103e55780637b0240c0146103ed57600080fd5b80633886d21e116102315780633886d21e1461030e5780633cca046d146103335780633e6326fc1461034657806341686ec7146103715780634406acdd1461039157600080fd5b80631b1c62721461026e57806329b70872146102a15780633095634a146102b6578063370a4250146102d75780633811da50146102ee575b600080fd5b61028161027c366004613be7565b6106c9565b604080518251815260209283015192810192909252015b60405180910390f35b6102b46102af366004613c29565b61073b565b005b6102c96102c4366004613cb3565b610777565b604051610298929190613d2c565b6102e060065481565b604051908152602001610298565b6102e06102fc366004613d47565b60076020526000908152604090205481565b60085461031e9063ffffffff1681565b60405163ffffffff9091168152602001610298565b6102b4610341366004613da8565b610a54565b601b54610359906001600160a01b031681565b6040516001600160a01b039091168152602001610298565b6102e061037f366004613df3565b60096020526000908152604090205481565b6102e061039f366004613d47565b60016020526000908152604090205481565b60085461031e90640100000000900463ffffffff1681565b6102b46103d7366004613fc9565b610e45565b6102e060035481565b6102b461110f565b600f546010546011546103ff92919083565b60408051938452602084019290925290820152606001610298565b6102b4610428366004614079565b611123565b6102e061043b366004613df3565b600a6020526000908152604090205481565b6005546001600160a01b0316610359565b6102b461046c3660046140d4565b611141565b6102e061047f366004613df3565b600b6020526000908152604090205481565b6102b461049f366004613d47565b611155565b6104b76104b2366004614149565b61129c565b6040519015158152602001610298565b6104b76104d53660046140d4565b6113a8565b6102b46104e83660046141a4565b61157e565b6102e06104fb366004613df3565b50600190565b6102b461050f366004614203565b611608565b601754601854610522919082565b60408051928352602083019190915201610298565b6104b7610545366004613df3565b60026020526000908152604090205460ff1681565b600e546104b79060ff1681565b6102e0610575366004614229565b600060208181529281526040808220909352908152205481565b6012546013546014546015546016546105ac949392919060ff1685565b6040805195865260208601949094529284019190915260608301521515608082015260a001610298565b6102e06105e4366004613d47565b600d6020526000908152604090205481565b6102b461060436600461424b565b611638565b610522610617366004613d47565b6019602052600090815260409020805460019091015482565b6102b461063e366004613d47565b6118e9565b6102e060045481565b6102b461065a3660046142cd565b611913565b601a54610359906001600160a01b031681565b6102e0601c5481565b6102b4610689366004614360565b6119e9565b600c54610359906001600160a01b031681565b6102b46106af366004613d47565b611b44565b6102e06000805160206149f683398151915281565b604080518082019091526000808252602082015260006106f06106eb84611bba565b611be7565b90506107158160008151811061070857610708614395565b6020026020010151611cfc565b82528051610730908290600890811061070857610708614395565b602083015250919050565b610743611d4a565b8051601255602081015160135560408101516014556060810151601555608001516016805460ff1916911515919091179055565b600060606012600301548310156107b25750506040805180820190915260098152681b5a5b905b5bdd5b9d60ba1b6020820152600090610a4d565b60165460ff1680156107ce5750601b546001600160a01b031615155b1561090f57601b5460405163bf40fac160e01b81526020600482015260086024820152674944454e5449545960c01b60448201526000916001600160a01b03169063bf40fac1906064016020604051808303816000875af1158015610837573d6000803e3d6000fd5b505050506040513d601f19601f8201168201806040525081019061085b91906143ab565b90506001600160a01b0381161561090d57604051633af32abf60e01b81526001600160a01b038681166004830152821690633af32abf906024016020604051808303816000875af11580156108b4573d6000803e3d6000fd5b505050506040513d601f19601f820116820180604052508101906108d891906143c8565b61090d57505060408051808201909152600f81526e1b9bdd081dda1a5d195b1a5cdd1959608a1b602082015260009150610a4d565b505b6013548311156109415750506040805180820190915260078152661d1e131a5b5a5d60ca1b6020820152600090610a4d565b61094e62015180426143fb565b601754101561095c5761099e565b60125460185461096d908590614412565b111561099e57505060408051808201909152600a81526919185a5b1e531a5b5a5d60b21b6020820152600090610a4d565b6001600160a01b0384166000908152601960205260409020600101546109c762015180426143fb565b6001600160a01b03861660009081526019602052604090205410156109ed5750826109fa565b6109f78482614412565b90505b601454811115610a375750506040805180820190915260118152701858d8dbdd5b9d11185a5b1e531a5b5a5d607a1b602082015260009150610a4d565b5050604080516020810190915260008152600191505b9250929050565b60005b81811015610e3f576000838383818110610a7357610a73614395565b9050602002810190610a85919061442a565b610a8e9061444a565b600086815260208181526040808320818501518452825290912054818301518051920191909120919250908114610b015760405162461bcd60e51b81526020600482015260126024820152710d2dcecc2d8d2c840c4d8dec6d640d0c2e6d60731b60448201526064015b60405180910390fd5b6000610b136106eb8460200151611bba565b90506000610b2d8260058151811061070857610708614395565b905060005b845151811015610e27576000898587600001518481518110610b5657610b56614395565b602002602001015160a00151604051602001610b74939291906145d9565b60408051601f1981840301815291815281516020928301206000818152600290935291205490915060ff1615610be35760405162461bcd60e51b81526020600482015260146024820152731c9958d95a5c1d08185b1c9958591e481d5cd95960621b6044820152606401610af8565b6000818152600260205260409020805460ff191660011790558551805183908110610c1057610c10614395565b6020026020010151606001516000148015610c4a57508551805183908110610c3a57610c3a614395565b6020026020010151608001516000145b610c885760405162461bcd60e51b815260206004820152600f60248201526e0dcdee840e6e8c2e4e840d2dcc8caf608b1b6044820152606401610af8565b8286600001518381518110610c9f57610c9f614395565b60200260200101516000015114610cef5760405162461bcd60e51b81526020600482015260146024820152730e4cac6cad2e0e8a4dedee840dad2e6dac2e8c6d60631b6044820152606401610af8565b610d1586600001518381518110610d0857610d08614395565b6020026020010151611da4565b610d585760405162461bcd60e51b815260206004820152601460248201527372656365697074206e6f7420696e20626c6f636b60601b6044820152606401610af8565b604086015160011115610d9f5760405162461bcd60e51b815260206004820152600f60248201526e1c9958d95a5c1d081d1bdbc81bdb19608a1b6044820152606401610af8565b610dd78a8760400151610dd289600001518681518110610dc157610dc1614395565b602002602001015160a00151611f65565b61214d565b610e145760405162461bcd60e51b815260206004820152600e60248201526d195e1958dd5d194819985a5b195960921b6044820152606401610af8565b5080610e1f816145f8565b915050610b32565b50505050508080610e37906145f8565b915050610a57565b50505050565b60005b815181101561110b576000828281518110610e6557610e65614395565b602090810291909101810151808201518051908301208151608083015160608401516040519496509294607a831494600094610ea79488949093909201614613565b60405160208183030381529060405280519060200120905060008460400151516001600160401b03811115610ede57610ede613ac6565b604051908082528060200260200182016040528015610f07578160200160208202803683370190505b50905060005b856040015151811015610ffa5760008087604001518381518110610f3357610f33614395565b6020026020010151806020019051810190610f4e9190614662565b91509150610fb3610fac866040517f19457468657265756d205369676e6564204d6573736167653a0a3332000000006020820152603c8101829052600090605c01604051602081830303815290604052805190602001209050919050565b8383612363565b848481518110610fc557610fc5614395565b60200260200101906001600160a01b031690816001600160a01b03168152505050508080610ff2906145f8565b915050610f0d565b50611004816113a8565b6110425760405162461bcd60e51b815260206004820152600f60248201526e696e76616c6964207369676e65727360881b6044820152606401610af8565b600061105186602001516106c9565b90506001816020015110156110985760405162461bcd60e51b815260206004820152600d60248201526c189b1bd8dac81d1bdbc81bdb19609a1b6044820152606401610af8565b855160009081526020818152604080832084830151845290915290208590558380156110c957506000866080015151115b80156110db5750600454816020015110155b156110f2576110f286608001518760600151612380565b5050505050508080611103906145f8565b915050610e48565b5050565b611117611d4a565b61112160006123ec565b565b61112b611d4a565b8051600f55602081015160105560400151601155565b611149611d4a565b6111528161243e565b50565b61115d611d4a565b806001600160a01b031663a9059cbb61117e6005546001600160a01b031690565b6040516370a0823160e01b81523060048201526001600160a01b038516906370a0823190602401602060405180830381865afa1580156111c2573d6000803e3d6000fd5b505050506040513d601f19601f820116820180604052508101906111e69190614686565b6040516001600160e01b031960e085901b1681526001600160a01b03909216600483015260248201526044016020604051808303816000875af1158015611231573d6000803e3d6000fd5b505050506040513d601f19601f8201168201806040525081019061125591906143c8565b61128c5760405162461bcd60e51b81526020600482015260086024820152673a3930b739b332b960c11b6044820152606401610af8565b50600e805460ff19166001179055565b600c546000906001600160a01b031633146112e55760405162461bcd60e51b81526020600482015260096024820152683737ba103a37b5b2b760b91b6044820152606401610af8565b6000806112f48486018661469f565b91509150611304878288856124d4565b338161130f601d5490565b84893042601c6000815480929190611326906145f8565b919050556040516020016113419897969594939291906146cf565b60408051808303601f190181528282528051602091820120858452908301899052600183830152426060840152905190916001600160a01b0384811692908b16916000805160206149f6833981519152919081900360800190a45060019695505050505050565b60008080805b84518110156115735760006113c460018361471b565b90505b60008112611462578581815181106113e1576113e1614395565b60200260200101516001600160a01b031686838151811061140457611404614395565b60200260200101516001600160a01b031614156114505760405162461bcd60e51b815260206004820152600a602482015269323ab81039b4b3b732b960b11b6044820152606401610af8565b8061145a8161475a565b9150506113c7565b506004546001600087848151811061147c5761147c614395565b60200260200101516001600160a01b03166001600160a01b031681526020019081526020016000205414156114b957826114b5816145f8565b9350505b600654600760008784815181106114d2576114d2614395565b60200260200101516001600160a01b03166001600160a01b0316815260200190815260200160002054141561150f578161150b816145f8565b9250505b60085463ffffffff168214801561155157506008546003546064916115439164010000000090910463ffffffff1690614778565b61154d91906147ad565b8310155b1561156157506001949350505050565b8061156b816145f8565b9150506113ae565b506000949350505050565b611586611d4a565b60005b83811015611601578282828181106115a3576115a3614395565b90506020020135600d60008787858181106115c0576115c0614395565b90506020020160208101906115d59190613d47565b6001600160a01b03168152602081019190915260400160002055806115f9816145f8565b915050611589565b5050505050565b611610611d4a565b6008805463ffffffff9092166401000000000267ffffffff0000000019909216919091179055565b6000868152602081815260408083208884529091529081902054905161166190849084906147c1565b604051809103902081146116b75760405162461bcd60e51b815260206004820152601760248201527f696e76616c6964206368696c6420726c704865616465720000000000000000006044820152606401610af8565b60006116f884848080601f0160208091040260200160405190810160405280939291908181526020018383808284376000920191909152506106c992505050565b905060005b858110156118de57600087878381811061171957611719614395565b905060200281019061172b91906147d1565b6040516117399291906147c1565b60405180910390209050808360000151146117835760405162461bcd60e51b815260206004820152600a6024820152691b9bdd081c185c995b9d60b21b6044820152606401610af8565b60006117e689898581811061179a5761179a614395565b90506020028101906117ac91906147d1565b8080601f0160208091040260200160405190810160405280939291908181526020018383808284376000920191909152506106c992505050565b905060018160200151101561182d5760405162461bcd60e51b815260206004820152600d60248201526c189b1bd8dac81d1bdbc81bdb19609a1b6044820152606401610af8565b60008b815260208181526040808320848301518452909152902054158061186d575060008b81526020818152604080832084830151845290915290205482145b6118ac5760405162461bcd60e51b815260206004820152601060248201526f185b1c9958591e481d995c9a599a595960821b6044820152606401610af8565b60008b8152602081815260408083208483015184529091529020919091559150806118d6816145f8565b9150506116fd565b505050505050505050565b6118f1611d4a565b601a80546001600160a01b0319166001600160a01b0392909216919091179055565b60006119226040880188614817565b905011156119ba57604080516001808252818301909252600091816020015b6119736040518060a0016040528060008152602001606081526020016060815260200160008152602001606081525090565b81526020019060019003908161194157905050905061199187614860565b816000815181106119a4576119a4614395565b60200260200101819052506119b881610e45565b505b82156119d5576119d5863586868661060460208c018c6147d1565b6119e186358383610a54565b505050505050565b6119f5338483856124d4565b600c546040516323b872dd60e01b8152336004820152306024820152604481018390526001600160a01b03909116906323b872dd906064016020604051808303816000875af1158015611a4c573d6000803e3d6000fd5b505050506040513d601f19601f82011682018060405250810190611a7091906143c8565b611aab5760405162461bcd60e51b815260206004820152600c60248201526b7472616e7366657246726f6d60a01b6044820152606401610af8565b3383611ab6601d5490565b84843042601c6000815480929190611acd906145f8565b91905055604051602001611ae89897969594939291906146cf565b60408051808303601f190181528282528051602091820120858452908301849052600183830152426060840152905190916001600160a01b0386169133916000805160206149f6833981519152919081900360800190a4505050565b611b4c611d4a565b6001600160a01b038116611bb15760405162461bcd60e51b815260206004820152602660248201527f4f776e61626c653a206e6577206f776e657220697320746865207a65726f206160448201526564647265737360d01b6064820152608401610af8565b611152816123ec565b60408051808201825260008082526020918201528151808301909252825182529182019181019190915290565b6060611bf28261268f565b611bfb57600080fd5b6000611c06836126c8565b90506000816001600160401b03811115611c2257611c22613ac6565b604051908082528060200260200182016040528015611c6757816020015b6040805180820190915260008082526020820152815260200190600190039081611c405790505b5090506000611c79856020015161274b565b8560200151611c889190614412565b90506000805b84811015611cf157611c9f836127cd565b9150604051806040016040528083815260200184815250848281518110611cc857611cc8614395565b6020908102919091010152611cdd8284614412565b925080611ce9816145f8565b915050611c8e565b509195945050505050565b805160009015801590611d1157508151602110155b611d1a57600080fd5b600080611d2684612876565b815191935091506020821015611d425760208290036101000a90045b949350505050565b6005546001600160a01b031633146111215760405162461bcd60e51b815260206004820181905260248201527f4f776e61626c653a2063616c6c6572206973206e6f7420746865206f776e65726044820152606401610af8565b6000808260400151836080015181518110611dc157611dc1614395565b602002602001015190506000611dde611dd983611bba565b6128bd565b9050836060015160001415611e575783518251602084012014611e525760405162461bcd60e51b815260206004820152602660248201527f7665726966795472696550726f6f6620726f6f74206e6f6465206861736820696044820152651b9d985b1a5960d21b6064820152608401610af8565b611f11565b602082511015611ec4576000611e74611e6f83612929565b611cfc565b85519091508114611ebe5760405162461bcd60e51b81526020600482015260146024820152733b32b934b33caa3934b2a83937b7b3101e10199960611b6044820152606401610af8565b50611f11565b83518251602084012014611f115760405162461bcd60e51b81526020600482015260146024820152737665726966795472696550726f6f6620656c736560601b6044820152606401610af8565b6000611f2082600001516126c8565b90508060111415611f3d57611f3485612986565b95945050505050565b8060021415611f5057611f348286612abe565b60a08501515161157357506001949350505050565b611f936040518060800160405280600060ff1681526020016000815260200160608152602001606081525090565b8151600090607f60f81b9084908390611fae57611fae614395565b01602001516001600160f81b03191611611fc6575060015b6000611fd56106eb8584612d95565b9050611fed8160008151811061070857610708614395565b60ff168352805161200b908290600190811061070857610708614395565b60208401528051612036908290600290811061202957612029614395565b6020026020010151612de1565b836040018190525060006120638260038151811061205657612056614395565b6020026020010151611be7565b905080516001600160401b0381111561207e5761207e613ac6565b6040519080825280602002602001820160405280156120dc57816020015b6120c9604051806060016040528060006001600160a01b0316815260200160608152602001606081525090565b81526020019060019003908161209c5790505b50606085015260005b81518110156121445761211082828151811061210357612103614395565b6020026020010151612e55565b8560600151828151811061212657612126614395565b6020026020010181905250808061213c906145f8565b9150506120e5565b50505050919050565b6000816000015160ff166001146121975760405162461bcd60e51b815260206004820152600e60248201526d696e76616c69642073746174757360901b6044820152606401610af8565b6000805b83606001515181101561235a576000846060015182815181106121c0576121c0614395565b6020026020010151905085600d600083600001516001600160a01b03166001600160a01b031681526020019081526020016000205411156122355760405162461bcd60e51b815260206004820152600f60248201526e1c9958d95a5c1d081d1bdbc81bdb19608a1b6044820152606401610af8565b80516001600160a01b03166000908152600d6020526040902054158061228757506000805160206149f6833981519152816020015160008151811061227c5761227c614395565b602002602001015114155b156122925750612348565b600080600083604001518060200190518101906122af919061486c565b9250925092506122be601d5490565b83146122cd5750505050612348565b6001955061234384602001516001815181106122eb576122eb614395565b602002602001015160001c856020015160028151811061230d5761230d614395565b602002602001015160001c848d8d868a6020015160038151811061233357612333614395565b602002602001015160001c612fa4565b505050505b80612352816145f8565b91505061219b565b50949350505050565b6000806000612373868686613247565b9150915061235a81613280565b60005b82518110156123e25781600160008584815181106123a3576123a3614395565b60200260200101516001600160a01b03166001600160a01b031681526020019081526020016000208190555080806123da906145f8565b915050612383565b5060045551600355565b600580546001600160a01b038381166001600160a01b0319831681179093556040519116919082907f8be0079c531659141344cd1fd0a4f28419497f9722a3daafe3b4186f6b6457e090600090a35050565b6006805490600061244e836145f8565b919050555060005b81518110156124b7576006546007600084848151811061247857612478614395565b60200260200101516001600160a01b03166001600160a01b031681526020019081526020016000208190555080806124af906145f8565b915050612456565b50516008805463ffffffff191663ffffffff909216919091179055565b6001600160a01b03831661251b5760405162461bcd60e51b815260206004820152600e60248201526d1a5b9d985b1a59081d185c99d95d60921b6044820152606401610af8565b600081116125635760405162461bcd60e51b81526020600482015260156024820152741a5b9d985b1a59081d185c99d95d10da185a5b9259605a1b6044820152606401610af8565b600e5460ff161561259f5760405162461bcd60e51b815260206004820152600660248201526518db1bdcd95960d21b6044820152606401610af8565b6125ac62015180426143fb565b60175410156125bf574260175560006018555b6125cc62015180426143fb565b6001600160a01b038516600090815260196020526040902054101561260b576001600160a01b0384166000908152601960205260408120428155600101555b6000806126188685610777565b9150915081819061263c5760405162461bcd60e51b8152600401610af891906148a5565b5083601760010160008282546126529190614412565b90915550506001600160a01b03861660009081526019602052604081206001018054869290612682908490614412565b9091555050505050505050565b80516000906126a057506000919050565b6020820151805160001a9060c08210156126be575060009392505050565b5060019392505050565b80516000906126d957506000919050565b6000806126e9846020015161274b565b84602001516126f89190614412565b90506000846000015185602001516127109190614412565b90505b8082101561274257612724826127cd565b61272e9083614412565b91508261273a816145f8565b935050612713565b50909392505050565b8051600090811a60808110156127645750600092915050565b60b881108061277f575060c0811080159061277f575060f881105b1561278d5750600192915050565b60c08110156127c1576127a2600160b86148b8565b6127af9060ff16826143fb565b6127ba906001614412565b9392505050565b6127a2600160f86148b8565b80516000908190811a60808110156127e8576001915061286f565b60b881101561280e576127fc6080826143fb565b612807906001614412565b915061286f565b60c081101561283b5760b78103600185019450806020036101000a8551046001820181019350505061286f565b60f881101561284f576127fc60c0826143fb565b60f78103600185019450806020036101000a855104600182018101935050505b5092915050565b6000806000612888846020015161274b565b9050600081856020015161289c9190614412565b905060008286600001516128b091906143fb565b9196919550909350505050565b60408051608081018252600091810182815260608201839052815260208101919091526128e98261268f565b6128f257600080fd5b6000612901836020015161274b565b83602001516129109190614412565b6040805180820190915293845260208401525090919050565b60408051808201909152600080825260208201526129468261343b565b61294f57600080fd5b6020820151600061295f826127cd565b905061296b8183614412565b60209485015260408051808201909152908152928301525090565b60008082604001518360800151815181106129a3576129a3614395565b60200260200101519050826020015151836060015110612a0c5760006129e06129ce6106eb84611bba565b60108151811061202957612029614395565b90508360a001518051906020012081805190602001201415612a06575060019392505050565b50612aa2565b60008360200151846060015181518110612a2857612a28614395565b016020015160f81c90506000612a54612a436106eb85611bba565b838151811061202957612029614395565b90508051600014612a9f576020810151855260608501805160019190612a7b908390614412565b90525060808501805160019190612a93908390614412565b905250611f3485611da4565b50505b60a083015151612ab55750600192915050565b50600092915050565b600080612ad2612acd85612929565b612de1565b90506000612ae2612acd86612929565b602083015190915060fc1c6002811415612ba657600060018451612b0691906143fb565b90506000612b1885600184600061345f565b90506000612b318860200151896060015185600061345f565b905084805190602001208860a00151805190602001201415612b9e57808051906020012082805190602001201415612b725760019650505050505050612d8f565b80516020820120612b8283613543565b805190602001201415612b9e5760019650505050505050612d8f565b505050612d71565b8060031415612c5c576000612bc08460008651600161345f565b602087015160608801518151929350600092612bea929190612be39082906143fb565b600061345f565b905083805190602001208760a00151805190602001201415612c5557808051906020012082805190602001201415612c2a57600195505050505050612d8f565b80516020820120612c3a8361367a565b805190602001201415612c5557600195505050505050612d8f565b5050612d71565b80612d1f57600060018451612c7191906143fb565b90506000612c8385600184600061345f565b90506000612c9c8860200151896060015185600061345f565b9050808051906020012082805190602001201480612cce575080516020820120612cc583613543565b80519060200120145b15612b9e5760208501518852606088018051849190612cee908390614412565b90525060808801805160019190612d06908390614412565b905250612d1288611da4565b9650505050505050612d8f565b8060011415612d395782516000612c83858284600161345f565b60405162461bcd60e51b815260206004820152600d60248201526c24b73b30b634b210383937b7b360991b6044820152606401610af8565b60a085015151612d875760019350505050612d8f565b600093505050505b92915050565b604080518082019091526000808252602082015260208301612db78382614412565b90506040518060400160405280848651612dd191906143fb565b8152602001919091529392505050565b8051606090612def57600080fd5b600080612dfb84612876565b915091506000816001600160401b03811115612e1957612e19613ac6565b6040519080825280601f01601f191660200182016040528015612e43576020820181803683370190505b5090506020810161235a8482856137db565b612e82604051806060016040528060006001600160a01b0316815260200160608152602001606081525090565b6000612e8d83611be7565b9050612eb281600081518110612ea557612ea5614395565b602002602001015161385b565b6001600160a01b031682528051600090612ed9908390600190811061205657612056614395565b905080516001600160401b03811115612ef457612ef4613ac6565b604051908082528060200260200182016040528015612f1d578160200160208202803683370190505b50602084015260005b8151811015612f80576000612f4683838151811061070857610708614395565b60001b90508085602001518381518110612f6257612f62614395565b60209081029190910101525080612f78816145f8565b915050612f26565b50612f978260028151811061202957612029614395565b6040840152509092915050565b600080612fdb87858015612fc15750336001600160a01b038b1614155b8015612fd65750336001600160a01b038c1614155b613875565b90925090506000612fec8284614412565b905081600a600089815260200190815260200160002060008282546130119190614412565b90915550506000878152600b602052604081208054859290613034908490614412565b9091555050600087815260096020526040812080548a9290613057908490614412565b909155506130669050896138f0565b600c546001600160a01b031663a9059cbb8a613082848c6143fb565b6040516001600160e01b031960e085901b1681526001600160a01b03909216600483015260248201526044016020604051808303816000875af11580156130cd573d6000803e3d6000fd5b505050506040513d601f19601f820116820180604052508101906130f191906143c8565b6131285760405162461bcd60e51b81526020600482015260086024820152673a3930b739b332b960c11b6044820152606401610af8565b81156131da57600c5460405163a9059cbb60e01b8152336004820152602481018490526001600160a01b039091169063a9059cbb906044016020604051808303816000875af115801561317f573d6000803e3d6000fd5b505050506040513d601f19601f820116820180604052508101906131a391906143c8565b6131da5760405162461bcd60e51b815260206004820152600860248201526772656c617946656560c01b6044820152606401610af8565b60408051338152602081018a9052908101829052606081018890526080810187905284906001600160a01b03808c1691908d16907f8f5fb725904dff7292d34df72f578088cca0aa71767d7d82fc40b1b786ef96a79060a00160405180910390a450505050505050505050565b6000806001600160ff1b0383168161326460ff86901c601b614412565b9050613272878288856139d9565b935093505050935093915050565b6000816004811115613294576132946148db565b141561329d5750565b60018160048111156132b1576132b16148db565b14156132ff5760405162461bcd60e51b815260206004820152601860248201527f45434453413a20696e76616c6964207369676e617475726500000000000000006044820152606401610af8565b6002816004811115613313576133136148db565b14156133615760405162461bcd60e51b815260206004820152601f60248201527f45434453413a20696e76616c6964207369676e6174757265206c656e677468006044820152606401610af8565b6003816004811115613375576133756148db565b14156133ce5760405162461bcd60e51b815260206004820152602260248201527f45434453413a20696e76616c6964207369676e6174757265202773272076616c604482015261756560f01b6064820152608401610af8565b60048160048111156133e2576133e26148db565b14156111525760405162461bcd60e51b815260206004820152602260248201527f45434453413a20696e76616c6964207369676e6174757265202776272076616c604482015261756560f01b6064820152608401610af8565b8051805160208201516000929161345191614412565b836020015110915050919050565b6060600061346e6020856147ad565b9050600061347d6020866148f1565b613488906008614778565b613494906101006143fb565b9050602060008080886001600160401b038111156134b4576134b4613ac6565b6040519080825280601f01601f1916602001820160405280156134de576020820181803683370190505b5090508a8a019150871561350857818401516001600160fc1b031681850152602090930192600192505b825b8681101561352857828501518286015260209094019360010161350a565b5083820151851c851b84820152505050505050949350505050565b60606000825160026135559190614778565b90506000816001600160401b0381111561357157613571613ac6565b6040519080825280601f01601f19166020018201604052801561359b576020820181803683370190505b50905060005b8451811015613672576000806135e58784815181106135c2576135c2614395565b01602001516001600160f81b031916600481901c916001600160fc1b0390911690565b909250905081846135f7856002614778565b8151811061360757613607614395565b60200101906001600160f81b031916908160001a905350808461362b856002614778565b613636906001614412565b8151811061364657613646614395565b60200101906001600160f81b031916908160001a9053505050808061366a906145f8565b9150506135a1565b509392505050565b6060600060018351600261368e9190614778565b61369891906143fb565b90506000816001600160401b038111156136b4576136b4613ac6565b6040519080825280601f01601f1916602001820160405280156136de576020820181803683370190505b509050836000815181106136f4576136f4614395565b602001015160f81c60f81b8160008151811061371257613712614395565b60200101906001600160f81b031916908160001a90535060015b84518110156136725760008061374d8784815181106135c2576135c2614395565b909250905081846001613761866002614778565b61376b91906143fb565b8151811061377b5761377b614395565b60200101906001600160f81b031916908160001a905350808461379f856002614778565b815181106137af576137af614395565b60200101906001600160f81b031916908160001a905350505080806137d3906145f8565b91505061372c565b806137e557505050565b6020811061381d57825182526137fc602084614412565b9250613809602083614412565b91506138166020826143fb565b90506137e5565b801561385657600060016138328360206143fb565b61383e906101006149e9565b61384891906143fb565b845184518216911916178352505b505050565b805160009060151461386c57600080fd5b612d8f82611cfc565b6000806000612710600f600201548661388e9190614778565b61389891906147ad565b600f549091508110156138ad57600f546138af565b805b6010549091508111156138c4576010546138c6565b805b90506138d36002826147ad565b905080846138e25760006138e4565b815b92509250509250929050565b601a546001600160a01b0316158015906139755750601a546040516374bf77e960e11b81526001600160a01b0383811660048301529091169063e97eefd2906024016020604051808303816000875af1158015613951573d6000803e3d6000fd5b505050506040513d601f19601f8201168201806040525081019061397591906143c8565b1561115257601a546040516306ee3b9f60e31b81526001600160a01b03838116600483015290911690633771dcf890602401600060405180830381600087803b1580156139c157600080fd5b505af19250505080156139d2575060015b6111525750565b6000807f7fffffffffffffffffffffffffffffff5d576e7357a4501ddfe92f46681b20a0831115613a105750600090506003613abd565b8460ff16601b14158015613a2857508460ff16601c14155b15613a395750600090506004613abd565b6040805160008082526020820180845289905260ff881692820192909252606081018690526080810185905260019060a0016020604051602081039080840390855afa158015613a8d573d6000803e3d6000fd5b5050604051601f1901519150506001600160a01b038116613ab657600060019250925050613abd565b9150600090505b94509492505050565b634e487b7160e01b600052604160045260246000fd5b60405160a081016001600160401b0381118282101715613afe57613afe613ac6565b60405290565b604051606081016001600160401b0381118282101715613afe57613afe613ac6565b60405160c081016001600160401b0381118282101715613afe57613afe613ac6565b604051601f8201601f191681016001600160401b0381118282101715613b7057613b70613ac6565b604052919050565b600082601f830112613b8957600080fd5b81356001600160401b03811115613ba257613ba2613ac6565b613bb5601f8201601f1916602001613b48565b818152846020838601011115613bca57600080fd5b816020850160208301376000918101602001919091529392505050565b600060208284031215613bf957600080fd5b81356001600160401b03811115613c0f57600080fd5b611d4284828501613b78565b801515811461115257600080fd5b600060a08284031215613c3b57600080fd5b60405160a081018181106001600160401b0382111715613c5d57613c5d613ac6565b8060405250823581526020830135602082015260408301356040820152606083013560608201526080830135613c9281613c1b565b60808201529392505050565b6001600160a01b038116811461115257600080fd5b60008060408385031215613cc657600080fd5b8235613cd181613c9e565b946020939093013593505050565b6000815180845260005b81811015613d0557602081850181015186830182015201613ce9565b81811115613d17576000602083870101525b50601f01601f19169290920160200192915050565b8215158152604060208201526000611d426040830184613cdf565b600060208284031215613d5957600080fd5b81356127ba81613c9e565b60008083601f840112613d7657600080fd5b5081356001600160401b03811115613d8d57600080fd5b6020830191508360208260051b8501011115610a4d57600080fd5b600080600060408486031215613dbd57600080fd5b8335925060208401356001600160401b03811115613dda57600080fd5b613de686828701613d64565b9497909650939450505050565b600060208284031215613e0557600080fd5b5035919050565b60006001600160401b03821115613e2557613e25613ac6565b5060051b60200190565b600082601f830112613e4057600080fd5b81356020613e55613e5083613e0c565b613b48565b82815260059290921b84018101918181019086841115613e7457600080fd5b8286015b84811015613eb35780356001600160401b03811115613e975760008081fd5b613ea58986838b0101613b78565b845250918301918301613e78565b509695505050505050565b600082601f830112613ecf57600080fd5b81356020613edf613e5083613e0c565b82815260059290921b84018101918181019086841115613efe57600080fd5b8286015b84811015613eb3578035613f1581613c9e565b8352918301918301613f02565b600060a08284031215613f3457600080fd5b613f3c613adc565b90508135815260208201356001600160401b0380821115613f5c57600080fd5b613f6885838601613b78565b60208401526040840135915080821115613f8157600080fd5b613f8d85838601613e2f565b6040840152606084013560608401526080840135915080821115613fb057600080fd5b50613fbd84828501613ebe565b60808301525092915050565b60006020808385031215613fdc57600080fd5b82356001600160401b0380821115613ff357600080fd5b818501915085601f83011261400757600080fd5b8135614015613e5082613e0c565b81815260059190911b8301840190848101908883111561403457600080fd5b8585015b8381101561406c578035858111156140505760008081fd5b61405e8b89838a0101613f22565b845250918601918601614038565b5098975050505050505050565b60006060828403121561408b57600080fd5b604051606081018181106001600160401b03821117156140ad576140ad613ac6565b80604052508235815260208301356020820152604083013560408201528091505092915050565b6000602082840312156140e657600080fd5b81356001600160401b038111156140fc57600080fd5b611d4284828501613ebe565b60008083601f84011261411a57600080fd5b5081356001600160401b0381111561413157600080fd5b602083019150836020828501011115610a4d57600080fd5b6000806000806060858703121561415f57600080fd5b843561416a81613c9e565b93506020850135925060408501356001600160401b0381111561418c57600080fd5b61419887828801614108565b95989497509550505050565b600080600080604085870312156141ba57600080fd5b84356001600160401b03808211156141d157600080fd5b6141dd88838901613d64565b909650945060208701359150808211156141f657600080fd5b5061419887828801613d64565b60006020828403121561421557600080fd5b813563ffffffff811681146127ba57600080fd5b6000806040838503121561423c57600080fd5b50508035926020909101359150565b6000806000806000806080878903121561426457600080fd5b863595506020870135945060408701356001600160401b038082111561428957600080fd5b6142958a838b01613d64565b909650945060608901359150808211156142ae57600080fd5b506142bb89828a01614108565b979a9699509497509295939492505050565b600080600080600080608087890312156142e657600080fd5b86356001600160401b03808211156142fd57600080fd5b9088019060a0828b03121561431157600080fd5b909650602088013595506040880135908082111561432e57600080fd5b61433a8a838b01613d64565b9096509450606089013591508082111561435357600080fd5b506142bb89828a01613d64565b60008060006060848603121561437557600080fd5b833561438081613c9e565b95602085013595506040909401359392505050565b634e487b7160e01b600052603260045260246000fd5b6000602082840312156143bd57600080fd5b81516127ba81613c9e565b6000602082840312156143da57600080fd5b81516127ba81613c1b565b634e487b7160e01b600052601160045260246000fd5b60008282101561440d5761440d6143e5565b500390565b60008219821115614425576144256143e5565b500190565b60008235605e1983360301811261444057600080fd5b9190910192915050565b6000606080833603121561445d57600080fd5b614465613b04565b83356001600160401b038082111561447c57600080fd5b9085019036601f83011261448f57600080fd5b8135602061449f613e5083613e0c565b82815260059290921b840181019181810190368411156144be57600080fd5b8286015b8481101561459a578035868111156144da5760008081fd5b870160c036829003601f19018113156144f35760008081fd5b6144fb613b26565b8683013581526040808401358a8111156145155760008081fd5b614523368a83880101613b78565b89840152508c8401358a81111561453a5760008081fd5b614548368a83880101613e2f565b8284015250506080808401358d83015260a080850135828401528385013593508a84111561457857600091508182fd5b614586368a86880101613b78565b9083015250855250509183019183016144c2565b50865250878101359550828611156145b157600080fd5b6145bd36878a01613b78565b8186015250505050604084013560408201528092505050919050565b838152826020820152606060408201526000611f346060830184613cdf565b600060001982141561460c5761460c6143e5565b5060010190565b84815260006020858184015260408301855182870160005b828110156146505781516001600160a01b03168452928401929084019060010161462b565b50505093845290920195945050505050565b6000806040838503121561467557600080fd5b505080516020909101519092909150565b60006020828403121561469857600080fd5b5051919050565b600080604083850312156146b257600080fd5b8235915060208301356146c481613c9e565b809150509250929050565b6001600160a01b039889168152968816602088015260408701959095526060860193909352608085019190915290931660a083015260c082019290925260e08101919091526101000190565b60008083128015600160ff1b850184121615614739576147396143e5565b6001600160ff1b0384018313811615614754576147546143e5565b50500390565b6000600160ff1b821415614770576147706143e5565b506000190190565b6000816000190483118215151615614792576147926143e5565b500290565b634e487b7160e01b600052601260045260246000fd5b6000826147bc576147bc614797565b500490565b8183823760009101908152919050565b6000808335601e198436030181126147e857600080fd5b8301803591506001600160401b0382111561480257600080fd5b602001915036819003821315610a4d57600080fd5b6000808335601e1984360301811261482e57600080fd5b8301803591506001600160401b0382111561484857600080fd5b6020019150600581901b3603821315610a4d57600080fd5b6000612d8f3683613f22565b60008060006060848603121561488157600080fd5b8351925060208401519150604084015161489a81613c1b565b809150509250925092565b6020815260006127ba6020830184613cdf565b600060ff821660ff8416808210156148d2576148d26143e5565b90039392505050565b634e487b7160e01b600052602160045260246000fd5b60008261490057614900614797565b500690565b600181815b80851115614940578160001904821115614926576149266143e5565b8085161561493357918102915b93841c939080029061490a565b509250929050565b60008261495757506001612d8f565b8161496457506000612d8f565b816001811461497a5760028114614984576149a0565b6001915050612d8f565b60ff841115614995576149956143e5565b50506001821b612d8f565b5060208310610133831016604e8410600b84101617156149c3575081810a612d8f565b6149cd8383614905565b80600019048211156149e1576149e16143e5565b029392505050565b60006127ba838361494856fe4246d22454f5bd543c70e6ffcca20eed2dcf09d3beef6d39e415385538b02d0aa2646970667358221220738e71a1ac0ad5a695abb0859a502a3e41905fb318d28ba77bc89d7adea2974564736f6c634300080a0033",
  "linkReferences": {},
  "deployedLinkReferences": {}
}