{
  "_format": "hh-sol-artifact-1",
  "contractName": "VerifierTest",
  "sourceName": "contracts/test/VerifierTest.sol",
  "abi": [
    {
      "inputs": [
        {
          "internalType": "bytes",
          "name": "receiptRlp",
          "type": "bytes"
        }
      ],
      "name": "parseReceipt",
      "outputs": [
        {
          "components": [
            {
              "internalType": "uint8",
              "name": "status",
              "type": "uint8"
            },
            {
              "internalType": "uint256",
              "name": "gasUsed",
              "type": "uint256"
            },
            {
              "internalType": "bytes",
              "name": "logsBloom",
              "type": "bytes"
            },
            {
              "components": [
                {
                  "internalType": "address",
                  "name": "contractAddress",
                  "type": "address"
                },
                {
                  "internalType": "bytes32[]",
                  "name": "topics",
                  "type": "bytes32[]"
                },
                {
                  "internalType": "bytes",
                  "name": "data",
                  "type": "bytes"
                }
              ],
              "internalType": "struct RLPParser.Log[]",
              "name": "logs",
              "type": "tuple[]"
            }
          ],
          "internalType": "struct RLPParser.TransactionReceipt",
          "name": "receipt",
          "type": "tuple"
        }
      ],
      "stateMutability": "view",
      "type": "function"
    },
    {
      "inputs": [
        {
          "components": [
            {
              "internalType": "bytes32",
              "name": "expectedRoot",
              "type": "bytes32"
            },
            {
              "internalType": "bytes",
              "name": "key",
              "type": "bytes"
            },
            {
              "internalType": "bytes[]",
              "name": "proof",
              "type": "bytes[]"
            },
            {
              "internalType": "uint256",
              "name": "keyIndex",
              "type": "uint256"
            },
            {
              "internalType": "uint256",
              "name": "proofIndex",
              "type": "uint256"
            },
            {
              "internalType": "bytes",
              "name": "expectedValue",
              "type": "bytes"
            }
          ],
          "internalType": "struct MPT.MerkleProof",
          "name": "proof",
          "type": "tuple"
        }
      ],
      "name": "verifyReceipt",
      "outputs": [
        {
          "internalType": "bool",
          "name": "ok",
          "type": "bool"
        }
      ],
      "stateMutability": "view",
      "type": "function"
    }
  ],
  "bytecode": "0x608060405234801561001057600080fd5b50612606806100206000396000f3fe608060405234801561001057600080fd5b50600436106100365760003560e01c80632af4108b1461003b578063aa3eb63a1461006b575b600080fd5b610055600480360381019061005091906117f4565b61009b565b6040516100629190611858565b60405180910390f35b610085600480360381019061008091906118d8565b6100b6565b6040516100929190611c7f565b60405180910390f35b60006100af826100aa90612008565b610113565b9050919050565b6100be611720565b61010b83838080601f016020809104026020016040519081016040528093929190818152602001838380828437600081840152601f19601f820116905080830192505050505050506102dd565b905092915050565b60008082604001518360800151815181106101315761013061201b565b5b60200260200101519050600061014e610149836104f8565b610526565b90506000846060015114156101af5783600001518280519060200120146101aa576040517f08c379a00000000000000000000000000000000000000000000000000000000081526004016101a1906120cd565b60405180910390fd5b61026c565b60208251101561021d5760006101cc6101c78361057d565b6105e0565b60001b905084600001518114610217576040517f08c379a000000000000000000000000000000000000000000000000000000000815260040161020e90612139565b60405180910390fd5b5061026b565b836000015182805190602001201461026a576040517f08c379a0000000000000000000000000000000000000000000000000000000008152600401610261906121a5565b60405180910390fd5b5b5b600061027b826000015161063a565b905060118114156102995761028f856106c8565b93505050506102d8565b60028114156102b6576102ac8286610852565b93505050506102d8565b60008560a001515114156102d057600193505050506102d8565b600093505050505b919050565b6102e5611720565b6000607f60f81b7effffffffffffffffffffffffffffffffffffffffffffffffffffffffffffff1916836000815181106103225761032161201b565b5b602001015160f81c60f81b7effffffffffffffffffffffffffffffffffffffffffffffffffffffffffffff19161161035957600190505b60006103766103718386610c1c90919063ffffffff16565b610c64565b905061039c8160008151811061038f5761038e61201b565b5b60200260200101516105e0565b836000019060ff16908160ff16815250506103d1816001815181106103c4576103c361201b565b5b60200260200101516105e0565b8360200181815250506103fe816002815181106103f1576103f061201b565b5b6020026020010151610d79565b8360400181905250600061042c8260038151811061041f5761041e61201b565b5b6020026020010151610c64565b9050805167ffffffffffffffff81111561044957610448611ca6565b5b60405190808252806020026020018201604052801561048257816020015b61046f61174b565b8152602001906001900390816104675790505b50846060018190525060005b81518110156104ef576104ba8282815181106104ad576104ac61201b565b5b6020026020010151610e0c565b856060015182815181106104d1576104d061201b565b5b602002602001018190525080806104e7906121f4565b91505061048e565b50505050919050565b610500611782565b600060208301905060405180604001604052808451815260200182815250915050919050565b61052e61179c565b61053782610f98565b61054057600080fd5b600061054f8360200151610fe6565b836020015161055e919061223d565b9050604051806040016040528084815260200182815250915050919050565b610585611782565b61058e826110a5565b61059757600080fd5b60008260200151905060006105ab826110d1565b905080826105b9919061223d565b84602001818152505060405180604001604052808281526020018381525092505050919050565b60008082600001511180156105fa57506021826000015111155b61060357600080fd5b60008061060f846111ad565b91509150600082519050602082101561062f57816020036101000a810490505b809350505050919050565b6000808260000151141561065157600090506106c3565b6000806106618460200151610fe6565b8460200151610670919061223d565b9050600084600001518560200151610688919061223d565b90505b808210156106bc5761069c826110d1565b826106a7919061223d565b915082806106b4906121f4565b93505061068b565b8293505050505b919050565b60008082604001518360800151815181106106e6576106e561201b565b5b60200260200101519050826020015151836060015110610763576000610736610716610711846104f8565b610c64565b6010815181106107295761072861201b565b5b6020026020010151610d79565b90508360a00151805190602001208180519060200120141561075d5760019250505061084d565b5061082f565b600083602001518460600151815181106107805761077f61201b565b5b602001015160f81c60f81b60f81c60ff16905060006107c86107a96107a4856104f8565b610c64565b83815181106107bb576107ba61201b565b5b6020026020010151610d79565b9050600081511461082c576107dc816111f7565b8560000181815250506001856060018181516107f8919061223d565b91508181525050600185608001818151610812919061223d565b9150818152505061082285610113565b935050505061084d565b50505b60008360a0015151141561084757600191505061084d565b60009150505b919050565b6000806108666108618561057d565b610d79565b9050600061087b6108768661057d565b610d79565b90506000602083015160f81c8060041c9150506002811415610949576000600184516108a79190612293565b905060006108b9856001846000611205565b905060006108d288602001518960600151856000611205565b905084805190602001208860a00151805190602001201415610941578080519060200120828051906020012014156109135760019650505050505050610c16565b8080519060200120610924836112fd565b8051906020012014156109405760019650505050505050610c16565b5b505050610bf4565b6003811415610a0457600061096384600086516001611205565b905060006109908760200151886060015189606001518a60200151516109899190612293565b6000611205565b905083805190602001208760a001518051906020012014156109fd578080519060200120828051906020012014156109d057600195505050505050610c16565b80805190602001206109e183611465565b8051906020012014156109fc57600195505050505050610c16565b5b5050610bf3565b6000811415610ae357600060018451610a1d9190612293565b90506000610a2f856001846000611205565b90506000610a4888602001518960600151856000611205565b9050808051906020012082805190602001201480610a7b57508080519060200120610a72836112fd565b80519060200120145b15610adb57610a89856111f7565b8860000181815250508288606001818151610aa4919061223d565b91508181525050600188608001818151610abe919061223d565b91508181525050610ace88610113565b9650505050505050610c16565b505050610bf2565b6001811415610bb6576000835190506000610b02856000846001611205565b90506000610b1b88602001518960600151856000611205565b9050808051906020012082805190602001201480610b4e57508080519060200120610b45836112fd565b80519060200120145b15610bae57610b5c856111f7565b8860000181815250508288606001818151610b77919061223d565b91508181525050600188608001818151610b91919061223d565b91508181525050610ba188610113565b9650505050505050610c16565b505050610bf1565b6040517f08c379a0000000000000000000000000000000000000000000000000000000008152600401610be890612313565b60405180910390fd5b5b5b5b60008560a00151511415610c0e5760019350505050610c16565b600093505050505b92915050565b610c24611782565b60006020840190508281610c38919061223d565b90506040518060400160405280848651610c529190612293565b81526020018281525091505092915050565b6060610c6f82610f98565b610c7857600080fd5b6000610c838361063a565b905060008167ffffffffffffffff811115610ca157610ca0611ca6565b5b604051908082528060200260200182016040528015610cda57816020015b610cc7611782565b815260200190600190039081610cbf5790505b5090506000610cec8560200151610fe6565b8560200151610cfb919061223d565b9050600080600090505b84811015610d6c57610d16836110d1565b9150604051806040016040528083815260200184815250848281518110610d4057610d3f61201b565b5b60200260200101819052508183610d57919061223d565b92508080610d64906121f4565b915050610d05565b5082945050505050919050565b60606000826000015111610d8c57600080fd5b600080610d98846111ad565b9150915060008167ffffffffffffffff811115610db857610db7611ca6565b5b6040519080825280601f01601f191660200182016040528015610dea5781602001600182028036833780820191505090505b5090506000816020019050610e0084828561163f565b81945050505050919050565b610e1461174b565b6000610e1f83610c64565b9050610e4581600081518110610e3857610e3761201b565b5b60200260200101516116e6565b826000019073ffffffffffffffffffffffffffffffffffffffff16908173ffffffffffffffffffffffffffffffffffffffff16815250506000610ea282600181518110610e9557610e9461201b565b5b6020026020010151610c64565b9050805167ffffffffffffffff811115610ebf57610ebe611ca6565b5b604051908082528060200260200182016040528015610eed5781602001602082028036833780820191505090505b50836020018190525060005b8151811015610f64576000610f27838381518110610f1a57610f1961201b565b5b60200260200101516105e0565b60001b90508085602001518381518110610f4457610f4361201b565b5b602002602001018181525050508080610f5c906121f4565b915050610ef9565b50610f8982600281518110610f7c57610f7b61201b565b5b6020026020010151610d79565b83604001819052505050919050565b60008082600001511415610faf5760009050610fe1565b60008083602001519050805160001a915060c060ff168260ff161015610fda57600092505050610fe1565b6001925050505b919050565b600080825160001a9050608060ff168110156110065760009150506110a0565b60b860ff1681108061102b575060c060ff16811015801561102a575060f860ff1681105b5b1561103a5760019150506110a0565b60c060ff168110156110755760018060b86110559190612333565b60ff16826110639190612293565b61106d919061223d565b9150506110a0565b60018060f86110849190612333565b60ff16826110929190612293565b61109c919061223d565b9150505b919050565b60008082600001519050806000015181602001516110c3919061223d565b836020015110915050919050565b6000806000835160001a9050608060ff168110156110f257600191506111a3565b60b860ff16811015611121576001608060ff16826111109190612293565b61111a919061223d565b91506111a2565b60c060ff168110156111515760b78103600185019450806020036101000a855104600182018101935050506111a1565b60f860ff1681101561118057600160c060ff168261116f9190612293565b611179919061223d565b91506111a0565b60f78103600185019450806020036101000a855104600182018101935050505b5b5b5b8192505050919050565b60008060006111bf8460200151610fe6565b905060008185602001516111d3919061223d565b905060008286600001516111e79190612293565b9050818194509450505050915091565b600060208201519050919050565b606060006020846112169190612396565b90506000600860208661122991906123c7565b61123391906123f8565b6101006112409190612293565b9050600060209050600080808867ffffffffffffffff81111561126657611265611ca6565b5b6040519080825280601f01601f1916602001820160405280156112985781602001600182028036833780820191505090505b5090508a8a01915087156112bf578382015160041b60041c84820152600192506020840193505b825b868110156112e25784830151858301526020850194506001810190506112c1565b5083820151851c851b84820152505050505050949350505050565b606060006002835161130f91906123f8565b905060008167ffffffffffffffff81111561132d5761132c611ca6565b5b6040519080825280601f01601f19166020018201604052801561135f5781602001600182028036833780820191505090505b50905060005b845181101561145a576000806113978784815181106113875761138661201b565b5b602001015160f81c60f81b611709565b9150915081846002856113aa91906123f8565b815181106113bb576113ba61201b565b5b60200101907effffffffffffffffffffffffffffffffffffffffffffffffffffffffffffff1916908160001a905350808460016002866113fb91906123f8565b611405919061223d565b815181106114165761141561201b565b5b60200101907effffffffffffffffffffffffffffffffffffffffffffffffffffffffffffff1916908160001a90535050508080611452906121f4565b915050611365565b508092505050919050565b6060600060016002845161147991906123f8565b6114839190612293565b905060008167ffffffffffffffff8111156114a1576114a0611ca6565b5b6040519080825280601f01601f1916602001820160405280156114d35781602001600182028036833780820191505090505b509050836000815181106114ea576114e961201b565b5b602001015160f81c60f81b816000815181106115095761150861201b565b5b60200101907effffffffffffffffffffffffffffffffffffffffffffffffffffffffffffff1916908160001a9053506000600190505b8451811015611634576000806115718784815181106115615761156061201b565b5b602001015160f81c60f81b611709565b915091508184600160028661158691906123f8565b6115909190612293565b815181106115a1576115a061201b565b5b60200101907effffffffffffffffffffffffffffffffffffffffffffffffffffffffffffff1916908160001a90535080846002856115df91906123f8565b815181106115f0576115ef61201b565b5b60200101907effffffffffffffffffffffffffffffffffffffffffffffffffffffffffffff1916908160001a9053505050808061162c906121f4565b91505061153f565b508092505050919050565b600081141561164d576116e1565b5b602060ff1681106116985782518252602060ff168361166d919061223d565b9250602060ff168261167f919061223d565b9150602060ff16816116919190612293565b905061164e565b60008111156116e0576000600182602060ff166116b59190612293565b6101006116c29190612585565b6116cc9190612293565b905080198451168184511681811785525050505b5b505050565b600060158260000151146116f957600080fd5b611702826105e0565b9050919050565b6000808260041c91508260041b60041c9050915091565b6040518060800160405280600060ff1681526020016000815260200160608152602001606081525090565b6040518060600160405280600073ffffffffffffffffffffffffffffffffffffffff16815260200160608152602001606081525090565b604051806040016040528060008152602001600081525090565b60405180604001604052806117af611782565b8152602001600081525090565b6000604051905090565b600080fd5b600080fd5b600080fd5b600060c082840312156117eb576117ea6117d0565b5b81905092915050565b60006020828403121561180a576118096117c6565b5b600082013567ffffffffffffffff811115611828576118276117cb565b5b611834848285016117d5565b91505092915050565b60008115159050919050565b6118528161183d565b82525050565b600060208201905061186d6000830184611849565b92915050565b600080fd5b600080fd5b600080fd5b60008083601f84011261189857611897611873565b5b8235905067ffffffffffffffff8111156118b5576118b4611878565b5b6020830191508360018202830111156118d1576118d061187d565b5b9250929050565b600080602083850312156118ef576118ee6117c6565b5b600083013567ffffffffffffffff81111561190d5761190c6117cb565b5b61191985828601611882565b92509250509250929050565b600060ff82169050919050565b61193b81611925565b82525050565b6000819050919050565b61195481611941565b82525050565b600081519050919050565b600082825260208201905092915050565b60005b83811015611994578082015181840152602081019050611979565b838111156119a3576000848401525b50505050565b6000601f19601f8301169050919050565b60006119c58261195a565b6119cf8185611965565b93506119df818560208601611976565b6119e8816119a9565b840191505092915050565b600081519050919050565b600082825260208201905092915050565b6000819050602082019050919050565b600073ffffffffffffffffffffffffffffffffffffffff82169050919050565b6000611a4a82611a1f565b9050919050565b611a5a81611a3f565b82525050565b600081519050919050565b600082825260208201905092915050565b6000819050602082019050919050565b6000819050919050565b611a9f81611a8c565b82525050565b6000611ab18383611a96565b60208301905092915050565b6000602082019050919050565b6000611ad582611a60565b611adf8185611a6b565b9350611aea83611a7c565b8060005b83811015611b1b578151611b028882611aa5565b9750611b0d83611abd565b925050600181019050611aee565b5085935050505092915050565b6000606083016000830151611b406000860182611a51565b5060208301518482036020860152611b588282611aca565b91505060408301518482036040860152611b7282826119ba565b9150508091505092915050565b6000611b8b8383611b28565b905092915050565b6000602082019050919050565b6000611bab826119f3565b611bb581856119fe565b935083602082028501611bc785611a0f565b8060005b85811015611c035784840389528151611be48582611b7f565b9450611bef83611b93565b925060208a01995050600181019050611bcb565b50829750879550505050505092915050565b6000608083016000830151611c2d6000860182611932565b506020830151611c40602086018261194b565b5060408301518482036040860152611c5882826119ba565b91505060608301518482036060860152611c728282611ba0565b9150508091505092915050565b60006020820190508181036000830152611c998184611c15565b905092915050565b600080fd5b7f4e487b7100000000000000000000000000000000000000000000000000000000600052604160045260246000fd5b611cde826119a9565b810181811067ffffffffffffffff82111715611cfd57611cfc611ca6565b5b80604052505050565b6000611d106117bc565b9050611d1c8282611cd5565b919050565b600080fd5b611d2f81611a8c565b8114611d3a57600080fd5b50565b600081359050611d4c81611d26565b92915050565b600080fd5b600067ffffffffffffffff821115611d7257611d71611ca6565b5b611d7b826119a9565b9050602081019050919050565b82818337600083830152505050565b6000611daa611da584611d57565b611d06565b905082815260208101848484011115611dc657611dc5611d52565b5b611dd1848285611d88565b509392505050565b600082601f830112611dee57611ded611873565b5b8135611dfe848260208601611d97565b91505092915050565b600067ffffffffffffffff821115611e2257611e21611ca6565b5b602082029050602081019050919050565b6000611e46611e4184611e07565b611d06565b90508083825260208201905060208402830185811115611e6957611e6861187d565b5b835b81811015611eb057803567ffffffffffffffff811115611e8e57611e8d611873565b5b808601611e9b8982611dd9565b85526020850194505050602081019050611e6b565b5050509392505050565b600082601f830112611ecf57611ece611873565b5b8135611edf848260208601611e33565b91505092915050565b611ef181611941565b8114611efc57600080fd5b50565b600081359050611f0e81611ee8565b92915050565b600060c08284031215611f2a57611f29611ca1565b5b611f3460c0611d06565b90506000611f4484828501611d3d565b600083015250602082013567ffffffffffffffff811115611f6857611f67611d21565b5b611f7484828501611dd9565b602083015250604082013567ffffffffffffffff811115611f9857611f97611d21565b5b611fa484828501611eba565b6040830152506060611fb884828501611eff565b6060830152506080611fcc84828501611eff565b60808301525060a082013567ffffffffffffffff811115611ff057611fef611d21565b5b611ffc84828501611dd9565b60a08301525092915050565b60006120143683611f14565b9050919050565b7f4e487b7100000000000000000000000000000000000000000000000000000000600052603260045260246000fd5b600082825260208201905092915050565b7f7665726966795472696550726f6f6620726f6f74206e6f64652068617368206960008201527f6e76616c69640000000000000000000000000000000000000000000000000000602082015250565b60006120b760268361204a565b91506120c28261205b565b604082019050919050565b600060208201905081810360008301526120e6816120aa565b9050919050565b7f7665726966795472696550726f6f66203c203332000000000000000000000000600082015250565b600061212360148361204a565b915061212e826120ed565b602082019050919050565b6000602082019050818103600083015261215281612116565b9050919050565b7f7665726966795472696550726f6f6620656c7365000000000000000000000000600082015250565b600061218f60148361204a565b915061219a82612159565b602082019050919050565b600060208201905081810360008301526121be81612182565b9050919050565b7f4e487b7100000000000000000000000000000000000000000000000000000000600052601160045260246000fd5b60006121ff82611941565b91507fffffffffffffffffffffffffffffffffffffffffffffffffffffffffffffffff821415612232576122316121c5565b5b600182019050919050565b600061224882611941565b915061225383611941565b9250827fffffffffffffffffffffffffffffffffffffffffffffffffffffffffffffffff03821115612288576122876121c5565b5b828201905092915050565b600061229e82611941565b91506122a983611941565b9250828210156122bc576122bb6121c5565b5b828203905092915050565b7f496e76616c69642070726f6f6600000000000000000000000000000000000000600082015250565b60006122fd600d8361204a565b9150612308826122c7565b602082019050919050565b6000602082019050818103600083015261232c816122f0565b9050919050565b600061233e82611925565b915061234983611925565b92508282101561235c5761235b6121c5565b5b828203905092915050565b7f4e487b7100000000000000000000000000000000000000000000000000000000600052601260045260246000fd5b60006123a182611941565b91506123ac83611941565b9250826123bc576123bb612367565b5b828204905092915050565b60006123d282611941565b91506123dd83611941565b9250826123ed576123ec612367565b5b828206905092915050565b600061240382611941565b915061240e83611941565b9250817fffffffffffffffffffffffffffffffffffffffffffffffffffffffffffffffff0483118215151615612447576124466121c5565b5b828202905092915050565b60008160011c9050919050565b6000808291508390505b60018511156124a957808604811115612485576124846121c5565b5b60018516156124945780820291505b80810290506124a285612452565b9450612469565b94509492505050565b6000826124c2576001905061257e565b816124d0576000905061257e565b81600181146124e657600281146124f05761251f565b600191505061257e565b60ff841115612502576125016121c5565b5b8360020a915084821115612519576125186121c5565b5b5061257e565b5060208310610133831016604e8410600b84101617156125545782820a90508381111561254f5761254e6121c5565b5b61257e565b612561848484600161245f565b92509050818404811115612578576125776121c5565b5b81810290505b9392505050565b600061259082611941565b915061259b83611941565b92506125c87fffffffffffffffffffffffffffffffffffffffffffffffffffffffffffffffff84846124b2565b90509291505056fea26469706673582212200e01c7ca16e24ff58af2f303a5c98d0d86f8ee8e8c7e191ee21332361085598564736f6c634300080a0033",
  "linkReferences": {},
  "deployedLinkReferences": {}
}