{
  "_format": "hh-sol-artifact-1",
  "contractName": "VotingMock",
  "sourceName": "contracts/test/VotingMock.sol",
  "abi": [
    {
      "inputs": [
        {
          "internalType": "address",
          "name": "registry",
          "type": "address"
        },
        {
          "internalType": "uint256",
          "name": "chainId",
          "type": "uint256"
        },
        {
          "internalType": "string",
          "name": "rpc",
          "type": "string"
        }
      ],
      "name": "addBlockchain",
      "outputs": [],
      "stateMutability": "nonpayable",
      "type": "function"
    }
  ],
  "bytecode": "0x608060405234801561001057600080fd5b50610418806100206000396000f3fe608060405234801561001057600080fd5b506004361061002b5760003560e01c80634ecb5c0214610030575b600080fd5b61004a600480360381019061004591906102ac565b61004c565b005b8273ffffffffffffffffffffffffffffffffffffffff1663dc20fa8983836040518363ffffffff1660e01b81526004016100879291906103b2565b600060405180830381600087803b1580156100a157600080fd5b505af11580156100b5573d6000803e3d6000fd5b50505050505050565b6000604051905090565b600080fd5b600080fd5b600073ffffffffffffffffffffffffffffffffffffffff82169050919050565b60006100fd826100d2565b9050919050565b61010d816100f2565b811461011857600080fd5b50565b60008135905061012a81610104565b92915050565b6000819050919050565b61014381610130565b811461014e57600080fd5b50565b6000813590506101608161013a565b92915050565b600080fd5b600080fd5b6000601f19601f8301169050919050565b7f4e487b7100000000000000000000000000000000000000000000000000000000600052604160045260246000fd5b6101b982610170565b810181811067ffffffffffffffff821117156101d8576101d7610181565b5b80604052505050565b60006101eb6100be565b90506101f782826101b0565b919050565b600067ffffffffffffffff82111561021757610216610181565b5b61022082610170565b9050602081019050919050565b82818337600083830152505050565b600061024f61024a846101fc565b6101e1565b90508281526020810184848401111561026b5761026a61016b565b5b61027684828561022d565b509392505050565b600082601f83011261029357610292610166565b5b81356102a384826020860161023c565b91505092915050565b6000806000606084860312156102c5576102c46100c8565b5b60006102d38682870161011b565b93505060206102e486828701610151565b925050604084013567ffffffffffffffff811115610305576103046100cd565b5b6103118682870161027e565b9150509250925092565b61032481610130565b82525050565b600081519050919050565b600082825260208201905092915050565b60005b83811015610364578082015181840152602081019050610349565b83811115610373576000848401525b50505050565b60006103848261032a565b61038e8185610335565b935061039e818560208601610346565b6103a781610170565b840191505092915050565b60006040820190506103c7600083018561031b565b81810360208301526103d98184610379565b9050939250505056fea26469706673582212204b3f0eb6f4b0f9e5ba6fa931b19ff3d7b634dabac0b392f0fac2b41d7bc1de0b64736f6c634300080a0033",
  "linkReferences": {},
  "deployedLinkReferences": {}
}