{
  "_format": "hh-sol-artifact-1",
  "contractName": "VotingMock",
  "sourceName": "contracts/test/VotingMock.sol",
  "abi": [
    {
      "inputs": [
        {
          "internalType": "address",
          "name": "registry",
          "type": "address"
        },
        {
          "internalType": "uint256",
          "name": "chainId",
          "type": "uint256"
        },
        {
          "internalType": "string",
          "name": "rpc",
          "type": "string"
        }
      ],
      "name": "addBlockchain",
      "outputs": [],
      "stateMutability": "nonpayable",
      "type": "function"
    }
  ],
  "bytecode": "0x608060405234801561001057600080fd5b5061022c806100206000396000f3fe608060405234801561001057600080fd5b506004361061002b5760003560e01c80634ecb5c0214610030575b600080fd5b61004361003e3660046100c0565b610045565b005b60405163dc20fa8960e01b81526001600160a01b0384169063dc20fa89906100739085908590600401610199565b600060405180830381600087803b15801561008d57600080fd5b505af11580156100a1573d6000803e3d6000fd5b50505050505050565b634e487b7160e01b600052604160045260246000fd5b6000806000606084860312156100d557600080fd5b83356001600160a01b03811681146100ec57600080fd5b925060208401359150604084013567ffffffffffffffff8082111561011057600080fd5b818601915086601f83011261012457600080fd5b813581811115610136576101366100aa565b604051601f8201601f19908116603f0116810190838211818310171561015e5761015e6100aa565b8160405282815289602084870101111561017757600080fd5b8260208601602083013760006020848301015280955050505050509250925092565b82815260006020604081840152835180604085015260005b818110156101cd578581018301518582016060015282016101b1565b818111156101df576000606083870101525b50601f01601f19169290920160600194935050505056fea2646970667358221220251d2bd9ca866bd2333787e66c8351d40730c52b6dd2e1cc1dcd564174301af164736f6c634300080a0033",
  "linkReferences": {},
  "deployedLinkReferences": {}
}